{
  "_format": "hh3-artifact-1",
  "contractName": "PalindromePayWallet",
  "sourceName": "contracts/PalindromePayWallet.sol",
  "abi": [
    {
      "inputs": [
        {
          "internalType": "address",
          "name": "_escrowContract",
          "type": "address"
        },
        {
          "internalType": "uint256",
          "name": "_escrowId",
          "type": "uint256"
        }
      ],
      "stateMutability": "nonpayable",
      "type": "constructor"
    },
    {
      "inputs": [],
      "name": "AlreadyWithdrawn",
      "type": "error"
    },
    {
      "inputs": [],
      "name": "AmountTooSmallForFee",
      "type": "error"
    },
    {
      "inputs": [],
      "name": "EscrowContractZero",
      "type": "error"
    },
    {
      "inputs": [],
      "name": "FeeReceiverZero",
      "type": "error"
    },
    {
      "inputs": [],
      "name": "InsufficientSignatures",
      "type": "error"
    },
    {
      "inputs": [],
      "name": "InvalidEscrowState",
      "type": "error"
    },
    {
      "inputs": [],
      "name": "InvalidSignature",
      "type": "error"
    },
    {
      "inputs": [],
      "name": "OnlyParticipant",
      "type": "error"
    },
    {
      "inputs": [],
      "name": "SignatureLengthInvalid",
      "type": "error"
    },
    {
      "inputs": [],
      "name": "SignatureSInvalid",
      "type": "error"
    },
    {
      "inputs": [],
      "name": "SignatureVInvalid",
      "type": "error"
    },
    {
      "inputs": [],
      "name": "TokenAddressZero",
      "type": "error"
    },
    {
      "inputs": [],
      "name": "WalletMismatch",
      "type": "error"
    },
    {
      "inputs": [],
      "name": "WalletNotEmpty",
      "type": "error"
    },
    {
      "anonymous": false,
      "inputs": [
        {
          "indexed": true,
          "internalType": "uint256",
          "name": "escrowId",
          "type": "uint256"
        },
        {
          "indexed": true,
          "internalType": "address",
          "name": "arbiter",
          "type": "address"
        },
        {
          "indexed": false,
          "internalType": "uint256",
          "name": "amount",
          "type": "uint256"
        }
      ],
      "name": "ArbiterPaid",
      "type": "event"
    },
    {
      "anonymous": false,
      "inputs": [
        {
          "indexed": true,
          "internalType": "uint256",
          "name": "escrowId",
          "type": "uint256"
        },
        {
          "indexed": true,
          "internalType": "address",
          "name": "recipient",
          "type": "address"
        },
        {
          "indexed": false,
          "internalType": "uint256",
          "name": "netAmount",
          "type": "uint256"
        },
        {
          "indexed": true,
          "internalType": "address",
          "name": "feeReceiver",
          "type": "address"
        },
        {
          "indexed": false,
          "internalType": "uint256",
          "name": "feeAmount",
          "type": "uint256"
        }
      ],
      "name": "Withdrawn",
      "type": "event"
    },
    {
      "inputs": [],
      "name": "DOMAIN_SEPARATOR",
      "outputs": [
        {
          "internalType": "bytes32",
          "name": "",
          "type": "bytes32"
        }
      ],
      "stateMutability": "view",
      "type": "function"
    },
    {
      "inputs": [],
      "name": "ESCROW_CONTRACT",
      "outputs": [
        {
          "internalType": "address",
          "name": "",
          "type": "address"
        }
      ],
      "stateMutability": "view",
      "type": "function"
    },
    {
      "inputs": [],
      "name": "ESCROW_ID",
      "outputs": [
        {
          "internalType": "uint256",
          "name": "",
          "type": "uint256"
        }
      ],
      "stateMutability": "view",
      "type": "function"
    },
    {
      "inputs": [
        {
          "internalType": "address",
          "name": "participant",
          "type": "address"
        },
        {
          "internalType": "uint8",
          "name": "outcome",
          "type": "uint8"
        }
      ],
      "name": "getAuthorizationDigest",
      "outputs": [
        {
          "internalType": "bytes32",
          "name": "",
          "type": "bytes32"
        }
      ],
      "stateMutability": "view",
      "type": "function"
    },
    {
      "inputs": [],
      "name": "getBalance",
      "outputs": [
        {
          "internalType": "uint256",
          "name": "",
          "type": "uint256"
        }
      ],
      "stateMutability": "view",
      "type": "function"
    },
    {
      "inputs": [
        {
          "internalType": "uint8",
          "name": "outcome",
          "type": "uint8"
        }
      ],
      "name": "getValidSignatureCount",
      "outputs": [
        {
          "internalType": "uint256",
          "name": "count",
          "type": "uint256"
        }
      ],
      "stateMutability": "view",
      "type": "function"
    },
    {
      "inputs": [
        {
          "internalType": "address",
          "name": "participant",
          "type": "address"
        },
        {
          "internalType": "uint8",
          "name": "outcome",
          "type": "uint8"
        }
      ],
      "name": "isSignatureValid",
      "outputs": [
        {
          "internalType": "bool",
          "name": "",
          "type": "bool"
        }
      ],
      "stateMutability": "view",
      "type": "function"
    },
    {
      "inputs": [],
      "name": "withdraw",
      "outputs": [],
      "stateMutability": "nonpayable",
      "type": "function"
    },
    {
      "inputs": [],
      "name": "withdrawn",
      "outputs": [
        {
          "internalType": "bool",
          "name": "",
          "type": "bool"
        }
      ],
      "stateMutability": "view",
      "type": "function"
    }
  ],
  "bytecode": "0x61010080604052346101b157604081611931803803809161002082856101b5565b8339810103126101b15780516001600160a01b038116918282036101b157602001519160015f55156101a25760805260a0524660e0526040516100646040826101b5565b601381527f50616c696e64726f6d6550617957616c6c657400000000000000000000000000602090910152604080517f87935900cf85ca6189e663d7248e1662ff19d0d4c4fd1ac66e148650615f0137916100bf90826101b5565b600181526020810190603160f81b82525190206040519060208201927f8b73c3c69bb8fe3d512ecc4cf759cc79239f7b179b0ffacaa9a75d522b39400f8452604083015260608201524660808201523060a082015260a0815261012360c0826101b5565b51902060c05260405161174490816101ed82396080518181816101b1015281816107a60152818161089201528181610c5801528181610dab01526113ab015260a051818181610181015281816107ec0152818161085d01528181610c2301528181610d780152611378015260c05181611079015260e05181610f990152f35b63d6702f4f60e01b5f5260045ffd5b5f80fd5b601f909101601f19168101906001600160401b038211908210176101d857604052565b634e487b7160e01b5f52604160045260245ffdfe60806040526004361015610011575f80fd5b5f3560e01c806310e881ea146100a457806312065fe01461009f5780633644e5151461009a5780633ccfd60b146100955780634bfe2c68146100905780636e7949721461008b57806379a7a85c14610086578063c80ec522146100815763f258857e1461007c575f80fd5b610831565b61080f565b6107d5565b610791565b610778565b61014b565b610131565b61010f565b346100c75760206100bd6100b7366100e7565b90610c14565b6040519015158152f35b5f80fd5b6001600160a01b038116036100c757565b60ff8116036100c757565b60409060031901126100c7576004356100ff816100cb565b9060243561010c816100dc565b90565b346100c7575f3660031901126100c7576020610129610d69565b604051908152f35b346100c7575f3660031901126100c7576020610129610f97565b346100c7575f3660031901126100c75760025f54146107335760025f5560015460ff1661072457604051633e8cf2cb60e11b81527f0000000000000000000000000000000000000000000000000000000000000000600482018190526001600160a01b037f00000000000000000000000000000000000000000000000000000000000000001691905f82602481865afa918215610492575f92610700575b506080820151306001600160a01b03909116036106f1576101408201519061021082610e8a565b61021982610e8a565b60038214918215806106dd575b806106c9575b6106ba5783516001600160a01b0316156106ab57602084018051909590610263906001600160a01b03165b6001600160a01b031690565b3314158061068b575b61067c5761027982610e8a565b83156106645760408501516102aa906102a6906001600160a01b03165b61029f85610e8a565b848861109b565b1590565b610655576102bf600160ff1981541617600155565b84516102d3906001600160a01b0316610257565b6040516370a0823160e01b81523060048201526001600160a01b0382169791959091906020836024818c5afa928315610492575f93610634575b505f946101c0890161ffff610324825161ffff1690565b16151580610605575b61056d575b5061033c90610e8a565b156104f75750604086015160049291906020906001600160a01b0316926040519485809263d3e78e4d60e01b82525afa928315610492575f936104c6575b506001600160a01b0383169687156104b7576101a0015161039e9060ff16826112d6565b939050816103ac8686610ee7565b10156104a857826103ea7f2b50bbeab304785e1247f1e22da0321897c428768d93e80ab1811e9baa955901966103e5876103fb96610ec5565b610ec5565b9788928680610497575b50506111ec565b6040805195865260208601929092526001600160a01b031693a45b6040516370a0823160e01b815230600482015290602090829060249082905afa908115610492575f91610463575b506104545761045260015f55565b005b631fea47ef60e01b5f5260045ffd5b610485915060203d60201161048b575b61047d81836109a4565b810190610d5a565b5f610444565b503d610473565b610c09565b6104a191836111ec565b5f866103f4565b6313b7709160e11b5f5260045ffd5b630665334760e11b5f5260045ffd5b6104e991935060203d6020116104f0575b6104e181836109a4565b810190610ed2565b915f61037a565b503d6104d7565b515f96506001600160a01b0316947f2b50bbeab304785e1247f1e22da0321897c428768d93e80ab1811e9baa9559019361056593508692610544929161053c91610ec5565b9687916111ec565b604080519586525f60208701526001600160a01b0390911694918291820190565b0390a4610416565b61033c91965061059561058f61058861059d935161ffff1690565b61ffff1690565b86610ead565b612710900490565b95866105aa575b90610332565b60608a0180516105c59089906001600160a01b03168c6111ec565b516040518881526001600160a01b039091169089907fbe03dbff9ebc9b0d2283c8f75921d9925bb8d122357deb30cc81aa971a25725790602090a36105a4565b506102208a015160608b015161062f9184916001600160a01b03169061062a83610e8a565b610f02565b61032d565b61064e91935060203d60201161048b5761047d81836109a4565b915f61030d565b633724e34360e11b5f5260045ffd5b85516102aa906102a6906001600160a01b0316610296565b630eebd6cd60e21b5f5260045ffd5b5060408501516106a3906001600160a01b0316610257565b33141561026c565b6381c609f760e01b5f5260045ffd5b635448814d60e11b5f5260045ffd5b506106d381610e8a565b600581141561022c565b506106e781610e8a565b6004811415610226565b6331e7efa560e01b5f5260045ffd5b61071d9192503d805f833e61071581836109a4565b810190610a7e565b905f6101e9565b636507689f60e01b5f5260045ffd5b60405162461bcd60e51b815260206004820152601f60248201527f5265656e7472616e637947756172643a207265656e7472616e742063616c6c006044820152606490fd5b346100c757602061012961078b366100e7565b90611347565b346100c7575f3660031901126100c7576040517f00000000000000000000000000000000000000000000000000000000000000006001600160a01b03168152602090f35b346100c7575f3660031901126100c75760206040517f00000000000000000000000000000000000000000000000000000000000000008152f35b346100c7575f3660031901126100c757602060ff600154166040519015158152f35b346100c75760203660031901126100c75760043561084e816100dc565b604051633e8cf2cb60e11b81527f00000000000000000000000000000000000000000000000000000000000000006004820152905f80836024816001600160a01b037f0000000000000000000000000000000000000000000000000000000000000000165afa91821561049257610946935f93610974575b5061020083015160208401516108e89183916001600160a01b03165b90610f02565b61096b575b6101e0830151604084015161090c9183916001600160a01b03166108e2565b610958575b6102208301516060909301519192610931926001600160a01b03166108e2565b61094a575b6040519081529081906020820190565b0390f35b61095390610ef4565b610936565b61096461093192610ef4565b9150610911565b600191506108ed565b6109899193503d805f833e61071581836109a4565b915f6108c6565b634e487b7160e01b5f52604160045260245ffd5b90601f8019910116810190811067ffffffffffffffff8211176109c657604052565b610990565b604051906109db610240836109a4565b565b51906109db826100cb565b519060068210156100c757565b519081151582036100c757565b51906109db826100dc565b519061ffff821682036100c757565b67ffffffffffffffff81116109c657601f01601f191660200190565b81601f820112156100c757805190610a4f82610a1c565b92610a5d60405194856109a4565b828452602083830101116100c757815f9260208093018386015e8301015290565b6020818303126100c75780519067ffffffffffffffff82116100c75701610240818303126100c757610aae6109cb565b91610ab8826109dd565b8352610ac6602083016109dd565b6020840152610ad7604083016109dd565b6040840152610ae8606083016109dd565b6060840152610af9608083016109dd565b608084015260a082015160a084015260c082015160c084015260e082015160e0840152610100820151610100840152610120820151610120840152610b4161014083016109e8565b610140840152610b5461016083016109f5565b610160840152610b6761018083016109f5565b610180840152610b7a6101a08301610a02565b6101a0840152610b8d6101c08301610a0d565b6101c08401526101e082015167ffffffffffffffff81116100c75781610bb4918401610a38565b6101e084015261020082015167ffffffffffffffff81116100c75781610bdb918401610a38565b61020084015261022082015167ffffffffffffffff81116100c757610c009201610a38565b61022082015290565b6040513d5f823e3d90fd5b604051633e8cf2cb60e11b81527f0000000000000000000000000000000000000000000000000000000000000000600482015291905f836024816001600160a01b037f0000000000000000000000000000000000000000000000000000000000000000165afa928315610492575f93610d3e575b50602083018051909190610ca4906001600160a01b0316610257565b6001600160a01b03909116908103610cd457506102009290920151915161010c92906001600160a01b03166108e2565b604084018051909250610cef906001600160a01b0316610257565b8103610d1357506101e09290920151915161010c92906001600160a01b03166108e2565b60608401516001600160a01b031691508114610d30575050505f90565b61022061010c930151610f02565b610d539193503d805f833e61071581836109a4565b915f610c88565b908160209103126100c7575190565b604051633e8cf2cb60e11b81527f000000000000000000000000000000000000000000000000000000000000000060048201525f816024816001600160a01b037f0000000000000000000000000000000000000000000000000000000000000000165afa801561049257610dec915f91610e5c575b50516001600160a01b031690565b6001600160a01b03811615610e5757610e0d906001600160a01b0316610257565b6040516370a0823160e01b815230600482015290602090829060249082905afa908115610492575f91610e3e575090565b61010c915060203d60201161048b5761047d81836109a4565b505f90565b610e7091503d805f833e61071581836109a4565b5f610dde565b634e487b7160e01b5f52602160045260245ffd5b60061115610e9457565b610e76565b634e487b7160e01b5f52601160045260245ffd5b81810292918115918404141715610ec057565b610e99565b91908203918211610ec057565b908160209103126100c7575161010c816100cb565b91908201809211610ec057565b5f198114610ec05760010190565b916041835103610f90576001600160a01b038216928315610f88576020810151606060408301519201515f1a6fa2a8918ca85bafe22016d0b997e4df60600160ff1b038311610f7357601b81141580610f7d575b610f7357610f6a61025794610f6f96611347565b61142b565b1490565b5050505050505f90565b50601c811415610f56565b505050505f90565b5050505f90565b7f00000000000000000000000000000000000000000000000000000000000000004614611077576040611063611071601360208451610fd686826109a4565b828152017214185b1a5b991c9bdb5954185e55d85b1b195d606a1b8152209260016020825161100584826109a4565b828152603160f81b91019081522090517f8b73c3c69bb8fe3d512ecc4cf759cc79239f7b179b0ffacaa9a75d522b39400f60208201908152604082019590955260608101919091524660808201523060a082015291829060c0820190565b03601f1981018352826109a4565b51902090565b7f000000000000000000000000000000000000000000000000000000000000000090565b91906102008301516110bc8260208601926108e2845160018060a01b031690565b906110fd6101e0860151936110e08160408901966108e2885160018060a01b031690565b6102208801516060909801519097906001600160a01b03166108e2565b5f8187856111df575b6111cf575b6111c1575b60028110156111b55760011461112a575050505050505f90565b6111ab5781611186575b5061117e5782611155575b5050611150575f8080808080610f73565b600190565b5190915061116b906001600160a01b0316610257565b6001600160a01b03909116145f8061113f565b505050600190565b5161119a91506001600160a01b0316610257565b6001600160a01b038316145f611134565b5050505050600190565b50505050505050600190565b6111ca90610ef4565b611110565b906111d990610ef4565b9061110b565b5050508581600191611106565b916112a0915f806109db9560405194602086019463a9059cbb60e01b865260018060a01b0316602487015260448601526044855261122b6064866109a4565b60018060a01b031692604051946112436040876109a4565b602086527f5361666545524332303a206c6f772d6c6576656c2063616c6c206661696c65646020870152519082855af13d156112ce573d9161128483610a1c565b9261129260405194856109a4565b83523d5f602085013e61169c565b80519081159182156112b4575b5050611456565b6112c79250602080918301019101611442565b5f806112ad565b60609161169c565b9060ff16600281111561133e576001190160ff8111610ec05760ff905b16604d8111610ec057600a0a6064820282810460641483151715610ec0576127109004908082106113365750905b81818110156104a85761133391610ec5565b91565b905090611321565b5060ff5f6112f3565b9060ff6040519160208301937f03ead94b7a0d2ab026418d8f153693558d351b0ee03896a32629040faf1baff485527f0000000000000000000000000000000000000000000000000000000000000000604085015230606085015260018060a01b037f000000000000000000000000000000000000000000000000000000000000000016608085015260018060a01b031660a08401521660c082015260c081526113f260e0826109a4565b519020611063611071611403610f97565b92604051928391602083019586909160429261190160f01b8352600283015260228201520190565b9161010c939161143a936114b5565b919091611530565b908160209103126100c75761010c906109f5565b1561145d57565b60405162461bcd60e51b815260206004820152602a60248201527f5361666545524332303a204552433230206f7065726174696f6e20646964206e6044820152691bdd081cdd58d8d9595960b21b6064820152608490fd5b6fa2a8918ca85bafe22016d0b997e4df60600160ff1b03841161151b576020935f9360ff60809460405194855216868401526040830152606082015282805260015afa15610492575f516001600160a01b0381161561151357905f90565b505f90600190565b505050505f90600390565b60051115610e9457565b61153981611526565b806115415750565b61154a81611526565b600181036115975760405162461bcd60e51b815260206004820152601860248201527f45434453413a20696e76616c6964207369676e617475726500000000000000006044820152606490fd5b6115a081611526565b600281036115ed5760405162461bcd60e51b815260206004820152601f60248201527f45434453413a20696e76616c6964207369676e6174757265206c656e677468006044820152606490fd5b806115f9600392611526565b1461160057565b60405162461bcd60e51b815260206004820152602260248201527f45434453413a20696e76616c6964207369676e6174757265202773272076616c604482015261756560f01b6064820152608490fd5b1561165757565b60405162461bcd60e51b815260206004820152601d60248201527f416464726573733a2063616c6c20746f206e6f6e2d636f6e74726163740000006044820152606490fd5b919290156116bc57508151156116b0575090565b61010c903b1515611650565b8251909150156116cf5750805190602001fd5b604460209160405192839162461bcd60e51b83528160048401528051918291826024860152018484015e5f828201840152601f01601f19168101030190fdfea2646970667358221220855592fbc77095e1d33a9d6292a2fe4e8e6e1f01e509e247a75121250aa0b5dc64736f6c634300081d0033",
  "linkReferences": {},
  "deployedLinkReferences": {},
  "immutableReferences": {
    "7205": [
      {
        "length": 32,
        "start": 433
      },
      {
        "length": 32,
        "start": 1958
      },
      {
        "length": 32,
        "start": 2194
      },
      {
        "length": 32,
        "start": 3160
      },
      {
        "length": 32,
        "start": 3499
      },
      {
        "length": 32,
        "start": 5035
      }
    ],
    "7208": [
      {
        "length": 32,
        "start": 385
      },
      {
        "length": 32,
        "start": 2028
      },
      {
        "length": 32,
        "start": 2141
      },
      {
        "length": 32,
        "start": 3107
      },
      {
        "length": 32,
        "start": 3448
      },
      {
        "length": 32,
        "start": 4984
      }
    ],
    "7211": [
      {
        "length": 32,
        "start": 4217
      }
    ],
    "7214": [
      {
        "length": 32,
        "start": 3993
      }
    ]
  },
  "inputSourceName": "project/contracts/PalindromePayWallet.sol",
  "buildInfoId": "solc-0_8_29-e415627293ea94dc0aafa9ad3db95819d0bf5caf"
}