{
  "_format": "hh3-artifact-1",
  "contractName": "PalindromePayWalletFactory",
  "sourceName": "contracts/PalindromePayWalletFactory.sol",
  "abi": [
    {
      "inputs": [
        {
          "internalType": "uint256",
          "name": "escrowId",
          "type": "uint256"
        }
      ],
      "name": "deploy",
      "outputs": [
        {
          "internalType": "address",
          "name": "walletAddr",
          "type": "address"
        }
      ],
      "stateMutability": "nonpayable",
      "type": "function"
    },
    {
      "inputs": [
        {
          "internalType": "address",
          "name": "escrowContract",
          "type": "address"
        },
        {
          "internalType": "uint256",
          "name": "escrowId",
          "type": "uint256"
        }
      ],
      "name": "predictWalletAddress",
      "outputs": [
        {
          "internalType": "address",
          "name": "predicted",
          "type": "address"
        }
      ],
      "stateMutability": "view",
      "type": "function"
    }
  ],
  "bytecode": "0x6080806040523460155761185c908161001a8239f35b5f80fdfe6080806040526004361015610012575f80fd5b5f3560e01c908163a5e3875114610155575063ea8566f414610032575f80fd5b34610151576040366003190112610151576004356001600160a01b0381168103610151576020906024356100c76101066040518581019084825286815261007a6040826101ea565b5190209385611606916100d560405196610096848601896101ea565b848852838801946102218639604051968791858301948560209093929193604081019460018060a01b031681520152565b03601f1981018752866101ea565b60405194859383850197518091895e840190838201905f8252519283915e01015f815203601f1981018352826101ea565b51902090604051918383019160ff60f81b83523060601b6021850152603584015260558301526055825261013b6075836101ea565b905190206040516001600160a01b039091168152f35b5f80fd5b3461015157602036600319011261015157600435906020810190828252602081526101816040826101ea565b51902060405190916101cb61160661019c60208201856101ea565b808452602084019061022182396040805133602082810191825292820195909552936100d585606081016100c7565b51905ff58015610151576040516001600160a01b039091168152602090f35b90601f8019910116810190811067ffffffffffffffff82111761020c57604052565b634e487b7160e01b5f52604160045260245ffdfe61010080604052346101b157604081611606803803809161002082856101b5565b8339810103126101b15780516001600160a01b038116918282036101b157602001519160015f55156101a25760805260a0524660e0526040516100646040826101b5565b601381527f50616c696e64726f6d6550617957616c6c657400000000000000000000000000602090910152604080517f87935900cf85ca6189e663d7248e1662ff19d0d4c4fd1ac66e148650615f0137916100bf90826101b5565b600181526020810190603160f81b82525190206040519060208201927f8b73c3c69bb8fe3d512ecc4cf759cc79239f7b179b0ffacaa9a75d522b39400f8452604083015260608201524660808201523060a082015260a0815261012360c0826101b5565b51902060c05260405161141990816101ed82396080518181816101b301528181610629015281816106dc01528181610a0e01528181610b1f0152610d4d015260a0518181816101830152818161066f015281816106b1015281816109db01528181610aeb0152610d1a015260c05181610ea9015260e05181610ddd0152f35b63d6702f4f60e01b5f5260045ffd5b5f80fd5b601f909101601f19168101906001600160401b038211908210176101d857604052565b634e487b7160e01b5f52604160045260245ffdfe60806040526004361015610011575f80fd5b5f3560e01c806312065fe0146100a4578063145d07051461009f5780632a5851a21461009a5780633644e515146100955780633ccfd60b146100905780636e7949721461008b57806379a7a85c1461008657806393e74d7f146100815763c80ec5221461007c575f80fd5b610742565b610692565b610658565b610614565b61014d565b610133565b61010c565b6100db565b346100c6575f3660031901126100c65760206100be6109cc565b604051908152f35b5f80fd5b6001600160a01b038116036100c657565b346100c65760203660031901126100c65760206101026004356100fd816100ca565b610adc565b6040519015158152f35b346100c65760203660031901126100c65760206100be60043561012e816100ca565b610ced565b346100c6575f3660031901126100c65760206100be610ddb565b346100c6575f3660031901126100c65760025f54146105cf5760025f5560015460ff166105c057604051633e8cf2cb60e11b81527f0000000000000000000000000000000000000000000000000000000000000000600482018190526001600160a01b037f0000000000000000000000000000000000000000000000000000000000000000165f83602481845afa928315610422575f9361059c575b506080830151306001600160a01b039091160361058d576101208301519161021083610c36565b61021983610c36565b6003831493841580610579575b80610565575b6105565780516001600160a01b03161561054757602081018051909190610263906001600160a01b03165b6001600160a01b031690565b33141580610527575b61051857600261027b82610ef2565b1061050957610291600160ff1981541617600155565b80516102a5906001600160a01b0316610257565b6040516370a0823160e01b81523060048201526001600160a01b0382169790969193916020886024818c5afa978815610422575f986104e4575b506102e990610c36565b156104785750604081015160049291906020906001600160a01b0316956040519485809263d3e78e4d60e01b82525afa928315610422575f93610447575b506001600160a01b038316958615610438577f2b50bbeab304785e1247f1e22da0321897c428768d93e80ab1811e9baa9559019361037861038b926103726101808a96015160ff1690565b90611080565b94819891928680610427575b5050610f89565b6040805195865260208601929092526001600160a01b031693a45b6040516370a0823160e01b815230600482015290602090829060249082905afa908115610422575f916103f3575b506103e4576103e260015f55565b005b631fea47ef60e01b5f5260045ffd5b610415915060203d60201161041b575b61040d8183610778565b8101906109bd565b5f6103d4565b503d610403565b6109b2565b6104319183610f89565b5f86610384565b630665334760e11b5f5260045ffd5b61046a91935060203d602011610471575b6104628183610778565b810190610c45565b915f610327565b503d610458565b515f9594507f2b50bbeab304785e1247f1e22da0321897c428768d93e80ab1811e9baa955901926104dc9250906104bb9086906001600160a01b03168093610f89565b604080519586525f60208701526001600160a01b0390911694918291820190565b0390a46103a6565b6102e99198506105029060203d60201161041b5761040d8183610778565b97906102df565b633724e34360e11b5f5260045ffd5b630eebd6cd60e21b5f5260045ffd5b50604081015161053f906001600160a01b0316610257565b33141561026c565b6381c609f760e01b5f5260045ffd5b635448814d60e11b5f5260045ffd5b5061056f84610c36565b600584141561022c565b5061058384610c36565b6004841415610226565b6331e7efa560e01b5f5260045ffd5b6105b99193503d805f833e6105b18183610778565b810190610846565b915f6101e9565b636507689f60e01b5f5260045ffd5b60405162461bcd60e51b815260206004820152601f60248201527f5265656e7472616e637947756172643a207265656e7472616e742063616c6c006044820152606490fd5b346100c6575f3660031901126100c6576040517f00000000000000000000000000000000000000000000000000000000000000006001600160a01b03168152602090f35b346100c6575f3660031901126100c65760206040517f00000000000000000000000000000000000000000000000000000000000000008152f35b346100c6575f3660031901126100c657604051633e8cf2cb60e11b81527f000000000000000000000000000000000000000000000000000000000000000060048201525f816024817f00000000000000000000000000000000000000000000000000000000000000006001600160a01b03165afa80156104225761071d915f91610728575b50610ef2565b604051908152602090f35b61073c91503d805f833e6105b18183610778565b5f610717565b346100c6575f3660031901126100c657602060ff600154166040519015158152f35b634e487b7160e01b5f52604160045260245ffd5b90601f8019910116810190811067ffffffffffffffff82111761079a57604052565b610764565b604051906107af61020083610778565b565b51906107af826100ca565b519060068210156100c657565b519081151582036100c657565b519060ff821682036100c657565b67ffffffffffffffff811161079a57601f01601f191660200190565b81601f820112156100c657805190610817826107e4565b926108256040519485610778565b828452602083830101116100c657815f9260208093018386015e8301015290565b6020818303126100c65780519067ffffffffffffffff82116100c65701610200818303126100c65761087661079f565b91610880826107b1565b835261088e602083016107b1565b602084015261089f604083016107b1565b60408401526108b0606083016107b1565b60608401526108c1608083016107b1565b608084015260a082015160a084015260c082015160c084015260e082015160e08401526101008201516101008401526108fd61012083016107bc565b61012084015261091061014083016107c9565b61014084015261092361016083016107c9565b61016084015261093661018083016107d6565b6101808401526101a082015167ffffffffffffffff81116100c6578161095d918401610800565b6101a08401526101c082015167ffffffffffffffff81116100c65781610984918401610800565b6101c08401526101e082015167ffffffffffffffff81116100c6576109a99201610800565b6101e082015290565b6040513d5f823e3d90fd5b908160209103126100c6575190565b604051633e8cf2cb60e11b81527f000000000000000000000000000000000000000000000000000000000000000060048201525f816024816001600160a01b037f0000000000000000000000000000000000000000000000000000000000000000165afa801561042257610a4f915f91610ac2575b50516001600160a01b031690565b6001600160a01b03811615610abd57610a70906001600160a01b0316610257565b6040516370a0823160e01b815230600482015290602090829060249082905afa908115610422575f91610aa1575090565b610aba915060203d60201161041b5761040d8183610778565b90565b505f90565b610ad691503d805f833e6105b18183610778565b5f610a41565b604051633e8cf2cb60e11b81527f00000000000000000000000000000000000000000000000000000000000000006004820152905f826024816001600160a01b037f0000000000000000000000000000000000000000000000000000000000000000165afa918215610422575f92610c06575b50602082018051909190610b6b906001600160a01b0316610257565b6001600160a01b03909116908103610b9d57506101c091909101519051610aba91906001600160a01b03165b90610c5a565b604083018051909250610bb8906001600160a01b0316610257565b8103610bdc57506101a091909101519051610aba91906001600160a01b0316610b97565b60608301516001600160a01b031691508114610bf85750505f90565b6101e0610aba920151610c5a565b610c1b9192503d805f833e6105b18183610778565b905f610b4f565b634e487b7160e01b5f52602160045260245ffd5b60061115610c4057565b610c22565b908160209103126100c65751610aba816100ca565b6041815103610ce7576001600160a01b038216918215610ce057602082015191606060408201519101515f1a926fa2a8918ca85bafe22016d0b997e4df60600160ff1b038211610ccc57601b84141580610cd5575b610ccc57610cc893610cc361025794610ced565b611100565b1490565b50505050505f90565b50601c841415610caf565b5050505f90565b50505f90565b60405160208101917fed473c518e54a8b0629fb3b28066f73c014d4ea2c521bd458da8b399f375788283527f0000000000000000000000000000000000000000000000000000000000000000604083015230606083015260018060a01b037f000000000000000000000000000000000000000000000000000000000000000016608083015260018060a01b031660a082015260a08152610d8e60c082610778565b519020610dc7610dd5610d9f610ddb565b92604051928391602083019586909160429261190160f01b8352600283015260228201520190565b03601f198101835282610778565b51902090565b7f00000000000000000000000000000000000000000000000000000000000000004614610ea7576040610dc7610dd5601360208451610e1a8682610778565b828152017214185b1a5b991c9bdb5954185e55d85b1b195d606a1b81522092600160208251610e498482610778565b828152603160f81b91019081522090517f8b73c3c69bb8fe3d512ecc4cf759cc79239f7b179b0ffacaa9a75d522b39400f60208201908152604082019590955260608101919091524660808201523060a082015291829060c0820190565b7f000000000000000000000000000000000000000000000000000000000000000090565b634e487b7160e01b5f52601160045260245ffd5b5f198114610eed5760010190565b610ecb565b6101c081015160208201515f939291610f14916001600160a01b031690610c5a565b610f80575b610f356101a082015160018060a01b0360408401511690610c5a565b610f6b575b6101e0810151606090910151610f5b916001600160a01b0390911690610c5a565b610f6157565b90610aba90610edf565b91610f78610f5b91610edf565b929050610f3a565b60019250610f19565b9161103d915f806107af9560405194602086019463a9059cbb60e01b865260018060a01b03166024870152604486015260448552610fc8606486610778565b60018060a01b03169260405194610fe0604087610778565b602086527f5361666545524332303a206c6f772d6c6576656c2063616c6c206661696c65646020870152519082855af13d1561106b573d91611021836107e4565b9261102f6040519485610778565b83523d5f602085013e611371565b8051908115918215611051575b505061112b565b6110649250602080918301019101611117565b5f8061104a565b606091611371565b91908203918211610eed57565b9060ff1660028111156110f7576001190160ff8111610eed5760ff905b16604d8111610eed57600a0a6064820282810460641483151715610eed576127109004908082106110ef5750905b81818110156110e0576110dd91611073565b91565b6313b7709160e11b5f5260045ffd5b9050906110cb565b5060ff5f61109d565b91610aba939161110f9361118a565b919091611205565b908160209103126100c657610aba906107c9565b1561113257565b60405162461bcd60e51b815260206004820152602a60248201527f5361666545524332303a204552433230206f7065726174696f6e20646964206e6044820152691bdd081cdd58d8d9595960b21b6064820152608490fd5b6fa2a8918ca85bafe22016d0b997e4df60600160ff1b0384116111f0576020935f9360ff60809460405194855216868401526040830152606082015282805260015afa15610422575f516001600160a01b038116156111e857905f90565b505f90600190565b505050505f90600390565b60051115610c4057565b61120e816111fb565b806112165750565b61121f816111fb565b6001810361126c5760405162461bcd60e51b815260206004820152601860248201527f45434453413a20696e76616c6964207369676e617475726500000000000000006044820152606490fd5b611275816111fb565b600281036112c25760405162461bcd60e51b815260206004820152601f60248201527f45434453413a20696e76616c6964207369676e6174757265206c656e677468006044820152606490fd5b806112ce6003926111fb565b146112d557565b60405162461bcd60e51b815260206004820152602260248201527f45434453413a20696e76616c6964207369676e6174757265202773272076616c604482015261756560f01b6064820152608490fd5b1561132c57565b60405162461bcd60e51b815260206004820152601d60248201527f416464726573733a2063616c6c20746f206e6f6e2d636f6e74726163740000006044820152606490fd5b919290156113915750815115611385575090565b610aba903b1515611325565b8251909150156113a45750805190602001fd5b604460209160405192839162461bcd60e51b83528160048401528051918291826024860152018484015e5f828201840152601f01601f19168101030190fdfea264697066735822122053913bf840ad17092063d66183b942e92359ae8bd724564fac51006837ad8ea464736f6c634300081d0033a26469706673582212209c047fd4c5b247e6f38a1aacb81e15b9e8009afbbbdd4f9b2c669630f0ab2a9364736f6c634300081d0033",
  "linkReferences": {},
  "deployedLinkReferences": {},
  "immutableReferences": {},
  "inputSourceName": "project/contracts/PalindromePayWalletFactory.sol",
  "buildInfoId": "solc-0_8_29-f4ec59cd75b01d9909fbcc64454fa277ca272075"
}