{
  "_format": "hh3-artifact-1",
  "contractName": "PalindromeCryptoEscrow",
  "sourceName": "contracts/PalindromeCryptoEscrow.sol",
  "abi": [
    {
      "inputs": [
        {
          "internalType": "address",
          "name": "initialAllowedToken",
          "type": "address"
        }
      ],
      "stateMutability": "nonpayable",
      "type": "constructor"
    },
    {
      "inputs": [],
      "name": "InsufficientBalance",
      "type": "error"
    },
    {
      "inputs": [],
      "name": "InvalidMessageRoleForDispute",
      "type": "error"
    },
    {
      "inputs": [],
      "name": "InvalidState",
      "type": "error"
    },
    {
      "inputs": [],
      "name": "Unauthorized",
      "type": "error"
    },
    {
      "inputs": [],
      "name": "ZeroAmount",
      "type": "error"
    },
    {
      "anonymous": false,
      "inputs": [
        {
          "indexed": true,
          "internalType": "uint256",
          "name": "escrowId",
          "type": "uint256"
        },
        {
          "indexed": true,
          "internalType": "address",
          "name": "initiator",
          "type": "address"
        },
        {
          "indexed": false,
          "internalType": "uint256",
          "name": "amount",
          "type": "uint256"
        }
      ],
      "name": "Canceled",
      "type": "event"
    },
    {
      "anonymous": false,
      "inputs": [
        {
          "indexed": true,
          "internalType": "uint256",
          "name": "escrowId",
          "type": "uint256"
        },
        {
          "indexed": true,
          "internalType": "address",
          "name": "buyer",
          "type": "address"
        },
        {
          "indexed": true,
          "internalType": "address",
          "name": "seller",
          "type": "address"
        },
        {
          "indexed": false,
          "internalType": "uint256",
          "name": "amount",
          "type": "uint256"
        },
        {
          "indexed": false,
          "internalType": "uint256",
          "name": "fee",
          "type": "uint256"
        }
      ],
      "name": "DeliveryConfirmed",
      "type": "event"
    },
    {
      "anonymous": false,
      "inputs": [
        {
          "indexed": true,
          "internalType": "uint256",
          "name": "escrowId",
          "type": "uint256"
        },
        {
          "indexed": true,
          "internalType": "address",
          "name": "sender",
          "type": "address"
        },
        {
          "indexed": true,
          "internalType": "uint256",
          "name": "role",
          "type": "uint256"
        },
        {
          "indexed": false,
          "internalType": "string",
          "name": "ipfsHash",
          "type": "string"
        },
        {
          "indexed": false,
          "internalType": "uint256",
          "name": "disputeStatus",
          "type": "uint256"
        }
      ],
      "name": "DisputeMessagePosted",
      "type": "event"
    },
    {
      "anonymous": false,
      "inputs": [
        {
          "indexed": true,
          "internalType": "uint256",
          "name": "escrowId",
          "type": "uint256"
        },
        {
          "indexed": false,
          "internalType": "enum PalindromeCryptoEscrow.State",
          "name": "resolution",
          "type": "uint8"
        },
        {
          "indexed": false,
          "internalType": "address",
          "name": "arbiter",
          "type": "address"
        },
        {
          "indexed": false,
          "internalType": "uint256",
          "name": "amount",
          "type": "uint256"
        },
        {
          "indexed": false,
          "internalType": "uint256",
          "name": "fee",
          "type": "uint256"
        }
      ],
      "name": "DisputeResolved",
      "type": "event"
    },
    {
      "anonymous": false,
      "inputs": [
        {
          "indexed": true,
          "internalType": "uint256",
          "name": "escrowId",
          "type": "uint256"
        },
        {
          "indexed": true,
          "internalType": "address",
          "name": "initiator",
          "type": "address"
        }
      ],
      "name": "DisputeStarted",
      "type": "event"
    },
    {
      "anonymous": false,
      "inputs": [
        {
          "indexed": true,
          "internalType": "uint256",
          "name": "escrowId",
          "type": "uint256"
        },
        {
          "indexed": true,
          "internalType": "address",
          "name": "buyer",
          "type": "address"
        },
        {
          "indexed": true,
          "internalType": "address",
          "name": "seller",
          "type": "address"
        },
        {
          "indexed": false,
          "internalType": "address",
          "name": "token",
          "type": "address"
        },
        {
          "indexed": false,
          "internalType": "uint256",
          "name": "amount",
          "type": "uint256"
        },
        {
          "indexed": false,
          "internalType": "address",
          "name": "arbiter",
          "type": "address"
        },
        {
          "indexed": false,
          "internalType": "uint256",
          "name": "maturityTimeDays",
          "type": "uint256"
        },
        {
          "indexed": false,
          "internalType": "string",
          "name": "title",
          "type": "string"
        },
        {
          "indexed": false,
          "internalType": "string",
          "name": "ipfsHash",
          "type": "string"
        }
      ],
      "name": "EscrowCreated",
      "type": "event"
    },
    {
      "anonymous": false,
      "inputs": [
        {
          "indexed": true,
          "internalType": "uint256",
          "name": "escrowId",
          "type": "uint256"
        },
        {
          "indexed": false,
          "internalType": "enum PalindromeCryptoEscrow.State",
          "name": "oldState",
          "type": "uint8"
        },
        {
          "indexed": false,
          "internalType": "enum PalindromeCryptoEscrow.State",
          "name": "newState",
          "type": "uint8"
        }
      ],
      "name": "EscrowStateChanged",
      "type": "event"
    },
    {
      "anonymous": false,
      "inputs": [
        {
          "indexed": true,
          "internalType": "address",
          "name": "token",
          "type": "address"
        },
        {
          "indexed": true,
          "internalType": "address",
          "name": "to",
          "type": "address"
        },
        {
          "indexed": false,
          "internalType": "uint256",
          "name": "amount",
          "type": "uint256"
        }
      ],
      "name": "FeesWithdrawn",
      "type": "event"
    },
    {
      "anonymous": false,
      "inputs": [
        {
          "indexed": true,
          "internalType": "address",
          "name": "previousOwner",
          "type": "address"
        },
        {
          "indexed": true,
          "internalType": "address",
          "name": "newOwner",
          "type": "address"
        }
      ],
      "name": "OwnershipTransferStarted",
      "type": "event"
    },
    {
      "anonymous": false,
      "inputs": [
        {
          "indexed": true,
          "internalType": "address",
          "name": "previousOwner",
          "type": "address"
        },
        {
          "indexed": true,
          "internalType": "address",
          "name": "newOwner",
          "type": "address"
        }
      ],
      "name": "OwnershipTransferred",
      "type": "event"
    },
    {
      "anonymous": false,
      "inputs": [
        {
          "indexed": true,
          "internalType": "uint256",
          "name": "escrowId",
          "type": "uint256"
        },
        {
          "indexed": true,
          "internalType": "address",
          "name": "buyer",
          "type": "address"
        },
        {
          "indexed": false,
          "internalType": "uint256",
          "name": "amount",
          "type": "uint256"
        }
      ],
      "name": "PaymentDeposited",
      "type": "event"
    },
    {
      "anonymous": false,
      "inputs": [
        {
          "indexed": true,
          "internalType": "uint256",
          "name": "escrowId",
          "type": "uint256"
        },
        {
          "indexed": true,
          "internalType": "address",
          "name": "recipient",
          "type": "address"
        },
        {
          "indexed": false,
          "internalType": "uint256",
          "name": "netAmount",
          "type": "uint256"
        },
        {
          "indexed": false,
          "internalType": "uint256",
          "name": "fee",
          "type": "uint256"
        }
      ],
      "name": "PayoutProcessed",
      "type": "event"
    },
    {
      "anonymous": false,
      "inputs": [
        {
          "indexed": true,
          "internalType": "uint256",
          "name": "escrowId",
          "type": "uint256"
        },
        {
          "indexed": true,
          "internalType": "address",
          "name": "initiator",
          "type": "address"
        },
        {
          "indexed": false,
          "internalType": "uint256",
          "name": "amount",
          "type": "uint256"
        },
        {
          "indexed": false,
          "internalType": "uint256",
          "name": "fee",
          "type": "uint256"
        }
      ],
      "name": "Refunded",
      "type": "event"
    },
    {
      "anonymous": false,
      "inputs": [
        {
          "indexed": true,
          "internalType": "uint256",
          "name": "escrowId",
          "type": "uint256"
        },
        {
          "indexed": true,
          "internalType": "address",
          "name": "requester",
          "type": "address"
        }
      ],
      "name": "RequestCancel",
      "type": "event"
    },
    {
      "anonymous": false,
      "inputs": [
        {
          "indexed": true,
          "internalType": "address",
          "name": "token",
          "type": "address"
        },
        {
          "indexed": false,
          "internalType": "bool",
          "name": "allowed",
          "type": "bool"
        }
      ],
      "name": "TokenAllowed",
      "type": "event"
    },
    {
      "anonymous": false,
      "inputs": [
        {
          "indexed": true,
          "internalType": "address",
          "name": "token",
          "type": "address"
        },
        {
          "indexed": true,
          "internalType": "address",
          "name": "user",
          "type": "address"
        },
        {
          "indexed": false,
          "internalType": "uint256",
          "name": "amount",
          "type": "uint256"
        }
      ],
      "name": "Withdrawn",
      "type": "event"
    },
    {
      "inputs": [],
      "name": "DISPUTE_LONG_TIMEOUT",
      "outputs": [
        {
          "internalType": "uint256",
          "name": "",
          "type": "uint256"
        }
      ],
      "stateMutability": "view",
      "type": "function"
    },
    {
      "inputs": [],
      "name": "DISPUTE_SHORT_TIMEOUT",
      "outputs": [
        {
          "internalType": "uint256",
          "name": "",
          "type": "uint256"
        }
      ],
      "stateMutability": "view",
      "type": "function"
    },
    {
      "inputs": [],
      "name": "TIMEOUT_BUFFER",
      "outputs": [
        {
          "internalType": "uint256",
          "name": "",
          "type": "uint256"
        }
      ],
      "stateMutability": "view",
      "type": "function"
    },
    {
      "inputs": [],
      "name": "acceptOwnership",
      "outputs": [],
      "stateMutability": "nonpayable",
      "type": "function"
    },
    {
      "inputs": [
        {
          "internalType": "address",
          "name": "token",
          "type": "address"
        },
        {
          "internalType": "address",
          "name": "user",
          "type": "address"
        }
      ],
      "name": "aggregatedBalance",
      "outputs": [
        {
          "internalType": "uint256",
          "name": "amount",
          "type": "uint256"
        }
      ],
      "stateMutability": "view",
      "type": "function"
    },
    {
      "inputs": [
        {
          "internalType": "address",
          "name": "tokenAddress",
          "type": "address"
        }
      ],
      "name": "allowedTokens",
      "outputs": [
        {
          "internalType": "bool",
          "name": "isAllowed",
          "type": "bool"
        }
      ],
      "stateMutability": "view",
      "type": "function"
    },
    {
      "inputs": [
        {
          "internalType": "uint256",
          "name": "",
          "type": "uint256"
        }
      ],
      "name": "arbiterDecisionSubmitted",
      "outputs": [
        {
          "internalType": "bool",
          "name": "",
          "type": "bool"
        }
      ],
      "stateMutability": "view",
      "type": "function"
    },
    {
      "inputs": [
        {
          "internalType": "uint256",
          "name": "escrowId",
          "type": "uint256"
        }
      ],
      "name": "cancelByTimeout",
      "outputs": [],
      "stateMutability": "nonpayable",
      "type": "function"
    },
    {
      "inputs": [
        {
          "internalType": "uint256",
          "name": "escrowId",
          "type": "uint256"
        }
      ],
      "name": "confirmDelivery",
      "outputs": [],
      "stateMutability": "nonpayable",
      "type": "function"
    },
    {
      "inputs": [
        {
          "internalType": "uint256",
          "name": "escrowId",
          "type": "uint256"
        },
        {
          "internalType": "bytes",
          "name": "signature",
          "type": "bytes"
        },
        {
          "internalType": "uint256",
          "name": "deadline",
          "type": "uint256"
        },
        {
          "internalType": "uint256",
          "name": "nonce",
          "type": "uint256"
        }
      ],
      "name": "confirmDeliverySigned",
      "outputs": [],
      "stateMutability": "nonpayable",
      "type": "function"
    },
    {
      "inputs": [
        {
          "internalType": "address",
          "name": "token",
          "type": "address"
        },
        {
          "internalType": "address",
          "name": "buyer",
          "type": "address"
        },
        {
          "internalType": "uint256",
          "name": "amount",
          "type": "uint256"
        },
        {
          "internalType": "uint256",
          "name": "maturityTimeDays",
          "type": "uint256"
        },
        {
          "internalType": "address",
          "name": "arbiter",
          "type": "address"
        },
        {
          "internalType": "string",
          "name": "title",
          "type": "string"
        },
        {
          "internalType": "string",
          "name": "ipfsHash",
          "type": "string"
        }
      ],
      "name": "createEscrow",
      "outputs": [
        {
          "internalType": "uint256",
          "name": "",
          "type": "uint256"
        }
      ],
      "stateMutability": "nonpayable",
      "type": "function"
    },
    {
      "inputs": [
        {
          "internalType": "address",
          "name": "token",
          "type": "address"
        },
        {
          "internalType": "address",
          "name": "seller",
          "type": "address"
        },
        {
          "internalType": "uint256",
          "name": "amount",
          "type": "uint256"
        },
        {
          "internalType": "uint256",
          "name": "maturityTimeDays",
          "type": "uint256"
        },
        {
          "internalType": "address",
          "name": "arbiter",
          "type": "address"
        },
        {
          "internalType": "string",
          "name": "title",
          "type": "string"
        },
        {
          "internalType": "string",
          "name": "ipfsHash",
          "type": "string"
        }
      ],
      "name": "createEscrowAndDeposit",
      "outputs": [
        {
          "internalType": "uint256",
          "name": "escrowId",
          "type": "uint256"
        }
      ],
      "stateMutability": "nonpayable",
      "type": "function"
    },
    {
      "inputs": [
        {
          "internalType": "uint256",
          "name": "escrowId",
          "type": "uint256"
        }
      ],
      "name": "deposit",
      "outputs": [],
      "stateMutability": "nonpayable",
      "type": "function"
    },
    {
      "inputs": [
        {
          "internalType": "uint256",
          "name": "escrowId",
          "type": "uint256"
        }
      ],
      "name": "disputeStatus",
      "outputs": [
        {
          "internalType": "uint256",
          "name": "status",
          "type": "uint256"
        }
      ],
      "stateMutability": "view",
      "type": "function"
    },
    {
      "inputs": [
        {
          "internalType": "uint256",
          "name": "escrowId",
          "type": "uint256"
        }
      ],
      "name": "escrows",
      "outputs": [
        {
          "internalType": "address",
          "name": "token",
          "type": "address"
        },
        {
          "internalType": "address",
          "name": "buyer",
          "type": "address"
        },
        {
          "internalType": "address",
          "name": "seller",
          "type": "address"
        },
        {
          "internalType": "address",
          "name": "arbiter",
          "type": "address"
        },
        {
          "internalType": "uint256",
          "name": "amount",
          "type": "uint256"
        },
        {
          "internalType": "uint256",
          "name": "depositTime",
          "type": "uint256"
        },
        {
          "internalType": "uint256",
          "name": "maturityTime",
          "type": "uint256"
        },
        {
          "internalType": "uint256",
          "name": "disputeStartTime",
          "type": "uint256"
        },
        {
          "internalType": "enum PalindromeCryptoEscrow.State",
          "name": "state",
          "type": "uint8"
        },
        {
          "internalType": "bool",
          "name": "buyerCancelRequested",
          "type": "bool"
        },
        {
          "internalType": "bool",
          "name": "sellerCancelRequested",
          "type": "bool"
        },
        {
          "internalType": "bool",
          "name": "buyerWithdrawn",
          "type": "bool"
        },
        {
          "internalType": "bool",
          "name": "sellerWithdrawn",
          "type": "bool"
        }
      ],
      "stateMutability": "view",
      "type": "function"
    },
    {
      "inputs": [
        {
          "internalType": "uint256",
          "name": "escrowId",
          "type": "uint256"
        }
      ],
      "name": "escrowsNonces",
      "outputs": [
        {
          "internalType": "uint256",
          "name": "buyer",
          "type": "uint256"
        },
        {
          "internalType": "uint256",
          "name": "seller",
          "type": "uint256"
        },
        {
          "internalType": "uint256",
          "name": "arbiter",
          "type": "uint256"
        }
      ],
      "stateMutability": "view",
      "type": "function"
    },
    {
      "inputs": [
        {
          "internalType": "address",
          "name": "",
          "type": "address"
        }
      ],
      "name": "feePool",
      "outputs": [
        {
          "internalType": "uint256",
          "name": "",
          "type": "uint256"
        }
      ],
      "stateMutability": "view",
      "type": "function"
    },
    {
      "inputs": [
        {
          "internalType": "uint256",
          "name": "escrowId",
          "type": "uint256"
        }
      ],
      "name": "getArbiterNonce",
      "outputs": [
        {
          "internalType": "uint256",
          "name": "",
          "type": "uint256"
        }
      ],
      "stateMutability": "view",
      "type": "function"
    },
    {
      "inputs": [
        {
          "internalType": "uint256",
          "name": "escrowId",
          "type": "uint256"
        }
      ],
      "name": "getBuyerNonce",
      "outputs": [
        {
          "internalType": "uint256",
          "name": "",
          "type": "uint256"
        }
      ],
      "stateMutability": "view",
      "type": "function"
    },
    {
      "inputs": [
        {
          "internalType": "address",
          "name": "token",
          "type": "address"
        }
      ],
      "name": "getFeePool",
      "outputs": [
        {
          "internalType": "uint256",
          "name": "",
          "type": "uint256"
        }
      ],
      "stateMutability": "view",
      "type": "function"
    },
    {
      "inputs": [
        {
          "internalType": "uint256",
          "name": "escrowId",
          "type": "uint256"
        }
      ],
      "name": "getSellerNonce",
      "outputs": [
        {
          "internalType": "uint256",
          "name": "",
          "type": "uint256"
        }
      ],
      "stateMutability": "view",
      "type": "function"
    },
    {
      "inputs": [
        {
          "internalType": "uint256",
          "name": "escrowId",
          "type": "uint256"
        },
        {
          "internalType": "address",
          "name": "user",
          "type": "address"
        }
      ],
      "name": "getWithdrawable",
      "outputs": [
        {
          "internalType": "uint256",
          "name": "",
          "type": "uint256"
        }
      ],
      "stateMutability": "view",
      "type": "function"
    },
    {
      "inputs": [],
      "name": "nextEscrowId",
      "outputs": [
        {
          "internalType": "uint256",
          "name": "",
          "type": "uint256"
        }
      ],
      "stateMutability": "view",
      "type": "function"
    },
    {
      "inputs": [],
      "name": "owner",
      "outputs": [
        {
          "internalType": "address",
          "name": "",
          "type": "address"
        }
      ],
      "stateMutability": "view",
      "type": "function"
    },
    {
      "inputs": [],
      "name": "pendingOwner",
      "outputs": [
        {
          "internalType": "address",
          "name": "",
          "type": "address"
        }
      ],
      "stateMutability": "view",
      "type": "function"
    },
    {
      "inputs": [],
      "name": "renounceOwnership",
      "outputs": [],
      "stateMutability": "nonpayable",
      "type": "function"
    },
    {
      "inputs": [
        {
          "internalType": "uint256",
          "name": "escrowId",
          "type": "uint256"
        }
      ],
      "name": "requestCancel",
      "outputs": [],
      "stateMutability": "nonpayable",
      "type": "function"
    },
    {
      "inputs": [
        {
          "internalType": "uint256",
          "name": "escrowId",
          "type": "uint256"
        },
        {
          "internalType": "bytes",
          "name": "signature",
          "type": "bytes"
        },
        {
          "internalType": "uint256",
          "name": "deadline",
          "type": "uint256"
        },
        {
          "internalType": "uint256",
          "name": "nonce",
          "type": "uint256"
        }
      ],
      "name": "requestCancelSigned",
      "outputs": [],
      "stateMutability": "nonpayable",
      "type": "function"
    },
    {
      "inputs": [
        {
          "internalType": "address",
          "name": "token",
          "type": "address"
        },
        {
          "internalType": "bool",
          "name": "allowed",
          "type": "bool"
        }
      ],
      "name": "setAllowedToken",
      "outputs": [],
      "stateMutability": "nonpayable",
      "type": "function"
    },
    {
      "inputs": [
        {
          "internalType": "uint256",
          "name": "escrowId",
          "type": "uint256"
        }
      ],
      "name": "startDispute",
      "outputs": [],
      "stateMutability": "nonpayable",
      "type": "function"
    },
    {
      "inputs": [
        {
          "internalType": "uint256",
          "name": "escrowId",
          "type": "uint256"
        },
        {
          "internalType": "bytes",
          "name": "signature",
          "type": "bytes"
        },
        {
          "internalType": "uint256",
          "name": "deadline",
          "type": "uint256"
        },
        {
          "internalType": "uint256",
          "name": "nonce",
          "type": "uint256"
        }
      ],
      "name": "startDisputeSigned",
      "outputs": [],
      "stateMutability": "nonpayable",
      "type": "function"
    },
    {
      "inputs": [
        {
          "internalType": "uint256",
          "name": "escrowId",
          "type": "uint256"
        },
        {
          "internalType": "enum PalindromeCryptoEscrow.State",
          "name": "resolution",
          "type": "uint8"
        },
        {
          "internalType": "string",
          "name": "ipfsHash",
          "type": "string"
        }
      ],
      "name": "submitArbiterDecision",
      "outputs": [],
      "stateMutability": "nonpayable",
      "type": "function"
    },
    {
      "inputs": [
        {
          "internalType": "uint256",
          "name": "escrowId",
          "type": "uint256"
        },
        {
          "internalType": "enum PalindromeCryptoEscrow.Role",
          "name": "role",
          "type": "uint8"
        },
        {
          "internalType": "string",
          "name": "ipfsHash",
          "type": "string"
        }
      ],
      "name": "submitDisputeMessage",
      "outputs": [],
      "stateMutability": "nonpayable",
      "type": "function"
    },
    {
      "inputs": [
        {
          "internalType": "address",
          "name": "newOwner",
          "type": "address"
        }
      ],
      "name": "transferOwnership",
      "outputs": [],
      "stateMutability": "nonpayable",
      "type": "function"
    },
    {
      "inputs": [
        {
          "internalType": "bytes32",
          "name": "",
          "type": "bytes32"
        }
      ],
      "name": "usedSignatures",
      "outputs": [
        {
          "internalType": "bool",
          "name": "",
          "type": "bool"
        }
      ],
      "stateMutability": "view",
      "type": "function"
    },
    {
      "inputs": [
        {
          "internalType": "uint256",
          "name": "escrowId",
          "type": "uint256"
        }
      ],
      "name": "withdraw",
      "outputs": [],
      "stateMutability": "nonpayable",
      "type": "function"
    },
    {
      "inputs": [
        {
          "internalType": "address",
          "name": "token",
          "type": "address"
        }
      ],
      "name": "withdrawAll",
      "outputs": [],
      "stateMutability": "nonpayable",
      "type": "function"
    },
    {
      "inputs": [
        {
          "internalType": "address",
          "name": "token",
          "type": "address"
        }
      ],
      "name": "withdrawFees",
      "outputs": [],
      "stateMutability": "nonpayable",
      "type": "function"
    },
    {
      "inputs": [
        {
          "internalType": "uint256",
          "name": "escrowId",
          "type": "uint256"
        },
        {
          "internalType": "address",
          "name": "user",
          "type": "address"
        }
      ],
      "name": "withdrawable",
      "outputs": [
        {
          "internalType": "uint256",
          "name": "amount",
          "type": "uint256"
        }
      ],
      "stateMutability": "view",
      "type": "function"
    }
  ],
  "bytecode": "0x60803461013257601f61417938819003918201601f19168301916001600160401b038311848410176101365780849260209460405283398101031261013257516001600160a01b038116908190036101325760015f818155600280546001600160a01b031990811690915582543391811682179093556040519290916001600160a01b03909116907f8be0079c531659141344cd1fd0a4f28419497f9722a3daafe3b4186f6b6457e09080a381156101035750805f52600560205260405f20600160ff198254161790557f9a8e30a8658b96ab3f034ce4bac6806278b4aee5880ccdd1ac35e4ed5bb31d23602060405160018152a260405161402e908161014b8239f35b62461bcd60e51b815260206004820152600a602482015269546f6b656e207a65726f60b01b6044820152606490fd5b5f80fd5b634e487b7160e01b5f52604160045260245ffdfe6080806040526004361015610012575f80fd5b5f905f3560e01c908163012f52ee14612bc95750806306075a151461298f57806310f169e8146129655780631452483b14612948578063164e68de146128615780632e1a7d4d14612511578063300c6e90146124e257806333bbe7e2146121765780633a8803061461128e5780634186928c1461215a578063584e40fa1461213d5780636232ef6014611e165780636754631714611b855780636dd534b914611b5b578063715018a614611af6578063769a68e31461156c57806379ba5097146114a257806385563e261461146157806389cb29dd146114445780638aaa2284146113325780638d66a9a3146112fa5780638da5cb5b146112d25780639ef7c0821461128e5780639f0f7a2214610f5a578063ad37137114610f2d578063b277cbd214610f00578063b6b55f2514610c67578063c0cfa7e514610b98578063c761423d14610941578063da183b02146106ac578063e30c397814610683578063e683a2d4146104ea578063e744092e146104ab578063ec8fcdb514610458578063f2fde38b146103ea578063f978fd61146103bb578063fa09e6301461030d578063fd26fef1146102d45763fd84cb97146101cb575f80fd5b346102d15760203660031901126102d1576004356101e7613384565b808252600460205261020960018060a01b0360016040852001541633146132ff565b808252600460205260408220600881019160ff83541660068110156102bd5760016102349114613340565b7f8bcf349ab354486b68c142cea7235e4f7f31f6a425466f569c8ac1d5bc4d0007604060018060a01b0384541694600285019461028360018060a01b038754169760048301988954918861392b565b825460ff19166003179092556001015494549554825190815260208101919091526001600160a01b03958616959490941693a46001815580f35b634e487b7160e01b85526021600452602485fd5b80fd5b50346102d15760203660031901126102d1576020906040906001600160a01b036102fc612d21565b168152600883522054604051908152f35b50346102d15760203660031901126102d1576103b461032a612d21565b610332613384565b6001600160a01b0316808352600c60209081526040808520335f908152925290205490610360821515613025565b808452600c6020526040842060018060a01b0333165f526020528360405f2055604051828152817fd1c19fbcd4551a5edfb66d43d2e337c04837afda3482b42bdf569a8fccdae5fb60203393a33390613820565b6001815580f35b50346102d15760203660031901126102d15760ff60406020926004358152600a84522054166040519015158152f35b50346102d15760203660031901126102d157610404612d21565b61040c6137c8565b600280546001600160a01b0319166001600160a01b039283169081179091556001549091167f38d16b8cac22d99fc7c124b9cd0de2d3fa1faef420bfe791d8c362d765e227008380a380f35b50346102d15760403660031901126102d1576040610474612d21565b9161047d612d37565b9260018060a01b03168152600c602052209060018060a01b03165f52602052602060405f2054604051908152f35b50346102d15760203660031901126102d15760209060ff906040906001600160a01b036104d6612d21565b168152600584522054166040519015158152f35b50346102d15760203660031901126102d157600435610507613384565b808252600460205260408220600101546001600160a01b031633148015610662575b61053290612fd9565b80825260046020526040822060088101805460ff8116600681101561064e57600161055d9114613340565b600183019060018060a01b0382541633145f1461063c5750815461ff0019166101001782555b33847f88a867d5d9b489598a3f5e5c8d5c1da163ed116737b70444bac744920904a5738780a3815460ff8160081c16908161062e575b506105c7575b846001815580f35b825490546004909301805490936105eb926001600160a01b03918216911686613860565b50600560ff1982541617905554906040519182527feb8b5b87fbea5b732b8f4fd82b65d9afef713c799d98da83090f22c45577998d60203393a35f8080806105bf565b60ff915060101c165f6105b9565b62ff0000191662010000178255610583565b634e487b7160e01b86526021600452602486fd5b50808252600460205260408220600201546001600160a01b03163314610529565b50346102d157806003193601126102d1576002546040516001600160a01b039091168152602090f35b3461093d57602036600319011261093d576004356106c8613384565b805f5260046020526106ea60018060a01b03600160405f2001541633146132ff565b805f52600460205260405f2060088101805460ff811660068110156109295760016107159114613340565b60078301546108d85760ff8160081c16156108935760101c60ff1661084e576005820154156108165760068201546154608101809111610802574211156107bd578154600183015460049093018054909361077d926001600160a01b03918216911686613860565b50600560ff1982541617905554906040519182527feb8b5b87fbea5b732b8f4fd82b65d9afef713c799d98da83090f22c45577998d60203393a360015f55005b60405162461bcd60e51b815260206004820152601860248201527f477261636520706572696f64206e6f74207265616368656400000000000000006044820152606490fd5b634e487b7160e01b5f52601160045260245ffd5b60405162461bcd60e51b815260206004820152601060248201526f4465706f736974206e6f74206d61646560801b6044820152606490fd5b60405162461bcd60e51b815260206004820152601f60248201527f4d757475616c2063616e63656c20616c72656164792070726f636573736564006044820152606490fd5b60405162461bcd60e51b815260206004820152601f60248201527f4275796572206d75737420726571756573742063616e63656c6c6174696f6e006044820152606490fd5b60405162461bcd60e51b815260206004820152602360248201527f43616e6e6f742063616e63656c206166746572206469737075746520737461726044820152621d195960ea1b6064820152608490fd5b634e487b7160e01b5f52602160045260245ffd5b5f80fd5b3461093d5761094f36612d4d565b94610961838596949a98939995613a4f565b61096b8689613aaa565b6001600160a01b038716936109818515156130b1565b845f52600560205261099960ff60405f2054166130fd565b6001600160a01b0316956109ae87151561313d565b6109ba33881415613189565b6109c58315156131d5565b6109d2610e438310613216565b6109e36109de89613b0e565b613251565b80600a0290600a820403610802578310610b535760035498610a048a613262565b6003556001600160a01b038516610b4d576001546001600160a01b03165b6001600160a01b03163381141580610b43575b610a3e90613270565b5f8b815260046020819052604090912080546001600160a01b031990811690991781556001810180548a168c1790556002810180548a16331790556003810180549099169092179097559586018490556201518083810293801590850490911417156108025760209a8a977fd3e0574cb952cf8d88c9c2b97882e6000237da1d62a64753eaddaf4d9ce7351b976008610ada610b389742612de4565b600683019081559101805464ffff0000ff19169055604051610afb81612e79565b5f815260028f82015f815260408301905f82528d5f5260206009905260405f20935184555160018401555191015554604051978897339d896132ae565b0390a4604051908152f35b5080891415610a35565b84610a22565b60405162461bcd60e51b815260206004820152601860248201527f416d6f756e74206c657373207468616e206d696e696d756d00000000000000006044820152606490fd5b3461093d57602036600319011261093d57600435610bb4613384565b805f52600460205260018060a01b03600160405f2001541633148015610c45575b610bde90612fd9565b805f52600460205260405f206008810160ff8154166006811015610929576001610c089114613340565b600260ff1982541617905560074291015533907fd658effe7cf013e5a508b3f1a373b92566494d8b6a7c2970fc964932de1c4dab5f80a360015f55005b505f818152600460205260409020600201546001600160a01b03163314610bd5565b3461093d57602036600319011261093d57600435610c83613384565b805f526004602052610ca560018060a01b03600160405f2001541633146132ff565b805f52600460205260405f20906008820160ff815416600681101561092957610ec45782546001600160a01b03165f8181526005602052604090205490939060ff1615610e7f576040516370a0823160e01b8152306004820152602081602481885afa8015610e41575f90610e4c575b60249150610d2d600484019687549030903390613c22565b82546040516370a0823160e01b81523060048201529260209184919082906001600160a01b03165afa8015610e41575f90610e0d575b610d6d9250613067565b9380548503610dbc57849055600542910155600160ff198254161790556040519182527f71284872bb4c088a81295dff2513729babbccfeda38a8d824bb1a73bcaab494e60203393a360015f55005b60405162461bcd60e51b8152602060048201526024808201527f4665652d6f6e2d7472616e7366657220746f6b656e73206e6f7420737570706f6044820152631c9d195960e21b6064820152608490fd5b506020823d602011610e39575b81610e2760209383612ea9565b8101031261093d57610d6d9151610d63565b3d9150610e1a565b6040513d5f823e3d90fd5b506020813d602011610e77575b81610e6660209383612ea9565b8101031261093d5760249051610d15565b3d9150610e59565b60405162461bcd60e51b815260206004820152601960248201527f546f6b656e206e6f7420616c6c6f77656420616e796d6f7265000000000000006044820152606490fd5b60405162461bcd60e51b8152602060048201526014602482015273139bdd081055d05255125391d7d410565351539560621b6044820152606490fd5b3461093d57602036600319011261093d576004355f5260096020526020600160405f200154604051908152f35b3461093d57602036600319011261093d576004355f5260096020526020600260405f200154604051908152f35b3461093d57610f6836612d4d565b9790610f7697939497613384565b610f808386613a4f565b610f8a8982613aaa565b6001600160a01b03821693610fa08515156130b1565b845f526005602052610fb860ff60405f2054166130fd565b6001600160a01b031692610fcd84151561313d565b610fd933851415613189565b610fe48815156131d5565b610ff1610e438810613216565b610ffd6109de84613b0e565b80600a0290600a820403610802578810610b53576003549861101e8a613262565b6003556001600160a01b038116611288576001546001600160a01b03165b6001600160a01b031696338814158061127e575b61105990613270565b5f8b815260046020819052604090912080546001600160a01b03199081168a17825560018201805482163317905560028201805482168a179055600382018054909116909a1790995588018a81559b620151808a810291908b158c84049091141715610802578c957fd3e0574cb952cf8d88c9c2b97882e6000237da1d62a64753eaddaf4d9ce7351b958d948c60066110f561114e9742612de4565b91015560088d019d8e60ff19815416905560405161111281612e79565b5f81526002602082015f815260408301905f82528d5f52600960205260405f209351845551600184015551910155604051978897339c896132ae565b0390a46040516370a0823160e01b815230600482015290602082602481845afa918215610e41575f92611249575b5090602060249261118f87303384613c22565b6040516370a0823160e01b815230600482015293849182905afa8015610e41575f90611215575b6111c09250613067565b928303610dbc578260209555600542910155600160ff19825416179055604051908152817f71284872bb4c088a81295dff2513729babbccfeda38a8d824bb1a73bcaab494e843393a360015f55604051908152f35b506020823d602011611241575b8161122f60209383612ea9565b8101031261093d576111c091516111b6565b3d9150611222565b91506020823d602011611276575b8161126460209383612ea9565b8101031261093d57905190602061117c565b3d9150611257565b5087861415611050565b8061103c565b3461093d57604036600319011261093d576112a7612d37565b6004355f52600760205260405f209060018060a01b03165f52602052602060405f2054604051908152f35b3461093d575f36600319011261093d576001546040516001600160a01b039091168152602090f35b3461093d57602036600319011261093d576001600160a01b0361131b612d21565b165f526008602052602060405f2054604051908152f35b3461093d57604036600319011261093d5761134b612d21565b6024359081151580920361093d576113616137c8565b6001600160a01b0316908115611409576040516318160ddd60e01b8152602081600481865afa8015610e41576113d8575b5060207f9a8e30a8658b96ab3f034ce4bac6806278b4aee5880ccdd1ac35e4ed5bb31d2391835f526005825260405f2060ff1981541660ff8316179055604051908152a2005b6020813d602011611401575b816113f160209383612ea9565b8101031261093d57506020611392565b3d91506113e4565b60405162461bcd60e51b8152602060048201526013602482015272546f6b656e3a207a65726f206164647265737360681b6044820152606490fd5b3461093d575f36600319011261093d576020600354604051908152f35b3461093d57602036600319011261093d576004355f526009602052606060405f20805490600260018201549101549060405192835260208301526040820152f35b3461093d575f36600319011261093d57600254336001600160a01b039091160361151557600280546001600160a01b0319908116909155600180543392811683179091556001600160a01b03167f8be0079c531659141344cd1fd0a4f28419497f9722a3daafe3b4186f6b6457e05f80a3005b60405162461bcd60e51b815260206004820152602960248201527f4f776e61626c6532537465703a2063616c6c6572206973206e6f7420746865206044820152683732bb9037bbb732b960b91b6064820152608490fd5b3461093d57606036600319011261093d5760043560243560068110801561093d5760443567ffffffffffffffff811161093d576115ad903690600401612cb7565b9290916115b8613384565b5f858152600460205260409020600301546001600160a01b03163303611aba57845f52600460205260405f2093600885019060ff825416600681101561092957600203611a9d575f906003851495861580611aac575b611a9d57885f526006602052600360405f20541660038114901560078a01549062093a808201918281116108025762278d008101908181116108025762279b100180911161080257811591611a93575b5015611a43578115611a39575b50156119e557885f52600b60205260ff60405f2054166119a0575f8981526006602052604090819020805460041790819055905160039333938c937f343e9b07afb91476a7eaea35e0dd214eb5d26b7047cb533a575c43a53d4c8d75939283926116d792919084613094565b0390a4865f52600b60205260405f20600160ff1982541617905561092957831561198c5760028501546001600160a01b0316915b865f5260066020525f60408120551561092957805460ff191660ff84161790558354600490940180546001600160a01b039586169590921680156119565782156119235760ff61175a87613b0e565b166002811115611918576001190160ff81116108025761177a8891613251565b9515611898575060648302838104606403610802577ffc4c84ff0bf9d937dea068e6c13c3a16c307d76a1c5b5173c40f03f68f421e0096608096899261271090049080821061189157505b8086811061186f57505060405f516020613fd95f395f51905f52915f96905b845f526007602052825f20865f52602052825f20611803838254612de4565b9055805f52600c602052825f20865f52602052825f20611824838254612de4565b90555f526008602052815f2061183b888254612de4565b90555b8151908152866020820152a3546118586040518094612caa565b33602084015260408301526060820152a260015f55005b9161188b5f516020613fd95f395f51905f529360409398613067565b906117e4565b90506117c5565b608095505f516020613fd95f395f51905f5260407ffc4c84ff0bf9d937dea068e6c13c3a16c307d76a1c5b5173c40f03f68f421e00985f968091855f526007602052835f20875f52602052835f206118f1838254612de4565b90555f52600c602052825f20865f52602052611911835f20918254612de4565b905561183e565b508661177a5f613251565b60405162461bcd60e51b815260206004820152600b60248201526a416d6f756e74207a65726f60a81b6044820152606490fd5b60405162461bcd60e51b815260206004820152600e60248201526d526563697069656e74207a65726f60901b6044820152606490fd5b60018501546001600160a01b03169161170b565b60405162461bcd60e51b815260206004820152601a60248201527f4465636973696f6e20616c7265616479207375626d69747465640000000000006044820152606490fd5b60405162461bcd60e51b815260206004820152602660248201527f526571756972652066756c6c2065766964656e6365206f7220372d64617920746044820152651a5b595bdd5d60d21b6064820152608490fd5b905042118a61166b565b60405162461bcd60e51b815260206004820152602260248201527f526571756972652065766964656e6365206f722033302d6461792074696d656f6044820152611d5d60f21b6064820152608490fd5b905042118c61165e565b63baf3f0f760e01b5f5260045ffd5b505f9250600486141561160e565b60405162461bcd60e51b815260206004820152601460248201527313db9b1e48185c989a5d195c88185b1b1bddd95960621b6044820152606490fd5b3461093d575f36600319011261093d57611b0e6137c8565b600280546001600160a01b03199081169091556001805491821690555f906001600160a01b03167f8be0079c531659141344cd1fd0a4f28419497f9722a3daafe3b4186f6b6457e08280a3005b3461093d57602036600319011261093d576004355f526009602052602060405f2054604051908152f35b3461093d57611b9336612ce5565b611b9f94929194613384565b42851180611e01575b611bb190612df1565b825f52600460205260405f2093600885019060ff825416600681101561092957600114611bdd90612e3d565b6001860190600160a01b6001900382541696600281019787600160a01b600190038a5416600160a01b600190036003850154169b600160a01b600190038554169c600486019d8e54906005880154926040519560208701977f2175432d6c7eab3a2ef5708fc419540c0f4d274cabd17912c92683ed8466b5e989526040880152886060880152608087015260a086015260c085015260e0840152610100830152610120820152876101408201526101408152611c9b61016082612ea9565b519020611ca66133d8565b60405161190160f01b60208201908152602282019290925260428082019390935291825290611cd6606282612ea9565b519020611ce4368986612ee7565b611ced91613c66565b611cf690613c97565b6001600160a01b0316611d0a811515612f1d565b03611dc657611d61604095611d447f8bcf349ab354486b68c142cea7235e4f7f31f6a425466f569c8ac1d5bc4d000798611d9d958b61347b565b8454611d5b9084906001600160a01b03168b613601565b14612f9d565b805488548a54611d809290916001600160a01b0390811691168a61392b565b845460ff191660031790945582546001600160a01b0316876136b5565b5494549554825190815260208101919091526001600160a01b039586169590941693a460015f55005b60405162461bcd60e51b81526020600482015260136024820152722ab730baba3437b934bd32b21039b4b3b732b960691b6044820152606490fd5b50620151804201804211610802578510611ba8565b3461093d57606036600319011261093d5760043560243590600482101561093d5760443567ffffffffffffffff811161093d57611e57903690600401612cb7565b611e62929192613384565b815f52600460205260018060a01b03600160405f200154163314801561211d575b80156120fd575b156120b857815f52600460205260405f2060ff600882015416600681101561092957600203612084576064821161204a575f9060018603611fd157600101546001600160a01b03163303611f935760015b835f5260066020528060405f205416611f4e57835f52600660205260405f20908154179055610929577f343e9b07afb91476a7eaea35e0dd214eb5d26b7047cb533a575c43a53d4c8d7590825f52600660205260405f205490611f45604051928392339784613094565b0390a460015f55005b60405162461bcd60e51b815260206004820152601960248201527f416c7265616479207375626d6974746564206d657373616765000000000000006044820152606490fd5b60405162461bcd60e51b81526020600482015260166024820152754f6e6c792062757965722063616e206d65737361676560501b6044820152606490fd5b5f91506002860361203b57600201546001600160a01b03163303611ff6576002611edb565b60405162461bcd60e51b815260206004820152601760248201527f4f6e6c792073656c6c65722063616e206d6573736167650000000000000000006044820152606490fd5b63421b511560e11b5f5260045ffd5b60405162461bcd60e51b815260206004820152601260248201527149504653206861736820746f6f206c6f6e6760701b6044820152606490fd5b60405162461bcd60e51b815260206004820152600c60248201526b139bdd08111254d41555115160a21b6044820152606490fd5b60405162461bcd60e51b815260206004820152601b60248201527f4e6f742061207061727469636970616e7420696e20657363726f7700000000006044820152606490fd5b50815f52600460205260018060a01b03600360405f200154163314611e8a565b50815f52600460205260018060a01b03600260405f200154163314611e83565b3461093d575f36600319011261093d57602060405162093a808152f35b3461093d575f36600319011261093d576020604051610e108152f35b3461093d5761218436612ce5565b9061219194939294613384565b428111806124cd575b6121a390612df1565b835f52600460205260405f2092600884019060ff82541660068110156109295760016121cf9114612e3d565b6001850180546001600160a01b031697909490338914908180156124b7575b1561248057600160a01b6001900360028901541693898b600160a01b6001900360038c01541698600160a01b600190038c5416998c600481019b8c549160050154926040519560208701977fcfa08fb4ff8e76dc69803ce4f8c04926b9ecbd9ec3b54390476da60713a6e9768952604088015260608701528b608087015260a086015260c085015260e084015261010083015261012082015285610140820152610140815261229f61016082612ea9565b5190206122aa6133d8565b60405161190160f01b602082019081526022820192909252604280820193909352918252906122da606282612ea9565b5190206122e8368484612ee7565b6122f191613c66565b6122fa90613c97565b6001600160a01b03169a61230f8c1515612f1d565b8b1480612342966123379561233193612478575b50811561245c575b50612f5c565b8961347b565b611d5b863389613601565b61234d8433876136b5565b805460ff8160081c16908161244d575b84546001600160a01b0316880361243b5750815461ff0019166101001782555b86867f88a867d5d9b489598a3f5e5c8d5c1da163ed116737b70444bac744920904a5735f80a3158061242d575b8061241f575b6123bb575b60015f55005b9254915481547feb8b5b87fbea5b732b8f4fd82b65d9afef713c799d98da83090f22c45577998d94602094909261240092916001600160a01b03918216911688613860565b50805460ff1916600517905554604051908152a38080808080806123b5565b5060ff815460101c166123b0565b5060ff815460081c166123aa565b62ff000019166201000017825561237d565b905060ff8160101c169061235d565b8d811491508161246e575b508d61232b565b905033148d612467565b91508e612323565b60405162461bcd60e51b815260206004820152600f60248201526e139bdd081c185c9d1a58da5c185b9d608a1b6044820152606490fd5b5060028801546001600160a01b031633146121ee565b5062015180420180421161080257811061219a565b3461093d57602036600319011261093d576004355f52600b602052602060ff60405f2054166040519015158152f35b3461093d57602036600319011261093d5760043561252d613384565b805f52600460205260018060a01b03600160405f200154163314801561283f575b61255790612fd9565b805f52600460205260405f20600881019060ff82541660068110158061092957600582148015612833575b818115612823575b50156127d357610929576003036127665760028101546001600160a01b0316330361270f575b5f838152600760209081526040808320338452909152902054916125d5831515613025565b81546001600160a01b03165f908152600c602090815260408083203384529091529020548381106126ca578361262d916123b5965f52600760205260405f2060018060a01b0333165f526020525f6040812055613067565b82546001600160a01b039081165f908152600c6020908152604080832033808552925290912092909255600184015416036126b257805463ff000000191663010000001790555b60018060a01b03905416604051828152817fd1c19fbcd4551a5edfb66d43d2e337c04837afda3482b42bdf569a8fccdae5fb60203393a33390613820565b805464ff000000001916640100000000179055612674565b60405162461bcd60e51b815260206004820152601e60248201527f496e73756666696369656e74206167677265676174652062616c616e636500006044820152606490fd5b60405162461bcd60e51b815260206004820152602960248201527f4f6e6c792073656c6c65722063616e207769746864726177206166746572206360448201526837b6b83632ba34b7b760b91b6064820152608490fd5b60018101546001600160a01b031633146125b05760405162461bcd60e51b815260206004820152602b60248201527f4f6e6c792062757965722063616e20776974686472617720616674657220726560448201526a199d5b990bd8d85b98d95b60aa1b6064820152608490fd5b60405162461bcd60e51b815260206004820152602260248201527f5769746864726177616c73206f6e6c7920616674657220657363726f7720656e604482015261647360f01b6064820152608490fd5b905061092957600482148161258a565b50505f60038214612582565b505f818152600460205260409020600201546001600160a01b0316331461254e565b3461093d57602036600319011261093d5761287a612d21565b612882613384565b61288a6137c8565b6001600160a01b03165f8181526008602052604090205490811561290d575f818152600860205260408120556001546128ce9083906001600160a01b031683613820565b6001546040519283526001600160a01b0316917f5e110f8bc8a20b65dcc87f224bdf1cc039346e267118bae2739847f07321ffa890602090a360015f55005b60405162461bcd60e51b8152602060048201526013602482015272139bc81999595cc81858d8dd5b5d5b185d1959606a1b6044820152606490fd5b3461093d575f36600319011261093d57602060405162278d008152f35b3461093d57602036600319011261093d576004355f526006602052602060405f2054604051908152f35b3461093d5761299d36612ce5565b919093926129a9613384565b42851180612bb4575b6129bb90612df1565b835f52600460205260405f2092600884019260ff84541690600682101561092957612b48936129ef6001612b3d9414612e3d565b612b3760018060a01b03600189015416612b0b612b038b60018060a01b0360028d015416809e8d60018060a01b036003820154169060018060a01b0381541660056004830154920154926040519560208701977f3ec4667e1948e2e97f54b4602b6bbfa8f3f98ff1036916ce75d84c59f9558f02895260408801528a6060880152608087015260a086015260c085015260e0840152610100830152610120820152896101408201526101408152612aa861016082612ea9565b519020612ae1612aef612ab96133d8565b92604051928391602083019586909160429261190160f01b8352600283015260228201520190565b03601f198101835282612ea9565b519020612afd368888612ee7565b90613c66565b919091613c97565b6001600160a01b03169a612b208c1515612f1d565b818c149182612baa575b508115612b8e5750612f5c565b8761347b565b611d5b843387613601565b612b538233856136b5565b600260ff198254161790556007429101557fd658effe7cf013e5a508b3f1a373b92566494d8b6a7c2970fc964932de1c4dab5f80a360015f55005b8b8114915081612ba0575b508b61232b565b905033148b612b99565b331491508c612b2a565b506201518042018042116108025785106129b2565b3461093d57602036600319011261093d576101a0906004355f52600460205260ff60405f2060018060a01b038154169060018060a01b0360018201541660018060a01b0360028301541660018060a01b0360038401541660048401549060058501549260068601549460086007880154970154978a5260208a015260408901526060880152608087015260a086015260c085015260e0840152612c726101008401838316612caa565b818160081c161515610120840152818160101c161515610140840152818160181c16151561016084015260201c161515610180820152f35b9060068210156109295752565b9181601f8401121561093d5782359167ffffffffffffffff831161093d576020838186019501011161093d57565b90608060031983011261093d57600435916024359067ffffffffffffffff821161093d57612d1591600401612cb7565b90916044359060643590565b600435906001600160a01b038216820361093d57565b602435906001600160a01b038216820361093d57565b9060e060031983011261093d576004356001600160a01b038116810361093d57916024356001600160a01b038116810361093d579160443591606435916084356001600160a01b038116810361093d579160a43567ffffffffffffffff811161093d5781612dbd91600401612cb7565b9290929160c4359067ffffffffffffffff821161093d57612de091600401612cb7565b9091565b9190820180921161080257565b15612df857565b60405162461bcd60e51b815260206004820152601c60248201527f496e76616c6964206f722065787069726564207369676e6174757265000000006044820152606490fd5b15612e4457565b60405162461bcd60e51b815260206004820152600d60248201526c496e76616c696420737461746560981b6044820152606490fd5b6060810190811067ffffffffffffffff821117612e9557604052565b634e487b7160e01b5f52604160045260245ffd5b90601f8019910116810190811067ffffffffffffffff821117612e9557604052565b67ffffffffffffffff8111612e9557601f01601f191660200190565b929192612ef382612ecb565b91612f016040519384612ea9565b82948184528183011161093d578281602093845f960137010152565b15612f2457565b60405162461bcd60e51b815260206004820152601060248201526f496e76616c6964207265636f7665727960801b6044820152606490fd5b15612f6357565b60405162461bcd60e51b81526020600482015260126024820152710a6d2cedcc2e8eae4ca40dad2e6dac2e8c6d60731b6044820152606490fd5b15612fa457565b60405162461bcd60e51b815260206004820152600d60248201526c496e76616c6964206e6f6e636560981b6044820152606490fd5b15612fe057565b60405162461bcd60e51b815260206004820152601f60248201527f4e6f742061206275796572206f722073656c6c657220696e20657363726f77006044820152606490fd5b1561302c57565b60405162461bcd60e51b81526020600482015260136024820152724e6f7468696e6720746f20776974686472617760681b6044820152606490fd5b9190820391821161080257565b908060209392818452848401375f828201840152601f01601f1916010190565b9392916020916130ac91604087526040870191613074565b930152565b156130b857565b60405162461bcd60e51b815260206004820152601c60248201527f546f6b656e2063616e6e6f74206265207a65726f2061646472657373000000006044820152606490fd5b1561310457565b60405162461bcd60e51b8152602060048201526011602482015270151bdad95b881b9bdd08185b1b1bddd959607a1b6044820152606490fd5b1561314457565b60405162461bcd60e51b815260206004820152601c60248201527f42757965722063616e6e6f74206265207a65726f2061646472657373000000006044820152606490fd5b1561319057565b60405162461bcd60e51b815260206004820152601f60248201527f427579657220616e642073656c6c65722063616e6e6f742062652073616d65006044820152606490fd5b156131dc57565b60405162461bcd60e51b81526020600482015260126024820152710416d6f756e74206d757374206265203e20360741b6044820152606490fd5b1561321d57565b60405162461bcd60e51b815260206004820152600c60248201526b4d617820313020796561727360a01b6044820152606490fd5b60ff16604d811161080257600a0a90565b5f1981146108025760010190565b1561327757565b60405162461bcd60e51b815260206004820152600f60248201526e24b73b30b634b21030b93134ba32b960891b6044820152606490fd5b9694926132fc9896926132ee959260018060a01b03168952602089015260018060a01b03166040880152606087015260c0608087015260c0860191613074565b9260a0818503910152613074565b90565b1561330657565b60405162461bcd60e51b815260206004820152601260248201527113db9b1e48189d5e595c88185b1b1bddd95960721b6044820152606490fd5b1561334757565b60405162461bcd60e51b81526020600482015260156024820152744e6f74204157414954494e475f44454c495645525960581b6044820152606490fd5b60025f54146133935760025f55565b60405162461bcd60e51b815260206004820152601f60248201527f5265656e7472616e637947756172643a207265656e7472616e742063616c6c006044820152606490fd5b60406016602082516133ea8482612ea9565b828152017550616c696e64726f6d6543727970746f457363726f7760501b81522060016020835161341b8582612ea9565b82815201603160f81b81522082519160208301937f8b73c3c69bb8fe3d512ecc4cf759cc79239f7b179b0ffacaa9a75d522b39400f855283015260608201524660808201523060a082015260a0815261347560c082612ea9565b51902090565b916041036135c757602081013560408201355f1a6fa2a8918ca85bafe22016d0b997e4df60600160ff1b03821161358c57601b8114908115613581575b50156135505760405191602083019384523560408301526060820152606081526134e3608082612ea9565b519020805f52600a60205260ff60405f205416613512575f52600a60205260405f20600160ff19825416179055565b60405162461bcd60e51b815260206004820152601660248201527514da59db985d1d5c9948185b1c9958591e481d5cd95960521b6044820152606490fd5b60405162461bcd60e51b815260206004820152600960248201526824b73b30b634b2103b60b91b6044820152606490fd5b601c9150145f6134b8565b60405162461bcd60e51b8152602060048201526013602482015272496e76616c6964207369676e6174757265207360681b6044820152606490fd5b60405162461bcd60e51b8152602060048201526012602482015271092dcecc2d8d2c840e6d2ce40d8cadccee8d60731b6044820152606490fd5b600183015490926001600160a01b039283169290911682146136a45760028101546001600160a01b0316821461369057600301546001600160a01b03161461367e5760405162461bcd60e51b8152602060048201526013602482015272556e6b6e6f776e207369676e657220726f6c6560681b6044820152606490fd5b5f526009602052600260405f20015490565b50505f526009602052600160405f20015490565b50505f52600960205260405f205490565b6001600160a01b03909116908115613779575f90815260096020526040902060018301549092906001600160a01b031682036136fc5750506136f78154613262565b90555b565b60028101546001600160a01b0316820361371f5750506001016136f78154613262565b600301546001600160a01b03160361373e576002016136f78154613262565b60405162461bcd60e51b8152602060048201526013602482015272556e6b6e6f776e207369676e657220726f6c6560681b6044820152606490fd5b60405162461bcd60e51b815260206004820152602160248201527f5369676e65722063616e6e6f7420626520746865207a65726f206164647265736044820152607360f81b6064820152608490fd5b6001546001600160a01b031633036137dc57565b606460405162461bcd60e51b815260206004820152602060248201527f4f776e61626c653a2063616c6c6572206973206e6f7420746865206f776e65726044820152fd5b60405163a9059cbb60e01b60208201526001600160a01b0390921660248301526044808301939093529181526136fa9161385b606483612ea9565b613d9b565b9093926001600160a01b039092169182156119565780156119235760ff61388686613b0e565b166002811115613910576001190160ff8111610802575f516020613fd95f395f51905f52916138b6604092613251565b505f96845f526007602052825f20865f52602052825f206138d8838254612de4565b905560018060a01b03165f52600c602052815f20855f52602052815f20613900828254612de4565b905581519081525f6020820152a3565b5060405f516020613fd95f395f51905f52916138b65f613251565b9293926001600160a01b03909216919082156119565784156119235760ff61395282613b0e565b166002811115613a45576001190160ff81116108025761397190613251565b6064860286810460640361080257612710900490808210613a3e57505b80868110613a1c57505060405f516020613fd95f395f51905f52915f96905b845f526007602052825f20865f52602052825f206139cc838254612de4565b905560018060a01b0316805f52600c602052825f20865f52602052825f206139f5838254612de4565b90555f526008602052815f20613a0c888254612de4565b90558151908152866020820152a3565b91613a385f516020613fd95f395f51905f529360409398613067565b906139ad565b905061398e565b506139715f613251565b508015159081613a9e575b5015613a6257565b60405162461bcd60e51b8152602060048201526014602482015273092dcecc2d8d2c840e8d2e8d8ca40d8cadccee8d60631b6044820152606490fd5b6064915011155f613a5a565b508015159081613b02575b5015613abd57565b60405162461bcd60e51b815260206004820152601860248201527f496e76616c696420495046532068617368206c656e67746800000000000000006044820152606490fd5b6064915011155f613ab5565b60405163313ce56760e01b815290602090829060049082906001600160a01b03165afa5f9181613be4575b50613b835760405162461bcd60e51b815260206004820152601f60248201527f546f6b656e206d75737420696d706c656d656e7420646563696d616c732829006044820152606490fd5b60ff811660068110159081613bd8575b5015613b9c5790565b60405162461bcd60e51b8152602060048201526014602482015273556e737570706f7274656420646563696d616c7360601b6044820152606490fd5b6012915011155f613b93565b9091506020813d602011613c1a575b81613c0060209383612ea9565b8101031261093d575160ff8116810361093d57905f613b39565b3d9150613bf3565b6040516323b872dd60e01b60208201526001600160a01b0392831660248201529290911660448301526064808301939093529181526136fa9161385b608483612ea9565b9060418151145f14613c8e57612de091602082015190606060408401519301515f1a90613eb3565b50505f90600290565b60058110156109295780613ca85750565b60018103613cf55760405162461bcd60e51b815260206004820152601860248201527f45434453413a20696e76616c6964207369676e617475726500000000000000006044820152606490fd5b60028103613d425760405162461bcd60e51b815260206004820152601f60248201527f45434453413a20696e76616c6964207369676e6174757265206c656e677468006044820152606490fd5b600314613d4b57565b60405162461bcd60e51b815260206004820152602260248201527f45434453413a20696e76616c6964207369676e6174757265202773272076616c604482015261756560f01b6064820152608490fd5b90613e1a9160018060a01b03165f8060405193613db9604086612ea9565b602085527f5361666545524332303a206c6f772d6c6576656c2063616c6c206661696c6564602086015260208151910182855af13d15613eab573d91613dfe83612ecb565b92613e0c6040519485612ea9565b83523d5f602085013e613f24565b8051908115918215613e88575b505015613e3057565b60405162461bcd60e51b815260206004820152602a60248201527f5361666545524332303a204552433230206f7065726174696f6e20646964206e6044820152691bdd081cdd58d8d9595960b21b6064820152608490fd5b819250906020918101031261093d5760200151801515810361093d575f80613e27565b606091613f24565b6fa2a8918ca85bafe22016d0b997e4df60600160ff1b038411613f19576020935f9360ff60809460405194855216868401526040830152606082015282805260015afa15610e41575f516001600160a01b03811615613f1157905f90565b505f90600190565b505050505f90600390565b91929015613f865750815115613f38575090565b3b15613f415790565b60405162461bcd60e51b815260206004820152601d60248201527f416464726573733a2063616c6c20746f206e6f6e2d636f6e74726163740000006044820152606490fd5b825190915015613f995750805190602001fd5b604460209160405192839162461bcd60e51b83528160048401528051918291826024860152018484015e5f828201840152601f01601f19168101030190fdfeb4aeb9fb59644d1c26001b986295cde5bbfae34be7c5240fbccf4c37308e20fea2646970667358221220de5226b2197c9e11b627edfc2720883bbd5b348bb5b08dec250362c2fe345dd264736f6c634300081d0033",
  "linkReferences": {},
  "deployedLinkReferences": {},
  "immutableReferences": {},
  "inputSourceName": "project/contracts/PalindromeCryptoEscrow.sol",
  "buildInfoId": "solc-0_8_29-7df45b08be2004a361a8f8d7fa3fc08d99ad0577"
}