{
  "_format": "hh3-artifact-1",
  "contractName": "PalindromeCryptoEscrow",
  "sourceName": "contracts/PalindromeCryptoEscrow.sol",
  "abi": [
    {
      "inputs": [
        {
          "internalType": "address",
          "name": "initialAllowedToken",
          "type": "address"
        }
      ],
      "stateMutability": "nonpayable",
      "type": "constructor"
    },
    {
      "inputs": [],
      "name": "InsufficientBalance",
      "type": "error"
    },
    {
      "inputs": [],
      "name": "InvalidMessageRoleForDispute",
      "type": "error"
    },
    {
      "inputs": [],
      "name": "InvalidState",
      "type": "error"
    },
    {
      "inputs": [],
      "name": "Unauthorized",
      "type": "error"
    },
    {
      "inputs": [],
      "name": "ZeroAmount",
      "type": "error"
    },
    {
      "anonymous": false,
      "inputs": [
        {
          "indexed": true,
          "internalType": "uint256",
          "name": "escrowId",
          "type": "uint256"
        },
        {
          "indexed": true,
          "internalType": "address",
          "name": "initiator",
          "type": "address"
        },
        {
          "indexed": false,
          "internalType": "uint256",
          "name": "amount",
          "type": "uint256"
        }
      ],
      "name": "Canceled",
      "type": "event"
    },
    {
      "anonymous": false,
      "inputs": [
        {
          "indexed": true,
          "internalType": "uint256",
          "name": "escrowId",
          "type": "uint256"
        },
        {
          "indexed": true,
          "internalType": "address",
          "name": "buyer",
          "type": "address"
        },
        {
          "indexed": true,
          "internalType": "address",
          "name": "seller",
          "type": "address"
        },
        {
          "indexed": false,
          "internalType": "uint256",
          "name": "amount",
          "type": "uint256"
        },
        {
          "indexed": false,
          "internalType": "uint256",
          "name": "fee",
          "type": "uint256"
        }
      ],
      "name": "DeliveryConfirmed",
      "type": "event"
    },
    {
      "anonymous": false,
      "inputs": [
        {
          "indexed": true,
          "internalType": "uint256",
          "name": "escrowId",
          "type": "uint256"
        },
        {
          "indexed": true,
          "internalType": "address",
          "name": "sender",
          "type": "address"
        },
        {
          "indexed": true,
          "internalType": "uint256",
          "name": "role",
          "type": "uint256"
        },
        {
          "indexed": false,
          "internalType": "string",
          "name": "ipfsHash",
          "type": "string"
        },
        {
          "indexed": false,
          "internalType": "uint256",
          "name": "disputeStatus",
          "type": "uint256"
        }
      ],
      "name": "DisputeMessagePosted",
      "type": "event"
    },
    {
      "anonymous": false,
      "inputs": [
        {
          "indexed": true,
          "internalType": "uint256",
          "name": "escrowId",
          "type": "uint256"
        },
        {
          "indexed": false,
          "internalType": "enum PalindromeCryptoEscrow.State",
          "name": "resolution",
          "type": "uint8"
        },
        {
          "indexed": false,
          "internalType": "address",
          "name": "arbiter",
          "type": "address"
        },
        {
          "indexed": false,
          "internalType": "uint256",
          "name": "amount",
          "type": "uint256"
        },
        {
          "indexed": false,
          "internalType": "uint256",
          "name": "fee",
          "type": "uint256"
        }
      ],
      "name": "DisputeResolved",
      "type": "event"
    },
    {
      "anonymous": false,
      "inputs": [
        {
          "indexed": true,
          "internalType": "uint256",
          "name": "escrowId",
          "type": "uint256"
        },
        {
          "indexed": true,
          "internalType": "address",
          "name": "initiator",
          "type": "address"
        }
      ],
      "name": "DisputeStarted",
      "type": "event"
    },
    {
      "anonymous": false,
      "inputs": [
        {
          "indexed": true,
          "internalType": "uint256",
          "name": "escrowId",
          "type": "uint256"
        },
        {
          "indexed": true,
          "internalType": "address",
          "name": "buyer",
          "type": "address"
        },
        {
          "indexed": true,
          "internalType": "address",
          "name": "seller",
          "type": "address"
        },
        {
          "indexed": false,
          "internalType": "address",
          "name": "token",
          "type": "address"
        },
        {
          "indexed": false,
          "internalType": "uint256",
          "name": "amount",
          "type": "uint256"
        },
        {
          "indexed": false,
          "internalType": "address",
          "name": "arbiter",
          "type": "address"
        },
        {
          "indexed": false,
          "internalType": "uint256",
          "name": "maturityTimeDays",
          "type": "uint256"
        },
        {
          "indexed": false,
          "internalType": "string",
          "name": "title",
          "type": "string"
        },
        {
          "indexed": false,
          "internalType": "string",
          "name": "ipfsHash",
          "type": "string"
        }
      ],
      "name": "EscrowCreated",
      "type": "event"
    },
    {
      "anonymous": false,
      "inputs": [
        {
          "indexed": true,
          "internalType": "uint256",
          "name": "escrowId",
          "type": "uint256"
        },
        {
          "indexed": false,
          "internalType": "enum PalindromeCryptoEscrow.State",
          "name": "oldState",
          "type": "uint8"
        },
        {
          "indexed": false,
          "internalType": "enum PalindromeCryptoEscrow.State",
          "name": "newState",
          "type": "uint8"
        }
      ],
      "name": "EscrowStateChanged",
      "type": "event"
    },
    {
      "anonymous": false,
      "inputs": [
        {
          "indexed": true,
          "internalType": "address",
          "name": "token",
          "type": "address"
        },
        {
          "indexed": true,
          "internalType": "address",
          "name": "to",
          "type": "address"
        },
        {
          "indexed": false,
          "internalType": "uint256",
          "name": "amount",
          "type": "uint256"
        }
      ],
      "name": "FeesWithdrawn",
      "type": "event"
    },
    {
      "anonymous": false,
      "inputs": [
        {
          "indexed": true,
          "internalType": "address",
          "name": "previousOwner",
          "type": "address"
        },
        {
          "indexed": true,
          "internalType": "address",
          "name": "newOwner",
          "type": "address"
        }
      ],
      "name": "OwnershipTransferStarted",
      "type": "event"
    },
    {
      "anonymous": false,
      "inputs": [
        {
          "indexed": true,
          "internalType": "address",
          "name": "previousOwner",
          "type": "address"
        },
        {
          "indexed": true,
          "internalType": "address",
          "name": "newOwner",
          "type": "address"
        }
      ],
      "name": "OwnershipTransferred",
      "type": "event"
    },
    {
      "anonymous": false,
      "inputs": [
        {
          "indexed": true,
          "internalType": "uint256",
          "name": "escrowId",
          "type": "uint256"
        },
        {
          "indexed": true,
          "internalType": "address",
          "name": "buyer",
          "type": "address"
        },
        {
          "indexed": false,
          "internalType": "uint256",
          "name": "amount",
          "type": "uint256"
        }
      ],
      "name": "PaymentDeposited",
      "type": "event"
    },
    {
      "anonymous": false,
      "inputs": [
        {
          "indexed": true,
          "internalType": "uint256",
          "name": "escrowId",
          "type": "uint256"
        },
        {
          "indexed": true,
          "internalType": "address",
          "name": "recipient",
          "type": "address"
        },
        {
          "indexed": false,
          "internalType": "uint256",
          "name": "netAmount",
          "type": "uint256"
        },
        {
          "indexed": false,
          "internalType": "uint256",
          "name": "fee",
          "type": "uint256"
        }
      ],
      "name": "PayoutProcessed",
      "type": "event"
    },
    {
      "anonymous": false,
      "inputs": [
        {
          "indexed": true,
          "internalType": "uint256",
          "name": "escrowId",
          "type": "uint256"
        },
        {
          "indexed": true,
          "internalType": "address",
          "name": "initiator",
          "type": "address"
        },
        {
          "indexed": false,
          "internalType": "uint256",
          "name": "amount",
          "type": "uint256"
        },
        {
          "indexed": false,
          "internalType": "uint256",
          "name": "fee",
          "type": "uint256"
        }
      ],
      "name": "Refunded",
      "type": "event"
    },
    {
      "anonymous": false,
      "inputs": [
        {
          "indexed": true,
          "internalType": "uint256",
          "name": "escrowId",
          "type": "uint256"
        },
        {
          "indexed": true,
          "internalType": "address",
          "name": "requester",
          "type": "address"
        }
      ],
      "name": "RequestCancel",
      "type": "event"
    },
    {
      "anonymous": false,
      "inputs": [
        {
          "indexed": true,
          "internalType": "address",
          "name": "token",
          "type": "address"
        },
        {
          "indexed": false,
          "internalType": "bool",
          "name": "allowed",
          "type": "bool"
        }
      ],
      "name": "TokenAllowed",
      "type": "event"
    },
    {
      "anonymous": false,
      "inputs": [
        {
          "indexed": true,
          "internalType": "address",
          "name": "token",
          "type": "address"
        },
        {
          "indexed": true,
          "internalType": "address",
          "name": "user",
          "type": "address"
        },
        {
          "indexed": false,
          "internalType": "uint256",
          "name": "amount",
          "type": "uint256"
        }
      ],
      "name": "Withdrawn",
      "type": "event"
    },
    {
      "inputs": [],
      "name": "DISPUTE_LONG_TIMEOUT",
      "outputs": [
        {
          "internalType": "uint256",
          "name": "",
          "type": "uint256"
        }
      ],
      "stateMutability": "view",
      "type": "function"
    },
    {
      "inputs": [],
      "name": "DISPUTE_SHORT_TIMEOUT",
      "outputs": [
        {
          "internalType": "uint256",
          "name": "",
          "type": "uint256"
        }
      ],
      "stateMutability": "view",
      "type": "function"
    },
    {
      "inputs": [],
      "name": "TIMEOUT_BUFFER",
      "outputs": [
        {
          "internalType": "uint256",
          "name": "",
          "type": "uint256"
        }
      ],
      "stateMutability": "view",
      "type": "function"
    },
    {
      "inputs": [],
      "name": "acceptOwnership",
      "outputs": [],
      "stateMutability": "nonpayable",
      "type": "function"
    },
    {
      "inputs": [
        {
          "internalType": "address",
          "name": "tokenAddress",
          "type": "address"
        }
      ],
      "name": "allowedTokens",
      "outputs": [
        {
          "internalType": "bool",
          "name": "isAllowed",
          "type": "bool"
        }
      ],
      "stateMutability": "view",
      "type": "function"
    },
    {
      "inputs": [
        {
          "internalType": "uint256",
          "name": "",
          "type": "uint256"
        }
      ],
      "name": "arbiterDecisionSubmitted",
      "outputs": [
        {
          "internalType": "bool",
          "name": "",
          "type": "bool"
        }
      ],
      "stateMutability": "view",
      "type": "function"
    },
    {
      "inputs": [
        {
          "internalType": "uint256",
          "name": "escrowId",
          "type": "uint256"
        }
      ],
      "name": "cancelByTimeout",
      "outputs": [],
      "stateMutability": "nonpayable",
      "type": "function"
    },
    {
      "inputs": [
        {
          "internalType": "uint256",
          "name": "escrowId",
          "type": "uint256"
        }
      ],
      "name": "confirmDelivery",
      "outputs": [],
      "stateMutability": "nonpayable",
      "type": "function"
    },
    {
      "inputs": [
        {
          "internalType": "uint256",
          "name": "escrowId",
          "type": "uint256"
        },
        {
          "internalType": "bytes",
          "name": "signature",
          "type": "bytes"
        },
        {
          "internalType": "uint256",
          "name": "deadline",
          "type": "uint256"
        },
        {
          "internalType": "uint256",
          "name": "nonce",
          "type": "uint256"
        }
      ],
      "name": "confirmDeliverySigned",
      "outputs": [],
      "stateMutability": "nonpayable",
      "type": "function"
    },
    {
      "inputs": [
        {
          "internalType": "address",
          "name": "token",
          "type": "address"
        },
        {
          "internalType": "address",
          "name": "buyer",
          "type": "address"
        },
        {
          "internalType": "uint256",
          "name": "amount",
          "type": "uint256"
        },
        {
          "internalType": "uint256",
          "name": "maturityTimeDays",
          "type": "uint256"
        },
        {
          "internalType": "address",
          "name": "arbiter",
          "type": "address"
        },
        {
          "internalType": "string",
          "name": "title",
          "type": "string"
        },
        {
          "internalType": "string",
          "name": "ipfsHash",
          "type": "string"
        }
      ],
      "name": "createEscrow",
      "outputs": [
        {
          "internalType": "uint256",
          "name": "",
          "type": "uint256"
        }
      ],
      "stateMutability": "nonpayable",
      "type": "function"
    },
    {
      "inputs": [
        {
          "internalType": "address",
          "name": "token",
          "type": "address"
        },
        {
          "internalType": "address",
          "name": "seller",
          "type": "address"
        },
        {
          "internalType": "uint256",
          "name": "amount",
          "type": "uint256"
        },
        {
          "internalType": "uint256",
          "name": "maturityTimeDays",
          "type": "uint256"
        },
        {
          "internalType": "address",
          "name": "arbiter",
          "type": "address"
        },
        {
          "internalType": "string",
          "name": "title",
          "type": "string"
        },
        {
          "internalType": "string",
          "name": "ipfsHash",
          "type": "string"
        }
      ],
      "name": "createEscrowAndDeposit",
      "outputs": [
        {
          "internalType": "uint256",
          "name": "escrowId",
          "type": "uint256"
        }
      ],
      "stateMutability": "nonpayable",
      "type": "function"
    },
    {
      "inputs": [
        {
          "internalType": "uint256",
          "name": "escrowId",
          "type": "uint256"
        }
      ],
      "name": "deposit",
      "outputs": [],
      "stateMutability": "nonpayable",
      "type": "function"
    },
    {
      "inputs": [
        {
          "internalType": "uint256",
          "name": "escrowId",
          "type": "uint256"
        }
      ],
      "name": "disputeStatus",
      "outputs": [
        {
          "internalType": "uint256",
          "name": "status",
          "type": "uint256"
        }
      ],
      "stateMutability": "view",
      "type": "function"
    },
    {
      "inputs": [
        {
          "internalType": "uint256",
          "name": "escrowId",
          "type": "uint256"
        }
      ],
      "name": "escrows",
      "outputs": [
        {
          "internalType": "address",
          "name": "token",
          "type": "address"
        },
        {
          "internalType": "address",
          "name": "buyer",
          "type": "address"
        },
        {
          "internalType": "address",
          "name": "seller",
          "type": "address"
        },
        {
          "internalType": "address",
          "name": "arbiter",
          "type": "address"
        },
        {
          "internalType": "uint256",
          "name": "amount",
          "type": "uint256"
        },
        {
          "internalType": "uint256",
          "name": "depositTime",
          "type": "uint256"
        },
        {
          "internalType": "uint256",
          "name": "maturityTime",
          "type": "uint256"
        },
        {
          "internalType": "uint256",
          "name": "disputeStartTime",
          "type": "uint256"
        },
        {
          "internalType": "enum PalindromeCryptoEscrow.State",
          "name": "state",
          "type": "uint8"
        },
        {
          "internalType": "bool",
          "name": "buyerCancelRequested",
          "type": "bool"
        },
        {
          "internalType": "bool",
          "name": "sellerCancelRequested",
          "type": "bool"
        },
        {
          "internalType": "bool",
          "name": "buyerWithdrawn",
          "type": "bool"
        },
        {
          "internalType": "bool",
          "name": "sellerWithdrawn",
          "type": "bool"
        }
      ],
      "stateMutability": "view",
      "type": "function"
    },
    {
      "inputs": [
        {
          "internalType": "uint256",
          "name": "escrowId",
          "type": "uint256"
        }
      ],
      "name": "escrowsNonces",
      "outputs": [
        {
          "internalType": "uint256",
          "name": "buyer",
          "type": "uint256"
        },
        {
          "internalType": "uint256",
          "name": "seller",
          "type": "uint256"
        },
        {
          "internalType": "uint256",
          "name": "arbiter",
          "type": "uint256"
        }
      ],
      "stateMutability": "view",
      "type": "function"
    },
    {
      "inputs": [
        {
          "internalType": "address",
          "name": "",
          "type": "address"
        }
      ],
      "name": "feePool",
      "outputs": [
        {
          "internalType": "uint256",
          "name": "",
          "type": "uint256"
        }
      ],
      "stateMutability": "view",
      "type": "function"
    },
    {
      "inputs": [
        {
          "internalType": "uint256",
          "name": "escrowId",
          "type": "uint256"
        }
      ],
      "name": "getArbiterNonce",
      "outputs": [
        {
          "internalType": "uint256",
          "name": "",
          "type": "uint256"
        }
      ],
      "stateMutability": "view",
      "type": "function"
    },
    {
      "inputs": [
        {
          "internalType": "uint256",
          "name": "escrowId",
          "type": "uint256"
        }
      ],
      "name": "getBuyerNonce",
      "outputs": [
        {
          "internalType": "uint256",
          "name": "",
          "type": "uint256"
        }
      ],
      "stateMutability": "view",
      "type": "function"
    },
    {
      "inputs": [
        {
          "internalType": "address",
          "name": "token",
          "type": "address"
        }
      ],
      "name": "getFeePool",
      "outputs": [
        {
          "internalType": "uint256",
          "name": "",
          "type": "uint256"
        }
      ],
      "stateMutability": "view",
      "type": "function"
    },
    {
      "inputs": [
        {
          "internalType": "uint256",
          "name": "escrowId",
          "type": "uint256"
        }
      ],
      "name": "getSellerNonce",
      "outputs": [
        {
          "internalType": "uint256",
          "name": "",
          "type": "uint256"
        }
      ],
      "stateMutability": "view",
      "type": "function"
    },
    {
      "inputs": [
        {
          "internalType": "uint256",
          "name": "escrowId",
          "type": "uint256"
        },
        {
          "internalType": "address",
          "name": "user",
          "type": "address"
        }
      ],
      "name": "getWithdrawable",
      "outputs": [
        {
          "internalType": "uint256",
          "name": "",
          "type": "uint256"
        }
      ],
      "stateMutability": "view",
      "type": "function"
    },
    {
      "inputs": [],
      "name": "nextEscrowId",
      "outputs": [
        {
          "internalType": "uint256",
          "name": "",
          "type": "uint256"
        }
      ],
      "stateMutability": "view",
      "type": "function"
    },
    {
      "inputs": [],
      "name": "owner",
      "outputs": [
        {
          "internalType": "address",
          "name": "",
          "type": "address"
        }
      ],
      "stateMutability": "view",
      "type": "function"
    },
    {
      "inputs": [],
      "name": "pendingOwner",
      "outputs": [
        {
          "internalType": "address",
          "name": "",
          "type": "address"
        }
      ],
      "stateMutability": "view",
      "type": "function"
    },
    {
      "inputs": [],
      "name": "renounceOwnership",
      "outputs": [],
      "stateMutability": "nonpayable",
      "type": "function"
    },
    {
      "inputs": [
        {
          "internalType": "uint256",
          "name": "escrowId",
          "type": "uint256"
        }
      ],
      "name": "requestCancel",
      "outputs": [],
      "stateMutability": "nonpayable",
      "type": "function"
    },
    {
      "inputs": [
        {
          "internalType": "uint256",
          "name": "escrowId",
          "type": "uint256"
        },
        {
          "internalType": "bytes",
          "name": "signature",
          "type": "bytes"
        },
        {
          "internalType": "uint256",
          "name": "deadline",
          "type": "uint256"
        },
        {
          "internalType": "uint256",
          "name": "nonce",
          "type": "uint256"
        }
      ],
      "name": "requestCancelSigned",
      "outputs": [],
      "stateMutability": "nonpayable",
      "type": "function"
    },
    {
      "inputs": [
        {
          "internalType": "address",
          "name": "token",
          "type": "address"
        },
        {
          "internalType": "bool",
          "name": "allowed",
          "type": "bool"
        }
      ],
      "name": "setAllowedToken",
      "outputs": [],
      "stateMutability": "nonpayable",
      "type": "function"
    },
    {
      "inputs": [
        {
          "internalType": "uint256",
          "name": "escrowId",
          "type": "uint256"
        }
      ],
      "name": "startDispute",
      "outputs": [],
      "stateMutability": "nonpayable",
      "type": "function"
    },
    {
      "inputs": [
        {
          "internalType": "uint256",
          "name": "escrowId",
          "type": "uint256"
        },
        {
          "internalType": "bytes",
          "name": "signature",
          "type": "bytes"
        },
        {
          "internalType": "uint256",
          "name": "deadline",
          "type": "uint256"
        },
        {
          "internalType": "uint256",
          "name": "nonce",
          "type": "uint256"
        }
      ],
      "name": "startDisputeSigned",
      "outputs": [],
      "stateMutability": "nonpayable",
      "type": "function"
    },
    {
      "inputs": [
        {
          "internalType": "uint256",
          "name": "escrowId",
          "type": "uint256"
        },
        {
          "internalType": "enum PalindromeCryptoEscrow.State",
          "name": "resolution",
          "type": "uint8"
        },
        {
          "internalType": "string",
          "name": "ipfsHash",
          "type": "string"
        }
      ],
      "name": "submitArbiterDecision",
      "outputs": [],
      "stateMutability": "nonpayable",
      "type": "function"
    },
    {
      "inputs": [
        {
          "internalType": "uint256",
          "name": "escrowId",
          "type": "uint256"
        },
        {
          "internalType": "enum PalindromeCryptoEscrow.Role",
          "name": "role",
          "type": "uint8"
        },
        {
          "internalType": "string",
          "name": "ipfsHash",
          "type": "string"
        }
      ],
      "name": "submitDisputeMessage",
      "outputs": [],
      "stateMutability": "nonpayable",
      "type": "function"
    },
    {
      "inputs": [
        {
          "internalType": "address",
          "name": "newOwner",
          "type": "address"
        }
      ],
      "name": "transferOwnership",
      "outputs": [],
      "stateMutability": "nonpayable",
      "type": "function"
    },
    {
      "inputs": [
        {
          "internalType": "bytes32",
          "name": "",
          "type": "bytes32"
        }
      ],
      "name": "usedSignatures",
      "outputs": [
        {
          "internalType": "bool",
          "name": "",
          "type": "bool"
        }
      ],
      "stateMutability": "view",
      "type": "function"
    },
    {
      "inputs": [
        {
          "internalType": "uint256",
          "name": "escrowId",
          "type": "uint256"
        }
      ],
      "name": "withdraw",
      "outputs": [],
      "stateMutability": "nonpayable",
      "type": "function"
    },
    {
      "inputs": [
        {
          "internalType": "address",
          "name": "token",
          "type": "address"
        }
      ],
      "name": "withdrawFees",
      "outputs": [],
      "stateMutability": "nonpayable",
      "type": "function"
    },
    {
      "inputs": [
        {
          "internalType": "uint256",
          "name": "escrowId",
          "type": "uint256"
        },
        {
          "internalType": "address",
          "name": "user",
          "type": "address"
        }
      ],
      "name": "withdrawable",
      "outputs": [
        {
          "internalType": "uint256",
          "name": "amount",
          "type": "uint256"
        }
      ],
      "stateMutability": "view",
      "type": "function"
    }
  ],
  "bytecode": "0x60803461013257601f6140bf38819003918201601f19168301916001600160401b038311848410176101365780849260209460405283398101031261013257516001600160a01b038116908190036101325760015f818155600280546001600160a01b031990811690915582543391811682179093556040519290916001600160a01b03909116907f8be0079c531659141344cd1fd0a4f28419497f9722a3daafe3b4186f6b6457e09080a381156101035750805f52600560205260405f20600160ff198254161790557f9a8e30a8658b96ab3f034ce4bac6806278b4aee5880ccdd1ac35e4ed5bb31d23602060405160018152a2604051613f74908161014b8239f35b62461bcd60e51b815260206004820152600a602482015269546f6b656e207a65726f60b01b6044820152606490fd5b5f80fd5b634e487b7160e01b5f52604160045260245ffdfe6080806040526004361015610012575f80fd5b5f3560e01c908163012f52ee14612b375750806306075a15146128f757806310f169e8146128cd5780631452483b146128b0578063164e68de146127c95780632e1a7d4d146123df578063300c6e90146123b057806333bbe7e2146120365780633a880306146110e65780634186928c1461201a578063584e40fa14611ffd5780636232ef6014611cd65780636754631714611a4d5780636dd534b914611a23578063715018a6146119be578063769a68e31461138c57806379ba5097146112c257806385563e261461128157806389cb29dd146112645780638aaa2284146111525780638d66a9a3146102bc5780638da5cb5b1461112a5780639ef7c082146110e65780639f0f7a2214610db2578063ad37137114610d85578063b277cbd214610d58578063b6b55f2514610abf578063c0cfa7e5146109f0578063c761423d14610799578063da183b0214610576578063e30c39781461054e578063e683a2d4146103cc578063e744092e1461038f578063f2fde38b14610323578063f978fd61146102f4578063fd26fef1146102bc5763fd84cb97146101b3575f80fd5b346102b85760203660031901126102b8576004356101cf6132b0565b805f5260046020526101f160018060a01b03600160405f20015416331461322b565b805f52600460205260405f20600881019160ff83541660078110156102a457600161021c911461326c565b7f8bcf349ab354486b68c142cea7235e4f7f31f6a425466f569c8ac1d5bc4d0007604060018060a01b0384541694600285019461026b60018060a01b03875416976004830198895491886138cd565b825460ff19166003179092556001015494549554825190815260208101919091526001600160a01b03958616959490941693a460015f55005b634e487b7160e01b5f52602160045260245ffd5b5f80fd5b346102b85760203660031901126102b8576001600160a01b036102dd612c8f565b165f526008602052602060405f2054604051908152f35b346102b85760203660031901126102b8576004355f52600a602052602060ff60405f2054166040519015158152f35b346102b85760203660031901126102b85761033c612c8f565b61034461371a565b600280546001600160a01b0319166001600160a01b039283169081179091556001549091167f38d16b8cac22d99fc7c124b9cd0de2d3fa1faef420bfe791d8c362d765e227005f80a3005b346102b85760203660031901126102b8576001600160a01b036103b0612c8f565b165f526005602052602060ff60405f2054166040519015158152f35b346102b85760203660031901126102b8576004356103e86132b0565b805f52600460205260018060a01b03600160405f200154163314801561052c575b61041290612f47565b805f52600460205260405f2060088101805460ff811660078110156102a457600161043d911461326c565b600183019060018060a01b0382541633145f1461051a5750815461ff0019166101001782555b33847f88a867d5d9b489598a3f5e5c8d5c1da163ed116737b70444bac744920904a5735f80a3815460ff8160081c16908161050c575b506104a5575b60015f55005b825490546004909301805490936104c9926001600160a01b039182169116866137fe565b50600560ff1982541617905554906040519182527feb8b5b87fbea5b732b8f4fd82b65d9afef713c799d98da83090f22c45577998d60203393a38080808061049f565b60ff915060101c1685610499565b62ff0000191662010000178255610463565b505f818152600460205260409020600201546001600160a01b03163314610409565b346102b8575f3660031901126102b8576002546040516001600160a01b039091168152602090f35b346102b85760203660031901126102b8576004356105926132b0565b805f5260046020526105b460018060a01b03600160405f20015416331461322b565b805f52600460205260405f2060088101805460ff811660078110156102a45760016105df911461326c565b60ff8160081c16156107545760101c60ff1661070f576005820154156106d757600682015461546081018091116106c35742111561067e578154600183015460049093018054909361063e926001600160a01b039182169116866137fe565b50600560ff1982541617905554906040519182527feb8b5b87fbea5b732b8f4fd82b65d9afef713c799d98da83090f22c45577998d60203393a360015f55005b60405162461bcd60e51b815260206004820152601860248201527f477261636520706572696f64206e6f74207265616368656400000000000000006044820152606490fd5b634e487b7160e01b5f52601160045260245ffd5b60405162461bcd60e51b815260206004820152601060248201526f4465706f736974206e6f74206d61646560801b6044820152606490fd5b60405162461bcd60e51b815260206004820152601f60248201527f4d757475616c2063616e63656c20616c72656164792070726f636573736564006044820152606490fd5b60405162461bcd60e51b815260206004820152601f60248201527f4275796572206d75737420726571756573742063616e63656c6c6174696f6e006044820152606490fd5b346102b8576107a736612cbb565b946107b9838596949a98939995613a35565b6107c38689613a90565b6001600160a01b038716936107d9851515612fd0565b845f5260056020526107f160ff60405f20541661301c565b6001600160a01b03169561080687151561305c565b610812338814156130a8565b61081d8315156130f4565b61082a610e438310613135565b61083b61083689613af4565b613170565b80600a0290600a8204036106c35783106109ab576003549861085c8a613181565b6003556001600160a01b0385166109a5576001546001600160a01b03165b6001600160a01b0316338114158061099b575b6108969061318f565b5f8b815260046020819052604090912080546001600160a01b031990811690991781556001810180548a168c1790556002810180548a16331790556003810180549099169092179097559586018490556201518083810293801590850490911417156106c35760209a8a977fd3e0574cb952cf8d88c9c2b97882e6000237da1d62a64753eaddaf4d9ce7351b9760086109326109909742612d52565b600683019081559101805464ffff0000ff1916905560405161095381612e23565b5f815260028f82015f815260408301905f82528d5f5260206009905260405f20935184555160018401555191015554604051978897339d896131cd565b0390a4604051908152f35b508089141561088d565b8461087a565b60405162461bcd60e51b815260206004820152601860248201527f416d6f756e74206c657373207468616e206d696e696d756d00000000000000006044820152606490fd5b346102b85760203660031901126102b857600435610a0c6132b0565b805f52600460205260018060a01b03600160405f2001541633148015610a9d575b610a3690612f47565b805f52600460205260405f206008810160ff81541660078110156102a4576001610a60911461326c565b600260ff1982541617905560074291015533907fd658effe7cf013e5a508b3f1a373b92566494d8b6a7c2970fc964932de1c4dab5f80a360015f55005b505f818152600460205260409020600201546001600160a01b03163314610a2d565b346102b85760203660031901126102b857600435610adb6132b0565b805f526004602052610afd60018060a01b03600160405f20015416331461322b565b805f52600460205260405f20906008820160ff81541660078110156102a457610d1c5782546001600160a01b03165f8181526005602052604090205490939060ff1615610cd7576040516370a0823160e01b8152306004820152602081602481885afa8015610c99575f90610ca4575b60249150610b85600484019687549030903390613b68565b82546040516370a0823160e01b81523060048201529260209184919082906001600160a01b03165afa8015610c99575f90610c65575b610bc5925061321e565b9380548503610c1457849055600542910155600160ff198254161790556040519182527f71284872bb4c088a81295dff2513729babbccfeda38a8d824bb1a73bcaab494e60203393a360015f55005b60405162461bcd60e51b8152602060048201526024808201527f4665652d6f6e2d7472616e7366657220746f6b656e73206e6f7420737570706f6044820152631c9d195960e21b6064820152608490fd5b506020823d602011610c91575b81610c7f60209383612e53565b810103126102b857610bc59151610bbb565b3d9150610c72565b6040513d5f823e3d90fd5b506020813d602011610ccf575b81610cbe60209383612e53565b810103126102b85760249051610b6d565b3d9150610cb1565b60405162461bcd60e51b815260206004820152601960248201527f546f6b656e206e6f7420616c6c6f77656420616e796d6f7265000000000000006044820152606490fd5b60405162461bcd60e51b8152602060048201526014602482015273139bdd081055d05255125391d7d410565351539560621b6044820152606490fd5b346102b85760203660031901126102b8576004355f5260096020526020600160405f200154604051908152f35b346102b85760203660031901126102b8576004355f5260096020526020600260405f200154604051908152f35b346102b857610dc036612cbb565b9790610dce979394976132b0565b610dd88386613a35565b610de28982613a90565b6001600160a01b03821693610df8851515612fd0565b845f526005602052610e1060ff60405f20541661301c565b6001600160a01b031692610e2584151561305c565b610e31338514156130a8565b610e3c8815156130f4565b610e49610e438810613135565b610e5561083684613af4565b80600a0290600a8204036106c35788106109ab5760035498610e768a613181565b6003556001600160a01b0381166110e0576001546001600160a01b03165b6001600160a01b03169633881415806110d6575b610eb19061318f565b5f8b815260046020819052604090912080546001600160a01b03199081168a17825560018201805482163317905560028201805482168a179055600382018054909116909a1790995588018a81559b620151808a810291908b158c840490911417156106c3578c957fd3e0574cb952cf8d88c9c2b97882e6000237da1d62a64753eaddaf4d9ce7351b958d948c6006610f4d610fa69742612d52565b91015560088d019d8e60ff198154169055604051610f6a81612e23565b5f81526002602082015f815260408301905f82528d5f52600960205260405f209351845551600184015551910155604051978897339c896131cd565b0390a46040516370a0823160e01b815230600482015290602082602481845afa918215610c99575f926110a1575b50906020602492610fe787303384613b68565b6040516370a0823160e01b815230600482015293849182905afa8015610c99575f9061106d575b611018925061321e565b928303610c14578260209555600542910155600160ff19825416179055604051908152817f71284872bb4c088a81295dff2513729babbccfeda38a8d824bb1a73bcaab494e843393a360015f55604051908152f35b506020823d602011611099575b8161108760209383612e53565b810103126102b857611018915161100e565b3d915061107a565b91506020823d6020116110ce575b816110bc60209383612e53565b810103126102b8579051906020610fd4565b3d91506110af565b5087861415610ea8565b80610e94565b346102b85760403660031901126102b8576110ff612ca5565b6004355f52600760205260405f209060018060a01b03165f52602052602060405f2054604051908152f35b346102b8575f3660031901126102b8576001546040516001600160a01b039091168152602090f35b346102b85760403660031901126102b85761116b612c8f565b602435908115158092036102b85761118161371a565b6001600160a01b0316908115611229576040516318160ddd60e01b8152602081600481865afa8015610c99576111f8575b5060207f9a8e30a8658b96ab3f034ce4bac6806278b4aee5880ccdd1ac35e4ed5bb31d2391835f526005825260405f2060ff1981541660ff8316179055604051908152a2005b6020813d602011611221575b8161121160209383612e53565b810103126102b8575060206111b2565b3d9150611204565b60405162461bcd60e51b8152602060048201526013602482015272546f6b656e3a207a65726f206164647265737360681b6044820152606490fd5b346102b8575f3660031901126102b8576020600354604051908152f35b346102b85760203660031901126102b8576004355f526009602052606060405f20805490600260018201549101549060405192835260208301526040820152f35b346102b8575f3660031901126102b857600254336001600160a01b039091160361133557600280546001600160a01b0319908116909155600180543392811683179091556001600160a01b03167f8be0079c531659141344cd1fd0a4f28419497f9722a3daafe3b4186f6b6457e05f80a3005b60405162461bcd60e51b815260206004820152602960248201527f4f776e61626c6532537465703a2063616c6c6572206973206e6f7420746865206044820152683732bb9037bbb732b960b91b6064820152608490fd5b346102b85760603660031901126102b857600435602435600781109081156102b85760443567ffffffffffffffff81116102b8576113ce903690600401612c25565b9190926113d96132b0565b5f858152600460205260409020600301546001600160a01b0316330361198257845f52600460205260405f2090600882019360ff85541660078110156102a457600203611965575f906003851496871580611974575b61196557885f526006602052600360405f20541660038114901560078701549062093a808201918281116106c35762278d008101908181116106c35762279b10018091116106c35781159161195b575b501561190b578115611901575b50156118ad57885f52600b60205260ff60405f205416611868575f8981526006602052604090819020805460041790819055905160039333938c937f343e9b07afb91476a7eaea35e0dd214eb5d26b7047cb533a575c43a53d4c8d75939283926114f892919084612fb3565b0390a4865f52600b60205260405f20600160ff198254161790556102a45784156118545760028201546001600160a01b0316945b5f8781526006602052604081205582546004909301805490966001600160a01b03948516941691821561181e5781156117eb5760ff61156a86613af4565b1660028111156117e1576001190160ff81116106c35761158990613170565b901561176957606482028281046064036106c3576127109004908082106117615750935b600a8204808611611759575b5084821115611753576115cc858361321e565b8015611720576115f2908a5f52600760205260405f20855f5260205260405f2054612d52565b895f52600760205260405f20845f5260205261161460405f20548210156137b2565b895f52600760205260405f20845f5260205260405f2055805f5260086020526116418560405f2054612d52565b91815f52600860205260405f205483106116e55761167d866040928c955f516020613f1f5f395f51905f52955f526008602052845f205561321e565b8151908152866020820152a3156102a4577ffc4c84ff0bf9d937dea068e6c13c3a16c307d76a1c5b5173c40f03f68f421e009360809360ff1981541660ff8516179055546116ce6040518094612c18565b33602084015260408301526060820152a260015f55005b60405162461bcd60e51b815260206004820152601360248201527213dd995c999b1bddc81a5b88199959541bdbdb606a1b6044820152606490fd5b60405162461bcd60e51b815260206004820152600b60248201526a111d5cdd081c185e5bdd5d60aa1b6044820152606490fd5b5f6115cc565b9450896115b9565b9050936115ad565b509250865f52600760205260405f20815f5260205261178c8360405f2054612d52565b875f52600760205260405f20825f526020526117ae60405f20548210156137b2565b875f52600760205260405f20825f5260205260405f2055865f516020613f1f5f395f51905f52604061167d5f809761321e565b506115895f613170565b60405162461bcd60e51b815260206004820152600b60248201526a416d6f756e74207a65726f60a81b6044820152606490fd5b60405162461bcd60e51b815260206004820152600e60248201526d526563697069656e74207a65726f60901b6044820152606490fd5b60018201546001600160a01b03169461152c565b60405162461bcd60e51b815260206004820152601a60248201527f4465636973696f6e20616c7265616479207375626d69747465640000000000006044820152606490fd5b60405162461bcd60e51b815260206004820152602660248201527f526571756972652066756c6c2065766964656e6365206f7220372d64617920746044820152651a5b595bdd5d60d21b6064820152608490fd5b905042118a61148c565b60405162461bcd60e51b815260206004820152602260248201527f526571756972652065766964656e6365206f722033302d6461792074696d656f6044820152611d5d60f21b6064820152608490fd5b905042118c61147f565b63baf3f0f760e01b5f5260045ffd5b505f9250600486141561142f565b60405162461bcd60e51b815260206004820152601460248201527313db9b1e48185c989a5d195c88185b1b1bddd95960621b6044820152606490fd5b346102b8575f3660031901126102b8576119d661371a565b600280546001600160a01b03199081169091556001805491821690555f906001600160a01b03167f8be0079c531659141344cd1fd0a4f28419497f9722a3daafe3b4186f6b6457e08280a3005b346102b85760203660031901126102b8576004355f526009602052602060405f2054604051908152f35b346102b857611a5b36612c53565b92611a68949291946132b0565b42851180611cc1575b611a7a90612d5f565b825f52600460205260405f2091600883019060ff82541660078110156102a457600114611aa690612dab565b6001840180549091906001600160a01b031685611ac481838a613304565b8914611acf90612de7565b611ad991886133b8565b600160a01b60019003825416866002870198600160a01b600190038a541690600160a01b6001900360038a0154169b600160a01b600190038a54169c60048b019d8e549060058d0154926040519660208801987f2175432d6c7eab3a2ef5708fc419540c0f4d274cabd17912c92683ed8466b5e98a526040890152896060890152608088015260a087015260c086015260e08501526101008401526101208301526101408201526101408152611b9161016082612e53565b519020611b9c6134cb565b60405161190160f01b60208201908152602282019290925260428082019390935291825290611bcc606282612e53565b519020611bda368488612e91565b611be391613bac565b611bec90613bdd565b6001600160a01b0316611c00811515612ec7565b03611c86577f8bcf349ab354486b68c142cea7235e4f7f31f6a425466f569c8ac1d5bc4d000794611c37611c50926040968961356e565b5487548954916001600160a01b039182169116886138cd565b825460ff19166003179092555494549554825190815260208101919091526001600160a01b03958616959490941693a460015f55005b60405162461bcd60e51b81526020600482015260136024820152722ab730baba3437b934bd32b21039b4b3b732b960691b6044820152606490fd5b506201518042018042116106c3578510611a71565b346102b85760603660031901126102b8576004356024359060048210156102b85760443567ffffffffffffffff81116102b857611d17903690600401612c25565b611d229291926132b0565b815f52600460205260018060a01b03600160405f2001541633148015611fdd575b8015611fbd575b15611f7857815f52600460205260405f2060ff60088201541660078110156102a457600203611f445760648211611f0a575f9060018603611e9157600101546001600160a01b03163303611e535760015b835f5260066020528060405f205416611e0e57835f52600660205260405f209081541790556102a4577f343e9b07afb91476a7eaea35e0dd214eb5d26b7047cb533a575c43a53d4c8d7590825f52600660205260405f205490611e05604051928392339784612fb3565b0390a460015f55005b60405162461bcd60e51b815260206004820152601960248201527f416c7265616479207375626d6974746564206d657373616765000000000000006044820152606490fd5b60405162461bcd60e51b81526020600482015260166024820152754f6e6c792062757965722063616e206d65737361676560501b6044820152606490fd5b5f915060028603611efb57600201546001600160a01b03163303611eb6576002611d9b565b60405162461bcd60e51b815260206004820152601760248201527f4f6e6c792073656c6c65722063616e206d6573736167650000000000000000006044820152606490fd5b63421b511560e11b5f5260045ffd5b60405162461bcd60e51b815260206004820152601260248201527149504653206861736820746f6f206c6f6e6760701b6044820152606490fd5b60405162461bcd60e51b815260206004820152600c60248201526b139bdd08111254d41555115160a21b6044820152606490fd5b60405162461bcd60e51b815260206004820152601b60248201527f4e6f742061207061727469636970616e7420696e20657363726f7700000000006044820152606490fd5b50815f52600460205260018060a01b03600360405f200154163314611d4a565b50815f52600460205260018060a01b03600260405f200154163314611d43565b346102b8575f3660031901126102b857602060405162093a808152f35b346102b8575f3660031901126102b8576020604051610e108152f35b346102b85761204436612c53565b91906120519493946132b0565b4281118061239b575b61206390612d5f565b835f52600460205260405f2092600884019060ff82541660078110156102a457600161208f9114612dab565b600185019360018060a01b0385541633148015612385575b1561234e576120b7863389613304565b82146120c290612de7565b6120cd8633896133b8565b600160a01b60019003855416978789600160a01b6001900360028a01541694600160a01b6001900360038b01541697600160a01b600190038b5416988b600481019a8b549160050154926040519660208801987fcfa08fb4ff8e76dc69803ce4f8c04926b9ecbd9ec3b54390476da60713a6e9768a52604089015260608801528a608088015260a087015260c086015260e0850152610100840152610120830152610140820152610140815261218561016082612e53565b5190206121906134cb565b60405161190160f01b602082019081526022820192909252604280820193909352918252906121c0606282612e53565b5190206121ce368484612e91565b6121d791613bac565b6121e090613bdd565b6001600160a01b0316986121f58a1515612ec7565b808a1461221a946122149282612344575b508115612328575b50612f06565b8761356e565b805460ff8160081c169081612319575b84546001600160a01b031688036123075750815461ff0019166101001782555b86867f88a867d5d9b489598a3f5e5c8d5c1da163ed116737b70444bac744920904a5735f80a315806122f9575b806122eb575b6122875760015f55005b9254915481547feb8b5b87fbea5b732b8f4fd82b65d9afef713c799d98da83090f22c45577998d9460209490926122cc92916001600160a01b039182169116886137fe565b50805460ff1916600517905554604051908152a380808080808061049f565b5060ff815460101c1661227d565b5060ff815460081c16612277565b62ff000019166201000017825561224a565b905060ff8160101c169061222a565b8b811491508161233a575b508b61220e565b905033148b612333565b331491508c612206565b60405162461bcd60e51b815260206004820152600f60248201526e139bdd081c185c9d1a58da5c185b9d608a1b6044820152606490fd5b5060028601546001600160a01b031633146120a7565b506201518042018042116106c357811061205a565b346102b85760203660031901126102b8576004355f52600b602052602060ff60405f2054166040519015158152f35b346102b85760203660031901126102b8576004356123fb6132b0565b805f52600460205260018060a01b03600160405f20015416331480156127a7575b61242590612f47565b805f52600460205260405f20600881019160ff8354166007811015806102a45760058214801561279b575b81811561278b575b501561273b576102a4576006811461270257600381036126955760028301546001600160a01b0316330361263e575b5f828152600760209081526040808320338452909152902054938415612603575f83815260076020908152604080832033808552925282209190915560018501805490916001600160a01b03909116036125eb57815463ff000000191663010000001782555b5f84815260076020908152604080832093546001600160a01b03168352929052205415806125be575b612572575b505081546125369150839033906001600160a01b0316613772565b60018060a01b039054166040519182527fd1c19fbcd4551a5edfb66d43d2e337c04837afda3482b42bdf569a8fccdae5fb60203393a360015f55005b805460ff19166006179055604080517f9fd18dd57bf85e04b8e9f0d0525149241b7cc780d9c23051d307c3afc5e04ca8926125ae908290612c18565b60066020820152a282808061251b565b505f83815260076020908152604080832060028801546001600160a01b0316845290915290205415612516565b815464ff0000000019166401000000001782556124ed565b60405162461bcd60e51b81526020600482015260136024820152724e6f7468696e6720746f20776974686472617760681b6044820152606490fd5b60405162461bcd60e51b815260206004820152602960248201527f4f6e6c792073656c6c65722063616e207769746864726177206166746572206360448201526837b6b83632ba34b7b760b91b6064820152608490fd5b60018301546001600160a01b031633146124875760405162461bcd60e51b815260206004820152602b60248201527f4f6e6c792062757965722063616e20776974686472617720616674657220726560448201526a199d5b990bd8d85b98d95b60aa1b6064820152608490fd5b60405162461bcd60e51b815260206004820152601160248201527020b63932b0b23c903bb4ba34323930bbb760791b6044820152606490fd5b60405162461bcd60e51b815260206004820152602260248201527f5769746864726177616c73206f6e6c7920616674657220657363726f7720656e604482015261647360f01b6064820152608490fd5b90506102a4576004821481612458565b50505f60038214612450565b505f818152600460205260409020600201546001600160a01b0316331461241c565b346102b85760203660031901126102b8576127e2612c8f565b6127ea6132b0565b6127f261371a565b6001600160a01b03165f81815260086020526040902054908115612875575f818152600860205260408120556001546128369083906001600160a01b031683613772565b6001546040519283526001600160a01b0316917f5e110f8bc8a20b65dcc87f224bdf1cc039346e267118bae2739847f07321ffa890602090a360015f55005b60405162461bcd60e51b8152602060048201526013602482015272139bc81999595cc81858d8dd5b5d5b185d1959606a1b6044820152606490fd5b346102b8575f3660031901126102b857602060405162278d008152f35b346102b85760203660031901126102b8576004355f526006602052602060405f2054604051908152f35b346102b85761290536612c53565b9392906129106132b0565b42811180612b22575b61292290612d5f565b835f52600460205260405f2092600884019260ff84541660078110156102a457612ac1936129556001612abb9314612dab565b61296a61296388338b613304565b8a14612de7565b61297587338a6133b8565b612a8f612a878960018060a01b0360018b0154169360018060a01b0360028c0154169c8d918c600360018060a01b03910154168d60018060a01b0381541660056004830154920154926040519660208801987f3ec4667e1948e2e97f54b4602b6bbfa8f3f98ff1036916ce75d84c59f9558f028a5260408901528b6060890152608088015260a087015260c086015260e08501526101008401526101208301526101408201526101408152612a2c61016082612e53565b519020612a65612a73612a3d6134cb565b92604051928391602083019586909160429261190160f01b8352600283015260228201520190565b03601f198101835282612e53565b519020612a81368888612e91565b90613bac565b919091613bdd565b6001600160a01b031698612aa48a1515612ec7565b818a149182612b18575b508115612afc5750612f06565b8561356e565b600260ff198254161790556007429101557fd658effe7cf013e5a508b3f1a373b92566494d8b6a7c2970fc964932de1c4dab5f80a360015f55005b898114915081612b0e575b508961220e565b9050331489612b07565b331491508a612aae565b506201518042018042116106c3578110612919565b346102b85760203660031901126102b8576101a0906004355f52600460205260ff60405f2060018060a01b038154169060018060a01b0360018201541660018060a01b0360028301541660018060a01b0360038401541660048401549060058501549260068601549460086007880154970154978a5260208a015260408901526060880152608087015260a086015260c085015260e0840152612be06101008401838316612c18565b818160081c161515610120840152818160101c161515610140840152818160181c16151561016084015260201c161515610180820152f35b9060078210156102a45752565b9181601f840112156102b85782359167ffffffffffffffff83116102b857602083818601950101116102b857565b9060806003198301126102b857600435916024359067ffffffffffffffff82116102b857612c8391600401612c25565b90916044359060643590565b600435906001600160a01b03821682036102b857565b602435906001600160a01b03821682036102b857565b9060e06003198301126102b8576004356001600160a01b03811681036102b857916024356001600160a01b03811681036102b8579160443591606435916084356001600160a01b03811681036102b8579160a43567ffffffffffffffff81116102b85781612d2b91600401612c25565b9290929160c4359067ffffffffffffffff82116102b857612d4e91600401612c25565b9091565b919082018092116106c357565b15612d6657565b60405162461bcd60e51b815260206004820152601c60248201527f496e76616c6964206f722065787069726564207369676e6174757265000000006044820152606490fd5b15612db257565b60405162461bcd60e51b815260206004820152600d60248201526c496e76616c696420737461746560981b6044820152606490fd5b15612dee57565b60405162461bcd60e51b815260206004820152600d60248201526c496e76616c6964206e6f6e636560981b6044820152606490fd5b6060810190811067ffffffffffffffff821117612e3f57604052565b634e487b7160e01b5f52604160045260245ffd5b90601f8019910116810190811067ffffffffffffffff821117612e3f57604052565b67ffffffffffffffff8111612e3f57601f01601f191660200190565b929192612e9d82612e75565b91612eab6040519384612e53565b8294818452818301116102b8578281602093845f960137010152565b15612ece57565b60405162461bcd60e51b815260206004820152601060248201526f496e76616c6964207265636f7665727960801b6044820152606490fd5b15612f0d57565b60405162461bcd60e51b81526020600482015260126024820152710a6d2cedcc2e8eae4ca40dad2e6dac2e8c6d60731b6044820152606490fd5b15612f4e57565b60405162461bcd60e51b815260206004820152601f60248201527f4e6f742061206275796572206f722073656c6c657220696e20657363726f77006044820152606490fd5b908060209392818452848401375f828201840152601f01601f1916010190565b939291602091612fcb91604087526040870191612f93565b930152565b15612fd757565b60405162461bcd60e51b815260206004820152601c60248201527f546f6b656e2063616e6e6f74206265207a65726f2061646472657373000000006044820152606490fd5b1561302357565b60405162461bcd60e51b8152602060048201526011602482015270151bdad95b881b9bdd08185b1b1bddd959607a1b6044820152606490fd5b1561306357565b60405162461bcd60e51b815260206004820152601c60248201527f42757965722063616e6e6f74206265207a65726f2061646472657373000000006044820152606490fd5b156130af57565b60405162461bcd60e51b815260206004820152601f60248201527f427579657220616e642073656c6c65722063616e6e6f742062652073616d65006044820152606490fd5b156130fb57565b60405162461bcd60e51b81526020600482015260126024820152710416d6f756e74206d757374206265203e20360741b6044820152606490fd5b1561313c57565b60405162461bcd60e51b815260206004820152600c60248201526b4d617820313020796561727360a01b6044820152606490fd5b60ff16604d81116106c357600a0a90565b5f1981146106c35760010190565b1561319657565b60405162461bcd60e51b815260206004820152600f60248201526e24b73b30b634b21030b93134ba32b960891b6044820152606490fd5b96949261321b98969261320d959260018060a01b03168952602089015260018060a01b03166040880152606087015260c0608087015260c0860191612f93565b9260a0818503910152612f93565b90565b919082039182116106c357565b1561323257565b60405162461bcd60e51b815260206004820152601260248201527113db9b1e48189d5e595c88185b1b1bddd95960721b6044820152606490fd5b1561327357565b60405162461bcd60e51b81526020600482015260156024820152744e6f74204157414954494e475f44454c495645525960581b6044820152606490fd5b60025f54146132bf5760025f55565b60405162461bcd60e51b815260206004820152601f60248201527f5265656e7472616e637947756172643a207265656e7472616e742063616c6c006044820152606490fd5b600183015490926001600160a01b039283169290911682146133a75760028101546001600160a01b0316821461339357600301546001600160a01b0316146133815760405162461bcd60e51b8152602060048201526013602482015272556e6b6e6f776e207369676e657220726f6c6560681b6044820152606490fd5b5f526009602052600260405f20015490565b50505f526009602052600160405f20015490565b50505f52600960205260405f205490565b6001600160a01b0390911690811561347c575f90815260096020526040902060018301549092906001600160a01b031682036133ff5750506133fa8154613181565b90555b565b60028101546001600160a01b031682036134225750506001016133fa8154613181565b600301546001600160a01b031603613441576002016133fa8154613181565b60405162461bcd60e51b8152602060048201526013602482015272556e6b6e6f776e207369676e657220726f6c6560681b6044820152606490fd5b60405162461bcd60e51b815260206004820152602160248201527f5369676e65722063616e6e6f7420626520746865207a65726f206164647265736044820152607360f81b6064820152608490fd5b60406016602082516134dd8482612e53565b828152017550616c696e64726f6d6543727970746f457363726f7760501b81522060016020835161350e8582612e53565b82815201603160f81b81522082519160208301937f8b73c3c69bb8fe3d512ecc4cf759cc79239f7b179b0ffacaa9a75d522b39400f855283015260608201524660808201523060a082015260a0815261356860c082612e53565b51902090565b9190604182036136e05760408101355f1a6fa2a8918ca85bafe22016d0b997e4df60600160ff1b036020830135116136a557601b811490811561369a575b50156136695760606135e69183604051948592602084019746895260408501528484013781015f838201520301601f198101835282612e53565b519020805f52600a60205260ff60405f205416613615575f52600a60205260405f20600160ff19825416179055565b60405162461bcd60e51b815260206004820152602660248201527f5369676e617475726520616c7265616479207573656420666f72207468697320604482015265657363726f7760d01b6064820152608490fd5b60405162461bcd60e51b815260206004820152600960248201526824b73b30b634b2103b60b91b6044820152606490fd5b601c9150145f6135ac565b60405162461bcd60e51b8152602060048201526013602482015272496e76616c6964207369676e6174757265207360681b6044820152606490fd5b60405162461bcd60e51b8152602060048201526012602482015271092dcecc2d8d2c840e6d2ce40d8cadccee8d60731b6044820152606490fd5b6001546001600160a01b0316330361372e57565b606460405162461bcd60e51b815260206004820152602060248201527f4f776e61626c653a2063616c6c6572206973206e6f7420746865206f776e65726044820152fd5b60405163a9059cbb60e01b60208201526001600160a01b0390921660248301526044808301939093529181526133fd916137ad606483612e53565b613ce1565b156137b957565b60405162461bcd60e51b815260206004820152601860248201527f4f766572666c6f7720696e20776974686472617761626c6500000000000000006044820152606490fd5b9293926001600160a01b039092169190821561181e5784156117eb5761382560ff91613af4565b1660028111156138c3576001190160ff81116106c35761384490613170565b50805f52600760205260405f20825f526020526138658460405f2054612d52565b815f52600760205260405f20835f5260205261388760405f20548210156137b2565b5f8281526007602090815260408083208684529091528120919091559360405f516020613f1f5f395f51905f529181519081525f6020820152a3565b506138445f613170565b9093926001600160a01b0390921691821561181e5780156117eb5760ff6138f386613af4565b166002811115613a2b576001190160ff81116106c35761391290613170565b606482028281046064036106c357612710900490808210613a235750945b600a8204808711613a1b575b5085821115613a155761394f868361321e565b80156117205761397590845f52600760205260405f20865f5260205260405f2054612d52565b835f52600760205260405f20855f5260205261399760405f20548210156137b2565b835f52600760205260405f20855f5260205260405f205560018060a01b031690815f5260086020526139cd8660405f2054612d52565b825f52600860205260405f205481106116e55786604092613a07925f516020613f1f5f395f51905f52955f526008602052845f205561321e565b8151908152866020820152a3565b5f61394f565b95505f61393c565b905094613930565b506139125f613170565b508015159081613a84575b5015613a4857565b60405162461bcd60e51b8152602060048201526014602482015273092dcecc2d8d2c840e8d2e8d8ca40d8cadccee8d60631b6044820152606490fd5b6064915011155f613a40565b508015159081613ae8575b5015613aa357565b60405162461bcd60e51b815260206004820152601860248201527f496e76616c696420495046532068617368206c656e67746800000000000000006044820152606490fd5b6064915011155f613a9b565b60405163313ce56760e01b815290602090829060049082906001600160a01b03165afa5f9181613b2a575b5061321b5750601290565b9091506020813d602011613b60575b81613b4660209383612e53565b810103126102b8575160ff811681036102b857905f613b1f565b3d9150613b39565b6040516323b872dd60e01b60208201526001600160a01b0392831660248201529290911660448301526064808301939093529181526133fd916137ad608483612e53565b9060418151145f14613bd457612d4e91602082015190606060408401519301515f1a90613df9565b50505f90600290565b60058110156102a45780613bee5750565b60018103613c3b5760405162461bcd60e51b815260206004820152601860248201527f45434453413a20696e76616c6964207369676e617475726500000000000000006044820152606490fd5b60028103613c885760405162461bcd60e51b815260206004820152601f60248201527f45434453413a20696e76616c6964207369676e6174757265206c656e677468006044820152606490fd5b600314613c9157565b60405162461bcd60e51b815260206004820152602260248201527f45434453413a20696e76616c6964207369676e6174757265202773272076616c604482015261756560f01b6064820152608490fd5b90613d609160018060a01b03165f8060405193613cff604086612e53565b602085527f5361666545524332303a206c6f772d6c6576656c2063616c6c206661696c6564602086015260208151910182855af13d15613df1573d91613d4483612e75565b92613d526040519485612e53565b83523d5f602085013e613e6a565b8051908115918215613dce575b505015613d7657565b60405162461bcd60e51b815260206004820152602a60248201527f5361666545524332303a204552433230206f7065726174696f6e20646964206e6044820152691bdd081cdd58d8d9595960b21b6064820152608490fd5b81925090602091810103126102b8576020015180151581036102b8575f80613d6d565b606091613e6a565b6fa2a8918ca85bafe22016d0b997e4df60600160ff1b038411613e5f576020935f9360ff60809460405194855216868401526040830152606082015282805260015afa15610c99575f516001600160a01b03811615613e5757905f90565b505f90600190565b505050505f90600390565b91929015613ecc5750815115613e7e575090565b3b15613e875790565b60405162461bcd60e51b815260206004820152601d60248201527f416464726573733a2063616c6c20746f206e6f6e2d636f6e74726163740000006044820152606490fd5b825190915015613edf5750805190602001fd5b604460209160405192839162461bcd60e51b83528160048401528051918291826024860152018484015e5f828201840152601f01601f19168101030190fdfeb4aeb9fb59644d1c26001b986295cde5bbfae34be7c5240fbccf4c37308e20fea2646970667358221220cb611c959ea9db077e2e1ff608d6a2fb0a0dd75d700b21c4c3b7ed1e66d83f8064736f6c634300081d0033",
  "linkReferences": {},
  "deployedLinkReferences": {},
  "immutableReferences": {},
  "inputSourceName": "project/contracts/PalindromeCryptoEscrow.sol",
  "buildInfoId": "solc-0_8_29-9753b6a0ec2a9e33a47d42811bc539c17e4e6431"
}