{
  "_format": "hh3-artifact-1",
  "contractName": "PalindromeCryptoEscrow",
  "sourceName": "contracts/PalindromeCryptoEscrow.sol",
  "abi": [
    {
      "inputs": [
        {
          "internalType": "address",
          "name": "_feeReceiver",
          "type": "address"
        }
      ],
      "stateMutability": "nonpayable",
      "type": "constructor"
    },
    {
      "inputs": [],
      "name": "InvalidMessageRoleForDispute",
      "type": "error"
    },
    {
      "inputs": [],
      "name": "InvalidNonce",
      "type": "error"
    },
    {
      "inputs": [],
      "name": "NotParticipant",
      "type": "error"
    },
    {
      "inputs": [],
      "name": "OnlyArbiter",
      "type": "error"
    },
    {
      "inputs": [],
      "name": "OnlyBuyer",
      "type": "error"
    },
    {
      "inputs": [],
      "name": "OnlyBuyerOrSeller",
      "type": "error"
    },
    {
      "inputs": [],
      "name": "OnlySeller",
      "type": "error"
    },
    {
      "inputs": [],
      "name": "SignatureAlreadyUsed",
      "type": "error"
    },
    {
      "inputs": [],
      "name": "SignatureLengthInvalid",
      "type": "error"
    },
    {
      "inputs": [],
      "name": "SignatureSInvalid",
      "type": "error"
    },
    {
      "inputs": [],
      "name": "SignatureVInvalid",
      "type": "error"
    },
    {
      "anonymous": false,
      "inputs": [
        {
          "indexed": true,
          "internalType": "uint256",
          "name": "escrowId",
          "type": "uint256"
        },
        {
          "indexed": true,
          "internalType": "address",
          "name": "oldArbiter",
          "type": "address"
        },
        {
          "indexed": true,
          "internalType": "address",
          "name": "newArbiter",
          "type": "address"
        }
      ],
      "name": "ArbiterReplaced",
      "type": "event"
    },
    {
      "anonymous": false,
      "inputs": [
        {
          "indexed": true,
          "internalType": "uint256",
          "name": "escrowId",
          "type": "uint256"
        },
        {
          "indexed": true,
          "internalType": "address",
          "name": "initiator",
          "type": "address"
        },
        {
          "indexed": false,
          "internalType": "uint256",
          "name": "amount",
          "type": "uint256"
        }
      ],
      "name": "Canceled",
      "type": "event"
    },
    {
      "anonymous": false,
      "inputs": [
        {
          "indexed": true,
          "internalType": "uint256",
          "name": "escrowId",
          "type": "uint256"
        },
        {
          "indexed": true,
          "internalType": "address",
          "name": "buyer",
          "type": "address"
        },
        {
          "indexed": true,
          "internalType": "address",
          "name": "seller",
          "type": "address"
        },
        {
          "indexed": false,
          "internalType": "uint256",
          "name": "amount",
          "type": "uint256"
        },
        {
          "indexed": false,
          "internalType": "uint256",
          "name": "fee",
          "type": "uint256"
        },
        {
          "indexed": false,
          "internalType": "string",
          "name": "ipfsHaesh",
          "type": "string"
        }
      ],
      "name": "DeliveryConfirmed",
      "type": "event"
    },
    {
      "anonymous": false,
      "inputs": [
        {
          "indexed": true,
          "internalType": "uint256",
          "name": "escrowId",
          "type": "uint256"
        },
        {
          "indexed": true,
          "internalType": "address",
          "name": "sender",
          "type": "address"
        },
        {
          "indexed": false,
          "internalType": "enum PalindromeCryptoEscrow.Role",
          "name": "role",
          "type": "uint8"
        },
        {
          "indexed": false,
          "internalType": "string",
          "name": "ipfsHash",
          "type": "string"
        }
      ],
      "name": "DisputeMessagePosted",
      "type": "event"
    },
    {
      "anonymous": false,
      "inputs": [
        {
          "indexed": true,
          "internalType": "uint256",
          "name": "escrowId",
          "type": "uint256"
        },
        {
          "indexed": false,
          "internalType": "enum PalindromeCryptoEscrow.State",
          "name": "resolution",
          "type": "uint8"
        },
        {
          "indexed": false,
          "internalType": "address",
          "name": "arbiter",
          "type": "address"
        },
        {
          "indexed": false,
          "internalType": "uint256",
          "name": "amount",
          "type": "uint256"
        },
        {
          "indexed": false,
          "internalType": "uint256",
          "name": "fee",
          "type": "uint256"
        }
      ],
      "name": "DisputeResolved",
      "type": "event"
    },
    {
      "anonymous": false,
      "inputs": [
        {
          "indexed": true,
          "internalType": "uint256",
          "name": "escrowId",
          "type": "uint256"
        },
        {
          "indexed": true,
          "internalType": "address",
          "name": "initiator",
          "type": "address"
        }
      ],
      "name": "DisputeStarted",
      "type": "event"
    },
    {
      "anonymous": false,
      "inputs": [
        {
          "indexed": true,
          "internalType": "uint256",
          "name": "escrowId",
          "type": "uint256"
        },
        {
          "indexed": true,
          "internalType": "address",
          "name": "recipient",
          "type": "address"
        },
        {
          "indexed": false,
          "internalType": "uint256",
          "name": "amount",
          "type": "uint256"
        }
      ],
      "name": "EmergencyRecoveryExecuted",
      "type": "event"
    },
    {
      "anonymous": false,
      "inputs": [
        {
          "indexed": true,
          "internalType": "uint256",
          "name": "escrowId",
          "type": "uint256"
        },
        {
          "indexed": false,
          "internalType": "uint256",
          "name": "timestamp",
          "type": "uint256"
        }
      ],
      "name": "EmergencyRecoveryInitiated",
      "type": "event"
    },
    {
      "anonymous": false,
      "inputs": [
        {
          "indexed": true,
          "internalType": "uint256",
          "name": "escrowId",
          "type": "uint256"
        },
        {
          "indexed": true,
          "internalType": "address",
          "name": "buyer",
          "type": "address"
        },
        {
          "indexed": true,
          "internalType": "address",
          "name": "seller",
          "type": "address"
        },
        {
          "indexed": false,
          "internalType": "address",
          "name": "token",
          "type": "address"
        },
        {
          "indexed": false,
          "internalType": "uint256",
          "name": "amount",
          "type": "uint256"
        },
        {
          "indexed": false,
          "internalType": "address",
          "name": "arbiter",
          "type": "address"
        },
        {
          "indexed": false,
          "internalType": "uint256",
          "name": "maturityTime",
          "type": "uint256"
        },
        {
          "indexed": false,
          "internalType": "string",
          "name": "title",
          "type": "string"
        },
        {
          "indexed": false,
          "internalType": "string",
          "name": "ipfsHash",
          "type": "string"
        }
      ],
      "name": "EscrowCreated",
      "type": "event"
    },
    {
      "anonymous": false,
      "inputs": [
        {
          "indexed": true,
          "internalType": "uint256",
          "name": "escrowId",
          "type": "uint256"
        },
        {
          "indexed": false,
          "internalType": "enum PalindromeCryptoEscrow.State",
          "name": "oldState",
          "type": "uint8"
        },
        {
          "indexed": false,
          "internalType": "enum PalindromeCryptoEscrow.State",
          "name": "newState",
          "type": "uint8"
        }
      ],
      "name": "EscrowStateChanged",
      "type": "event"
    },
    {
      "anonymous": false,
      "inputs": [
        {
          "indexed": true,
          "internalType": "uint256",
          "name": "escrowId",
          "type": "uint256"
        },
        {
          "indexed": true,
          "internalType": "address",
          "name": "buyer",
          "type": "address"
        },
        {
          "indexed": false,
          "internalType": "uint256",
          "name": "amount",
          "type": "uint256"
        }
      ],
      "name": "PaymentDeposited",
      "type": "event"
    },
    {
      "anonymous": false,
      "inputs": [
        {
          "indexed": true,
          "internalType": "uint256",
          "name": "escrowId",
          "type": "uint256"
        },
        {
          "indexed": false,
          "internalType": "address",
          "name": "recipient",
          "type": "address"
        },
        {
          "indexed": false,
          "internalType": "uint256",
          "name": "netAmount",
          "type": "uint256"
        },
        {
          "indexed": false,
          "internalType": "address",
          "name": "feeRecipient",
          "type": "address"
        },
        {
          "indexed": false,
          "internalType": "uint256",
          "name": "feeAmount",
          "type": "uint256"
        }
      ],
      "name": "PayoutProposed",
      "type": "event"
    },
    {
      "anonymous": false,
      "inputs": [
        {
          "indexed": true,
          "internalType": "uint256",
          "name": "escrowId",
          "type": "uint256"
        },
        {
          "indexed": true,
          "internalType": "address",
          "name": "requester",
          "type": "address"
        }
      ],
      "name": "RequestCancel",
      "type": "event"
    },
    {
      "anonymous": false,
      "inputs": [
        {
          "indexed": true,
          "internalType": "uint256",
          "name": "escrowId",
          "type": "uint256"
        },
        {
          "indexed": false,
          "internalType": "bytes",
          "name": "sellerSig",
          "type": "bytes"
        }
      ],
      "name": "SellerWalletSigAttached",
      "type": "event"
    },
    {
      "anonymous": false,
      "inputs": [
        {
          "indexed": true,
          "internalType": "uint256",
          "name": "escrowId",
          "type": "uint256"
        },
        {
          "indexed": true,
          "internalType": "address",
          "name": "wallet",
          "type": "address"
        }
      ],
      "name": "WalletCreated",
      "type": "event"
    },
    {
      "inputs": [],
      "name": "COMPLETE_RECOVERY_DELAY",
      "outputs": [
        {
          "internalType": "uint256",
          "name": "",
          "type": "uint256"
        }
      ],
      "stateMutability": "view",
      "type": "function"
    },
    {
      "inputs": [],
      "name": "DISPUTE_LONG_TIMEOUT",
      "outputs": [
        {
          "internalType": "uint256",
          "name": "",
          "type": "uint256"
        }
      ],
      "stateMutability": "view",
      "type": "function"
    },
    {
      "inputs": [],
      "name": "DISPUTE_SHORT_TIMEOUT",
      "outputs": [
        {
          "internalType": "uint256",
          "name": "",
          "type": "uint256"
        }
      ],
      "stateMutability": "view",
      "type": "function"
    },
    {
      "inputs": [],
      "name": "EMERGENCY_RECOVERY_DELAY",
      "outputs": [
        {
          "internalType": "uint256",
          "name": "",
          "type": "uint256"
        }
      ],
      "stateMutability": "view",
      "type": "function"
    },
    {
      "inputs": [],
      "name": "GRACE_PERIOD",
      "outputs": [
        {
          "internalType": "uint256",
          "name": "",
          "type": "uint256"
        }
      ],
      "stateMutability": "view",
      "type": "function"
    },
    {
      "inputs": [],
      "name": "MIN_EVIDENCE_WINDOW",
      "outputs": [
        {
          "internalType": "uint256",
          "name": "",
          "type": "uint256"
        }
      ],
      "stateMutability": "view",
      "type": "function"
    },
    {
      "inputs": [],
      "name": "TIMEOUT_BUFFER",
      "outputs": [
        {
          "internalType": "uint256",
          "name": "",
          "type": "uint256"
        }
      ],
      "stateMutability": "view",
      "type": "function"
    },
    {
      "inputs": [
        {
          "internalType": "uint256",
          "name": "escrowId",
          "type": "uint256"
        },
        {
          "internalType": "bytes",
          "name": "sellerSig",
          "type": "bytes"
        }
      ],
      "name": "attachSellerWalletSig",
      "outputs": [],
      "stateMutability": "nonpayable",
      "type": "function"
    },
    {
      "inputs": [
        {
          "internalType": "uint256",
          "name": "escrowId",
          "type": "uint256"
        }
      ],
      "name": "cancelByTimeout",
      "outputs": [],
      "stateMutability": "nonpayable",
      "type": "function"
    },
    {
      "inputs": [
        {
          "internalType": "uint256",
          "name": "escrowId",
          "type": "uint256"
        },
        {
          "internalType": "string",
          "name": "ipfsHaesh",
          "type": "string"
        }
      ],
      "name": "confirmDelivery",
      "outputs": [],
      "stateMutability": "nonpayable",
      "type": "function"
    },
    {
      "inputs": [
        {
          "internalType": "uint256",
          "name": "escrowId",
          "type": "uint256"
        },
        {
          "internalType": "bytes",
          "name": "signature",
          "type": "bytes"
        },
        {
          "internalType": "uint256",
          "name": "deadline",
          "type": "uint256"
        },
        {
          "internalType": "uint256",
          "name": "nonce",
          "type": "uint256"
        },
        {
          "internalType": "string",
          "name": "ipfsHaesh",
          "type": "string"
        }
      ],
      "name": "confirmDeliverySigned",
      "outputs": [],
      "stateMutability": "nonpayable",
      "type": "function"
    },
    {
      "inputs": [
        {
          "internalType": "address",
          "name": "token",
          "type": "address"
        },
        {
          "internalType": "address",
          "name": "buyer",
          "type": "address"
        },
        {
          "internalType": "uint256",
          "name": "amount",
          "type": "uint256"
        },
        {
          "internalType": "uint256",
          "name": "maturityTimeDays",
          "type": "uint256"
        },
        {
          "internalType": "address",
          "name": "arbiter",
          "type": "address"
        },
        {
          "internalType": "string",
          "name": "title",
          "type": "string"
        },
        {
          "internalType": "string",
          "name": "ipfsHash",
          "type": "string"
        }
      ],
      "name": "createEscrow",
      "outputs": [
        {
          "internalType": "uint256",
          "name": "",
          "type": "uint256"
        }
      ],
      "stateMutability": "nonpayable",
      "type": "function"
    },
    {
      "inputs": [
        {
          "internalType": "address",
          "name": "token",
          "type": "address"
        },
        {
          "internalType": "address",
          "name": "seller",
          "type": "address"
        },
        {
          "internalType": "uint256",
          "name": "amount",
          "type": "uint256"
        },
        {
          "internalType": "uint256",
          "name": "maturityTimeDays",
          "type": "uint256"
        },
        {
          "internalType": "address",
          "name": "arbiter",
          "type": "address"
        },
        {
          "internalType": "string",
          "name": "title",
          "type": "string"
        },
        {
          "internalType": "string",
          "name": "ipfsHash",
          "type": "string"
        }
      ],
      "name": "createEscrowAndDeposit",
      "outputs": [
        {
          "internalType": "uint256",
          "name": "escrowId",
          "type": "uint256"
        }
      ],
      "stateMutability": "nonpayable",
      "type": "function"
    },
    {
      "inputs": [
        {
          "internalType": "uint256",
          "name": "escrowId",
          "type": "uint256"
        }
      ],
      "name": "deposit",
      "outputs": [],
      "stateMutability": "nonpayable",
      "type": "function"
    },
    {
      "inputs": [
        {
          "internalType": "uint256",
          "name": "",
          "type": "uint256"
        }
      ],
      "name": "disputeStatus",
      "outputs": [
        {
          "internalType": "uint256",
          "name": "",
          "type": "uint256"
        }
      ],
      "stateMutability": "view",
      "type": "function"
    },
    {
      "inputs": [
        {
          "internalType": "uint256",
          "name": "",
          "type": "uint256"
        }
      ],
      "name": "emergencyRecoveryInitiatedAt",
      "outputs": [
        {
          "internalType": "uint256",
          "name": "",
          "type": "uint256"
        }
      ],
      "stateMutability": "view",
      "type": "function"
    },
    {
      "inputs": [
        {
          "internalType": "uint256",
          "name": "escrowId",
          "type": "uint256"
        }
      ],
      "name": "executeEmergencyRecovery",
      "outputs": [],
      "stateMutability": "nonpayable",
      "type": "function"
    },
    {
      "inputs": [],
      "name": "feeReceiver",
      "outputs": [
        {
          "internalType": "address",
          "name": "",
          "type": "address"
        }
      ],
      "stateMutability": "view",
      "type": "function"
    },
    {
      "inputs": [
        {
          "internalType": "uint256",
          "name": "escrowId",
          "type": "uint256"
        }
      ],
      "name": "forceRecoveryRefund",
      "outputs": [],
      "stateMutability": "nonpayable",
      "type": "function"
    },
    {
      "inputs": [
        {
          "internalType": "uint256",
          "name": "escrowId",
          "type": "uint256"
        }
      ],
      "name": "getEscrow",
      "outputs": [
        {
          "components": [
            {
              "internalType": "address",
              "name": "token",
              "type": "address"
            },
            {
              "internalType": "address",
              "name": "buyer",
              "type": "address"
            },
            {
              "internalType": "address",
              "name": "seller",
              "type": "address"
            },
            {
              "internalType": "address",
              "name": "arbiter",
              "type": "address"
            },
            {
              "internalType": "address",
              "name": "wallet",
              "type": "address"
            },
            {
              "internalType": "uint256",
              "name": "amount",
              "type": "uint256"
            },
            {
              "internalType": "uint256",
              "name": "depositTime",
              "type": "uint256"
            },
            {
              "internalType": "uint256",
              "name": "maturityTime",
              "type": "uint256"
            },
            {
              "internalType": "uint256",
              "name": "disputeStartTime",
              "type": "uint256"
            },
            {
              "internalType": "enum PalindromeCryptoEscrow.State",
              "name": "state",
              "type": "uint8"
            },
            {
              "internalType": "bool",
              "name": "buyerCancelRequested",
              "type": "bool"
            },
            {
              "internalType": "bool",
              "name": "sellerCancelRequested",
              "type": "bool"
            },
            {
              "internalType": "uint8",
              "name": "tokenDecimals",
              "type": "uint8"
            }
          ],
          "internalType": "struct PalindromeCryptoEscrow.EscrowDeal",
          "name": "",
          "type": "tuple"
        }
      ],
      "stateMutability": "view",
      "type": "function"
    },
    {
      "inputs": [
        {
          "internalType": "uint256",
          "name": "escrowId",
          "type": "uint256"
        },
        {
          "internalType": "address",
          "name": "signer",
          "type": "address"
        },
        {
          "internalType": "uint256",
          "name": "bucket",
          "type": "uint256"
        }
      ],
      "name": "getNonceBitmap",
      "outputs": [
        {
          "internalType": "uint256",
          "name": "",
          "type": "uint256"
        }
      ],
      "stateMutability": "view",
      "type": "function"
    },
    {
      "inputs": [
        {
          "internalType": "uint256",
          "name": "escrowId",
          "type": "uint256"
        }
      ],
      "name": "initiateEmergencyRecovery",
      "outputs": [],
      "stateMutability": "nonpayable",
      "type": "function"
    },
    {
      "inputs": [
        {
          "internalType": "uint256",
          "name": "escrowId",
          "type": "uint256"
        },
        {
          "internalType": "address",
          "name": "signer",
          "type": "address"
        },
        {
          "internalType": "uint256",
          "name": "nonce",
          "type": "uint256"
        }
      ],
      "name": "isNonceUsed",
      "outputs": [
        {
          "internalType": "bool",
          "name": "",
          "type": "bool"
        }
      ],
      "stateMutability": "view",
      "type": "function"
    },
    {
      "inputs": [],
      "name": "nextEscrowId",
      "outputs": [
        {
          "internalType": "uint256",
          "name": "",
          "type": "uint256"
        }
      ],
      "stateMutability": "view",
      "type": "function"
    },
    {
      "inputs": [
        {
          "internalType": "uint256",
          "name": "escrowId",
          "type": "uint256"
        }
      ],
      "name": "requestCancel",
      "outputs": [],
      "stateMutability": "nonpayable",
      "type": "function"
    },
    {
      "inputs": [
        {
          "internalType": "uint256",
          "name": "escrowId",
          "type": "uint256"
        },
        {
          "internalType": "bytes",
          "name": "signature",
          "type": "bytes"
        },
        {
          "internalType": "uint256",
          "name": "deadline",
          "type": "uint256"
        },
        {
          "internalType": "uint256",
          "name": "nonce",
          "type": "uint256"
        }
      ],
      "name": "requestCancelSigned",
      "outputs": [],
      "stateMutability": "nonpayable",
      "type": "function"
    },
    {
      "inputs": [
        {
          "internalType": "uint256",
          "name": "escrowId",
          "type": "uint256"
        }
      ],
      "name": "startDispute",
      "outputs": [],
      "stateMutability": "nonpayable",
      "type": "function"
    },
    {
      "inputs": [
        {
          "internalType": "uint256",
          "name": "escrowId",
          "type": "uint256"
        },
        {
          "internalType": "bytes",
          "name": "signature",
          "type": "bytes"
        },
        {
          "internalType": "uint256",
          "name": "deadline",
          "type": "uint256"
        },
        {
          "internalType": "uint256",
          "name": "nonce",
          "type": "uint256"
        }
      ],
      "name": "startDisputeSigned",
      "outputs": [],
      "stateMutability": "nonpayable",
      "type": "function"
    },
    {
      "inputs": [
        {
          "internalType": "uint256",
          "name": "escrowId",
          "type": "uint256"
        },
        {
          "internalType": "enum PalindromeCryptoEscrow.State",
          "name": "resolution",
          "type": "uint8"
        },
        {
          "internalType": "string",
          "name": "ipfsHash",
          "type": "string"
        }
      ],
      "name": "submitArbiterDecision",
      "outputs": [],
      "stateMutability": "nonpayable",
      "type": "function"
    },
    {
      "inputs": [
        {
          "internalType": "uint256",
          "name": "escrowId",
          "type": "uint256"
        },
        {
          "internalType": "enum PalindromeCryptoEscrow.Role",
          "name": "role",
          "type": "uint8"
        },
        {
          "internalType": "string",
          "name": "ipfsHash",
          "type": "string"
        }
      ],
      "name": "submitDisputeMessage",
      "outputs": [],
      "stateMutability": "nonpayable",
      "type": "function"
    }
  ],
  "bytecode": "0x60e0806040523461019d57602081616039803803809161001f82856101a1565b83398101031261019d57516001600160a01b03811680820361019d5760015f551561016b5760c0524660a0526040516100596040826101a1565b601681527f50616c696e64726f6d6543727970746f457363726f7700000000000000000000602090910152604080517f214be339dbd101005f8c34eca4dc81d275788130af1987d8fb35ea9c0a925bfa916100b490826101a1565b600181526020810190603160f81b82525190206040519060208201927f8b73c3c69bb8fe3d512ecc4cf759cc79239f7b179b0ffacaa9a75d522b39400f8452604083015260608201524660808201523060a082015260a0815261011860c0826101a1565b519020608052604051615e6090816101d98239608051816130b1015260a0518161308b015260c05181818161067101528181610c9b01528181610ead01528181611bb3015281816134f901526135c60152f35b60405162461bcd60e51b815260206004820152600a602482015269466565546f207a65726f60b01b6044820152606490fd5b5f80fd5b601f909101601f19168101906001600160401b038211908210176101c457604052565b634e487b7160e01b5f52604160045260245ffdfe60a06040526004361015610011575f80fd5b5f3560e01c806306075a15146125ea57806310f169e8146125c05780631452483b146125a35780631c41ef0b146124c857806333bbe7e21461219657806335ef2c6b1461214c5780633c33bcba146121225780633e1b4435146121055780634186928c146120e9578063471873c2146120cc578063584e40fa146120af5780636232ef6014611e17578063769a68e3146118c35780637d19e596146116df57806389cb29dd146116c2578063925f7f991461144257806398949a20146113b55780639bbfca9e146111f65780639dede53c146111b55780639f0f7a2214610d9e578063b211838814610cca578063b3f0067414610c86578063b6b55f2514610b7f578063be5c085114610a28578063c0cfa7e514610965578063c1a287e214610949578063c761423d14610574578063da183b0214610338578063e683a2d4146101845763f7a7d86414610163575f80fd5b34610180575f366003190112610180576020604051620d2f008152f35b5f80fd5b34610180576020366003190112610180576004356101a0613034565b805f52600260205260405f2060018060a01b036001820154163314159081610320575b5061031157805f52600260205260405f20600981019081549160ff831660068110156102fd5760016101f59114612ff0565b60ff8360081c16806102f0575b600183019360018060a01b0385541633145f146102de5750815461ff0019166101001782555b33857f88a867d5d9b489598a3f5e5c8d5c1da163ed116737b70444bac744920904a5735f80a31590816102cf575b816102c0575b50610268575b60015f55005b6102876005926102778561333f565b546001600160a01b031684613494565b50500154906040519182527feb8b5b87fbea5b732b8f4fd82b65d9afef713c799d98da83090f22c45577998d60203393a3808080610262565b60ff91505460101c168461025c565b805460081c60ff169150610256565b62ff0000191662010000178255610228565b5060ff8360101c16610202565b634e487b7160e01b5f52602160045260245ffd5b631cfe2f0560e11b5f5260045ffd5b600201546001600160a01b03163314159050826101c3565b3461018057602036600319011261018057600435610354613034565b5f818152600260205260409020600101546001600160a01b0316330361056557805f52600260205260405f20600981015460ff811660068110156102fd57600161039e9114612ff0565b600882015461052f5760ff8160081c16156104f55760101c60ff166104bb5760068101541561048957600781015461546081018091116104755742111561043a576005906103eb8361333f565b6001810154610403906001600160a01b031684613494565b50500154906040519182527feb8b5b87fbea5b732b8f4fd82b65d9afef713c799d98da83090f22c45577998d60203393a360015f55005b60405162461bcd60e51b8152602060048201526013602482015272477261636520706572696f642061637469766560681b6044820152606490fd5b634e487b7160e01b5f52601160045260245ffd5b60405162461bcd60e51b815260206004820152600a602482015269139bc819195c1bdcda5d60b21b6044820152606490fd5b60405162461bcd60e51b81526020600482015260126024820152714d757475616c2063616e63656c20646f6e6560701b6044820152606490fd5b60405162461bcd60e51b8152602060048201526012602482015271135d5cdd081c995c5d595cdd08199a5c9cdd60721b6044820152606490fd5b60405162461bcd60e51b815260206004820152600e60248201526d446973707574652061637469766560901b6044820152606490fd5b6386efbb5560e01b5f5260045ffd5b346101805761058236612927565b9061059183859a94989a61365a565b61059b828261360b565b6105af6001600160a01b0384161515612c32565b6001600160a01b038816966105c5881515612c6b565b6105d133891415612ca4565b6105dc8a1515612ce4565b6105e9610e438810612d1e565b6105f2846136b5565b946106076105ff876137cb565b8c1015612d5e565b6001549a6106148c612d9d565b6001556001600160a01b0388169a8b158015610934575b61063490612dab565b8c61063f8984613803565b604093919351936121de93848601948686106001600160401b038711176109205786958f91958e61069a97613c0d8a397f00000000000000000000000000000000000000000000000000000000000000009433933090612de9565b03905ff080156108d7576106b0813f1515612e46565b6001600160a01b0316966106c5881515612e88565b6040516317aa5fb760e11b8152600481018c90526020816024818c5afa80156108d7576106f9915f91610901575b50612ee5565b6040516317aa5fb760e11b81523360048201526020816024818c5afa80156108d75761072c915f916108e2575b50612f23565b6040516317aa5fb760e11b8152600481018d90526020816024818c5afa80156108d757610760915f916108a8575b50612f62565b8c5f52600260205260405f209b60018060a01b0388168d6001600160601b0360a01b905416178d5560018d018c6001600160601b0360a01b82541617905560028d0160018060a01b0333166001600160601b0360a01b82541617905560038d01906001600160601b0360a01b82541617905560048c0160018060a01b0389166001600160601b0360a01b8254161790558160058d0155620151808a0299808b04620151801490151715610475578c9961081990426129b8565b60078d019081556009909c01805463ff0000ff191660189290921b63ff000000169190911790556040519788978a7f470292d5e9c87e6d5a100a14c56a434c9f25e9e2be1d5efa70c3b5f9aeda505f5f80a3339b54916108799789612fa2565b037fd3e0574cb952cf8d88c9c2b97882e6000237da1d62a64753eaddaf4d9ce7351b91a4604051908152602090f35b6108ca915060203d6020116108d0575b6108c28183612a5c565b810190612ecd565b8f61075a565b503d6108b8565b6040513d5f823e3d90fd5b6108fb915060203d6020116108d0576108c28183612a5c565b8f610726565b61091a915060203d6020116108d0576108c28183612a5c565b8f6106f3565b634e487b7160e01b5f52604160045260245ffd5b50338c1415801561062b57508b8b141561062b565b34610180575f3660031901126101805760206040516154608152f35b3461018057602036600319011261018057600435610981613034565b805f52600260205260405f2060018060a01b036001820154163314159081610a10575b5061031157805f52600260205260405f206009810160ff81541660068110156102fd5760016109d39114612ff0565b600260ff1982541617905560084291015533907fd658effe7cf013e5a508b3f1a373b92566494d8b6a7c2970fc964932de1c4dab5f80a360015f55005b600201546001600160a01b03163314159050826109a4565b3461018057602036600319011261018057600435610a44613034565b805f52600260205260405f2060018060a01b036001820154163314159081610b67575b5061031157805f52600260205260405f2090805f52600660205260405f20548015610b325762278d00810180911161047557610aa590421015612b67565b60ff60098301541660068110156102fd57806001610acc9214908115610b27575b50612a04565b610ad5816132d3565b60018201546001600160a01b0316917f9e62953cca5b6ea7f1cb59d2cf8896053f5cd2e512f31178ad22188ed380d37990602090600590610b168686613494565b50500154604051908152a360015f55005b600291501484610ac6565b60405162461bcd60e51b815260206004820152600d60248201526c139bdd081a5b9a5d1a585d1959609a1b6044820152606490fd5b600201546001600160a01b0316331415905082610a67565b3461018057602036600319011261018057600435610b9b613034565b5f818152600260205260409020600101546001600160a01b0316330361056557805f52600260205260405f206009810160ff81541660068110156102fd57610c4a5781546004830154600584018054909492610c05926001600160a01b0390811691339116613863565b600642910155600160ff1982541617905554906040519182527f71284872bb4c088a81295dff2513729babbccfeda38a8d824bb1a73bcaab494e60203393a360015f55005b60405162461bcd60e51b8152602060048201526014602482015273139bdd08185dd85a5d1a5b99c81c185e5b595b9d60621b6044820152606490fd5b34610180575f366003190112610180576040517f00000000000000000000000000000000000000000000000000000000000000006001600160a01b03168152602090f35b3461018057610cd8366128f4565b9091610ce2613034565b5f818152600260205260409020600101546001600160a01b0316330361056557805f52600260205260405f209160ff6009840154169060068210156102fd57610d4e60017f0298917f100869a28a40e5be38ea1576557876b34d29d20af11bd34fe53b2ef99314612ff0565b610d57836133ab565b60028401546001600160a01b031694610d95610d738786613531565b939050600560018060a01b036001890154169701549260405194859485612c13565b0390a460015f55005b3461018057610dac36612927565b9390610dbd98959392979698613034565b610dc7888461365a565b610dd1858261360b565b610de56001600160a01b0387161515612c32565b610df96001600160a01b0388161515612c6b565b610e0e6001600160a01b038816331415612ca4565b610e19891515612ce4565b610e26610e438510612d1e565b610e2f866136b5565b97610e44610e3c8a6137cb565b8b1015612d5e565b600154608052610e55608051612d9d565b6001556001600160a01b0383169788158015611197575b610e7590612dab565b610e7f8a8c613803565b604051916121de91828401918483106001600160401b03841117610920578c8987610eda958897613c0d89397f0000000000000000000000000000000000000000000000000000000000000000933391608051903090612de9565b03905ff080156108d757610ef0813f1515612e46565b6001600160a01b031695610f05871515612e88565b6040516317aa5fb760e11b81523360048201526020816024818b5afa80156108d757610f37915f916111785750612ee5565b6040516317aa5fb760e11b81526001600160a01b03831660048201526020816024818b5afa80156108d757610f72915f916111595750612f23565b6040516317aa5fb760e11b8152600481018b90526020816024818b5afa80156108d757610fa5915f9161113a5750612f62565b6080515f90815260026020819052604090912080546001600160a01b03199081166001600160a01b038d8116919091178355600183018054831633179055928201805482168685161790556003820180548216909d17909c55600481018054909c1691891691909117909a5560058a018c9055620151808181029180159083049091141715610475578b97899161103c90426129b8565b60078c0190815560098c01805463ff0000ff191660189e909e1b63ff000000169d909d178d55946040519485948a6080517f470292d5e9c87e6d5a100a14c56a434c9f25e9e2be1d5efa70c3b5f9aeda505f5f80a3600160a01b6001900316988b33996080519954916110af9789612fa2565b037fd3e0574cb952cf8d88c9c2b97882e6000237da1d62a64753eaddaf4d9ce7351b91a46110e79233906001600160a01b0316613863565b42906006015560ff19815416600117905560405190815233906080519060207f71284872bb4c088a81295dff2513729babbccfeda38a8d824bb1a73bcaab494e91a360015f556040516080518152602090f35b611153915060203d6020116108d0576108c28183612a5c565b8e61075a565b611172915060203d6020116108d0576108c28183612a5c565b8e610726565b611191915060203d6020116108d0576108c28183612a5c565b8e6106f3565b50338914158015610e6c57506001600160a01b038116891415610e6c565b34610180576111c3366128bd565b915f52600760205260405f209060018060a01b03165f5260205260405f20905f52602052602060405f2054604051908152f35b3461018057602036600319011261018057600435611212613034565b805f52600260205260405f2060018060a01b03600182015416331415908161139d575b5061031157805f52600260205260405f2060ff60098201541660068110156102fd5760018114908115611392575b501561134d57600701546276a70081018091116104755742111561130957805f52600660205260405f20546112d057805f5260066020524260405f20557f8d5c7e29b9eef125ac402bcf39a5617ef2adff0089796846a05a81eb8bacf4cc6020604051428152a260015f55005b60405162461bcd60e51b8152602060048201526011602482015270105b1c9958591e481a5b9a5d1a585d1959607a1b6044820152606490fd5b606460405162461bcd60e51b815260206004820152602060248201527f546f6f206561726c7920666f7220656d657267656e6379207265636f766572796044820152fd5b60405162461bcd60e51b815260206004820152601a60248201527f496e76616c696420737461746520666f72207265636f766572790000000000006044820152606490fd5b600291501483611263565b600201546001600160a01b0316331415905082611235565b34610180576113c3366128f4565b90825f52600260205260405f2060018060a01b03600182015416331415908161142a575b50610311577f9a98d2f378553651c1f49353593985b1cda0f6d7e9ab1062bb365dc9172a5cd591611425604051928392602084526020840191612bf3565b0390a2005b600201546001600160a01b03163314159050846113e7565b346101805760a0366003190112610180576004356024356001600160401b03811161018057611475903690600401612855565b9091604435916064356084356001600160401b0381116101805761149d903690600401612855565b956114a6613034565b428611806116ad575b6114b8906129c5565b845f52600260205260405f209560ff60098801541660068110156102fd576001146114e290612a04565b6001870193600160a01b6001900385541690818860028b0194600160a01b60019003865416908c600160a01b600190039060030154168d600160a01b600190039054169d600581019e8f549160060154926040519560208701977f2175432d6c7eab3a2ef5708fc419540c0f4d274cabd17912c92683ed8466b5e989526040880152886060880152608087015260a086015260c085015260e08401526101008301526101208201528361014082015261014081526115a261016082612a5c565b5190206115ad613088565b60405161190160f01b602082019081526022820192909252604280820193909352918252906115dd606282612a5c565b5190206115eb368a88612a98565b6115f4916139b2565b6115fd906139e3565b6001600160a01b0316611611811515612ace565b147f0298917f100869a28a40e5be38ea1576557876b34d29d20af11bd34fe53b2ef997610d959561164f8361166696611655956116a3575b50612b0d565b8a613176565b85546001600160a01b03168861325a565b61166f866133ab565b546001600160a01b0316966116848887613531565b945497546040516001600160a01b039099169895869592509085612c13565b905033148f611649565b506201518042018042116104755786106114af565b34610180575f366003190112610180576020600154604051908152f35b34610180576020366003190112610180575f61018060405161170081612a40565b8281528260208201528260408201528260608201528260808201528260a08201528260c08201528260e08201528261010082015282610120820152826101408201528261016082015201526004355f52600260205260405f206040519061176682612a40565b80546001600160a01b039081168352600182015481166020840190815260028301548216604085019081526003840154831660608601908152600485015490931660808601908152600585015460a0870190815260068087015460c08901908152600788015460e08a0190815260088901546101008b0190815260099099015498969795966101208b019690959194929360ff8b16908110156102fd57875260ff60088b901c811615156101408d0190815260108c901c821615156101608e0190815260189c909c1c9091166101808d01908152604080519d516001600160a01b039081168f529b518c1660208f015299518b16998d01999099529051891660608c0152905190971660808a01525160a08901525160c08801525160e08701525161010086015251909291906118a1906101208601906128e7565b5115156101408401525115156101608301525160ff166101808201526101a090f35b34610180576060366003190112610180576004356024356006811015610180576044356001600160401b03811161018057611902903690600401612855565b909161190c613034565b5f848152600260205260409020600301546001600160a01b03163303611e0857835f52600260205260405f209160ff60098401541660068110156102fd5760026119569114612a04565b5f906003831494858015611dfb575b15611dc157865f52600360205260405f20805460ff81168080611db2575b8015611da5575b60088901549062093a808201918281116104755762278d008101908181116104755762279b10810180921161047557620151808101809111610475574210611d55578115611d4b575b5015611d06578115611cfc575b5015611cb757885f52600560205260ff60405f205416611c805788927f4e71d2a3ce09c95d708a8bc888cb8838c8419bea1f25f6d07f2c601b173f720e9262010000611ac69362ff00001916179055835f52600560205260405f20600160ff19825416179055835f526002602052835f516020615e0b5f395f51905f5260406009815f20845f526006602052825f2054611c6e575b01611a858b60ff83541692612b4f565b611a91825180926128e7565b611a9e602082018c6128e7565ba2835f5260036020525f60408120556040519460038652604060208701526040860191612bf3565b928033940390a36102fd578215611c5a5760028201546001600160a01b0316925b845f52600260205260405f208560ff600983015460181c16600281115f14611c5057611b15611b1a91613417565b61342a565b9215611c0c5750600501549060648202938285046064148315171561047557865f516020615deb5f395f51905f5260807ffc4c84ff0bf9d937dea068e6c13c3a16c307d76a1c5b5173c40f03f68f421e0098611b97600596612710849b0490808210155f14611c0557505b8098611b9281831061343b565b613487565b6040519160018060a01b03168252602082015260018060a01b037f0000000000000000000000000000000000000000000000000000000000000000166040820152866060820152a20154611bee60405180946128e7565b33602084015260408301526060820152a260015f55005b9050611b85565b6005919250936080945f516020615deb5f395f51905f52867ffc4c84ff0bf9d937dea068e6c13c3a16c307d76a1c5b5173c40f03f68f421e0098855f970154611b97565b50611b1a5f61342a565b60018201546001600160a01b031692611ae7565b845f5260066020525f83812055611a75565b60405162461bcd60e51b815260206004820152600f60248201526e105b1c9958591e48191958da591959608a1b6044820152606490fd5b60405162461bcd60e51b815260206004820152601d60248201527f4e6565642066756c6c2065766964656e6365206f722074696d656f75740000006044820152606490fd5b905042118a6119e0565b60405162461bcd60e51b815260206004820152601860248201527f4e6565642065766964656e6365206f722074696d656f757400000000000000006044820152606490fd5b905042118c6119d3565b60405162461bcd60e51b815260206004820152602260248201527f4d696e696d756d2065766964656e63652077696e646f77206e6f742070617373604482015261195960f21b6064820152608490fd5b5060ff8260081c1661198a565b905060ff8260081c1690611983565b60405162461bcd60e51b815260206004820152601260248201527124b73b30b634b2103932b9b7b63aba34b7b760711b6044820152606490fd5b505f925060048414611965565b6372cc71e760e11b5f5260045ffd5b34610180576060366003190112610180576004356024359060048210918215610180576044356001600160401b03811161018057611e59903690600401612855565b9190611e63613034565b835f52600260205260405f2060018060a01b036001820154163314159081612097575b8161207f575b5061207057835f52600260205260405f2060ff60098201541660068110156102fd5760020361203c57611ebf848361360b565b845f52600360205260405f2090855f52600860205260405f205490600185145f14611fad57600101546001600160a01b03163303611f7b57816001809354611f0a60ff821615612bb3565b60ff1916179055611f1d81831615612bb3565b175b845f52600860205260405f205560405194156102fd577f4e71d2a3ce09c95d708a8bc888cb8838c8419bea1f25f6d07f2c601b173f720e92611f6e928652604060208701526040860191612bf3565b928033940390a360015f55005b60405162461bcd60e51b815260206004820152600a60248201526927b7363c90313abcb2b960b11b6044820152606490fd5b6002850361202d57600201546001600160a01b03163303611ffa578161010060029354611fe060ff8260081c1615612bb3565b61ff001916179055611ff481831615612bb3565b17611f1f565b60405162461bcd60e51b815260206004820152600b60248201526a27b7363c9039b2b63632b960a91b6044820152606490fd5b63421b511560e11b5f5260045ffd5b60405162461bcd60e51b815260206004820152600c60248201526b139bdd08191a5cdc1d5d195960a21b6044820152606490fd5b63721c7c6760e11b5f5260045ffd5b600301546001600160a01b0316331415905086611e8c565b60028101546001600160a01b03163314159150611e86565b34610180575f36600319011261018057602060405162093a808152f35b34610180575f3660031901126101805760206040516276a7008152f35b34610180575f366003190112610180576020604051610e108152f35b34610180575f366003190112610180576020604051620151808152f35b34610180576020366003190112610180576004355f526006602052602060405f2054604051908152f35b3461018057602061215c366128bd565b915f526007835260405f209060018060a01b03165f52825260405f208160081c5f52825260405f2054600160ff60405193161b1615158152f35b34610180576121a436612882565b6121b2949394929192613034565b835f52600260205260405f2060018060a01b0360018201541633141590816124b0575b50610311574283118061249b575b6121ec906129c5565b835f52600260205260405f2092600984019160ff83541660068110156102fd5760011461221890612a04565b6001850193600160a01b600190038554169087600160a01b6001900360028901541694600160a01b6001900360038a01541690600160a01b600190038a541660058b019a8b549060060154916040519460208601967fcfa08fb4ff8e76dc69803ce4f8c04926b9ecbd9ec3b54390476da60713a6e976885260408701528860608701528a608087015260a086015260c085015260e08401526101008301526101208201528461014082015261014081526122d461016082612a5c565b5190206122df613088565b60405161190160f01b6020820190815260228201929092526042808201939093529182529061230f606282612a5c565b51902061231d36838c612a98565b612326916139b2565b61232f906139e3565b6001600160a01b0316986123448a1515612ace565b828a14806123739661236c9561236693612491575b5081156124755750612b0d565b88613176565b338661325a565b805460ff8160081c169081612466575b83546001600160a01b031687036124545750815461ff0019166101001782555b85857f88a867d5d9b489598a3f5e5c8d5c1da163ed116737b70444bac744920904a5735f80a3159081612445575b81612436575b506123e25760015f55005b7feb8b5b87fbea5b732b8f4fd82b65d9afef713c799d98da83090f22c45577998d916124236020926124138661333f565b546001600160a01b031685613494565b505054604051908152a380808080610262565b60ff91505460101c16856123d7565b805460081c60ff1691506123d1565b62ff00001916620100001782556123a3565b905060ff8160101c1690612383565b8c8114915081612487575b508c611649565b905033148c612480565b331491508d612359565b506201518042018042116104755783106121e3565b600201546001600160a01b03163314159050866121d5565b34610180576020366003190112610180576004356124e4613034565b5f818152600260205260409020600301546001600160a01b03163303611e0857805f52600260205260405f209060ff60098301541660068110156102fd5760030361256f57600782015491620d2f0083018093116104755761254b61256793421015612b67565b612554826132d3565b600101546001600160a01b031690613494565b505060015f55005b60405162461bcd60e51b815260206004820152600c60248201526b4e6f7420636f6d706c65746560a01b6044820152606490fd5b34610180575f36600319011261018057602060405162278d008152f35b34610180576020366003190112610180576004355f526008602052602060405f2054604051908152f35b34610180576125f836612882565b91909392612604613034565b835f52600260205260405f2060018060a01b03600182015416331415908161283d575b506103115742851180612828575b61263e906129c5565b835f52600260205260405f2092600984019260ff8454169060068210156102fd576127c79361267260016127c09414612a04565b6127ba60018060a01b0360018901541661278e6127868b60018060a01b0360028d015416809e8d60018060a01b036003820154169060018060a01b0381541660066005830154920154926040519560208701977f3ec4667e1948e2e97f54b4602b6bbfa8f3f98ff1036916ce75d84c59f9558f02895260408801528a6060880152608087015260a086015260c085015260e084015261010083015261012082015289610140820152610140815261272b61016082612a5c565b51902061276461277261273c613088565b92604051928391602083019586909160429261190160f01b8352600283015260228201520190565b03601f198101835282612a5c565b519020612780368888612a98565b906139b2565b9190916139e3565b6001600160a01b03169a6127a38c1515612ace565b818c14918261281e575b5081156128025750612b0d565b87613176565b338561325a565b600260ff198254161790556008429101557fd658effe7cf013e5a508b3f1a373b92566494d8b6a7c2970fc964932de1c4dab5f80a360015f55005b8b8114915081612814575b508b611649565b905033148b61280d565b331491508c6127ad565b50620151804201804211610475578510612635565b600201546001600160a01b0316331415905086612627565b9181601f84011215610180578235916001600160401b038311610180576020838186019501011161018057565b9060806003198301126101805760043591602435906001600160401b038211610180576128b191600401612855565b90916044359060643590565b606090600319011261018057600435906024356001600160a01b0381168103610180579060443590565b9060068210156102fd5752565b9060406003198301126101805760043591602435906001600160401b0382116101805761292391600401612855565b9091565b9060e0600319830112610180576004356001600160a01b038116810361018057916024356001600160a01b0381168103610180579160443591606435916084356001600160a01b0381168103610180579160a4356001600160401b038111610180578161299691600401612855565b9290929160c435906001600160401b0382116101805761292391600401612855565b9190820180921161047557565b156129cc57565b60405162461bcd60e51b815260206004820152601060248201526f496e76616c696420646561646c696e6560801b6044820152606490fd5b15612a0b57565b60405162461bcd60e51b815260206004820152600d60248201526c496e76616c696420737461746560981b6044820152606490fd5b6101a081019081106001600160401b0382111761092057604052565b90601f801991011681019081106001600160401b0382111761092057604052565b6001600160401b03811161092057601f01601f191660200190565b929192612aa482612a7d565b91612ab26040519384612a5c565b829481845281830111610180578281602093845f960137010152565b15612ad557565b60405162461bcd60e51b815260206004820152601060248201526f496e76616c6964207265636f7665727960801b6044820152606490fd5b15612b1457565b60405162461bcd60e51b81526020600482015260136024820152722ab730baba3437b934bd32b21039b4b3b732b960691b6044820152606490fd5b9060068110156102fd5760ff80198354169116179055565b15612b6e57565b60405162461bcd60e51b815260206004820152601960248201527f5265636f766572792064656c6179206e6f7420706173736564000000000000006044820152606490fd5b15612bba57565b60405162461bcd60e51b8152602060048201526011602482015270105b1c9958591e481cdd589b5a5d1d1959607a1b6044820152606490fd5b908060209392818452848401375f828201840152601f01601f1916010190565b612c2f9492606092825260208201528160408201520191612bf3565b90565b15612c3957565b60405162461bcd60e51b815260206004820152600a602482015269546f6b656e207a65726f60b01b6044820152606490fd5b15612c7257565b60405162461bcd60e51b815260206004820152600a6024820152694275796572207a65726f60b01b6044820152606490fd5b15612cab57565b60405162461bcd60e51b815260206004820152601160248201527042757965722073656c6c65722073616d6560781b6044820152606490fd5b15612ceb57565b60405162461bcd60e51b815260206004820152600b60248201526a416d6f756e74207a65726f60a81b6044820152606490fd5b15612d2557565b60405162461bcd60e51b81526020600482015260116024820152704d6174757269747920746f6f206c6f6e6760781b6044820152606490fd5b15612d6557565b60405162461bcd60e51b815260206004820152601060248201526f105b5bdd5b9d081d1bdbc81cdb585b1b60821b6044820152606490fd5b5f1981146104755760010190565b15612db257565b60405162461bcd60e51b815260206004820152600f60248201526e24b73b30b634b21030b93134ba32b960891b6044820152606490fd5b6001600160a01b039182168152602081019290925291821660408201529181166060830152918216608082015291811660a083015290911660c082015260e081019190915261010081019190915260026101208201526101400190565b15612e4d57565b60405162461bcd60e51b815260206004820152601360248201527257616c6c657420636f6465206d697373696e6760681b6044820152606490fd5b15612e8f57565b60405162461bcd60e51b815260206004820152601660248201527515d85b1b195d0818dc99585d1a5bdb8819985a5b195960521b6044820152606490fd5b90816020910312610180575180151581036101805790565b15612eec57565b60405162461bcd60e51b815260206004820152600f60248201526e213abcb2b9103737ba1037bbb732b960891b6044820152606490fd5b15612f2a57565b60405162461bcd60e51b815260206004820152601060248201526f29b2b63632b9103737ba1037bbb732b960811b6044820152606490fd5b15612f6957565b60405162461bcd60e51b815260206004820152601160248201527020b93134ba32b9103737ba1037bbb732b960791b6044820152606490fd5b969492612c2f989692612fe2959260018060a01b03168952602089015260018060a01b03166040880152606087015260c0608087015260c0860191612bf3565b9260a0818503910152612bf3565b15612ff757565b60405162461bcd60e51b81526020600482015260156024820152744e6f74206177616974696e672064656c697665727960581b6044820152606490fd5b60025f54146130435760025f55565b60405162461bcd60e51b815260206004820152601f60248201527f5265656e7472616e637947756172643a207265656e7472616e742063616c6c006044820152606490fd5b467f0000000000000000000000000000000000000000000000000000000000000000036130d3577f000000000000000000000000000000000000000000000000000000000000000090565b60406016602082516130e58482612a5c565b828152017550616c696e64726f6d6543727970746f457363726f7760501b8152206001602083516131168582612a5c565b82815201603160f81b81522082519160208301937f8b73c3c69bb8fe3d512ecc4cf759cc79239f7b179b0ffacaa9a75d522b39400f855283015260608201524660808201523060a082015260a0815261317060c082612a5c565b51902090565b9160410361324b57602081013560408201355f1a6fa2a8918ca85bafe22016d0b997e4df60600160ff1b03821161323c57601b8114159081613230575b506132215760405191602083019346855260408401523560608301526080820152608081526131e360a082612a5c565b519020805f52600460205260ff60405f205416613212575f52600460205260405f20600160ff19825416179055565b63900bb2c960e01b5f5260045ffd5b6307839aef60e21b5f5260045ffd5b601c915014155f6131b3565b6354b34b0360e01b5f5260045ffd5b6354f3472360e01b5f5260045ffd5b91908160081c90835f52600760205260405f2060018060a01b0382165f5260205260405f20825f52602052600160ff60405f205494161b938484166132c4575f52600760205260405f209060018060a01b03165f5260205260405f20905f526020521760405f2055565b633ab3447f60e11b5f5260045ffd5b805f526002602052600960405f20825f52600660205260405f205461332c575b01613304600460ff83541692612b4f565b61331160405180926128e7565b604081600460205f516020615e0b5f395f51905f52940152a2565b825f5260066020525f60408120556132f3565b805f526002602052600960405f20825f52600660205260405f2054613398575b01613370600560ff83541692612b4f565b61337d60405180926128e7565b604081600560205f516020615e0b5f395f51905f52940152a2565b825f5260066020525f604081205561335f565b805f526002602052600960405f20825f52600660205260405f2054613404575b016133dc600360ff83541692612b4f565b6133e960405180926128e7565b604081600360205f516020615e0b5f395f51905f52940152a2565b825f5260066020525f60408120556133cb565b60ff6001199116019060ff821161047557565b60ff16604d811161047557600a0a90565b1561344257565b60405162461bcd60e51b815260206004820152601860248201527f416d6f756e7420746f6f20736d616c6c20666f722066656500000000000000006044820152606490fd5b9190820391821161047557565b9091815f52600260205260405f209160ff600984015460181c16600281115f1461352757611b156134c491613417565b505f516020615deb5f395f51905f52608060055f950154956040519060018060a01b0316815286602082015260018060a01b037f00000000000000000000000000000000000000000000000000000000000000001660408201525f6060820152a2565b506134c45f61342a565b9091815f52600260205260405f209160ff600984015460181c16600281115f146135ff57613563611b15600592613417565b930154926064840284810460641485151715610475575f516020615deb5f395f51905f52916080916127109004908082106135f75750955b6135ac878097611b9281831061343b565b604080516001600160a01b039384168152602081018390527f0000000000000000000000000000000000000000000000000000000000000000909316908301526060820197909752a2565b90509561359b565b5060056135635f61342a565b5060641061361557565b60405162461bcd60e51b815260206004820152601860248201527f496e76616c696420495046532068617368206c656e67746800000000000000006044820152606490fd5b5080151590816136a9575b501561366d57565b60405162461bcd60e51b8152602060048201526014602482015273092dcecc2d8d2c840e8d2e8d8ca40d8cadccee8d60631b6044820152606490fd5b6064915011155f613665565b60405163313ce56760e01b815290602090829060049082906001600160a01b0316617530fa5f918161378d575b5061372c5760405162461bcd60e51b815260206004820152601f60248201527f546f6b656e206d75737420696d706c656d656e7420646563696d616c732829006044820152606490fd5b60ff811660068110159081613781575b50156137455790565b60405162461bcd60e51b8152602060048201526014602482015273556e737570706f7274656420646563696d616c7360601b6044820152606490fd5b6012915011155f61373c565b9091506020813d6020116137c3575b816137a960209383612a5c565b81010312610180575160ff8116810361018057905f6136e2565b3d915061379c565b600260ff821611156137f957611b156137e391613417565b6064810290808204606414901517156104755790565b506137e35f61342a565b90600260ff8216111561385957611b1561381c91613417565b6064820290828204606414831517156104755761384f9161271090049080821061385257505b8092611b9281831061343b565b91565b9050613842565b5061381c5f61342a565b6040516323b872dd60e01b602082019081526001600160a01b039384166024830152929093166044840152606480840194909452928252613922925f9081906138ad608486612a5c565b60018060a01b031692604051946138c5604087612a5c565b602086527f5361666545524332303a206c6f772d6c6576656c2063616c6c206661696c65646020870152519082855af13d156139aa573d9161390683612a7d565b926139146040519485612a5c565b83523d5f602085013e613b58565b8051908115918215613990575b50501561393857565b60405162461bcd60e51b815260206004820152602a60248201527f5361666545524332303a204552433230206f7065726174696f6e20646964206e6044820152691bdd081cdd58d8d9595960b21b6064820152608490fd5b6139a39250602080918301019101612ecd565b5f8061392f565b606091613b58565b9060418151145f146139da5761292391602082015190606060408401519301515f1a90613ae7565b50505f90600290565b60058110156102fd57806139f45750565b60018103613a415760405162461bcd60e51b815260206004820152601860248201527f45434453413a20696e76616c6964207369676e617475726500000000000000006044820152606490fd5b60028103613a8e5760405162461bcd60e51b815260206004820152601f60248201527f45434453413a20696e76616c6964207369676e6174757265206c656e677468006044820152606490fd5b600314613a9757565b60405162461bcd60e51b815260206004820152602260248201527f45434453413a20696e76616c6964207369676e6174757265202773272076616c604482015261756560f01b6064820152608490fd5b6fa2a8918ca85bafe22016d0b997e4df60600160ff1b038411613b4d576020935f9360ff60809460405194855216868401526040830152606082015282805260015afa156108d7575f516001600160a01b03811615613b4557905f90565b505f90600190565b505050505f90600390565b91929015613bba5750815115613b6c575090565b3b15613b755790565b60405162461bcd60e51b815260206004820152601d60248201527f416464726573733a2063616c6c20746f206e6f6e2d636f6e74726163740000006044820152606490fd5b825190915015613bcd5750805190602001fd5b604460209160405192839162461bcd60e51b83528160048401528051918291826024860152018484015e5f828201840152601f01601f19168101030190fdfe6101e0806040523461050157610140816121de80380380916100218285610505565b833981010312610501576100348161053c565b9060208101516100466040830161053c565b6100526060840161053c565b61005e6080850161053c565b61006a60a0860161053c565b9161007760c0870161053c565b9360e0870151956101206101008901519801519860ff8a16808b036105015760015f556001600160a01b038216156104ce576001600160a01b0385161515806104bc575b806104aa575b15610476576002036104315788880180891161041d5789898210159182610412575b5050156103db5760805260a0526101805260c05260e052610100526101205261014052610160526101a05260405161011c604082610505565b601681527f50616c696e64726f6d65457363726f7757616c6c657400000000000000000000602090910152604080517fd5841ac2316671d82a0b6316f3b37c25b9263de2e5c9e54cefc98911e9c1f8df916101779082610505565b600181526020810190603160f81b82525190206040519060208201927f8b73c3c69bb8fe3d512ecc4cf759cc79239f7b179b0ffacaa9a75d522b39400f8452604083015260608201524660808201523060a082015260a081526101db60c082610505565b5190206101c052604051611c8d90816105518239608051818181610157015261043c015260a05181818161040b01526116a1015260c0518181816101d701528181610859015281816112a0015281816114cd01528181611621015261172f015260e05181818161020d015281816103c0015281816104ae0152818161087e015281816117a001526117e601526101005181818160cb01528181610246015281816108a60152818161149b015261176d015261012051818181610360015281816106c30152818161079901528181610bc201528181610d2401528181610fbb01526118270152610140518181816102e90152818161038f015281816104fb0152818161051d01528181610543015281816105850152818161062901528181610cb201528181610cfe01528181610e820152818161101301526112160152610160518181816104da015281816105640152818161060801528181610b2a01528181610c9101528181610d4e01528181610e0e01528181610f9a015281816111d4015281816111f5015281816115390152611667015261018051818181610113015281816105cd0152818161067b015281816106f80152818161076901528181610b7a01528181610bf701528181610c4401528181610d7401528181610fdc015261103501526101a051818181610aec01526116dd01526101c051816107ea0152f35b60405162461bcd60e51b815260206004820152600f60248201526e416d6f756e74206f766572666c6f7760881b6044820152606490fd5b10159050895f6100e3565b634e487b7160e01b5f52601160045260245ffd5b60405162461bcd60e51b815260206004820152601360248201527f5468726573686f6c64206d7573742062652032000000000000000000000000006044820152606490fd5b60405162461bcd60e51b815260206004820152600c60248201526b5a65726f206164647265737360a01b6044820152606490fd5b506001600160a01b03871615156100c1565b506001600160a01b03861615156100bb565b60405162461bcd60e51b815260206004820152600b60248201526a457363726f77207a65726f60a81b6044820152606490fd5b5f80fd5b601f909101601f19168101906001600160401b0382119082101761052857604052565b634e487b7160e01b5f52604160045260245ffd5b51906001600160a01b03821682036105015756fe6080806040526004361015610012575f80fd5b5f3560e01c908163017e7e58146118155750806308551a53146117d15780632f54bf6e1461170157806342cde4e8146116c45780635753d9891461168a57806369e15404146116505780637150d8ae1461160c5780637652a7c11461030c5780637c16073c146102d2578063a0e67e2b146101a3578063affed0e014610186578063e42a96e714610142578063fc0c546a146100fe5763fe25e00a146100b6575f80fd5b346100fa575f3660031901126100fa576040517f00000000000000000000000000000000000000000000000000000000000000006001600160a01b03168152602090f35b5f80fd5b346100fa575f3660031901126100fa576040517f00000000000000000000000000000000000000000000000000000000000000006001600160a01b03168152602090f35b346100fa575f3660031901126100fa576040517f00000000000000000000000000000000000000000000000000000000000000006001600160a01b03168152602090f35b346100fa575f3660031901126100fa576020600154604051908152f35b346100fa575f3660031901126100fa576040516101c160808261186c565b600381526020810160603682378151156102be577f00000000000000000000000000000000000000000000000000000000000000006001600160a01b031681528151600110156102be577f00000000000000000000000000000000000000000000000000000000000000006001600160a01b031660408301528151600210156102be577f00000000000000000000000000000000000000000000000000000000000000006001600160a01b03166060830152604080516020808252935193810184905292839291830191905f5b81811061029c575050500390f35b82516001600160a01b031684528594506020938401939092019160010161028e565b634e487b7160e01b5f52603260045260245ffd5b346100fa575f3660031901126100fa5760206040517f00000000000000000000000000000000000000000000000000000000000000008152f35b346100fa5760403660031901126100fa57610325611856565b67ffffffffffffffff602435116100fa5736606460243501116100fa5760025f54146115c75760025f556001600160a01b03811615611591577f00000000000000000000000000000000000000000000000000000000000000006001600160a01b03161561155f577f00000000000000000000000000000000000000000000000000000000000000001580158091611536575b156114fb57337f00000000000000000000000000000000000000000000000000000000000000006001600160a01b03161480156114c9575b8015611497575b1561144657604051633e8cf2cb60e11b81527f00000000000000000000000000000000000000000000000000000000000000006004820181905291906101a0816024817f00000000000000000000000000000000000000000000000000000000000000006001600160a01b03165afa908115610f24575f9161139b575b5060068110158061132657600382149081801561138f575b81811561137f575b501561133a57611326571561128157506001600160a01b037f000000000000000000000000000000000000000000000000000000000000000081169084160361123c575b7f00000000000000000000000000000000000000000000000000000000000000007f0000000000000000000000000000000000000000000000000000000000000000017f000000000000000000000000000000000000000000000000000000000000000011610a27577f00000000000000000000000000000000000000000000000000000000000000007f00000000000000000000000000000000000000000000000000000000000000007f00000000000000000000000000000000000000000000000000000000000000000111806111d1575b156111a1576040516370a0823160e01b8152306004820152926020846024817f00000000000000000000000000000000000000000000000000000000000000006001600160a01b03165afa938415610f24575f9461116d575b507f00000000000000000000000000000000000000000000000000000000000000007f0000000000000000000000000000000000000000000000000000000000000000018410611128576040516370a0823160e01b81526001600160a01b038281166004830152909490602090869060249082907f0000000000000000000000000000000000000000000000000000000000000000165afa948515610f24575f956110f4575b506040516370a0823160e01b81526001600160a01b037f000000000000000000000000000000000000000000000000000000000000000081166004830152909290602090849060249082907f0000000000000000000000000000000000000000000000000000000000000000165afa928315610f24575f936110c0575b50600154604080517f4574eba8a3a3262b6030499f2d73c16df506db9a10207de6df537d3e9609912860208201908152918101979097526001600160a01b037f00000000000000000000000000000000000000000000000000000000000000008116606089015283811660808901527f00000000000000000000000000000000000000000000000000000000000000001660a088015260c0808801839052875290956107d560e08261186c565b519020604051602081019161190160f01b83527f0000000000000000000000000000000000000000000000000000000000000000602283015260428201526042815261082260628261186c565b519020915f946040519788606081011067ffffffffffffffff60608b0111176110ac57606089810160409081526001600160a01b037f000000000000000000000000000000000000000000000000000000000000000081168c527f0000000000000000000000000000000000000000000000000000000000000000811660208d01527f000000000000000000000000000000000000000000000000000000000000000016818c01525192989296919591949293919291906108e3908861186c565b60603688375f985b600360ff8b161015610ae3576004611fe08b60051b166024350101356022196024353603018112156100fa576024350196600488013567ffffffffffffffff81116100fa57602489019080360382136100fa57604103610a505760648901355f1a98604401356fa2a8918ca85bafe22016d0b997e4df60600160ff1b038111610ab257601b8a148015610aa8575b15610a77576109969961098e92359088611a2e565b989098611a9f565b6001600160a01b03881615610a64575f5b600360ff82161015610a50576001600160a01b036109c860ff83168f6118bc565b51166001600160a01b038a161480610a3b575b6109ea5760010160ff166109a7565b60ff92959850610a06836001929d9c93969995989d168b6118bc565b521660ff8114610a275760018060ff9201995b0116989390949195926108eb565b634e487b7160e01b5f52601160045260245ffd5b50610a4960ff82168b6118bc565b51156109db565b50929591949960ff91949750600190610a19565b929591949960ff91949750600190610a19565b60405162461bcd60e51b815260206004820152600960248201526824b73b30b634b2103b60b91b6044820152606490fd5b50601c8a14610979565b60405162461bcd60e51b8152602060048201526009602482015268496e76616c6964207360b81b6044820152606490fd5b8686868b60ff807f000000000000000000000000000000000000000000000000000000000000000016911610611067575f198114610a2757600184910160015561100e575b7f0000000000000000000000000000000000000000000000000000000000000000151580610f95575b6040516370a0823160e01b81526001600160a01b038781166004830152602090829060249082907f0000000000000000000000000000000000000000000000000000000000000000165afa908115610f24575f91610f63575b506040516370a0823160e01b81526001600160a01b037f000000000000000000000000000000000000000000000000000000000000000081166004830152909490602090869060249082907f0000000000000000000000000000000000000000000000000000000000000000165afa948515610f24575f95610f2f575b506040516370a0823160e01b8152306004820152956020876024817f00000000000000000000000000000000000000000000000000000000000000006001600160a01b03165afa968715610f24575f97610ef0575b50610e7c575b5050610e08575b5050610cd8907f00000000000000000000000000000000000000000000000000000000000000007f000000000000000000000000000000000000000000000000000000000000000001926118af565b03610dc3576001545f198101908111610a2757604080516001600160a01b0393841681527f000000000000000000000000000000000000000000000000000000000000000060208201527f00000000000000000000000000000000000000000000000000000000000000008416918101919091527f000000000000000000000000000000000000000000000000000000000000000060608201527f0000000000000000000000000000000000000000000000000000000000000000909216917f457938e2512bd940a38c710d197d7fdd21dac266a89e0e19e9e7c24e3822ee5d90608090a360015f55005b60405162461bcd60e51b815260206004820152601760248201527f57616c6c65742062616c616e6365206d69736d617463680000000000000000006044820152606490fd5b610e33907f0000000000000000000000000000000000000000000000000000000000000000926118af565b03610e3f578380610c89565b60405162461bcd60e51b815260206004820152601560248201527408ccaca40e8e4c2dce6cccae440dad2e6dac2e8c6d605b1b6044820152606490fd5b610ea7907f0000000000000000000000000000000000000000000000000000000000000000926118af565b03610eb3578680610c82565b60405162461bcd60e51b815260206004820152601560248201527409ccae840e8e4c2dce6cccae440dad2e6dac2e8c6d605b1b6044820152606490fd5b9096506020813d602011610f1c575b81610f0c6020938361186c565b810103126100fa57519589610c7c565b3d9150610eff565b6040513d5f823e3d90fd5b9094506020813d602011610f5b575b81610f4b6020938361186c565b810103126100fa57519388610c27565b3d9150610f3e565b90506020813d602011610f8d575b81610f7e6020938361186c565b810103126100fa575187610baa565b3d9150610f71565b6110097f00000000000000000000000000000000000000000000000000000000000000007f00000000000000000000000000000000000000000000000000000000000000007f00000000000000000000000000000000000000000000000000000000000000006001600160a01b03166118cd565b610b51565b6110627f0000000000000000000000000000000000000000000000000000000000000000867f00000000000000000000000000000000000000000000000000000000000000006001600160a01b03166118cd565b610b28565b60405162461bcd60e51b815260206004820152601760248201527f496e73756666696369656e74207369676e6174757265730000000000000000006044820152606490fd5b634e487b7160e01b5f52604160045260245ffd5b9092506020813d6020116110ec575b816110dc6020938361186c565b810103126100fa57519186610728565b3d91506110cf565b9094506020813d602011611120575b816111106020938361186c565b810103126100fa575193856106ab565b3d9150611103565b60405162461bcd60e51b815260206004820152601b60248201527f496e73756666696369656e742077616c6c65742062616c616e636500000000006044820152606490fd5b9093506020813d602011611199575b816111896020938361186c565b810103126100fa57519284610605565b3d915061117c565b60405162461bcd60e51b81526020600482015260086024820152674f766572666c6f7760c01b6044820152606490fd5b507f00000000000000000000000000000000000000000000000000000000000000007f00000000000000000000000000000000000000000000000000000000000000007f000000000000000000000000000000000000000000000000000000000000000001116105ac565b60405162461bcd60e51b815260206004820152601b60248201527f4d757374207061792073656c6c6572206f6e20434f4d504c45544500000000006044820152606490fd5b6004811490811561131b575b50156104d8576001600160a01b038381167f0000000000000000000000000000000000000000000000000000000000000000909116146104d85760405162461bcd60e51b815260206004820152602660248201527f4d75737420726566756e64206275796572206f6e20524546554e4445442f43416044820152651390d153115160d21b6064820152608490fd5b60059150148461128d565b634e487b7160e01b5f52602160045260245ffd5b60405162461bcd60e51b815260206004820152601760248201527f457363726f77206e6f74207061796f75742d72656164790000000000000000006044820152606490fd5b9050611326576005831481610494565b50505f6004831461048c565b90506101a0813d821161143e575b816113b76101a0938361186c565b810103126100fa576113c88161188e565b506113d56020820161188e565b506113e26040820161188e565b506113ef6060820161188e565b506113fc6080820161188e565b506101208101519060068210156100fa578061141e61014061018093016118a2565b5061142c61016082016118a2565b50015160ff8116036100fa5784610474565b3d91506113a9565b60405162461bcd60e51b815260206004820152602360248201527f65786563757465455243323053706c69743a204f6e6c79207061727469636970604482015262185b9d60ea1b6064820152608490fd5b50337f00000000000000000000000000000000000000000000000000000000000000006001600160a01b0316146103f7565b50337f00000000000000000000000000000000000000000000000000000000000000006001600160a01b0316146103f0565b60405162461bcd60e51b81526020600482015260136024820152722737ba3434b733903a37903a3930b739b332b960691b6044820152606490fd5b507f000000000000000000000000000000000000000000000000000000000000000015156103b8565b60405162461bcd60e51b815260206004820152600a602482015269466565546f207a65726f60b01b6044820152606490fd5b60405162461bcd60e51b815260206004820152600e60248201526d526563697069656e74207a65726f60901b6044820152606490fd5b60405162461bcd60e51b815260206004820152601f60248201527f5265656e7472616e637947756172643a207265656e7472616e742063616c6c006044820152606490fd5b346100fa575f3660031901126100fa576040517f00000000000000000000000000000000000000000000000000000000000000006001600160a01b03168152602090f35b346100fa575f3660031901126100fa5760206040517f00000000000000000000000000000000000000000000000000000000000000008152f35b346100fa575f3660031901126100fa5760206040517f00000000000000000000000000000000000000000000000000000000000000008152f35b346100fa575f3660031901126100fa57602060405160ff7f0000000000000000000000000000000000000000000000000000000000000000168152f35b346100fa5760203660031901126100fa5760206001600160a01b03611724611856565b166001600160a01b037f000000000000000000000000000000000000000000000000000000000000000016811490811561179e575b811561176b575b506040519015158152f35b7f00000000000000000000000000000000000000000000000000000000000000006001600160a01b031614905082611760565b7f00000000000000000000000000000000000000000000000000000000000000006001600160a01b031681149150611759565b346100fa575f3660031901126100fa576040517f00000000000000000000000000000000000000000000000000000000000000006001600160a01b03168152602090f35b346100fa575f3660031901126100fa577f00000000000000000000000000000000000000000000000000000000000000006001600160a01b03168152602090f35b600435906001600160a01b03821682036100fa57565b90601f8019910116810190811067ffffffffffffffff8211176110ac57604052565b51906001600160a01b03821682036100fa57565b519081151582036100fa57565b91908203918211610a2757565b9060038110156102be5760051b0190565b5f809193929360405193602085019563a9059cbb60e01b875260018060a01b0316602486015260448501526044845261190760648561186c565b60018060a01b0316936040519361191f60408661186c565b602085527f5361666545524332303a206c6f772d6c6576656c2063616c6c206661696c65646020860152519082865af13d15611a21573d9067ffffffffffffffff82116110ac57604051611991949092611983601f8201601f19166020018561186c565b83523d5f602085013e611ba3565b80519081159182156119ff575b5050156119a757565b60405162461bcd60e51b815260206004820152602a60248201527f5361666545524332303a204552433230206f7065726174696f6e20646964206e6044820152691bdd081cdd58d8d9595960b21b6064820152608490fd5b81925090602091810103126100fa576020611a1a91016118a2565b5f8061199e565b9161199192606091611ba3565b6fa2a8918ca85bafe22016d0b997e4df60600160ff1b038411611a94576020935f9360ff60809460405194855216868401526040830152606082015282805260015afa15610f24575f516001600160a01b03811615611a8c57905f90565b505f90600190565b505050505f90600390565b60058110156113265780611ab05750565b60018103611afd5760405162461bcd60e51b815260206004820152601860248201527f45434453413a20696e76616c6964207369676e617475726500000000000000006044820152606490fd5b60028103611b4a5760405162461bcd60e51b815260206004820152601f60248201527f45434453413a20696e76616c6964207369676e6174757265206c656e677468006044820152606490fd5b600314611b5357565b60405162461bcd60e51b815260206004820152602260248201527f45434453413a20696e76616c6964207369676e6174757265202773272076616c604482015261756560f01b6064820152608490fd5b91929015611c055750815115611bb7575090565b3b15611bc05790565b60405162461bcd60e51b815260206004820152601d60248201527f416464726573733a2063616c6c20746f206e6f6e2d636f6e74726163740000006044820152606490fd5b825190915015611c185750805190602001fd5b604460209160405192839162461bcd60e51b83528160048401528051918291826024860152018484015e5f828201840152601f01601f19168101030190fdfea26469706673582212207d2ab45ef5860f0e6b01b361294a1300aaac70d69ffd4fe16b1254107447fe5064736f6c634300081d00334efd0eb8137437cc21ded7c1b056cd5a6e457ad8830e42d74bb9ba46144dbe839fd18dd57bf85e04b8e9f0d0525149241b7cc780d9c23051d307c3afc5e04ca8a26469706673582212205f6ad0567e19480c19365392fa97613e715c2d18b53d9f102b0201af2d5c547664736f6c634300081d0033",
  "linkReferences": {},
  "deployedLinkReferences": {},
  "immutableReferences": {
    "11277": [
      {
        "length": 32,
        "start": 12465
      }
    ],
    "11279": [
      {
        "length": 32,
        "start": 12427
      }
    ],
    "11315": [
      {
        "length": 32,
        "start": 1649
      },
      {
        "length": 32,
        "start": 3227
      },
      {
        "length": 32,
        "start": 3757
      },
      {
        "length": 32,
        "start": 7091
      },
      {
        "length": 32,
        "start": 13561
      },
      {
        "length": 32,
        "start": 13766
      }
    ]
  },
  "inputSourceName": "project/contracts/PalindromeCryptoEscrow.sol",
  "buildInfoId": "solc-0_8_29-16cf9496a42b469c42b4ae6d9303ec898eca57fd"
}