{
  "_format": "hh3-artifact-1",
  "contractName": "PalindromePay",
  "sourceName": "contracts/PalindromePay.sol",
  "abi": [
    {
      "inputs": [
        {
          "internalType": "address",
          "name": "_feeReceiver",
          "type": "address"
        },
        {
          "internalType": "address",
          "name": "_walletFactory",
          "type": "address"
        }
      ],
      "stateMutability": "nonpayable",
      "type": "constructor"
    },
    {
      "inputs": [],
      "name": "InvalidNonce",
      "type": "error"
    },
    {
      "inputs": [],
      "name": "InvalidWalletSignature",
      "type": "error"
    },
    {
      "inputs": [],
      "name": "OnlyArbiter",
      "type": "error"
    },
    {
      "inputs": [],
      "name": "OnlyBuyer",
      "type": "error"
    },
    {
      "inputs": [],
      "name": "OnlyBuyerOrSeller",
      "type": "error"
    },
    {
      "inputs": [],
      "name": "OnlySeller",
      "type": "error"
    },
    {
      "inputs": [],
      "name": "SignatureAlreadyUsed",
      "type": "error"
    },
    {
      "inputs": [],
      "name": "SignatureLengthInvalid",
      "type": "error"
    },
    {
      "inputs": [],
      "name": "SignatureSInvalid",
      "type": "error"
    },
    {
      "inputs": [],
      "name": "SignatureVInvalid",
      "type": "error"
    },
    {
      "anonymous": false,
      "inputs": [
        {
          "indexed": true,
          "internalType": "uint256",
          "name": "escrowId",
          "type": "uint256"
        },
        {
          "indexed": true,
          "internalType": "address",
          "name": "arbiter",
          "type": "address"
        }
      ],
      "name": "ArbiterSet",
      "type": "event"
    },
    {
      "anonymous": false,
      "inputs": [
        {
          "indexed": true,
          "internalType": "uint256",
          "name": "escrowId",
          "type": "uint256"
        },
        {
          "indexed": false,
          "internalType": "bytes",
          "name": "arbiterSig",
          "type": "bytes"
        },
        {
          "indexed": false,
          "internalType": "enum PalindromePay.State",
          "name": "outcome",
          "type": "uint8"
        }
      ],
      "name": "ArbiterWalletSigAttached",
      "type": "event"
    },
    {
      "anonymous": false,
      "inputs": [
        {
          "indexed": true,
          "internalType": "uint256",
          "name": "escrowId",
          "type": "uint256"
        },
        {
          "indexed": true,
          "internalType": "address",
          "name": "seller",
          "type": "address"
        },
        {
          "indexed": false,
          "internalType": "uint256",
          "name": "amount",
          "type": "uint256"
        },
        {
          "indexed": false,
          "internalType": "uint256",
          "name": "fee",
          "type": "uint256"
        }
      ],
      "name": "AutoReleased",
      "type": "event"
    },
    {
      "anonymous": false,
      "inputs": [
        {
          "indexed": true,
          "internalType": "uint256",
          "name": "escrowId",
          "type": "uint256"
        },
        {
          "indexed": false,
          "internalType": "bytes",
          "name": "buyerSig",
          "type": "bytes"
        },
        {
          "indexed": false,
          "internalType": "enum PalindromePay.State",
          "name": "outcome",
          "type": "uint8"
        }
      ],
      "name": "BuyerWalletSigAttached",
      "type": "event"
    },
    {
      "anonymous": false,
      "inputs": [
        {
          "indexed": true,
          "internalType": "uint256",
          "name": "escrowId",
          "type": "uint256"
        },
        {
          "indexed": true,
          "internalType": "address",
          "name": "initiator",
          "type": "address"
        },
        {
          "indexed": false,
          "internalType": "uint256",
          "name": "amount",
          "type": "uint256"
        }
      ],
      "name": "Canceled",
      "type": "event"
    },
    {
      "anonymous": false,
      "inputs": [
        {
          "indexed": true,
          "internalType": "uint256",
          "name": "escrowId",
          "type": "uint256"
        },
        {
          "indexed": true,
          "internalType": "address",
          "name": "buyer",
          "type": "address"
        },
        {
          "indexed": true,
          "internalType": "address",
          "name": "seller",
          "type": "address"
        },
        {
          "indexed": false,
          "internalType": "uint256",
          "name": "amount",
          "type": "uint256"
        },
        {
          "indexed": false,
          "internalType": "uint256",
          "name": "fee",
          "type": "uint256"
        }
      ],
      "name": "DeliveryConfirmed",
      "type": "event"
    },
    {
      "anonymous": false,
      "inputs": [
        {
          "indexed": true,
          "internalType": "uint256",
          "name": "escrowId",
          "type": "uint256"
        },
        {
          "indexed": false,
          "internalType": "uint256",
          "name": "longDeadline",
          "type": "uint256"
        }
      ],
      "name": "DisputeDeadlinesSet",
      "type": "event"
    },
    {
      "anonymous": false,
      "inputs": [
        {
          "indexed": true,
          "internalType": "uint256",
          "name": "escrowId",
          "type": "uint256"
        },
        {
          "indexed": true,
          "internalType": "address",
          "name": "sender",
          "type": "address"
        },
        {
          "indexed": false,
          "internalType": "enum PalindromePay.Role",
          "name": "role",
          "type": "uint8"
        },
        {
          "indexed": false,
          "internalType": "string",
          "name": "ipfsHash",
          "type": "string"
        }
      ],
      "name": "DisputeMessagePosted",
      "type": "event"
    },
    {
      "anonymous": false,
      "inputs": [
        {
          "indexed": true,
          "internalType": "uint256",
          "name": "escrowId",
          "type": "uint256"
        },
        {
          "indexed": false,
          "internalType": "enum PalindromePay.State",
          "name": "resolution",
          "type": "uint8"
        },
        {
          "indexed": false,
          "internalType": "address",
          "name": "arbiter",
          "type": "address"
        },
        {
          "indexed": false,
          "internalType": "uint256",
          "name": "amount",
          "type": "uint256"
        },
        {
          "indexed": false,
          "internalType": "uint256",
          "name": "fee",
          "type": "uint256"
        }
      ],
      "name": "DisputeResolved",
      "type": "event"
    },
    {
      "anonymous": false,
      "inputs": [
        {
          "indexed": true,
          "internalType": "uint256",
          "name": "escrowId",
          "type": "uint256"
        },
        {
          "indexed": true,
          "internalType": "address",
          "name": "initiator",
          "type": "address"
        }
      ],
      "name": "DisputeStarted",
      "type": "event"
    },
    {
      "anonymous": false,
      "inputs": [
        {
          "indexed": true,
          "internalType": "uint256",
          "name": "escrowId",
          "type": "uint256"
        },
        {
          "indexed": true,
          "internalType": "address",
          "name": "buyer",
          "type": "address"
        },
        {
          "indexed": true,
          "internalType": "address",
          "name": "seller",
          "type": "address"
        },
        {
          "indexed": false,
          "internalType": "address",
          "name": "token",
          "type": "address"
        },
        {
          "indexed": false,
          "internalType": "uint256",
          "name": "amount",
          "type": "uint256"
        },
        {
          "indexed": false,
          "internalType": "address",
          "name": "arbiter",
          "type": "address"
        },
        {
          "indexed": false,
          "internalType": "uint256",
          "name": "maturityTime",
          "type": "uint256"
        },
        {
          "indexed": false,
          "internalType": "string",
          "name": "title",
          "type": "string"
        },
        {
          "indexed": false,
          "internalType": "string",
          "name": "ipfsHash",
          "type": "string"
        }
      ],
      "name": "EscrowCreated",
      "type": "event"
    },
    {
      "anonymous": false,
      "inputs": [
        {
          "indexed": true,
          "internalType": "uint256",
          "name": "escrowId",
          "type": "uint256"
        },
        {
          "indexed": true,
          "internalType": "address",
          "name": "buyer",
          "type": "address"
        },
        {
          "indexed": false,
          "internalType": "uint256",
          "name": "amount",
          "type": "uint256"
        }
      ],
      "name": "EscrowCreatedAndDeposited",
      "type": "event"
    },
    {
      "anonymous": false,
      "inputs": [
        {
          "indexed": true,
          "internalType": "uint256",
          "name": "escrowId",
          "type": "uint256"
        },
        {
          "indexed": true,
          "internalType": "address",
          "name": "signer",
          "type": "address"
        },
        {
          "indexed": false,
          "internalType": "uint256",
          "name": "nonce",
          "type": "uint256"
        }
      ],
      "name": "NonceUsed",
      "type": "event"
    },
    {
      "anonymous": false,
      "inputs": [
        {
          "indexed": true,
          "internalType": "uint256",
          "name": "escrowId",
          "type": "uint256"
        },
        {
          "indexed": true,
          "internalType": "address",
          "name": "buyer",
          "type": "address"
        },
        {
          "indexed": false,
          "internalType": "uint256",
          "name": "amount",
          "type": "uint256"
        }
      ],
      "name": "PaymentDeposited",
      "type": "event"
    },
    {
      "anonymous": false,
      "inputs": [
        {
          "indexed": true,
          "internalType": "uint256",
          "name": "escrowId",
          "type": "uint256"
        },
        {
          "indexed": false,
          "internalType": "address",
          "name": "recipient",
          "type": "address"
        },
        {
          "indexed": false,
          "internalType": "uint256",
          "name": "netAmount",
          "type": "uint256"
        },
        {
          "indexed": false,
          "internalType": "address",
          "name": "feeRecipient",
          "type": "address"
        },
        {
          "indexed": false,
          "internalType": "uint256",
          "name": "feeAmount",
          "type": "uint256"
        }
      ],
      "name": "PayoutProposed",
      "type": "event"
    },
    {
      "anonymous": false,
      "inputs": [
        {
          "indexed": true,
          "internalType": "uint256",
          "name": "escrowId",
          "type": "uint256"
        },
        {
          "indexed": true,
          "internalType": "address",
          "name": "requester",
          "type": "address"
        }
      ],
      "name": "RequestCancel",
      "type": "event"
    },
    {
      "anonymous": false,
      "inputs": [
        {
          "indexed": true,
          "internalType": "uint256",
          "name": "escrowId",
          "type": "uint256"
        },
        {
          "indexed": true,
          "internalType": "address",
          "name": "seller",
          "type": "address"
        }
      ],
      "name": "SellerAccepted",
      "type": "event"
    },
    {
      "anonymous": false,
      "inputs": [
        {
          "indexed": true,
          "internalType": "uint256",
          "name": "escrowId",
          "type": "uint256"
        },
        {
          "indexed": false,
          "internalType": "bytes",
          "name": "sellerSig",
          "type": "bytes"
        },
        {
          "indexed": false,
          "internalType": "enum PalindromePay.State",
          "name": "outcome",
          "type": "uint8"
        }
      ],
      "name": "SellerWalletSigAttached",
      "type": "event"
    },
    {
      "anonymous": false,
      "inputs": [
        {
          "indexed": true,
          "internalType": "uint256",
          "name": "escrowId",
          "type": "uint256"
        },
        {
          "indexed": false,
          "internalType": "bytes",
          "name": "sellerSig",
          "type": "bytes"
        }
      ],
      "name": "SellerWalletSigUpdated",
      "type": "event"
    },
    {
      "anonymous": false,
      "inputs": [
        {
          "indexed": true,
          "internalType": "bytes32",
          "name": "sigHash",
          "type": "bytes32"
        },
        {
          "indexed": true,
          "internalType": "uint256",
          "name": "escrowId",
          "type": "uint256"
        }
      ],
      "name": "SignatureUsed",
      "type": "event"
    },
    {
      "anonymous": false,
      "inputs": [
        {
          "indexed": true,
          "internalType": "uint256",
          "name": "escrowId",
          "type": "uint256"
        },
        {
          "indexed": false,
          "internalType": "enum PalindromePay.State",
          "name": "oldState",
          "type": "uint8"
        },
        {
          "indexed": true,
          "internalType": "enum PalindromePay.State",
          "name": "newState",
          "type": "uint8"
        }
      ],
      "name": "StateChanged",
      "type": "event"
    },
    {
      "anonymous": false,
      "inputs": [
        {
          "indexed": true,
          "internalType": "uint256",
          "name": "escrowId",
          "type": "uint256"
        },
        {
          "indexed": true,
          "internalType": "address",
          "name": "wallet",
          "type": "address"
        }
      ],
      "name": "WalletCreated",
      "type": "event"
    },
    {
      "inputs": [],
      "name": "DISPUTE_LONG_TIMEOUT",
      "outputs": [
        {
          "internalType": "uint256",
          "name": "",
          "type": "uint256"
        }
      ],
      "stateMutability": "view",
      "type": "function"
    },
    {
      "inputs": [],
      "name": "DOMAIN_SEPARATOR",
      "outputs": [
        {
          "internalType": "bytes32",
          "name": "",
          "type": "bytes32"
        }
      ],
      "stateMutability": "view",
      "type": "function"
    },
    {
      "inputs": [],
      "name": "FEE_RECEIVER",
      "outputs": [
        {
          "internalType": "address",
          "name": "",
          "type": "address"
        }
      ],
      "stateMutability": "view",
      "type": "function"
    },
    {
      "inputs": [],
      "name": "MAX_ARBITER_FEE_BPS",
      "outputs": [
        {
          "internalType": "uint256",
          "name": "",
          "type": "uint256"
        }
      ],
      "stateMutability": "view",
      "type": "function"
    },
    {
      "inputs": [],
      "name": "TIMEOUT_BUFFER",
      "outputs": [
        {
          "internalType": "uint256",
          "name": "",
          "type": "uint256"
        }
      ],
      "stateMutability": "view",
      "type": "function"
    },
    {
      "inputs": [],
      "name": "WALLET_FACTORY",
      "outputs": [
        {
          "internalType": "contract IWalletFactory",
          "name": "",
          "type": "address"
        }
      ],
      "stateMutability": "view",
      "type": "function"
    },
    {
      "inputs": [
        {
          "internalType": "uint256",
          "name": "escrowId",
          "type": "uint256"
        },
        {
          "internalType": "bytes",
          "name": "sellerWalletSig",
          "type": "bytes"
        }
      ],
      "name": "acceptEscrow",
      "outputs": [],
      "stateMutability": "nonpayable",
      "type": "function"
    },
    {
      "inputs": [
        {
          "internalType": "uint256",
          "name": "escrowId",
          "type": "uint256"
        }
      ],
      "name": "autoRelease",
      "outputs": [],
      "stateMutability": "nonpayable",
      "type": "function"
    },
    {
      "inputs": [
        {
          "internalType": "uint256",
          "name": "escrowId",
          "type": "uint256"
        }
      ],
      "name": "cancelByTimeout",
      "outputs": [],
      "stateMutability": "nonpayable",
      "type": "function"
    },
    {
      "inputs": [
        {
          "internalType": "uint256",
          "name": "escrowId",
          "type": "uint256"
        }
      ],
      "name": "computeWalletAddress",
      "outputs": [
        {
          "internalType": "address",
          "name": "predicted",
          "type": "address"
        }
      ],
      "stateMutability": "view",
      "type": "function"
    },
    {
      "inputs": [
        {
          "internalType": "uint256",
          "name": "escrowId",
          "type": "uint256"
        },
        {
          "internalType": "bytes",
          "name": "buyerWalletSig",
          "type": "bytes"
        }
      ],
      "name": "confirmDelivery",
      "outputs": [],
      "stateMutability": "nonpayable",
      "type": "function"
    },
    {
      "inputs": [
        {
          "internalType": "uint256",
          "name": "escrowId",
          "type": "uint256"
        },
        {
          "internalType": "bytes",
          "name": "coordSignature",
          "type": "bytes"
        },
        {
          "internalType": "uint256",
          "name": "deadline",
          "type": "uint256"
        },
        {
          "internalType": "uint256",
          "name": "nonce",
          "type": "uint256"
        },
        {
          "internalType": "bytes",
          "name": "buyerWalletSig",
          "type": "bytes"
        }
      ],
      "name": "confirmDeliverySigned",
      "outputs": [],
      "stateMutability": "nonpayable",
      "type": "function"
    },
    {
      "inputs": [
        {
          "internalType": "address",
          "name": "token",
          "type": "address"
        },
        {
          "internalType": "address",
          "name": "buyer",
          "type": "address"
        },
        {
          "internalType": "uint256",
          "name": "amount",
          "type": "uint256"
        },
        {
          "internalType": "uint256",
          "name": "maturityTimeDays",
          "type": "uint256"
        },
        {
          "internalType": "address",
          "name": "arbiter",
          "type": "address"
        },
        {
          "internalType": "uint16",
          "name": "arbiterFeeBps",
          "type": "uint16"
        },
        {
          "internalType": "string",
          "name": "title",
          "type": "string"
        },
        {
          "internalType": "string",
          "name": "ipfsHash",
          "type": "string"
        },
        {
          "internalType": "bytes",
          "name": "sellerWalletSig",
          "type": "bytes"
        }
      ],
      "name": "createEscrow",
      "outputs": [
        {
          "internalType": "uint256",
          "name": "",
          "type": "uint256"
        }
      ],
      "stateMutability": "nonpayable",
      "type": "function"
    },
    {
      "inputs": [
        {
          "internalType": "address",
          "name": "token",
          "type": "address"
        },
        {
          "internalType": "address",
          "name": "seller",
          "type": "address"
        },
        {
          "internalType": "uint256",
          "name": "amount",
          "type": "uint256"
        },
        {
          "internalType": "uint256",
          "name": "maturityTimeDays",
          "type": "uint256"
        },
        {
          "internalType": "address",
          "name": "arbiter",
          "type": "address"
        },
        {
          "internalType": "uint16",
          "name": "arbiterFeeBps",
          "type": "uint16"
        },
        {
          "internalType": "string",
          "name": "title",
          "type": "string"
        },
        {
          "internalType": "string",
          "name": "ipfsHash",
          "type": "string"
        },
        {
          "internalType": "bytes",
          "name": "buyerWalletSig",
          "type": "bytes"
        }
      ],
      "name": "createEscrowAndDeposit",
      "outputs": [
        {
          "internalType": "uint256",
          "name": "escrowId",
          "type": "uint256"
        }
      ],
      "stateMutability": "nonpayable",
      "type": "function"
    },
    {
      "inputs": [
        {
          "internalType": "uint256",
          "name": "escrowId",
          "type": "uint256"
        },
        {
          "internalType": "bytes",
          "name": "buyerWalletSig",
          "type": "bytes"
        }
      ],
      "name": "deposit",
      "outputs": [],
      "stateMutability": "nonpayable",
      "type": "function"
    },
    {
      "inputs": [
        {
          "internalType": "uint256",
          "name": "",
          "type": "uint256"
        }
      ],
      "name": "disputeStatus",
      "outputs": [
        {
          "internalType": "uint256",
          "name": "",
          "type": "uint256"
        }
      ],
      "stateMutability": "view",
      "type": "function"
    },
    {
      "inputs": [
        {
          "internalType": "uint256",
          "name": "escrowId",
          "type": "uint256"
        }
      ],
      "name": "getEscrow",
      "outputs": [
        {
          "components": [
            {
              "internalType": "address",
              "name": "token",
              "type": "address"
            },
            {
              "internalType": "address",
              "name": "buyer",
              "type": "address"
            },
            {
              "internalType": "address",
              "name": "seller",
              "type": "address"
            },
            {
              "internalType": "address",
              "name": "arbiter",
              "type": "address"
            },
            {
              "internalType": "address",
              "name": "wallet",
              "type": "address"
            },
            {
              "internalType": "uint256",
              "name": "amount",
              "type": "uint256"
            },
            {
              "internalType": "uint256",
              "name": "depositTime",
              "type": "uint256"
            },
            {
              "internalType": "uint256",
              "name": "maturityTime",
              "type": "uint256"
            },
            {
              "internalType": "uint256",
              "name": "maturityDuration",
              "type": "uint256"
            },
            {
              "internalType": "uint256",
              "name": "disputeStartTime",
              "type": "uint256"
            },
            {
              "internalType": "enum PalindromePay.State",
              "name": "state",
              "type": "uint8"
            },
            {
              "internalType": "bool",
              "name": "buyerCancelRequested",
              "type": "bool"
            },
            {
              "internalType": "bool",
              "name": "sellerCancelRequested",
              "type": "bool"
            },
            {
              "internalType": "uint8",
              "name": "tokenDecimals",
              "type": "uint8"
            },
            {
              "internalType": "uint16",
              "name": "arbiterFeeBps",
              "type": "uint16"
            },
            {
              "internalType": "bytes",
              "name": "sellerWalletSig",
              "type": "bytes"
            },
            {
              "internalType": "bytes",
              "name": "buyerWalletSig",
              "type": "bytes"
            },
            {
              "internalType": "bytes",
              "name": "arbiterWalletSig",
              "type": "bytes"
            }
          ],
          "internalType": "struct PalindromePay.EscrowDeal",
          "name": "",
          "type": "tuple"
        }
      ],
      "stateMutability": "view",
      "type": "function"
    },
    {
      "inputs": [
        {
          "internalType": "uint256",
          "name": "escrowId",
          "type": "uint256"
        },
        {
          "internalType": "address",
          "name": "signer",
          "type": "address"
        },
        {
          "internalType": "uint256",
          "name": "wordIndex",
          "type": "uint256"
        }
      ],
      "name": "getNonceBitmap",
      "outputs": [
        {
          "internalType": "uint256",
          "name": "",
          "type": "uint256"
        }
      ],
      "stateMutability": "view",
      "type": "function"
    },
    {
      "inputs": [
        {
          "internalType": "uint256",
          "name": "escrowId",
          "type": "uint256"
        },
        {
          "internalType": "address",
          "name": "participant",
          "type": "address"
        },
        {
          "internalType": "enum PalindromePay.State",
          "name": "outcome",
          "type": "uint8"
        }
      ],
      "name": "getWalletAuthorizationDigest",
      "outputs": [
        {
          "internalType": "bytes32",
          "name": "digest",
          "type": "bytes32"
        }
      ],
      "stateMutability": "view",
      "type": "function"
    },
    {
      "inputs": [],
      "name": "nextEscrowId",
      "outputs": [
        {
          "internalType": "uint256",
          "name": "",
          "type": "uint256"
        }
      ],
      "stateMutability": "view",
      "type": "function"
    },
    {
      "inputs": [
        {
          "internalType": "address",
          "name": "token",
          "type": "address"
        },
        {
          "internalType": "address",
          "name": "to",
          "type": "address"
        },
        {
          "internalType": "uint256",
          "name": "amount",
          "type": "uint256"
        }
      ],
      "name": "recoverToken",
      "outputs": [],
      "stateMutability": "nonpayable",
      "type": "function"
    },
    {
      "inputs": [
        {
          "internalType": "uint256",
          "name": "escrowId",
          "type": "uint256"
        },
        {
          "internalType": "bytes",
          "name": "buyerWalletSig",
          "type": "bytes"
        }
      ],
      "name": "refundAfterDisputeTimeout",
      "outputs": [],
      "stateMutability": "nonpayable",
      "type": "function"
    },
    {
      "inputs": [
        {
          "internalType": "uint256",
          "name": "escrowId",
          "type": "uint256"
        },
        {
          "internalType": "bytes",
          "name": "walletSig",
          "type": "bytes"
        }
      ],
      "name": "requestCancel",
      "outputs": [],
      "stateMutability": "nonpayable",
      "type": "function"
    },
    {
      "inputs": [
        {
          "internalType": "uint256",
          "name": "escrowId",
          "type": "uint256"
        },
        {
          "internalType": "address",
          "name": "newArbiter",
          "type": "address"
        },
        {
          "internalType": "uint16",
          "name": "arbiterFeeBps",
          "type": "uint16"
        },
        {
          "internalType": "bytes",
          "name": "buyerSig",
          "type": "bytes"
        },
        {
          "internalType": "bytes",
          "name": "sellerSig",
          "type": "bytes"
        },
        {
          "internalType": "uint256",
          "name": "deadline",
          "type": "uint256"
        },
        {
          "internalType": "uint256",
          "name": "nonce",
          "type": "uint256"
        }
      ],
      "name": "setArbiterSigned",
      "outputs": [],
      "stateMutability": "nonpayable",
      "type": "function"
    },
    {
      "inputs": [
        {
          "internalType": "uint256",
          "name": "escrowId",
          "type": "uint256"
        }
      ],
      "name": "startDispute",
      "outputs": [],
      "stateMutability": "nonpayable",
      "type": "function"
    },
    {
      "inputs": [
        {
          "internalType": "uint256",
          "name": "escrowId",
          "type": "uint256"
        },
        {
          "internalType": "bytes",
          "name": "signature",
          "type": "bytes"
        },
        {
          "internalType": "uint256",
          "name": "deadline",
          "type": "uint256"
        },
        {
          "internalType": "uint256",
          "name": "nonce",
          "type": "uint256"
        }
      ],
      "name": "startDisputeSigned",
      "outputs": [],
      "stateMutability": "nonpayable",
      "type": "function"
    },
    {
      "inputs": [
        {
          "internalType": "uint256",
          "name": "escrowId",
          "type": "uint256"
        },
        {
          "internalType": "enum PalindromePay.State",
          "name": "resolution",
          "type": "uint8"
        },
        {
          "internalType": "string",
          "name": "ipfsHash",
          "type": "string"
        },
        {
          "internalType": "bytes",
          "name": "arbiterWalletSig",
          "type": "bytes"
        }
      ],
      "name": "submitArbiterDecision",
      "outputs": [],
      "stateMutability": "nonpayable",
      "type": "function"
    },
    {
      "inputs": [
        {
          "internalType": "uint256",
          "name": "escrowId",
          "type": "uint256"
        },
        {
          "internalType": "enum PalindromePay.Role",
          "name": "role",
          "type": "uint8"
        },
        {
          "internalType": "string",
          "name": "ipfsHash",
          "type": "string"
        }
      ],
      "name": "submitDisputeMessage",
      "outputs": [],
      "stateMutability": "nonpayable",
      "type": "function"
    }
  ],
  "bytecode": "0x61010080604052346102075760408161599e8038038091610020828561020b565b8339810103126102075761003f602061003883610242565b9201610242565b60015f556001600160a01b038216156101d5576001600160a01b03169081156101a15760805260a0524660e05260405161007a60408261020b565b600d81526c50616c696e64726f6d6550617960981b602090910152604080517fafad4e164a3495a77e9cd6cc3b76ca3aa2b79f9ddc70f34392e4b3d17237f7d7916100c5908261020b565b600181526020810190603160f81b82525190206040519060208201927f8b73c3c69bb8fe3d512ecc4cf759cc79239f7b179b0ffacaa9a75d522b39400f8452604083015260608201524660808201523060a082015260a0815261012960c08261020b565b51902060c0526040516157479081610257823960805181818161023a01528181610a6701528181610bda01528181611594015281816119be015281816133ff01528181614df40152614e78015260a05181818161389e0152818161524a01526152c4015260c05181614752015260e0518161472c0152f35b60405162461bcd60e51b815260206004820152600c60248201526b466163746f7279207a65726f60a01b6044820152606490fd5b60405162461bcd60e51b815260206004820152600a602482015269466565546f207a65726f60b01b6044820152606490fd5b5f80fd5b601f909101601f19168101906001600160401b0382119082101761022e57604052565b634e487b7160e01b5f52604160045260245ffd5b51906001600160a01b03821682036102075756fe6102206040526004361015610012575f80fd5b5f3560e01c806306075a15146138cd5780630e2009f41461388957806310f169e81461385f57806313c34211146136f05780631452483b146136d35780632d471a501461308f5780632f9bfda214612bfd5780633644e51514612bdb5780634186928c14612bbf578063459b860e14612a585780635d3035191461269d5780636232ef60146124d9578063708f65ca146122a85780637d19e59614611fc05780638350415614611b1657806389cb29dd14611af95780639dede53c14611aa9578063a7229fd91461198e578063acc1d8e1146114bd578063b67036fd146111dd578063c0cfa7e5146110f8578063c37775a314610eb0578063cdf21dc914610a96578063d3e78e4d14610a52578063d447dc7d14610a36578063da183b021461083d578063e471d9a31461080d5763f80a9c931461014e575f80fd5b346106395761015c36613bc2565b97909899929561016d9594956145c3565b6101778686614fe6565b6101818388614f96565b6101956001600160a01b038d16151561430d565b6001600160a01b038416156107da576101b96001600160a01b038516331415614346565b6101c48b1515614386565b6101d1610e4383106143c0565b6101da8c615042565b6080526101f36101eb608051614f2c565b8c1015614400565b6001600160a01b038816331415806107c4575b61020f9061443f565b6001600160a01b0388161580156107bb575b61022a9061447d565b6102636001600160a01b038981167f000000000000000000000000000000000000000000000000000000000000000090911614156144bf565b61026d8189615158565b600154610160526102806101605161450b565b60015561029e336102936101605161521f565b610160518c8e614a28565b156107ac576102af610160516152a6565b6101a052610160515f52600260205260405f206101805260018060a01b038c166001600160601b0360a01b6101805154161761018051556001610180510160018060a01b0333166001600160601b0360a01b8254161790556002610180510160018060a01b0385166001600160601b0360a01b8254161790556003610180510160018060a01b0389166001600160601b0360a01b825416179055610373600a610180510191829065ffff0000000082549160201b169065ffff000000001916179055565b6004610180510160018060a01b036101a051166001600160601b0360a01b8254161790558a60056101805101556103ad6001831015614519565b62015180820291808304620151801490151715610798576103da8261040193600861018051015542613c85565b6101805160070155805460805163ff0000ff1990911660189190911b63ff00000016179055565b6001600160401b0387116107845788948a94610423600c610180510154613f4f565b601f8111610724575b50885f601f8211600114610691579161049793915f5160206156725f395f51905f52979695935f91610686575b508b60011b905f198d60031b1c191617600c6101805101555b60076101805101549560405196879660018060a01b03169b339b610160519b89614572565b0390a45f5160206156525f395f51905f526104f360018060a01b036101a05116936040519385610160517f470292d5e9c87e6d5a100a14c56a434c9f25e9e2be1d5efa70c3b5f9aeda505f5f80a3604085526040850191613f87565b91600360208201528061016051930390a2426006610180510155610519610160516149c6565b6040516370a0823160e01b815260048101829052906020826024816001600160a01b0388165afa918215610645575f92610650575b506101a051919260209261056d9190336001600160a01b038816614ed7565b6040516370a0823160e01b8152600481019190915292839060249082906001600160a01b03165afa8015610645575f9061060d575b6105ac9250614125565b6105c26105ba608051614f2c565b821015614132565b80600561018051015560405190815233907f2c39794ba48d965361d6eb56f0d6366313044d1b5b1758c68643d3e3a39a2c4e60206101605192a360015f556020604051610160518152f35b506020823d60201161063d575b8161062760209383613d64565b81010312610639576105ac91516105a2565b5f80fd5b3d915061061a565b6040513d5f823e3d90fd5b91506020823d60201161067e575b8161066b60209383613d64565b810103126106395790519061056d61054e565b3d915061065e565b90508c01355f610459565b9050600c61018051015f528a60205f20915f5b601f198d1681106107045750915f5160206156725f395f51905f52979695939161049795938d601f198116106106eb575b50505060018b811b01600c610180510155610472565b01355f1960038e901b60f8161c191690555f8c816106d5565b9181013583558d99508e98506001909201918c91602091820191016106a4565b9193955091939550600c61018051015f5260205f20601f890160051c810160208a1061077d575b918b979593918d9795935b601f830160051c8201811061076c57505061042c565b5f81558d99508e9850600101610756565b508061074b565b634e487b7160e01b5f52604160045260245ffd5b634e487b7160e01b5f52601160045260245ffd5b630f42e6ed60e41b5f5260045ffd5b50873b15610221565b506001600160a01b038881169085161415610206565b60405162461bcd60e51b815260206004820152600b60248201526a53656c6c6572207a65726f60a81b6044820152606490fd5b3461063957602036600319011261063957602061082b60043561521f565b6040516001600160a01b039091168152f35b34610639576020366003190112610639576004356108596145c3565b61086281614617565b61086b81614ea6565b805f52600260205260405f20600a81015460ff81166006811015610a225760016108959114614028565b6108a360098301541561406c565b60ff8160081c16156109e85760101c60ff166109ae576108c8600682015415156140a9565b60038101546001600160a01b03161561095d57806108ed6007600593015442116140e2565b61090560416108ff600c840154613f4f565b14613fa7565b61090e836149f7565b6001810154610926906001600160a01b031684614e37565b50500154906040519182527feb8b5b87fbea5b732b8f4fd82b65d9afef713c799d98da83090f22c45577998d60203393a360015f55005b60405162461bcd60e51b815260206004820152602360248201527f4172626974657220726571756972656420666f722074696d656f75742063616e60448201526218d95b60ea1b6064820152608490fd5b60405162461bcd60e51b81526020600482015260126024820152714d757475616c2063616e63656c20646f6e6560701b6044820152606490fd5b60405162461bcd60e51b8152602060048201526012602482015271135d5cdd081c995c5d595cdd08199a5c9cdd60721b6044820152606490fd5b634e487b7160e01b5f52602160045260245ffd5b34610639575f3660031901126106395760206040516107d08152f35b34610639575f366003190112610639576040517f00000000000000000000000000000000000000000000000000000000000000006001600160a01b03168152602090f35b346106395760e036600319011261063957600435610ab2613b48565b9060443561ffff81168103610639576064356001600160401b03811161063957610ae0903690600401613b1b565b60c05260a0526084356001600160401b03811161063957610b05903690600401613b1b565b9060e0529060c43591610b166145c3565b610b1f84614617565b5f848152600260205260409020610140819052600301610120819052546001600160a01b0316610e755760ff600a610140510154166006811015610a225780610b719115908115610e6a575b50614233565b4260a4351180610e53575b610b8590613c92565b6001600160a01b03851694610c0f908390610ba1881515613cd1565b61014051600101546001600160a01b031661010081905288141580610e39575b610bca9061443f565b610bd5813b1561447d565b610c0a7f00000000000000000000000000000000000000000000000000000000000000006001600160a01b03168914156144bf565b615158565b610c1d60c05160a0516146b6565b610c298160e0516146b6565b60405160208101907fb2fd8bb112d6c331ed2bea1f18103807d9ead94275c9f2f26cadce42f3303879825285604082015286606082015261ffff8416608082015260a43560a08201528460c082015260c08152610c8760e082613d64565b519020610cc0610cce610c98614729565b92604051928391602083019586909160429261190160f01b8352600283015260228201520190565b03601f198101835282613d64565b51902090610cf5610ced610ce73660c05160a051613da0565b846152ff565b919091615330565b610100516001600160a01b0390911603610e0457610d2491610d1e610ced92369060e051613da0565b906152ff565b61014051600201805490916001600160a01b03918216911603610dce5782610d6791610d57610da49561010051886148ab565b546001600160a01b0316856148ab565b836001600160601b0360a01b610120515416176101205155600a61014051019065ffff0000000082549160201b169065ffff000000001916179055565b7fc8d8ceeeb85b71e935c56c5b01b3172ac921f56f0174509be0c62f01e84c39055f80a360015f55005b60405162461bcd60e51b815260206004820152600e60248201526d4261642073656c6c65722073696760901b6044820152606490fd5b60405162461bcd60e51b815260206004820152600d60248201526c4261642062757965722073696760981b6044820152606490fd5b5061014051600201546001600160a01b0316881415610bc1565b506201518042018042116107985760a43510610b7c565b600191501487610b6b565b60405162461bcd60e51b8152602060048201526013602482015272105c989a5d195c88185b1c9958591e481cd95d606a1b6044820152606490fd5b3461063957610ebe36613b5e565b90610ec76145c3565b610ed083614617565b610ed983614ea6565b825f52600260205260405f209160ff600a840154166006811015610a22576001610f039114614028565b610f1b6041610f15600b860154613f4f565b14613fe7565b6004830154610f379033906001600160a01b0316868486614a28565b156107ac57600c8301916001600160401b038211610784578491610f5b8454613f4f565b601f81116110a6575b505f93601f821160011461103457815f5160206156525f395f51905f5294955f91611029575b508260011b905f198460031b1c19161790555b610fb4604051928392604084526040840191613f87565b600360208301520390a2610fc782614995565b60028101546001600160a01b0316917f8bcf349ab354486b68c142cea7235e4f7f31f6a425466f569c8ac1d5bc4d000760406110038584614d58565b9050600560018060a01b036001870154169501549082519182526020820152a460015f55005b905083013588610f8a565b601f198216815f5260205f20905f5b81811061108b575095835f5160206156525f395f51905f52969710611072575b5050600182811b019055610f9d565b8401355f19600385901b60f8161c191690558780611063565b8786013583556020978801978a975060019093019201611043565b90919250835f5260205f20601f830160051c810191602084106110ee575b90601f88959493920160051c01905b8181106110e05750610f64565b5f81558794506001016110d3565b90915081906110c4565b34610639576020366003190112610639576004356111146145c3565b61111d81614617565b61112681614f46565b5f818152600260205260409020600381015461114c906001600160a01b03161515613cd1565b60ff600a820154166006811015610a225760016111699114614028565b61117282614955565b60094291015562278d004201804211610798577f1a9502b6f661da8b0573a0617c121cabe2e93ea05d5239cfab6e9d1734b928c960208392604051908152a233907fd658effe7cf013e5a508b3f1a373b92566494d8b6a7c2970fc964932de1c4dab5f80a360015f55005b34610639576111eb36613b5e565b906111f46145c3565b6111fd83614617565b61120683614ea6565b825f52600260205260405f209060ff600a830154166006811015610a22576002611230911461417e565b600982015462278d008101908181116107985762279b10018091116107985742111561148257835f52600460205260ff60405f20541661143d5760048201546112869033906001600160a01b0316868685614bf5565b156107ac57600c8201906001600160401b03841161078457816112aa869354613f4f565b601f81116113eb575b505f601f861160011461137257945f5160206156525f395f51905f529291816005975f91611367575b508260011b905f198460031b1c19161790555b611306604051928392604084526040840191613f87565b600460208301520390a2825f5260026020526004835f5160206156f25f395f51905f526020600a60405f20016113418560ff8354169261455a565b61134e6040518092613b91565ba36001810154610926906001600160a01b031684614e37565b9050830135896112dc565b9490601f198216815f5260205f20905f5b8181106113d0575090600597845f5160206156525f395f51905f5296959493106113b7575b5050600182811b0190556112ef565b8401355f19600385901b60f8161c1916905588806113a8565b8886013583556020988901988a975060019093019201611383565b90809293505f5260205f20601f860160051c81019160208710611433575b90601f88959493920160051c01905b81811061142557506112b3565b5f8155879450600101611418565b9091508190611409565b60405162461bcd60e51b815260206004820152601a60248201527f4465636973696f6e20616c7265616479207375626d69747465640000000000006044820152606490fd5b60405162461bcd60e51b8152602060048201526013602482015272151a5b595bdd5d081b9bdd081c995858da1959606a1b6044820152606490fd5b34610639576114cb36613bc2565b6101e05261020052939895929493929091906114e78287614fe6565b6114f18484614f96565b6115056001600160a01b038816151561430d565b6001600160a01b0389161561195c576115296001600160a01b038a16331415614346565b611534881515614386565b611541610e4382106143c0565b61154a87615042565b9061155f61155783614f2c565b8a1015614400565b6001600160a01b038616913383141580611949575b61157d9061443f565b82158015611940575b61158f9061447d565b6115c47f00000000000000000000000000000000000000000000000000000000000000006001600160a01b03168414156144bf565b6115ce8c88615158565b6001546101c0526115e16101c05161450b565b600155611605336115f46101c05161521f565b6101c0516101e05161020051614a28565b156107ac576116166101c0516152a6565b9b6101c0515f52600260205260405f209360018060a01b038b166001600160601b0360a01b865416178555600185018d60018060a01b03166001600160601b0360a01b8254161790556002850160018060a01b0333166001600160601b0360a01b82541617905560038501906001600160601b0360a01b8254161790556116ba600a850191829065ffff0000000082549160201b169065ffff000000001916179055565b6004840180546001600160a01b0319166001600160a01b038f16179055600584018b90556116eb6001841015614519565b62015180830292808404620151801490151715610798576117158361173794600887015542613c85565b6007850155805463ff0000ff191660189290921b63ff00000016919091179055565b6001600160401b036101e0511161078457611755600b820154613f4f565b601f81116118f2575b505f601f6101e0511160011461185a579160076117ce94925f5160206156725f395f51905f52989796945f906101e05161184c575b506101e05160011b905f196101e05160031b1c191617600b8201555b015495604051968796339c60018060a01b03169b6101c0519b89614572565b0390a46040516101c05190916001600160a01b0316907f470292d5e9c87e6d5a100a14c56a434c9f25e9e2be1d5efa70c3b5f9aeda505f5f80a3604081525f5160206156925f395f51905f5261182e604083016101e05161020051613f87565b9160036020820152806101c051930390a260206040516101c0518152f35b90506102005101358e611793565b600b82015f5260205f20905f5b6101e051601f191681106118d757506117ce94925f5160206156725f395f51905f5298979694926007926101e051601f196101e05116106118b8575b505060016101e051811b01600b8201556117af565b5f1960f86101e05160031b161c19906102005101351690558d806118a3565b90916020600181928561020051013581550193019101611867565b600b82015f5260205f20601f6101e0510160051c81019160206101e05110611936575b601f0160051c01905b81811061192b575061175e565b5f815560010161191e565b9091508190611915565b50863b15611586565b506001600160a01b038b16831415611574565b60405162461bcd60e51b815260206004820152600a6024820152694275796572207a65726f60b01b6044820152606490fd5b34610639576060366003190112610639576004356001600160a01b03811690819003610639576119bc613b48565b7f00000000000000000000000000000000000000000000000000000000000000006001600160a01b03163303611a70576001600160a01b03811615611a3c5760405163a9059cbb60e01b60208201526001600160a01b0391909116602482015260448035818301528152611a3a91611a35606483613d64565b615434565b005b60405162461bcd60e51b815260206004820152600c60248201526b5a65726f206164647265737360a01b6044820152606490fd5b60405162461bcd60e51b815260206004820152601160248201527027b7363c903332b2903932b1b2b4bb32b960791b6044820152606490fd5b3461063957606036600319011261063957611ac2613b48565b6004355f52600560205260405f209060018060a01b03165f5260205260405f206044355f52602052602060405f2054604051908152f35b34610639575f366003190112610639576020600154604051908152f35b3461063957611b2436613b5e565b90611b2d6145c3565b611b3683614617565b611b3f83614f46565b825f52600260205260405f2090600a82019081549360ff85166006811015610a22576001611b6d9114614233565b611b7c600685015415156140a9565b611b8a60098501541561406c565b6004840154611ba69033906001600160a01b0316888486614b53565b156107ac57600184019460018060a01b0386541633145f14611e0c575060ff835460081c16611dc757600c8401916001600160401b038211610784578691611bee8454613f4f565b601f8111611d75575b505f93601f8211600114611d0357815f5160206156525f395f51905f5294955f91611cf8575b508260011b905f198460031b1c19161790555b611c47604051928392604084526040840191613f87565b600560208301520390a2805461ff0019166101001781555b5460ff8160081c169081611cea575b5015611cbd57610926600592611c8c60416108ff600c860154613f4f565b611c9e6041610f15600b860154613f4f565b611ca7856149f7565b546001600160a01b031684614e37565b60015f55005b505033907f88a867d5d9b489598a3f5e5c8d5c1da163ed116737b70444bac744920904a5735f80a3611cb7565b60ff915060101c1684611c6e565b90508301358a611c1d565b601f198216815f5260205f20905f5b818110611d5a575095835f5160206156525f395f51905f52969710611d41575b5050600182811b019055611c30565b8401355f19600385901b60f8161c191690558980611d32565b8786013583556020978801978c975060019093019201611d12565b90919250835f5260205f20601f830160051c81019160208410611dbd575b90601f8a959493920160051c01905b818110611daf5750611bf7565b5f8155899450600101611da2565b9091508190611d93565b60405162461bcd60e51b815260206004820152601760248201527f427579657220616c7265616479207265717565737465640000000000000000006044820152606490fd5b60101c60ff16611f7b57600b8401916001600160401b038211610784578691611e358454613f4f565b601f8111611f29575b505f93601f8211600114611eb757815f5160206156925f395f51905f5294955f91611eac575b508260011b905f198460031b1c19161790555b611e8e604051928392604084526040840191613f87565b600560208301520390a2805462ff0000191662010000178155611c5f565b90508301358a611e64565b601f198216815f5260205f20905f5b818110611f0e575095835f5160206156925f395f51905f52969710611ef5575b5050600182811b019055611e77565b8401355f19600385901b60f8161c191690558980611ee6565b8786013583556020978801978c975060019093019201611ec6565b90919250835f5260205f20601f830160051c81019160208410611f71575b90601f8a959493920160051c01905b818110611f635750611e3e565b5f8155899450600101611f56565b9091508190611f47565b60405162461bcd60e51b815260206004820152601860248201527f53656c6c657220616c72656164792072657175657374656400000000000000006044820152606490fd5b34610639576020366003190112610639576004356060610220604051611fe581613d48565b5f81525f60208201525f60408201525f838201525f60808201525f60a08201525f60c08201525f60e08201525f6101008201525f6101208201525f6101408201525f6101608201525f6101808201525f6101a08201525f6101c0820152826101e082015282610200820152015261205b81614617565b5f52600260205260405f2060405161207281613d48565b81546001600160a01b0390811682526001830154811660208301526002830154811660408301526003830154811660608301526004830154166080820152600582015460a082015260068083015460c0830152600783015460e083015260088301546101008301526009830154610120830152600a83015460ff811691821015610a22576122a49361ffff600d926121699461014087015260ff8160081c16151561016087015260ff8160101c16151561018087015260ff8160181c166101a087015260201c166101c085015261214b600b820161426d565b6101e085015261215d600c820161426d565b6102008501520161426d565b6102208201526040519182916020835260018060a01b03815116602084015260018060a01b03602082015116604084015260018060a01b03604082015116606084015260018060a01b03606082015116608084015260018060a01b0360808201511660a084015260a081015160c084015260c081015160e084015260e081015161010084015261010081015161012084015261012081015161014084015261221b610140820151610160850190613b91565b610160810151151561018084015261018081015115156101a084015260ff6101a0820151166101c084015261ffff6101c0820151166101e084015261022061228f6122796101e0840151610240610200880152610260870190613b9e565b610200840151868203601f190184880152613b9e565b910151838203601f1901610240850152613b9e565b0390f35b34610639576122b636613b5e565b906122bf6145c3565b6122c883614617565b825f52600260205260405f206122eb60018060a01b0360028301541633146141b9565b60ff600a820154166006811015610a225760016123089114614233565b60048101546123249033906001600160a01b0316868686614a28565b156107ac57600b0180549061233882613f4f565b1515916001600160401b0385116107845761235290613f4f565b601f8111612494575b50835f601f8211600114612430575f91612425575b508460011b905f198660031b1c19161790555b156123ca577f9f91c43a9c810c8b0a79dc8dec5c0ed9f7be6ef2090ebde9e83c83fb2bd2ed1b916123c1604051928392602084526020840191613f87565b0390a260015f55005b5f5160206156925f395f51905f529161241660405192839233877f5b09e2f1aabe74a8fc19114f298046a9fa1214365ec1d728e534a291aff17a4f5f80a3604084526040840191613f87565b600360208301520390a2611cb7565b905083013586612370565b5f8381526020812092508690601f198216905b818110612479575010612460575b5050600184811b019055612383565b8401355f19600387901b60f8161c191690558580612451565b87840135855560019094019360209384019389935001612443565b815f5260205f20601f860160051c810191602087106124cf575b601f0160051c01905b8181106124c4575061235b565b5f81556001016124b7565b90915081906124ae565b34610639576060366003190112610639576004356024359060048210918215610639576044356001600160401b0381116106395761251b903690600401613b1b565b91906125256145c3565b61252e84614617565b61253784614f46565b835f52600260205260405f2060ff600a820154166006811015610a22576002612560911461417e565b61256a8483614f96565b845f52600660205260405f205490600184145f1461263457600101546001600160a01b0316330361260257806125a46001809316156141f3565b175b845f52600660205260405f20556040519415610a22577f4e71d2a3ce09c95d708a8bc888cb8838c8419bea1f25f6d07f2c601b173f720e926125f5928652604060208701526040860191613f87565b928033940390a360015f55005b60405162461bcd60e51b815260206004820152600a60248201526927b7363c90313abcb2b960b11b6044820152606490fd5b906002840361266957600291820154612657906001600160a01b031633146141b9565b612663828216156141f3565b176125a6565b60405162461bcd60e51b815260206004820152600c60248201526b496e76616c696420726f6c6560a01b6044820152606490fd5b34610639576126ab36613b5e565b91906126b56145c3565b6126be82614617565b6126c782614ea6565b815f52600260205260405f20600a81019160ff8354166006811015610a2257612a1c576007820180544210156129e657612705600884015442613c85565b90556004820180549095906127279033906001600160a01b0316878486614a28565b156107ac57600c8301916001600160401b03821161078457859161274b8454613f4f565b601f8111612994575b505f93601f821160011461292257815f5160206156525f395f51905f5294955f91612917575b508260011b905f198460031b1c19161790555b6127a4604051928392604084526040840191613f87565b600360208301520390a24260068201556127bd836149c6565b805484546040516370a0823160e01b81526001600160a01b0391821660048201819052909690939092909116602087602481845afa968715610645575f976128df575b509061281760209260058301958654913390614ed7565b5491546040516370a0823160e01b81526001600160a01b0391821660048201529283916024918391165afa908115610645575f916128ab575b5061287061286360ff9661287893614125565b9586945460181c16614f2c565b831015614132565b556040519182527f71284872bb4c088a81295dff2513729babbccfeda38a8d824bb1a73bcaab494e60203393a360015f55005b90506020813d6020116128d7575b816128c660209383613d64565b810103126106395751612870612850565b3d91506128b9565b919096506020823d60201161290f575b816128fc60209383613d64565b8101031261063957905195612817612800565b3d91506128ef565b90508301358a61277a565b601f198216815f5260205f20905f5b818110612979575095835f5160206156525f395f51905f52969710612960575b5050600182811b01905561278d565b8401355f19600385901b60f8161c191690558980612951565b8786013583556020978801978b975060019093019201612931565b90919250835f5260205f20601f830160051c810191602084106129dc575b90601f89959493920160051c01905b8181106129ce5750612754565b5f81558894506001016129c1565b90915081906129b2565b60405162461bcd60e51b815260206004820152600e60248201526d115cd8dc9bddc8195e1c1a5c995960921b6044820152606490fd5b60405162461bcd60e51b8152602060048201526014602482015273139bdd08185dd85a5d1a5b99c81c185e5b595b9d60621b6044820152606490fd5b3461063957602036600319011261063957600435612a746145c3565b612a7d81614617565b5f81815260026020819052604090912001546001600160a01b03163303612bb057805f52600260205260405f2090600a82015460ff8116906006821015610a2257612acc600160ff9314614028565b612ada60098501541561406c565b60081c16612b7257612af1600683015415156140a9565b612b00600783015442116140e2565b612b126041610f15600b850154613f4f565b612b1b81614995565b60028201546001600160a01b0316917f489d0b4f43659843daba0a17983382a3e77f5399083ac5405143fcf6806f8ca0906040906005612b5b8686614d58565b92905001549082519182526020820152a360015f55005b60405162461bcd60e51b8152602060048201526016602482015275109d5e595c881c995c5d595cdd19590818d85b98d95b60521b6044820152606490fd5b6342e8fb9360e11b5f5260045ffd5b34610639575f366003190112610639576020604051610e108152f35b34610639575f366003190112610639576020612bf5614729565b604051908152f35b346106395760a0366003190112610639576004356024356001600160401b03811161063957612c30903690600401613b1b565b9091604435916064356084356001600160401b03811161063957612c58903690600401613b1b565b91612c616145c3565b612c6a85614617565b4286118061307a575b612c7c90613c92565b845f52600260205260405f209060ff600a830154166006811015610a22576001612ca69114613d0c565b6041850361304157612cb885896146b6565b612cc460418514613fa7565b612cce84846146b6565b600b820154612cdc90613f4f565b604114612ce890613fe7565b6001820197600160a01b6001900389541695600284019688600160a01b60019003895416600160a01b600190036003880154169b600160a01b600190038854169c600589019d8e549060068b0154926040519560208701977f2175432d6c7eab3a2ef5708fc419540c0f4d274cabd17912c92683ed8466b5e989526040880152886060880152608087015260a086015260c085015260e0840152610100830152610120820152856101408201526101408152612da661016082613d64565b519020612db1614729565b60405161190160f01b60208201908152602282019290925260428082019390935291825290612de1606282613d64565b519020612def368486613da0565b612df8916152ff565b612e0190615330565b6001600160a01b0316612e15811515613dd6565b14612e1f90613e15565b612e2991886147ce565b8754612e3f91906001600160a01b0316876148ab565b60048101548754612e5f916001600160a01b039182169116878686614a28565b156107ac57600c01916001600160401b0381116107845782612e82869454613f4f565b601f8111612fed575b505f601f8311600114612f525792825f5160206156525f395f51905f5292604096947f8bcf349ab354486b68c142cea7235e4f7f31f6a425466f569c8ac1d5bc4d000798965f91612f47575b508260011b905f198460031b1c19161790555b612efe865192839288845288840191613f87565b600360208301520390a2612f1184614995565b546001600160a01b031694612f268685614d58565b91905060018060a01b0390541694549082519182526020820152a460015f55005b90508301358c612ed7565b601f19831690825f5260205f20915f5b818110612fd25750927f8bcf349ab354486b68c142cea7235e4f7f31f6a425466f569c8ac1d5bc4d00079795928592604098965f5160206156525f395f51905f529610612fb9575b5050600182811b019055612eea565b8401355f19600385901b60f8161c191690558b80612faa565b82870135845589975060019093019260209283019201612f62565b9080929394505f5260205f20601f840160051c81019160208510613037575b90601f8896959493920160051c01905b8181106130295750612e8b565b5f815587955060010161301c565b909150819061300c565b60405162461bcd60e51b81526020600482015260116024820152704d697373696e6720636f6f72642073696760781b6044820152606490fd5b50620151804201804211610798578610612c73565b346106395760803660031901126106395760043560243560068110908115610639576044356001600160401b038111610639576130d0903690600401613b1b565b9190926064356001600160401b038111610639576130f2903690600401613b1b565b9390916130fd6145c3565b61310687614617565b5f878152600260205260409020600301546001600160a01b031633036136c457865f52600260205260405f209560ff600a880154166006811015610a225760026131509114613d0c565b5f9360038614968780156136b7575b1561367d57895f52600660205260405f20546001811615159081613670575b5060098a015462278d008101908181116107985762279b1001809111610798578115613666575b501561362157895f52600460205260ff60405f2054166135ea57895f52600460205260405f20600160ff198254161790556131f0873360018060a01b0360048d0154168d8587614c97565b156107ac57600d8901916001600160401b038211610784578a916132148454613f4f565b601f8111613598575b505f93601f821160011461350857817f57412d44e703b55c5b25344650a0be1705d9c1d43b83c69c9ff84db2f4d1b0e394955f916134fd575b508260011b905f198460031b1c19161790555b613280604051928392604084526040840191613f87565b61328d602083018b613b91565b0390a2875f526002602052600a60405f2001916132af8660ff8554169461455a565b15610a22576133147f4e71d2a3ce09c95d708a8bc888cb8838c8419bea1f25f6d07f2c601b173f720e91868a5f5160206156f25f395f51905f52602082976132fa6040518092613b91565ba36040519460038652604060208701526040860191613f87565b928033940390a3610a225781156134ea5760028301546001600160a01b03165b845f5260026020528460405f20935f146134a8575060ff600a600585015494015460181c16600281115f1461349e576001190160ff81116107985761337890614f1b565b6064840284810460641485151715610798576127109004908082106134965750905b83821015613451577ffc4c84ff0bf9d937dea068e6c13c3a16c307d76a1c5b5173c40f03f68f421e0094865f5160206156b25f395f51905f5260806005946133e387839a614125565b6040519160018060a01b03168252602082015260018060a01b037f0000000000000000000000000000000000000000000000000000000000000000166040820152866060820152a2015461343a6040518094613b91565b33602084015260408301526060820152a260015f55005b60405162461bcd60e51b815260206004820152601860248201527f416d6f756e7420746f6f20736d616c6c20666f722066656500000000000000006044820152606490fd5b90509061339a565b506133785f614f1b565b7ffc4c84ff0bf9d937dea068e6c13c3a16c307d76a1c5b5173c40f03f68f421e00946005915f5160206156b25f395f51905f5260808481980154955f966133e3565b60018301546001600160a01b0316613334565b90508301358e613256565b601f198216815f5260205f20905f5b818110613572575095837f57412d44e703b55c5b25344650a0be1705d9c1d43b83c69c9ff84db2f4d1b0e3969710613559575b5050600182811b019055613269565b8401355f19600385901b60f8161c191690558d8061354a565b92949693955090602060018192868a013581550194019201908e95939196949296613517565b90919250835f5260205f20601f830160051c810191602084106135e0575b90601f8e959493920160051c01905b8181106135d2575061321d565b5f81558d94506001016135c5565b90915081906135b6565b60405162461bcd60e51b815260206004820152600f60248201526e105b1c9958591e48191958da591959608a1b6044820152606490fd5b60405162461bcd60e51b815260206004820152601860248201527f4e6565642065766964656e6365206f722074696d656f757400000000000000006044820152606490fd5b905042118b6131a5565b600291501615158b61317e565b60405162461bcd60e51b815260206004820152601260248201527124b73b30b634b2103932b9b7b63aba34b7b760711b6044820152606490fd5b505f95506004871461315f565b6372cc71e760e11b5f5260045ffd5b34610639575f36600319011261063957602060405162278d008152f35b346106395760603660031901126106395760043561370c613b48565b6044359060068210156106395761372283614617565b5f83815260026020526040902060018101546001600160a01b0383811691168114908115613848575b8115613831575b50156137f8576137ae610cc0926137c4602096610cc06137ed95613774613e57565b8a8151910120613782613e88565b8b815191012091600460018060a01b0391015416968791610cc06040519384928f840196469188613ea7565b519020976040519485938b850197309189613ef3565b5190206040519283918683019586909160429261190160f01b8352600283015260228201520190565b519020604051908152f35b60405162461bcd60e51b8152602060048201526011602482015270139bdd0818481c185c9d1a58da5c185b9d607a1b6044820152606490fd5b60038301546001600160a01b031614905085613752565b60028301546001600160a01b03168114915061374b565b34610639576020366003190112610639576004355f526006602052602060405f2054604051908152f35b34610639575f366003190112610639576040517f00000000000000000000000000000000000000000000000000000000000000006001600160a01b03168152602090f35b34610639576080366003190112610639576004356024356001600160401b03811161063957613900903690600401613b1b565b60443592916064356139106145c3565b61391984614617565b42851180613b06575b61392b90613c92565b5f84815260026020526040902060038101549093906001600160a01b0316613954811515613cd1565b60ff600a86015416916006831015610a2257613a8a94613a7e613a84936139806001613a589714613d0c565b61398a84846146b6565b613a508a60018060a01b0360018c015416809d8c600260018060a01b0391015416948d60018060a01b0381541660066005830154920154926040519560208701977f3ec4667e1948e2e97f54b4602b6bbfa8f3f98ff1036916ce75d84c59f9558f0289526040880152606087015288608087015260a086015260c085015260e0840152610100830152610120820152896101408201526101408152613a3161016082613d64565b519020610cc0613a42610c98614729565b519020610d1e368787613da0565b969096615330565b6001600160a01b0386169a613a6e8c1515613dd6565b8b14908115613afc575b50613e15565b876147ce565b846148ab565b613a9382614955565b60094291015562278d004201804211610798577f1a9502b6f661da8b0573a0617c121cabe2e93ea05d5239cfab6e9d1734b928c960208392604051908152a27fd658effe7cf013e5a508b3f1a373b92566494d8b6a7c2970fc964932de1c4dab5f80a360015f55005b90508a148b613a78565b50620151804201804211610798578510613922565b9181601f84011215610639578235916001600160401b038311610639576020838186019501011161063957565b602435906001600160a01b038216820361063957565b9060406003198301126106395760043591602435906001600160401b03821161063957613b8d91600401613b1b565b9091565b906006821015610a225752565b805180835260209291819084018484015e5f828201840152601f01601f1916010190565b610120600319820112610639576004356001600160a01b038116810361063957916024356001600160a01b0381168103610639579160443591606435916084356001600160a01b0381168103610639579160a43561ffff81168103610639579160c4356001600160401b0381116106395781613c4091600401613b1b565b9290929160e4356001600160401b0381116106395781613c6291600401613b1b565b9290929161010435906001600160401b03821161063957613b8d91600401613b1b565b9190820180921161079857565b15613c9957565b60405162461bcd60e51b815260206004820152601060248201526f496e76616c696420646561646c696e6560801b6044820152606490fd5b15613cd857565b60405162461bcd60e51b815260206004820152600c60248201526b2d32b9379030b93134ba32b960a11b6044820152606490fd5b15613d1357565b60405162461bcd60e51b815260206004820152600d60248201526c496e76616c696420737461746560981b6044820152606490fd5b61024081019081106001600160401b0382111761078457604052565b90601f801991011681019081106001600160401b0382111761078457604052565b6001600160401b03811161078457601f01601f191660200190565b929192613dac82613d85565b91613dba6040519384613d64565b829481845281830111610639578281602093845f960137010152565b15613ddd57565b60405162461bcd60e51b815260206004820152601060248201526f496e76616c6964207265636f7665727960801b6044820152606490fd5b15613e1c57565b60405162461bcd60e51b81526020600482015260136024820152722ab730baba3437b934bd32b21039b4b3b732b960691b6044820152606490fd5b60405190613e66604083613d64565b601382527214185b1a5b991c9bdb5954185e55d85b1b195d606a1b6020830152565b60405190613e97604083613d64565b60018252603160f81b6020830152565b926080929594919560a08501967f8b73c3c69bb8fe3d512ecc4cf759cc79239f7b179b0ffacaa9a75d522b39400f865260208601526040850152606084015260018060a01b0316910152565b7f03ead94b7a0d2ab026418d8f153693558d351b0ee03896a32629040faf1baff4815260208101919091526001600160a01b0391821660408201529181166060830152909116608082015260ff9190911660a082015260c00190565b90600182811c92168015613f7d575b6020831014613f6957565b634e487b7160e01b5f52602260045260245ffd5b91607f1691613f5e565b908060209392818452848401375f828201840152601f01601f1916010190565b15613fae57565b60405162461bcd60e51b81526020600482015260116024820152704d697373696e672062757965722073696760781b6044820152606490fd5b15613fee57565b60405162461bcd60e51b81526020600482015260126024820152714d697373696e672073656c6c65722073696760701b6044820152606490fd5b1561402f57565b60405162461bcd60e51b81526020600482015260156024820152744e6f74206177616974696e672064656c697665727960581b6044820152606490fd5b1561407357565b60405162461bcd60e51b815260206004820152600e60248201526d446973707574652061637469766560901b6044820152606490fd5b156140b057565b60405162461bcd60e51b815260206004820152600a602482015269139bc819195c1bdcda5d60b21b6044820152606490fd5b156140e957565b60405162461bcd60e51b815260206004820152601460248201527313585d1d5c9a5d1e481b9bdd081c995858da195960621b6044820152606490fd5b9190820391821161079857565b1561413957565b60405162461bcd60e51b815260206004820152601f60248201527f416d6f756e7420746f6f20736d616c6c206166746572207472616e73666572006044820152606490fd5b1561418557565b60405162461bcd60e51b815260206004820152600c60248201526b139bdd08191a5cdc1d5d195960a21b6044820152606490fd5b156141c057565b60405162461bcd60e51b815260206004820152600b60248201526a27b7363c9039b2b63632b960a91b6044820152606490fd5b156141fa57565b60405162461bcd60e51b8152602060048201526011602482015270105b1c9958591e481cdd589b5a5d1d1959607a1b6044820152606490fd5b1561423a57565b60405162461bcd60e51b815260206004820152600b60248201526a57726f6e6720737461746560a81b6044820152606490fd5b9060405191825f82549261428084613f4f565b80845293600181169081156142eb57506001146142a7575b506142a592500383613d64565b565b90505f9291925260205f20905f915b8183106142cf5750509060206142a5928201015f614298565b60209193508060019154838589010152019101909184926142b6565b9050602092506142a594915060ff191682840152151560051b8201015f614298565b1561431457565b60405162461bcd60e51b815260206004820152600a602482015269546f6b656e207a65726f60b01b6044820152606490fd5b1561434d57565b60405162461bcd60e51b815260206004820152601160248201527042757965722073656c6c65722073616d6560781b6044820152606490fd5b1561438d57565b60405162461bcd60e51b815260206004820152600b60248201526a416d6f756e74207a65726f60a81b6044820152606490fd5b156143c757565b60405162461bcd60e51b81526020600482015260116024820152704d6174757269747920746f6f206c6f6e6760781b6044820152606490fd5b1561440757565b60405162461bcd60e51b815260206004820152601060248201526f105b5bdd5b9d081d1bdbc81cdb585b1b60821b6044820152606490fd5b1561444657565b60405162461bcd60e51b815260206004820152600f60248201526e24b73b30b634b21030b93134ba32b960891b6044820152606490fd5b1561448457565b60405162461bcd60e51b815260206004820152601360248201527241726269746572206d75737420626520454f4160681b6044820152606490fd5b156144c657565b60405162461bcd60e51b815260206004820152601e60248201527f417262697465722063616e6e6f742062652066656520726563656976657200006044820152606490fd5b5f1981146107985760010190565b1561452057565b60405162461bcd60e51b81526020600482015260126024820152714d696e203120646179206d6174757269747960701b6044820152606490fd5b906006811015610a225760ff80198354169116179055565b9694926145c09896926145b2959260018060a01b03168952602089015260018060a01b03166040880152606087015260c0608087015260c0860191613f87565b9260a0818503910152613f87565b90565b60025f54146145d25760025f55565b60405162461bcd60e51b815260206004820152601f60248201527f5265656e7472616e637947756172643a207265656e7472616e742063616c6c006044820152606490fd5b600154811015614679575f908152600260205260409020600101546001600160a01b03161561464257565b60405162461bcd60e51b815260206004820152600f60248201526e139bdd081a5b9a5d1a585b1a5e9959608a1b6044820152606490fd5b60405162461bcd60e51b8152602060048201526015602482015274115cd8dc9bddc8191bd95cc81b9bdd08195e1a5cdd605a1b6044820152606490fd5b9060410361471a575f5160206156d25f395f51905f52602060408301355f1a9201351161470b57601b81141590816146ff575b506146f057565b6307839aef60e21b5f5260045ffd5b601c915014155f6146e9565b6354b34b0360e01b5f5260045ffd5b6354f3472360e01b5f5260045ffd5b467f000000000000000000000000000000000000000000000000000000000000000003614774577f000000000000000000000000000000000000000000000000000000000000000090565b600d6020604051614786604082613d64565b828152016c50616c696e64726f6d6550617960981b815220610cc06147c86147ac613e88565b6020815191012060405192839160208301953091469188613ea7565b51902090565b9160410361471a57602081013560408201355f1a5f5160206156d25f395f51905f52821161470b57601b811415908161489f575b506146f0576040519060208201923060601b845284603484015235605483015260748201524660948201526094815261483c60b482613d64565b519020805f52600360205260ff60405f20541661489057805f52600360205260405f20600160ff198254161790557f5cf314d14d264e3917100f2209e080567dfef92e06bde70b72b0b21b38bc17d15f80a3565b63900bb2c960e01b5f5260045ffd5b601c915014155f614802565b908260081c825f52600560205260405f2060018060a01b0383165f5260205260405f20815f5260205260405f205491600160ff86161b808416614946577fbae8ea991a760004b9ed95b1be79b85f9327ac74867c0e7643319b89e1bc719193602093865f526005855260405f2060018060a01b0385165f52855260405f20905f5284521760405f205560405194855260018060a01b031693a3565b633ab3447f60e11b5f5260045ffd5b600290805f52816020525f5160206156f25f395f51905f526020600a60405f20016149858560ff8354169261455a565b6149926040518092613b91565ba3565b600390805f5260026020525f5160206156f25f395f51905f526020600a60405f20016149858560ff8354169261455a565b600190805f5260026020525f5160206156f25f395f51905f526020600a60405f20016149858560ff8354169261455a565b600590805f5260026020525f5160206156f25f395f51905f526020600a60405f20016149858560ff8354169261455a565b9293919060401901614b4b576001600160a01b038216938415614b425760208401359160408501355f1a905f5160206156d25f395f51905f528411614b2c57601b82141580614b37575b614b2c57614b1f95614b15614b0794610ced97614add614a90613e57565b6020815191012083614ac1614aa3613e88565b6020815191012092610cc06040519384926020840196469188613ea7565b51902095610cc060036040519485936020850197309189613ef3565b519020604051958691602083019586909160429261190160f01b8352600283015260228201520190565b03601f198101865285613d64565b359251902061554c565b6001600160a01b03161490565b505050505050505f90565b50601c821415614a72565b50505050505f90565b505050505f90565b9293919060401901614b4b576001600160a01b038216938415614b425760208401359160408501355f1a905f5160206156d25f395f51905f528411614b2c57601b82141580614bea575b614b2c57614b1f95614b15614b0794610ced97614add614bbb613e57565b6020815191012083614bce614aa3613e88565b51902095610cc060056040519485936020850197309189613ef3565b50601c821415614b9d565b9293919060401901614b4b576001600160a01b038216938415614b425760208401359160408501355f1a905f5160206156d25f395f51905f528411614b2c57601b82141580614c8c575b614b2c57614b1f95614b15614b0794610ced97614add614c5d613e57565b6020815191012083614c70614aa3613e88565b51902095610cc060046040519485936020850197309189613ef3565b50601c821415614c3f565b949293929060401901614b42576001600160a01b038316948515614d4e5760208101359260408201355f1a915f5160206156d25f395f51905f528511614d3757601b83141580614d43575b614d3757614cee613e57565b6020815191012087614d01614aa3613e88565b519020916006851015610a2257614b1f97610ced97614add614b1593610cc0614b07996040519485936020850197309189613ef3565b50505050505050505f90565b50601c831415614ce2565b5050505050505f90565b9091815f52600260205260405f209160ff600a600585015494015460181c16600281115f14614e2d576001190160ff811161079857614d9690614f1b565b606484028481046064148515171561079857612710900490808210614e255750925b80841015613451576080614dda855f5160206156b25f395f51905f5293614125565b604080516001600160a01b039889168152602081018390527f0000000000000000000000000000000000000000000000000000000000000000909816908801526060870186905295a2565b905092614db8565b50614d965f614f1b565b91825f526002602052600560405f200154925f5160206156b25f395f51905f5260805f946040519060018060a01b0316815286602082015260018060a01b037f00000000000000000000000000000000000000000000000000000000000000001660408201525f6060820152a2565b5f908152600260205260409020600101546001600160a01b03163303614ec857565b6386efbb5560e01b5f5260045ffd5b6040516323b872dd60e01b60208201526001600160a01b0392831660248201529290911660448301526064808301939093529181526142a591611a35608483613d64565b60ff16604d811161079857600a0a90565b614f3590614f1b565b80600a0290600a8204036107985790565b5f52600260205260405f2060018060a01b036001820154163314159081614f7e575b50614f6f57565b631cfe2f0560e11b5f5260045ffd5b600201546001600160a01b031633141590505f614f68565b506101f410614fa157565b60405162461bcd60e51b815260206004820152601860248201527f496e76616c696420495046532068617368206c656e67746800000000000000006044820152606490fd5b508015159081615035575b5015614ff957565b60405162461bcd60e51b8152602060048201526014602482015273092dcecc2d8d2c840e8d2e8d8ca40d8cadccee8d60631b6044820152606490fd5b6101f4915011155f614ff1565b60405163313ce56760e01b815290602090829060049082906001600160a01b0316617530fa5f918161511a575b506150b95760405162461bcd60e51b815260206004820152601f60248201527f546f6b656e206d75737420696d706c656d656e7420646563696d616c732829006044820152606490fd5b60ff81166006811015908161510e575b50156150d25790565b60405162461bcd60e51b8152602060048201526014602482015273556e737570706f7274656420646563696d616c7360601b6044820152606490fd5b6012915011155f6150c9565b9091506020813d602011615150575b8161513660209383613d64565b81010312610639575160ff8116810361063957905f61506f565b3d9150615129565b9061ffff16906107d082116151c4576001600160a01b031615801591906151bb575b501561518257565b60405162461bcd60e51b81526020600482015260116024820152702332b2903732b2b2399030b93134ba32b960791b6044820152606490fd5b9050155f61517a565b60405162461bcd60e51b8152602060048201526014602482015273082e4c4d2e8cae440cccaca40e8dede40d0d2ced60631b6044820152606490fd5b9081602091031261063957516001600160a01b03811681036106395790565b604051633aa159bd60e21b815230600482015260248101919091526020816044816001600160a01b037f0000000000000000000000000000000000000000000000000000000000000000165afa908115610645575f9161527d575090565b6145c0915060203d60201161529f575b6152978183613d64565b810190615200565b503d61528d565b60405163a5e3875160e01b815260048101919091526020816024815f7f00000000000000000000000000000000000000000000000000000000000000006001600160a01b03165af1908115610645575f9161527d575090565b9060418151145f1461532757613b8d91602082015190606060408401519301515f1a9061554c565b50505f90600290565b6005811015610a2257806153415750565b6001810361538e5760405162461bcd60e51b815260206004820152601860248201527f45434453413a20696e76616c6964207369676e617475726500000000000000006044820152606490fd5b600281036153db5760405162461bcd60e51b815260206004820152601f60248201527f45434453413a20696e76616c6964207369676e6174757265206c656e677468006044820152606490fd5b6003146153e457565b60405162461bcd60e51b815260206004820152602260248201527f45434453413a20696e76616c6964207369676e6174757265202773272076616c604482015261756560f01b6064820152608490fd5b906154b39160018060a01b03165f8060405193615452604086613d64565b602085527f5361666545524332303a206c6f772d6c6576656c2063616c6c206661696c6564602086015260208151910182855af13d15615544573d9161549783613d85565b926154a56040519485613d64565b83523d5f602085013e6155b4565b8051908115918215615521575b5050156154c957565b60405162461bcd60e51b815260206004820152602a60248201527f5361666545524332303a204552433230206f7065726174696f6e20646964206e6044820152691bdd081cdd58d8d9595960b21b6064820152608490fd5b819250906020918101031261063957602001518015158103610639575f806154c0565b6060916155b4565b5f5160206156d25f395f51905f5284116155a9576020935f9360ff60809460405194855216868401526040830152606082015282805260015afa15610645575f516001600160a01b038116156155a157905f90565b505f90600190565b505050505f90600390565b9192901561561657508151156155c8575090565b3b156155d15790565b60405162461bcd60e51b815260206004820152601d60248201527f416464726573733a2063616c6c20746f206e6f6e2d636f6e74726163740000006044820152606490fd5b8251909150156156295750805190602001fd5b60405162461bcd60e51b81526020600482015290819061564d906024830190613b9e565b0390fdfe174e8bcc6cd491d4b67e8de6434204bcd60d47ac398eb1b84c75377f8143e055d3e0574cb952cf8d88c9c2b97882e6000237da1d62a64753eaddaf4d9ce7351b9eedc423c5404cfbb1c4a1a8143c199705d49105373899268143a1a9e3f06bb54efd0eb8137437cc21ded7c1b056cd5a6e457ad8830e42d74bb9ba46144dbe837fffffffffffffffffffffffffffffff5d576e7357a4501ddfe92f46681b20a018e785d11512625ba8e5486b7d963f337dfc0a628752fe18e284b0375eefe46ca26469706673582212202202dd45ec307898cf4206f59517860c2132013cf2fe9539b27ab96551dfe2cd64736f6c634300081d0033",
  "linkReferences": {},
  "deployedLinkReferences": {},
  "immutableReferences": {
    "3211": [
      {
        "length": 32,
        "start": 570
      },
      {
        "length": 32,
        "start": 2663
      },
      {
        "length": 32,
        "start": 3034
      },
      {
        "length": 32,
        "start": 5524
      },
      {
        "length": 32,
        "start": 6590
      },
      {
        "length": 32,
        "start": 13311
      },
      {
        "length": 32,
        "start": 19956
      },
      {
        "length": 32,
        "start": 20088
      }
    ],
    "3215": [
      {
        "length": 32,
        "start": 14494
      },
      {
        "length": 32,
        "start": 21066
      },
      {
        "length": 32,
        "start": 21188
      }
    ],
    "3218": [
      {
        "length": 32,
        "start": 18258
      }
    ],
    "3221": [
      {
        "length": 32,
        "start": 18220
      }
    ]
  },
  "inputSourceName": "project/contracts/PalindromePay.sol",
  "buildInfoId": "solc-0_8_29-4ad6775f21944eaa3f183c1b3d683fef373f2334"
}