{"abi":[{"type":"constructor","inputs":[{"name":"_escrowContract","type":"address","internalType":"address"},{"name":"_escrowId","type":"uint256","internalType":"uint256"}],"stateMutability":"nonpayable"},{"type":"function","name":"DOMAIN_SEPARATOR","inputs":[],"outputs":[{"name":"","type":"bytes32","internalType":"bytes32"}],"stateMutability":"view"},{"type":"function","name":"ESCROW_CONTRACT","inputs":[],"outputs":[{"name":"","type":"address","internalType":"address"}],"stateMutability":"view"},{"type":"function","name":"ESCROW_ID","inputs":[],"outputs":[{"name":"","type":"uint256","internalType":"uint256"}],"stateMutability":"view"},{"type":"function","name":"getAuthorizationDigest","inputs":[{"name":"participant","type":"address","internalType":"address"}],"outputs":[{"name":"","type":"bytes32","internalType":"bytes32"}],"stateMutability":"view"},{"type":"function","name":"getBalance","inputs":[],"outputs":[{"name":"","type":"uint256","internalType":"uint256"}],"stateMutability":"view"},{"type":"function","name":"getValidSignatureCount","inputs":[],"outputs":[{"name":"count","type":"uint256","internalType":"uint256"}],"stateMutability":"view"},{"type":"function","name":"isSignatureValid","inputs":[{"name":"participant","type":"address","internalType":"address"}],"outputs":[{"name":"","type":"bool","internalType":"bool"}],"stateMutability":"view"},{"type":"function","name":"withdraw","inputs":[],"outputs":[],"stateMutability":"nonpayable"},{"type":"function","name":"withdrawn","inputs":[],"outputs":[{"name":"","type":"bool","internalType":"bool"}],"stateMutability":"view"},{"type":"event","name":"Withdrawn","inputs":[{"name":"escrowId","type":"uint256","indexed":true,"internalType":"uint256"},{"name":"recipient","type":"address","indexed":true,"internalType":"address"},{"name":"netAmount","type":"uint256","indexed":false,"internalType":"uint256"},{"name":"feeReceiver","type":"address","indexed":true,"internalType":"address"},{"name":"feeAmount","type":"uint256","indexed":false,"internalType":"uint256"}],"anonymous":false},{"type":"error","name":"AlreadyWithdrawn","inputs":[]},{"type":"error","name":"FeeReceiverZero","inputs":[]},{"type":"error","name":"InsufficientSignatures","inputs":[]},{"type":"error","name":"InvalidEscrowState","inputs":[]},{"type":"error","name":"InvalidSignature","inputs":[]},{"type":"error","name":"OnlyParticipant","inputs":[]},{"type":"error","name":"SignatureLengthInvalid","inputs":[]},{"type":"error","name":"SignatureSInvalid","inputs":[]},{"type":"error","name":"SignatureVInvalid","inputs":[]},{"type":"error","name":"TokenAddressZero","inputs":[]},{"type":"error","name":"WalletNotEmpty","inputs":[]}],"bytecode":{"object":"0x61010080604052346101ce57604081611633803803809161002082856101d2565b8339810103126101ce5780516001600160a01b038116918282036101ce57602001519160015f551561019b5760805260a0524660e0526040516100646040826101d2565b601381527f50616c696e64726f6d6550617957616c6c657400000000000000000000000000602090910152604080517f87935900cf85ca6189e663d7248e1662ff19d0d4c4fd1ac66e148650615f0137916100bf90826101d2565b600181526020810190603160f81b82525190206040519060208201927f8b73c3c69bb8fe3d512ecc4cf759cc79239f7b179b0ffacaa9a75d522b39400f8452604083015260608201524660808201523060a082015260a0815261012360c0826101d2565b51902060c052604051611429908161020a82396080518181816101b30152818161062a015281816106dd01528181610a0f0152610b20015260a05181818161018301528181610670015281816106b2015281816109dc01528181610aec0152610d1b015260c05181610e79015260e05181610d9f0152f35b60405162461bcd60e51b815260206004820152600b60248201526a457363726f77207a65726f60a81b6044820152606490fd5b5f80fd5b601f909101601f19168101906001600160401b038211908210176101f557604052565b634e487b7160e01b5f52604160045260245ffdfe60806040526004361015610011575f80fd5b5f3560e01c806312065fe0146100a4578063145d07051461009f5780632a5851a21461009a5780633644e515146100955780633ccfd60b146100905780636e7949721461008b57806379a7a85c1461008657806393e74d7f146100815763c80ec5221461007c575f80fd5b610743565b610693565b610659565b610615565b61014d565b610133565b61010c565b6100db565b346100c6575f3660031901126100c65760206100be6109cd565b604051908152f35b5f80fd5b6001600160a01b038116036100c657565b346100c65760203660031901126100c65760206101026004356100fd816100ca565b610add565b6040519015158152f35b346100c65760203660031901126100c65760206100be60043561012e816100ca565b610cee565b346100c6575f3660031901126100c65760206100be610d9d565b346100c6575f3660031901126100c65760025f54146105d05760025f5560015460ff166105c157604051633e8cf2cb60e11b81527f0000000000000000000000000000000000000000000000000000000000000000600482018190526001600160a01b037f0000000000000000000000000000000000000000000000000000000000000000165f83602481845afa928315610412575f9361059d575b50610120830151916101fa83610c37565b61020383610c37565b6003831493841580610589575b80610575575b6105665780516001600160a01b0316156105575760208101805190919061024d906001600160a01b03165b6001600160a01b031690565b33141580610537575b80610517575b61050857600261026b82610ec2565b106104f957610281600160ff1981541617600155565b8051610295906001600160a01b0316610241565b6040516370a0823160e01b81523060048201526001600160a01b0382169790969193916020886024818c5afa978815610412575f986104d4575b506102d990610c37565b156104685750604081015160049291906020906001600160a01b0316956040519485809263d3e78e4d60e01b82525afa928315610412575f93610437575b506001600160a01b038316958615610428577f2b50bbeab304785e1247f1e22da0321897c428768d93e80ab1811e9baa9559019361036861037b926103626101808a96015160ff1690565b9061109c565b94819891928680610417575b5050610f59565b6040805195865260208601929092526001600160a01b031693a45b6040516370a0823160e01b815230600482015290602090829060249082905afa908115610412575f916103e3575b506103d4576103d260015f55565b005b631fea47ef60e01b5f5260045ffd5b610405915060203d60201161040b575b6103fd8183610779565b8101906109be565b5f6103c4565b503d6103f3565b6109b3565b6104219183610f59565b5f86610374565b630665334760e11b5f5260045ffd5b61045a91935060203d602011610461575b6104528183610779565b810190610c46565b915f610317565b503d610448565b515f9594507f2b50bbeab304785e1247f1e22da0321897c428768d93e80ab1811e9baa955901926104cc9250906104ab9086906001600160a01b03168093610f59565b604080519586525f60208701526001600160a01b0390911694918291820190565b0390a4610396565b6102d99198506104f29060203d60201161040b576103fd8183610779565b97906102cf565b633724e34360e11b5f5260045ffd5b630eebd6cd60e21b5f5260045ffd5b50606081015161052f906001600160a01b0316610241565b33141561025c565b50604081015161054f906001600160a01b0316610241565b331415610256565b6381c609f760e01b5f5260045ffd5b635448814d60e11b5f5260045ffd5b5061057f84610c37565b6005841415610216565b5061059384610c37565b6004841415610210565b6105ba9193503d805f833e6105b28183610779565b810190610847565b915f6101e9565b636507689f60e01b5f5260045ffd5b60405162461bcd60e51b815260206004820152601f60248201527f5265656e7472616e637947756172643a207265656e7472616e742063616c6c006044820152606490fd5b346100c6575f3660031901126100c6576040517f00000000000000000000000000000000000000000000000000000000000000006001600160a01b03168152602090f35b346100c6575f3660031901126100c65760206040517f00000000000000000000000000000000000000000000000000000000000000008152f35b346100c6575f3660031901126100c657604051633e8cf2cb60e11b81527f000000000000000000000000000000000000000000000000000000000000000060048201525f816024817f00000000000000000000000000000000000000000000000000000000000000006001600160a01b03165afa80156104125761071e915f91610729575b50610ec2565b604051908152602090f35b61073d91503d805f833e6105b28183610779565b5f610718565b346100c6575f3660031901126100c657602060ff600154166040519015158152f35b634e487b7160e01b5f52604160045260245ffd5b90601f8019910116810190811067ffffffffffffffff82111761079b57604052565b610765565b604051906107b061020083610779565b565b51906107b0826100ca565b519060068210156100c657565b519081151582036100c657565b519060ff821682036100c657565b67ffffffffffffffff811161079b57601f01601f191660200190565b81601f820112156100c657805190610818826107e5565b926108266040519485610779565b828452602083830101116100c657815f9260208093018386015e8301015290565b6020818303126100c65780519067ffffffffffffffff82116100c65701610200818303126100c6576108776107a0565b91610881826107b2565b835261088f602083016107b2565b60208401526108a0604083016107b2565b60408401526108b1606083016107b2565b60608401526108c2608083016107b2565b608084015260a082015160a084015260c082015160c084015260e082015160e08401526101008201516101008401526108fe61012083016107bd565b61012084015261091161014083016107ca565b61014084015261092461016083016107ca565b61016084015261093761018083016107d7565b6101808401526101a082015167ffffffffffffffff81116100c6578161095e918401610801565b6101a08401526101c082015167ffffffffffffffff81116100c65781610985918401610801565b6101c08401526101e082015167ffffffffffffffff81116100c6576109aa9201610801565b6101e082015290565b6040513d5f823e3d90fd5b908160209103126100c6575190565b604051633e8cf2cb60e11b81527f000000000000000000000000000000000000000000000000000000000000000060048201525f816024816001600160a01b037f0000000000000000000000000000000000000000000000000000000000000000165afa801561041257610a50915f91610ac3575b50516001600160a01b031690565b6001600160a01b03811615610abe57610a71906001600160a01b0316610241565b6040516370a0823160e01b815230600482015290602090829060249082905afa908115610412575f91610aa2575090565b610abb915060203d60201161040b576103fd8183610779565b90565b505f90565b610ad791503d805f833e6105b28183610779565b5f610a42565b604051633e8cf2cb60e11b81527f00000000000000000000000000000000000000000000000000000000000000006004820152905f826024816001600160a01b037f0000000000000000000000000000000000000000000000000000000000000000165afa918215610412575f92610c07575b50602082018051909190610b6c906001600160a01b0316610241565b6001600160a01b03909116908103610b9e57506101c091909101519051610abb91906001600160a01b03165b90610c5b565b604083018051909250610bb9906001600160a01b0316610241565b8103610bdd57506101a091909101519051610abb91906001600160a01b0316610b98565b60608301516001600160a01b031691508114610bf95750505f90565b6101e0610abb920151610c5b565b610c1c9192503d805f833e6105b28183610779565b905f610b50565b634e487b7160e01b5f52602160045260245ffd5b60061115610c4157565b610c23565b908160209103126100c65751610abb816100ca565b6041815103610ce8576001600160a01b038216918215610ce157602082015191606060408201519101515f1a926fa2a8918ca85bafe22016d0b997e4df60600160ff1b038211610ccd57601b84141580610cd6575b610ccd57610cc993610cc461024194610cee565b611110565b1490565b50505050505f90565b50601c841415610cb0565b5050505f90565b50505f90565b60405160208101917f783cf3fdc83d5b0c9e236f4e0bfa8f022a2090d21a4c53f5f99df0d607781fa183527f0000000000000000000000000000000000000000000000000000000000000000604083015230606083015260018060a01b0316608082015260808152610d6160a082610779565b519020610d6c610d9d565b9060405190602082019261190160f01b84526022830152604282015260428152610d97606282610779565b51902090565b7f00000000000000000000000000000000000000000000000000000000000000004614610e77576040610e69610d97601360208451610ddc8682610779565b828152017214185b1a5b991c9bdb5954185e55d85b1b195d606a1b81522092600160208251610e0b8482610779565b828152603160f81b91019081522090517f8b73c3c69bb8fe3d512ecc4cf759cc79239f7b179b0ffacaa9a75d522b39400f60208201908152604082019590955260608101919091524660808201523060a082015291829060c0820190565b03601f198101835282610779565b7f000000000000000000000000000000000000000000000000000000000000000090565b634e487b7160e01b5f52601160045260245ffd5b5f198114610ebd5760010190565b610e9b565b6101c081015160208201515f939291610ee4916001600160a01b031690610c5b565b610f50575b610f056101a082015160018060a01b0360408401511690610c5b565b610f3b575b6101e0810151606090910151610f2b916001600160a01b0390911690610c5b565b610f3157565b90610abb90610eaf565b91610f48610f2b91610eaf565b929050610f0a565b60019250610ee9565b9161100d915f806107b09560405194602086019463a9059cbb60e01b865260018060a01b03166024870152604486015260448552610f98606486610779565b60018060a01b03169260405194610fb0604087610779565b602086527f5361666545524332303a206c6f772d6c6576656c2063616c6c206661696c65646020870152519082855af13d1561103b573d91610ff1836107e5565b92610fff6040519485610779565b83523d5f602085013e611381565b8051908115918215611021575b505061113b565b6110349250602080918301019101611127565b5f8061101a565b606091611381565b1561104a57565b60405162461bcd60e51b815260206004820152601860248201527f416d6f756e7420746f6f20736d616c6c20666f722066656500000000000000006044820152606490fd5b91908203918211610ebd57565b9060ff166002811115611107576001190160ff8111610ebd5760ff905b16604d8111610ebd57600a0a606482029082820460641483151715610ebd576110fd9161271090049080821061110057505b80926110f8818310611043565b61108f565b91565b90506110eb565b5060ff5f6110b9565b91610abb939161111f9361119a565b919091611215565b908160209103126100c657610abb906107ca565b1561114257565b60405162461bcd60e51b815260206004820152602a60248201527f5361666545524332303a204552433230206f7065726174696f6e20646964206e6044820152691bdd081cdd58d8d9595960b21b6064820152608490fd5b6fa2a8918ca85bafe22016d0b997e4df60600160ff1b038411611200576020935f9360ff60809460405194855216868401526040830152606082015282805260015afa15610412575f516001600160a01b038116156111f857905f90565b505f90600190565b505050505f90600390565b60051115610c4157565b61121e8161120b565b806112265750565b61122f8161120b565b6001810361127c5760405162461bcd60e51b815260206004820152601860248201527f45434453413a20696e76616c6964207369676e617475726500000000000000006044820152606490fd5b6112858161120b565b600281036112d25760405162461bcd60e51b815260206004820152601f60248201527f45434453413a20696e76616c6964207369676e6174757265206c656e677468006044820152606490fd5b806112de60039261120b565b146112e557565b60405162461bcd60e51b815260206004820152602260248201527f45434453413a20696e76616c6964207369676e6174757265202773272076616c604482015261756560f01b6064820152608490fd5b1561133c57565b60405162461bcd60e51b815260206004820152601d60248201527f416464726573733a2063616c6c20746f206e6f6e2d636f6e74726163740000006044820152606490fd5b919290156113a15750815115611395575090565b610abb903b1515611335565b8251909150156113b45750805190602001fd5b604460209160405192839162461bcd60e51b83528160048401528051918291826024860152018484015e5f828201840152601f01601f19168101030190fdfea2646970667358221220f439d2f95eda0d25ef0ed72b00b4e5a81ac331b219a4bf874b7e15fb3e8e524a64736f6c634300081d0033","linkReferences":{}},"methodIdentifiers":{"DOMAIN_SEPARATOR()":"3644e515","ESCROW_CONTRACT()":"6e794972","ESCROW_ID()":"79a7a85c","getAuthorizationDigest(address)":"2a5851a2","getBalance()":"12065fe0","getValidSignatureCount()":"93e74d7f","isSignatureValid(address)":"145d0705","withdraw()":"3ccfd60b","withdrawn()":"c80ec522"},"id":1}