{
  "_format": "hh3-artifact-1",
  "contractName": "PalindromeEscrowWallet",
  "sourceName": "contracts/PalindromeEscrowWallet.sol",
  "abi": [
    {
      "inputs": [
        {
          "internalType": "address",
          "name": "_escrowContract",
          "type": "address"
        },
        {
          "internalType": "uint256",
          "name": "_escrowId",
          "type": "uint256"
        },
        {
          "internalType": "address",
          "name": "_token",
          "type": "address"
        },
        {
          "internalType": "address",
          "name": "_buyer",
          "type": "address"
        },
        {
          "internalType": "address",
          "name": "_seller",
          "type": "address"
        },
        {
          "internalType": "address",
          "name": "_arbiter",
          "type": "address"
        },
        {
          "internalType": "address",
          "name": "_feeTo",
          "type": "address"
        },
        {
          "internalType": "uint256",
          "name": "_netAmount",
          "type": "uint256"
        },
        {
          "internalType": "uint256",
          "name": "_feeAmount",
          "type": "uint256"
        },
        {
          "internalType": "uint8",
          "name": "_threshold",
          "type": "uint8"
        }
      ],
      "stateMutability": "nonpayable",
      "type": "constructor"
    },
    {
      "anonymous": false,
      "inputs": [
        {
          "indexed": true,
          "internalType": "uint256",
          "name": "nonce",
          "type": "uint256"
        },
        {
          "indexed": true,
          "internalType": "address",
          "name": "token",
          "type": "address"
        },
        {
          "indexed": false,
          "internalType": "address",
          "name": "to",
          "type": "address"
        },
        {
          "indexed": false,
          "internalType": "uint256",
          "name": "netAmount",
          "type": "uint256"
        },
        {
          "indexed": false,
          "internalType": "address",
          "name": "feeTo",
          "type": "address"
        },
        {
          "indexed": false,
          "internalType": "uint256",
          "name": "feeAmount",
          "type": "uint256"
        }
      ],
      "name": "SplitExecuted",
      "type": "event"
    },
    {
      "inputs": [],
      "name": "arbiter",
      "outputs": [
        {
          "internalType": "address",
          "name": "",
          "type": "address"
        }
      ],
      "stateMutability": "view",
      "type": "function"
    },
    {
      "inputs": [],
      "name": "buyer",
      "outputs": [
        {
          "internalType": "address",
          "name": "",
          "type": "address"
        }
      ],
      "stateMutability": "view",
      "type": "function"
    },
    {
      "inputs": [],
      "name": "escrowContract",
      "outputs": [
        {
          "internalType": "address",
          "name": "",
          "type": "address"
        }
      ],
      "stateMutability": "view",
      "type": "function"
    },
    {
      "inputs": [],
      "name": "escrowId",
      "outputs": [
        {
          "internalType": "uint256",
          "name": "",
          "type": "uint256"
        }
      ],
      "stateMutability": "view",
      "type": "function"
    },
    {
      "inputs": [
        {
          "internalType": "address",
          "name": "to",
          "type": "address"
        },
        {
          "internalType": "bytes[3]",
          "name": "signatures",
          "type": "bytes[3]"
        }
      ],
      "name": "executeERC20Split",
      "outputs": [],
      "stateMutability": "nonpayable",
      "type": "function"
    },
    {
      "inputs": [],
      "name": "feeAmount",
      "outputs": [
        {
          "internalType": "uint256",
          "name": "",
          "type": "uint256"
        }
      ],
      "stateMutability": "view",
      "type": "function"
    },
    {
      "inputs": [],
      "name": "feeTo",
      "outputs": [
        {
          "internalType": "address",
          "name": "",
          "type": "address"
        }
      ],
      "stateMutability": "view",
      "type": "function"
    },
    {
      "inputs": [],
      "name": "getOwners",
      "outputs": [
        {
          "internalType": "address[]",
          "name": "",
          "type": "address[]"
        }
      ],
      "stateMutability": "view",
      "type": "function"
    },
    {
      "inputs": [
        {
          "internalType": "address",
          "name": "account",
          "type": "address"
        }
      ],
      "name": "isOwner",
      "outputs": [
        {
          "internalType": "bool",
          "name": "",
          "type": "bool"
        }
      ],
      "stateMutability": "view",
      "type": "function"
    },
    {
      "inputs": [],
      "name": "netAmount",
      "outputs": [
        {
          "internalType": "uint256",
          "name": "",
          "type": "uint256"
        }
      ],
      "stateMutability": "view",
      "type": "function"
    },
    {
      "inputs": [],
      "name": "nonce",
      "outputs": [
        {
          "internalType": "uint256",
          "name": "",
          "type": "uint256"
        }
      ],
      "stateMutability": "view",
      "type": "function"
    },
    {
      "inputs": [],
      "name": "seller",
      "outputs": [
        {
          "internalType": "address",
          "name": "",
          "type": "address"
        }
      ],
      "stateMutability": "view",
      "type": "function"
    },
    {
      "inputs": [],
      "name": "threshold",
      "outputs": [
        {
          "internalType": "uint8",
          "name": "",
          "type": "uint8"
        }
      ],
      "stateMutability": "view",
      "type": "function"
    },
    {
      "inputs": [],
      "name": "token",
      "outputs": [
        {
          "internalType": "address",
          "name": "",
          "type": "address"
        }
      ],
      "stateMutability": "view",
      "type": "function"
    }
  ],
  "bytecode": "0x6101e0806040523461050157610140816121de80380380916100218285610505565b833981010312610501576100348161053c565b9060208101516100466040830161053c565b6100526060840161053c565b61005e6080850161053c565b61006a60a0860161053c565b9161007760c0870161053c565b9360e0870151956101206101008901519801519860ff8a16808b036105015760015f556001600160a01b038216156104ce576001600160a01b0385161515806104bc575b806104aa575b15610476576002036104315788880180891161041d5789898210159182610412575b5050156103db5760805260a0526101805260c05260e052610100526101205261014052610160526101a05260405161011c604082610505565b601681527f50616c696e64726f6d65457363726f7757616c6c657400000000000000000000602090910152604080517fd5841ac2316671d82a0b6316f3b37c25b9263de2e5c9e54cefc98911e9c1f8df916101779082610505565b600181526020810190603160f81b82525190206040519060208201927f8b73c3c69bb8fe3d512ecc4cf759cc79239f7b179b0ffacaa9a75d522b39400f8452604083015260608201524660808201523060a082015260a081526101db60c082610505565b5190206101c052604051611c8d90816105518239608051818181610157015261043c015260a05181818161040b01526116a1015260c0518181816101d701528181610859015281816112a0015281816114cd01528181611621015261172f015260e05181818161020d015281816103c0015281816104ae0152818161087e015281816117a001526117e601526101005181818160cb01528181610246015281816108a60152818161149b015261176d015261012051818181610360015281816106c30152818161079901528181610bc201528181610d2401528181610fbb01526118270152610140518181816102e90152818161038f015281816104fb0152818161051d01528181610543015281816105850152818161062901528181610cb201528181610cfe01528181610e820152818161101301526112160152610160518181816104da015281816105640152818161060801528181610b2a01528181610c9101528181610d4e01528181610e0e01528181610f9a015281816111d4015281816111f5015281816115390152611667015261018051818181610113015281816105cd0152818161067b015281816106f80152818161076901528181610b7a01528181610bf701528181610c4401528181610d7401528181610fdc015261103501526101a051818181610aec01526116dd01526101c051816107ea0152f35b60405162461bcd60e51b815260206004820152600f60248201526e416d6f756e74206f766572666c6f7760881b6044820152606490fd5b10159050895f6100e3565b634e487b7160e01b5f52601160045260245ffd5b60405162461bcd60e51b815260206004820152601360248201527f5468726573686f6c64206d7573742062652032000000000000000000000000006044820152606490fd5b60405162461bcd60e51b815260206004820152600c60248201526b5a65726f206164647265737360a01b6044820152606490fd5b506001600160a01b03871615156100c1565b506001600160a01b03861615156100bb565b60405162461bcd60e51b815260206004820152600b60248201526a457363726f77207a65726f60a81b6044820152606490fd5b5f80fd5b601f909101601f19168101906001600160401b0382119082101761052857604052565b634e487b7160e01b5f52604160045260245ffd5b51906001600160a01b03821682036105015756fe6080806040526004361015610012575f80fd5b5f3560e01c908163017e7e58146118155750806308551a53146117d15780632f54bf6e1461170157806342cde4e8146116c45780635753d9891461168a57806369e15404146116505780637150d8ae1461160c5780637652a7c11461030c5780637c16073c146102d2578063a0e67e2b146101a3578063affed0e014610186578063e42a96e714610142578063fc0c546a146100fe5763fe25e00a146100b6575f80fd5b346100fa575f3660031901126100fa576040517f00000000000000000000000000000000000000000000000000000000000000006001600160a01b03168152602090f35b5f80fd5b346100fa575f3660031901126100fa576040517f00000000000000000000000000000000000000000000000000000000000000006001600160a01b03168152602090f35b346100fa575f3660031901126100fa576040517f00000000000000000000000000000000000000000000000000000000000000006001600160a01b03168152602090f35b346100fa575f3660031901126100fa576020600154604051908152f35b346100fa575f3660031901126100fa576040516101c160808261186c565b600381526020810160603682378151156102be577f00000000000000000000000000000000000000000000000000000000000000006001600160a01b031681528151600110156102be577f00000000000000000000000000000000000000000000000000000000000000006001600160a01b031660408301528151600210156102be577f00000000000000000000000000000000000000000000000000000000000000006001600160a01b03166060830152604080516020808252935193810184905292839291830191905f5b81811061029c575050500390f35b82516001600160a01b031684528594506020938401939092019160010161028e565b634e487b7160e01b5f52603260045260245ffd5b346100fa575f3660031901126100fa5760206040517f00000000000000000000000000000000000000000000000000000000000000008152f35b346100fa5760403660031901126100fa57610325611856565b67ffffffffffffffff602435116100fa5736606460243501116100fa5760025f54146115c75760025f556001600160a01b03811615611591577f00000000000000000000000000000000000000000000000000000000000000006001600160a01b03161561155f577f00000000000000000000000000000000000000000000000000000000000000001580158091611536575b156114fb57337f00000000000000000000000000000000000000000000000000000000000000006001600160a01b03161480156114c9575b8015611497575b1561144657604051633e8cf2cb60e11b81527f00000000000000000000000000000000000000000000000000000000000000006004820181905291906101a0816024817f00000000000000000000000000000000000000000000000000000000000000006001600160a01b03165afa908115610f24575f9161139b575b5060068110158061132657600382149081801561138f575b81811561137f575b501561133a57611326571561128157506001600160a01b037f000000000000000000000000000000000000000000000000000000000000000081169084160361123c575b7f00000000000000000000000000000000000000000000000000000000000000007f0000000000000000000000000000000000000000000000000000000000000000017f000000000000000000000000000000000000000000000000000000000000000011610a27577f00000000000000000000000000000000000000000000000000000000000000007f00000000000000000000000000000000000000000000000000000000000000007f00000000000000000000000000000000000000000000000000000000000000000111806111d1575b156111a1576040516370a0823160e01b8152306004820152926020846024817f00000000000000000000000000000000000000000000000000000000000000006001600160a01b03165afa938415610f24575f9461116d575b507f00000000000000000000000000000000000000000000000000000000000000007f0000000000000000000000000000000000000000000000000000000000000000018410611128576040516370a0823160e01b81526001600160a01b038281166004830152909490602090869060249082907f0000000000000000000000000000000000000000000000000000000000000000165afa948515610f24575f956110f4575b506040516370a0823160e01b81526001600160a01b037f000000000000000000000000000000000000000000000000000000000000000081166004830152909290602090849060249082907f0000000000000000000000000000000000000000000000000000000000000000165afa928315610f24575f936110c0575b50600154604080517f4574eba8a3a3262b6030499f2d73c16df506db9a10207de6df537d3e9609912860208201908152918101979097526001600160a01b037f00000000000000000000000000000000000000000000000000000000000000008116606089015283811660808901527f00000000000000000000000000000000000000000000000000000000000000001660a088015260c0808801839052875290956107d560e08261186c565b519020604051602081019161190160f01b83527f0000000000000000000000000000000000000000000000000000000000000000602283015260428201526042815261082260628261186c565b519020915f946040519788606081011067ffffffffffffffff60608b0111176110ac57606089810160409081526001600160a01b037f000000000000000000000000000000000000000000000000000000000000000081168c527f0000000000000000000000000000000000000000000000000000000000000000811660208d01527f000000000000000000000000000000000000000000000000000000000000000016818c01525192989296919591949293919291906108e3908861186c565b60603688375f985b600360ff8b161015610ae3576004611fe08b60051b166024350101356022196024353603018112156100fa576024350196600488013567ffffffffffffffff81116100fa57602489019080360382136100fa57604103610a505760648901355f1a98604401356fa2a8918ca85bafe22016d0b997e4df60600160ff1b038111610ab257601b8a148015610aa8575b15610a77576109969961098e92359088611a2e565b989098611a9f565b6001600160a01b03881615610a64575f5b600360ff82161015610a50576001600160a01b036109c860ff83168f6118bc565b51166001600160a01b038a161480610a3b575b6109ea5760010160ff166109a7565b60ff92959850610a06836001929d9c93969995989d168b6118bc565b521660ff8114610a275760018060ff9201995b0116989390949195926108eb565b634e487b7160e01b5f52601160045260245ffd5b50610a4960ff82168b6118bc565b51156109db565b50929591949960ff91949750600190610a19565b929591949960ff91949750600190610a19565b60405162461bcd60e51b815260206004820152600960248201526824b73b30b634b2103b60b91b6044820152606490fd5b50601c8a14610979565b60405162461bcd60e51b8152602060048201526009602482015268496e76616c6964207360b81b6044820152606490fd5b8686868b60ff807f000000000000000000000000000000000000000000000000000000000000000016911610611067575f198114610a2757600184910160015561100e575b7f0000000000000000000000000000000000000000000000000000000000000000151580610f95575b6040516370a0823160e01b81526001600160a01b038781166004830152602090829060249082907f0000000000000000000000000000000000000000000000000000000000000000165afa908115610f24575f91610f63575b506040516370a0823160e01b81526001600160a01b037f000000000000000000000000000000000000000000000000000000000000000081166004830152909490602090869060249082907f0000000000000000000000000000000000000000000000000000000000000000165afa948515610f24575f95610f2f575b506040516370a0823160e01b8152306004820152956020876024817f00000000000000000000000000000000000000000000000000000000000000006001600160a01b03165afa968715610f24575f97610ef0575b50610e7c575b5050610e08575b5050610cd8907f00000000000000000000000000000000000000000000000000000000000000007f000000000000000000000000000000000000000000000000000000000000000001926118af565b03610dc3576001545f198101908111610a2757604080516001600160a01b0393841681527f000000000000000000000000000000000000000000000000000000000000000060208201527f00000000000000000000000000000000000000000000000000000000000000008416918101919091527f000000000000000000000000000000000000000000000000000000000000000060608201527f0000000000000000000000000000000000000000000000000000000000000000909216917f457938e2512bd940a38c710d197d7fdd21dac266a89e0e19e9e7c24e3822ee5d90608090a360015f55005b60405162461bcd60e51b815260206004820152601760248201527f57616c6c65742062616c616e6365206d69736d617463680000000000000000006044820152606490fd5b610e33907f0000000000000000000000000000000000000000000000000000000000000000926118af565b03610e3f578380610c89565b60405162461bcd60e51b815260206004820152601560248201527408ccaca40e8e4c2dce6cccae440dad2e6dac2e8c6d605b1b6044820152606490fd5b610ea7907f0000000000000000000000000000000000000000000000000000000000000000926118af565b03610eb3578680610c82565b60405162461bcd60e51b815260206004820152601560248201527409ccae840e8e4c2dce6cccae440dad2e6dac2e8c6d605b1b6044820152606490fd5b9096506020813d602011610f1c575b81610f0c6020938361186c565b810103126100fa57519589610c7c565b3d9150610eff565b6040513d5f823e3d90fd5b9094506020813d602011610f5b575b81610f4b6020938361186c565b810103126100fa57519388610c27565b3d9150610f3e565b90506020813d602011610f8d575b81610f7e6020938361186c565b810103126100fa575187610baa565b3d9150610f71565b6110097f00000000000000000000000000000000000000000000000000000000000000007f00000000000000000000000000000000000000000000000000000000000000007f00000000000000000000000000000000000000000000000000000000000000006001600160a01b03166118cd565b610b51565b6110627f0000000000000000000000000000000000000000000000000000000000000000867f00000000000000000000000000000000000000000000000000000000000000006001600160a01b03166118cd565b610b28565b60405162461bcd60e51b815260206004820152601760248201527f496e73756666696369656e74207369676e6174757265730000000000000000006044820152606490fd5b634e487b7160e01b5f52604160045260245ffd5b9092506020813d6020116110ec575b816110dc6020938361186c565b810103126100fa57519186610728565b3d91506110cf565b9094506020813d602011611120575b816111106020938361186c565b810103126100fa575193856106ab565b3d9150611103565b60405162461bcd60e51b815260206004820152601b60248201527f496e73756666696369656e742077616c6c65742062616c616e636500000000006044820152606490fd5b9093506020813d602011611199575b816111896020938361186c565b810103126100fa57519284610605565b3d915061117c565b60405162461bcd60e51b81526020600482015260086024820152674f766572666c6f7760c01b6044820152606490fd5b507f00000000000000000000000000000000000000000000000000000000000000007f00000000000000000000000000000000000000000000000000000000000000007f000000000000000000000000000000000000000000000000000000000000000001116105ac565b60405162461bcd60e51b815260206004820152601b60248201527f4d757374207061792073656c6c6572206f6e20434f4d504c45544500000000006044820152606490fd5b6004811490811561131b575b50156104d8576001600160a01b038381167f0000000000000000000000000000000000000000000000000000000000000000909116146104d85760405162461bcd60e51b815260206004820152602660248201527f4d75737420726566756e64206275796572206f6e20524546554e4445442f43416044820152651390d153115160d21b6064820152608490fd5b60059150148461128d565b634e487b7160e01b5f52602160045260245ffd5b60405162461bcd60e51b815260206004820152601760248201527f457363726f77206e6f74207061796f75742d72656164790000000000000000006044820152606490fd5b9050611326576005831481610494565b50505f6004831461048c565b90506101a0813d821161143e575b816113b76101a0938361186c565b810103126100fa576113c88161188e565b506113d56020820161188e565b506113e26040820161188e565b506113ef6060820161188e565b506113fc6080820161188e565b506101208101519060068210156100fa578061141e61014061018093016118a2565b5061142c61016082016118a2565b50015160ff8116036100fa5784610474565b3d91506113a9565b60405162461bcd60e51b815260206004820152602360248201527f65786563757465455243323053706c69743a204f6e6c79207061727469636970604482015262185b9d60ea1b6064820152608490fd5b50337f00000000000000000000000000000000000000000000000000000000000000006001600160a01b0316146103f7565b50337f00000000000000000000000000000000000000000000000000000000000000006001600160a01b0316146103f0565b60405162461bcd60e51b81526020600482015260136024820152722737ba3434b733903a37903a3930b739b332b960691b6044820152606490fd5b507f000000000000000000000000000000000000000000000000000000000000000015156103b8565b60405162461bcd60e51b815260206004820152600a602482015269466565546f207a65726f60b01b6044820152606490fd5b60405162461bcd60e51b815260206004820152600e60248201526d526563697069656e74207a65726f60901b6044820152606490fd5b60405162461bcd60e51b815260206004820152601f60248201527f5265656e7472616e637947756172643a207265656e7472616e742063616c6c006044820152606490fd5b346100fa575f3660031901126100fa576040517f00000000000000000000000000000000000000000000000000000000000000006001600160a01b03168152602090f35b346100fa575f3660031901126100fa5760206040517f00000000000000000000000000000000000000000000000000000000000000008152f35b346100fa575f3660031901126100fa5760206040517f00000000000000000000000000000000000000000000000000000000000000008152f35b346100fa575f3660031901126100fa57602060405160ff7f0000000000000000000000000000000000000000000000000000000000000000168152f35b346100fa5760203660031901126100fa5760206001600160a01b03611724611856565b166001600160a01b037f000000000000000000000000000000000000000000000000000000000000000016811490811561179e575b811561176b575b506040519015158152f35b7f00000000000000000000000000000000000000000000000000000000000000006001600160a01b031614905082611760565b7f00000000000000000000000000000000000000000000000000000000000000006001600160a01b031681149150611759565b346100fa575f3660031901126100fa576040517f00000000000000000000000000000000000000000000000000000000000000006001600160a01b03168152602090f35b346100fa575f3660031901126100fa577f00000000000000000000000000000000000000000000000000000000000000006001600160a01b03168152602090f35b600435906001600160a01b03821682036100fa57565b90601f8019910116810190811067ffffffffffffffff8211176110ac57604052565b51906001600160a01b03821682036100fa57565b519081151582036100fa57565b91908203918211610a2757565b9060038110156102be5760051b0190565b5f809193929360405193602085019563a9059cbb60e01b875260018060a01b0316602486015260448501526044845261190760648561186c565b60018060a01b0316936040519361191f60408661186c565b602085527f5361666545524332303a206c6f772d6c6576656c2063616c6c206661696c65646020860152519082865af13d15611a21573d9067ffffffffffffffff82116110ac57604051611991949092611983601f8201601f19166020018561186c565b83523d5f602085013e611ba3565b80519081159182156119ff575b5050156119a757565b60405162461bcd60e51b815260206004820152602a60248201527f5361666545524332303a204552433230206f7065726174696f6e20646964206e6044820152691bdd081cdd58d8d9595960b21b6064820152608490fd5b81925090602091810103126100fa576020611a1a91016118a2565b5f8061199e565b9161199192606091611ba3565b6fa2a8918ca85bafe22016d0b997e4df60600160ff1b038411611a94576020935f9360ff60809460405194855216868401526040830152606082015282805260015afa15610f24575f516001600160a01b03811615611a8c57905f90565b505f90600190565b505050505f90600390565b60058110156113265780611ab05750565b60018103611afd5760405162461bcd60e51b815260206004820152601860248201527f45434453413a20696e76616c6964207369676e617475726500000000000000006044820152606490fd5b60028103611b4a5760405162461bcd60e51b815260206004820152601f60248201527f45434453413a20696e76616c6964207369676e6174757265206c656e677468006044820152606490fd5b600314611b5357565b60405162461bcd60e51b815260206004820152602260248201527f45434453413a20696e76616c6964207369676e6174757265202773272076616c604482015261756560f01b6064820152608490fd5b91929015611c055750815115611bb7575090565b3b15611bc05790565b60405162461bcd60e51b815260206004820152601d60248201527f416464726573733a2063616c6c20746f206e6f6e2d636f6e74726163740000006044820152606490fd5b825190915015611c185750805190602001fd5b604460209160405192839162461bcd60e51b83528160048401528051918291826024860152018484015e5f828201840152601f01601f19168101030190fdfea26469706673582212207d2ab45ef5860f0e6b01b361294a1300aaac70d69ffd4fe16b1254107447fe5064736f6c634300081d0033",
  "linkReferences": {},
  "deployedLinkReferences": {},
  "immutableReferences": {
    "14342": [
      {
        "length": 32,
        "start": 343
      },
      {
        "length": 32,
        "start": 1084
      }
    ],
    "14344": [
      {
        "length": 32,
        "start": 1035
      },
      {
        "length": 32,
        "start": 5793
      }
    ],
    "14346": [
      {
        "length": 32,
        "start": 471
      },
      {
        "length": 32,
        "start": 2137
      },
      {
        "length": 32,
        "start": 4768
      },
      {
        "length": 32,
        "start": 5325
      },
      {
        "length": 32,
        "start": 5665
      },
      {
        "length": 32,
        "start": 5935
      }
    ],
    "14348": [
      {
        "length": 32,
        "start": 525
      },
      {
        "length": 32,
        "start": 960
      },
      {
        "length": 32,
        "start": 1198
      },
      {
        "length": 32,
        "start": 2174
      },
      {
        "length": 32,
        "start": 6048
      },
      {
        "length": 32,
        "start": 6118
      }
    ],
    "14350": [
      {
        "length": 32,
        "start": 203
      },
      {
        "length": 32,
        "start": 582
      },
      {
        "length": 32,
        "start": 2214
      },
      {
        "length": 32,
        "start": 5275
      },
      {
        "length": 32,
        "start": 5997
      }
    ],
    "14352": [
      {
        "length": 32,
        "start": 864
      },
      {
        "length": 32,
        "start": 1731
      },
      {
        "length": 32,
        "start": 1945
      },
      {
        "length": 32,
        "start": 3010
      },
      {
        "length": 32,
        "start": 3364
      },
      {
        "length": 32,
        "start": 4027
      },
      {
        "length": 32,
        "start": 6183
      }
    ],
    "14354": [
      {
        "length": 32,
        "start": 745
      },
      {
        "length": 32,
        "start": 911
      },
      {
        "length": 32,
        "start": 1275
      },
      {
        "length": 32,
        "start": 1309
      },
      {
        "length": 32,
        "start": 1347
      },
      {
        "length": 32,
        "start": 1413
      },
      {
        "length": 32,
        "start": 1577
      },
      {
        "length": 32,
        "start": 3250
      },
      {
        "length": 32,
        "start": 3326
      },
      {
        "length": 32,
        "start": 3714
      },
      {
        "length": 32,
        "start": 4115
      },
      {
        "length": 32,
        "start": 4630
      }
    ],
    "14356": [
      {
        "length": 32,
        "start": 1242
      },
      {
        "length": 32,
        "start": 1380
      },
      {
        "length": 32,
        "start": 1544
      },
      {
        "length": 32,
        "start": 2858
      },
      {
        "length": 32,
        "start": 3217
      },
      {
        "length": 32,
        "start": 3406
      },
      {
        "length": 32,
        "start": 3598
      },
      {
        "length": 32,
        "start": 3994
      },
      {
        "length": 32,
        "start": 4564
      },
      {
        "length": 32,
        "start": 4597
      },
      {
        "length": 32,
        "start": 5433
      },
      {
        "length": 32,
        "start": 5735
      }
    ],
    "14358": [
      {
        "length": 32,
        "start": 275
      },
      {
        "length": 32,
        "start": 1485
      },
      {
        "length": 32,
        "start": 1659
      },
      {
        "length": 32,
        "start": 1784
      },
      {
        "length": 32,
        "start": 1897
      },
      {
        "length": 32,
        "start": 2938
      },
      {
        "length": 32,
        "start": 3063
      },
      {
        "length": 32,
        "start": 3140
      },
      {
        "length": 32,
        "start": 3444
      },
      {
        "length": 32,
        "start": 4060
      },
      {
        "length": 32,
        "start": 4149
      }
    ],
    "14360": [
      {
        "length": 32,
        "start": 2796
      },
      {
        "length": 32,
        "start": 5853
      }
    ],
    "14374": [
      {
        "length": 32,
        "start": 2026
      }
    ]
  },
  "inputSourceName": "project/contracts/PalindromeEscrowWallet.sol",
  "buildInfoId": "solc-0_8_29-16cf9496a42b469c42b4ae6d9303ec898eca57fd"
}