{
  "_format": "hh3-artifact-1",
  "contractName": "PalindromeEscrowLP",
  "sourceName": "contracts/PalindromeEscrowLP.sol",
  "abi": [
    {
      "inputs": [],
      "stateMutability": "nonpayable",
      "type": "constructor"
    },
    {
      "anonymous": false,
      "inputs": [
        {
          "indexed": true,
          "internalType": "address",
          "name": "owner",
          "type": "address"
        },
        {
          "indexed": true,
          "internalType": "address",
          "name": "spender",
          "type": "address"
        },
        {
          "indexed": false,
          "internalType": "uint256",
          "name": "value",
          "type": "uint256"
        }
      ],
      "name": "Approval",
      "type": "event"
    },
    {
      "anonymous": false,
      "inputs": [
        {
          "indexed": true,
          "internalType": "address",
          "name": "previousOwner",
          "type": "address"
        },
        {
          "indexed": true,
          "internalType": "address",
          "name": "newOwner",
          "type": "address"
        }
      ],
      "name": "OwnershipTransferred",
      "type": "event"
    },
    {
      "anonymous": false,
      "inputs": [
        {
          "indexed": true,
          "internalType": "address",
          "name": "from",
          "type": "address"
        },
        {
          "indexed": true,
          "internalType": "address",
          "name": "to",
          "type": "address"
        },
        {
          "indexed": false,
          "internalType": "uint256",
          "name": "value",
          "type": "uint256"
        }
      ],
      "name": "Transfer",
      "type": "event"
    },
    {
      "inputs": [
        {
          "internalType": "address",
          "name": "owner",
          "type": "address"
        },
        {
          "internalType": "address",
          "name": "spender",
          "type": "address"
        }
      ],
      "name": "allowance",
      "outputs": [
        {
          "internalType": "uint256",
          "name": "",
          "type": "uint256"
        }
      ],
      "stateMutability": "view",
      "type": "function"
    },
    {
      "inputs": [
        {
          "internalType": "address",
          "name": "spender",
          "type": "address"
        },
        {
          "internalType": "uint256",
          "name": "amount",
          "type": "uint256"
        }
      ],
      "name": "approve",
      "outputs": [
        {
          "internalType": "bool",
          "name": "",
          "type": "bool"
        }
      ],
      "stateMutability": "nonpayable",
      "type": "function"
    },
    {
      "inputs": [
        {
          "internalType": "address",
          "name": "account",
          "type": "address"
        }
      ],
      "name": "balanceOf",
      "outputs": [
        {
          "internalType": "uint256",
          "name": "",
          "type": "uint256"
        }
      ],
      "stateMutability": "view",
      "type": "function"
    },
    {
      "inputs": [
        {
          "internalType": "address",
          "name": "from",
          "type": "address"
        },
        {
          "internalType": "uint256",
          "name": "amount",
          "type": "uint256"
        }
      ],
      "name": "burn",
      "outputs": [],
      "stateMutability": "nonpayable",
      "type": "function"
    },
    {
      "inputs": [],
      "name": "decimals",
      "outputs": [
        {
          "internalType": "uint8",
          "name": "",
          "type": "uint8"
        }
      ],
      "stateMutability": "view",
      "type": "function"
    },
    {
      "inputs": [
        {
          "internalType": "address",
          "name": "spender",
          "type": "address"
        },
        {
          "internalType": "uint256",
          "name": "subtractedValue",
          "type": "uint256"
        }
      ],
      "name": "decreaseAllowance",
      "outputs": [
        {
          "internalType": "bool",
          "name": "",
          "type": "bool"
        }
      ],
      "stateMutability": "nonpayable",
      "type": "function"
    },
    {
      "inputs": [
        {
          "internalType": "address",
          "name": "spender",
          "type": "address"
        },
        {
          "internalType": "uint256",
          "name": "addedValue",
          "type": "uint256"
        }
      ],
      "name": "increaseAllowance",
      "outputs": [
        {
          "internalType": "bool",
          "name": "",
          "type": "bool"
        }
      ],
      "stateMutability": "nonpayable",
      "type": "function"
    },
    {
      "inputs": [
        {
          "internalType": "address",
          "name": "to",
          "type": "address"
        },
        {
          "internalType": "uint256",
          "name": "amount",
          "type": "uint256"
        }
      ],
      "name": "mint",
      "outputs": [],
      "stateMutability": "nonpayable",
      "type": "function"
    },
    {
      "inputs": [],
      "name": "minter",
      "outputs": [
        {
          "internalType": "address",
          "name": "",
          "type": "address"
        }
      ],
      "stateMutability": "view",
      "type": "function"
    },
    {
      "inputs": [],
      "name": "name",
      "outputs": [
        {
          "internalType": "string",
          "name": "",
          "type": "string"
        }
      ],
      "stateMutability": "view",
      "type": "function"
    },
    {
      "inputs": [],
      "name": "owner",
      "outputs": [
        {
          "internalType": "address",
          "name": "",
          "type": "address"
        }
      ],
      "stateMutability": "view",
      "type": "function"
    },
    {
      "inputs": [],
      "name": "renounceOwnership",
      "outputs": [],
      "stateMutability": "nonpayable",
      "type": "function"
    },
    {
      "inputs": [
        {
          "internalType": "address",
          "name": "_minter",
          "type": "address"
        }
      ],
      "name": "setMinter",
      "outputs": [],
      "stateMutability": "nonpayable",
      "type": "function"
    },
    {
      "inputs": [],
      "name": "symbol",
      "outputs": [
        {
          "internalType": "string",
          "name": "",
          "type": "string"
        }
      ],
      "stateMutability": "view",
      "type": "function"
    },
    {
      "inputs": [],
      "name": "totalSupply",
      "outputs": [
        {
          "internalType": "uint256",
          "name": "",
          "type": "uint256"
        }
      ],
      "stateMutability": "view",
      "type": "function"
    },
    {
      "inputs": [
        {
          "internalType": "address",
          "name": "to",
          "type": "address"
        },
        {
          "internalType": "uint256",
          "name": "amount",
          "type": "uint256"
        }
      ],
      "name": "transfer",
      "outputs": [
        {
          "internalType": "bool",
          "name": "",
          "type": "bool"
        }
      ],
      "stateMutability": "nonpayable",
      "type": "function"
    },
    {
      "inputs": [
        {
          "internalType": "address",
          "name": "from",
          "type": "address"
        },
        {
          "internalType": "address",
          "name": "to",
          "type": "address"
        },
        {
          "internalType": "uint256",
          "name": "amount",
          "type": "uint256"
        }
      ],
      "name": "transferFrom",
      "outputs": [
        {
          "internalType": "bool",
          "name": "",
          "type": "bool"
        }
      ],
      "stateMutability": "nonpayable",
      "type": "function"
    },
    {
      "inputs": [
        {
          "internalType": "address",
          "name": "newOwner",
          "type": "address"
        }
      ],
      "name": "transferOwnership",
      "outputs": [],
      "stateMutability": "nonpayable",
      "type": "function"
    }
  ],
  "bytecode": "0x608060405234801561000f575f5ffd5b506040518060400160405280601381526020017f50616c696e64726f6d65204c5020546f6b656e00000000000000000000000000815250604051806040016040528060038152602001620504c560ec1b81525081600390816100719190610189565b50600461007e8282610189565b50505061009761009261009c60201b60201c565b6100a0565b610243565b3390565b600580546001600160a01b038381166001600160a01b0319831681179093556040519116919082907f8be0079c531659141344cd1fd0a4f28419497f9722a3daafe3b4186f6b6457e0905f90a35050565b634e487b7160e01b5f52604160045260245ffd5b600181811c9082168061011957607f821691505b60208210810361013757634e487b7160e01b5f52602260045260245ffd5b50919050565b601f82111561018457805f5260205f20601f840160051c810160208510156101625750805b601f840160051c820191505b81811015610181575f815560010161016e565b50505b505050565b81516001600160401b038111156101a2576101a26100f1565b6101b6816101b08454610105565b8461013d565b6020601f8211600181146101e8575f83156101d15750848201515b5f19600385901b1c1916600184901b178455610181565b5f84815260208120601f198516915b8281101561021757878501518255602094850194600190920191016101f7565b508482101561023457868401515f19600387901b60f8161c191681555b50505050600190811b01905550565b610d06806102505f395ff3fe608060405234801561000f575f5ffd5b5060043610610111575f3560e01c8063715018a61161009e578063a457c2d71161006e578063a457c2d714610239578063a9059cbb1461024c578063dd62ed3e1461025f578063f2fde38b14610272578063fca3b5aa14610285575f5ffd5b8063715018a6146102055780638da5cb5b1461020d57806395d89b411461021e5780639dc29fac14610226575f5ffd5b806323b872dd116100e457806323b872dd14610193578063313ce567146101a657806339509351146101b557806340c10f19146101c857806370a08231146101dd575f5ffd5b806306fdde03146101155780630754617214610133578063095ea7b31461015e57806318160ddd14610181575b5f5ffd5b61011d610298565b60405161012a9190610b76565b60405180910390f35b600654610146906001600160a01b031681565b6040516001600160a01b03909116815260200161012a565b61017161016c366004610bc6565b610328565b604051901515815260200161012a565b6002545b60405190815260200161012a565b6101716101a1366004610bee565b610341565b6040516012815260200161012a565b6101716101c3366004610bc6565b610364565b6101db6101d6366004610bc6565b610385565b005b6101856101eb366004610c28565b6001600160a01b03165f9081526020819052604090205490565b6101db6103e0565b6005546001600160a01b0316610146565b61011d6103f3565b6101db610234366004610bc6565b610402565b610171610247366004610bc6565b610454565b61017161025a366004610bc6565b6104ce565b61018561026d366004610c48565b6104db565b6101db610280366004610c28565b610505565b6101db610293366004610c28565b61057e565b6060600380546102a790610c79565b80601f01602080910402602001604051908101604052809291908181526020018280546102d390610c79565b801561031e5780601f106102f55761010080835404028352916020019161031e565b820191905f5260205f20905b81548152906001019060200180831161030157829003601f168201915b5050505050905090565b5f336103358185856105a8565b60019150505b92915050565b5f3361034e8582856106cc565b610359858585610744565b506001949350505050565b5f3361033581858561037683836104db565b6103809190610cb1565b6105a8565b6006546001600160a01b031633146103d25760405162461bcd60e51b815260206004820152600b60248201526a27b7363c9036b4b73a32b960a91b60448201526064015b60405180910390fd5b6103dc82826108e6565b5050565b6103e86109a3565b6103f15f6109fd565b565b6060600480546102a790610c79565b6006546001600160a01b0316331461044a5760405162461bcd60e51b815260206004820152600b60248201526a27b7363c9036b4b73a32b960a91b60448201526064016103c9565b6103dc8282610a4e565b5f338161046182866104db565b9050838110156104c15760405162461bcd60e51b815260206004820152602560248201527f45524332303a2064656372656173656420616c6c6f77616e63652062656c6f77604482015264207a65726f60d81b60648201526084016103c9565b61035982868684036105a8565b5f33610335818585610744565b6001600160a01b039182165f90815260016020908152604080832093909416825291909152205490565b61050d6109a3565b6001600160a01b0381166105725760405162461bcd60e51b815260206004820152602660248201527f4f776e61626c653a206e6577206f776e657220697320746865207a65726f206160448201526564647265737360d01b60648201526084016103c9565b61057b816109fd565b50565b6105866109a3565b600680546001600160a01b0319166001600160a01b0392909216919091179055565b6001600160a01b03831661060a5760405162461bcd60e51b8152602060048201526024808201527f45524332303a20617070726f76652066726f6d20746865207a65726f206164646044820152637265737360e01b60648201526084016103c9565b6001600160a01b03821661066b5760405162461bcd60e51b815260206004820152602260248201527f45524332303a20617070726f766520746f20746865207a65726f206164647265604482015261737360f01b60648201526084016103c9565b6001600160a01b038381165f8181526001602090815260408083209487168084529482529182902085905590518481527f8c5be1e5ebec7d5bd14f71427d1e84f3dd0314c0f7b2291e5b200ac8c7c3b92591015b60405180910390a3505050565b5f6106d784846104db565b90505f19811461073e57818110156107315760405162461bcd60e51b815260206004820152601d60248201527f45524332303a20696e73756666696369656e7420616c6c6f77616e636500000060448201526064016103c9565b61073e84848484036105a8565b50505050565b6001600160a01b0383166107a85760405162461bcd60e51b815260206004820152602560248201527f45524332303a207472616e736665722066726f6d20746865207a65726f206164604482015264647265737360d81b60648201526084016103c9565b6001600160a01b03821661080a5760405162461bcd60e51b815260206004820152602360248201527f45524332303a207472616e7366657220746f20746865207a65726f206164647260448201526265737360e81b60648201526084016103c9565b6001600160a01b0383165f90815260208190526040902054818110156108815760405162461bcd60e51b815260206004820152602660248201527f45524332303a207472616e7366657220616d6f756e7420657863656564732062604482015265616c616e636560d01b60648201526084016103c9565b6001600160a01b038481165f81815260208181526040808320878703905593871680835291849020805487019055925185815290927fddf252ad1be2c89b69c2b068fc378daa952ba7f163c4a11628f55a4df523b3ef910160405180910390a361073e565b6001600160a01b03821661093c5760405162461bcd60e51b815260206004820152601f60248201527f45524332303a206d696e7420746f20746865207a65726f20616464726573730060448201526064016103c9565b8060025f82825461094d9190610cb1565b90915550506001600160a01b0382165f81815260208181526040808320805486019055518481527fddf252ad1be2c89b69c2b068fc378daa952ba7f163c4a11628f55a4df523b3ef910160405180910390a35050565b6005546001600160a01b031633146103f15760405162461bcd60e51b815260206004820181905260248201527f4f776e61626c653a2063616c6c6572206973206e6f7420746865206f776e657260448201526064016103c9565b600580546001600160a01b038381166001600160a01b0319831681179093556040519116919082907f8be0079c531659141344cd1fd0a4f28419497f9722a3daafe3b4186f6b6457e0905f90a35050565b6001600160a01b038216610aae5760405162461bcd60e51b815260206004820152602160248201527f45524332303a206275726e2066726f6d20746865207a65726f206164647265736044820152607360f81b60648201526084016103c9565b6001600160a01b0382165f9081526020819052604090205481811015610b215760405162461bcd60e51b815260206004820152602260248201527f45524332303a206275726e20616d6f756e7420657863656564732062616c616e604482015261636560f01b60648201526084016103c9565b6001600160a01b0383165f818152602081815260408083208686039055600280548790039055518581529192917fddf252ad1be2c89b69c2b068fc378daa952ba7f163c4a11628f55a4df523b3ef91016106bf565b602081525f82518060208401528060208501604085015e5f604082850101526040601f19601f83011684010191505092915050565b80356001600160a01b0381168114610bc1575f5ffd5b919050565b5f5f60408385031215610bd7575f5ffd5b610be083610bab565b946020939093013593505050565b5f5f5f60608486031215610c00575f5ffd5b610c0984610bab565b9250610c1760208501610bab565b929592945050506040919091013590565b5f60208284031215610c38575f5ffd5b610c4182610bab565b9392505050565b5f5f60408385031215610c59575f5ffd5b610c6283610bab565b9150610c7060208401610bab565b90509250929050565b600181811c90821680610c8d57607f821691505b602082108103610cab57634e487b7160e01b5f52602260045260245ffd5b50919050565b8082018082111561033b57634e487b7160e01b5f52601160045260245ffdfea2646970667358221220f6fcd4567dbc8cbf1aa3a68e439160439882c1bc06c7c183961d12bdd52e0b0264736f6c634300081d0033",
  "linkReferences": {},
  "deployedLinkReferences": {},
  "immutableReferences": {},
  "inputSourceName": "project/contracts/PalindromeEscrowLP.sol",
  "buildInfoId": "solc-0_8_29-832798f28ffb23d9e597483e65dfe984771195c7"
}