{
  "_format": "hh3-artifact-1",
  "contractName": "PalindromeCryptoEscrow",
  "sourceName": "contracts/PalindromeCryptoEscrow.sol",
  "abi": [
    {
      "inputs": [
        {
          "internalType": "address",
          "name": "_feeReceiver",
          "type": "address"
        }
      ],
      "stateMutability": "nonpayable",
      "type": "constructor"
    },
    {
      "inputs": [],
      "name": "InvalidMessageRoleForDispute",
      "type": "error"
    },
    {
      "inputs": [],
      "name": "InvalidNonce",
      "type": "error"
    },
    {
      "inputs": [],
      "name": "NotParticipant",
      "type": "error"
    },
    {
      "inputs": [],
      "name": "OnlyArbiter",
      "type": "error"
    },
    {
      "inputs": [],
      "name": "OnlyBuyer",
      "type": "error"
    },
    {
      "inputs": [],
      "name": "OnlyBuyerOrSeller",
      "type": "error"
    },
    {
      "inputs": [],
      "name": "SignatureAlreadyUsed",
      "type": "error"
    },
    {
      "inputs": [],
      "name": "SignatureLengthInvalid",
      "type": "error"
    },
    {
      "inputs": [],
      "name": "SignatureSInvalid",
      "type": "error"
    },
    {
      "inputs": [],
      "name": "SignatureVInvalid",
      "type": "error"
    },
    {
      "anonymous": false,
      "inputs": [
        {
          "indexed": true,
          "internalType": "uint256",
          "name": "escrowId",
          "type": "uint256"
        },
        {
          "indexed": true,
          "internalType": "address",
          "name": "oldArbiter",
          "type": "address"
        },
        {
          "indexed": true,
          "internalType": "address",
          "name": "newArbiter",
          "type": "address"
        }
      ],
      "name": "ArbiterReplaced",
      "type": "event"
    },
    {
      "anonymous": false,
      "inputs": [
        {
          "indexed": true,
          "internalType": "uint256",
          "name": "escrowId",
          "type": "uint256"
        },
        {
          "indexed": true,
          "internalType": "address",
          "name": "initiator",
          "type": "address"
        },
        {
          "indexed": false,
          "internalType": "uint256",
          "name": "amount",
          "type": "uint256"
        }
      ],
      "name": "Canceled",
      "type": "event"
    },
    {
      "anonymous": false,
      "inputs": [
        {
          "indexed": true,
          "internalType": "uint256",
          "name": "escrowId",
          "type": "uint256"
        },
        {
          "indexed": true,
          "internalType": "address",
          "name": "buyer",
          "type": "address"
        },
        {
          "indexed": true,
          "internalType": "address",
          "name": "seller",
          "type": "address"
        },
        {
          "indexed": false,
          "internalType": "uint256",
          "name": "amount",
          "type": "uint256"
        },
        {
          "indexed": false,
          "internalType": "uint256",
          "name": "fee",
          "type": "uint256"
        }
      ],
      "name": "DeliveryConfirmed",
      "type": "event"
    },
    {
      "anonymous": false,
      "inputs": [
        {
          "indexed": true,
          "internalType": "uint256",
          "name": "escrowId",
          "type": "uint256"
        },
        {
          "indexed": true,
          "internalType": "address",
          "name": "sender",
          "type": "address"
        },
        {
          "indexed": false,
          "internalType": "enum PalindromeCryptoEscrow.Role",
          "name": "role",
          "type": "uint8"
        },
        {
          "indexed": false,
          "internalType": "string",
          "name": "ipfsHash",
          "type": "string"
        }
      ],
      "name": "DisputeMessagePosted",
      "type": "event"
    },
    {
      "anonymous": false,
      "inputs": [
        {
          "indexed": true,
          "internalType": "uint256",
          "name": "escrowId",
          "type": "uint256"
        },
        {
          "indexed": false,
          "internalType": "enum PalindromeCryptoEscrow.State",
          "name": "resolution",
          "type": "uint8"
        },
        {
          "indexed": false,
          "internalType": "address",
          "name": "arbiter",
          "type": "address"
        },
        {
          "indexed": false,
          "internalType": "uint256",
          "name": "amount",
          "type": "uint256"
        },
        {
          "indexed": false,
          "internalType": "uint256",
          "name": "fee",
          "type": "uint256"
        }
      ],
      "name": "DisputeResolved",
      "type": "event"
    },
    {
      "anonymous": false,
      "inputs": [
        {
          "indexed": true,
          "internalType": "uint256",
          "name": "escrowId",
          "type": "uint256"
        },
        {
          "indexed": true,
          "internalType": "address",
          "name": "initiator",
          "type": "address"
        }
      ],
      "name": "DisputeStarted",
      "type": "event"
    },
    {
      "anonymous": false,
      "inputs": [
        {
          "indexed": true,
          "internalType": "uint256",
          "name": "escrowId",
          "type": "uint256"
        },
        {
          "indexed": true,
          "internalType": "address",
          "name": "recipient",
          "type": "address"
        },
        {
          "indexed": false,
          "internalType": "uint256",
          "name": "amount",
          "type": "uint256"
        }
      ],
      "name": "EmergencyRecoveryExecuted",
      "type": "event"
    },
    {
      "anonymous": false,
      "inputs": [
        {
          "indexed": true,
          "internalType": "uint256",
          "name": "escrowId",
          "type": "uint256"
        },
        {
          "indexed": false,
          "internalType": "uint256",
          "name": "timestamp",
          "type": "uint256"
        }
      ],
      "name": "EmergencyRecoveryInitiated",
      "type": "event"
    },
    {
      "anonymous": false,
      "inputs": [
        {
          "indexed": true,
          "internalType": "uint256",
          "name": "escrowId",
          "type": "uint256"
        },
        {
          "indexed": true,
          "internalType": "address",
          "name": "buyer",
          "type": "address"
        },
        {
          "indexed": true,
          "internalType": "address",
          "name": "seller",
          "type": "address"
        },
        {
          "indexed": false,
          "internalType": "address",
          "name": "token",
          "type": "address"
        },
        {
          "indexed": false,
          "internalType": "uint256",
          "name": "amount",
          "type": "uint256"
        },
        {
          "indexed": false,
          "internalType": "address",
          "name": "arbiter",
          "type": "address"
        },
        {
          "indexed": false,
          "internalType": "uint256",
          "name": "maturityTime",
          "type": "uint256"
        },
        {
          "indexed": false,
          "internalType": "string",
          "name": "title",
          "type": "string"
        },
        {
          "indexed": false,
          "internalType": "string",
          "name": "ipfsHash",
          "type": "string"
        }
      ],
      "name": "EscrowCreated",
      "type": "event"
    },
    {
      "anonymous": false,
      "inputs": [
        {
          "indexed": true,
          "internalType": "uint256",
          "name": "escrowId",
          "type": "uint256"
        },
        {
          "indexed": false,
          "internalType": "enum PalindromeCryptoEscrow.State",
          "name": "oldState",
          "type": "uint8"
        },
        {
          "indexed": false,
          "internalType": "enum PalindromeCryptoEscrow.State",
          "name": "newState",
          "type": "uint8"
        }
      ],
      "name": "EscrowStateChanged",
      "type": "event"
    },
    {
      "anonymous": false,
      "inputs": [
        {
          "indexed": true,
          "internalType": "uint256",
          "name": "escrowId",
          "type": "uint256"
        },
        {
          "indexed": true,
          "internalType": "address",
          "name": "buyer",
          "type": "address"
        },
        {
          "indexed": false,
          "internalType": "uint256",
          "name": "amount",
          "type": "uint256"
        }
      ],
      "name": "PaymentDeposited",
      "type": "event"
    },
    {
      "anonymous": false,
      "inputs": [
        {
          "indexed": true,
          "internalType": "uint256",
          "name": "escrowId",
          "type": "uint256"
        },
        {
          "indexed": false,
          "internalType": "address",
          "name": "recipient",
          "type": "address"
        },
        {
          "indexed": false,
          "internalType": "uint256",
          "name": "netAmount",
          "type": "uint256"
        },
        {
          "indexed": false,
          "internalType": "address",
          "name": "feeRecipient",
          "type": "address"
        },
        {
          "indexed": false,
          "internalType": "uint256",
          "name": "feeAmount",
          "type": "uint256"
        }
      ],
      "name": "PayoutProposed",
      "type": "event"
    },
    {
      "anonymous": false,
      "inputs": [
        {
          "indexed": true,
          "internalType": "uint256",
          "name": "escrowId",
          "type": "uint256"
        },
        {
          "indexed": true,
          "internalType": "address",
          "name": "requester",
          "type": "address"
        }
      ],
      "name": "RequestCancel",
      "type": "event"
    },
    {
      "anonymous": false,
      "inputs": [
        {
          "indexed": true,
          "internalType": "uint256",
          "name": "escrowId",
          "type": "uint256"
        },
        {
          "indexed": true,
          "internalType": "address",
          "name": "wallet",
          "type": "address"
        }
      ],
      "name": "WalletCreated",
      "type": "event"
    },
    {
      "inputs": [],
      "name": "DISPUTE_LONG_TIMEOUT",
      "outputs": [
        {
          "internalType": "uint256",
          "name": "",
          "type": "uint256"
        }
      ],
      "stateMutability": "view",
      "type": "function"
    },
    {
      "inputs": [],
      "name": "DISPUTE_SHORT_TIMEOUT",
      "outputs": [
        {
          "internalType": "uint256",
          "name": "",
          "type": "uint256"
        }
      ],
      "stateMutability": "view",
      "type": "function"
    },
    {
      "inputs": [],
      "name": "EMERGENCY_RECOVERY_DELAY",
      "outputs": [
        {
          "internalType": "uint256",
          "name": "",
          "type": "uint256"
        }
      ],
      "stateMutability": "view",
      "type": "function"
    },
    {
      "inputs": [],
      "name": "GRACE_PERIOD",
      "outputs": [
        {
          "internalType": "uint256",
          "name": "",
          "type": "uint256"
        }
      ],
      "stateMutability": "view",
      "type": "function"
    },
    {
      "inputs": [],
      "name": "TIMEOUT_BUFFER",
      "outputs": [
        {
          "internalType": "uint256",
          "name": "",
          "type": "uint256"
        }
      ],
      "stateMutability": "view",
      "type": "function"
    },
    {
      "inputs": [
        {
          "internalType": "uint256",
          "name": "escrowId",
          "type": "uint256"
        }
      ],
      "name": "cancelByTimeout",
      "outputs": [],
      "stateMutability": "nonpayable",
      "type": "function"
    },
    {
      "inputs": [
        {
          "internalType": "uint256",
          "name": "escrowId",
          "type": "uint256"
        }
      ],
      "name": "confirmDelivery",
      "outputs": [],
      "stateMutability": "nonpayable",
      "type": "function"
    },
    {
      "inputs": [
        {
          "internalType": "uint256",
          "name": "escrowId",
          "type": "uint256"
        },
        {
          "internalType": "bytes",
          "name": "signature",
          "type": "bytes"
        },
        {
          "internalType": "uint256",
          "name": "deadline",
          "type": "uint256"
        },
        {
          "internalType": "uint256",
          "name": "nonce",
          "type": "uint256"
        }
      ],
      "name": "confirmDeliverySigned",
      "outputs": [],
      "stateMutability": "nonpayable",
      "type": "function"
    },
    {
      "inputs": [],
      "name": "contractNonce",
      "outputs": [
        {
          "internalType": "uint256",
          "name": "",
          "type": "uint256"
        }
      ],
      "stateMutability": "view",
      "type": "function"
    },
    {
      "inputs": [
        {
          "internalType": "address",
          "name": "token",
          "type": "address"
        },
        {
          "internalType": "address",
          "name": "buyer",
          "type": "address"
        },
        {
          "internalType": "uint256",
          "name": "amount",
          "type": "uint256"
        },
        {
          "internalType": "uint256",
          "name": "maturityTimeDays",
          "type": "uint256"
        },
        {
          "internalType": "address",
          "name": "arbiter",
          "type": "address"
        },
        {
          "internalType": "string",
          "name": "title",
          "type": "string"
        },
        {
          "internalType": "string",
          "name": "ipfsHash",
          "type": "string"
        }
      ],
      "name": "createEscrow",
      "outputs": [
        {
          "internalType": "uint256",
          "name": "",
          "type": "uint256"
        }
      ],
      "stateMutability": "nonpayable",
      "type": "function"
    },
    {
      "inputs": [
        {
          "internalType": "address",
          "name": "token",
          "type": "address"
        },
        {
          "internalType": "address",
          "name": "seller",
          "type": "address"
        },
        {
          "internalType": "uint256",
          "name": "amount",
          "type": "uint256"
        },
        {
          "internalType": "uint256",
          "name": "maturityTimeDays",
          "type": "uint256"
        },
        {
          "internalType": "address",
          "name": "arbiter",
          "type": "address"
        },
        {
          "internalType": "string",
          "name": "title",
          "type": "string"
        },
        {
          "internalType": "string",
          "name": "ipfsHash",
          "type": "string"
        }
      ],
      "name": "createEscrowAndDeposit",
      "outputs": [
        {
          "internalType": "uint256",
          "name": "escrowId",
          "type": "uint256"
        }
      ],
      "stateMutability": "nonpayable",
      "type": "function"
    },
    {
      "inputs": [
        {
          "internalType": "uint256",
          "name": "escrowId",
          "type": "uint256"
        }
      ],
      "name": "deposit",
      "outputs": [],
      "stateMutability": "nonpayable",
      "type": "function"
    },
    {
      "inputs": [
        {
          "internalType": "uint256",
          "name": "",
          "type": "uint256"
        }
      ],
      "name": "disputeStatus",
      "outputs": [
        {
          "internalType": "uint256",
          "name": "",
          "type": "uint256"
        }
      ],
      "stateMutability": "view",
      "type": "function"
    },
    {
      "inputs": [
        {
          "internalType": "uint256",
          "name": "",
          "type": "uint256"
        }
      ],
      "name": "emergencyRecoveryInitiatedAt",
      "outputs": [
        {
          "internalType": "uint256",
          "name": "",
          "type": "uint256"
        }
      ],
      "stateMutability": "view",
      "type": "function"
    },
    {
      "inputs": [
        {
          "internalType": "uint256",
          "name": "escrowId",
          "type": "uint256"
        }
      ],
      "name": "executeEmergencyRecovery",
      "outputs": [],
      "stateMutability": "nonpayable",
      "type": "function"
    },
    {
      "inputs": [],
      "name": "feeReceiver",
      "outputs": [
        {
          "internalType": "address",
          "name": "",
          "type": "address"
        }
      ],
      "stateMutability": "view",
      "type": "function"
    },
    {
      "inputs": [
        {
          "internalType": "uint256",
          "name": "escrowId",
          "type": "uint256"
        }
      ],
      "name": "getEscrow",
      "outputs": [
        {
          "components": [
            {
              "internalType": "address",
              "name": "token",
              "type": "address"
            },
            {
              "internalType": "address",
              "name": "buyer",
              "type": "address"
            },
            {
              "internalType": "address",
              "name": "seller",
              "type": "address"
            },
            {
              "internalType": "address",
              "name": "arbiter",
              "type": "address"
            },
            {
              "internalType": "address",
              "name": "wallet",
              "type": "address"
            },
            {
              "internalType": "uint256",
              "name": "amount",
              "type": "uint256"
            },
            {
              "internalType": "uint256",
              "name": "depositTime",
              "type": "uint256"
            },
            {
              "internalType": "uint256",
              "name": "maturityTime",
              "type": "uint256"
            },
            {
              "internalType": "uint256",
              "name": "disputeStartTime",
              "type": "uint256"
            },
            {
              "internalType": "enum PalindromeCryptoEscrow.State",
              "name": "state",
              "type": "uint8"
            },
            {
              "internalType": "bool",
              "name": "buyerCancelRequested",
              "type": "bool"
            },
            {
              "internalType": "bool",
              "name": "sellerCancelRequested",
              "type": "bool"
            },
            {
              "internalType": "uint8",
              "name": "tokenDecimals",
              "type": "uint8"
            }
          ],
          "internalType": "struct PalindromeCryptoEscrow.EscrowDeal",
          "name": "",
          "type": "tuple"
        }
      ],
      "stateMutability": "view",
      "type": "function"
    },
    {
      "inputs": [
        {
          "internalType": "uint256",
          "name": "escrowId",
          "type": "uint256"
        },
        {
          "internalType": "address",
          "name": "signer",
          "type": "address"
        },
        {
          "internalType": "uint256",
          "name": "bucket",
          "type": "uint256"
        }
      ],
      "name": "getNonceBitmap",
      "outputs": [
        {
          "internalType": "uint256",
          "name": "",
          "type": "uint256"
        }
      ],
      "stateMutability": "view",
      "type": "function"
    },
    {
      "inputs": [
        {
          "internalType": "uint256",
          "name": "escrowId",
          "type": "uint256"
        }
      ],
      "name": "initiateEmergencyRecovery",
      "outputs": [],
      "stateMutability": "nonpayable",
      "type": "function"
    },
    {
      "inputs": [
        {
          "internalType": "uint256",
          "name": "escrowId",
          "type": "uint256"
        },
        {
          "internalType": "address",
          "name": "signer",
          "type": "address"
        },
        {
          "internalType": "uint256",
          "name": "nonce",
          "type": "uint256"
        }
      ],
      "name": "isNonceUsed",
      "outputs": [
        {
          "internalType": "bool",
          "name": "",
          "type": "bool"
        }
      ],
      "stateMutability": "view",
      "type": "function"
    },
    {
      "inputs": [],
      "name": "nextEscrowId",
      "outputs": [
        {
          "internalType": "uint256",
          "name": "",
          "type": "uint256"
        }
      ],
      "stateMutability": "view",
      "type": "function"
    },
    {
      "inputs": [
        {
          "internalType": "uint256",
          "name": "escrowId",
          "type": "uint256"
        }
      ],
      "name": "requestCancel",
      "outputs": [],
      "stateMutability": "nonpayable",
      "type": "function"
    },
    {
      "inputs": [
        {
          "internalType": "uint256",
          "name": "escrowId",
          "type": "uint256"
        },
        {
          "internalType": "bytes",
          "name": "signature",
          "type": "bytes"
        },
        {
          "internalType": "uint256",
          "name": "deadline",
          "type": "uint256"
        },
        {
          "internalType": "uint256",
          "name": "nonce",
          "type": "uint256"
        }
      ],
      "name": "requestCancelSigned",
      "outputs": [],
      "stateMutability": "nonpayable",
      "type": "function"
    },
    {
      "inputs": [
        {
          "internalType": "uint256",
          "name": "escrowId",
          "type": "uint256"
        }
      ],
      "name": "startDispute",
      "outputs": [],
      "stateMutability": "nonpayable",
      "type": "function"
    },
    {
      "inputs": [
        {
          "internalType": "uint256",
          "name": "escrowId",
          "type": "uint256"
        },
        {
          "internalType": "bytes",
          "name": "signature",
          "type": "bytes"
        },
        {
          "internalType": "uint256",
          "name": "deadline",
          "type": "uint256"
        },
        {
          "internalType": "uint256",
          "name": "nonce",
          "type": "uint256"
        }
      ],
      "name": "startDisputeSigned",
      "outputs": [],
      "stateMutability": "nonpayable",
      "type": "function"
    },
    {
      "inputs": [
        {
          "internalType": "uint256",
          "name": "escrowId",
          "type": "uint256"
        },
        {
          "internalType": "enum PalindromeCryptoEscrow.State",
          "name": "resolution",
          "type": "uint8"
        },
        {
          "internalType": "string",
          "name": "ipfsHash",
          "type": "string"
        }
      ],
      "name": "submitArbiterDecision",
      "outputs": [],
      "stateMutability": "nonpayable",
      "type": "function"
    },
    {
      "inputs": [
        {
          "internalType": "uint256",
          "name": "escrowId",
          "type": "uint256"
        },
        {
          "internalType": "enum PalindromeCryptoEscrow.Role",
          "name": "role",
          "type": "uint8"
        },
        {
          "internalType": "string",
          "name": "ipfsHash",
          "type": "string"
        }
      ],
      "name": "submitDisputeMessage",
      "outputs": [],
      "stateMutability": "nonpayable",
      "type": "function"
    }
  ],
  "bytecode": "0x60e0806040523461019357602081614b68803803809161001f8285610197565b83398101031261019357516001600160a01b0381168082036101935760015f55156101615760c0524660a052604051610059604082610197565b601681527f50616c696e64726f6d6543727970746f457363726f7700000000000000000000602090910152604080517f214be339dbd101005f8c34eca4dc81d275788130af1987d8fb35ea9c0a925bfa916100b49082610197565b600181526020810190603160f81b82525190206040519060208201927f8b73c3c69bb8fe3d512ecc4cf759cc79239f7b179b0ffacaa9a75d522b39400f8452604083015260608201524660808201523060a082015260a0815261011860c082610197565b5190206080525f60025560405161499990816101cf823960805181612db1015260a05181612d8b015260c051818181610d620152818161180a0152818161307b015261313a0152f35b60405162461bcd60e51b815260206004820152600a602482015269466565546f207a65726f60b01b6044820152606490fd5b5f80fd5b601f909101601f19168101906001600160401b038211908210176101ba57604052565b634e487b7160e01b5f52604160045260245ffdfe60806040526004361015610011575f80fd5b5f3560e01c806306075a15146123e157806310f169e8146123b75780631452483b1461239a57806333bbe7e21461203557806335ef2c6b14611feb5780633c33bcba14611fc15780634186928c14611fa5578063471873c214611f8857806349d71f0514611f6b578063584e40fa14611f4e5780636232ef6014611cb55780636754631714611a51578063769a68e3146115485780637d19e5961461136457806389cb29dd146113475780639bbfca9e146111885780639dede53c146111475780639f0f7a2214610d91578063b3f0067414610d4d578063b6b55f2514610c46578063be5c085114610aee578063c0cfa7e514610a2b578063c1a287e214610a0f578063c761423d14610656578063da183b0214610400578063e683a2d4146102615763fd84cb9714610142575f80fd5b3461025d57602036600319011261025d5760043561015e612d34565b5f818152600360205260409020600101546001600160a01b0316330361024e57805f52600360205260405f206009810160ff815416600681101561023a5760408185936101bb60015f5160206149445f395f51905f529514612cf0565b600360ff198254161790556101d2825180926126ee565b60036020820152a260028101546001600160a01b0316917f8bcf349ab354486b68c142cea7235e4f7f31f6a425466f569c8ac1d5bc4d0007604061021685846130b3565b600560018060a01b036001870154169501549082519182526020820152a460015f55005b634e487b7160e01b5f52602160045260245ffd5b6386efbb5560e01b5f5260045ffd5b5f80fd5b3461025d57602036600319011261025d5760043561027d612d34565b805f52600360205260405f2060018060a01b0360018201541633141590816103e8575b506103d957805f52600360205260405f206009810190815460ff8116600681101561023a5760016102d19114612cf0565b600182019060018060a01b0382541633145f146103c75750825461ff0019166101001783555b33847f88a867d5d9b489598a3f5e5c8d5c1da163ed116737b70444bac744920904a5735f80a382549060ff8260081c16806103ba575b610338575b60015f55005b845f5160206149445f395f51905f52604060ff610369610380966005998a84198254161790558351928391166126ee565b876020820152a2546001600160a01b031684613017565b500154906040519182527feb8b5b87fbea5b732b8f4fd82b65d9afef713c799d98da83090f22c45577998d60203393a38080808080610332565b5060ff8260101c1661032d565b62ff00001916620100001783556102f7565b631cfe2f0560e11b5f5260045ffd5b600201546001600160a01b03163314159050826102a0565b3461025d57602036600319011261025d5760043561041c612d34565b5f818152600360205260409020600101546001600160a01b0316330361024e57805f52600360205260405f20600981019081549160ff831692600684101561023a5761046a60018514612cf0565b60088301546106205760ff8160081c16156105e65760101c60ff166105ac5760068201541561057a57600782015461546081018091116105665742111561052b575f5160206149445f395f51905f52604060059486938660ff198254161790556104d6825180926126ee565b856020820152a260018101546104f5906001600160a01b031684613017565b500154906040519182527feb8b5b87fbea5b732b8f4fd82b65d9afef713c799d98da83090f22c45577998d60203393a360015f55005b60405162461bcd60e51b8152602060048201526013602482015272477261636520706572696f642061637469766560681b6044820152606490fd5b634e487b7160e01b5f52601160045260245ffd5b60405162461bcd60e51b815260206004820152600a602482015269139bc819195c1bdcda5d60b21b6044820152606490fd5b60405162461bcd60e51b81526020600482015260126024820152714d757475616c2063616e63656c20646f6e6560701b6044820152606490fd5b60405162461bcd60e51b8152602060048201526012602482015271135d5cdd081c995c5d595cdd08199a5c9cdd60721b6044820152606490fd5b60405162461bcd60e51b815260206004820152600e60248201526d446973707574652061637469766560901b6044820152606490fd5b3461025d57610664366126fb565b9061067383859a94989a6131f5565b61067d8282613191565b6106916001600160a01b038416151561298c565b6001600160a01b038816966106a78815156129c5565b6106b3338914156129fe565b6106be8a1515612a3e565b6106cb610e438810612a78565b6106d484613250565b946106e96106e187613366565b8c1015612ab8565b6001549a6106f68c612af7565b6001556001600160a01b0388169a338c141580610a05575b61071790612b05565b604051906111dc908183019183831067ffffffffffffffff8411176109f157839261076b928d9261374886396001600160a01b03908116825233602083015290911660408201526002606082015260800190565b03905ff080156109a857610781813f1515612b43565b6001600160a01b031696610796881515612b85565b6040516317aa5fb760e11b8152600481018c90526020816024818c5afa80156109a8576107ca915f916109d2575b50612be2565b6040516317aa5fb760e11b81523360048201526020816024818c5afa80156109a8576107fd915f916109b3575b50612c20565b6040516317aa5fb760e11b8152600481018d90526020816024818c5afa80156109a857610831915f91610979575b50612c5f565b8c5f52600360205260405f209b60018060a01b0388168d6001600160601b0360a01b905416178d5560018d018c6001600160601b0360a01b82541617905560028d0160018060a01b0333166001600160601b0360a01b82541617905560038d01906001600160601b0360a01b82541617905560048c0160018060a01b0389166001600160601b0360a01b8254161790558160058d0155620151808a0299808b04620151801490151715610566578c996108ea9042612792565b60078d019081556009909c01805463ff0000ff191660189290921b63ff000000169190911790556040519788978a7f470292d5e9c87e6d5a100a14c56a434c9f25e9e2be1d5efa70c3b5f9aeda505f5f80a3339b549161094a9789612c9f565b037fd3e0574cb952cf8d88c9c2b97882e6000237da1d62a64753eaddaf4d9ce7351b91a4604051908152602090f35b61099b915060203d6020116109a1575b6109938183612837565b810190612bca565b8f61082b565b503d610989565b6040513d5f823e3d90fd5b6109cc915060203d6020116109a1576109938183612837565b8f6107f7565b6109eb915060203d6020116109a1576109938183612837565b8f6107c4565b634e487b7160e01b5f52604160045260245ffd5b508b8b141561070e565b3461025d575f36600319011261025d5760206040516154608152f35b3461025d57602036600319011261025d57600435610a47612d34565b805f52600360205260405f2060018060a01b036001820154163314159081610ad6575b506103d957805f52600360205260405f206009810160ff815416600681101561023a576001610a999114612cf0565b600260ff1982541617905560084291015533907fd658effe7cf013e5a508b3f1a373b92566494d8b6a7c2970fc964932de1c4dab5f80a360015f55005b600201546001600160a01b0316331415905082610a6a565b3461025d57602036600319011261025d57600435610b0a612d34565b805f52600360205260405f2090805f52600760205260405f20548015610c115762278d008101809111610566574210610bcc576009820160ff815416600681101561023a57806001610b659214908115610bc1575b506127de565b805460ff1916600417905560018201546001600160a01b0316917f9e62953cca5b6ea7f1cb59d2cf8896053f5cd2e512f31178ad22188ed380d37990602090600590610bb18686613017565b500154604051908152a360015f55005b600291501485610b5f565b60405162461bcd60e51b815260206004820152601960248201527f5265636f766572792064656c6179206e6f7420706173736564000000000000006044820152606490fd5b60405162461bcd60e51b815260206004820152600d60248201526c139bdd081a5b9a5d1a585d1959609a1b6044820152606490fd5b3461025d57602036600319011261025d57600435610c62612d34565b5f818152600360205260409020600101546001600160a01b0316330361024e57805f52600360205260405f206009810160ff815416600681101561023a57610d115781546004830154600584018054909492610ccc926001600160a01b039081169133911661339e565b600642910155600160ff1982541617905554906040519182527f71284872bb4c088a81295dff2513729babbccfeda38a8d824bb1a73bcaab494e60203393a360015f55005b60405162461bcd60e51b8152602060048201526014602482015273139bdd08185dd85a5d1a5b99c81c185e5b595b9d60621b6044820152606490fd5b3461025d575f36600319011261025d576040517f00000000000000000000000000000000000000000000000000000000000000006001600160a01b03168152602090f35b3461025d57610d9f366126fb565b91939596949092610dae612d34565b610db885826131f5565b610dc28385613191565b6001600160a01b03891694610dd886151561298c565b6001600160a01b03871692610dee8415156129c5565b610dfa338514156129fe565b610e058a1515612a3e565b610e12610e438210612a78565b610e1b8b613250565b98610e286106e18b613366565b6001549b610e358d612af7565b6001556001600160a01b03821699338b14158061113d575b610e5690612b05565b604051906111dc8083019083821067ffffffffffffffff8311176109f1578392610ea892879261374886393381526001600160a01b039182166020820152911660408201526002606082015260800190565b03905ff080156109a857610ebe813f1515612b43565b6001600160a01b031696610ed3881515612b85565b6040516317aa5fb760e11b81523360048201526020816024818c5afa80156109a857610f05915f9161111e5750612be2565b6040516317aa5fb760e11b8152600481018890526020816024818c5afa80156109a857610f38915f916110ff5750612c20565b6040516317aa5fb760e11b8152600481018c90526020816024818c5afa80156109a857610f6b915f916110e05750612c5f565b5f8e815260036020819052604090912080546001600160a01b03199081168d17825560018201805482163317905560028201805482168b17905591810180548316909d17909c5560048c0180549091166001600160a01b038a1617905560058b018d9055620151808481029480159086049091141715610566578c988e958a95610ff59042612792565b978d60078101998a556009019e8f9060ff19825416825561102a919063ff00000082549160181b169063ff0000001916179055565b6040519687968c8a7f470292d5e9c87e6d5a100a14c56a434c9f25e9e2be1d5efa70c3b5f9aeda505f5f80a3339a54916110649789612c9f565b037fd3e0574cb952cf8d88c9c2b97882e6000237da1d62a64753eaddaf4d9ce7351b91a4336110929361339e565b42906006015560ff19815416600117905560405190815281339160207f71284872bb4c088a81295dff2513729babbccfeda38a8d824bb1a73bcaab494e91a360015f55604051908152602090f35b6110f9915060203d6020116109a1576109938183612837565b5f61082b565b611118915060203d6020116109a1576109938183612837565b5f6107f7565b611137915060203d6020116109a1576109938183612837565b5f6107c4565b508a871415610e4d565b3461025d57611155366126c4565b915f52600860205260405f209060018060a01b03165f5260205260405f20905f52602052602060405f2054604051908152f35b3461025d57602036600319011261025d576004356111a4612d34565b805f52600360205260405f2060018060a01b03600182015416331415908161132f575b506103d957805f52600360205260405f2060ff600982015416600681101561023a5760018114908115611324575b50156112df57600701546276a70081018091116105665742111561129b57805f52600760205260405f205461126257805f5260076020524260405f20557f8d5c7e29b9eef125ac402bcf39a5617ef2adff0089796846a05a81eb8bacf4cc6020604051428152a260015f55005b60405162461bcd60e51b8152602060048201526011602482015270105b1c9958591e481a5b9a5d1a585d1959607a1b6044820152606490fd5b606460405162461bcd60e51b815260206004820152602060248201527f546f6f206561726c7920666f7220656d657267656e6379207265636f766572796044820152fd5b60405162461bcd60e51b815260206004820152601a60248201527f496e76616c696420737461746520666f72207265636f766572790000000000006044820152606490fd5b6002915014836111f5565b600201546001600160a01b03163314159050826111c7565b3461025d575f36600319011261025d576020600154604051908152f35b3461025d57602036600319011261025d575f6101806040516113858161281a565b8281528260208201528260408201528260608201528260808201528260a08201528260c08201528260e08201528261010082015282610120820152826101408201528261016082015201526004355f52600360205260405f20604051906113eb8261281a565b80546001600160a01b039081168352600182015481166020840190815260028301548216604085019081526003840154831660608601908152600485015490931660808601908152600585015460a0870190815260068087015460c08901908152600788015460e08a0190815260088901546101008b0190815260099099015498969795966101208b019690959194929360ff8b169081101561023a57875260ff60088b901c811615156101408d0190815260108c901c821615156101608e0190815260189c909c1c9091166101808d01908152604080519d516001600160a01b039081168f529b518c1660208f015299518b16998d01999099529051891660608c0152905190971660808a01525160a08901525160c08801525160e0870152516101008601525190929190611526906101208601906126ee565b5115156101408401525115156101608301525160ff166101808201526101a090f35b3461025d57606036600319011261025d5760043560243560068110801561025d5760443567ffffffffffffffff811161025d5761158990369060040161265a565b9290611593612d34565b5f85815260036020819052604090912001546001600160a01b03163303611a4257845f52600360205260405f20936009850160ff815416600681101561023a5760026115df91146127de565b5f926003851495868015611a35575b156119fb57885f52600460205260405f20805460ff811680806119ec575b80156119df575b60088c01549062093a808201918281116105665762278d008101908181116105665762279b10018091116105665781156119d5575b5015611990578115611986575b5015611941578a5f52600660205260ff60405f20541661190a5762ff00001916620100001790555f898152600660205260409020805460ff19166001179055825460ff16901561023a578893847f4e71d2a3ce09c95d708a8bc888cb8838c8419bea1f25f6d07f2c601b173f720e6117086040955f5160206149445f395f51905f529760ff1981541660ff8d16179055835f5260046020525f87812055865194600386528760208701528786019161296c565b928033940390a361171b825180926126ee565b61172860208201876126ee565ba261023a5781156118f75760028301546001600160a01b03165b845f52600360205260405f208560ff600983015460181c16600281115f146118ed5761177061177591612ff3565b613006565b94156118a9575060050154926064840284810460641485151715610566576127109004908082106118a15750905b818481101561185c578403938411610566577ffc4c84ff0bf9d937dea068e6c13c3a16c307d76a1c5b5173c40f03f68f421e0094865f5160206149245f395f51905f52608060059481985b6040519160018060a01b03168252602082015260018060a01b037f0000000000000000000000000000000000000000000000000000000000000000166040820152866060820152a2015461184560405180946126ee565b33602084015260408301526060820152a260015f55005b60405162461bcd60e51b815260206004820152601860248201527f416d6f756e7420746f6f20736d616c6c20666f722066656500000000000000006044820152606490fd5b9050906117a3565b60809450947ffc4c84ff0bf9d937dea068e6c13c3a16c307d76a1c5b5173c40f03f68f421e00955f5160206149245f395f51905f528660059495855f9701546117ee565b506117755f613006565b60018301546001600160a01b0316611742565b60405162461bcd60e51b815260206004820152600f60248201526e105b1c9958591e48191958da591959608a1b6044820152606490fd5b60405162461bcd60e51b815260206004820152601d60248201527f4e6565642066756c6c2065766964656e6365206f722074696d656f75740000006044820152606490fd5b905042118c611655565b60405162461bcd60e51b815260206004820152601860248201527f4e6565642065766964656e6365206f722074696d656f757400000000000000006044820152606490fd5b905042118e611648565b5060ff8260081c16611613565b905060ff8260081c169061160c565b60405162461bcd60e51b815260206004820152601260248201527124b73b30b634b2103932b9b7b63aba34b7b760711b6044820152606490fd5b505f9450600486146115ee565b6372cc71e760e11b5f5260045ffd5b3461025d57611a5f36612688565b92611a6b949294612d34565b42821180611ca0575b611a7d9061279f565b825f52600360205260405f2093600985019060ff82541692600684101561023a576001869414611aac906127de565b6001870197600160a01b600190038954168560028a0197600160a01b6001900389541690600160a01b6001900360038d015416908c600160a01b60019003815416906005019d8e54906006015491600254946040519660208801987fcd3d4500102f181df7b850795f5eb99deb2ac79e384b172fc8267023944b57908a526040890152896060890152608088015260a087015260c086015260e0850152610100840152610120830152866101408301526101608201526101608152611b7361018082612837565b519020611b7e612d88565b60405161190160f01b60208201908152602282019290925260428082019390935291825290611bae606282612837565b519020611bbc368486612875565b611bc5916134ed565b611bce9061351e565b6001600160a01b0316611be28115156128ab565b14611bec906128ea565b611bf69185612e76565b8654611c0c91906001600160a01b031684612f7a565b8054600360ff1982161790915560405190611c2b90829060ff166126ee565b602081016003905260405f5160206149445f395f51905f5291a2546001600160a01b031692611c5a84836130b3565b90600160a01b60019003905416925490604051918252602082015260407f8bcf349ab354486b68c142cea7235e4f7f31f6a425466f569c8ac1d5bc4d000791a460015f55005b50620151804201804211610566578210611a74565b3461025d57606036600319011261025d57600435602435906004821091821561025d5760443567ffffffffffffffff811161025d57611cf890369060040161265a565b9190611d02612d34565b835f52600360205260405f2060018060a01b036001820154163314159081611f36575b81611f1e575b50611f0f57835f52600360205260405f2060ff600982015416600681101561023a57600203611edb57611d5e8483613191565b845f52600460205260405f2090855f52600960205260405f205490600185145f14611e4c57600101546001600160a01b03163303611e1a57816001809354611da960ff82161561292c565b60ff1916179055611dbc8183161561292c565b175b845f52600960205260405f2055604051941561023a577f4e71d2a3ce09c95d708a8bc888cb8838c8419bea1f25f6d07f2c601b173f720e92611e0d92865260406020870152604086019161296c565b928033940390a360015f55005b60405162461bcd60e51b815260206004820152600a60248201526927b7363c90313abcb2b960b11b6044820152606490fd5b60028503611ecc57600201546001600160a01b03163303611e99578161010060029354611e7f60ff8260081c161561292c565b61ff001916179055611e938183161561292c565b17611dbe565b60405162461bcd60e51b815260206004820152600b60248201526a27b7363c9039b2b63632b960a91b6044820152606490fd5b63421b511560e11b5f5260045ffd5b60405162461bcd60e51b815260206004820152600c60248201526b139bdd08191a5cdc1d5d195960a21b6044820152606490fd5b63721c7c6760e11b5f5260045ffd5b600301546001600160a01b0316331415905086611d2b565b60028101546001600160a01b03163314159150611d25565b3461025d575f36600319011261025d57602060405162093a808152f35b3461025d575f36600319011261025d576020600254604051908152f35b3461025d575f36600319011261025d5760206040516276a7008152f35b3461025d575f36600319011261025d576020604051610e108152f35b3461025d57602036600319011261025d576004355f526007602052602060405f2054604051908152f35b3461025d576020611ffb366126c4565b915f526008835260405f209060018060a01b03165f52825260405f208160081c5f52825260405f2054600160ff60405193161b1615158152f35b3461025d5761204336612688565b9190612050949394612d34565b835f52600360205260405f2060018060a01b036001820154163314159081612382575b506103d9574281118061236d575b61208a9061279f565b835f52600360205260405f2090600982019360ff855416600681101561023a576001146120b6906127de565b6001830193600160a01b600190038554169087600160a01b6001900360028701541694600160a01b6001900360038801541690600160a01b600190038854169060058901988954906006015490600254936040519560208701977fc85c923ea5d212cb7b5ff010886d6e17824bdb3b3bf33c1209c35abf78535a3a895260408801528960608801528b608088015260a087015260c086015260e085015261010084015261012083015285610140830152610160820152610160815261217d61018082612837565b519020612188612d88565b60405161190160f01b602082019081526022820192909252604280820193909352918252906121b8606282612837565b5190206121c636838c612875565b6121cf916134ed565b6121d89061351e565b6001600160a01b0316986121ed8a15156128ab565b828a148061221d966122169561221093612363575b508115612347575b506128ea565b88612e76565b3386612f7a565b825460ff8160081c169081612338575b83546001600160a01b031687036123265750835461ff0019166101001784555b85857f88a867d5d9b489598a3f5e5c8d5c1da163ed116737b70444bac744920904a5735f80a31580612318575b8061230a575b61228a5760015f55005b6122f7602092855f5160206149445f395f51905f5260408760ff7feb8b5b87fbea5b732b8f4fd82b65d9afef713c799d98da83090f22c45577998d99541690600560ff198254161790556122e0825180926126ee565b600588820152a2546001600160a01b031685613017565b5054604051908152a38080808080610332565b5060ff835460101c16612280565b5060ff835460081c1661227a565b62ff000019166201000017845561224d565b905060ff8160101c169061222d565b8c8114915081612359575b508c61220a565b905033148c612352565b331491508d612202565b50620151804201804211610566578110612081565b600201546001600160a01b0316331415905086612073565b3461025d575f36600319011261025d57602060405162278d008152f35b3461025d57602036600319011261025d576004355f526009602052602060405f2054604051908152f35b3461025d576123ef36612688565b9392916123fa612d34565b835f52600360205260405f2060018060a01b036001820154163314159081612642575b506103d9574282118061262d575b6124349061279f565b835f52600360205260405f2094600986019260ff84541692600684101561023a5787956125bf6125c59361246d60016125cc98146127de565b61259361258b8b60018060a01b0360018d015416938c600260018060a01b03910154169e8f9160018060a01b036003830154169160018060a01b03815416906006600582015491015491600254946040519660208801987f2343da878873647f02b323ece2672886ff82db9da888b7783437579429b592bd8a5260408901528b6060890152608088015260a087015260c086015260e08501526101008401526101208301528a610140830152610160820152610160815261253061018082612837565b519020612569612577612541612d88565b92604051928391602083019586909160429261190160f01b8352600283015260228201520190565b03601f198101835282612837565b519020612585368888612875565b906134ed565b91909161351e565b6001600160a01b03169a6125a88c15156128ab565b818c149182612623575b50811561260757506128ea565b87612e76565b3385612f7a565b600260ff198254161790556008429101557fd658effe7cf013e5a508b3f1a373b92566494d8b6a7c2970fc964932de1c4dab5f80a360015f55005b8b8114915081612619575b508b61220a565b905033148b612612565b331491508c6125b2565b5062015180420180421161056657821061242b565b600201546001600160a01b031633141590508661241d565b9181601f8401121561025d5782359167ffffffffffffffff831161025d576020838186019501011161025d57565b90608060031983011261025d57600435916024359067ffffffffffffffff821161025d576126b89160040161265a565b90916044359060643590565b606090600319011261025d57600435906024356001600160a01b038116810361025d579060443590565b90600682101561023a5752565b9060e060031983011261025d576004356001600160a01b038116810361025d57916024356001600160a01b038116810361025d579160443591606435916084356001600160a01b038116810361025d579160a43567ffffffffffffffff811161025d578161276b9160040161265a565b9290929160c4359067ffffffffffffffff821161025d5761278e9160040161265a565b9091565b9190820180921161056657565b156127a657565b60405162461bcd60e51b815260206004820152601060248201526f496e76616c696420646561646c696e6560801b6044820152606490fd5b156127e557565b60405162461bcd60e51b815260206004820152600d60248201526c496e76616c696420737461746560981b6044820152606490fd5b6101a0810190811067ffffffffffffffff8211176109f157604052565b90601f8019910116810190811067ffffffffffffffff8211176109f157604052565b67ffffffffffffffff81116109f157601f01601f191660200190565b92919261288182612859565b9161288f6040519384612837565b82948184528183011161025d578281602093845f960137010152565b156128b257565b60405162461bcd60e51b815260206004820152601060248201526f496e76616c6964207265636f7665727960801b6044820152606490fd5b156128f157565b60405162461bcd60e51b81526020600482015260136024820152722ab730baba3437b934bd32b21039b4b3b732b960691b6044820152606490fd5b1561293357565b60405162461bcd60e51b8152602060048201526011602482015270105b1c9958591e481cdd589b5a5d1d1959607a1b6044820152606490fd5b908060209392818452848401375f828201840152601f01601f1916010190565b1561299357565b60405162461bcd60e51b815260206004820152600a602482015269546f6b656e207a65726f60b01b6044820152606490fd5b156129cc57565b60405162461bcd60e51b815260206004820152600a6024820152694275796572207a65726f60b01b6044820152606490fd5b15612a0557565b60405162461bcd60e51b815260206004820152601160248201527042757965722073656c6c65722073616d6560781b6044820152606490fd5b15612a4557565b60405162461bcd60e51b815260206004820152600b60248201526a416d6f756e74207a65726f60a81b6044820152606490fd5b15612a7f57565b60405162461bcd60e51b81526020600482015260116024820152704d6174757269747920746f6f206c6f6e6760781b6044820152606490fd5b15612abf57565b60405162461bcd60e51b815260206004820152601060248201526f105b5bdd5b9d081d1bdbc81cdb585b1b60821b6044820152606490fd5b5f1981146105665760010190565b15612b0c57565b60405162461bcd60e51b815260206004820152600f60248201526e24b73b30b634b21030b93134ba32b960891b6044820152606490fd5b15612b4a57565b60405162461bcd60e51b815260206004820152601360248201527257616c6c657420636f6465206d697373696e6760681b6044820152606490fd5b15612b8c57565b60405162461bcd60e51b815260206004820152601660248201527515d85b1b195d0818dc99585d1a5bdb8819985a5b195960521b6044820152606490fd5b9081602091031261025d5751801515810361025d5790565b15612be957565b60405162461bcd60e51b815260206004820152600f60248201526e213abcb2b9103737ba1037bbb732b960891b6044820152606490fd5b15612c2757565b60405162461bcd60e51b815260206004820152601060248201526f29b2b63632b9103737ba1037bbb732b960811b6044820152606490fd5b15612c6657565b60405162461bcd60e51b815260206004820152601160248201527020b93134ba32b9103737ba1037bbb732b960791b6044820152606490fd5b969492612ced989692612cdf959260018060a01b03168952602089015260018060a01b03166040880152606087015260c0608087015260c086019161296c565b9260a081850391015261296c565b90565b15612cf757565b60405162461bcd60e51b81526020600482015260156024820152744e6f74206177616974696e672064656c697665727960581b6044820152606490fd5b60025f5414612d435760025f55565b60405162461bcd60e51b815260206004820152601f60248201527f5265656e7472616e637947756172643a207265656e7472616e742063616c6c006044820152606490fd5b467f000000000000000000000000000000000000000000000000000000000000000003612dd3577f000000000000000000000000000000000000000000000000000000000000000090565b6040601660208251612de58482612837565b828152017550616c696e64726f6d6543727970746f457363726f7760501b815220600160208351612e168582612837565b82815201603160f81b81522082519160208301937f8b73c3c69bb8fe3d512ecc4cf759cc79239f7b179b0ffacaa9a75d522b39400f855283015260608201524660808201523060a082015260a08152612e7060c082612837565b51902090565b9091604103612f6b57602082013560408301355f1a6fa2a8918ca85bafe22016d0b997e4df60600160ff1b038211612f5c57601b8114159081612f50575b50612f4157612ec1612d88565b926002549260405193602085019586526040850152606084015235608083015260a082015260a08152612ef560c082612837565b519020805f52600560205260ff60405f205416612f32575f52600560205260405f20600160ff19825416179055612f2d600254612af7565b600255565b63900bb2c960e01b5f5260045ffd5b6307839aef60e21b5f5260045ffd5b601c915014155f612eb4565b6354b34b0360e01b5f5260045ffd5b6354f3472360e01b5f5260045ffd5b91908160081c90835f52600860205260405f2060018060a01b0382165f5260205260405f20825f52602052600160ff60405f205494161b93848416612fe4575f52600860205260405f209060018060a01b03165f5260205260405f20905f526020521760405f2055565b633ab3447f60e11b5f5260045ffd5b60ff6001199116019060ff821161056657565b60ff16604d811161056657600a0a90565b919091805f5260036020525f5160206149245f395f51905f52608060405f209460ff600987015460181c16600281115f146130a95761177061305891612ff3565b5060055f9601546040519160018060a01b03168252602082015260018060a01b037f00000000000000000000000000000000000000000000000000000000000000001660408201525f6060820152a2565b506130585f613006565b919091805f52600360205260405f2060ff600982015460181c16600281115f14613185576130e5611770600592612ff3565b9101549060648202828104606414831517156105665761271090049080821061317d5750905b81948183101561185c5782820391821161056657604080516001600160a01b03928316815260208101939093527f00000000000000000000000000000000000000000000000000000000000000009091169082015260608101919091525f5160206149245f395f51905f5290608090a2565b90509061310b565b5060056130e55f613006565b5080151590816131e9575b50156131a457565b60405162461bcd60e51b815260206004820152601860248201527f496e76616c696420495046532068617368206c656e67746800000000000000006044820152606490fd5b6064915011155f61319c565b508015159081613244575b501561320857565b60405162461bcd60e51b8152602060048201526014602482015273092dcecc2d8d2c840e8d2e8d8ca40d8cadccee8d60631b6044820152606490fd5b6064915011155f613200565b60405163313ce56760e01b815290602090829060049082906001600160a01b0316617530fa5f9181613328575b506132c75760405162461bcd60e51b815260206004820152601f60248201527f546f6b656e206d75737420696d706c656d656e7420646563696d616c732829006044820152606490fd5b60ff81166006811015908161331c575b50156132e05790565b60405162461bcd60e51b8152602060048201526014602482015273556e737570706f7274656420646563696d616c7360601b6044820152606490fd5b6012915011155f6132d7565b9091506020813d60201161335e575b8161334460209383612837565b8101031261025d575160ff8116810361025d57905f61327d565b3d9150613337565b600260ff821611156133945761177061337e91612ff3565b6064810290808204606414901517156105665790565b5061337e5f613006565b6040516323b872dd60e01b602082019081526001600160a01b03938416602483015292909316604484015260648084019490945292825261345d925f9081906133e8608486612837565b60018060a01b03169260405194613400604087612837565b602086527f5361666545524332303a206c6f772d6c6576656c2063616c6c206661696c65646020870152519082855af13d156134e5573d9161344183612859565b9261344f6040519485612837565b83523d5f602085013e613693565b80519081159182156134cb575b50501561347357565b60405162461bcd60e51b815260206004820152602a60248201527f5361666545524332303a204552433230206f7065726174696f6e20646964206e6044820152691bdd081cdd58d8d9595960b21b6064820152608490fd5b6134de9250602080918301019101612bca565b5f8061346a565b606091613693565b9060418151145f146135155761278e91602082015190606060408401519301515f1a90613622565b50505f90600290565b600581101561023a578061352f5750565b6001810361357c5760405162461bcd60e51b815260206004820152601860248201527f45434453413a20696e76616c6964207369676e617475726500000000000000006044820152606490fd5b600281036135c95760405162461bcd60e51b815260206004820152601f60248201527f45434453413a20696e76616c6964207369676e6174757265206c656e677468006044820152606490fd5b6003146135d257565b60405162461bcd60e51b815260206004820152602260248201527f45434453413a20696e76616c6964207369676e6174757265202773272076616c604482015261756560f01b6064820152608490fd5b6fa2a8918ca85bafe22016d0b997e4df60600160ff1b038411613688576020935f9360ff60809460405194855216868401526040830152606082015282805260015afa156109a8575f516001600160a01b0381161561368057905f90565b505f90600190565b505050505f90600390565b919290156136f557508151156136a7575090565b3b156136b05790565b60405162461bcd60e51b815260206004820152601d60248201527f416464726573733a2063616c6c20746f206e6f6e2d636f6e74726163740000006044820152606490fd5b8251909150156137085750805190602001fd5b604460209160405192839162461bcd60e51b83528160048401528051918291826024860152018484015e5f828201840152601f01601f19168101030190fdfe610100346101be57601f6111dc38819003918201601f19168301916001600160401b038311848410176101c2578084926080946040528339810103126101be57610048816101d6565b90610055602082016101d6565b6060610063604084016101d6565b9201519260ff84168085036101be576001600160a01b0382161515806101ac575b8061019a575b15610166576002036101215760805260a05260c05260e052604051610ff190816101eb82396080518181816103cb015281816104db015281816107080152610921015260a05181818161040101528181610779015281816107bc0152610946015260c05181818160940152818161043a01528181610746015261096e015260e0518181816101fe015281816105de01526106b60152f35b60405162461bcd60e51b815260206004820152601360248201527f5468726573686f6c64206d7573742062652032000000000000000000000000006044820152606490fd5b60405162461bcd60e51b815260206004820152600c60248201526b5a65726f206164647265737360a01b6044820152606490fd5b506001600160a01b038416151561008a565b506001600160a01b0383161515610084565b5f80fd5b634e487b7160e01b5f52604160045260245ffd5b51906001600160a01b03821682036101be5756fe6080806040526004361015610012575f80fd5b5f3560e01c90816308551a53146107aa575080632f54bf6e146106da57806342cde4e81461069d5780637121989a1461050a5780637150d8ae146104c6578063a0e67e2b14610397578063affed0e01461037b578063dcfda144146100c75763fe25e00a1461007f575f80fd5b346100c3575f3660031901126100c3576040517f00000000000000000000000000000000000000000000000000000000000000006001600160a01b03168152602090f35b5f80fd5b346100c35760c03660031901126100c3576100e06107eb565b6100e8610801565b606435906001600160a01b03821690604435908284036100c3576084359360a4359167ffffffffffffffff83116100c3573660648401116100c3576001600160a01b03811692610139841515610817565b851561034957841580158091610340575b1561030557878601808711610295578887821191826102fb575b5050156102cb5785915f54906040519060208201903060601b8252600160a01b600190038d169c6001600160601b03199060601b1660348401526001600160601b03198760601b16604884015285605c8401526001600160601b03198860601b16607c8401528b60908401528360b08401524660d084015260d083526101eb60f084610854565b60040191519020906101fc916108f5565b7f000000000000000000000000000000000000000000000000000000000000000060ff169060ff16101561022f9061088a565b610238906108d6565b5f556102ba575b505084806102a9575b50505f545f19810194908511610295577f457938e2512bd940a38c710d197d7fdd21dac266a89e0e19e9e7c24e3822ee5d93608093604051938452602084015260408301526060820152a3005b634e487b7160e01b5f52601160045260245ffd5b6102b39187610c0a565b8584610248565b6102c49188610c0a565b868361023f565b60405162461bcd60e51b81526020600482015260086024820152674f766572666c6f7760c01b6044820152606490fd5b119050888b610164565b60405162461bcd60e51b81526020600482015260136024820152722737ba3434b733903a37903a3930b739b332b960691b6044820152606490fd5b5087151561014a565b60405162461bcd60e51b815260206004820152600a602482015269466565546f207a65726f60b01b6044820152606490fd5b346100c3575f3660031901126100c35760205f54604051908152f35b346100c3575f3660031901126100c3576040516103b5608082610854565b600381526020810160603682378151156104b2577f00000000000000000000000000000000000000000000000000000000000000006001600160a01b031681528151600110156104b2577f00000000000000000000000000000000000000000000000000000000000000006001600160a01b031660408301528151600210156104b2577f00000000000000000000000000000000000000000000000000000000000000006001600160a01b03166060830152604080516020808252935193810184905292839291830191905f5b818110610490575050500390f35b82516001600160a01b0316845285945060209384019390920191600101610482565b634e487b7160e01b5f52603260045260245ffd5b346100c3575f3660031901126100c3576040517f00000000000000000000000000000000000000000000000000000000000000006001600160a01b03168152602090f35b346100c35760803660031901126100c3576105236107eb565b61052b610801565b6044359060643567ffffffffffffffff81116100c3573660648201116100c35761055f6001600160a01b0383161515610817565b821561066a576105d9610607915f546040519160208301913060601b835260018060a01b038916986001600160601b03199060601b1660348501526001600160601b03198760601b16604885015287605c850152607c84015246609c840152609c83526105cd60bc84610854565b600401915190206108f5565b60ff807f0000000000000000000000000000000000000000000000000000000000000000169116101561088a565b610612828285610c0a565b61061c5f546108d6565b91825f555f19830192831161029557604080516001600160a01b0393909316835260208301919091527f95474fc50506241409126520ce4036ede1ce133514e0e746730e5ab426cf8f7191a3005b60405162461bcd60e51b815260206004820152600b60248201526a416d6f756e74207a65726f60a81b6044820152606490fd5b346100c3575f3660031901126100c357602060405160ff7f0000000000000000000000000000000000000000000000000000000000000000168152f35b346100c35760203660031901126100c35760206001600160a01b036106fd6107eb565b166001600160a01b037f0000000000000000000000000000000000000000000000000000000000000000168114908115610777575b8115610744575b506040519015158152f35b7f00000000000000000000000000000000000000000000000000000000000000006001600160a01b031614905082610739565b7f00000000000000000000000000000000000000000000000000000000000000006001600160a01b031681149150610732565b346100c3575f3660031901126100c3577f00000000000000000000000000000000000000000000000000000000000000006001600160a01b03168152602090f35b600435906001600160a01b03821682036100c357565b602435906001600160a01b03821682036100c357565b1561081e57565b60405162461bcd60e51b815260206004820152600e60248201526d526563697069656e74207a65726f60901b6044820152606490fd5b90601f8019910116810190811067ffffffffffffffff82111761087657604052565b634e487b7160e01b5f52604160045260245ffd5b1561089157565b60405162461bcd60e51b815260206004820152601760248201527f496e73756666696369656e74207369676e6174757265730000000000000000006044820152606490fd5b5f1981146102955760010190565b9060038110156104b25760051b0190565b5f92604051926060840184811067ffffffffffffffff8211176108765760409081526001600160a01b037f0000000000000000000000000000000000000000000000000000000000000000811686527f0000000000000000000000000000000000000000000000000000000000000000811660208701527f000000000000000000000000000000000000000000000000000000000000000016858201525194919360609392906109a58588610854565b84368837604051946109b78187610854565b803687375f935b60ff8516956003871015610bff57611fe08660051b16820135601e19833603018112156100c357820192833567ffffffffffffffff81116100c357602085019080360382136100c357604103610bed5760408501356fa2a8918ca85bafe22016d0b997e4df60600160ff1b038111610ba857610a789b9583610a70937f19457468657265756d205369676e6564204d6573736167653a0a3332000000005f5286601c52359101355f1a603c5f20610d73565b9a909a610def565b6001600160a01b03909916985f5b60ff811689811015610af0576001600160a01b0390610aa5908c6108e4565b51168b14610ab85760010160ff16610a86565b60405162461bcd60e51b815260206004820152601060248201526f223ab83634b1b0ba329039b4b3b732b960811b6044820152606490fd5b5050939698610b08819b979a999493929699856108e4565b525f5b60ff81166003811015610b91576001600160a01b03610b2a828b6108e4565b51168c1480610b7f575b610b44575060010160ff16610b0b565b60ff9398959b5060019150610b5f90889b97959a93986108e4565b521660ff81146102955760018060ff9201945b01169397909496976109be565b50610b8a81896108e4565b5115610b34565b5050949760ff919693995060019097949297610b72565b60405162461bcd60e51b815260206004820152601960248201527f496e76616c6964207369676e617475726520732076616c7565000000000000006044820152606490fd5b5099989650915093600160ff91610b72565b505050509450505050565b60405163a9059cbb60e01b602082019081526001600160a01b039390931660248201526044808201949094529283529091905f908190610c4b606485610854565b60018060a01b03169360405193610c63604086610854565b602085527f5361666545524332303a206c6f772d6c6576656c2063616c6c206661696c65646020860152519082865af13d15610d66573d9067ffffffffffffffff821161087657604051610cd5949092610cc7601f8201601f191660200185610854565b83523d5f602085013e610f07565b8051908115918215610d43575b505015610ceb57565b60405162461bcd60e51b815260206004820152602a60248201527f5361666545524332303a204552433230206f7065726174696f6e20646964206e6044820152691bdd081cdd58d8d9595960b21b6064820152608490fd5b81925090602091810103126100c3576020015180151581036100c3575f80610ce2565b91610cd592606091610f07565b6fa2a8918ca85bafe22016d0b997e4df60600160ff1b038411610de4576020935f9360ff60809460405194855216868401526040830152606082015282805260015afa15610dd9575f516001600160a01b03811615610dd157905f90565b505f90600190565b6040513d5f823e3d90fd5b505050505f90600390565b6005811015610ef35780610e005750565b60018103610e4d5760405162461bcd60e51b815260206004820152601860248201527f45434453413a20696e76616c6964207369676e617475726500000000000000006044820152606490fd5b60028103610e9a5760405162461bcd60e51b815260206004820152601f60248201527f45434453413a20696e76616c6964207369676e6174757265206c656e677468006044820152606490fd5b600314610ea357565b60405162461bcd60e51b815260206004820152602260248201527f45434453413a20696e76616c6964207369676e6174757265202773272076616c604482015261756560f01b6064820152608490fd5b634e487b7160e01b5f52602160045260245ffd5b91929015610f695750815115610f1b575090565b3b15610f245790565b60405162461bcd60e51b815260206004820152601d60248201527f416464726573733a2063616c6c20746f206e6f6e2d636f6e74726163740000006044820152606490fd5b825190915015610f7c5750805190602001fd5b604460209160405192839162461bcd60e51b83528160048401528051918291826024860152018484015e5f828201840152601f01601f19168101030190fdfea2646970667358221220759c6c95f327c8f11389e2d6f2cd84cf769791df8933ec2a00859091f50fce2264736f6c634300081d00334efd0eb8137437cc21ded7c1b056cd5a6e457ad8830e42d74bb9ba46144dbe839fd18dd57bf85e04b8e9f0d0525149241b7cc780d9c23051d307c3afc5e04ca8a264697066735822122068b7c68aa81cc33e4d7856b663090b1349e7c779d5e276cf0d18bcc2c4b3f05e64736f6c634300081d0033",
  "linkReferences": {},
  "deployedLinkReferences": {},
  "immutableReferences": {
    "11273": [
      {
        "length": 32,
        "start": 11697
      }
    ],
    "11275": [
      {
        "length": 32,
        "start": 11659
      }
    ],
    "11311": [
      {
        "length": 32,
        "start": 3426
      },
      {
        "length": 32,
        "start": 6154
      },
      {
        "length": 32,
        "start": 12411
      },
      {
        "length": 32,
        "start": 12602
      }
    ]
  },
  "inputSourceName": "project/contracts/PalindromeCryptoEscrow.sol",
  "buildInfoId": "solc-0_8_29-7136301f997a287138f7fb563c4d493fc0d72c13"
}