{
  "_format": "hh3-artifact-1",
  "contractName": "PalindromeCryptoEscrow",
  "sourceName": "contracts/PalindromeCryptoEscrow.sol",
  "abi": [
    {
      "inputs": [
        {
          "internalType": "address",
          "name": "_feeReceiver",
          "type": "address"
        }
      ],
      "stateMutability": "nonpayable",
      "type": "constructor"
    },
    {
      "inputs": [],
      "name": "InvalidMessageRoleForDispute",
      "type": "error"
    },
    {
      "inputs": [],
      "name": "InvalidNonce",
      "type": "error"
    },
    {
      "inputs": [],
      "name": "NotParticipant",
      "type": "error"
    },
    {
      "inputs": [],
      "name": "OnlyArbiter",
      "type": "error"
    },
    {
      "inputs": [],
      "name": "OnlyBuyer",
      "type": "error"
    },
    {
      "inputs": [],
      "name": "OnlyBuyerOrSeller",
      "type": "error"
    },
    {
      "inputs": [],
      "name": "SignatureAlreadyUsed",
      "type": "error"
    },
    {
      "inputs": [],
      "name": "SignatureLengthInvalid",
      "type": "error"
    },
    {
      "inputs": [],
      "name": "SignatureSInvalid",
      "type": "error"
    },
    {
      "inputs": [],
      "name": "SignatureVInvalid",
      "type": "error"
    },
    {
      "anonymous": false,
      "inputs": [
        {
          "indexed": true,
          "internalType": "uint256",
          "name": "escrowId",
          "type": "uint256"
        },
        {
          "indexed": true,
          "internalType": "address",
          "name": "initiator",
          "type": "address"
        },
        {
          "indexed": false,
          "internalType": "uint256",
          "name": "amount",
          "type": "uint256"
        }
      ],
      "name": "Canceled",
      "type": "event"
    },
    {
      "anonymous": false,
      "inputs": [
        {
          "indexed": true,
          "internalType": "uint256",
          "name": "escrowId",
          "type": "uint256"
        },
        {
          "indexed": true,
          "internalType": "address",
          "name": "buyer",
          "type": "address"
        },
        {
          "indexed": true,
          "internalType": "address",
          "name": "seller",
          "type": "address"
        },
        {
          "indexed": false,
          "internalType": "uint256",
          "name": "amount",
          "type": "uint256"
        },
        {
          "indexed": false,
          "internalType": "uint256",
          "name": "fee",
          "type": "uint256"
        },
        {
          "indexed": false,
          "internalType": "string",
          "name": "ipfsHaesh",
          "type": "string"
        }
      ],
      "name": "DeliveryConfirmed",
      "type": "event"
    },
    {
      "anonymous": false,
      "inputs": [
        {
          "indexed": true,
          "internalType": "uint256",
          "name": "escrowId",
          "type": "uint256"
        },
        {
          "indexed": false,
          "internalType": "uint256",
          "name": "longDeadline",
          "type": "uint256"
        }
      ],
      "name": "DisputeDeadlinesSet",
      "type": "event"
    },
    {
      "anonymous": false,
      "inputs": [
        {
          "indexed": true,
          "internalType": "uint256",
          "name": "escrowId",
          "type": "uint256"
        },
        {
          "indexed": true,
          "internalType": "address",
          "name": "sender",
          "type": "address"
        },
        {
          "indexed": false,
          "internalType": "enum PalindromeCryptoEscrow.Role",
          "name": "role",
          "type": "uint8"
        },
        {
          "indexed": false,
          "internalType": "string",
          "name": "ipfsHash",
          "type": "string"
        }
      ],
      "name": "DisputeMessagePosted",
      "type": "event"
    },
    {
      "anonymous": false,
      "inputs": [
        {
          "indexed": true,
          "internalType": "uint256",
          "name": "escrowId",
          "type": "uint256"
        },
        {
          "indexed": false,
          "internalType": "enum PalindromeCryptoEscrow.State",
          "name": "resolution",
          "type": "uint8"
        },
        {
          "indexed": false,
          "internalType": "address",
          "name": "arbiter",
          "type": "address"
        },
        {
          "indexed": false,
          "internalType": "uint256",
          "name": "amount",
          "type": "uint256"
        },
        {
          "indexed": false,
          "internalType": "uint256",
          "name": "fee",
          "type": "uint256"
        }
      ],
      "name": "DisputeResolved",
      "type": "event"
    },
    {
      "anonymous": false,
      "inputs": [
        {
          "indexed": true,
          "internalType": "uint256",
          "name": "escrowId",
          "type": "uint256"
        },
        {
          "indexed": true,
          "internalType": "address",
          "name": "initiator",
          "type": "address"
        }
      ],
      "name": "DisputeStarted",
      "type": "event"
    },
    {
      "anonymous": false,
      "inputs": [
        {
          "indexed": true,
          "internalType": "uint256",
          "name": "escrowId",
          "type": "uint256"
        },
        {
          "indexed": true,
          "internalType": "address",
          "name": "buyer",
          "type": "address"
        },
        {
          "indexed": true,
          "internalType": "address",
          "name": "seller",
          "type": "address"
        },
        {
          "indexed": false,
          "internalType": "address",
          "name": "token",
          "type": "address"
        },
        {
          "indexed": false,
          "internalType": "uint256",
          "name": "amount",
          "type": "uint256"
        },
        {
          "indexed": false,
          "internalType": "address",
          "name": "arbiter",
          "type": "address"
        },
        {
          "indexed": false,
          "internalType": "uint256",
          "name": "maturityTime",
          "type": "uint256"
        },
        {
          "indexed": false,
          "internalType": "string",
          "name": "title",
          "type": "string"
        },
        {
          "indexed": false,
          "internalType": "string",
          "name": "ipfsHash",
          "type": "string"
        }
      ],
      "name": "EscrowCreated",
      "type": "event"
    },
    {
      "anonymous": false,
      "inputs": [
        {
          "indexed": true,
          "internalType": "uint256",
          "name": "escrowId",
          "type": "uint256"
        },
        {
          "indexed": true,
          "internalType": "address",
          "name": "buyer",
          "type": "address"
        },
        {
          "indexed": false,
          "internalType": "uint256",
          "name": "amount",
          "type": "uint256"
        }
      ],
      "name": "EscrowCreatedAndDeposited",
      "type": "event"
    },
    {
      "anonymous": false,
      "inputs": [
        {
          "indexed": true,
          "internalType": "uint256",
          "name": "escrowId",
          "type": "uint256"
        },
        {
          "indexed": true,
          "internalType": "address",
          "name": "buyer",
          "type": "address"
        },
        {
          "indexed": false,
          "internalType": "uint256",
          "name": "amount",
          "type": "uint256"
        }
      ],
      "name": "PaymentDeposited",
      "type": "event"
    },
    {
      "anonymous": false,
      "inputs": [
        {
          "indexed": true,
          "internalType": "uint256",
          "name": "escrowId",
          "type": "uint256"
        },
        {
          "indexed": false,
          "internalType": "address",
          "name": "recipient",
          "type": "address"
        },
        {
          "indexed": false,
          "internalType": "uint256",
          "name": "netAmount",
          "type": "uint256"
        },
        {
          "indexed": false,
          "internalType": "address",
          "name": "feeRecipient",
          "type": "address"
        },
        {
          "indexed": false,
          "internalType": "uint256",
          "name": "feeAmount",
          "type": "uint256"
        }
      ],
      "name": "PayoutProposed",
      "type": "event"
    },
    {
      "anonymous": false,
      "inputs": [
        {
          "indexed": true,
          "internalType": "uint256",
          "name": "escrowId",
          "type": "uint256"
        },
        {
          "indexed": true,
          "internalType": "address",
          "name": "requester",
          "type": "address"
        }
      ],
      "name": "RequestCancel",
      "type": "event"
    },
    {
      "anonymous": false,
      "inputs": [
        {
          "indexed": true,
          "internalType": "uint256",
          "name": "escrowId",
          "type": "uint256"
        },
        {
          "indexed": false,
          "internalType": "bytes",
          "name": "sellerSig",
          "type": "bytes"
        }
      ],
      "name": "SellerWalletSigAttached",
      "type": "event"
    },
    {
      "anonymous": false,
      "inputs": [
        {
          "indexed": true,
          "internalType": "uint256",
          "name": "escrowId",
          "type": "uint256"
        },
        {
          "indexed": false,
          "internalType": "enum PalindromeCryptoEscrow.State",
          "name": "oldState",
          "type": "uint8"
        },
        {
          "indexed": true,
          "internalType": "enum PalindromeCryptoEscrow.State",
          "name": "newState",
          "type": "uint8"
        }
      ],
      "name": "StateChanged",
      "type": "event"
    },
    {
      "anonymous": false,
      "inputs": [
        {
          "indexed": true,
          "internalType": "uint256",
          "name": "escrowId",
          "type": "uint256"
        },
        {
          "indexed": true,
          "internalType": "address",
          "name": "wallet",
          "type": "address"
        }
      ],
      "name": "WalletCreated",
      "type": "event"
    },
    {
      "inputs": [],
      "name": "DISPUTE_LONG_TIMEOUT",
      "outputs": [
        {
          "internalType": "uint256",
          "name": "",
          "type": "uint256"
        }
      ],
      "stateMutability": "view",
      "type": "function"
    },
    {
      "inputs": [],
      "name": "DISPUTE_SHORT_TIMEOUT",
      "outputs": [
        {
          "internalType": "uint256",
          "name": "",
          "type": "uint256"
        }
      ],
      "stateMutability": "view",
      "type": "function"
    },
    {
      "inputs": [],
      "name": "GRACE_PERIOD",
      "outputs": [
        {
          "internalType": "uint256",
          "name": "",
          "type": "uint256"
        }
      ],
      "stateMutability": "view",
      "type": "function"
    },
    {
      "inputs": [],
      "name": "TIMEOUT_BUFFER",
      "outputs": [
        {
          "internalType": "uint256",
          "name": "",
          "type": "uint256"
        }
      ],
      "stateMutability": "view",
      "type": "function"
    },
    {
      "inputs": [
        {
          "internalType": "uint256",
          "name": "escrowId",
          "type": "uint256"
        },
        {
          "internalType": "bytes",
          "name": "sellerSig",
          "type": "bytes"
        }
      ],
      "name": "attachSellerWalletSig",
      "outputs": [],
      "stateMutability": "nonpayable",
      "type": "function"
    },
    {
      "inputs": [
        {
          "internalType": "uint256",
          "name": "escrowId",
          "type": "uint256"
        }
      ],
      "name": "cancelByTimeout",
      "outputs": [],
      "stateMutability": "nonpayable",
      "type": "function"
    },
    {
      "inputs": [
        {
          "internalType": "uint256",
          "name": "escrowId",
          "type": "uint256"
        },
        {
          "internalType": "string",
          "name": "ipfsHaesh",
          "type": "string"
        }
      ],
      "name": "confirmDelivery",
      "outputs": [],
      "stateMutability": "nonpayable",
      "type": "function"
    },
    {
      "inputs": [
        {
          "internalType": "uint256",
          "name": "escrowId",
          "type": "uint256"
        },
        {
          "internalType": "bytes",
          "name": "signature",
          "type": "bytes"
        },
        {
          "internalType": "uint256",
          "name": "deadline",
          "type": "uint256"
        },
        {
          "internalType": "uint256",
          "name": "nonce",
          "type": "uint256"
        },
        {
          "internalType": "string",
          "name": "ipfsHaesh",
          "type": "string"
        }
      ],
      "name": "confirmDeliverySigned",
      "outputs": [],
      "stateMutability": "nonpayable",
      "type": "function"
    },
    {
      "inputs": [
        {
          "internalType": "address",
          "name": "token",
          "type": "address"
        },
        {
          "internalType": "address",
          "name": "buyer",
          "type": "address"
        },
        {
          "internalType": "uint256",
          "name": "amount",
          "type": "uint256"
        },
        {
          "internalType": "uint256",
          "name": "maturityTimeDays",
          "type": "uint256"
        },
        {
          "internalType": "address",
          "name": "arbiter",
          "type": "address"
        },
        {
          "internalType": "string",
          "name": "title",
          "type": "string"
        },
        {
          "internalType": "string",
          "name": "ipfsHash",
          "type": "string"
        }
      ],
      "name": "createEscrow",
      "outputs": [
        {
          "internalType": "uint256",
          "name": "",
          "type": "uint256"
        }
      ],
      "stateMutability": "nonpayable",
      "type": "function"
    },
    {
      "inputs": [
        {
          "internalType": "address",
          "name": "token",
          "type": "address"
        },
        {
          "internalType": "address",
          "name": "seller",
          "type": "address"
        },
        {
          "internalType": "uint256",
          "name": "amount",
          "type": "uint256"
        },
        {
          "internalType": "uint256",
          "name": "maturityTimeDays",
          "type": "uint256"
        },
        {
          "internalType": "address",
          "name": "arbiter",
          "type": "address"
        },
        {
          "internalType": "string",
          "name": "title",
          "type": "string"
        },
        {
          "internalType": "string",
          "name": "ipfsHash",
          "type": "string"
        }
      ],
      "name": "createEscrowAndDeposit",
      "outputs": [
        {
          "internalType": "uint256",
          "name": "escrowId",
          "type": "uint256"
        }
      ],
      "stateMutability": "nonpayable",
      "type": "function"
    },
    {
      "inputs": [
        {
          "internalType": "uint256",
          "name": "escrowId",
          "type": "uint256"
        }
      ],
      "name": "deposit",
      "outputs": [],
      "stateMutability": "nonpayable",
      "type": "function"
    },
    {
      "inputs": [
        {
          "internalType": "uint256",
          "name": "",
          "type": "uint256"
        }
      ],
      "name": "disputeStatus",
      "outputs": [
        {
          "internalType": "uint256",
          "name": "",
          "type": "uint256"
        }
      ],
      "stateMutability": "view",
      "type": "function"
    },
    {
      "inputs": [],
      "name": "feeReceiver",
      "outputs": [
        {
          "internalType": "address",
          "name": "",
          "type": "address"
        }
      ],
      "stateMutability": "view",
      "type": "function"
    },
    {
      "inputs": [
        {
          "internalType": "uint256",
          "name": "escrowId",
          "type": "uint256"
        }
      ],
      "name": "getEscrow",
      "outputs": [
        {
          "components": [
            {
              "internalType": "address",
              "name": "token",
              "type": "address"
            },
            {
              "internalType": "address",
              "name": "buyer",
              "type": "address"
            },
            {
              "internalType": "address",
              "name": "seller",
              "type": "address"
            },
            {
              "internalType": "address",
              "name": "arbiter",
              "type": "address"
            },
            {
              "internalType": "address",
              "name": "wallet",
              "type": "address"
            },
            {
              "internalType": "uint256",
              "name": "amount",
              "type": "uint256"
            },
            {
              "internalType": "uint256",
              "name": "depositTime",
              "type": "uint256"
            },
            {
              "internalType": "uint256",
              "name": "maturityTime",
              "type": "uint256"
            },
            {
              "internalType": "uint256",
              "name": "disputeStartTime",
              "type": "uint256"
            },
            {
              "internalType": "enum PalindromeCryptoEscrow.State",
              "name": "state",
              "type": "uint8"
            },
            {
              "internalType": "bool",
              "name": "buyerCancelRequested",
              "type": "bool"
            },
            {
              "internalType": "bool",
              "name": "sellerCancelRequested",
              "type": "bool"
            },
            {
              "internalType": "uint8",
              "name": "tokenDecimals",
              "type": "uint8"
            }
          ],
          "internalType": "struct PalindromeCryptoEscrow.EscrowDeal",
          "name": "",
          "type": "tuple"
        }
      ],
      "stateMutability": "view",
      "type": "function"
    },
    {
      "inputs": [
        {
          "internalType": "uint256",
          "name": "escrowId",
          "type": "uint256"
        },
        {
          "internalType": "address",
          "name": "signer",
          "type": "address"
        },
        {
          "internalType": "uint256",
          "name": "bucket",
          "type": "uint256"
        }
      ],
      "name": "getNonceBitmap",
      "outputs": [
        {
          "internalType": "uint256",
          "name": "",
          "type": "uint256"
        }
      ],
      "stateMutability": "view",
      "type": "function"
    },
    {
      "inputs": [
        {
          "internalType": "uint256",
          "name": "escrowId",
          "type": "uint256"
        },
        {
          "internalType": "address",
          "name": "signer",
          "type": "address"
        },
        {
          "internalType": "uint256",
          "name": "nonce",
          "type": "uint256"
        }
      ],
      "name": "isNonceUsed",
      "outputs": [
        {
          "internalType": "bool",
          "name": "",
          "type": "bool"
        }
      ],
      "stateMutability": "view",
      "type": "function"
    },
    {
      "inputs": [],
      "name": "nextEscrowId",
      "outputs": [
        {
          "internalType": "uint256",
          "name": "",
          "type": "uint256"
        }
      ],
      "stateMutability": "view",
      "type": "function"
    },
    {
      "inputs": [
        {
          "internalType": "uint256",
          "name": "escrowId",
          "type": "uint256"
        }
      ],
      "name": "requestCancel",
      "outputs": [],
      "stateMutability": "nonpayable",
      "type": "function"
    },
    {
      "inputs": [
        {
          "internalType": "uint256",
          "name": "escrowId",
          "type": "uint256"
        }
      ],
      "name": "startDispute",
      "outputs": [],
      "stateMutability": "nonpayable",
      "type": "function"
    },
    {
      "inputs": [
        {
          "internalType": "uint256",
          "name": "escrowId",
          "type": "uint256"
        },
        {
          "internalType": "bytes",
          "name": "signature",
          "type": "bytes"
        },
        {
          "internalType": "uint256",
          "name": "deadline",
          "type": "uint256"
        },
        {
          "internalType": "uint256",
          "name": "nonce",
          "type": "uint256"
        }
      ],
      "name": "startDisputeSigned",
      "outputs": [],
      "stateMutability": "nonpayable",
      "type": "function"
    },
    {
      "inputs": [
        {
          "internalType": "uint256",
          "name": "escrowId",
          "type": "uint256"
        },
        {
          "internalType": "enum PalindromeCryptoEscrow.State",
          "name": "resolution",
          "type": "uint8"
        },
        {
          "internalType": "string",
          "name": "ipfsHash",
          "type": "string"
        }
      ],
      "name": "submitArbiterDecision",
      "outputs": [],
      "stateMutability": "nonpayable",
      "type": "function"
    },
    {
      "inputs": [
        {
          "internalType": "uint256",
          "name": "escrowId",
          "type": "uint256"
        },
        {
          "internalType": "enum PalindromeCryptoEscrow.Role",
          "name": "role",
          "type": "uint8"
        },
        {
          "internalType": "string",
          "name": "ipfsHash",
          "type": "string"
        }
      ],
      "name": "submitDisputeMessage",
      "outputs": [],
      "stateMutability": "nonpayable",
      "type": "function"
    }
  ],
  "bytecode": "0x60e0806040523461019d57602081615412803803809161001f82856101a1565b83398101031261019d57516001600160a01b03811680820361019d5760015f551561016b576080524660c0526040516100596040826101a1565b601681527f50616c696e64726f6d6543727970746f457363726f7700000000000000000000602090910152604080517f214be339dbd101005f8c34eca4dc81d275788130af1987d8fb35ea9c0a925bfa916100b490826101a1565b600181526020810190603160f81b82525190206040519060208201927f8b73c3c69bb8fe3d512ecc4cf759cc79239f7b179b0ffacaa9a75d522b39400f8452604083015260608201524660808201523060a082015260a0815261011860c0826101a1565b51902060a05260405161523990816101d982396080518181816106eb01528181610c8101528181610eb801528181611a6701528181612f5b0152613032015260a05181612bc5015260c05181612b9f0152f35b60405162461bcd60e51b815260206004820152600a602482015269466565546f207a65726f60b01b6044820152606490fd5b5f80fd5b601f909101601f19168101906001600160401b038211908210176101c457604052565b634e487b7160e01b5f52604160045260245ffdfe60806040526004361015610011575f80fd5b5f3560e01c806306075a151461200057806310f169e814611fd65780631452483b14611fb957806335ef2c6b14611f6f5780634186928c14611f53578063584e40fa14611f365780636232ef6014611cad578063769a68e3146117875780637d19e5961461157157806389cb29dd14611554578063925f7f99146112a057806398949a20146111a35780639dede53c146111625780639f0f7a2214610db6578063b211838814610cb0578063b3f0067414610c6c578063b6b55f2514610b33578063c0cfa7e5146109ae578063c1a287e214610991578063c761423d146105fc578063da183b02146103eb5763e683a2d41461010b575f80fd5b346103e75760203660031901126103e757600435610127612acc565b61013460015482106123d1565b5f81815260026020526040902060010154610159906001600160a01b03161515612415565b805f52600260205260405f20600181019060018060a01b0382541633148080156103d1575b15610395576009820190815460ff811660068110156103815760010361034e576101ad60068501541515612a93565b6101bb600885015415612a56565b60ff8160081c169060ff8160101c16925f146102f25750806102ad57825461ff0019166101001783555b159081156102a4575b506101fa575b60015f55005b5460ff8160081c169081610296575b50156102695761022e60059261021e85612e67565b546001600160a01b031684612ff1565b50500154906040519182527feb8b5b87fbea5b732b8f4fd82b65d9afef713c799d98da83090f22c45577998d60203393a35b5f8080806101f4565b505033907f88a867d5d9b489598a3f5e5c8d5c1da163ed116737b70444bac744920904a5735f80a3610260565b60ff915060101c165f610209565b9050155f6101ee565b60405162461bcd60e51b815260206004820152601760248201527f427579657220616c7265616479207265717565737465640000000000000000006044820152606490fd5b826103095762ff00001916620100001783556101e5565b60405162461bcd60e51b815260206004820152601860248201527f53656c6c657220616c72656164792072657175657374656400000000000000006044820152606490fd5b60405162461bcd60e51b815260206004820152600b60248201526a57726f6e6720737461746560a81b6044820152606490fd5b634e487b7160e01b5f52602160045260245ffd5b60405162461bcd60e51b815260206004820152601460248201527327b7363c90313abcb2b91037b91039b2b63632b960611b6044820152606490fd5b5060028201546001600160a01b0316331461017e565b5f80fd5b346103e75760203660031901126103e757600435610407612acc565b61041460015482106123d1565b5f81815260026020526040902060010154610439906001600160a01b03161515612415565b5f818152600260205260409020600101546001600160a01b031633036105ed57805f52600260205260405f20600981015460ff811660068110156103815760016104839114612a12565b610491600883015415612a56565b60ff8160081c16156105b35760101c60ff16610579576104b660068201541515612a93565b60078101546201518081018091116105655742111561052a576005906104db83612e67565b60018101546104f3906001600160a01b031684612ff1565b50500154906040519182527feb8b5b87fbea5b732b8f4fd82b65d9afef713c799d98da83090f22c45577998d60203393a360015f55005b60405162461bcd60e51b8152602060048201526013602482015272477261636520706572696f642061637469766560681b6044820152606490fd5b634e487b7160e01b5f52601160045260245ffd5b60405162461bcd60e51b81526020600482015260126024820152714d757475616c2063616e63656c20646f6e6560701b6044820152606490fd5b60405162461bcd60e51b8152602060048201526012602482015271135d5cdd081c995c5d595cdd08199a5c9cdd60721b6044820152606490fd5b6386efbb5560e01b5f5260045ffd5b346103e75761060a36612340565b9061061983859a949895613060565b6106238282612dc3565b6106376001600160a01b0384161515612688565b6001600160a01b0388169661064d8815156126c1565b610659338914156126fa565b61066485151561273a565b610671610e438810612774565b61067a846130bc565b9961068f6106878c6131e3565b8710156127b4565b6001600160a01b03871699338b141580610987575b6106ad906127f3565b6106b78c886131fd565b90916001549160405193611b8d93848601948686106001600160401b03871117610973578695610714958f9261365789398d7f00000000000000000000000000000000000000000000000000000000000000009433933090612831565b03905ff08061073a5760405162461bcd60e51b8152806107366004820161288e565b0390fd5b610746813f15156128bf565b6001600160a01b03169561075b871515612901565b6040516317aa5fb760e11b8152600481018b90526020816024818b5afa80156109495761078f915f91610954575b50612939565b6040516317aa5fb760e11b81523360048201526020816024818b5afa8015610949576107c2915f9161091a575b50612977565b6001549b6107cf8d6129b6565b6001558c5f52600260205260405f209b60018060a01b0388168d6001600160601b0360a01b905416178d5560018d018c6001600160601b0360a01b82541617905560028d0160018060a01b0333166001600160601b0360a01b82541617905560038d01906001600160601b0360a01b82541617905560048c0160018060a01b0389166001600160601b0360a01b8254161790558160058d0155620151808a0299808b04620151801490151715610565578c9961088b904261245a565b60078d019081556009909c01805463ff0000ff191660189290921b63ff000000169190911790556040519788978a7f470292d5e9c87e6d5a100a14c56a434c9f25e9e2be1d5efa70c3b5f9aeda505f5f80a3339b54916108eb97896129c4565b037fd3e0574cb952cf8d88c9c2b97882e6000237da1d62a64753eaddaf4d9ce7351b91a4604051908152602090f35b61093c915060203d602011610942575b61093481836124fe565b810190612921565b8e6107bc565b503d61092a565b6040513d5f823e3d90fd5b61096d915060203d6020116109425761093481836124fe565b8e610789565b634e487b7160e01b5f52604160045260245ffd5b508a8a14156106a4565b346103e7575f3660031901126103e7576020604051620151808152f35b346103e75760203660031901126103e7576004356109ca612acc565b6109d760015482106123d1565b5f818152600260205260409020600101546109fc906001600160a01b03161515612415565b805f52600260205260405f2060018060a01b036001820154163314159081610b1b575b50610b0c575f81815260026020526040902060038101546001600160a01b031615610ad8576009810160ff8154166006811015610381576001610a629114612a12565b600260ff1982541617905560084291015562278d004201804211610565577f1a9502b6f661da8b0573a0617c121cabe2e93ea05d5239cfab6e9d1734b928c960208392604051908152a233907fd658effe7cf013e5a508b3f1a373b92566494d8b6a7c2970fc964932de1c4dab5f80a360015f55005b60405162461bcd60e51b815260206004820152600c60248201526b2d32b9379030b93134ba32b960a11b6044820152606490fd5b631cfe2f0560e11b5f5260045ffd5b600201546001600160a01b0316331415905082610a1f565b346103e75760203660031901126103e757600435610b4f612acc565b610b5c60015482106123d1565b5f81815260026020526040902060010154610b81906001600160a01b03161515612415565b5f818152600260205260409020600101546001600160a01b031633036105ed57805f52600260205260405f206009810160ff815416600681101561038157610c305781546004830154600584018054909492610beb926001600160a01b03908116913391166132ad565b600642910155600160ff1982541617905554906040519182527f71284872bb4c088a81295dff2513729babbccfeda38a8d824bb1a73bcaab494e60203393a360015f55005b60405162461bcd60e51b8152602060048201526014602482015273139bdd08185dd85a5d1a5b99c81c185e5b595b9d60621b6044820152606490fd5b346103e7575f3660031901126103e7576040517f00000000000000000000000000000000000000000000000000000000000000006001600160a01b03168152602090f35b346103e757610cbe3661230d565b9091610cc8612acc565b610cd560015482106123d1565b5f81815260026020526040902060010154610cfa906001600160a01b03161515612415565b5f818152600260205260409020600101546001600160a01b031633036105ed57805f52600260205260405f209160ff60098401541690600682101561038157610d6660017f0298917f100869a28a40e5be38ea1576557876b34d29d20af11bd34fe53b2ef99314612a12565b610d6f83612e13565b60028401546001600160a01b031694610dad610d8b8786612eab565b939050600560018060a01b036001890154169701549260405194859485612669565b0390a460015f55005b346103e757610e80610dc736612340565b9290939491869899969792610dda612acc565b610de48284613060565b610dee8587612dc3565b6001600160a01b038b1696610e04881515612688565b6001600160a01b038516948c90610e1c8715156126c1565b610e28338814156126fa565b610e338c151561273a565b610e40610e438510612774565b610e85610e4c836130bc565b809d610e62610e5a836131e3565b8210156127b4565b60018060a01b0386169d8e8b338214159182611155575b50506127f3565b6131fd565b60015460405194611b8d80870195919492916001600160401b03871188881017610973578796610ee1968a936136578a397f00000000000000000000000000000000000000000000000000000000000000009433923090612831565b03905ff09b8c610f045760405162461bcd60e51b8152806107366004820161288e565b60209c610f13813f15156128bf565b6001600160a01b031696610f28881515612901565b6040516317aa5fb760e11b81523360048201529d8e6024818b5afa9d8e156109495760209e610f5d915f916111365750612939565b6040516317aa5fb760e11b8152600481018890529d8e6024818b5afa9d8e1561094957610f9e9e610f94915f916111175750612977565b6001549d8e6129b6565b60019081555f8f815260026020819052604090912080546001600160a01b03199081168e1782559281018054841633179055908101805483168a1790556003810180548316909d17909c5560048c0180549091166001600160a01b038a1617905560058b018d9055620151808481029480159086049091141715610565578c988e958a9561102c904261245a565b978d60078101998a556009019e8f9060ff198254168255611061919063ff00000082549160181b169063ff0000001916179055565b6040519687968c8a7f470292d5e9c87e6d5a100a14c56a434c9f25e9e2be1d5efa70c3b5f9aeda505f5f80a3339a549161109b97896129c4565b037fd3e0574cb952cf8d88c9c2b97882e6000237da1d62a64753eaddaf4d9ce7351b91a4336110c9936132ad565b42906006015560ff19815416600117905560405190815281339160207f2c39794ba48d965361d6eb56f0d6366313044d1b5b1758c68643d3e3a39a2c4e91a360015f55604051908152602090f35b611130915060203d6020116109425761093481836124fe565b5f6107bc565b602061114f92503d6020116109425761093481836124fe565b5f610789565b90915014158f8c90610e79565b346103e757611170366122d6565b915f52600560205260405f209060018060a01b03165f5260205260405f20905f52602052602060405f2054604051908152f35b346103e7576111b13661230d565b90825f52600260205260405f2060018060a01b036001820154163314159081611288575b50610b0c57825f52600760205260ff60405f205416611243577f9a98d2f378553651c1f49353593985b1cda0f6d7e9ab1062bb365dc9172a5cd591835f52600760205260405f20600160ff1982541617905561123e604051928392602084526020840191612649565b0390a2005b60405162461bcd60e51b815260206004820152601a60248201527f5369676e617475726520616c72656164792061747461636865640000000000006044820152606490fd5b600201546001600160a01b03163314159050846111d5565b346103e75760a03660031901126103e7576004356024356001600160401b0381116103e7576112d39036906004016122a9565b9160443592606435906084356001600160401b0381116103e7576112fb9036906004016122a9565b959092611306612acc565b61131360015486106123d1565b5f85815260026020526040902060010154611338906001600160a01b03161515612415565b4282118061153f575b61134a90612467565b845f52600260205260405f209560ff600988015416600681101561038157600114611374906124a6565b61137e8482612b20565b6001870193600160a01b600190038554168760028a0195600160a01b6001900387541690600160a01b6001900360038d015416600160a01b600190038d54169c600581019d8e549160060154926040519560208701977f2175432d6c7eab3a2ef5708fc419540c0f4d274cabd17912c92683ed8466b5e989526040880152886060880152608087015260a086015260c085015260e084015261010083015261012082015285610140820152610140815261143a610160826124fe565b519020611445612b9c565b60405161190160f01b602082019081526022820192909252604280820193909352918252906114756062826124fe565b51902061148336848661253a565b61148c916133fc565b6114959061342d565b6001600160a01b03166114a9811515612570565b146114b3906125af565b6114bd9187612c8a565b82546114d391906001600160a01b031686612d4a565b6114dc84612e13565b546001600160a01b0316946114f18685612eab565b925495546040516001600160a01b0390971696948594611515949350909185612669565b037f0298917f100869a28a40e5be38ea1576557876b34d29d20af11bd34fe53b2ef991a460015f55005b50620151804201804211610565578210611341565b346103e7575f3660031901126103e7576020600154604051908152f35b346103e75760203660031901126103e7576004355f610180604051611595816124e2565b8281528260208201528260408201528260608201528260808201528260a08201528260c08201528260e08201528261010082015282610120820152826101408201528261016082015201526115ed60015482106123d1565b5f81815260026020526040902060010154611612906001600160a01b03161515612415565b5f52600260205260405f206040519061162a826124e2565b80546001600160a01b039081168352600182015481166020840190815260028301548216604085019081526003840154831660608601908152600485015490931660808601908152600585015460a0870190815260068087015460c08901908152600788015460e08a0190815260088901546101008b0190815260099099015498969795966101208b019690959194929360ff8b169081101561038157875260ff60088b901c811615156101408d0190815260108c901c821615156101608e0190815260189c909c1c9091166101808d01908152604080519d516001600160a01b039081168f529b518c1660208f015299518b16998d01999099529051891660608c0152905190971660808a01525160a08901525160c08801525160e087015251610100860152519092919061176590610120860190612300565b5115156101408401525115156101608301525160ff166101808201526101a090f35b346103e75760603660031901126103e7576004356024356006811080156103e7576044356001600160401b0381116103e7576117c79036906004016122a9565b9290916117d2612acc565b6117df60015486106123d1565b5f85815260026020526040902060010154611804906001600160a01b03161515612415565b5f858152600260205260409020600301546001600160a01b03163303611c9e57845f52600260205260405f209360ff600986015416600681101561038157600261184e91146124a6565b5f916003841494858015611c91575b15611c5757875f52600660205260405f20546001811615159081611c4a575b50600888015462278d008101908181116105655762279b1001809111610565578115611c40575b5015611bed57875f52600460205260ff60405f205416611bb657875f52600460205260405f20600160ff19825416179055875f526002602052600960405f2001916118f38660ff855416946125f1565b156103815761196b7f4e71d2a3ce09c95d708a8bc888cb8838c8419bea1f25f6d07f2c601b173f720e91868a7f18e785d11512625ba8e5486b7d963f337dfc0a628752fe18e284b0375eefe46c602082976119516040518092612300565ba36040519460038652604060208701526040860191612649565b928033940390a3610381578115611ba25760028301546001600160a01b0316915b845f5260026020528460405f20915f14611b5f575060018060a01b036004820154169260405191631f0581cf60e21b8352602083600481885afa928315610949575f93611b2b575b5060046020849660405192838092631a78550160e21b82525afa908115610949575f91611af7575b50611a0a816005929561245a565b91015403611ab9577ffc4c84ff0bf9d937dea068e6c13c3a16c307d76a1c5b5173c40f03f68f421e0094865f5160206151e45f395f51905f52608060059481985b6040519160018060a01b03168252602082015260018060a01b037f0000000000000000000000000000000000000000000000000000000000000000166040820152866060820152a20154611aa26040518094612300565b33602084015260408301526060820152a260015f55005b60405162461bcd60e51b815260206004820152601660248201527508ccaca40d2dcecc2e4d2c2dce840dad2e6dac2e8c6d60531b6044820152606490fd5b90506020813d602011611b23575b81611b12602093836124fe565b810103126103e75751611a0a6119fc565b3d9150611b05565b9092506020813d602011611b57575b81611b47602093836124fe565b810103126103e7575191876119d4565b3d9150611b3a565b7ffc4c84ff0bf9d937dea068e6c13c3a16c307d76a1c5b5173c40f03f68f421e00946005915f5160206151e45f395f51905f526080848198960154955f96611a4b565b60018301546001600160a01b03169161198c565b60405162461bcd60e51b815260206004820152600f60248201526e105b1c9958591e48191958da591959608a1b6044820152606490fd5b60405162461bcd60e51b815260206004820152602560248201527f526571756972652066756c6c2065766964656e6365206f72206c6f6e672074696044820152641b595bdd5d60da1b6064820152608490fd5b90504211896118a3565b600291501615158961187c565b60405162461bcd60e51b815260206004820152601260248201527124b73b30b634b2103932b9b7b63aba34b7b760711b6044820152606490fd5b505f93506004851461185d565b6372cc71e760e11b5f5260045ffd5b346103e75760603660031901126103e75760043560243590600482109182156103e7576044356001600160401b0381116103e757611cef9036906004016122a9565b9190611cf9612acc565b611d0660015485106123d1565b5f84815260026020526040902060010154611d2b906001600160a01b03161515612415565b835f52600260205260405f2060018060a01b036001820154163314159081611f1e575b81611f06575b50611ef757835f52600260205260405f2060ff600982015416600681101561038157600203611ec357611d878483612dc3565b845f52600660205260405f205490600184145f14611e5157600101546001600160a01b03163303611e1f5780611dc1600180931615612609565b175b845f52600660205260405f20556040519415610381577f4e71d2a3ce09c95d708a8bc888cb8838c8419bea1f25f6d07f2c601b173f720e92611e12928652604060208701526040860191612649565b928033940390a360015f55005b60405162461bcd60e51b815260206004820152600a60248201526927b7363c90313abcb2b960b11b6044820152606490fd5b60028403611eb457600201546001600160a01b03163303611e815780611e7b600280931615612609565b17611dc3565b60405162461bcd60e51b815260206004820152600b60248201526a27b7363c9039b2b63632b960a91b6044820152606490fd5b63421b511560e11b5f5260045ffd5b60405162461bcd60e51b815260206004820152600c60248201526b139bdd08191a5cdc1d5d195960a21b6044820152606490fd5b63721c7c6760e11b5f5260045ffd5b600301546001600160a01b0316331415905086611d54565b60028101546001600160a01b03163314159150611d4e565b346103e7575f3660031901126103e757602060405162093a808152f35b346103e7575f3660031901126103e7576020604051610e108152f35b346103e7576020611f7f366122d6565b915f526005835260405f209060018060a01b03165f52825260405f208160081c5f52825260405f2054600160ff60405193161b1615158152f35b346103e7575f3660031901126103e757602060405162278d008152f35b346103e75760203660031901126103e7576004355f526006602052602060405f2054604051908152f35b346103e75760803660031901126103e7576004356024356001600160401b0381116103e7576120339036906004016122a9565b604435929160643591612044612acc565b61205160015485106123d1565b5f84815260026020526040902060010154612076906001600160a01b03161515612415565b42851180612294575b61208890612467565b835f52600260205260405f2092600984019260ff845416600681101561038157612216936121e4926120bf600161221094146124a6565b6120c98282612b20565b61220a60018060a01b0360018a0154169a6121dc8b8d8c600260018060a01b0391015416938d60018060a01b036003820154169060018060a01b0381541660066005830154920154926040519560208701977f3ec4667e1948e2e97f54b4602b6bbfa8f3f98ff1036916ce75d84c59f9558f0289526040880152606087015288608087015260a086015260c085015260e0840152610100830152610120820152896101408201526101408152612181610160826124fe565b5190206121ba6121c8612192612b9c565b92604051928391602083019586909160429261190160f01b8352600283015260228201520190565b03601f1981018352826124fe565b5190206121d636878761253a565b906133fc565b96909661342d565b6001600160a01b0386169b6121fa8d1515612570565b8c1490811561228a575b506125af565b88612c8a565b85612d4a565b600260ff1982541617905560084291015562278d004201804211610565577f1a9502b6f661da8b0573a0617c121cabe2e93ea05d5239cfab6e9d1734b928c960208392604051908152a27fd658effe7cf013e5a508b3f1a373b92566494d8b6a7c2970fc964932de1c4dab5f80a360015f55005b90508b148c612204565b5062015180420180421161056557851061207f565b9181601f840112156103e7578235916001600160401b0383116103e757602083818601950101116103e757565b60609060031901126103e757600435906024356001600160a01b03811681036103e7579060443590565b9060068210156103815752565b9060406003198301126103e75760043591602435906001600160401b0382116103e75761233c916004016122a9565b9091565b9060e06003198301126103e7576004356001600160a01b03811681036103e757916024356001600160a01b03811681036103e7579160443591606435916084356001600160a01b03811681036103e7579160a4356001600160401b0381116103e757816123af916004016122a9565b9290929160c435906001600160401b0382116103e75761233c916004016122a9565b156123d857565b60405162461bcd60e51b8152602060048201526015602482015274115cd8dc9bddc8191bd95cc81b9bdd08195e1a5cdd605a1b6044820152606490fd5b1561241c57565b60405162461bcd60e51b8152602060048201526016602482015275115cd8dc9bddc81b9bdd081a5b9a5d1a585b1a5e995960521b6044820152606490fd5b9190820180921161056557565b1561246e57565b60405162461bcd60e51b815260206004820152601060248201526f496e76616c696420646561646c696e6560801b6044820152606490fd5b156124ad57565b60405162461bcd60e51b815260206004820152600d60248201526c496e76616c696420737461746560981b6044820152606490fd5b6101a081019081106001600160401b0382111761097357604052565b90601f801991011681019081106001600160401b0382111761097357604052565b6001600160401b03811161097357601f01601f191660200190565b9291926125468261251f565b9161255460405193846124fe565b8294818452818301116103e7578281602093845f960137010152565b1561257757565b60405162461bcd60e51b815260206004820152601060248201526f496e76616c6964207265636f7665727960801b6044820152606490fd5b156125b657565b60405162461bcd60e51b81526020600482015260136024820152722ab730baba3437b934bd32b21039b4b3b732b960691b6044820152606490fd5b9060068110156103815760ff80198354169116179055565b1561261057565b60405162461bcd60e51b8152602060048201526011602482015270105b1c9958591e481cdd589b5a5d1d1959607a1b6044820152606490fd5b908060209392818452848401375f828201840152601f01601f1916010190565b6126859492606092825260208201528160408201520191612649565b90565b1561268f57565b60405162461bcd60e51b815260206004820152600a602482015269546f6b656e207a65726f60b01b6044820152606490fd5b156126c857565b60405162461bcd60e51b815260206004820152600a6024820152694275796572207a65726f60b01b6044820152606490fd5b1561270157565b60405162461bcd60e51b815260206004820152601160248201527042757965722073656c6c65722073616d6560781b6044820152606490fd5b1561274157565b60405162461bcd60e51b815260206004820152600b60248201526a416d6f756e74207a65726f60a81b6044820152606490fd5b1561277b57565b60405162461bcd60e51b81526020600482015260116024820152704d6174757269747920746f6f206c6f6e6760781b6044820152606490fd5b156127bb57565b60405162461bcd60e51b815260206004820152601060248201526f105b5bdd5b9d081d1bdbc81cdb585b1b60821b6044820152606490fd5b156127fa57565b60405162461bcd60e51b815260206004820152600f60248201526e24b73b30b634b21030b93134ba32b960891b6044820152606490fd5b6001600160a01b039182168152602081019290925291821660408201529181166060830152918216608082015291811660a083015290911660c082015260e081019190915261010081019190915260026101208201526101400190565b60609060208152601660208201527515d85b1b195d0818dc99585d1a5bdb8819985a5b195960521b60408201520190565b156128c657565b60405162461bcd60e51b815260206004820152601360248201527257616c6c657420636f6465206d697373696e6760681b6044820152606490fd5b1561290857565b60405162461bcd60e51b8152806107366004820161288e565b908160209103126103e7575180151581036103e75790565b1561294057565b60405162461bcd60e51b815260206004820152600f60248201526e213abcb2b9103737ba1037bbb732b960891b6044820152606490fd5b1561297e57565b60405162461bcd60e51b815260206004820152601060248201526f29b2b63632b9103737ba1037bbb732b960811b6044820152606490fd5b5f1981146105655760010190565b969492612685989692612a04959260018060a01b03168952602089015260018060a01b03166040880152606087015260c0608087015260c0860191612649565b9260a0818503910152612649565b15612a1957565b60405162461bcd60e51b81526020600482015260156024820152744e6f74206177616974696e672064656c697665727960581b6044820152606490fd5b15612a5d57565b60405162461bcd60e51b815260206004820152600e60248201526d446973707574652061637469766560901b6044820152606490fd5b15612a9a57565b60405162461bcd60e51b815260206004820152600a602482015269139bc819195c1bdcda5d60b21b6044820152606490fd5b60025f5414612adb5760025f55565b60405162461bcd60e51b815260206004820152601f60248201527f5265656e7472616e637947756172643a207265656e7472616e742063616c6c006044820152606490fd5b90604103612b8d576fa2a8918ca85bafe22016d0b997e4df60600160ff1b03602060408301355f1a92013511612b7e57601b8114159081612b72575b50612b6357565b6307839aef60e21b5f5260045ffd5b601c915014155f612b5c565b6354b34b0360e01b5f5260045ffd5b6354f3472360e01b5f5260045ffd5b467f000000000000000000000000000000000000000000000000000000000000000003612be7577f000000000000000000000000000000000000000000000000000000000000000090565b6040601660208251612bf984826124fe565b828152017550616c696e64726f6d6543727970746f457363726f7760501b815220600160208351612c2a85826124fe565b82815201603160f81b81522082519160208301937f8b73c3c69bb8fe3d512ecc4cf759cc79239f7b179b0ffacaa9a75d522b39400f855283015260608201524660808201523060a082015260a08152612c8460c0826124fe565b51902090565b91604103612b8d57602081013560408201355f1a6fa2a8918ca85bafe22016d0b997e4df60600160ff1b038211612b7e57601b8114159081612d3e575b50612b63576040519160208301933060601b85526034840152356054830152607482015246609482015260948152612d0060b4826124fe565b519020805f52600360205260ff60405f205416612d2f575f52600360205260405f20600160ff19825416179055565b63900bb2c960e01b5f5260045ffd5b601c915014155f612cc7565b91908160081c90835f52600560205260405f2060018060a01b0382165f5260205260405f20825f52602052600160ff60405f205494161b93848416612db4575f52600560205260405f209060018060a01b03165f5260205260405f20905f526020521760405f2055565b633ab3447f60e11b5f5260045ffd5b506101f410612dce57565b60405162461bcd60e51b815260206004820152601860248201527f496e76616c696420495046532068617368206c656e67746800000000000000006044820152606490fd5b600390805f5260026020527f18e785d11512625ba8e5486b7d963f337dfc0a628752fe18e284b0375eefe46c6020600960405f2001612e578560ff835416926125f1565b612e646040518092612300565ba3565b600590805f5260026020527f18e785d11512625ba8e5486b7d963f337dfc0a628752fe18e284b0375eefe46c6020600960405f2001612e578560ff835416926125f1565b9091815f52600260205260405f209160018060a01b036004840154169360405190631f0581cf60e21b8252602082600481895afa908115610949575f91612fbc575b600492506020829760405194858092631a78550160e21b82525afa928315610949575f93612f88575b5082956005612f25858561245a565b91015403611ab9575f5160206151e45f395f51905f52926080926040519260018060a01b03168352602083015260018060a01b037f00000000000000000000000000000000000000000000000000000000000000001660408301526060820152a2565b9092506020813d602011612fb4575b81612fa4602093836124fe565b810103126103e75751915f612f16565b3d9150612f97565b90506020823d602011612fe9575b81612fd7602093836124fe565b810103126103e7576004915190612eed565b3d9150612fca565b91825f526002602052600560405f200154925f5160206151e45f395f51905f5260805f946040519060018060a01b0316815286602082015260018060a01b037f00000000000000000000000000000000000000000000000000000000000000001660408201525f6060820152a2565b5080151590816130af575b501561307357565b60405162461bcd60e51b8152602060048201526014602482015273092dcecc2d8d2c840e8d2e8d8ca40d8cadccee8d60631b6044820152606490fd5b6101f4915011155f61306b565b60405163313ce56760e01b815290602090829060049082906001600160a01b0316617530fa5f9181613194575b506131335760405162461bcd60e51b815260206004820152601f60248201527f546f6b656e206d75737420696d706c656d656e7420646563696d616c732829006044820152606490fd5b60ff811660068110159081613188575b501561314c5790565b60405162461bcd60e51b8152602060048201526014602482015273556e737570706f7274656420646563696d616c7360601b6044820152606490fd5b6012915011155f613143565b9091506020813d6020116131ca575b816131b0602093836124fe565b810103126103e7575160ff811681036103e757905f6130e9565b3d91506131a3565b60ff16604d811161056557600a0a90565b6131ec906131d2565b80600a0290600a8204036105655790565b9060ff1660028111156132a3576001190160ff81116105655761321f906131d2565b60648202828104606414831517156105655761271090049080821061329b5750905b81818110156132565781039081116105655791565b60405162461bcd60e51b815260206004820152601860248201527f416d6f756e7420746f6f20736d616c6c20666f722066656500000000000000006044820152606490fd5b905090613241565b5061321f5f6131d2565b6040516323b872dd60e01b602082019081526001600160a01b03938416602483015292909316604484015260648084019490945292825261336c925f9081906132f76084866124fe565b60018060a01b0316926040519461330f6040876124fe565b602086527f5361666545524332303a206c6f772d6c6576656c2063616c6c206661696c65646020870152519082855af13d156133f4573d916133508361251f565b9261335e60405194856124fe565b83523d5f602085013e6135a2565b80519081159182156133da575b50501561338257565b60405162461bcd60e51b815260206004820152602a60248201527f5361666545524332303a204552433230206f7065726174696f6e20646964206e6044820152691bdd081cdd58d8d9595960b21b6064820152608490fd5b6133ed9250602080918301019101612921565b5f80613379565b6060916135a2565b9060418151145f146134245761233c91602082015190606060408401519301515f1a90613531565b50505f90600290565b6005811015610381578061343e5750565b6001810361348b5760405162461bcd60e51b815260206004820152601860248201527f45434453413a20696e76616c6964207369676e617475726500000000000000006044820152606490fd5b600281036134d85760405162461bcd60e51b815260206004820152601f60248201527f45434453413a20696e76616c6964207369676e6174757265206c656e677468006044820152606490fd5b6003146134e157565b60405162461bcd60e51b815260206004820152602260248201527f45434453413a20696e76616c6964207369676e6174757265202773272076616c604482015261756560f01b6064820152608490fd5b6fa2a8918ca85bafe22016d0b997e4df60600160ff1b038411613597576020935f9360ff60809460405194855216868401526040830152606082015282805260015afa15610949575f516001600160a01b0381161561358f57905f90565b505f90600190565b505050505f90600390565b9192901561360457508151156135b6575090565b3b156135bf5790565b60405162461bcd60e51b815260206004820152601d60248201527f416464726573733a2063616c6c20746f206e6f6e2d636f6e74726163740000006044820152606490fd5b8251909150156136175750805190602001fd5b604460209160405192839162461bcd60e51b83528160048401528051918291826024860152018484015e5f828201840152601f01601f19168101030190fdfe6101e080604052346103fc5761014081611b8d80380380916100218285610400565b8339810103126103fc5761003481610437565b90602081015161004660408301610437565b61005260608401610437565b61005e60808501610437565b61006a60a08601610437565b9161007760c08701610437565b9360e0870151956101206101008901519801519860ff8a16808b036103fc5760015f556001600160a01b038216156103c9576001600160a01b0385161515806103b7575b156103835760020361033e5788880180891161032a578989821015918261031f575b5050156102e85760805260a0526101805260c05260e052610100526101205261014052610160526101a052604051610116604082610400565b601681527f50616c696e64726f6d65457363726f7757616c6c657400000000000000000000602090910152604080517fd5841ac2316671d82a0b6316f3b37c25b9263de2e5c9e54cefc98911e9c1f8df916101719082610400565b600181526020810190603160f81b82525190206040519060208201927f8b73c3c69bb8fe3d512ecc4cf759cc79239f7b179b0ffacaa9a75d522b39400f8452604083015260608201524660808201523060a082015260a081526101d560c082610400565b5190206101c052604051611741908161044c823960805181818161040c0152610a9d015260a05181818161021601526103d4015260c0518181816102880152818161079501528181610867015281816109b301528181610b560152611143015260e05181818161015101528181610382015281816109f101528181610bc901526111f801526101005181818161083501528181610a1f01528181610b2501528181610b990152611247015261012051818181610109015261031501526101405181818161034b015261091a015261016051818181610250015281816105f901526108980152610180518181816104db0152610ae101526101a0518181816101db015261058c01526101c051816105400152f35b60405162461bcd60e51b815260206004820152600f60248201526e416d6f756e74206f766572666c6f7760881b6044820152606490fd5b10159050895f6100dd565b634e487b7160e01b5f52601160045260245ffd5b60405162461bcd60e51b815260206004820152601360248201527f5468726573686f6c64206d7573742062652032000000000000000000000000006044820152606490fd5b60405162461bcd60e51b815260206004820152600c60248201526b5a65726f206164647265737360a01b6044820152606490fd5b506001600160a01b03861615156100bb565b60405162461bcd60e51b815260206004820152600b60248201526a457363726f77207a65726f60a81b6044820152606490fd5b5f80fd5b601f909101601f19168101906001600160401b0382119082101761042357604052565b634e487b7160e01b5f52604160045260245ffd5b51906001600160a01b03821682036103fc5756fe60806040526004361015610011575f80fd5b5f3560e01c8063017e7e58146100f457806308551a53146100ef5780632f54bf6e146100ea57806342cde4e8146100e55780635753d989146100e057806369e15404146100db5780637150d8ae146100d65780637652a7c1146100d15780637c16073c146100cc578063a0e67e2b146100c7578063affed0e0146100c2578063e42a96e7146100bd578063fc0c546a146100b85763fe25e00a146100b3575f80fd5b610b10565b610acc565b610a88565b610a6b565b61097f565b610903565b6102b7565b610273565b610239565b6101ff565b6101c2565b610191565b61013c565b34610138575f366003190112610138576040517f00000000000000000000000000000000000000000000000000000000000000006001600160a01b03168152602090f35b5f80fd5b34610138575f366003190112610138576040517f00000000000000000000000000000000000000000000000000000000000000006001600160a01b03168152602090f35b6001600160a01b0381160361013857565b346101385760203660031901126101385760206101b86004356101b381610180565b610b54565b6040519015158152f35b34610138575f36600319011261013857602060405160ff7f0000000000000000000000000000000000000000000000000000000000000000168152f35b34610138575f3660031901126101385760206040517f00000000000000000000000000000000000000000000000000000000000000008152f35b34610138575f3660031901126101385760206040517f00000000000000000000000000000000000000000000000000000000000000008152f35b34610138575f366003190112610138576040517f00000000000000000000000000000000000000000000000000000000000000006001600160a01b03168152602090f35b34610138576040366003190112610138576004356102d481610180565b6024359067ffffffffffffffff8211610138573660648301116101385760025f54146108be5760025f556001600160a01b038116610313811515610bfa565b7f0000000000000000000000000000000000000000000000000000000000000000916103496001600160a01b0384161515610c37565b7f00000000000000000000000000000000000000000000000000000000000000009081159283158094610895575b61038090610c70565b7f00000000000000000000000000000000000000000000000000000000000000006001600160a01b0316953387148015610863575b8015610831575b6103c590610cb2565b604051633e8cf2cb60e11b81527f000000000000000000000000000000000000000000000000000000000000000060048201819052916101a0826024816001600160a01b037f0000000000000000000000000000000000000000000000000000000000000000165afa90811561071d576105b36105888a926101206105b8956105bd975f91610802575b5001519761045c89610e85565b61046589610e85565b600389149d8e8080156107ef575b80156107dc575b61048390610e94565b61048c8b610e85565b1561076f5761049b9114610f32565b600154604080517f4574eba8a3a3262b6030499f2d73c16df506db9a10207de6df537d3e9609912860208201908152918101999099526001600160a01b037f000000000000000000000000000000000000000000000000000000000000000081811660608c01528c821660808c0152961660a08a015260c0808a018390528952949790949061052b60e082610d1e565b51902060405161190160f01b602082019081527f000000000000000000000000000000000000000000000000000000000000000060228301526042808301939093529181529161057c606284610d1e565b6004019151902061113a565b60ff7f0000000000000000000000000000000000000000000000000000000000000000161115610f7e565b610fde565b600155565b6040516370a0823160e01b81523060048201526001600160a01b03919091169690946020866024818b5afa95861561071d575f9661074e575b507f00000000000000000000000000000000000000000000000000000000000000009161062c6106268488610ff1565b94610e85565b1561074257610732575b80610722575b6040516370a0823160e01b8152306004820152946020866024818b5afa90811561071d5761069a6106e0946106a0937f457938e2512bd940a38c710d197d7fdd21dac266a89e0e19e9e7c24e3822ee5d995f916106ee575b50610ff1565b1461100d565b6106ab600154611065565b604080516001600160a01b03958616815260208101969096529390961692840192909252606083019190915281906080820190565b0390a36106ec60015f55565b005b610710915060203d602011610716575b6107088183610d1e565b810190610ffe565b5f610694565b503d6106fe565b610e66565b61072d8187896112bd565b61063c565b61073d8484896112bd565b610636565b5061072d8284896112bd565b61076891965060203d602011610716576107088183610d1e565b945f6105f6565b5061077989610e85565b6004891480156107c9575b61078f575b5061049b565b6107c3907f00000000000000000000000000000000000000000000000000000000000000006001600160a01b031614610ed7565b5f610789565b506107d389610e85565b60058914610784565b506107e68b610e85565b60058b1461047a565b506107f98b610e85565b60048b14610473565b61082491506101a03d811161082a575b61081c8183610d1e565b810190610d8a565b5f61044f565b503d610812565b50337f00000000000000000000000000000000000000000000000000000000000000006001600160a01b0316146103bc565b50337f00000000000000000000000000000000000000000000000000000000000000006001600160a01b0316146103b5565b507f00000000000000000000000000000000000000000000000000000000000000001515610377565b60405162461bcd60e51b815260206004820152601f60248201527f5265656e7472616e637947756172643a207265656e7472616e742063616c6c006044820152606490fd5b34610138575f3660031901126101385760206040517f00000000000000000000000000000000000000000000000000000000000000008152f35b60206040818301928281528451809452019201905f5b8181106109605750505090565b82516001600160a01b0316845260209384019390920191600101610953565b34610138575f3660031901126101385760405161099d608082610d1e565b60038152602081016060368237815115610a66577f00000000000000000000000000000000000000000000000000000000000000006001600160a01b03169052805160011015610a66576001600160a01b037f0000000000000000000000000000000000000000000000000000000000000000166040820152610a6290610a567f0000000000000000000000000000000000000000000000000000000000000000610a4783611087565b6001600160a01b039091169052565b6040519182918261093d565b0390f35b611073565b34610138575f366003190112610138576020600154604051908152f35b34610138575f366003190112610138576040517f00000000000000000000000000000000000000000000000000000000000000006001600160a01b03168152602090f35b34610138575f366003190112610138576040517f00000000000000000000000000000000000000000000000000000000000000006001600160a01b03168152602090f35b34610138575f366003190112610138576040517f00000000000000000000000000000000000000000000000000000000000000006001600160a01b03168152602090f35b7f00000000000000000000000000000000000000000000000000000000000000006001600160a01b039081169116908114908115610bc7575b8115610b97575090565b7f00000000000000000000000000000000000000000000000000000000000000006001600160a01b031614919050565b7f00000000000000000000000000000000000000000000000000000000000000006001600160a01b031681149150610b8d565b15610c0157565b60405162461bcd60e51b815260206004820152600e60248201526d526563697069656e74207a65726f60901b6044820152606490fd5b15610c3e57565b60405162461bcd60e51b815260206004820152600a602482015269466565546f207a65726f60b01b6044820152606490fd5b15610c7757565b60405162461bcd60e51b81526020600482015260136024820152722737ba3434b733903a37903a3930b739b332b960691b6044820152606490fd5b15610cb957565b60405162461bcd60e51b815260206004820152602360248201527f65786563757465455243323053706c69743a204f6e6c79207061727469636970604482015262185b9d60ea1b6064820152608490fd5b634e487b7160e01b5f52604160045260245ffd5b90601f8019910116810190811067ffffffffffffffff821117610d4057604052565b610d0a565b60405190610d556101a083610d1e565b565b5190610d5582610180565b5190600682101561013857565b5190811515820361013857565b519060ff8216820361013857565b90816101a091031261013857610e5d610180610da4610d45565b92610dae81610d57565b8452610dbc60208201610d57565b6020850152610dcd60408201610d57565b6040850152610dde60608201610d57565b6060850152610def60808201610d57565b608085015260a081015160a085015260c081015160c085015260e081015160e0850152610100810151610100850152610e2b6101208201610d62565b610120850152610e3e6101408201610d6f565b610140850152610e516101608201610d6f565b61016085015201610d7c565b61018082015290565b6040513d5f823e3d90fd5b634e487b7160e01b5f52602160045260245ffd5b60061115610e8f57565b610e71565b15610e9b57565b60405162461bcd60e51b8152602060048201526014602482015273496e76616c696420657363726f7720737461746560601b6044820152606490fd5b15610ede57565b60405162461bcd60e51b815260206004820152602660248201527f4d75737420726566756e64206275796572206f6e20524546554e4445442f43416044820152651390d153115160d21b6064820152608490fd5b15610f3957565b60405162461bcd60e51b815260206004820152601b60248201527f4d757374207061792073656c6c6572206f6e20434f4d504c45544500000000006044820152606490fd5b15610f8557565b60405162461bcd60e51b815260206004820152601b60248201527f4e6f7420656e6f7567682076616c6964207369676e61747572657300000000006044820152606490fd5b634e487b7160e01b5f52601160045260245ffd5b9060018201809211610fec57565b610fca565b91908201809211610fec57565b90816020910312610138575190565b1561101457565b60405162461bcd60e51b815260206004820152602360248201527f496e76617269616e743a2077726f6e67207472616e7366657272656420616d6f6044820152621d5b9d60ea1b6064820152608490fd5b5f19810191908211610fec57565b634e487b7160e01b5f52603260045260245ffd5b805160021015610a665760600190565b906003811015610a665760051b81013590601e198136030182121561013857019081359167ffffffffffffffff8311610138576020018236038113610138579190565b67ffffffffffffffff8111610d4057601f01601f191660200190565b929192611102826110da565b916111106040519384610d1e565b829481845281830111610138578281602093845f960137010152565b5f198114610fec5760010190565b5f9291839182907f00000000000000000000000000000000000000000000000000000000000000006001600160a01b0316908290815b600387106111815750505050505050565b61119b6111948888999b95969798611097565b36916110f6565b8051156112b2576111ac90836113a7565b6111bc6111b882610b54565b1590565b6112b2576001600160a01b0316858114806112aa575b156111f257505060016111e5819361112c565b985b019594939291611170565b929390927f00000000000000000000000000000000000000000000000000000000000000006001600160a01b03168114806112a2575b15611241575050600161123b819461112c565b986111e7565b939890937f00000000000000000000000000000000000000000000000000000000000000006001600160a01b0316148061129a575b611283575b6001906111e7565b9794506001611292819661112c565b98905061127b565b508515611276565b508115611228565b5081156111d2565b5091976001906111e7565b91611371915f80610d559560405194602086019463a9059cbb60e01b865260018060a01b031660248701526044860152604485526112fc606486610d1e565b60018060a01b03169260405194611314604087610d1e565b602086527f5361666545524332303a206c6f772d6c6576656c2063616c6c206661696c65646020870152519082855af13d1561139f573d91611355836110da565b926113636040519485610d1e565b83523d5f602085013e611699565b8051908115918215611385575b5050611453565b611398925060208091830101910161143f565b5f8061137e565b606091611699565b604182510361143057602082015191606060408201519101515f1a926fa2a8918ca85bafe22016d0b997e4df60600160ff1b03821161142157601b84141580611416575b61140757611404936113fc936114b2565b91909161152d565b90565b6307839aef60e21b5f5260045ffd5b50601c8414156113eb565b6354b34b0360e01b5f5260045ffd5b6354f3472360e01b5f5260045ffd5b908160209103126101385761140490610d6f565b1561145a57565b60405162461bcd60e51b815260206004820152602a60248201527f5361666545524332303a204552433230206f7065726174696f6e20646964206e6044820152691bdd081cdd58d8d9595960b21b6064820152608490fd5b6fa2a8918ca85bafe22016d0b997e4df60600160ff1b038411611518576020935f9360ff60809460405194855216868401526040830152606082015282805260015afa1561071d575f516001600160a01b0381161561151057905f90565b505f90600190565b505050505f90600390565b60051115610e8f57565b61153681611523565b8061153e5750565b61154781611523565b600181036115945760405162461bcd60e51b815260206004820152601860248201527f45434453413a20696e76616c6964207369676e617475726500000000000000006044820152606490fd5b61159d81611523565b600281036115ea5760405162461bcd60e51b815260206004820152601f60248201527f45434453413a20696e76616c6964207369676e6174757265206c656e677468006044820152606490fd5b806115f6600392611523565b146115fd57565b60405162461bcd60e51b815260206004820152602260248201527f45434453413a20696e76616c6964207369676e6174757265202773272076616c604482015261756560f01b6064820152608490fd5b1561165457565b60405162461bcd60e51b815260206004820152601d60248201527f416464726573733a2063616c6c20746f206e6f6e2d636f6e74726163740000006044820152606490fd5b919290156116b957508151156116ad575090565b611404903b151561164d565b8251909150156116cc5750805190602001fd5b604460209160405192839162461bcd60e51b83528160048401528051918291826024860152018484015e5f828201840152601f01601f19168101030190fdfea264697066735822122037a465b415ac06c1a3c69b4c225238d05cbfdac16a7734b6679d786958eff7e464736f6c634300081d00334efd0eb8137437cc21ded7c1b056cd5a6e457ad8830e42d74bb9ba46144dbe83a26469706673582212202f7e530e4d50789f748ca38197fe504579bc2cc14fbc8dc20d3fb89c8e89264f64736f6c634300081d0033",
  "linkReferences": {},
  "deployedLinkReferences": {},
  "immutableReferences": {
    "3173": [
      {
        "length": 32,
        "start": 1771
      },
      {
        "length": 32,
        "start": 3201
      },
      {
        "length": 32,
        "start": 3768
      },
      {
        "length": 32,
        "start": 6759
      },
      {
        "length": 32,
        "start": 12123
      },
      {
        "length": 32,
        "start": 12338
      }
    ],
    "3177": [
      {
        "length": 32,
        "start": 11205
      }
    ],
    "3179": [
      {
        "length": 32,
        "start": 11167
      }
    ]
  },
  "inputSourceName": "project/contracts/PalindromeCryptoEscrow.sol",
  "buildInfoId": "solc-0_8_29-19b3d24b26b2169a8f75b3955514f791fa231062"
}