{
  "_format": "hh3-artifact-1",
  "contractName": "PalindromeEscrowWallet",
  "sourceName": "contracts/PalindromeEscrowWallet.sol",
  "abi": [
    {
      "inputs": [
        {
          "internalType": "address",
          "name": "_escrowContract",
          "type": "address"
        },
        {
          "internalType": "uint256",
          "name": "_escrowId",
          "type": "uint256"
        },
        {
          "internalType": "address",
          "name": "_token",
          "type": "address"
        },
        {
          "internalType": "address",
          "name": "_buyer",
          "type": "address"
        },
        {
          "internalType": "address",
          "name": "_seller",
          "type": "address"
        },
        {
          "internalType": "address",
          "name": "_arbiter",
          "type": "address"
        },
        {
          "internalType": "address",
          "name": "_feeTo",
          "type": "address"
        },
        {
          "internalType": "uint256",
          "name": "_netAmount",
          "type": "uint256"
        },
        {
          "internalType": "uint256",
          "name": "_feeAmount",
          "type": "uint256"
        },
        {
          "internalType": "uint8",
          "name": "_threshold",
          "type": "uint8"
        }
      ],
      "stateMutability": "nonpayable",
      "type": "constructor"
    },
    {
      "inputs": [],
      "name": "SignatureLengthInvalid",
      "type": "error"
    },
    {
      "inputs": [],
      "name": "SignatureSInvalid",
      "type": "error"
    },
    {
      "inputs": [],
      "name": "SignatureVInvalid",
      "type": "error"
    },
    {
      "anonymous": false,
      "inputs": [
        {
          "indexed": true,
          "internalType": "uint256",
          "name": "nonce",
          "type": "uint256"
        },
        {
          "indexed": true,
          "internalType": "address",
          "name": "token",
          "type": "address"
        },
        {
          "indexed": false,
          "internalType": "address",
          "name": "to",
          "type": "address"
        },
        {
          "indexed": false,
          "internalType": "uint256",
          "name": "netAmount",
          "type": "uint256"
        },
        {
          "indexed": false,
          "internalType": "address",
          "name": "feeTo",
          "type": "address"
        },
        {
          "indexed": false,
          "internalType": "uint256",
          "name": "feeAmount",
          "type": "uint256"
        }
      ],
      "name": "SplitExecuted",
      "type": "event"
    },
    {
      "inputs": [],
      "name": "arbiter",
      "outputs": [
        {
          "internalType": "address",
          "name": "",
          "type": "address"
        }
      ],
      "stateMutability": "view",
      "type": "function"
    },
    {
      "inputs": [],
      "name": "buyer",
      "outputs": [
        {
          "internalType": "address",
          "name": "",
          "type": "address"
        }
      ],
      "stateMutability": "view",
      "type": "function"
    },
    {
      "inputs": [],
      "name": "escrowContract",
      "outputs": [
        {
          "internalType": "address",
          "name": "",
          "type": "address"
        }
      ],
      "stateMutability": "view",
      "type": "function"
    },
    {
      "inputs": [],
      "name": "escrowId",
      "outputs": [
        {
          "internalType": "uint256",
          "name": "",
          "type": "uint256"
        }
      ],
      "stateMutability": "view",
      "type": "function"
    },
    {
      "inputs": [
        {
          "internalType": "address",
          "name": "to",
          "type": "address"
        },
        {
          "internalType": "bytes[3]",
          "name": "signatures",
          "type": "bytes[3]"
        }
      ],
      "name": "executeERC20Split",
      "outputs": [],
      "stateMutability": "nonpayable",
      "type": "function"
    },
    {
      "inputs": [],
      "name": "feeAmount",
      "outputs": [
        {
          "internalType": "uint256",
          "name": "",
          "type": "uint256"
        }
      ],
      "stateMutability": "view",
      "type": "function"
    },
    {
      "inputs": [],
      "name": "feeTo",
      "outputs": [
        {
          "internalType": "address",
          "name": "",
          "type": "address"
        }
      ],
      "stateMutability": "view",
      "type": "function"
    },
    {
      "inputs": [],
      "name": "getOwners",
      "outputs": [
        {
          "internalType": "address[]",
          "name": "",
          "type": "address[]"
        }
      ],
      "stateMutability": "view",
      "type": "function"
    },
    {
      "inputs": [
        {
          "internalType": "address",
          "name": "account",
          "type": "address"
        }
      ],
      "name": "isOwner",
      "outputs": [
        {
          "internalType": "bool",
          "name": "",
          "type": "bool"
        }
      ],
      "stateMutability": "view",
      "type": "function"
    },
    {
      "inputs": [],
      "name": "netAmount",
      "outputs": [
        {
          "internalType": "uint256",
          "name": "",
          "type": "uint256"
        }
      ],
      "stateMutability": "view",
      "type": "function"
    },
    {
      "inputs": [],
      "name": "nonce",
      "outputs": [
        {
          "internalType": "uint256",
          "name": "",
          "type": "uint256"
        }
      ],
      "stateMutability": "view",
      "type": "function"
    },
    {
      "inputs": [],
      "name": "seller",
      "outputs": [
        {
          "internalType": "address",
          "name": "",
          "type": "address"
        }
      ],
      "stateMutability": "view",
      "type": "function"
    },
    {
      "inputs": [],
      "name": "threshold",
      "outputs": [
        {
          "internalType": "uint8",
          "name": "",
          "type": "uint8"
        }
      ],
      "stateMutability": "view",
      "type": "function"
    },
    {
      "inputs": [],
      "name": "token",
      "outputs": [
        {
          "internalType": "address",
          "name": "",
          "type": "address"
        }
      ],
      "stateMutability": "view",
      "type": "function"
    }
  ],
  "bytecode": "0x6101e080604052346103fc5761014081611b8d80380380916100218285610400565b8339810103126103fc5761003481610437565b90602081015161004660408301610437565b61005260608401610437565b61005e60808501610437565b61006a60a08601610437565b9161007760c08701610437565b9360e0870151956101206101008901519801519860ff8a16808b036103fc5760015f556001600160a01b038216156103c9576001600160a01b0385161515806103b7575b156103835760020361033e5788880180891161032a578989821015918261031f575b5050156102e85760805260a0526101805260c05260e052610100526101205261014052610160526101a052604051610116604082610400565b601681527f50616c696e64726f6d65457363726f7757616c6c657400000000000000000000602090910152604080517fd5841ac2316671d82a0b6316f3b37c25b9263de2e5c9e54cefc98911e9c1f8df916101719082610400565b600181526020810190603160f81b82525190206040519060208201927f8b73c3c69bb8fe3d512ecc4cf759cc79239f7b179b0ffacaa9a75d522b39400f8452604083015260608201524660808201523060a082015260a081526101d560c082610400565b5190206101c052604051611741908161044c823960805181818161040c0152610a9d015260a05181818161021601526103d4015260c0518181816102880152818161079501528181610867015281816109b301528181610b560152611143015260e05181818161015101528181610382015281816109f101528181610bc901526111f801526101005181818161083501528181610a1f01528181610b2501528181610b990152611247015261012051818181610109015261031501526101405181818161034b015261091a015261016051818181610250015281816105f901526108980152610180518181816104db0152610ae101526101a0518181816101db015261058c01526101c051816105400152f35b60405162461bcd60e51b815260206004820152600f60248201526e416d6f756e74206f766572666c6f7760881b6044820152606490fd5b10159050895f6100dd565b634e487b7160e01b5f52601160045260245ffd5b60405162461bcd60e51b815260206004820152601360248201527f5468726573686f6c64206d7573742062652032000000000000000000000000006044820152606490fd5b60405162461bcd60e51b815260206004820152600c60248201526b5a65726f206164647265737360a01b6044820152606490fd5b506001600160a01b03861615156100bb565b60405162461bcd60e51b815260206004820152600b60248201526a457363726f77207a65726f60a81b6044820152606490fd5b5f80fd5b601f909101601f19168101906001600160401b0382119082101761042357604052565b634e487b7160e01b5f52604160045260245ffd5b51906001600160a01b03821682036103fc5756fe60806040526004361015610011575f80fd5b5f3560e01c8063017e7e58146100f457806308551a53146100ef5780632f54bf6e146100ea57806342cde4e8146100e55780635753d989146100e057806369e15404146100db5780637150d8ae146100d65780637652a7c1146100d15780637c16073c146100cc578063a0e67e2b146100c7578063affed0e0146100c2578063e42a96e7146100bd578063fc0c546a146100b85763fe25e00a146100b3575f80fd5b610b10565b610acc565b610a88565b610a6b565b61097f565b610903565b6102b7565b610273565b610239565b6101ff565b6101c2565b610191565b61013c565b34610138575f366003190112610138576040517f00000000000000000000000000000000000000000000000000000000000000006001600160a01b03168152602090f35b5f80fd5b34610138575f366003190112610138576040517f00000000000000000000000000000000000000000000000000000000000000006001600160a01b03168152602090f35b6001600160a01b0381160361013857565b346101385760203660031901126101385760206101b86004356101b381610180565b610b54565b6040519015158152f35b34610138575f36600319011261013857602060405160ff7f0000000000000000000000000000000000000000000000000000000000000000168152f35b34610138575f3660031901126101385760206040517f00000000000000000000000000000000000000000000000000000000000000008152f35b34610138575f3660031901126101385760206040517f00000000000000000000000000000000000000000000000000000000000000008152f35b34610138575f366003190112610138576040517f00000000000000000000000000000000000000000000000000000000000000006001600160a01b03168152602090f35b34610138576040366003190112610138576004356102d481610180565b6024359067ffffffffffffffff8211610138573660648301116101385760025f54146108be5760025f556001600160a01b038116610313811515610bfa565b7f0000000000000000000000000000000000000000000000000000000000000000916103496001600160a01b0384161515610c37565b7f00000000000000000000000000000000000000000000000000000000000000009081159283158094610895575b61038090610c70565b7f00000000000000000000000000000000000000000000000000000000000000006001600160a01b0316953387148015610863575b8015610831575b6103c590610cb2565b604051633e8cf2cb60e11b81527f000000000000000000000000000000000000000000000000000000000000000060048201819052916101a0826024816001600160a01b037f0000000000000000000000000000000000000000000000000000000000000000165afa90811561071d576105b36105888a926101206105b8956105bd975f91610802575b5001519761045c89610e85565b61046589610e85565b600389149d8e8080156107ef575b80156107dc575b61048390610e94565b61048c8b610e85565b1561076f5761049b9114610f32565b600154604080517f4574eba8a3a3262b6030499f2d73c16df506db9a10207de6df537d3e9609912860208201908152918101999099526001600160a01b037f000000000000000000000000000000000000000000000000000000000000000081811660608c01528c821660808c0152961660a08a015260c0808a018390528952949790949061052b60e082610d1e565b51902060405161190160f01b602082019081527f000000000000000000000000000000000000000000000000000000000000000060228301526042808301939093529181529161057c606284610d1e565b6004019151902061113a565b60ff7f0000000000000000000000000000000000000000000000000000000000000000161115610f7e565b610fde565b600155565b6040516370a0823160e01b81523060048201526001600160a01b03919091169690946020866024818b5afa95861561071d575f9661074e575b507f00000000000000000000000000000000000000000000000000000000000000009161062c6106268488610ff1565b94610e85565b1561074257610732575b80610722575b6040516370a0823160e01b8152306004820152946020866024818b5afa90811561071d5761069a6106e0946106a0937f457938e2512bd940a38c710d197d7fdd21dac266a89e0e19e9e7c24e3822ee5d995f916106ee575b50610ff1565b1461100d565b6106ab600154611065565b604080516001600160a01b03958616815260208101969096529390961692840192909252606083019190915281906080820190565b0390a36106ec60015f55565b005b610710915060203d602011610716575b6107088183610d1e565b810190610ffe565b5f610694565b503d6106fe565b610e66565b61072d8187896112bd565b61063c565b61073d8484896112bd565b610636565b5061072d8284896112bd565b61076891965060203d602011610716576107088183610d1e565b945f6105f6565b5061077989610e85565b6004891480156107c9575b61078f575b5061049b565b6107c3907f00000000000000000000000000000000000000000000000000000000000000006001600160a01b031614610ed7565b5f610789565b506107d389610e85565b60058914610784565b506107e68b610e85565b60058b1461047a565b506107f98b610e85565b60048b14610473565b61082491506101a03d811161082a575b61081c8183610d1e565b810190610d8a565b5f61044f565b503d610812565b50337f00000000000000000000000000000000000000000000000000000000000000006001600160a01b0316146103bc565b50337f00000000000000000000000000000000000000000000000000000000000000006001600160a01b0316146103b5565b507f00000000000000000000000000000000000000000000000000000000000000001515610377565b60405162461bcd60e51b815260206004820152601f60248201527f5265656e7472616e637947756172643a207265656e7472616e742063616c6c006044820152606490fd5b34610138575f3660031901126101385760206040517f00000000000000000000000000000000000000000000000000000000000000008152f35b60206040818301928281528451809452019201905f5b8181106109605750505090565b82516001600160a01b0316845260209384019390920191600101610953565b34610138575f3660031901126101385760405161099d608082610d1e565b60038152602081016060368237815115610a66577f00000000000000000000000000000000000000000000000000000000000000006001600160a01b03169052805160011015610a66576001600160a01b037f0000000000000000000000000000000000000000000000000000000000000000166040820152610a6290610a567f0000000000000000000000000000000000000000000000000000000000000000610a4783611087565b6001600160a01b039091169052565b6040519182918261093d565b0390f35b611073565b34610138575f366003190112610138576020600154604051908152f35b34610138575f366003190112610138576040517f00000000000000000000000000000000000000000000000000000000000000006001600160a01b03168152602090f35b34610138575f366003190112610138576040517f00000000000000000000000000000000000000000000000000000000000000006001600160a01b03168152602090f35b34610138575f366003190112610138576040517f00000000000000000000000000000000000000000000000000000000000000006001600160a01b03168152602090f35b7f00000000000000000000000000000000000000000000000000000000000000006001600160a01b039081169116908114908115610bc7575b8115610b97575090565b7f00000000000000000000000000000000000000000000000000000000000000006001600160a01b031614919050565b7f00000000000000000000000000000000000000000000000000000000000000006001600160a01b031681149150610b8d565b15610c0157565b60405162461bcd60e51b815260206004820152600e60248201526d526563697069656e74207a65726f60901b6044820152606490fd5b15610c3e57565b60405162461bcd60e51b815260206004820152600a602482015269466565546f207a65726f60b01b6044820152606490fd5b15610c7757565b60405162461bcd60e51b81526020600482015260136024820152722737ba3434b733903a37903a3930b739b332b960691b6044820152606490fd5b15610cb957565b60405162461bcd60e51b815260206004820152602360248201527f65786563757465455243323053706c69743a204f6e6c79207061727469636970604482015262185b9d60ea1b6064820152608490fd5b634e487b7160e01b5f52604160045260245ffd5b90601f8019910116810190811067ffffffffffffffff821117610d4057604052565b610d0a565b60405190610d556101a083610d1e565b565b5190610d5582610180565b5190600682101561013857565b5190811515820361013857565b519060ff8216820361013857565b90816101a091031261013857610e5d610180610da4610d45565b92610dae81610d57565b8452610dbc60208201610d57565b6020850152610dcd60408201610d57565b6040850152610dde60608201610d57565b6060850152610def60808201610d57565b608085015260a081015160a085015260c081015160c085015260e081015160e0850152610100810151610100850152610e2b6101208201610d62565b610120850152610e3e6101408201610d6f565b610140850152610e516101608201610d6f565b61016085015201610d7c565b61018082015290565b6040513d5f823e3d90fd5b634e487b7160e01b5f52602160045260245ffd5b60061115610e8f57565b610e71565b15610e9b57565b60405162461bcd60e51b8152602060048201526014602482015273496e76616c696420657363726f7720737461746560601b6044820152606490fd5b15610ede57565b60405162461bcd60e51b815260206004820152602660248201527f4d75737420726566756e64206275796572206f6e20524546554e4445442f43416044820152651390d153115160d21b6064820152608490fd5b15610f3957565b60405162461bcd60e51b815260206004820152601b60248201527f4d757374207061792073656c6c6572206f6e20434f4d504c45544500000000006044820152606490fd5b15610f8557565b60405162461bcd60e51b815260206004820152601b60248201527f4e6f7420656e6f7567682076616c6964207369676e61747572657300000000006044820152606490fd5b634e487b7160e01b5f52601160045260245ffd5b9060018201809211610fec57565b610fca565b91908201809211610fec57565b90816020910312610138575190565b1561101457565b60405162461bcd60e51b815260206004820152602360248201527f496e76617269616e743a2077726f6e67207472616e7366657272656420616d6f6044820152621d5b9d60ea1b6064820152608490fd5b5f19810191908211610fec57565b634e487b7160e01b5f52603260045260245ffd5b805160021015610a665760600190565b906003811015610a665760051b81013590601e198136030182121561013857019081359167ffffffffffffffff8311610138576020018236038113610138579190565b67ffffffffffffffff8111610d4057601f01601f191660200190565b929192611102826110da565b916111106040519384610d1e565b829481845281830111610138578281602093845f960137010152565b5f198114610fec5760010190565b5f9291839182907f00000000000000000000000000000000000000000000000000000000000000006001600160a01b0316908290815b600387106111815750505050505050565b61119b6111948888999b95969798611097565b36916110f6565b8051156112b2576111ac90836113a7565b6111bc6111b882610b54565b1590565b6112b2576001600160a01b0316858114806112aa575b156111f257505060016111e5819361112c565b985b019594939291611170565b929390927f00000000000000000000000000000000000000000000000000000000000000006001600160a01b03168114806112a2575b15611241575050600161123b819461112c565b986111e7565b939890937f00000000000000000000000000000000000000000000000000000000000000006001600160a01b0316148061129a575b611283575b6001906111e7565b9794506001611292819661112c565b98905061127b565b508515611276565b508115611228565b5081156111d2565b5091976001906111e7565b91611371915f80610d559560405194602086019463a9059cbb60e01b865260018060a01b031660248701526044860152604485526112fc606486610d1e565b60018060a01b03169260405194611314604087610d1e565b602086527f5361666545524332303a206c6f772d6c6576656c2063616c6c206661696c65646020870152519082855af13d1561139f573d91611355836110da565b926113636040519485610d1e565b83523d5f602085013e611699565b8051908115918215611385575b5050611453565b611398925060208091830101910161143f565b5f8061137e565b606091611699565b604182510361143057602082015191606060408201519101515f1a926fa2a8918ca85bafe22016d0b997e4df60600160ff1b03821161142157601b84141580611416575b61140757611404936113fc936114b2565b91909161152d565b90565b6307839aef60e21b5f5260045ffd5b50601c8414156113eb565b6354b34b0360e01b5f5260045ffd5b6354f3472360e01b5f5260045ffd5b908160209103126101385761140490610d6f565b1561145a57565b60405162461bcd60e51b815260206004820152602a60248201527f5361666545524332303a204552433230206f7065726174696f6e20646964206e6044820152691bdd081cdd58d8d9595960b21b6064820152608490fd5b6fa2a8918ca85bafe22016d0b997e4df60600160ff1b038411611518576020935f9360ff60809460405194855216868401526040830152606082015282805260015afa1561071d575f516001600160a01b0381161561151057905f90565b505f90600190565b505050505f90600390565b60051115610e8f57565b61153681611523565b8061153e5750565b61154781611523565b600181036115945760405162461bcd60e51b815260206004820152601860248201527f45434453413a20696e76616c6964207369676e617475726500000000000000006044820152606490fd5b61159d81611523565b600281036115ea5760405162461bcd60e51b815260206004820152601f60248201527f45434453413a20696e76616c6964207369676e6174757265206c656e677468006044820152606490fd5b806115f6600392611523565b146115fd57565b60405162461bcd60e51b815260206004820152602260248201527f45434453413a20696e76616c6964207369676e6174757265202773272076616c604482015261756560f01b6064820152608490fd5b1561165457565b60405162461bcd60e51b815260206004820152601d60248201527f416464726573733a2063616c6c20746f206e6f6e2d636f6e74726163740000006044820152606490fd5b919290156116b957508151156116ad575090565b611404903b151561164d565b8251909150156116cc5750805190602001fd5b604460209160405192839162461bcd60e51b83528160048401528051918291826024860152018484015e5f828201840152601f01601f19168101030190fdfea264697066735822122037a465b415ac06c1a3c69b4c225238d05cbfdac16a7734b6679d786958eff7e464736f6c634300081d0033",
  "linkReferences": {},
  "deployedLinkReferences": {},
  "immutableReferences": {
    "5880": [
      {
        "length": 32,
        "start": 1036
      },
      {
        "length": 32,
        "start": 2717
      }
    ],
    "5882": [
      {
        "length": 32,
        "start": 534
      },
      {
        "length": 32,
        "start": 980
      }
    ],
    "5884": [
      {
        "length": 32,
        "start": 648
      },
      {
        "length": 32,
        "start": 1941
      },
      {
        "length": 32,
        "start": 2151
      },
      {
        "length": 32,
        "start": 2483
      },
      {
        "length": 32,
        "start": 2902
      },
      {
        "length": 32,
        "start": 4419
      }
    ],
    "5886": [
      {
        "length": 32,
        "start": 337
      },
      {
        "length": 32,
        "start": 898
      },
      {
        "length": 32,
        "start": 2545
      },
      {
        "length": 32,
        "start": 3017
      },
      {
        "length": 32,
        "start": 4600
      }
    ],
    "5888": [
      {
        "length": 32,
        "start": 2101
      },
      {
        "length": 32,
        "start": 2591
      },
      {
        "length": 32,
        "start": 2853
      },
      {
        "length": 32,
        "start": 2969
      },
      {
        "length": 32,
        "start": 4679
      }
    ],
    "5890": [
      {
        "length": 32,
        "start": 265
      },
      {
        "length": 32,
        "start": 789
      }
    ],
    "5892": [
      {
        "length": 32,
        "start": 843
      },
      {
        "length": 32,
        "start": 2330
      }
    ],
    "5894": [
      {
        "length": 32,
        "start": 592
      },
      {
        "length": 32,
        "start": 1529
      },
      {
        "length": 32,
        "start": 2200
      }
    ],
    "5896": [
      {
        "length": 32,
        "start": 1243
      },
      {
        "length": 32,
        "start": 2785
      }
    ],
    "5898": [
      {
        "length": 32,
        "start": 475
      },
      {
        "length": 32,
        "start": 1420
      }
    ],
    "5918": [
      {
        "length": 32,
        "start": 1344
      }
    ]
  },
  "inputSourceName": "project/contracts/PalindromeEscrowWallet.sol",
  "buildInfoId": "solc-0_8_29-19b3d24b26b2169a8f75b3955514f791fa231062"
}