{
  "_format": "hh3-artifact-1",
  "contractName": "PalindromeCryptoEscrow",
  "sourceName": "contracts/PalindromeCryptoEscrow.sol",
  "abi": [
    {
      "inputs": [
        {
          "internalType": "address",
          "name": "_lpToken",
          "type": "address"
        },
        {
          "internalType": "address",
          "name": "initialAllowedToken",
          "type": "address"
        }
      ],
      "stateMutability": "nonpayable",
      "type": "constructor"
    },
    {
      "inputs": [],
      "name": "InvalidMessageRoleForDispute",
      "type": "error"
    },
    {
      "anonymous": false,
      "inputs": [
        {
          "indexed": true,
          "internalType": "uint256",
          "name": "escrowId",
          "type": "uint256"
        },
        {
          "indexed": true,
          "internalType": "address",
          "name": "initiator",
          "type": "address"
        },
        {
          "indexed": false,
          "internalType": "uint256",
          "name": "amount",
          "type": "uint256"
        },
        {
          "indexed": false,
          "internalType": "uint256",
          "name": "fee",
          "type": "uint256"
        }
      ],
      "name": "Canceled",
      "type": "event"
    },
    {
      "anonymous": false,
      "inputs": [
        {
          "indexed": true,
          "internalType": "uint256",
          "name": "escrowId",
          "type": "uint256"
        },
        {
          "indexed": true,
          "internalType": "address",
          "name": "buyer",
          "type": "address"
        },
        {
          "indexed": true,
          "internalType": "address",
          "name": "seller",
          "type": "address"
        },
        {
          "indexed": false,
          "internalType": "uint256",
          "name": "amount",
          "type": "uint256"
        },
        {
          "indexed": false,
          "internalType": "uint256",
          "name": "fee",
          "type": "uint256"
        }
      ],
      "name": "DeliveryConfirmed",
      "type": "event"
    },
    {
      "anonymous": false,
      "inputs": [
        {
          "indexed": true,
          "internalType": "uint256",
          "name": "escrowId",
          "type": "uint256"
        },
        {
          "indexed": true,
          "internalType": "address",
          "name": "sender",
          "type": "address"
        },
        {
          "indexed": true,
          "internalType": "uint256",
          "name": "role",
          "type": "uint256"
        },
        {
          "indexed": false,
          "internalType": "string",
          "name": "ipfsHash",
          "type": "string"
        },
        {
          "indexed": false,
          "internalType": "uint256",
          "name": "disputeStatus",
          "type": "uint256"
        }
      ],
      "name": "DisputeMessagePosted",
      "type": "event"
    },
    {
      "anonymous": false,
      "inputs": [
        {
          "indexed": true,
          "internalType": "uint256",
          "name": "escrowId",
          "type": "uint256"
        },
        {
          "indexed": false,
          "internalType": "enum PalindromeCryptoEscrow.State",
          "name": "resolution",
          "type": "uint8"
        },
        {
          "indexed": false,
          "internalType": "address",
          "name": "arbiter",
          "type": "address"
        },
        {
          "indexed": false,
          "internalType": "uint256",
          "name": "amount",
          "type": "uint256"
        },
        {
          "indexed": false,
          "internalType": "uint256",
          "name": "fee",
          "type": "uint256"
        }
      ],
      "name": "DisputeResolved",
      "type": "event"
    },
    {
      "anonymous": false,
      "inputs": [
        {
          "indexed": true,
          "internalType": "uint256",
          "name": "escrowId",
          "type": "uint256"
        },
        {
          "indexed": true,
          "internalType": "address",
          "name": "initiator",
          "type": "address"
        }
      ],
      "name": "DisputeStarted",
      "type": "event"
    },
    {
      "anonymous": false,
      "inputs": [
        {
          "indexed": true,
          "internalType": "uint256",
          "name": "escrowId",
          "type": "uint256"
        },
        {
          "indexed": false,
          "internalType": "address",
          "name": "oldArbiter",
          "type": "address"
        },
        {
          "indexed": false,
          "internalType": "address",
          "name": "newArbiter",
          "type": "address"
        }
      ],
      "name": "EscrowArbiterChanged",
      "type": "event"
    },
    {
      "anonymous": false,
      "inputs": [
        {
          "indexed": true,
          "internalType": "uint256",
          "name": "escrowId",
          "type": "uint256"
        },
        {
          "indexed": true,
          "internalType": "address",
          "name": "buyer",
          "type": "address"
        },
        {
          "indexed": true,
          "internalType": "address",
          "name": "seller",
          "type": "address"
        },
        {
          "indexed": false,
          "internalType": "address",
          "name": "token",
          "type": "address"
        },
        {
          "indexed": false,
          "internalType": "uint256",
          "name": "amount",
          "type": "uint256"
        },
        {
          "indexed": false,
          "internalType": "address",
          "name": "arbiter",
          "type": "address"
        },
        {
          "indexed": false,
          "internalType": "uint256",
          "name": "maturityTime",
          "type": "uint256"
        },
        {
          "indexed": false,
          "internalType": "string",
          "name": "title",
          "type": "string"
        },
        {
          "indexed": false,
          "internalType": "string",
          "name": "ipfsHash",
          "type": "string"
        }
      ],
      "name": "EscrowCreated",
      "type": "event"
    },
    {
      "anonymous": false,
      "inputs": [
        {
          "indexed": true,
          "internalType": "address",
          "name": "token",
          "type": "address"
        },
        {
          "indexed": true,
          "internalType": "address",
          "name": "to",
          "type": "address"
        },
        {
          "indexed": false,
          "internalType": "uint256",
          "name": "amount",
          "type": "uint256"
        }
      ],
      "name": "FeeWithdrawn",
      "type": "event"
    },
    {
      "anonymous": false,
      "inputs": [
        {
          "indexed": true,
          "internalType": "address",
          "name": "owner",
          "type": "address"
        },
        {
          "indexed": false,
          "internalType": "uint256",
          "name": "lpBurned",
          "type": "uint256"
        }
      ],
      "name": "FeeWithdrawnAll",
      "type": "event"
    },
    {
      "anonymous": false,
      "inputs": [
        {
          "indexed": true,
          "internalType": "address",
          "name": "previousOwner",
          "type": "address"
        },
        {
          "indexed": true,
          "internalType": "address",
          "name": "newOwner",
          "type": "address"
        }
      ],
      "name": "OwnershipTransferStarted",
      "type": "event"
    },
    {
      "anonymous": false,
      "inputs": [
        {
          "indexed": true,
          "internalType": "address",
          "name": "previousOwner",
          "type": "address"
        },
        {
          "indexed": true,
          "internalType": "address",
          "name": "newOwner",
          "type": "address"
        }
      ],
      "name": "OwnershipTransferred",
      "type": "event"
    },
    {
      "anonymous": false,
      "inputs": [
        {
          "indexed": true,
          "internalType": "uint256",
          "name": "escrowId",
          "type": "uint256"
        },
        {
          "indexed": true,
          "internalType": "address",
          "name": "buyer",
          "type": "address"
        },
        {
          "indexed": false,
          "internalType": "uint256",
          "name": "amount",
          "type": "uint256"
        }
      ],
      "name": "PaymentDeposited",
      "type": "event"
    },
    {
      "anonymous": false,
      "inputs": [
        {
          "indexed": true,
          "internalType": "address",
          "name": "token",
          "type": "address"
        },
        {
          "indexed": true,
          "internalType": "address",
          "name": "recipient",
          "type": "address"
        },
        {
          "indexed": false,
          "internalType": "uint256",
          "name": "amount",
          "type": "uint256"
        },
        {
          "indexed": false,
          "internalType": "uint256",
          "name": "fee",
          "type": "uint256"
        }
      ],
      "name": "PayoutWithFee",
      "type": "event"
    },
    {
      "anonymous": false,
      "inputs": [
        {
          "indexed": true,
          "internalType": "uint256",
          "name": "escrowId",
          "type": "uint256"
        },
        {
          "indexed": true,
          "internalType": "address",
          "name": "initiator",
          "type": "address"
        },
        {
          "indexed": false,
          "internalType": "uint256",
          "name": "amount",
          "type": "uint256"
        },
        {
          "indexed": false,
          "internalType": "uint256",
          "name": "fee",
          "type": "uint256"
        }
      ],
      "name": "Refunded",
      "type": "event"
    },
    {
      "anonymous": false,
      "inputs": [
        {
          "indexed": true,
          "internalType": "uint256",
          "name": "escrowId",
          "type": "uint256"
        },
        {
          "indexed": true,
          "internalType": "address",
          "name": "requester",
          "type": "address"
        }
      ],
      "name": "RequestCancel",
      "type": "event"
    },
    {
      "anonymous": false,
      "inputs": [
        {
          "indexed": true,
          "internalType": "address",
          "name": "token",
          "type": "address"
        },
        {
          "indexed": false,
          "internalType": "bool",
          "name": "allowed",
          "type": "bool"
        }
      ],
      "name": "TokenAllowed",
      "type": "event"
    },
    {
      "anonymous": false,
      "inputs": [
        {
          "indexed": true,
          "internalType": "address",
          "name": "token",
          "type": "address"
        },
        {
          "indexed": true,
          "internalType": "address",
          "name": "user",
          "type": "address"
        },
        {
          "indexed": false,
          "internalType": "uint256",
          "name": "amount",
          "type": "uint256"
        }
      ],
      "name": "Withdrawn",
      "type": "event"
    },
    {
      "inputs": [],
      "name": "acceptOwnership",
      "outputs": [],
      "stateMutability": "nonpayable",
      "type": "function"
    },
    {
      "inputs": [
        {
          "internalType": "address",
          "name": "tokenAddress",
          "type": "address"
        }
      ],
      "name": "allowedTokens",
      "outputs": [
        {
          "internalType": "bool",
          "name": "isAllowed",
          "type": "bool"
        }
      ],
      "stateMutability": "view",
      "type": "function"
    },
    {
      "inputs": [
        {
          "internalType": "uint256",
          "name": "escrowId",
          "type": "uint256"
        }
      ],
      "name": "cancelByTimeout",
      "outputs": [],
      "stateMutability": "nonpayable",
      "type": "function"
    },
    {
      "inputs": [
        {
          "internalType": "uint256",
          "name": "escrowId",
          "type": "uint256"
        }
      ],
      "name": "confirmDelivery",
      "outputs": [],
      "stateMutability": "nonpayable",
      "type": "function"
    },
    {
      "inputs": [
        {
          "internalType": "uint256",
          "name": "escrowId",
          "type": "uint256"
        },
        {
          "internalType": "bytes",
          "name": "signature",
          "type": "bytes"
        },
        {
          "internalType": "uint256",
          "name": "deadline",
          "type": "uint256"
        },
        {
          "internalType": "uint256",
          "name": "nonce",
          "type": "uint256"
        }
      ],
      "name": "confirmDeliverySigned",
      "outputs": [],
      "stateMutability": "nonpayable",
      "type": "function"
    },
    {
      "inputs": [
        {
          "internalType": "address",
          "name": "token",
          "type": "address"
        },
        {
          "internalType": "address",
          "name": "buyer",
          "type": "address"
        },
        {
          "internalType": "uint256",
          "name": "amount",
          "type": "uint256"
        },
        {
          "internalType": "uint256",
          "name": "maturityTimeDays",
          "type": "uint256"
        },
        {
          "internalType": "address",
          "name": "arbiter",
          "type": "address"
        },
        {
          "internalType": "string",
          "name": "title",
          "type": "string"
        },
        {
          "internalType": "string",
          "name": "ipfsHash",
          "type": "string"
        }
      ],
      "name": "createEscrow",
      "outputs": [
        {
          "internalType": "uint256",
          "name": "",
          "type": "uint256"
        }
      ],
      "stateMutability": "nonpayable",
      "type": "function"
    },
    {
      "inputs": [
        {
          "internalType": "uint256",
          "name": "escrowId",
          "type": "uint256"
        }
      ],
      "name": "deposit",
      "outputs": [],
      "stateMutability": "nonpayable",
      "type": "function"
    },
    {
      "inputs": [
        {
          "internalType": "uint256",
          "name": "_disputeId",
          "type": "uint256"
        }
      ],
      "name": "disputeStatus",
      "outputs": [
        {
          "internalType": "uint256",
          "name": "_status",
          "type": "uint256"
        }
      ],
      "stateMutability": "view",
      "type": "function"
    },
    {
      "inputs": [
        {
          "internalType": "uint256",
          "name": "escrowId",
          "type": "uint256"
        }
      ],
      "name": "escrows",
      "outputs": [
        {
          "internalType": "address",
          "name": "token",
          "type": "address"
        },
        {
          "internalType": "address",
          "name": "buyer",
          "type": "address"
        },
        {
          "internalType": "address",
          "name": "seller",
          "type": "address"
        },
        {
          "internalType": "address",
          "name": "arbiter",
          "type": "address"
        },
        {
          "internalType": "uint256",
          "name": "amount",
          "type": "uint256"
        },
        {
          "internalType": "uint256",
          "name": "depositTime",
          "type": "uint256"
        },
        {
          "internalType": "uint256",
          "name": "maturityTime",
          "type": "uint256"
        },
        {
          "internalType": "uint256",
          "name": "nonce",
          "type": "uint256"
        },
        {
          "internalType": "enum PalindromeCryptoEscrow.State",
          "name": "state",
          "type": "uint8"
        },
        {
          "internalType": "bool",
          "name": "buyerCancelRequested",
          "type": "bool"
        },
        {
          "internalType": "bool",
          "name": "sellerCancelRequested",
          "type": "bool"
        }
      ],
      "stateMutability": "view",
      "type": "function"
    },
    {
      "inputs": [
        {
          "internalType": "address",
          "name": "",
          "type": "address"
        }
      ],
      "name": "feePool",
      "outputs": [
        {
          "internalType": "uint256",
          "name": "",
          "type": "uint256"
        }
      ],
      "stateMutability": "view",
      "type": "function"
    },
    {
      "inputs": [],
      "name": "lpToken",
      "outputs": [
        {
          "internalType": "contract PalindromeEscrowLP",
          "name": "",
          "type": "address"
        }
      ],
      "stateMutability": "view",
      "type": "function"
    },
    {
      "inputs": [],
      "name": "nextEscrowId",
      "outputs": [
        {
          "internalType": "uint256",
          "name": "",
          "type": "uint256"
        }
      ],
      "stateMutability": "view",
      "type": "function"
    },
    {
      "inputs": [],
      "name": "owner",
      "outputs": [
        {
          "internalType": "address",
          "name": "",
          "type": "address"
        }
      ],
      "stateMutability": "view",
      "type": "function"
    },
    {
      "inputs": [],
      "name": "pendingOwner",
      "outputs": [
        {
          "internalType": "address",
          "name": "",
          "type": "address"
        }
      ],
      "stateMutability": "view",
      "type": "function"
    },
    {
      "inputs": [
        {
          "internalType": "address",
          "name": "token",
          "type": "address"
        }
      ],
      "name": "previewFees",
      "outputs": [
        {
          "internalType": "uint256",
          "name": "claimable",
          "type": "uint256"
        }
      ],
      "stateMutability": "view",
      "type": "function"
    },
    {
      "inputs": [],
      "name": "renounceOwnership",
      "outputs": [],
      "stateMutability": "nonpayable",
      "type": "function"
    },
    {
      "inputs": [
        {
          "internalType": "uint256",
          "name": "escrowId",
          "type": "uint256"
        }
      ],
      "name": "requestCancel",
      "outputs": [],
      "stateMutability": "nonpayable",
      "type": "function"
    },
    {
      "inputs": [
        {
          "internalType": "uint256",
          "name": "escrowId",
          "type": "uint256"
        },
        {
          "internalType": "bytes",
          "name": "signature",
          "type": "bytes"
        },
        {
          "internalType": "uint256",
          "name": "deadline",
          "type": "uint256"
        },
        {
          "internalType": "uint256",
          "name": "nonce",
          "type": "uint256"
        }
      ],
      "name": "requestCancelSigned",
      "outputs": [],
      "stateMutability": "nonpayable",
      "type": "function"
    },
    {
      "inputs": [
        {
          "internalType": "uint256",
          "name": "escrowId",
          "type": "uint256"
        },
        {
          "internalType": "bytes",
          "name": "signature",
          "type": "bytes"
        },
        {
          "internalType": "enum PalindromeCryptoEscrow.State",
          "name": "resolution",
          "type": "uint8"
        },
        {
          "internalType": "uint256",
          "name": "deadline",
          "type": "uint256"
        },
        {
          "internalType": "uint256",
          "name": "nonce",
          "type": "uint256"
        }
      ],
      "name": "resolveDisputeSigned",
      "outputs": [],
      "stateMutability": "nonpayable",
      "type": "function"
    },
    {
      "inputs": [
        {
          "internalType": "address",
          "name": "token",
          "type": "address"
        },
        {
          "internalType": "bool",
          "name": "allowed",
          "type": "bool"
        }
      ],
      "name": "setAllowedToken",
      "outputs": [],
      "stateMutability": "nonpayable",
      "type": "function"
    },
    {
      "inputs": [
        {
          "internalType": "uint256",
          "name": "escrowId",
          "type": "uint256"
        },
        {
          "internalType": "address",
          "name": "newArbiter",
          "type": "address"
        }
      ],
      "name": "setEscrowArbiter",
      "outputs": [],
      "stateMutability": "nonpayable",
      "type": "function"
    },
    {
      "inputs": [
        {
          "internalType": "uint256",
          "name": "escrowId",
          "type": "uint256"
        }
      ],
      "name": "startDispute",
      "outputs": [],
      "stateMutability": "nonpayable",
      "type": "function"
    },
    {
      "inputs": [
        {
          "internalType": "uint256",
          "name": "escrowId",
          "type": "uint256"
        },
        {
          "internalType": "bytes",
          "name": "signature",
          "type": "bytes"
        },
        {
          "internalType": "uint256",
          "name": "deadline",
          "type": "uint256"
        },
        {
          "internalType": "uint256",
          "name": "nonce",
          "type": "uint256"
        }
      ],
      "name": "startDisputeSigned",
      "outputs": [],
      "stateMutability": "nonpayable",
      "type": "function"
    },
    {
      "inputs": [
        {
          "internalType": "uint256",
          "name": "escrowId",
          "type": "uint256"
        },
        {
          "internalType": "enum PalindromeCryptoEscrow.State",
          "name": "resolution",
          "type": "uint8"
        },
        {
          "internalType": "string",
          "name": "ipfsHash",
          "type": "string"
        }
      ],
      "name": "submitArbiterDecision",
      "outputs": [],
      "stateMutability": "nonpayable",
      "type": "function"
    },
    {
      "inputs": [
        {
          "internalType": "uint256",
          "name": "escrowId",
          "type": "uint256"
        },
        {
          "internalType": "enum PalindromeCryptoEscrow.Role",
          "name": "role",
          "type": "uint8"
        },
        {
          "internalType": "string",
          "name": "ipfsHash",
          "type": "string"
        }
      ],
      "name": "submitDisputeMessage",
      "outputs": [],
      "stateMutability": "nonpayable",
      "type": "function"
    },
    {
      "inputs": [
        {
          "internalType": "address",
          "name": "newOwner",
          "type": "address"
        }
      ],
      "name": "transferOwnership",
      "outputs": [],
      "stateMutability": "nonpayable",
      "type": "function"
    },
    {
      "inputs": [
        {
          "internalType": "uint256",
          "name": "escrowId",
          "type": "uint256"
        }
      ],
      "name": "withdraw",
      "outputs": [],
      "stateMutability": "nonpayable",
      "type": "function"
    },
    {
      "inputs": [
        {
          "internalType": "address",
          "name": "token",
          "type": "address"
        }
      ],
      "name": "withdrawFees",
      "outputs": [],
      "stateMutability": "nonpayable",
      "type": "function"
    },
    {
      "inputs": [
        {
          "internalType": "address",
          "name": "token",
          "type": "address"
        },
        {
          "internalType": "address",
          "name": "user",
          "type": "address"
        }
      ],
      "name": "withdrawable",
      "outputs": [
        {
          "internalType": "uint256",
          "name": "amount",
          "type": "uint256"
        }
      ],
      "stateMutability": "view",
      "type": "function"
    }
  ],
  "bytecode": "0x608060405234801561000f575f5ffd5b5060405161443638038061443683398101604081905261002e916101e0565b60015f5561003b33610158565b6001600160a01b03821661008a5760405162461bcd60e51b81526020600482015260116024820152701314081d1bdad95b881c995c5d5a5c9959607a1b60448201526064015b60405180910390fd5b600380546001600160a01b0319166001600160a01b038481169190911790915581166100f85760405162461bcd60e51b815260206004820152601460248201527f546f6b656e2063616e6e6f74206265207a65726f0000000000000000000000006044820152606401610081565b6001600160a01b0381165f81815260066020908152604091829020805460ff1916600190811790915591519182527f9a8e30a8658b96ab3f034ce4bac6806278b4aee5880ccdd1ac35e4ed5bb31d23910160405180910390a25050610211565b600280546001600160a01b031916905561017181610174565b50565b600180546001600160a01b038381166001600160a01b0319831681179093556040519116919082907f8be0079c531659141344cd1fd0a4f28419497f9722a3daafe3b4186f6b6457e0905f90a35050565b80516001600160a01b03811681146101db575f5ffd5b919050565b5f5f604083850312156101f1575f5ffd5b6101fa836101c5565b9150610208602084016101c5565b90509250929050565b6142188061021e5f395ff3fe608060405234801561000f575f5ffd5b50600436106101c6575f3560e01c80638aaa2284116100fe578063da183b021161009e578063f2fde38b1161006e578063f2fde38b14610477578063fcaff4ae1461048a578063fd26fef11461049d578063fd84cb97146104bc575f5ffd5b8063da183b021461040e578063e30c397814610421578063e683a2d414610432578063e744092e14610445575f5ffd5b8063c0314d27116100d9578063c0314d27146103ab578063c0cfa7e5146103d5578063c761423d146103e8578063cbfababd146103fb575f5ffd5b80638aaa2284146103745780638da5cb5b14610387578063b6b55f2514610398575f5ffd5b80636232ef6011610169578063769a68e311610144578063769a68e31461033d57806379ba5097146103505780637cfa07fc1461035857806389cb29dd1461036b575f5ffd5b80636232ef601461030f5780636754631714610322578063715018a614610335575f5ffd5b8063164e68de116101a4578063164e68de146102ab5780632e1a7d4d146102be57806333bbe7e2146102d15780635fcbd285146102e4575f5ffd5b8063012f52ee146101ca57806306075a151461026957806310f169e81461027e575b5f5ffd5b6102496101d8366004613b0b565b600560208190525f91825260409091208054600182015460028301546003840154600485015495850154600686015460078701546008909701546001600160a01b039687169895871697948716969093169493919290919060ff80821691610100810482169162010000909104168b565b6040516102609b9a99989796959493929190613b56565b60405180910390f35b61027c610277366004613c07565b6104cf565b005b61029d61028c366004613b0b565b60076020525f908152604090205481565b604051908152602001610260565b61027c6102b9366004613c7b565b6107c4565b61027c6102cc366004613b0b565b610c01565b61027c6102df366004613c07565b610f7a565b6003546102f7906001600160a01b031681565b6040516001600160a01b039091168152602001610260565b61027c61031d366004613c9b565b611343565b61027c610330366004613c07565b6116c6565b61027c6119b1565b61027c61034b366004613d04565b6119c4565b61027c611cb6565b61029d610366366004613c7b565b611d2d565b61029d60045481565b61027c610382366004613d34565b611e82565b6001546001600160a01b03166102f7565b61027c6103a6366004613b0b565b611fdb565b61029d6103b9366004613d69565b600860209081525f928352604080842090915290825290205481565b61027c6103e3366004613b0b565b61236d565b61029d6103f6366004613d9a565b61245d565b61027c610409366004613e4e565b6127a4565b61027c61041c366004613b0b565b612882565b6002546001600160a01b03166102f7565b61027c610440366004613b0b565b612ad6565b610467610453366004613c7b565b60066020525f908152604090205460ff1681565b6040519015158152602001610260565b61027c610485366004613c7b565b612c46565b61027c610498366004613e6f565b612cb7565b61029d6104ab366004613c7b565b60096020525f908152604090205481565b61027c6104ca366004613b0b565b613118565b6104d7613240565b5f8581526005602052604090206001015485906001600160a01b031633148061051857505f818152600560205260409020600201546001600160a01b031633145b61053d5760405162461bcd60e51b815260040161053490613eda565b60405180910390fd5b620151808361055e5760405162461bcd60e51b815260040161053490613f11565b42841161057d5760405162461bcd60e51b815260040161053490613f3b565b6105878142613f86565b84106105a55760405162461bcd60e51b815260040161053490613f99565b5f8781526005602052604090206001600882015460ff1660068111156105cd576105cd613b22565b146105ea5760405162461bcd60e51b815260040161053490613fd0565b8060070154841461062e5760405162461bcd60e51b815260206004820152600e60248201526d09cdedcc6ca40dad2e6dac2e8c6d60931b6044820152606401610534565b6005810154604080514660208201523091810191909152606081018a905233608082015260a081019190915260c0810186905260e0810185905261010080820152600c6101208201526b73746172744469737075746560a01b6101408201525f90610160016040516020818303038152906040528051906020012090505f6106f36106b883613297565b8a8a8080601f0160208091040260200160405190810160405280939291908181526020018383808284375f920191909152506132c992505050565b60018401549091506001600160a01b038083169116146107555760405162461bcd60e51b815260206004820152601760248201527f5369676e6174757265206d7573742062652062757965720000000000000000006044820152606401610534565b600783018054905f61076683613fff565b909155505060088301805460ff191660021790556040516001600160a01b038216908b907fd658effe7cf013e5a508b3f1a373b92566494d8b6a7c2970fc964932de1c4dab905f90a350505050506107bd60015f55565b5050505050565b6107cc613240565b6107d46132ed565b6001600160a01b0381165f9081526006602052604090205460ff166108315760405162461bcd60e51b8152602060048201526013602482015272151bdad95b881b9bdd081cdd5c1c1bdc9d1959606a1b6044820152606401610534565b6003545f906001600160a01b03166370a082316108566001546001600160a01b031690565b6040516001600160e01b031960e084901b1681526001600160a01b039091166004820152602401602060405180830381865afa158015610898573d5f5f3e3d5ffd5b505050506040513d601f19601f820116820180604052508101906108bc9190614017565b90505f81116108fd5760405162461bcd60e51b815260206004820152600d60248201526c2737902628103a3790313ab93760991b6044820152606401610534565b600354604080516318160ddd60e01b815290515f926001600160a01b0316916318160ddd9160048083019260209291908290030181865afa158015610944573d5f5f3e3d5ffd5b505050506040513d601f19601f820116820180604052508101906109689190614017565b6001600160a01b0384165f90815260096020526040812054919250819003610a64576003546001600160a01b0316639dc29fac6109ad6001546001600160a01b031690565b6040516001600160e01b031960e084901b1681526001600160a01b039091166004820152602481018690526044015f604051808303815f87803b1580156109f2575f5ffd5b505af1158015610a04573d5f5f3e3d5ffd5b50505050610a1a6001546001600160a01b031690565b6001600160a01b03167f0b19eea3a67f65a169da2828a87a9eef904c4c4956d367cb40b33001e455223484604051610a5491815260200190565b60405180910390a2505050610bf5565b6003546001600160a01b0316639dc29fac610a876001546001600160a01b031690565b6040516001600160e01b031960e084901b1681526001600160a01b039091166004820152602481018690526044015f604051808303815f87803b158015610acc575f5ffd5b505af1158015610ade573d5f5f3e3d5ffd5b505050505f828285610af0919061402e565b610afa9190614045565b90508015610ba257610b0c8183614064565b6001600160a01b0386165f90815260096020526040902055610b4a610b396001546001600160a01b031690565b6001600160a01b0387169083613347565b6001546001600160a01b03166001600160a01b0316856001600160a01b03167eed5939179dc194223f0edd1517ecee2210b22da7f82c8e4b1795e93b9f06aa83604051610b9991815260200190565b60405180910390a35b6001546001600160a01b03166001600160a01b03167f0b19eea3a67f65a169da2828a87a9eef904c4c4956d367cb40b33001e455223485604051610be891815260200190565b60405180910390a2505050505b610bfe60015f55565b50565b610c09613240565b5f8181526005602052604090206001015481906001600160a01b0316331480610c4a57505f818152600560205260409020600201546001600160a01b031633145b610c665760405162461bcd60e51b815260040161053490613eda565b5f82815260056020819052604090912090600882015460ff166006811115610c9057610c90613b22565b1480610cb457506003600882015460ff166006811115610cb257610cb2613b22565b145b80610cd757506004600882015460ff166006811115610cd557610cd5613b22565b145b610d365760405162461bcd60e51b815260206004820152602a60248201527f5769746864726177616c73206f6e6c7920616c6c6f77656420616674657220656044820152697363726f7720656e647360b01b6064820152608401610534565b6003600882015460ff166006811115610d5157610d51613b22565b03610dc95760028101546001600160a01b03163314610dc45760405162461bcd60e51b815260206004820152602960248201527f4f6e6c792073656c6c65722063616e207769746864726177206166746572206360448201526837b6b83632ba34b7b760b91b6064820152608401610534565b610e7d565b6004600882015460ff166006811115610de457610de4613b22565b1480610e0857506005600882015460ff166006811115610e0657610e06613b22565b145b15610e7d5760018101546001600160a01b03163314610e7d5760405162461bcd60e51b815260206004820152602b60248201527f4f6e6c792062757965722063616e20776974686472617720616674657220726560448201526a199d5b990bd8d85b98d95b60aa1b6064820152608401610534565b80546001600160a01b03165f90815260086020908152604080832033845290915281205490819003610ee75760405162461bcd60e51b81526020600482015260136024820152724e6f7468696e6720746f20776974686472617760681b6044820152606401610534565b81546001600160a01b039081165f9081526008602090815260408083203380855292528220919091558354610f1e92169083613347565b60088201805460ff19166006179055815460405182815233916001600160a01b0316907fd1c19fbcd4551a5edfb66d43d2e337c04837afda3482b42bdf569a8fccdae5fb9060200160405180910390a3505050610bfe60015f55565b610f82613240565b5f8581526005602052604090206001015485906001600160a01b0316331480610fc357505f818152600560205260409020600201546001600160a01b031633145b610fdf5760405162461bcd60e51b815260040161053490613eda565b62015180836110005760405162461bcd60e51b815260040161053490613f11565b42841161101f5760405162461bcd60e51b815260040161053490613f3b565b6110298142613f86565b84106110475760405162461bcd60e51b815260040161053490613f99565b5f8781526005602052604090206001600882015460ff16600681111561106f5761106f613b22565b1461108c5760405162461bcd60e51b815260040161053490613fd0565b806007015484146110d05760405162461bcd60e51b815260206004820152600e60248201526d09cdedcc6ca40dad2e6dac2e8c6d60931b6044820152606401610534565b6005810154604080514660208201523091810191909152606081018a905233608082015260a081019190915260c0810186905260e0810185905261010080820152600d6101208201526c18d85b98d95b14995c5d595cdd609a1b6101408201525f90610160016040516020818303038152906040528051906020012090505f61115b6106b883613297565b60018401549091506001600160a01b038083169116148015611189575060018301546001600160a01b031633145b806111ba575060028301546001600160a01b0382811691161480156111ba575060028301546001600160a01b031633145b6112065760405162461bcd60e51b815260206004820152601e60248201527f5369676e6174757265207061727469636970616e74206d69736d6174636800006044820152606401610534565b600783018054905f61121783613fff565b909155505060018301546001600160a01b039081169082160361124a5760088301805461ff00191661010017905561125e565b60088301805462ff00001916620100001790555b6040516001600160a01b038216908b907f88a867d5d9b489598a3f5e5c8d5c1da163ed116737b70444bac744920904a573905f90a36008830154610100900460ff161561133557600883015462010000900460ff1615611335578254600184015460048501545f926112df926001600160a01b0391821692911690846133af565b60088501805460ff191660051790556004850154604080519182526020820183905291925033918d917f69e48b43ef43ff7b23e06ff586a2977fa805fbddabe2555618d946619f19c2c3910160405180910390a3505b50505050506107bd60015f55565b61134b613240565b5f8481526005602052604090206001015484906001600160a01b031633148061138c57505f818152600560205260409020600201546001600160a01b031633145b806113af57505f818152600560205260409020600301546001600160a01b031633145b6113fb5760405162461bcd60e51b815260206004820152601b60248201527f4e6f742061207061727469636970616e7420696e20657363726f7700000000006044820152606401610534565b5f8581526005602052604090206002600882015460ff16600681111561142357611423613b22565b1461145f5760405162461bcd60e51b815260206004820152600c60248201526b139bdd08111254d41555115160a21b6044820152606401610534565b5f600186600381111561147457611474613b22565b036114d65760018201546001600160a01b031633146114ce5760405162461bcd60e51b81526020600482015260166024820152754f6e6c792062757965722063616e206d65737361676560501b6044820152606401610534565b5060016115e9565b60028660038111156114ea576114ea613b22565b036115535760028201546001600160a01b0316331461154b5760405162461bcd60e51b815260206004820152601760248201527f4f6e6c792073656c6c65722063616e206d6573736167650000000000000000006044820152606401610534565b5060026115e9565b600386600381111561156757611567613b22565b036115d05760038201546001600160a01b031633146115c85760405162461bcd60e51b815260206004820152601860248201527f4f6e6c7920617262697465722063616e206d65737361676500000000000000006044820152606401610534565b5060046115e9565b60405163421b511560e11b815260040160405180910390fd5b5f878152600760205260409020548116156116425760405162461bcd60e51b8152602060048201526019602482015278416c7265616479207375626d6974746564206d65737361676560381b6044820152606401610534565b5f87815260076020526040902080548217905585600381111561166757611667613b22565b5f888152600760205260409081902054905133918a917f343e9b07afb91476a7eaea35e0dd214eb5d26b7047cb533a575c43a53d4c8d75916116ac918b918b9161409f565b60405180910390a45050506116c060015f55565b50505050565b6116ce613240565b5f8581526005602052604090206001015485906001600160a01b031633146117085760405162461bcd60e51b8152600401610534906140c2565b62015180836117295760405162461bcd60e51b815260040161053490613f11565b4284116117485760405162461bcd60e51b815260040161053490613f3b565b6117528142613f86565b84106117705760405162461bcd60e51b815260040161053490613f99565b5f8781526005602052604090206001600882015460ff16600681111561179857611798613b22565b146117b55760405162461bcd60e51b815260040161053490613fd0565b806007015484146118085760405162461bcd60e51b815260206004820152601b60248201527f496e76616c6964206e6f6e636520666f72207369676e617475726500000000006044820152606401610534565b6005810154604080514660208201523091810191909152606081018a905233608082015260a081019190915260c0810186905260e0810185905261010080820152600f6101208201526e636f6e6669726d44656c697665727960881b6101408201525f90610160016040516020818303038152906040528051906020012090505f6118956106b883613297565b60018401549091506001600160a01b038083169116146118f75760405162461bcd60e51b815260206004820152601760248201527f496e76616c6964206275796572207369676e61747572650000000000000000006044820152606401610534565b600783018054905f61190883613fff565b90915550508254600284015460048501545f92611935926001600160a01b039182169291169060016133af565b60088501805460ff1916600317905560028501546001860154600487015460408051918252602082018590529394506001600160a01b039283169392909116918e917f8bcf349ab354486b68c142cea7235e4f7f31f6a425466f569c8ac1d5bc4d0007910160405180910390a45050505050506107bd60015f55565b6119b96132ed565b6119c25f613631565b565b6119cc613240565b5f8481526005602052604090206003015484906001600160a01b03163314611a2d5760405162461bcd60e51b815260206004820152601460248201527313db9b1e48185c989a5d195c88185b1b1bddd95960621b6044820152606401610534565b5f8581526005602052604090206002600882015460ff166006811115611a5557611a55613b22565b14611a915760405162461bcd60e51b815260206004820152600c60248201526b139bdd08111254d41555115160a21b6044820152606401610534565b6003856006811115611aa557611aa5613b22565b1480611ac257506004856006811115611ac057611ac0613b22565b145b611b035760405162461bcd60e51b815260206004820152601260248201527124b73b30b634b2103932b9b7b63aba34b7b760711b6044820152606401610534565b5f86815260076020526040902054600490811615611b5f5760405162461bcd60e51b8152602060048201526019602482015278416c7265616479207375626d6974746564206d65737361676560381b6044820152606401610534565b5f87815260076020526040908190208054831790819055905160039133918a917f343e9b07afb91476a7eaea35e0dd214eb5d26b7047cb533a575c43a53d4c8d7591611baf918b918b919061409f565b60405180910390a45f6003876006811115611bcc57611bcc613b22565b14611be45760018301546001600160a01b0316611bf3565b60028301546001600160a01b03165b90505f6003886006811115611c0a57611c0a613b22565b855460048701549290911492505f91611c2f916001600160a01b0316908590856133af565b5f8b8152600760205260408120556008860180549192508a9160ff19166001836006811115611c6057611c60613b22565b0217905550897ffc4c84ff0bf9d937dea068e6c13c3a16c307d76a1c5b5173c40f03f68f421e008a33886004015485604051611c9f94939291906140ee565b60405180910390a25050505050506116c060015f55565b60025433906001600160a01b03168114611d245760405162461bcd60e51b815260206004820152602960248201527f4f776e61626c6532537465703a2063616c6c6572206973206e6f7420746865206044820152683732bb9037bbb732b960b91b6064820152608401610534565b610bfe81613631565b6003545f9081906001600160a01b03166370a08231611d546001546001600160a01b031690565b6040516001600160e01b031960e084901b1681526001600160a01b039091166004820152602401602060405180830381865afa158015611d96573d5f5f3e3d5ffd5b505050506040513d601f19601f82011682018060405250810190611dba9190614017565b90505f60035f9054906101000a90046001600160a01b03166001600160a01b03166318160ddd6040518163ffffffff1660e01b8152600401602060405180830381865afa158015611e0d573d5f5f3e3d5ffd5b505050506040513d601f19601f82011682018060405250810190611e319190614017565b9050811580611e3e575080155b15611e4c57505f9392505050565b6001600160a01b0384165f9081526009602052604090205481611e6f828561402e565b611e799190614045565b95945050505050565b611e8a6132ed565b6001600160a01b038216611ed65760405162461bcd60e51b8152602060048201526013602482015272546f6b656e3a207a65726f206164647265737360681b6044820152606401610534565b5f826001600160a01b03166318160ddd6040518163ffffffff1660e01b8152600401602060405180830381865afa158015611f13573d5f5f3e3d5ffd5b505050506040513d601f19601f82011682018060405250810190611f379190614017565b1015611f7d5760405162461bcd60e51b8152602060048201526015602482015274151bdad95b8e881b9bdd08184818dbdb9d1c9858dd605a1b6044820152606401610534565b6001600160a01b0382165f81815260066020908152604091829020805460ff191685151590811790915591519182527f9a8e30a8658b96ab3f034ce4bac6806278b4aee5880ccdd1ac35e4ed5bb31d23910160405180910390a25050565b611fe3613240565b5f8181526005602052604090206001015481906001600160a01b0316331461201d5760405162461bcd60e51b8152600401610534906140c2565b5f82815260056020526040812090600882015460ff16600681111561204457612044613b22565b146120885760405162461bcd60e51b8152602060048201526014602482015273139bdd081055d05255125391d7d410565351539560621b6044820152606401610534565b80546001600160a01b03165f9081526006602052604090205460ff166120f05760405162461bcd60e51b815260206004820152601960248201527f546f6b656e206e6f7420616c6c6f77656420616e796d6f7265000000000000006044820152606401610534565b600181600401546121019190614064565b8154604051636eb1769f60e11b81523360048201523060248201526001600160a01b039091169063dd62ed3e90604401602060405180830381865afa15801561214c573d5f5f3e3d5ffd5b505050506040513d601f19601f820116820180604052508101906121709190614017565b116121bd5760405162461bcd60e51b815260206004820152601960248201527f457363726f773a20616c6c6f77616e636520746f6f206c6f77000000000000006044820152606401610534565b80546040516370a0823160e01b81523060048201525f916001600160a01b0316906370a0823190602401602060405180830381865afa158015612202573d5f5f3e3d5ffd5b505050506040513d601f19601f820116820180604052508101906122269190614017565b60048301548354919250612247916001600160a01b0316903390309061364a565b81546040516370a0823160e01b81523060048201525f916001600160a01b0316906370a0823190602401602060405180830381865afa15801561228c573d5f5f3e3d5ffd5b505050506040513d601f19601f820116820180604052508101906122b09190614017565b60048401549091506122c28383614064565b1461230f5760405162461bcd60e51b815260206004820152601f60248201527f4465706f736974206d69736d61746368206166746572207472616e73666572006044820152606401610534565b42600584015560088301805460ff191660011790556004830154604051908152339086907f71284872bb4c088a81295dff2513729babbccfeda38a8d824bb1a73bcaab494e9060200160405180910390a350505050610bfe60015f55565b612375613240565b5f8181526005602052604090206001015481906001600160a01b03163314806123b657505f818152600560205260409020600201546001600160a01b031633145b6123d25760405162461bcd60e51b815260040161053490613eda565b5f8281526005602052604090206001600882015460ff1660068111156123fa576123fa613b22565b146124175760405162461bcd60e51b815260040161053490613fd0565b60088101805460ff19166002179055604051339084907fd658effe7cf013e5a508b3f1a373b92566494d8b6a7c2970fc964932de1c4dab905f90a35050610bfe60015f55565b5f6001600160a01b038a166124b45760405162461bcd60e51b815260206004820152601c60248201527f546f6b656e2063616e6e6f74206265207a65726f2061646472657373000000006044820152606401610534565b6001600160a01b038a165f9081526006602052604090205460ff1661250f5760405162461bcd60e51b8152602060048201526011602482015270151bdad95b881b9bdd08185b1b1bddd959607a1b6044820152606401610534565b6001600160a01b0389166125655760405162461bcd60e51b815260206004820152601c60248201527f42757965722063616e6e6f74206265207a65726f2061646472657373000000006044820152606401610534565b336001600160a01b038a16036125bd5760405162461bcd60e51b815260206004820152601f60248201527f427579657220616e642073656c6c65722063616e6e6f742062652073616d65006044820152606401610534565b5f88116126015760405162461bcd60e51b81526020600482015260126024820152710416d6f756e74206d757374206265203e20360741b6044820152606401610534565b610e4387106126415760405162461bcd60e51b815260206004820152600c60248201526b4d617820313020796561727360a01b6044820152606401610534565b6001600160a01b038616158061265f57506001600160a01b03861633145b8061267b5750886001600160a01b0316866001600160a01b0316145b1561268f576001546001600160a01b031695505b600480545f918261269f83613fff565b909155505f81815260056020526040902080546001600160a01b03808f166001600160a01b03199283161783556001830180548f8316908416179055600283018054831633179055600383018054918c1691909216179055600481018b905590915061270e896201518061402e565b6127189042613f86565b60068201556008810180545f919060ff191660018302179055505f8160070181905550336001600160a01b03168b6001600160a01b0316837fd3e0574cb952cf8d88c9c2b97882e6000237da1d62a64753eaddaf4d9ce7351b8f8e8d8f8e8e8e8e60405161278d989796959493929190614120565b60405180910390a4509a9950505050505050505050565b6127ac6132ed565b6001600160a01b03811661280d5760405162461bcd60e51b815260206004820152602260248201527f4e657720617262697465722063616e6e6f74206265207a65726f206164647265604482015261737360f01b6064820152608401610534565b5f828152600560209081526040918290206003810180546001600160a01b031981166001600160a01b0387811691821790935585519290911680835293820152909285917f49f78e86c2ff48d61ed48e99e4735ce003575afe6c67bf61127afe6e74cfd9ee910160405180910390a250505050565b61288a613240565b5f8181526005602052604090206001015481906001600160a01b031633146128c45760405162461bcd60e51b8152600401610534906140c2565b5f8281526005602052604090206001600882015460ff1660068111156128ec576128ec613b22565b146129095760405162461bcd60e51b815260040161053490613fd0565b6008810154610100900460ff166129625760405162461bcd60e51b815260206004820152601f60248201527f4275796572206d75737420726571756573742063616e63656c6c6174696f6e006044820152606401610534565b600881015462010000900460ff16156129bd5760405162461bcd60e51b815260206004820152601f60248201527f4d757475616c2063616e63656c20616c72656164792070726f636573736564006044820152606401610534565b80600501545f03612a035760405162461bcd60e51b815260206004820152601060248201526f4465706f736974206e6f74206d61646560801b6044820152606401610534565b80600601544211612a565760405162461bcd60e51b815260206004820152601b60248201527f4d6174757269747920706572696f64206e6f74207265616368656400000000006044820152606401610534565b805460018201546004830154612a7a926001600160a01b039081169216905f6133af565b5060088101805460ff191660051790556004810154604080519182525f6020830152339185917f69e48b43ef43ff7b23e06ff586a2977fa805fbddabe2555618d946619f19c2c3910160405180910390a35050610bfe60015f55565b612ade613240565b5f8181526005602052604090206001015481906001600160a01b0316331480612b1f57505f818152600560205260409020600201546001600160a01b031633145b612b3b5760405162461bcd60e51b815260040161053490613eda565b5f8281526005602052604090206001600882015460ff166006811115612b6357612b63613b22565b14612b805760405162461bcd60e51b815260040161053490613fd0565b60018101546001600160a01b03163314612bae5760088101805462ff00001916620100001790556001612bc2565b60088101805461ff00191661010017905560015b50604051339084907f88a867d5d9b489598a3f5e5c8d5c1da163ed116737b70444bac744920904a573905f90a36008810154610100900460ff168015612c125750600881015462010000900460ff165b15612c3b57805460018201546004830154612a7a926001600160a01b039081169216905f6133af565b5050610bfe60015f55565b612c4e6132ed565b600280546001600160a01b0383166001600160a01b03199091168117909155612c7f6001546001600160a01b031690565b6001600160a01b03167f38d16b8cac22d99fc7c124b9cd0de2d3fa1faef420bfe791d8c362d765e2270060405160405180910390a350565b612cbf613240565b5f8681526005602052604090206003015486906001600160a01b03163314612d205760405162461bcd60e51b815260206004820152601460248201527313db9b1e48185c989a5d195c88185b1b1bddd95960621b6044820152606401610534565b6201518083612d415760405162461bcd60e51b815260040161053490613f11565b428411612d605760405162461bcd60e51b815260040161053490613f3b565b612d6a8142613f86565b8410612d885760405162461bcd60e51b815260040161053490613f99565b5f8881526005602052604090206002600882015460ff166006811115612db057612db0613b22565b14612df45760405162461bcd60e51b81526020600482015260146024820152734e6f7420696e206469737075746520737461746560601b6044820152606401610534565b80600701548414612e525760405162461bcd60e51b815260206004820152602260248201527f4e6f6e6365206d69736d6174636820666f722064697370757465207265736f6c604482015261766560f01b6064820152608401610534565b6003866006811115612e6657612e66613b22565b1480612e8357506004866006811115612e8157612e81613b22565b145b612ecf5760405162461bcd60e51b815260206004820152601760248201527f5265736f6c7574696f6e207479706520696e76616c69640000000000000000006044820152606401610534565b6005810154604080514660208201523091810191909152606081018b905233608082015260a081019190915260c0810186905260e0810185905261010080820152600e6101208201526d7265736f6c76654469737075746560901b6101408201525f90610160016040516020818303038152906040528051906020012090505f612f96612f5b83613297565b8b8b8080601f0160208091040260200160405190810160405280939291908181526020018383808284375f920191909152506132c992505050565b60038401549091506001600160a01b03808316911614612ff85760405162461bcd60e51b815260206004820181905260248201527f5369676e617475726520646f6573206e6f74206d6174636820617262697465726044820152606401610534565b600783018054905f61300983613fff565b909155505f9050600389600681111561302457613024613b22565b1461303c5760018401546001600160a01b031661304b565b60028401546001600160a01b03165b90505f60038a600681111561306257613062613b22565b865460048801549290911492505f91613087916001600160a01b0316908590856133af565b5f8f8152600760205260408120556008870180549192508c9160ff191660018360068111156130b8576130b8613b22565b02179055508d7ffc4c84ff0bf9d937dea068e6c13c3a16c307d76a1c5b5173c40f03f68f421e008c868960040154856040516130f794939291906140ee565b60405180910390a2505050505050505061311060015f55565b505050505050565b613120613240565b5f8181526005602052604090206001015481906001600160a01b0316331461315a5760405162461bcd60e51b8152600401610534906140c2565b5f8281526005602052604090206001600882015460ff16600681111561318257613182613b22565b1461319f5760405162461bcd60e51b815260040161053490613fd0565b8054600282015460048301545f926131c7926001600160a01b039182169291169060016133af565b60088301805460ff1916600317905560028301546001840154600485015460408051918252602082018590529394506001600160a01b0392831693929091169187917f8bcf349ab354486b68c142cea7235e4f7f31f6a425466f569c8ac1d5bc4d0007910160405180910390a4505050610bfe60015f55565b60025f54036132915760405162461bcd60e51b815260206004820152601f60248201527f5265656e7472616e637947756172643a207265656e7472616e742063616c6c006044820152606401610534565b60025f55565b7f19457468657265756d205369676e6564204d6573736167653a0a3332000000005f908152601c91909152603c902090565b5f5f5f6132d68585613682565b915091506132e3816136c4565b5090505b92915050565b6001546001600160a01b031633146119c25760405162461bcd60e51b815260206004820181905260248201527f4f776e61626c653a2063616c6c6572206973206e6f7420746865206f776e65726044820152606401610534565b6040516001600160a01b0383166024820152604481018290526133aa90849063a9059cbb60e01b906064015b60408051601f198184030181529190526020810180516001600160e01b03166001600160e01b03199093169290921790915261380d565b505050565b5f6001600160a01b0384166133f75760405162461bcd60e51b815260206004820152600e60248201526d526563697069656e74207a65726f60901b6044820152606401610534565b5f83116134345760405162461bcd60e51b815260206004820152600b60248201526a416d6f756e74207a65726f60a81b6044820152606401610534565b81801561343f575060015b156135a15761271061345260648561402e565b61345c9190614045565b90505f6134698285614064565b6001600160a01b038088165f908152600860209081526040808320938a168352929052908120805492935083929091906134a4908490613f86565b90915550506001600160a01b0386165f90815260096020526040812080548492906134d0908490613f86565b90915550506003546001600160a01b03166340c10f196134f86001546001600160a01b031690565b6040516001600160e01b031960e084901b1681526001600160a01b039091166004820152602481018590526044015f604051808303815f87803b15801561353d575f5ffd5b505af115801561354f573d5f5f3e3d5ffd5b505060408051878152602081018690526001600160a01b03808a1694508a1692507fc0c7d3f2ba6af25cbb54d2fd333d2077b3444b989f99811bd0f0030a5ec40556910160405180910390a350613629565b6001600160a01b038086165f908152600860209081526040808320938816835292905290812080548592906135d7908490613f86565b9091555050604080518481525f6020820181905292506001600160a01b0380871692908816917fc0c7d3f2ba6af25cbb54d2fd333d2077b3444b989f99811bd0f0030a5ec40556910160405180910390a35b949350505050565b600280546001600160a01b0319169055610bfe816138e0565b6040516001600160a01b03808516602483015283166044820152606481018290526116c09085906323b872dd60e01b90608401613373565b5f5f82516041036136b6576020830151604084015160608501515f1a6136aa87828585613931565b945094505050506136bd565b505f905060025b9250929050565b5f8160048111156136d7576136d7613b22565b036136df5750565b60018160048111156136f3576136f3613b22565b036137405760405162461bcd60e51b815260206004820152601860248201527f45434453413a20696e76616c6964207369676e617475726500000000000000006044820152606401610534565b600281600481111561375457613754613b22565b036137a15760405162461bcd60e51b815260206004820152601f60248201527f45434453413a20696e76616c6964207369676e6174757265206c656e677468006044820152606401610534565b60038160048111156137b5576137b5613b22565b03610bfe5760405162461bcd60e51b815260206004820152602260248201527f45434453413a20696e76616c6964207369676e6174757265202773272076616c604482015261756560f01b6064820152608401610534565b5f613861826040518060400160405280602081526020017f5361666545524332303a206c6f772d6c6576656c2063616c6c206661696c6564815250856001600160a01b03166139ee9092919063ffffffff16565b905080515f1480613881575080806020019051810190613881919061417c565b6133aa5760405162461bcd60e51b815260206004820152602a60248201527f5361666545524332303a204552433230206f7065726174696f6e20646964206e6044820152691bdd081cdd58d8d9595960b21b6064820152608401610534565b600180546001600160a01b038381166001600160a01b0319831681179093556040519116919082907f8be0079c531659141344cd1fd0a4f28419497f9722a3daafe3b4186f6b6457e0905f90a35050565b5f807f7fffffffffffffffffffffffffffffff5d576e7357a4501ddfe92f46681b20a083111561396657505f905060036139e5565b604080515f8082526020820180845289905260ff881692820192909252606081018690526080810185905260019060a0016020604051602081039080840390855afa1580156139b7573d5f5f3e3d5ffd5b5050604051601f1901519150506001600160a01b0381166139df575f600192509250506139e5565b91505f90505b94509492505050565b606061362984845f85855f5f866001600160a01b03168587604051613a139190614197565b5f6040518083038185875af1925050503d805f8114613a4d576040519150601f19603f3d011682016040523d82523d5f602084013e613a52565b606091505b5091509150613a6387838387613a6e565b979650505050505050565b60608315613adc5782515f03613ad5576001600160a01b0385163b613ad55760405162461bcd60e51b815260206004820152601d60248201527f416464726573733a2063616c6c20746f206e6f6e2d636f6e74726163740000006044820152606401610534565b5081613629565b6136298383815115613af15781518083602001fd5b8060405162461bcd60e51b815260040161053491906141ad565b5f60208284031215613b1b575f5ffd5b5035919050565b634e487b7160e01b5f52602160045260245ffd5b60078110613b5257634e487b7160e01b5f52602160045260245ffd5b9052565b6001600160a01b038c811682528b811660208301528a81166040830152891660608201526080810188905260a0810187905260c0810186905260e081018590526101608101613ba9610100830186613b36565b921515610120820152901515610140909101529998505050505050505050565b5f5f83601f840112613bd9575f5ffd5b50813567ffffffffffffffff811115613bf0575f5ffd5b6020830191508360208285010111156136bd575f5ffd5b5f5f5f5f5f60808688031215613c1b575f5ffd5b85359450602086013567ffffffffffffffff811115613c38575f5ffd5b613c4488828901613bc9565b9699909850959660408101359660609091013595509350505050565b80356001600160a01b0381168114613c76575f5ffd5b919050565b5f60208284031215613c8b575f5ffd5b613c9482613c60565b9392505050565b5f5f5f5f60608587031215613cae575f5ffd5b84359350602085013560048110613cc3575f5ffd5b9250604085013567ffffffffffffffff811115613cde575f5ffd5b613cea87828801613bc9565b95989497509550505050565b803560078110613c76575f5ffd5b5f5f5f5f60608587031215613d17575f5ffd5b84359350613cc360208601613cf6565b8015158114610bfe575f5ffd5b5f5f60408385031215613d45575f5ffd5b613d4e83613c60565b91506020830135613d5e81613d27565b809150509250929050565b5f5f60408385031215613d7a575f5ffd5b613d8383613c60565b9150613d9160208401613c60565b90509250929050565b5f5f5f5f5f5f5f5f5f60e08a8c031215613db2575f5ffd5b613dbb8a613c60565b9850613dc960208b01613c60565b975060408a0135965060608a01359550613de560808b01613c60565b945060a08a013567ffffffffffffffff811115613e00575f5ffd5b613e0c8c828d01613bc9565b90955093505060c08a013567ffffffffffffffff811115613e2b575f5ffd5b613e378c828d01613bc9565b915080935050809150509295985092959850929598565b5f5f60408385031215613e5f575f5ffd5b82359150613d9160208401613c60565b5f5f5f5f5f5f60a08789031215613e84575f5ffd5b86359550602087013567ffffffffffffffff811115613ea1575f5ffd5b613ead89828a01613bc9565b9096509450613ec0905060408801613cf6565b959894975092956060810135946080909101359350915050565b6020808252601f908201527f4e6f742061206275796572206f722073656c6c657220696e20657363726f7700604082015260600190565b60208082526010908201526f496e76616c696420646561646c696e6560801b604082015260600190565b6020808252601e908201527f446561646c696e65206d75737420626520696e20746865206675747572650000604082015260600190565b634e487b7160e01b5f52601160045260245ffd5b808201808211156132e7576132e7613f72565b6020808252601f908201527f446561646c696e652065786365656473206d6178696d756d2077696e646f7700604082015260600190565b6020808252601590820152744e6f74204157414954494e475f44454c495645525960581b604082015260600190565b5f6001820161401057614010613f72565b5060010190565b5f60208284031215614027575f5ffd5b5051919050565b80820281158282048414176132e7576132e7613f72565b5f8261405f57634e487b7160e01b5f52601260045260245ffd5b500490565b818103818111156132e7576132e7613f72565b81835281816020850137505f828201602090810191909152601f909101601f19169091010190565b604081525f6140b2604083018587614077565b9050826020830152949350505050565b60208082526012908201527113db9b1e48189d5e595c88185b1b1bddd95960721b604082015260600190565b608081016140fc8287613b36565b6001600160a01b039490941660208201526040810192909252606090910152919050565b6001600160a01b03898116825260208201899052871660408201526060810186905260c0608082018190525f9061415a9083018688614077565b82810360a084015261416d818587614077565b9b9a5050505050505050505050565b5f6020828403121561418c575f5ffd5b8151613c9481613d27565b5f82518060208501845e5f920191825250919050565b602081525f82518060208401528060208501604085015e5f604082850101526040601f19601f8301168401019150509291505056fea2646970667358221220b5d90f506222309873d8139f2a7487e100fe114decee7ade3904e1e3b6c9a9ce64736f6c634300081d0033",
  "linkReferences": {},
  "deployedLinkReferences": {},
  "immutableReferences": {},
  "inputSourceName": "project/contracts/PalindromeCryptoEscrow.sol",
  "buildInfoId": "solc-0_8_29-832798f28ffb23d9e597483e65dfe984771195c7"
}