{"abi":[{"type":"constructor","inputs":[{"name":"_feeReceiver","type":"address","internalType":"address"}],"stateMutability":"nonpayable"},{"type":"function","name":"DISPUTE_LONG_TIMEOUT","inputs":[],"outputs":[{"name":"","type":"uint256","internalType":"uint256"}],"stateMutability":"view"},{"type":"function","name":"DOMAIN_SEPARATOR","inputs":[],"outputs":[{"name":"","type":"bytes32","internalType":"bytes32"}],"stateMutability":"view"},{"type":"function","name":"FEE_RECEIVER","inputs":[],"outputs":[{"name":"","type":"address","internalType":"address"}],"stateMutability":"view"},{"type":"function","name":"TIMEOUT_BUFFER","inputs":[],"outputs":[{"name":"","type":"uint256","internalType":"uint256"}],"stateMutability":"view"},{"type":"function","name":"WALLET_BYTECODE_HASH","inputs":[],"outputs":[{"name":"","type":"bytes32","internalType":"bytes32"}],"stateMutability":"view"},{"type":"function","name":"acceptEscrow","inputs":[{"name":"escrowId","type":"uint256","internalType":"uint256"},{"name":"sellerWalletSig","type":"bytes","internalType":"bytes"}],"outputs":[],"stateMutability":"nonpayable"},{"type":"function","name":"autoRelease","inputs":[{"name":"escrowId","type":"uint256","internalType":"uint256"}],"outputs":[],"stateMutability":"nonpayable"},{"type":"function","name":"cancelByTimeout","inputs":[{"name":"escrowId","type":"uint256","internalType":"uint256"}],"outputs":[],"stateMutability":"nonpayable"},{"type":"function","name":"computeWalletAddress","inputs":[{"name":"escrowId","type":"uint256","internalType":"uint256"}],"outputs":[{"name":"predicted","type":"address","internalType":"address"}],"stateMutability":"view"},{"type":"function","name":"confirmDelivery","inputs":[{"name":"escrowId","type":"uint256","internalType":"uint256"},{"name":"buyerWalletSig","type":"bytes","internalType":"bytes"}],"outputs":[],"stateMutability":"nonpayable"},{"type":"function","name":"confirmDeliverySigned","inputs":[{"name":"escrowId","type":"uint256","internalType":"uint256"},{"name":"coordSignature","type":"bytes","internalType":"bytes"},{"name":"deadline","type":"uint256","internalType":"uint256"},{"name":"nonce","type":"uint256","internalType":"uint256"},{"name":"buyerWalletSig","type":"bytes","internalType":"bytes"}],"outputs":[],"stateMutability":"nonpayable"},{"type":"function","name":"createEscrow","inputs":[{"name":"token","type":"address","internalType":"address"},{"name":"buyer","type":"address","internalType":"address"},{"name":"amount","type":"uint256","internalType":"uint256"},{"name":"maturityTimeDays","type":"uint256","internalType":"uint256"},{"name":"arbiter","type":"address","internalType":"address"},{"name":"title","type":"string","internalType":"string"},{"name":"ipfsHash","type":"string","internalType":"string"},{"name":"sellerWalletSig","type":"bytes","internalType":"bytes"}],"outputs":[{"name":"","type":"uint256","internalType":"uint256"}],"stateMutability":"nonpayable"},{"type":"function","name":"createEscrowAndDeposit","inputs":[{"name":"token","type":"address","internalType":"address"},{"name":"seller","type":"address","internalType":"address"},{"name":"amount","type":"uint256","internalType":"uint256"},{"name":"maturityTimeDays","type":"uint256","internalType":"uint256"},{"name":"arbiter","type":"address","internalType":"address"},{"name":"title","type":"string","internalType":"string"},{"name":"ipfsHash","type":"string","internalType":"string"},{"name":"buyerWalletSig","type":"bytes","internalType":"bytes"}],"outputs":[{"name":"escrowId","type":"uint256","internalType":"uint256"}],"stateMutability":"nonpayable"},{"type":"function","name":"deposit","inputs":[{"name":"escrowId","type":"uint256","internalType":"uint256"},{"name":"buyerWalletSig","type":"bytes","internalType":"bytes"}],"outputs":[],"stateMutability":"nonpayable"},{"type":"function","name":"disputeStatus","inputs":[{"name":"","type":"uint256","internalType":"uint256"}],"outputs":[{"name":"","type":"uint256","internalType":"uint256"}],"stateMutability":"view"},{"type":"function","name":"getEscrow","inputs":[{"name":"escrowId","type":"uint256","internalType":"uint256"}],"outputs":[{"name":"","type":"tuple","internalType":"struct PalindromePay.EscrowDeal","components":[{"name":"token","type":"address","internalType":"address"},{"name":"buyer","type":"address","internalType":"address"},{"name":"seller","type":"address","internalType":"address"},{"name":"arbiter","type":"address","internalType":"address"},{"name":"wallet","type":"address","internalType":"address"},{"name":"amount","type":"uint256","internalType":"uint256"},{"name":"depositTime","type":"uint256","internalType":"uint256"},{"name":"maturityTime","type":"uint256","internalType":"uint256"},{"name":"disputeStartTime","type":"uint256","internalType":"uint256"},{"name":"state","type":"uint8","internalType":"enum PalindromePay.State"},{"name":"buyerCancelRequested","type":"bool","internalType":"bool"},{"name":"sellerCancelRequested","type":"bool","internalType":"bool"},{"name":"tokenDecimals","type":"uint8","internalType":"uint8"},{"name":"sellerWalletSig","type":"bytes","internalType":"bytes"},{"name":"buyerWalletSig","type":"bytes","internalType":"bytes"},{"name":"arbiterWalletSig","type":"bytes","internalType":"bytes"}]}],"stateMutability":"view"},{"type":"function","name":"getNonceBitmap","inputs":[{"name":"escrowId","type":"uint256","internalType":"uint256"},{"name":"signer","type":"address","internalType":"address"},{"name":"wordIndex","type":"uint256","internalType":"uint256"}],"outputs":[{"name":"","type":"uint256","internalType":"uint256"}],"stateMutability":"view"},{"type":"function","name":"getWalletAuthorizationDigest","inputs":[{"name":"escrowId","type":"uint256","internalType":"uint256"},{"name":"participant","type":"address","internalType":"address"}],"outputs":[{"name":"digest","type":"bytes32","internalType":"bytes32"}],"stateMutability":"view"},{"type":"function","name":"nextEscrowId","inputs":[],"outputs":[{"name":"","type":"uint256","internalType":"uint256"}],"stateMutability":"view"},{"type":"function","name":"requestCancel","inputs":[{"name":"escrowId","type":"uint256","internalType":"uint256"},{"name":"walletSig","type":"bytes","internalType":"bytes"}],"outputs":[],"stateMutability":"nonpayable"},{"type":"function","name":"startDispute","inputs":[{"name":"escrowId","type":"uint256","internalType":"uint256"}],"outputs":[],"stateMutability":"nonpayable"},{"type":"function","name":"startDisputeSigned","inputs":[{"name":"escrowId","type":"uint256","internalType":"uint256"},{"name":"signature","type":"bytes","internalType":"bytes"},{"name":"deadline","type":"uint256","internalType":"uint256"},{"name":"nonce","type":"uint256","internalType":"uint256"}],"outputs":[],"stateMutability":"nonpayable"},{"type":"function","name":"submitArbiterDecision","inputs":[{"name":"escrowId","type":"uint256","internalType":"uint256"},{"name":"resolution","type":"uint8","internalType":"enum PalindromePay.State"},{"name":"ipfsHash","type":"string","internalType":"string"},{"name":"arbiterWalletSig","type":"bytes","internalType":"bytes"}],"outputs":[],"stateMutability":"nonpayable"},{"type":"function","name":"submitDisputeMessage","inputs":[{"name":"escrowId","type":"uint256","internalType":"uint256"},{"name":"role","type":"uint8","internalType":"enum PalindromePay.Role"},{"name":"ipfsHash","type":"string","internalType":"string"}],"outputs":[],"stateMutability":"nonpayable"},{"type":"event","name":"ArbiterWalletSigAttached","inputs":[{"name":"escrowId","type":"uint256","indexed":true,"internalType":"uint256"},{"name":"arbiterSig","type":"bytes","indexed":false,"internalType":"bytes"}],"anonymous":false},{"type":"event","name":"AutoReleased","inputs":[{"name":"escrowId","type":"uint256","indexed":true,"internalType":"uint256"},{"name":"seller","type":"address","indexed":true,"internalType":"address"},{"name":"amount","type":"uint256","indexed":false,"internalType":"uint256"},{"name":"fee","type":"uint256","indexed":false,"internalType":"uint256"}],"anonymous":false},{"type":"event","name":"BuyerWalletSigAttached","inputs":[{"name":"escrowId","type":"uint256","indexed":true,"internalType":"uint256"},{"name":"buyerSig","type":"bytes","indexed":false,"internalType":"bytes"}],"anonymous":false},{"type":"event","name":"Canceled","inputs":[{"name":"escrowId","type":"uint256","indexed":true,"internalType":"uint256"},{"name":"initiator","type":"address","indexed":true,"internalType":"address"},{"name":"amount","type":"uint256","indexed":false,"internalType":"uint256"}],"anonymous":false},{"type":"event","name":"DeliveryConfirmed","inputs":[{"name":"escrowId","type":"uint256","indexed":true,"internalType":"uint256"},{"name":"buyer","type":"address","indexed":true,"internalType":"address"},{"name":"seller","type":"address","indexed":true,"internalType":"address"},{"name":"amount","type":"uint256","indexed":false,"internalType":"uint256"},{"name":"fee","type":"uint256","indexed":false,"internalType":"uint256"}],"anonymous":false},{"type":"event","name":"DisputeDeadlinesSet","inputs":[{"name":"escrowId","type":"uint256","indexed":true,"internalType":"uint256"},{"name":"longDeadline","type":"uint256","indexed":false,"internalType":"uint256"}],"anonymous":false},{"type":"event","name":"DisputeMessagePosted","inputs":[{"name":"escrowId","type":"uint256","indexed":true,"internalType":"uint256"},{"name":"sender","type":"address","indexed":true,"internalType":"address"},{"name":"role","type":"uint8","indexed":false,"internalType":"enum PalindromePay.Role"},{"name":"ipfsHash","type":"string","indexed":false,"internalType":"string"}],"anonymous":false},{"type":"event","name":"DisputeResolved","inputs":[{"name":"escrowId","type":"uint256","indexed":true,"internalType":"uint256"},{"name":"resolution","type":"uint8","indexed":false,"internalType":"enum PalindromePay.State"},{"name":"arbiter","type":"address","indexed":false,"internalType":"address"},{"name":"amount","type":"uint256","indexed":false,"internalType":"uint256"},{"name":"fee","type":"uint256","indexed":false,"internalType":"uint256"}],"anonymous":false},{"type":"event","name":"DisputeStarted","inputs":[{"name":"escrowId","type":"uint256","indexed":true,"internalType":"uint256"},{"name":"initiator","type":"address","indexed":true,"internalType":"address"}],"anonymous":false},{"type":"event","name":"EscrowCreated","inputs":[{"name":"escrowId","type":"uint256","indexed":true,"internalType":"uint256"},{"name":"buyer","type":"address","indexed":true,"internalType":"address"},{"name":"seller","type":"address","indexed":true,"internalType":"address"},{"name":"token","type":"address","indexed":false,"internalType":"address"},{"name":"amount","type":"uint256","indexed":false,"internalType":"uint256"},{"name":"arbiter","type":"address","indexed":false,"internalType":"address"},{"name":"maturityTime","type":"uint256","indexed":false,"internalType":"uint256"},{"name":"title","type":"string","indexed":false,"internalType":"string"},{"name":"ipfsHash","type":"string","indexed":false,"internalType":"string"}],"anonymous":false},{"type":"event","name":"EscrowCreatedAndDeposited","inputs":[{"name":"escrowId","type":"uint256","indexed":true,"internalType":"uint256"},{"name":"buyer","type":"address","indexed":true,"internalType":"address"},{"name":"amount","type":"uint256","indexed":false,"internalType":"uint256"}],"anonymous":false},{"type":"event","name":"PaymentDeposited","inputs":[{"name":"escrowId","type":"uint256","indexed":true,"internalType":"uint256"},{"name":"buyer","type":"address","indexed":true,"internalType":"address"},{"name":"amount","type":"uint256","indexed":false,"internalType":"uint256"}],"anonymous":false},{"type":"event","name":"PayoutProposed","inputs":[{"name":"escrowId","type":"uint256","indexed":true,"internalType":"uint256"},{"name":"recipient","type":"address","indexed":false,"internalType":"address"},{"name":"netAmount","type":"uint256","indexed":false,"internalType":"uint256"},{"name":"feeRecipient","type":"address","indexed":false,"internalType":"address"},{"name":"feeAmount","type":"uint256","indexed":false,"internalType":"uint256"}],"anonymous":false},{"type":"event","name":"RequestCancel","inputs":[{"name":"escrowId","type":"uint256","indexed":true,"internalType":"uint256"},{"name":"requester","type":"address","indexed":true,"internalType":"address"}],"anonymous":false},{"type":"event","name":"SellerAccepted","inputs":[{"name":"escrowId","type":"uint256","indexed":true,"internalType":"uint256"},{"name":"seller","type":"address","indexed":true,"internalType":"address"}],"anonymous":false},{"type":"event","name":"SellerWalletSigAttached","inputs":[{"name":"escrowId","type":"uint256","indexed":true,"internalType":"uint256"},{"name":"sellerSig","type":"bytes","indexed":false,"internalType":"bytes"}],"anonymous":false},{"type":"event","name":"SellerWalletSigUpdated","inputs":[{"name":"escrowId","type":"uint256","indexed":true,"internalType":"uint256"},{"name":"sellerSig","type":"bytes","indexed":false,"internalType":"bytes"}],"anonymous":false},{"type":"event","name":"StateChanged","inputs":[{"name":"escrowId","type":"uint256","indexed":true,"internalType":"uint256"},{"name":"oldState","type":"uint8","indexed":false,"internalType":"enum PalindromePay.State"},{"name":"newState","type":"uint8","indexed":true,"internalType":"enum PalindromePay.State"}],"anonymous":false},{"type":"event","name":"WalletCreated","inputs":[{"name":"escrowId","type":"uint256","indexed":true,"internalType":"uint256"},{"name":"wallet","type":"address","indexed":true,"internalType":"address"}],"anonymous":false},{"type":"error","name":"InvalidNonce","inputs":[]},{"type":"error","name":"InvalidWalletSignature","inputs":[]},{"type":"error","name":"NotParticipant","inputs":[]},{"type":"error","name":"OnlyArbiter","inputs":[]},{"type":"error","name":"OnlyBuyer","inputs":[]},{"type":"error","name":"OnlyBuyerOrSeller","inputs":[]},{"type":"error","name":"OnlySeller","inputs":[]},{"type":"error","name":"SignatureAlreadyUsed","inputs":[]},{"type":"error","name":"SignatureLengthInvalid","inputs":[]},{"type":"error","name":"SignatureSInvalid","inputs":[]},{"type":"error","name":"SignatureVInvalid","inputs":[]}],"bytecode":{"object":"0x61010080604052346101af5760208161750b803803809161002082856101b3565b8339810103126101af57516001600160a01b0381168082036101af5760015f551561017d576080524660e05260405161005a6040826101b3565b600d81526c50616c696e64726f6d6550617960981b602090910152604080517fafad4e164a3495a77e9cd6cc3b76ca3aa2b79f9ddc70f34392e4b3d17237f7d7916100a590826101b3565b600181526020810190603160f81b82525190206040519060208201927f8b73c3c69bb8fe3d512ecc4cf759cc79239f7b179b0ffacaa9a75d522b39400f8452604083015260608201524660808201523060a082015260a0815261010960c0826101b3565b51902060c05261163360405161012260208301826101b3565b8181526020810191615ed8833951902060a052604051615ced90816101eb82396080518181816104d6015281816124eb0152818161425201526142e7015260a05181611731015260c051816139a2015260e0518161397c0152f35b60405162461bcd60e51b815260206004820152600a602482015269466565546f207a65726f60b01b6044820152606490fd5b5f80fd5b601f909101601f19168101906001600160401b038211908210176101d657604052565b634e487b7160e01b5f52604160045260245ffdfe6101006040526004361015610012575f80fd5b5f3560e01c806306075a1514612c7557806310f169e814612c4b5780631452483b14612c2e5780632d34515b146127c15780632d471a50146121855780632f9bfda214611d1d578063311a2e55146118f95780633644e515146118d75780634186928c146118bb578063459b860e14611754578063589ac8e31461171a5780635d303519146114bd5780636232ef6014611266578063708f65ca1461103c5780637d19e59614610d9957806383504156146108fd57806389cb29dd146108e05780639dede53c14610890578063c0cfa7e514610769578063c37775a314610505578063d3e78e4d146104c1578063d4ffbee41461034f578063da183b02146101565763e471d9a314610122575f80fd5b34610152576020366003190112610152576020610140600435613e17565b6040516001600160a01b039091168152f35b5f80fd5b346101525760203660031901126101525760043561017261380a565b61017b8161385e565b61018481614315565b805f52600260205260405f20600981015460ff8116600681101561033b5760016101ae91146134d5565b6101bc600883015415613519565b60ff8160081c16156103015760101c60ff166102c7576101e160068201541515613556565b60038101546001600160a01b031615610276578061020660076005930154421161358f565b61021e6041610218600b8401546133ab565b14613454565b61022783613bf9565b600181015461023f906001600160a01b0316846142a6565b50500154906040519182527feb8b5b87fbea5b732b8f4fd82b65d9afef713c799d98da83090f22c45577998d60203393a360015f55005b60405162461bcd60e51b815260206004820152602360248201527f4172626974657220726571756972656420666f722074696d656f75742063616e60448201526218d95b60ea1b6064820152608490fd5b60405162461bcd60e51b81526020600482015260126024820152714d757475616c2063616e63656c20646f6e6560701b6044820152606490fd5b60405162461bcd60e51b8152602060048201526012602482015271135d5cdd081c995c5d595cdd08199a5c9cdd60721b6044820152606490fd5b634e487b7160e01b5f52602160045260245ffd5b346101525760403660031901126101525760043561036b612f0f565b906103758161385e565b5f81815260026020526040902060018101549092906001600160a01b03808316911681149081156104aa575b8115610493575b501561045a5761044f61040f92610401926104266020966103c7613726565b8881519101206103d5613757565b89815191012091600460018060a01b03910154169788916104016040519384928d840196469188613776565b03601f1981018352826130e1565b519020956104016040519384928a840196876137c2565b5190206040519283918683019586909160429261190160f01b8352600283015260228201520190565b519020604051908152f35b60405162461bcd60e51b8152602060048201526011602482015270139bdd0818481c185c9d1a58da5c185b9d607a1b6044820152606490fd5b60038501546001600160a01b0316149050846103a8565b60028501546001600160a01b0316811491506103a1565b34610152575f366003190112610152576040517f00000000000000000000000000000000000000000000000000000000000000006001600160a01b03168152602090f35b346101525761051336612fdd565b9061051c61380a565b6105258361385e565b61052e83614315565b825f52600260205260405f209160ff600984015416600681101561033b57600161055891146134d5565b610570604161056a600a8601546133ab565b14613494565b600483015461058c9033906001600160a01b0316868486613ef4565b1561075a57600b8301916001600160401b0382116107465784916105b084546133ab565b601f81116106f4575b505f93601f821160011461068257815f516020615c385f395f51905f5294955f91610677575b508260011b905f198460031b1c19161790555b6106096040519283926020845260208401916133e3565b0390a261061582613bc8565b60028101546001600160a01b0316917f8bcf349ab354486b68c142cea7235e4f7f31f6a425466f569c8ac1d5bc4d0007604061065185846141c7565b9050600560018060a01b036001870154169501549082519182526020820152a460015f55005b9050830135886105df565b601f198216815f5260205f20905f5b8181106106d9575095835f516020615c385f395f51905f529697106106c0575b5050600182811b0190556105f2565b8401355f19600385901b60f8161c1916905587806106b1565b8786013583556020978801978a975060019093019201610691565b90919250835f5260205f20601f830160051c8101916020841061073c575b90601f88959493920160051c01905b81811061072e57506105b9565b5f8155879450600101610721565b9091508190610712565b634e487b7160e01b5f52604160045260245ffd5b630f42e6ed60e41b5f5260045ffd5b346101525760203660031901126101525760043561078561380a565b61078e8161385e565b61079781614346565b5f81815260026020526040902060038101546001600160a01b03161561085c5760ff600982015416600681101561033b5760016107d491146134d5565b6107dd82613b57565b60084291015562278d004201804211610848577f1a9502b6f661da8b0573a0617c121cabe2e93ea05d5239cfab6e9d1734b928c960208392604051908152a233907fd658effe7cf013e5a508b3f1a373b92566494d8b6a7c2970fc964932de1c4dab5f80a360015f55005b634e487b7160e01b5f52601160045260245ffd5b60405162461bcd60e51b815260206004820152600c60248201526b2d32b9379030b93134ba32b960a11b6044820152606490fd5b34610152576060366003190112610152576108a9612f0f565b6004355f52600560205260405f209060018060a01b03165f5260205260405f206044355f52602052602060405f2054604051908152f35b34610152575f366003190112610152576020600154604051908152f35b346101525761090b36612fdd565b9061091461380a565b61091d8361385e565b61092683614346565b825f52600260205260405f2090600982019081549360ff8516600681101561033b576001610954911461364c565b61096360068501541515613556565b610971600885015415613519565b600484015461098d9033906001600160a01b0316888486613ef4565b1561075a57600184019460018060a01b0386541633145f14610bec575060ff835460081c16610ba757600b8401916001600160401b0382116107465786916109d584546133ab565b601f8111610b55575b505f93601f8211600114610ae357815f516020615c385f395f51905f5294955f91610ad8575b508260011b905f198460031b1c19161790555b610a2e6040519283926020845260208401916133e3565b0390a2805461ff0019166101001781555b5460ff8160081c169081610aca575b5015610a9d5761023f600592610a6c6041610218600b8601546133ab565b610a7e604161056a600a8601546133ab565b610a8785613bf9565b546001600160a01b0316846142a6565b60015f55005b505033907f88a867d5d9b489598a3f5e5c8d5c1da163ed116737b70444bac744920904a5735f80a3610a97565b60ff915060101c1684610a4e565b90508301358a610a04565b601f198216815f5260205f20905f5b818110610b3a575095835f516020615c385f395f51905f52969710610b21575b5050600182811b019055610a17565b8401355f19600385901b60f8161c191690558980610b12565b8786013583556020978801978c975060019093019201610af2565b90919250835f5260205f20601f830160051c81019160208410610b9d575b90601f8a959493920160051c01905b818110610b8f57506109de565b5f8155899450600101610b82565b9091508190610b73565b60405162461bcd60e51b815260206004820152601760248201527f427579657220616c7265616479207265717565737465640000000000000000006044820152606490fd5b60101c60ff16610d5457600a8401916001600160401b038211610746578691610c1584546133ab565b601f8111610d02575b505f93601f8211600114610c9057815f516020615c185f395f51905f5294955f91610c85575b508260011b905f198460031b1c19161790555b610c6e6040519283926020845260208401916133e3565b0390a2805462ff0000191662010000178155610a3f565b90508301358a610c44565b601f198216815f5260205f20905f5b818110610ce7575095835f516020615c185f395f51905f52969710610cce575b5050600182811b019055610c57565b8401355f19600385901b60f8161c191690558980610cbf565b8786013583556020978801978c975060019093019201610c9f565b90919250835f5260205f20601f830160051c81019160208410610d4a575b90601f8a959493920160051c01905b818110610d3c5750610c1e565b5f8155899450600101610d2f565b9091508190610d20565b60405162461bcd60e51b815260206004820152601860248201527f53656c6c657220616c72656164792072657175657374656400000000000000006044820152606490fd5b346101525760203660031901126101525760043560606101e0604051610dbe816130c5565b5f81525f60208201525f60408201525f838201525f60808201525f60a08201525f60c08201525f60e08201525f6101008201525f6101208201525f6101408201525f6101608201525f610180820152826101a0820152826101c08201520152610e268161385e565b5f52600260205260405f20604051610e3d816130c5565b81546001600160a01b0390811682526001830154811660208301526002830154811660408301526003830154811660608301526004830154166080820152600582015460a082015260068083015460c0830152600783015460e08301526008830154610100830152600983015460ff81169182101561033b576110389360ff600c92610f1994610120870152818160081c161515610140870152818160101c16151561016087015260181c16610180850152610efb600a8201613686565b6101a0850152610f0d600b8201613686565b6101c085015201613686565b6101e08201526040519182916020835260018060a01b03815116602084015260018060a01b03602082015116604084015260018060a01b03604082015116606084015260018060a01b03606082015116608084015260018060a01b0360808201511660a084015260a081015160c084015260c081015160e084015260e0810151610100840152610100810151610120840152610fbf61012082015161014085019061300c565b6101408101511515610160840152610160810151151561018084015260ff610180820151166101a08401526101e061102361100d6101a08401516102006101c0880152610220870190613019565b6101c0840151868203601f190184880152613019565b910151838203601f1901610200850152613019565b0390f35b346101525761104a36612fdd565b9061105361380a565b61105c8361385e565b825f52600260205260405f2061107f60018060a01b0360028301541633146135d2565b60ff600982015416600681101561033b57600161109c911461364c565b60048101546110b89033906001600160a01b0316868686613ef4565b1561075a57600a018054906110cc826133ab565b1515916001600160401b038511610746576110e6906133ab565b601f8111611221575b50835f601f82116001146111bd575f916111b2575b508460011b905f198660031b1c19161790555b1561115e577f9f91c43a9c810c8b0a79dc8dec5c0ed9f7be6ef2090ebde9e83c83fb2bd2ed1b916111556040519283926020845260208401916133e3565b0390a260015f55005b5f516020615c185f395f51905f52916111aa60405192839233877f5b09e2f1aabe74a8fc19114f298046a9fa1214365ec1d728e534a291aff17a4f5f80a36020845260208401916133e3565b0390a2610a97565b905083013586611104565b5f8381526020812092508690601f198216905b8181106112065750106111ed575b5050600184811b019055611117565b8401355f19600387901b60f8161c1916905585806111de565b878401358555600190940193602093840193899350016111d0565b815f5260205f20601f860160051c8101916020871061125c575b601f0160051c01905b81811061125157506110ef565b5f8155600101611244565b909150819061123b565b34610152576060366003190112610152576004356024359060048210918215610152576044356001600160401b038111610152576112a8903690600401612ee2565b91906112b261380a565b6112bb8461385e565b835f52600260205260405f2060018060a01b0360018201541633141590816114a5575b8161148d575b5061147e57835f52600260205260405f2060ff600982015416600681101561033b5760020361144a576113178483613c86565b845f52600660205260405f205490600184145f146113e157600101546001600160a01b031633036113af578061135160018093161561360c565b175b845f52600660205260405f2055604051941561033b577f4e71d2a3ce09c95d708a8bc888cb8838c8419bea1f25f6d07f2c601b173f720e926113a29286526040602087015260408601916133e3565b928033940390a360015f55005b60405162461bcd60e51b815260206004820152600a60248201526927b7363c90313abcb2b960b11b6044820152606490fd5b906002840361141657600291820154611404906001600160a01b031633146135d2565b6114108282161561360c565b17611353565b60405162461bcd60e51b815260206004820152600c60248201526b496e76616c696420726f6c6560a01b6044820152606490fd5b60405162461bcd60e51b815260206004820152600c60248201526b139bdd08191a5cdc1d5d195960a21b6044820152606490fd5b63721c7c6760e11b5f5260045ffd5b600301546001600160a01b03163314159050866112e4565b60028101546001600160a01b031633141591506112de565b34610152576114cb36612fdd565b906114d461380a565b6114dd8361385e565b6114e683614315565b825f52600260205260405f209060ff600983015416600681101561033b576116de576004820180549093906115289033906001600160a01b0316878486613ef4565b1561075a57600b8301916001600160401b03821161074657859161154c84546133ab565b601f811161168c575b505f93601f821160011461161a57815f516020615c385f395f51905f5294955f9161160f575b508260011b905f198460031b1c19161790555b6115a56040519283926020845260208401916133e3565b0390a28054915460058201805490936115cc926001600160a01b039081169133911661406f565b6006429101556115db82613b97565b54906040519182527f71284872bb4c088a81295dff2513729babbccfeda38a8d824bb1a73bcaab494e60203393a360015f55005b90508301358961157b565b601f198216815f5260205f20905f5b818110611671575095835f516020615c385f395f51905f52969710611658575b5050600182811b01905561158e565b8401355f19600385901b60f8161c191690558880611649565b8786013583556020978801978b975060019093019201611629565b90919250835f5260205f20601f830160051c810191602084106116d4575b90601f89959493920160051c01905b8181106116c65750611555565b5f81558894506001016116b9565b90915081906116aa565b60405162461bcd60e51b8152602060048201526014602482015273139bdd08185dd85a5d1a5b99c81c185e5b595b9d60621b6044820152606490fd5b34610152575f3660031901126101525760206040517f00000000000000000000000000000000000000000000000000000000000000008152f35b346101525760203660031901126101525760043561177061380a565b6117798161385e565b5f81815260026020819052604090912001546001600160a01b031633036118ac57805f52600260205260405f2090600982015460ff811690600682101561033b576117c8600160ff93146134d5565b6117d6600885015415613519565b60081c1661186e576117ed60068301541515613556565b6117fc6007830154421161358f565b61180e604161056a600a8501546133ab565b61181781613bc8565b60028201546001600160a01b0316917f489d0b4f43659843daba0a17983382a3e77f5399083ac5405143fcf6806f8ca090604090600561185786866141c7565b92905001549082519182526020820152a360015f55005b60405162461bcd60e51b8152602060048201526016602482015275109d5e595c881c995c5d595cdd19590818d85b98d95b60521b6044820152606490fd5b6342e8fb9360e11b5f5260045ffd5b34610152575f366003190112610152576020604051610e108152f35b34610152575f3660031901126101525760206118f1613979565b604051908152f35b346101525761190736612f25565b60a05260c0529497949293929161191e8186613c2a565b6119288383613c86565b61193c6001600160a01b03871615156131d4565b6001600160a01b03881615611ceb576119606001600160a01b03891633141561320d565b61196b87151561324d565b611978610e438a10613287565b61198186613cd6565b9861199661198e8b613dfd565b8910156132c7565b6001600160a01b038516903382141580611cd8575b6119b490613306565b6001546080526119c5608051613344565b6001556119e5336119d7608051613e17565b60805160a05160c051613ef4565b1561075a576119f560805161402d565b9a6080515f52600260205260405f209260018060a01b038a166001600160601b0360a01b8554161784556001840160018060a01b038d166001600160601b0360a01b8254161790556002840160018060a01b0333166001600160601b0360a01b82541617905560038401906001600160601b0360a01b8254161790556004830160018060a01b038d166001600160601b0360a01b825416179055896005840155611aa26001831015613352565b6201518082029180830462015180149015171561084857611ac6611aec924261303d565b600784015560098301805463ff0000ff191660189290921b63ff00000016919091179055565b6001600160401b0360a0511161074657611b09600a8201546133ab565b601f8111611c8c575b505f601f60a05111600114611bfb57916007611b7d94925f516020615c585f395f51905f52989796945f9060a051611bee575b5060a05160011b905f1960a05160031b1c191617600a8201555b015495604051968796339c60018060a01b03169b6080519b89613403565b0390a460405160805190916001600160a01b0316907f470292d5e9c87e6d5a100a14c56a434c9f25e9e2be1d5efa70c3b5f9aeda505f5f80a3602081525f516020615c185f395f51905f526080519180611bdf6020820160a05160c0516133e3565b0390a260206040516080518152f35b905060c05101358e611b45565b600a82015f5260205f20905f5b60a051601f19168110611c725750611b7d94925f516020615c585f395f51905f52989796949260079260a051601f1960a0511610611c55575b5050600160a051811b01600a820155611b5f565b5f1960f860a05160031b161c199060c05101351690558d80611c41565b90916020600181928560c051013581550193019101611c08565b600a82015f5260205f20601f60a0510160051c810191602060a05110611cce575b601f0160051c01905b818110611cc35750611b12565b5f8155600101611cb6565b9091508190611cad565b506001600160a01b038a168214156119ab565b60405162461bcd60e51b815260206004820152600a6024820152694275796572207a65726f60b01b6044820152606490fd5b346101525760a0366003190112610152576004356024356001600160401b03811161015257611d50903690600401612ee2565b9091604435916064356084356001600160401b03811161015257611d78903690600401612ee2565b91611d8161380a565b611d8a8561385e565b42861180612170575b611d9c9061304a565b845f52600260205260405f209060ff600983015416600681101561033b576001611dc69114613089565b6041850361213757611dd885896138fd565b611de460418514613454565b611dee84846138fd565b600a820154611dfc906133ab565b604114611e0890613494565b6001820197600160a01b6001900389541695600284019688600160a01b60019003895416600160a01b600190036003880154169b600160a01b600190038854169c600589019d8e549060068b0154926040519560208701977f2175432d6c7eab3a2ef5708fc419540c0f4d274cabd17912c92683ed8466b5e989526040880152886060880152608087015260a086015260c085015260e0840152610100830152610120820152856101408201526101408152611ec6610160826130e1565b519020611ed1613979565b60405161190160f01b60208201908152602282019290925260428082019390935291825290611f016062826130e1565b519020611f0f36848661311d565b611f1891614396565b611f21906143c7565b6001600160a01b0316611f35811515613153565b14611f3f90613192565b611f499188613a1e565b8754611f5f91906001600160a01b031687613ade565b600b01916001600160401b0381116107465782611f7d8694546133ab565b601f81116120e3575b505f601f83116001146120485792825f516020615c385f395f51905f5292604096947f8bcf349ab354486b68c142cea7235e4f7f31f6a425466f569c8ac1d5bc4d000798965f9161203d575b508260011b905f198460031b1c19161790555b611ffb86519283926020845260208401916133e3565b0390a261200784613bc8565b546001600160a01b03169461201c86856141c7565b91905060018060a01b0390541694549082519182526020820152a460015f55005b90508301358c611fd2565b601f19831690825f5260205f20915f5b8181106120c85750927f8bcf349ab354486b68c142cea7235e4f7f31f6a425466f569c8ac1d5bc4d00079795928592604098965f516020615c385f395f51905f5296106120af575b5050600182811b019055611fe5565b8401355f19600385901b60f8161c191690558b806120a0565b82870135845589975060019093019260209283019201612058565b9080929394505f5260205f20601f840160051c8101916020851061212d575b90601f8896959493920160051c01905b81811061211f5750611f86565b5f8155879550600101612112565b9091508190612102565b60405162461bcd60e51b81526020600482015260116024820152704d697373696e6720636f6f72642073696760781b6044820152606490fd5b50620151804201804211610848578610611d93565b346101525760803660031901126101525760043560243560068110908115610152576044356001600160401b038111610152576121c6903690600401612ee2565b9190926064356001600160401b038111610152576121e8903690600401612ee2565b9390916121f361380a565b6121fc8761385e565b5f878152600260205260409020600301546001600160a01b031633036127b257865f52600260205260405f209560ff600988015416600681101561033b5760026122469114613089565b5f9360038614968780156127a5575b1561276b57895f52600660205260405f2054600181161515908161275e575b5060088a015462278d008101908181116108485762279b1001809111610848578115612754575b501561270f57895f52600460205260ff60405f2054166126d857895f52600460205260405f20600160ff198254161790556122e53360018060a01b0360048c0154168c8486613ef4565b1561075a57600c8901916001600160401b038211610746578a9161230984546133ab565b601f8111612686575b505f93601f82116001146125f657817f514a487b739611aef8577751109f3612aef90abf478bc73849af4cdd1fa2135a94955f916125eb575b508260011b905f198460031b1c19161790555b6123756040519283926020845260208401916133e3565b0390a2875f526002602052600960405f2001916123978660ff85541694613393565b1561033b576123fc7f4e71d2a3ce09c95d708a8bc888cb8838c8419bea1f25f6d07f2c601b173f720e91868a5f516020615c985f395f51905f52602082976123e2604051809261300c565ba360405194600386526040602087015260408601916133e3565b928033940390a361033b5781156125d75760028301546001600160a01b0316915b845f5260026020528460405f20915f14612594575060ff6009600583015492015460181c16600281115f1461258a576001190160ff81116108485761246190613dec565b6064820282810460641483151715610848576127109004908082106125825750925b8184101561253d57838203918211610848577ffc4c84ff0bf9d937dea068e6c13c3a16c307d76a1c5b5173c40f03f68f421e0094865f516020615c785f395f51905f5260806005948198965b6040519160018060a01b03168252602082015260018060a01b037f0000000000000000000000000000000000000000000000000000000000000000166040820152866060820152a20154612526604051809461300c565b33602084015260408301526060820152a260015f55005b60405162461bcd60e51b815260206004820152601860248201527f416d6f756e7420746f6f20736d616c6c20666f722066656500000000000000006044820152606490fd5b905092612483565b506124615f613dec565b7ffc4c84ff0bf9d937dea068e6c13c3a16c307d76a1c5b5173c40f03f68f421e00946005915f516020615c785f395f51905f526080848198960154955f966124cf565b60018301546001600160a01b03169161241d565b90508301358e61234b565b601f198216815f5260205f20905f5b818110612660575095837f514a487b739611aef8577751109f3612aef90abf478bc73849af4cdd1fa2135a969710612647575b5050600182811b01905561235e565b8401355f19600385901b60f8161c191690558d80612638565b92949693955090602060018192868a013581550194019201908e95939196949296612605565b90919250835f5260205f20601f830160051c810191602084106126ce575b90601f8e959493920160051c01905b8181106126c05750612312565b5f81558d94506001016126b3565b90915081906126a4565b60405162461bcd60e51b815260206004820152600f60248201526e105b1c9958591e48191958da591959608a1b6044820152606490fd5b60405162461bcd60e51b815260206004820152601860248201527f4e6565642065766964656e6365206f722074696d656f757400000000000000006044820152606490fd5b905042118b61229b565b600291501615158b612274565b60405162461bcd60e51b815260206004820152601260248201527124b73b30b634b2103932b9b7b63aba34b7b760711b6044820152606490fd5b505f955060048714612255565b6372cc71e760e11b5f5260045ffd5b34610152576127cf36612f25565b60e0919091529298959793959394916127e661380a565b6127f08a88613c2a565b6127fa8282613c86565b61280e6001600160a01b03861615156131d4565b6001600160a01b03861615612bfb576128326001600160a01b03871633141561320d565b61283d88151561324d565b61284a610e438a10613287565b61285385613cd6565b996128686128608c613dfd565b8a10156132c7565b6001600160a01b038416973389141580612be8575b61288690613306565b6001549a6128938c613344565b6001556128ae338d6128a481613e17565b908a60e051613ef4565b1561075a576128bc8c61402d565b5f8d815260026020819052604090912080546001600160a01b03199081166001600160a01b038d811691909117835560018084018054841633179055938301805483168f83161790556003830180548316909f17909e556004820180549091169d84169d909d17909c5560058c018d9055909d9061293c90831015613352565b6201518082029180830462015180149015171561084857612960612986924261303d565b60078c015560098b01805463ff0000ff191660189290921b63ff00000016919091179055565b6001600160401b038611610746576129a1600b8a01546133ab565b601f8111612ba0575b509260209b95928a9795928c958b5f601f8811600114612ade5795612a8a9c612a3089978e978d978d9760075f516020615c585f395f51905f52985f516020615c385f395f51905f529f612a779f81905f91612ad1575b508160011b915f199060031b1c191617600b8201555b015460405197889760018060a01b03169c339c89613403565b0390a46040519182916001600160a01b038816867f470292d5e9c87e6d5a100a14c56a434c9f25e9e2be1d5efa70c3b5f9aeda505f5f80a38d83528d83019060e0516133e3565b0390a233906001600160a01b031661406f565b600642910155612a9982613b97565b604051908152817f2c39794ba48d965361d6eb56f0d6366313044d1b5b1758c68643d3e3a39a2c4e843393a360015f55604051908152f35b905060e05101355f612a01565b600b829d96959d015f5260205f20905f5b601f198a168110612b6a575095612a308d96612a8a9f8d978d9760075f516020615c585f395f51905f52985f516020615c385f395f51905f529f9d612a779f998f9060019282601f19811610612b4f575b5050811b01600b820155612a17565b60e05101355f19600384901b60f8161c191690555f80612b40565b9395989b9d979a9c509395985060209150600182918560e0510135815501930191018e9794928e9b99969c9a9794928e92612aef565b600b8a015f5260205f20601f880160051c81019160208910612bde575b601f0160051c01905b818110612bd357506129aa565b5f8155600101612bc6565b9091508190612bbd565b506001600160a01b03881689141561287d565b60405162461bcd60e51b815260206004820152600b60248201526a53656c6c6572207a65726f60a81b6044820152606490fd5b34610152575f36600319011261015257602060405162278d008152f35b34610152576020366003190112610152576004355f526006602052602060405f2054604051908152f35b34610152576080366003190112610152576004356024356001600160401b03811161015257612ca8903690600401612ee2565b919060443592606435612cb961380a565b612cc28461385e565b42851180612ecd575b612cd49061304a565b835f52600260205260405f209260ff600985015416600681101561033b57612e5193612e1f92612d096001612e4b9414613089565b612d1382826138fd565b612e4560018060a01b0360018901541699612e178a8c60018060a01b0360028d015416938c600360018060a01b03910154168d60018060a01b0381541660066005830154920154926040519560208701977f3ec4667e1948e2e97f54b4602b6bbfa8f3f98ff1036916ce75d84c59f9558f0289526040880152606087015288608087015260a086015260c085015260e0840152610100830152610120820152896101408201526101408152612dca610160826130e1565b519020610401612e03612ddb613979565b92604051928391602083019586909160429261190160f01b8352600283015260228201520190565b519020612e1136878761311d565b90614396565b9690966143c7565b6001600160a01b0386169a612e358c1515613153565b8b14908115612ec3575b50613192565b87613a1e565b84613ade565b612e5a82613b57565b60084291015562278d004201804211610848577f1a9502b6f661da8b0573a0617c121cabe2e93ea05d5239cfab6e9d1734b928c960208392604051908152a27fd658effe7cf013e5a508b3f1a373b92566494d8b6a7c2970fc964932de1c4dab5f80a360015f55005b90508a148b612e3f565b50620151804201804211610848578510612ccb565b9181601f84011215610152578235916001600160401b038311610152576020838186019501011161015257565b602435906001600160a01b038216820361015257565b90610100600319830112610152576004356001600160a01b038116810361015257916024356001600160a01b0381168103610152579160443591606435916084356001600160a01b0381168103610152579160a4356001600160401b0381116101525781612f9591600401612ee2565b9290929160c4356001600160401b0381116101525781612fb791600401612ee2565b9290929160e435906001600160401b03821161015257612fd991600401612ee2565b9091565b9060406003198301126101525760043591602435906001600160401b03821161015257612fd991600401612ee2565b90600682101561033b5752565b805180835260209291819084018484015e5f828201840152601f01601f1916010190565b9190820180921161084857565b1561305157565b60405162461bcd60e51b815260206004820152601060248201526f496e76616c696420646561646c696e6560801b6044820152606490fd5b1561309057565b60405162461bcd60e51b815260206004820152600d60248201526c496e76616c696420737461746560981b6044820152606490fd5b61020081019081106001600160401b0382111761074657604052565b90601f801991011681019081106001600160401b0382111761074657604052565b6001600160401b03811161074657601f01601f191660200190565b92919261312982613102565b9161313760405193846130e1565b829481845281830111610152578281602093845f960137010152565b1561315a57565b60405162461bcd60e51b815260206004820152601060248201526f496e76616c6964207265636f7665727960801b6044820152606490fd5b1561319957565b60405162461bcd60e51b81526020600482015260136024820152722ab730baba3437b934bd32b21039b4b3b732b960691b6044820152606490fd5b156131db57565b60405162461bcd60e51b815260206004820152600a602482015269546f6b656e207a65726f60b01b6044820152606490fd5b1561321457565b60405162461bcd60e51b815260206004820152601160248201527042757965722073656c6c65722073616d6560781b6044820152606490fd5b1561325457565b60405162461bcd60e51b815260206004820152600b60248201526a416d6f756e74207a65726f60a81b6044820152606490fd5b1561328e57565b60405162461bcd60e51b81526020600482015260116024820152704d6174757269747920746f6f206c6f6e6760781b6044820152606490fd5b156132ce57565b60405162461bcd60e51b815260206004820152601060248201526f105b5bdd5b9d081d1bdbc81cdb585b1b60821b6044820152606490fd5b1561330d57565b60405162461bcd60e51b815260206004820152600f60248201526e24b73b30b634b21030b93134ba32b960891b6044820152606490fd5b5f1981146108485760010190565b1561335957565b60405162461bcd60e51b81526020600482015260126024820152714d696e203120646179206d6174757269747960701b6044820152606490fd5b90600681101561033b5760ff80198354169116179055565b90600182811c921680156133d9575b60208310146133c557565b634e487b7160e01b5f52602260045260245ffd5b91607f16916133ba565b908060209392818452848401375f828201840152601f01601f1916010190565b969492613451989692613443959260018060a01b03168952602089015260018060a01b03166040880152606087015260c0608087015260c08601916133e3565b9260a08185039101526133e3565b90565b1561345b57565b60405162461bcd60e51b81526020600482015260116024820152704d697373696e672062757965722073696760781b6044820152606490fd5b1561349b57565b60405162461bcd60e51b81526020600482015260126024820152714d697373696e672073656c6c65722073696760701b6044820152606490fd5b156134dc57565b60405162461bcd60e51b81526020600482015260156024820152744e6f74206177616974696e672064656c697665727960581b6044820152606490fd5b1561352057565b60405162461bcd60e51b815260206004820152600e60248201526d446973707574652061637469766560901b6044820152606490fd5b1561355d57565b60405162461bcd60e51b815260206004820152600a602482015269139bc819195c1bdcda5d60b21b6044820152606490fd5b1561359657565b60405162461bcd60e51b815260206004820152601460248201527313585d1d5c9a5d1e481b9bdd081c995858da195960621b6044820152606490fd5b156135d957565b60405162461bcd60e51b815260206004820152600b60248201526a27b7363c9039b2b63632b960a91b6044820152606490fd5b1561361357565b60405162461bcd60e51b8152602060048201526011602482015270105b1c9958591e481cdd589b5a5d1d1959607a1b6044820152606490fd5b1561365357565b60405162461bcd60e51b815260206004820152600b60248201526a57726f6e6720737461746560a81b6044820152606490fd5b9060405191825f825492613699846133ab565b808452936001811690811561370457506001146136c0575b506136be925003836130e1565b565b90505f9291925260205f20905f915b8183106136e85750509060206136be928201015f6136b1565b60209193508060019154838589010152019101909184926136cf565b9050602092506136be94915060ff191682840152151560051b8201015f6136b1565b604051906137356040836130e1565b601382527214185b1a5b991c9bdb5954185e55d85b1b195d606a1b6020830152565b604051906137666040836130e1565b60018252603160f81b6020830152565b926080929594919560a08501967f8b73c3c69bb8fe3d512ecc4cf759cc79239f7b179b0ffacaa9a75d522b39400f865260208601526040850152606084015260018060a01b0316910152565b7f783cf3fdc83d5b0c9e236f4e0bfa8f022a2090d21a4c53f5f99df0d607781fa1815260208101919091526001600160a01b0391821660408201529116606082015260800190565b60025f54146138195760025f55565b60405162461bcd60e51b815260206004820152601f60248201527f5265656e7472616e637947756172643a207265656e7472616e742063616c6c006044820152606490fd5b6001548110156138c0575f908152600260205260409020600101546001600160a01b03161561388957565b60405162461bcd60e51b815260206004820152600f60248201526e139bdd081a5b9a5d1a585b1a5e9959608a1b6044820152606490fd5b60405162461bcd60e51b8152602060048201526015602482015274115cd8dc9bddc8191bd95cc81b9bdd08195e1a5cdd605a1b6044820152606490fd5b9060410361396a576fa2a8918ca85bafe22016d0b997e4df60600160ff1b03602060408301355f1a9201351161395b57601b811415908161394f575b5061394057565b6307839aef60e21b5f5260045ffd5b601c915014155f613939565b6354b34b0360e01b5f5260045ffd5b6354f3472360e01b5f5260045ffd5b467f0000000000000000000000000000000000000000000000000000000000000000036139c4577f000000000000000000000000000000000000000000000000000000000000000090565b600d60206040516139d66040826130e1565b828152016c50616c696e64726f6d6550617960981b815220610401613a186139fc613757565b6020815191012060405192839160208301953091469188613776565b51902090565b9160410361396a57602081013560408201355f1a6fa2a8918ca85bafe22016d0b997e4df60600160ff1b03821161395b57601b8114159081613ad2575b50613940576040519160208301933060601b85526034840152356054830152607482015246609482015260948152613a9460b4826130e1565b519020805f52600360205260ff60405f205416613ac3575f52600360205260405f20600160ff19825416179055565b63900bb2c960e01b5f5260045ffd5b601c915014155f613a5b565b91908160081c90835f52600560205260405f2060018060a01b0382165f5260205260405f20825f52602052600160ff60405f205494161b93848416613b48575f52600560205260405f209060018060a01b03165f5260205260405f20905f526020521760405f2055565b633ab3447f60e11b5f5260045ffd5b600290805f52816020525f516020615c985f395f51905f526020600960405f2001613b878560ff83541692613393565b613b94604051809261300c565ba3565b600190805f5260026020525f516020615c985f395f51905f526020600960405f2001613b878560ff83541692613393565b600390805f5260026020525f516020615c985f395f51905f526020600960405f2001613b878560ff83541692613393565b600590805f5260026020525f516020615c985f395f51905f526020600960405f2001613b878560ff83541692613393565b508015159081613c79575b5015613c3d57565b60405162461bcd60e51b8152602060048201526014602482015273092dcecc2d8d2c840e8d2e8d8ca40d8cadccee8d60631b6044820152606490fd5b6101f4915011155f613c35565b506101f410613c9157565b60405162461bcd60e51b815260206004820152601860248201527f496e76616c696420495046532068617368206c656e67746800000000000000006044820152606490fd5b60405163313ce56760e01b815290602090829060049082906001600160a01b0316617530fa5f9181613dae575b50613d4d5760405162461bcd60e51b815260206004820152601f60248201527f546f6b656e206d75737420696d706c656d656e7420646563696d616c732829006044820152606490fd5b60ff811660068110159081613da2575b5015613d665790565b60405162461bcd60e51b8152602060048201526014602482015273556e737570706f7274656420646563696d616c7360601b6044820152606490fd5b6012915011155f613d5d565b9091506020813d602011613de4575b81613dca602093836130e1565b81010312610152575160ff8116810361015257905f613d03565b3d9150613dbd565b60ff16604d811161084857600a0a90565b613e0690613dec565b80600a0290600a8204036108485790565b604051602081019082825260208152613e316040826130e1565b5190206040519091613eae611633613e4c60208201856130e1565b80845260208401906145e5823960408051306020808301918252828401969096529181529390613e7d6060866130e1565b60405194859383850197518091895e840190838201905f8252519283915e01015f815203601f1981018352826130e1565b5190209060405191602083019160ff60f81b83523060601b60218501526035840152605583015260558252613ee46075836130e1565b905190206001600160a01b031690565b919391929060401901614025576001600160a01b03821693841561401c5760208401359160408501355f1a906fa2a8918ca85bafe22016d0b997e4df60600160ff1b03841161400657601b82141580614011575b61400657613ff995613fe7613fd994613ff197613faf613f66613726565b6020815191012086613f97613f79613757565b60208151910120926104016040519384926020840196469188613776565b519020956104016040519384926020840196876137c2565b519020604051958691602083019586909160429261190160f01b8352600283015260228201520190565b03601f1981018652856130e1565b35925190206144cb565b9190916143c7565b6001600160a01b03161490565b505050505050505f90565b50601c821415613f48565b50505050505f90565b505050505f90565b6040516020810190828252602081526140476040826130e1565b5190206040519091614062611633613e4c60208201856130e1565b51905ff590811561015257565b6040516323b872dd60e01b602082019081526001600160a01b03938416602483015292909316604484015260648084019490945292825261412e925f9081906140b96084866130e1565b60018060a01b031692604051946140d16040876130e1565b602086527f5361666545524332303a206c6f772d6c6576656c2063616c6c206661696c65646020870152519082855af13d156141bf573d9161411283613102565b9261412060405194856130e1565b83523d5f602085013e614547565b805190811591821561419c575b50501561414457565b60405162461bcd60e51b815260206004820152602a60248201527f5361666545524332303a204552433230206f7065726174696f6e20646964206e6044820152691bdd081cdd58d8d9595960b21b6064820152608490fd5b819250906020918101031261015257602001518015158103610152575f8061413b565b606091614547565b91825f52600260205260405f209260ff6009600586015495015460181c16600281115f1461429c576001190160ff81116108485761420490613dec565b6064850285810460641486151715610848576127109004908082106142945750925b8484101561253d5783850394851161084857604080516001600160a01b039283168152602081018790527f000000000000000000000000000000000000000000000000000000000000000090921690820152606081018490525f516020615c785f395f51905f5290608090a2565b905092614226565b506142045f613dec565b91825f526002602052600560405f200154925f516020615c785f395f51905f5260805f946040519060018060a01b0316815286602082015260018060a01b037f00000000000000000000000000000000000000000000000000000000000000001660408201525f6060820152a2565b5f908152600260205260409020600101546001600160a01b0316330361433757565b6386efbb5560e01b5f5260045ffd5b5f52600260205260405f2060018060a01b03600182015416331415908161437e575b5061436f57565b631cfe2f0560e11b5f5260045ffd5b600201546001600160a01b031633141590505f614368565b9060418151145f146143be57612fd991602082015190606060408401519301515f1a906144cb565b50505f90600290565b600581101561033b57806143d85750565b600181036144255760405162461bcd60e51b815260206004820152601860248201527f45434453413a20696e76616c6964207369676e617475726500000000000000006044820152606490fd5b600281036144725760405162461bcd60e51b815260206004820152601f60248201527f45434453413a20696e76616c6964207369676e6174757265206c656e677468006044820152606490fd5b60031461447b57565b60405162461bcd60e51b815260206004820152602260248201527f45434453413a20696e76616c6964207369676e6174757265202773272076616c604482015261756560f01b6064820152608490fd5b6fa2a8918ca85bafe22016d0b997e4df60600160ff1b03841161453c576020935f9360ff60809460405194855216868401526040830152606082015282805260015afa15614531575f516001600160a01b0381161561452957905f90565b505f90600190565b6040513d5f823e3d90fd5b505050505f90600390565b919290156145a9575081511561455b575090565b3b156145645790565b60405162461bcd60e51b815260206004820152601d60248201527f416464726573733a2063616c6c20746f206e6f6e2d636f6e74726163740000006044820152606490fd5b8251909150156145bc5750805190602001fd5b60405162461bcd60e51b8152602060048201529081906145e0906024830190613019565b0390fdfe61010080604052346101ce57604081611633803803809161002082856101d2565b8339810103126101ce5780516001600160a01b038116918282036101ce57602001519160015f551561019b5760805260a0524660e0526040516100646040826101d2565b601381527f50616c696e64726f6d6550617957616c6c657400000000000000000000000000602090910152604080517f87935900cf85ca6189e663d7248e1662ff19d0d4c4fd1ac66e148650615f0137916100bf90826101d2565b600181526020810190603160f81b82525190206040519060208201927f8b73c3c69bb8fe3d512ecc4cf759cc79239f7b179b0ffacaa9a75d522b39400f8452604083015260608201524660808201523060a082015260a0815261012360c0826101d2565b51902060c052604051611429908161020a82396080518181816101b30152818161062a015281816106dd01528181610a0f0152610b20015260a05181818161018301528181610670015281816106b2015281816109dc01528181610aec0152610d1b015260c05181610e79015260e05181610d9f0152f35b60405162461bcd60e51b815260206004820152600b60248201526a457363726f77207a65726f60a81b6044820152606490fd5b5f80fd5b601f909101601f19168101906001600160401b038211908210176101f557604052565b634e487b7160e01b5f52604160045260245ffdfe60806040526004361015610011575f80fd5b5f3560e01c806312065fe0146100a4578063145d07051461009f5780632a5851a21461009a5780633644e515146100955780633ccfd60b146100905780636e7949721461008b57806379a7a85c1461008657806393e74d7f146100815763c80ec5221461007c575f80fd5b610743565b610693565b610659565b610615565b61014d565b610133565b61010c565b6100db565b346100c6575f3660031901126100c65760206100be6109cd565b604051908152f35b5f80fd5b6001600160a01b038116036100c657565b346100c65760203660031901126100c65760206101026004356100fd816100ca565b610add565b6040519015158152f35b346100c65760203660031901126100c65760206100be60043561012e816100ca565b610cee565b346100c6575f3660031901126100c65760206100be610d9d565b346100c6575f3660031901126100c65760025f54146105d05760025f5560015460ff166105c157604051633e8cf2cb60e11b81527f0000000000000000000000000000000000000000000000000000000000000000600482018190526001600160a01b037f0000000000000000000000000000000000000000000000000000000000000000165f83602481845afa928315610412575f9361059d575b50610120830151916101fa83610c37565b61020383610c37565b6003831493841580610589575b80610575575b6105665780516001600160a01b0316156105575760208101805190919061024d906001600160a01b03165b6001600160a01b031690565b33141580610537575b80610517575b61050857600261026b82610ec2565b106104f957610281600160ff1981541617600155565b8051610295906001600160a01b0316610241565b6040516370a0823160e01b81523060048201526001600160a01b0382169790969193916020886024818c5afa978815610412575f986104d4575b506102d990610c37565b156104685750604081015160049291906020906001600160a01b0316956040519485809263d3e78e4d60e01b82525afa928315610412575f93610437575b506001600160a01b038316958615610428577f2b50bbeab304785e1247f1e22da0321897c428768d93e80ab1811e9baa9559019361036861037b926103626101808a96015160ff1690565b9061109c565b94819891928680610417575b5050610f59565b6040805195865260208601929092526001600160a01b031693a45b6040516370a0823160e01b815230600482015290602090829060249082905afa908115610412575f916103e3575b506103d4576103d260015f55565b005b631fea47ef60e01b5f5260045ffd5b610405915060203d60201161040b575b6103fd8183610779565b8101906109be565b5f6103c4565b503d6103f3565b6109b3565b6104219183610f59565b5f86610374565b630665334760e11b5f5260045ffd5b61045a91935060203d602011610461575b6104528183610779565b810190610c46565b915f610317565b503d610448565b515f9594507f2b50bbeab304785e1247f1e22da0321897c428768d93e80ab1811e9baa955901926104cc9250906104ab9086906001600160a01b03168093610f59565b604080519586525f60208701526001600160a01b0390911694918291820190565b0390a4610396565b6102d99198506104f29060203d60201161040b576103fd8183610779565b97906102cf565b633724e34360e11b5f5260045ffd5b630eebd6cd60e21b5f5260045ffd5b50606081015161052f906001600160a01b0316610241565b33141561025c565b50604081015161054f906001600160a01b0316610241565b331415610256565b6381c609f760e01b5f5260045ffd5b635448814d60e11b5f5260045ffd5b5061057f84610c37565b6005841415610216565b5061059384610c37565b6004841415610210565b6105ba9193503d805f833e6105b28183610779565b810190610847565b915f6101e9565b636507689f60e01b5f5260045ffd5b60405162461bcd60e51b815260206004820152601f60248201527f5265656e7472616e637947756172643a207265656e7472616e742063616c6c006044820152606490fd5b346100c6575f3660031901126100c6576040517f00000000000000000000000000000000000000000000000000000000000000006001600160a01b03168152602090f35b346100c6575f3660031901126100c65760206040517f00000000000000000000000000000000000000000000000000000000000000008152f35b346100c6575f3660031901126100c657604051633e8cf2cb60e11b81527f000000000000000000000000000000000000000000000000000000000000000060048201525f816024817f00000000000000000000000000000000000000000000000000000000000000006001600160a01b03165afa80156104125761071e915f91610729575b50610ec2565b604051908152602090f35b61073d91503d805f833e6105b28183610779565b5f610718565b346100c6575f3660031901126100c657602060ff600154166040519015158152f35b634e487b7160e01b5f52604160045260245ffd5b90601f8019910116810190811067ffffffffffffffff82111761079b57604052565b610765565b604051906107b061020083610779565b565b51906107b0826100ca565b519060068210156100c657565b519081151582036100c657565b519060ff821682036100c657565b67ffffffffffffffff811161079b57601f01601f191660200190565b81601f820112156100c657805190610818826107e5565b926108266040519485610779565b828452602083830101116100c657815f9260208093018386015e8301015290565b6020818303126100c65780519067ffffffffffffffff82116100c65701610200818303126100c6576108776107a0565b91610881826107b2565b835261088f602083016107b2565b60208401526108a0604083016107b2565b60408401526108b1606083016107b2565b60608401526108c2608083016107b2565b608084015260a082015160a084015260c082015160c084015260e082015160e08401526101008201516101008401526108fe61012083016107bd565b61012084015261091161014083016107ca565b61014084015261092461016083016107ca565b61016084015261093761018083016107d7565b6101808401526101a082015167ffffffffffffffff81116100c6578161095e918401610801565b6101a08401526101c082015167ffffffffffffffff81116100c65781610985918401610801565b6101c08401526101e082015167ffffffffffffffff81116100c6576109aa9201610801565b6101e082015290565b6040513d5f823e3d90fd5b908160209103126100c6575190565b604051633e8cf2cb60e11b81527f000000000000000000000000000000000000000000000000000000000000000060048201525f816024816001600160a01b037f0000000000000000000000000000000000000000000000000000000000000000165afa801561041257610a50915f91610ac3575b50516001600160a01b031690565b6001600160a01b03811615610abe57610a71906001600160a01b0316610241565b6040516370a0823160e01b815230600482015290602090829060249082905afa908115610412575f91610aa2575090565b610abb915060203d60201161040b576103fd8183610779565b90565b505f90565b610ad791503d805f833e6105b28183610779565b5f610a42565b604051633e8cf2cb60e11b81527f00000000000000000000000000000000000000000000000000000000000000006004820152905f826024816001600160a01b037f0000000000000000000000000000000000000000000000000000000000000000165afa918215610412575f92610c07575b50602082018051909190610b6c906001600160a01b0316610241565b6001600160a01b03909116908103610b9e57506101c091909101519051610abb91906001600160a01b03165b90610c5b565b604083018051909250610bb9906001600160a01b0316610241565b8103610bdd57506101a091909101519051610abb91906001600160a01b0316610b98565b60608301516001600160a01b031691508114610bf95750505f90565b6101e0610abb920151610c5b565b610c1c9192503d805f833e6105b28183610779565b905f610b50565b634e487b7160e01b5f52602160045260245ffd5b60061115610c4157565b610c23565b908160209103126100c65751610abb816100ca565b6041815103610ce8576001600160a01b038216918215610ce157602082015191606060408201519101515f1a926fa2a8918ca85bafe22016d0b997e4df60600160ff1b038211610ccd57601b84141580610cd6575b610ccd57610cc993610cc461024194610cee565b611110565b1490565b50505050505f90565b50601c841415610cb0565b5050505f90565b50505f90565b60405160208101917f783cf3fdc83d5b0c9e236f4e0bfa8f022a2090d21a4c53f5f99df0d607781fa183527f0000000000000000000000000000000000000000000000000000000000000000604083015230606083015260018060a01b0316608082015260808152610d6160a082610779565b519020610d6c610d9d565b9060405190602082019261190160f01b84526022830152604282015260428152610d97606282610779565b51902090565b7f00000000000000000000000000000000000000000000000000000000000000004614610e77576040610e69610d97601360208451610ddc8682610779565b828152017214185b1a5b991c9bdb5954185e55d85b1b195d606a1b81522092600160208251610e0b8482610779565b828152603160f81b91019081522090517f8b73c3c69bb8fe3d512ecc4cf759cc79239f7b179b0ffacaa9a75d522b39400f60208201908152604082019590955260608101919091524660808201523060a082015291829060c0820190565b03601f198101835282610779565b7f000000000000000000000000000000000000000000000000000000000000000090565b634e487b7160e01b5f52601160045260245ffd5b5f198114610ebd5760010190565b610e9b565b6101c081015160208201515f939291610ee4916001600160a01b031690610c5b565b610f50575b610f056101a082015160018060a01b0360408401511690610c5b565b610f3b575b6101e0810151606090910151610f2b916001600160a01b0390911690610c5b565b610f3157565b90610abb90610eaf565b91610f48610f2b91610eaf565b929050610f0a565b60019250610ee9565b9161100d915f806107b09560405194602086019463a9059cbb60e01b865260018060a01b03166024870152604486015260448552610f98606486610779565b60018060a01b03169260405194610fb0604087610779565b602086527f5361666545524332303a206c6f772d6c6576656c2063616c6c206661696c65646020870152519082855af13d1561103b573d91610ff1836107e5565b92610fff6040519485610779565b83523d5f602085013e611381565b8051908115918215611021575b505061113b565b6110349250602080918301019101611127565b5f8061101a565b606091611381565b1561104a57565b60405162461bcd60e51b815260206004820152601860248201527f416d6f756e7420746f6f20736d616c6c20666f722066656500000000000000006044820152606490fd5b91908203918211610ebd57565b9060ff166002811115611107576001190160ff8111610ebd5760ff905b16604d8111610ebd57600a0a606482029082820460641483151715610ebd576110fd9161271090049080821061110057505b80926110f8818310611043565b61108f565b91565b90506110eb565b5060ff5f6110b9565b91610abb939161111f9361119a565b919091611215565b908160209103126100c657610abb906107ca565b1561114257565b60405162461bcd60e51b815260206004820152602a60248201527f5361666545524332303a204552433230206f7065726174696f6e20646964206e6044820152691bdd081cdd58d8d9595960b21b6064820152608490fd5b6fa2a8918ca85bafe22016d0b997e4df60600160ff1b038411611200576020935f9360ff60809460405194855216868401526040830152606082015282805260015afa15610412575f516001600160a01b038116156111f857905f90565b505f90600190565b505050505f90600390565b60051115610c4157565b61121e8161120b565b806112265750565b61122f8161120b565b6001810361127c5760405162461bcd60e51b815260206004820152601860248201527f45434453413a20696e76616c6964207369676e617475726500000000000000006044820152606490fd5b6112858161120b565b600281036112d25760405162461bcd60e51b815260206004820152601f60248201527f45434453413a20696e76616c6964207369676e6174757265206c656e677468006044820152606490fd5b806112de60039261120b565b146112e557565b60405162461bcd60e51b815260206004820152602260248201527f45434453413a20696e76616c6964207369676e6174757265202773272076616c604482015261756560f01b6064820152608490fd5b1561133c57565b60405162461bcd60e51b815260206004820152601d60248201527f416464726573733a2063616c6c20746f206e6f6e2d636f6e74726163740000006044820152606490fd5b919290156113a15750815115611395575090565b610abb903b1515611335565b8251909150156113b45750805190602001fd5b604460209160405192839162461bcd60e51b83528160048401528051918291826024860152018484015e5f828201840152601f01601f19168101030190fdfea2646970667358221220f439d2f95eda0d25ef0ed72b00b4e5a81ac331b219a4bf874b7e15fb3e8e524a64736f6c634300081d00339a98d2f378553651c1f49353593985b1cda0f6d7e9ab1062bb365dc9172a5cd5db73a95b5021282afa069105f6341730da3d69b308a9167526d1d9d4855ce6e6d3e0574cb952cf8d88c9c2b97882e6000237da1d62a64753eaddaf4d9ce7351b4efd0eb8137437cc21ded7c1b056cd5a6e457ad8830e42d74bb9ba46144dbe8318e785d11512625ba8e5486b7d963f337dfc0a628752fe18e284b0375eefe46ca2646970667358221220603b00b956a9675846a0f9b6a83d6e5a76511cd02c3b3fbc3858cc94d5b936fc64736f6c634300081d003361010080604052346101ce57604081611633803803809161002082856101d2565b8339810103126101ce5780516001600160a01b038116918282036101ce57602001519160015f551561019b5760805260a0524660e0526040516100646040826101d2565b601381527f50616c696e64726f6d6550617957616c6c657400000000000000000000000000602090910152604080517f87935900cf85ca6189e663d7248e1662ff19d0d4c4fd1ac66e148650615f0137916100bf90826101d2565b600181526020810190603160f81b82525190206040519060208201927f8b73c3c69bb8fe3d512ecc4cf759cc79239f7b179b0ffacaa9a75d522b39400f8452604083015260608201524660808201523060a082015260a0815261012360c0826101d2565b51902060c052604051611429908161020a82396080518181816101b30152818161062a015281816106dd01528181610a0f0152610b20015260a05181818161018301528181610670015281816106b2015281816109dc01528181610aec0152610d1b015260c05181610e79015260e05181610d9f0152f35b60405162461bcd60e51b815260206004820152600b60248201526a457363726f77207a65726f60a81b6044820152606490fd5b5f80fd5b601f909101601f19168101906001600160401b038211908210176101f557604052565b634e487b7160e01b5f52604160045260245ffdfe60806040526004361015610011575f80fd5b5f3560e01c806312065fe0146100a4578063145d07051461009f5780632a5851a21461009a5780633644e515146100955780633ccfd60b146100905780636e7949721461008b57806379a7a85c1461008657806393e74d7f146100815763c80ec5221461007c575f80fd5b610743565b610693565b610659565b610615565b61014d565b610133565b61010c565b6100db565b346100c6575f3660031901126100c65760206100be6109cd565b604051908152f35b5f80fd5b6001600160a01b038116036100c657565b346100c65760203660031901126100c65760206101026004356100fd816100ca565b610add565b6040519015158152f35b346100c65760203660031901126100c65760206100be60043561012e816100ca565b610cee565b346100c6575f3660031901126100c65760206100be610d9d565b346100c6575f3660031901126100c65760025f54146105d05760025f5560015460ff166105c157604051633e8cf2cb60e11b81527f0000000000000000000000000000000000000000000000000000000000000000600482018190526001600160a01b037f0000000000000000000000000000000000000000000000000000000000000000165f83602481845afa928315610412575f9361059d575b50610120830151916101fa83610c37565b61020383610c37565b6003831493841580610589575b80610575575b6105665780516001600160a01b0316156105575760208101805190919061024d906001600160a01b03165b6001600160a01b031690565b33141580610537575b80610517575b61050857600261026b82610ec2565b106104f957610281600160ff1981541617600155565b8051610295906001600160a01b0316610241565b6040516370a0823160e01b81523060048201526001600160a01b0382169790969193916020886024818c5afa978815610412575f986104d4575b506102d990610c37565b156104685750604081015160049291906020906001600160a01b0316956040519485809263d3e78e4d60e01b82525afa928315610412575f93610437575b506001600160a01b038316958615610428577f2b50bbeab304785e1247f1e22da0321897c428768d93e80ab1811e9baa9559019361036861037b926103626101808a96015160ff1690565b9061109c565b94819891928680610417575b5050610f59565b6040805195865260208601929092526001600160a01b031693a45b6040516370a0823160e01b815230600482015290602090829060249082905afa908115610412575f916103e3575b506103d4576103d260015f55565b005b631fea47ef60e01b5f5260045ffd5b610405915060203d60201161040b575b6103fd8183610779565b8101906109be565b5f6103c4565b503d6103f3565b6109b3565b6104219183610f59565b5f86610374565b630665334760e11b5f5260045ffd5b61045a91935060203d602011610461575b6104528183610779565b810190610c46565b915f610317565b503d610448565b515f9594507f2b50bbeab304785e1247f1e22da0321897c428768d93e80ab1811e9baa955901926104cc9250906104ab9086906001600160a01b03168093610f59565b604080519586525f60208701526001600160a01b0390911694918291820190565b0390a4610396565b6102d99198506104f29060203d60201161040b576103fd8183610779565b97906102cf565b633724e34360e11b5f5260045ffd5b630eebd6cd60e21b5f5260045ffd5b50606081015161052f906001600160a01b0316610241565b33141561025c565b50604081015161054f906001600160a01b0316610241565b331415610256565b6381c609f760e01b5f5260045ffd5b635448814d60e11b5f5260045ffd5b5061057f84610c37565b6005841415610216565b5061059384610c37565b6004841415610210565b6105ba9193503d805f833e6105b28183610779565b810190610847565b915f6101e9565b636507689f60e01b5f5260045ffd5b60405162461bcd60e51b815260206004820152601f60248201527f5265656e7472616e637947756172643a207265656e7472616e742063616c6c006044820152606490fd5b346100c6575f3660031901126100c6576040517f00000000000000000000000000000000000000000000000000000000000000006001600160a01b03168152602090f35b346100c6575f3660031901126100c65760206040517f00000000000000000000000000000000000000000000000000000000000000008152f35b346100c6575f3660031901126100c657604051633e8cf2cb60e11b81527f000000000000000000000000000000000000000000000000000000000000000060048201525f816024817f00000000000000000000000000000000000000000000000000000000000000006001600160a01b03165afa80156104125761071e915f91610729575b50610ec2565b604051908152602090f35b61073d91503d805f833e6105b28183610779565b5f610718565b346100c6575f3660031901126100c657602060ff600154166040519015158152f35b634e487b7160e01b5f52604160045260245ffd5b90601f8019910116810190811067ffffffffffffffff82111761079b57604052565b610765565b604051906107b061020083610779565b565b51906107b0826100ca565b519060068210156100c657565b519081151582036100c657565b519060ff821682036100c657565b67ffffffffffffffff811161079b57601f01601f191660200190565b81601f820112156100c657805190610818826107e5565b926108266040519485610779565b828452602083830101116100c657815f9260208093018386015e8301015290565b6020818303126100c65780519067ffffffffffffffff82116100c65701610200818303126100c6576108776107a0565b91610881826107b2565b835261088f602083016107b2565b60208401526108a0604083016107b2565b60408401526108b1606083016107b2565b60608401526108c2608083016107b2565b608084015260a082015160a084015260c082015160c084015260e082015160e08401526101008201516101008401526108fe61012083016107bd565b61012084015261091161014083016107ca565b61014084015261092461016083016107ca565b61016084015261093761018083016107d7565b6101808401526101a082015167ffffffffffffffff81116100c6578161095e918401610801565b6101a08401526101c082015167ffffffffffffffff81116100c65781610985918401610801565b6101c08401526101e082015167ffffffffffffffff81116100c6576109aa9201610801565b6101e082015290565b6040513d5f823e3d90fd5b908160209103126100c6575190565b604051633e8cf2cb60e11b81527f000000000000000000000000000000000000000000000000000000000000000060048201525f816024816001600160a01b037f0000000000000000000000000000000000000000000000000000000000000000165afa801561041257610a50915f91610ac3575b50516001600160a01b031690565b6001600160a01b03811615610abe57610a71906001600160a01b0316610241565b6040516370a0823160e01b815230600482015290602090829060249082905afa908115610412575f91610aa2575090565b610abb915060203d60201161040b576103fd8183610779565b90565b505f90565b610ad791503d805f833e6105b28183610779565b5f610a42565b604051633e8cf2cb60e11b81527f00000000000000000000000000000000000000000000000000000000000000006004820152905f826024816001600160a01b037f0000000000000000000000000000000000000000000000000000000000000000165afa918215610412575f92610c07575b50602082018051909190610b6c906001600160a01b0316610241565b6001600160a01b03909116908103610b9e57506101c091909101519051610abb91906001600160a01b03165b90610c5b565b604083018051909250610bb9906001600160a01b0316610241565b8103610bdd57506101a091909101519051610abb91906001600160a01b0316610b98565b60608301516001600160a01b031691508114610bf95750505f90565b6101e0610abb920151610c5b565b610c1c9192503d805f833e6105b28183610779565b905f610b50565b634e487b7160e01b5f52602160045260245ffd5b60061115610c4157565b610c23565b908160209103126100c65751610abb816100ca565b6041815103610ce8576001600160a01b038216918215610ce157602082015191606060408201519101515f1a926fa2a8918ca85bafe22016d0b997e4df60600160ff1b038211610ccd57601b84141580610cd6575b610ccd57610cc993610cc461024194610cee565b611110565b1490565b50505050505f90565b50601c841415610cb0565b5050505f90565b50505f90565b60405160208101917f783cf3fdc83d5b0c9e236f4e0bfa8f022a2090d21a4c53f5f99df0d607781fa183527f0000000000000000000000000000000000000000000000000000000000000000604083015230606083015260018060a01b0316608082015260808152610d6160a082610779565b519020610d6c610d9d565b9060405190602082019261190160f01b84526022830152604282015260428152610d97606282610779565b51902090565b7f00000000000000000000000000000000000000000000000000000000000000004614610e77576040610e69610d97601360208451610ddc8682610779565b828152017214185b1a5b991c9bdb5954185e55d85b1b195d606a1b81522092600160208251610e0b8482610779565b828152603160f81b91019081522090517f8b73c3c69bb8fe3d512ecc4cf759cc79239f7b179b0ffacaa9a75d522b39400f60208201908152604082019590955260608101919091524660808201523060a082015291829060c0820190565b03601f198101835282610779565b7f000000000000000000000000000000000000000000000000000000000000000090565b634e487b7160e01b5f52601160045260245ffd5b5f198114610ebd5760010190565b610e9b565b6101c081015160208201515f939291610ee4916001600160a01b031690610c5b565b610f50575b610f056101a082015160018060a01b0360408401511690610c5b565b610f3b575b6101e0810151606090910151610f2b916001600160a01b0390911690610c5b565b610f3157565b90610abb90610eaf565b91610f48610f2b91610eaf565b929050610f0a565b60019250610ee9565b9161100d915f806107b09560405194602086019463a9059cbb60e01b865260018060a01b03166024870152604486015260448552610f98606486610779565b60018060a01b03169260405194610fb0604087610779565b602086527f5361666545524332303a206c6f772d6c6576656c2063616c6c206661696c65646020870152519082855af13d1561103b573d91610ff1836107e5565b92610fff6040519485610779565b83523d5f602085013e611381565b8051908115918215611021575b505061113b565b6110349250602080918301019101611127565b5f8061101a565b606091611381565b1561104a57565b60405162461bcd60e51b815260206004820152601860248201527f416d6f756e7420746f6f20736d616c6c20666f722066656500000000000000006044820152606490fd5b91908203918211610ebd57565b9060ff166002811115611107576001190160ff8111610ebd5760ff905b16604d8111610ebd57600a0a606482029082820460641483151715610ebd576110fd9161271090049080821061110057505b80926110f8818310611043565b61108f565b91565b90506110eb565b5060ff5f6110b9565b91610abb939161111f9361119a565b919091611215565b908160209103126100c657610abb906107ca565b1561114257565b60405162461bcd60e51b815260206004820152602a60248201527f5361666545524332303a204552433230206f7065726174696f6e20646964206e6044820152691bdd081cdd58d8d9595960b21b6064820152608490fd5b6fa2a8918ca85bafe22016d0b997e4df60600160ff1b038411611200576020935f9360ff60809460405194855216868401526040830152606082015282805260015afa15610412575f516001600160a01b038116156111f857905f90565b505f90600190565b505050505f90600390565b60051115610c4157565b61121e8161120b565b806112265750565b61122f8161120b565b6001810361127c5760405162461bcd60e51b815260206004820152601860248201527f45434453413a20696e76616c6964207369676e617475726500000000000000006044820152606490fd5b6112858161120b565b600281036112d25760405162461bcd60e51b815260206004820152601f60248201527f45434453413a20696e76616c6964207369676e6174757265206c656e677468006044820152606490fd5b806112de60039261120b565b146112e557565b60405162461bcd60e51b815260206004820152602260248201527f45434453413a20696e76616c6964207369676e6174757265202773272076616c604482015261756560f01b6064820152608490fd5b1561133c57565b60405162461bcd60e51b815260206004820152601d60248201527f416464726573733a2063616c6c20746f206e6f6e2d636f6e74726163740000006044820152606490fd5b919290156113a15750815115611395575090565b610abb903b1515611335565b8251909150156113b45750805190602001fd5b604460209160405192839162461bcd60e51b83528160048401528051918291826024860152018484015e5f828201840152601f01601f19168101030190fdfea2646970667358221220f439d2f95eda0d25ef0ed72b00b4e5a81ac331b219a4bf874b7e15fb3e8e524a64736f6c634300081d0033","linkReferences":{}},"methodIdentifiers":{"DISPUTE_LONG_TIMEOUT()":"1452483b","DOMAIN_SEPARATOR()":"3644e515","FEE_RECEIVER()":"d3e78e4d","TIMEOUT_BUFFER()":"4186928c","WALLET_BYTECODE_HASH()":"589ac8e3","acceptEscrow(uint256,bytes)":"708f65ca","autoRelease(uint256)":"459b860e","cancelByTimeout(uint256)":"da183b02","computeWalletAddress(uint256)":"e471d9a3","confirmDelivery(uint256,bytes)":"c37775a3","confirmDeliverySigned(uint256,bytes,uint256,uint256,bytes)":"2f9bfda2","createEscrow(address,address,uint256,uint256,address,string,string,bytes)":"311a2e55","createEscrowAndDeposit(address,address,uint256,uint256,address,string,string,bytes)":"2d34515b","deposit(uint256,bytes)":"5d303519","disputeStatus(uint256)":"10f169e8","getEscrow(uint256)":"7d19e596","getNonceBitmap(uint256,address,uint256)":"9dede53c","getWalletAuthorizationDigest(uint256,address)":"d4ffbee4","nextEscrowId()":"89cb29dd","requestCancel(uint256,bytes)":"83504156","startDispute(uint256)":"c0cfa7e5","startDisputeSigned(uint256,bytes,uint256,uint256)":"06075a15","submitArbiterDecision(uint256,uint8,string,bytes)":"2d471a50","submitDisputeMessage(uint256,uint8,string)":"6232ef60"},"id":0}