{
  "_format": "hh3-artifact-1",
  "contractName": "PalindromeCryptoEscrow",
  "sourceName": "contracts/PalindromeCryptoEscrow.sol",
  "abi": [
    {
      "inputs": [
        {
          "internalType": "address",
          "name": "initialAllowedToken",
          "type": "address"
        }
      ],
      "stateMutability": "nonpayable",
      "type": "constructor"
    },
    {
      "inputs": [],
      "name": "InsufficientBalance",
      "type": "error"
    },
    {
      "inputs": [],
      "name": "InvalidMessageRoleForDispute",
      "type": "error"
    },
    {
      "inputs": [],
      "name": "InvalidState",
      "type": "error"
    },
    {
      "inputs": [],
      "name": "Unauthorized",
      "type": "error"
    },
    {
      "inputs": [],
      "name": "ZeroAmount",
      "type": "error"
    },
    {
      "anonymous": false,
      "inputs": [
        {
          "indexed": true,
          "internalType": "uint256",
          "name": "escrowId",
          "type": "uint256"
        },
        {
          "indexed": true,
          "internalType": "address",
          "name": "initiator",
          "type": "address"
        },
        {
          "indexed": false,
          "internalType": "uint256",
          "name": "amount",
          "type": "uint256"
        }
      ],
      "name": "Canceled",
      "type": "event"
    },
    {
      "anonymous": false,
      "inputs": [
        {
          "indexed": true,
          "internalType": "uint256",
          "name": "escrowId",
          "type": "uint256"
        },
        {
          "indexed": true,
          "internalType": "address",
          "name": "buyer",
          "type": "address"
        },
        {
          "indexed": true,
          "internalType": "address",
          "name": "seller",
          "type": "address"
        },
        {
          "indexed": false,
          "internalType": "uint256",
          "name": "amount",
          "type": "uint256"
        },
        {
          "indexed": false,
          "internalType": "uint256",
          "name": "fee",
          "type": "uint256"
        }
      ],
      "name": "DeliveryConfirmed",
      "type": "event"
    },
    {
      "anonymous": false,
      "inputs": [
        {
          "indexed": true,
          "internalType": "uint256",
          "name": "escrowId",
          "type": "uint256"
        },
        {
          "indexed": true,
          "internalType": "address",
          "name": "sender",
          "type": "address"
        },
        {
          "indexed": true,
          "internalType": "uint256",
          "name": "role",
          "type": "uint256"
        },
        {
          "indexed": false,
          "internalType": "string",
          "name": "ipfsHash",
          "type": "string"
        },
        {
          "indexed": false,
          "internalType": "uint256",
          "name": "disputeStatus",
          "type": "uint256"
        }
      ],
      "name": "DisputeMessagePosted",
      "type": "event"
    },
    {
      "anonymous": false,
      "inputs": [
        {
          "indexed": true,
          "internalType": "uint256",
          "name": "escrowId",
          "type": "uint256"
        },
        {
          "indexed": false,
          "internalType": "enum PalindromeCryptoEscrow.State",
          "name": "resolution",
          "type": "uint8"
        },
        {
          "indexed": false,
          "internalType": "address",
          "name": "arbiter",
          "type": "address"
        },
        {
          "indexed": false,
          "internalType": "uint256",
          "name": "amount",
          "type": "uint256"
        },
        {
          "indexed": false,
          "internalType": "uint256",
          "name": "fee",
          "type": "uint256"
        }
      ],
      "name": "DisputeResolved",
      "type": "event"
    },
    {
      "anonymous": false,
      "inputs": [
        {
          "indexed": true,
          "internalType": "uint256",
          "name": "escrowId",
          "type": "uint256"
        },
        {
          "indexed": true,
          "internalType": "address",
          "name": "initiator",
          "type": "address"
        }
      ],
      "name": "DisputeStarted",
      "type": "event"
    },
    {
      "anonymous": false,
      "inputs": [
        {
          "indexed": true,
          "internalType": "uint256",
          "name": "escrowId",
          "type": "uint256"
        },
        {
          "indexed": true,
          "internalType": "address",
          "name": "buyer",
          "type": "address"
        },
        {
          "indexed": true,
          "internalType": "address",
          "name": "seller",
          "type": "address"
        },
        {
          "indexed": false,
          "internalType": "address",
          "name": "token",
          "type": "address"
        },
        {
          "indexed": false,
          "internalType": "uint256",
          "name": "amount",
          "type": "uint256"
        },
        {
          "indexed": false,
          "internalType": "address",
          "name": "arbiter",
          "type": "address"
        },
        {
          "indexed": false,
          "internalType": "uint256",
          "name": "maturityTimeDays",
          "type": "uint256"
        },
        {
          "indexed": false,
          "internalType": "string",
          "name": "title",
          "type": "string"
        },
        {
          "indexed": false,
          "internalType": "string",
          "name": "ipfsHash",
          "type": "string"
        }
      ],
      "name": "EscrowCreated",
      "type": "event"
    },
    {
      "anonymous": false,
      "inputs": [
        {
          "indexed": true,
          "internalType": "uint256",
          "name": "escrowId",
          "type": "uint256"
        },
        {
          "indexed": false,
          "internalType": "enum PalindromeCryptoEscrow.State",
          "name": "oldState",
          "type": "uint8"
        },
        {
          "indexed": false,
          "internalType": "enum PalindromeCryptoEscrow.State",
          "name": "newState",
          "type": "uint8"
        }
      ],
      "name": "EscrowStateChanged",
      "type": "event"
    },
    {
      "anonymous": false,
      "inputs": [
        {
          "indexed": true,
          "internalType": "address",
          "name": "token",
          "type": "address"
        },
        {
          "indexed": true,
          "internalType": "address",
          "name": "to",
          "type": "address"
        },
        {
          "indexed": false,
          "internalType": "uint256",
          "name": "amount",
          "type": "uint256"
        }
      ],
      "name": "FeesWithdrawn",
      "type": "event"
    },
    {
      "anonymous": false,
      "inputs": [
        {
          "indexed": true,
          "internalType": "address",
          "name": "previousOwner",
          "type": "address"
        },
        {
          "indexed": true,
          "internalType": "address",
          "name": "newOwner",
          "type": "address"
        }
      ],
      "name": "OwnershipTransferStarted",
      "type": "event"
    },
    {
      "anonymous": false,
      "inputs": [
        {
          "indexed": true,
          "internalType": "address",
          "name": "previousOwner",
          "type": "address"
        },
        {
          "indexed": true,
          "internalType": "address",
          "name": "newOwner",
          "type": "address"
        }
      ],
      "name": "OwnershipTransferred",
      "type": "event"
    },
    {
      "anonymous": false,
      "inputs": [
        {
          "indexed": true,
          "internalType": "uint256",
          "name": "escrowId",
          "type": "uint256"
        },
        {
          "indexed": true,
          "internalType": "address",
          "name": "buyer",
          "type": "address"
        },
        {
          "indexed": false,
          "internalType": "uint256",
          "name": "amount",
          "type": "uint256"
        }
      ],
      "name": "PaymentDeposited",
      "type": "event"
    },
    {
      "anonymous": false,
      "inputs": [
        {
          "indexed": true,
          "internalType": "uint256",
          "name": "escrowId",
          "type": "uint256"
        },
        {
          "indexed": true,
          "internalType": "address",
          "name": "recipient",
          "type": "address"
        },
        {
          "indexed": false,
          "internalType": "uint256",
          "name": "netAmount",
          "type": "uint256"
        },
        {
          "indexed": false,
          "internalType": "uint256",
          "name": "fee",
          "type": "uint256"
        }
      ],
      "name": "PayoutProcessed",
      "type": "event"
    },
    {
      "anonymous": false,
      "inputs": [
        {
          "indexed": true,
          "internalType": "uint256",
          "name": "escrowId",
          "type": "uint256"
        },
        {
          "indexed": true,
          "internalType": "address",
          "name": "initiator",
          "type": "address"
        },
        {
          "indexed": false,
          "internalType": "uint256",
          "name": "amount",
          "type": "uint256"
        },
        {
          "indexed": false,
          "internalType": "uint256",
          "name": "fee",
          "type": "uint256"
        }
      ],
      "name": "Refunded",
      "type": "event"
    },
    {
      "anonymous": false,
      "inputs": [
        {
          "indexed": true,
          "internalType": "uint256",
          "name": "escrowId",
          "type": "uint256"
        },
        {
          "indexed": true,
          "internalType": "address",
          "name": "requester",
          "type": "address"
        }
      ],
      "name": "RequestCancel",
      "type": "event"
    },
    {
      "anonymous": false,
      "inputs": [
        {
          "indexed": true,
          "internalType": "address",
          "name": "token",
          "type": "address"
        },
        {
          "indexed": false,
          "internalType": "bool",
          "name": "allowed",
          "type": "bool"
        }
      ],
      "name": "TokenAllowed",
      "type": "event"
    },
    {
      "anonymous": false,
      "inputs": [
        {
          "indexed": true,
          "internalType": "address",
          "name": "token",
          "type": "address"
        },
        {
          "indexed": true,
          "internalType": "address",
          "name": "user",
          "type": "address"
        },
        {
          "indexed": false,
          "internalType": "uint256",
          "name": "amount",
          "type": "uint256"
        }
      ],
      "name": "Withdrawn",
      "type": "event"
    },
    {
      "inputs": [],
      "name": "DISPUTE_LONG_TIMEOUT",
      "outputs": [
        {
          "internalType": "uint256",
          "name": "",
          "type": "uint256"
        }
      ],
      "stateMutability": "view",
      "type": "function"
    },
    {
      "inputs": [],
      "name": "DISPUTE_SHORT_TIMEOUT",
      "outputs": [
        {
          "internalType": "uint256",
          "name": "",
          "type": "uint256"
        }
      ],
      "stateMutability": "view",
      "type": "function"
    },
    {
      "inputs": [],
      "name": "TIMEOUT_BUFFER",
      "outputs": [
        {
          "internalType": "uint256",
          "name": "",
          "type": "uint256"
        }
      ],
      "stateMutability": "view",
      "type": "function"
    },
    {
      "inputs": [],
      "name": "acceptOwnership",
      "outputs": [],
      "stateMutability": "nonpayable",
      "type": "function"
    },
    {
      "inputs": [
        {
          "internalType": "address",
          "name": "tokenAddress",
          "type": "address"
        }
      ],
      "name": "allowedTokens",
      "outputs": [
        {
          "internalType": "bool",
          "name": "isAllowed",
          "type": "bool"
        }
      ],
      "stateMutability": "view",
      "type": "function"
    },
    {
      "inputs": [
        {
          "internalType": "uint256",
          "name": "",
          "type": "uint256"
        }
      ],
      "name": "arbiterDecisionSubmitted",
      "outputs": [
        {
          "internalType": "bool",
          "name": "",
          "type": "bool"
        }
      ],
      "stateMutability": "view",
      "type": "function"
    },
    {
      "inputs": [
        {
          "internalType": "uint256",
          "name": "escrowId",
          "type": "uint256"
        }
      ],
      "name": "cancelByTimeout",
      "outputs": [],
      "stateMutability": "nonpayable",
      "type": "function"
    },
    {
      "inputs": [
        {
          "internalType": "uint256",
          "name": "escrowId",
          "type": "uint256"
        }
      ],
      "name": "confirmDelivery",
      "outputs": [],
      "stateMutability": "nonpayable",
      "type": "function"
    },
    {
      "inputs": [
        {
          "internalType": "uint256",
          "name": "escrowId",
          "type": "uint256"
        },
        {
          "internalType": "bytes",
          "name": "signature",
          "type": "bytes"
        },
        {
          "internalType": "uint256",
          "name": "deadline",
          "type": "uint256"
        },
        {
          "internalType": "uint256",
          "name": "nonce",
          "type": "uint256"
        }
      ],
      "name": "confirmDeliverySigned",
      "outputs": [],
      "stateMutability": "nonpayable",
      "type": "function"
    },
    {
      "inputs": [
        {
          "internalType": "address",
          "name": "token",
          "type": "address"
        },
        {
          "internalType": "address",
          "name": "buyer",
          "type": "address"
        },
        {
          "internalType": "uint256",
          "name": "amount",
          "type": "uint256"
        },
        {
          "internalType": "uint256",
          "name": "maturityTimeDays",
          "type": "uint256"
        },
        {
          "internalType": "address",
          "name": "arbiter",
          "type": "address"
        },
        {
          "internalType": "string",
          "name": "title",
          "type": "string"
        },
        {
          "internalType": "string",
          "name": "ipfsHash",
          "type": "string"
        }
      ],
      "name": "createEscrow",
      "outputs": [
        {
          "internalType": "uint256",
          "name": "",
          "type": "uint256"
        }
      ],
      "stateMutability": "nonpayable",
      "type": "function"
    },
    {
      "inputs": [
        {
          "internalType": "uint256",
          "name": "escrowId",
          "type": "uint256"
        }
      ],
      "name": "deposit",
      "outputs": [],
      "stateMutability": "nonpayable",
      "type": "function"
    },
    {
      "inputs": [
        {
          "internalType": "uint256",
          "name": "escrowId",
          "type": "uint256"
        }
      ],
      "name": "disputeStatus",
      "outputs": [
        {
          "internalType": "uint256",
          "name": "status",
          "type": "uint256"
        }
      ],
      "stateMutability": "view",
      "type": "function"
    },
    {
      "inputs": [
        {
          "internalType": "uint256",
          "name": "escrowId",
          "type": "uint256"
        }
      ],
      "name": "escrows",
      "outputs": [
        {
          "internalType": "address",
          "name": "token",
          "type": "address"
        },
        {
          "internalType": "address",
          "name": "buyer",
          "type": "address"
        },
        {
          "internalType": "address",
          "name": "seller",
          "type": "address"
        },
        {
          "internalType": "address",
          "name": "arbiter",
          "type": "address"
        },
        {
          "internalType": "uint256",
          "name": "amount",
          "type": "uint256"
        },
        {
          "internalType": "uint256",
          "name": "depositTime",
          "type": "uint256"
        },
        {
          "internalType": "uint256",
          "name": "maturityTime",
          "type": "uint256"
        },
        {
          "internalType": "uint256",
          "name": "disputeStartTime",
          "type": "uint256"
        },
        {
          "internalType": "enum PalindromeCryptoEscrow.State",
          "name": "state",
          "type": "uint8"
        },
        {
          "internalType": "bool",
          "name": "buyerCancelRequested",
          "type": "bool"
        },
        {
          "internalType": "bool",
          "name": "sellerCancelRequested",
          "type": "bool"
        },
        {
          "internalType": "bool",
          "name": "buyerWithdrawn",
          "type": "bool"
        },
        {
          "internalType": "bool",
          "name": "sellerWithdrawn",
          "type": "bool"
        }
      ],
      "stateMutability": "view",
      "type": "function"
    },
    {
      "inputs": [
        {
          "internalType": "uint256",
          "name": "escrowId",
          "type": "uint256"
        }
      ],
      "name": "escrowsNonces",
      "outputs": [
        {
          "internalType": "uint256",
          "name": "buyer",
          "type": "uint256"
        },
        {
          "internalType": "uint256",
          "name": "seller",
          "type": "uint256"
        },
        {
          "internalType": "uint256",
          "name": "arbiter",
          "type": "uint256"
        }
      ],
      "stateMutability": "view",
      "type": "function"
    },
    {
      "inputs": [
        {
          "internalType": "address",
          "name": "",
          "type": "address"
        }
      ],
      "name": "feePool",
      "outputs": [
        {
          "internalType": "uint256",
          "name": "",
          "type": "uint256"
        }
      ],
      "stateMutability": "view",
      "type": "function"
    },
    {
      "inputs": [
        {
          "internalType": "uint256",
          "name": "escrowId",
          "type": "uint256"
        }
      ],
      "name": "getArbiterNonce",
      "outputs": [
        {
          "internalType": "uint256",
          "name": "",
          "type": "uint256"
        }
      ],
      "stateMutability": "view",
      "type": "function"
    },
    {
      "inputs": [
        {
          "internalType": "uint256",
          "name": "escrowId",
          "type": "uint256"
        }
      ],
      "name": "getBuyerNonce",
      "outputs": [
        {
          "internalType": "uint256",
          "name": "",
          "type": "uint256"
        }
      ],
      "stateMutability": "view",
      "type": "function"
    },
    {
      "inputs": [
        {
          "internalType": "address",
          "name": "token",
          "type": "address"
        }
      ],
      "name": "getFeePool",
      "outputs": [
        {
          "internalType": "uint256",
          "name": "",
          "type": "uint256"
        }
      ],
      "stateMutability": "view",
      "type": "function"
    },
    {
      "inputs": [
        {
          "internalType": "uint256",
          "name": "escrowId",
          "type": "uint256"
        }
      ],
      "name": "getSellerNonce",
      "outputs": [
        {
          "internalType": "uint256",
          "name": "",
          "type": "uint256"
        }
      ],
      "stateMutability": "view",
      "type": "function"
    },
    {
      "inputs": [
        {
          "internalType": "uint256",
          "name": "escrowId",
          "type": "uint256"
        },
        {
          "internalType": "address",
          "name": "user",
          "type": "address"
        }
      ],
      "name": "getWithdrawable",
      "outputs": [
        {
          "internalType": "uint256",
          "name": "",
          "type": "uint256"
        }
      ],
      "stateMutability": "view",
      "type": "function"
    },
    {
      "inputs": [],
      "name": "nextEscrowId",
      "outputs": [
        {
          "internalType": "uint256",
          "name": "",
          "type": "uint256"
        }
      ],
      "stateMutability": "view",
      "type": "function"
    },
    {
      "inputs": [],
      "name": "owner",
      "outputs": [
        {
          "internalType": "address",
          "name": "",
          "type": "address"
        }
      ],
      "stateMutability": "view",
      "type": "function"
    },
    {
      "inputs": [],
      "name": "pendingOwner",
      "outputs": [
        {
          "internalType": "address",
          "name": "",
          "type": "address"
        }
      ],
      "stateMutability": "view",
      "type": "function"
    },
    {
      "inputs": [],
      "name": "renounceOwnership",
      "outputs": [],
      "stateMutability": "nonpayable",
      "type": "function"
    },
    {
      "inputs": [
        {
          "internalType": "uint256",
          "name": "escrowId",
          "type": "uint256"
        }
      ],
      "name": "requestCancel",
      "outputs": [],
      "stateMutability": "nonpayable",
      "type": "function"
    },
    {
      "inputs": [
        {
          "internalType": "uint256",
          "name": "escrowId",
          "type": "uint256"
        },
        {
          "internalType": "bytes",
          "name": "signature",
          "type": "bytes"
        },
        {
          "internalType": "uint256",
          "name": "deadline",
          "type": "uint256"
        },
        {
          "internalType": "uint256",
          "name": "nonce",
          "type": "uint256"
        }
      ],
      "name": "requestCancelSigned",
      "outputs": [],
      "stateMutability": "nonpayable",
      "type": "function"
    },
    {
      "inputs": [
        {
          "internalType": "address",
          "name": "token",
          "type": "address"
        },
        {
          "internalType": "bool",
          "name": "allowed",
          "type": "bool"
        }
      ],
      "name": "setAllowedToken",
      "outputs": [],
      "stateMutability": "nonpayable",
      "type": "function"
    },
    {
      "inputs": [
        {
          "internalType": "uint256",
          "name": "escrowId",
          "type": "uint256"
        }
      ],
      "name": "startDispute",
      "outputs": [],
      "stateMutability": "nonpayable",
      "type": "function"
    },
    {
      "inputs": [
        {
          "internalType": "uint256",
          "name": "escrowId",
          "type": "uint256"
        },
        {
          "internalType": "bytes",
          "name": "signature",
          "type": "bytes"
        },
        {
          "internalType": "uint256",
          "name": "deadline",
          "type": "uint256"
        },
        {
          "internalType": "uint256",
          "name": "nonce",
          "type": "uint256"
        }
      ],
      "name": "startDisputeSigned",
      "outputs": [],
      "stateMutability": "nonpayable",
      "type": "function"
    },
    {
      "inputs": [
        {
          "internalType": "uint256",
          "name": "escrowId",
          "type": "uint256"
        },
        {
          "internalType": "enum PalindromeCryptoEscrow.State",
          "name": "resolution",
          "type": "uint8"
        },
        {
          "internalType": "string",
          "name": "ipfsHash",
          "type": "string"
        }
      ],
      "name": "submitArbiterDecision",
      "outputs": [],
      "stateMutability": "nonpayable",
      "type": "function"
    },
    {
      "inputs": [
        {
          "internalType": "uint256",
          "name": "escrowId",
          "type": "uint256"
        },
        {
          "internalType": "enum PalindromeCryptoEscrow.Role",
          "name": "role",
          "type": "uint8"
        },
        {
          "internalType": "string",
          "name": "ipfsHash",
          "type": "string"
        }
      ],
      "name": "submitDisputeMessage",
      "outputs": [],
      "stateMutability": "nonpayable",
      "type": "function"
    },
    {
      "inputs": [
        {
          "internalType": "address",
          "name": "newOwner",
          "type": "address"
        }
      ],
      "name": "transferOwnership",
      "outputs": [],
      "stateMutability": "nonpayable",
      "type": "function"
    },
    {
      "inputs": [
        {
          "internalType": "bytes32",
          "name": "",
          "type": "bytes32"
        }
      ],
      "name": "usedSignatures",
      "outputs": [
        {
          "internalType": "bool",
          "name": "",
          "type": "bool"
        }
      ],
      "stateMutability": "view",
      "type": "function"
    },
    {
      "inputs": [
        {
          "internalType": "uint256",
          "name": "escrowId",
          "type": "uint256"
        }
      ],
      "name": "withdraw",
      "outputs": [],
      "stateMutability": "nonpayable",
      "type": "function"
    },
    {
      "inputs": [
        {
          "internalType": "address",
          "name": "token",
          "type": "address"
        }
      ],
      "name": "withdrawFees",
      "outputs": [],
      "stateMutability": "nonpayable",
      "type": "function"
    },
    {
      "inputs": [
        {
          "internalType": "uint256",
          "name": "escrowId",
          "type": "uint256"
        },
        {
          "internalType": "address",
          "name": "user",
          "type": "address"
        }
      ],
      "name": "withdrawable",
      "outputs": [
        {
          "internalType": "uint256",
          "name": "amount",
          "type": "uint256"
        }
      ],
      "stateMutability": "view",
      "type": "function"
    }
  ],
  "bytecode": "0x60803461013257601f613b3538819003918201601f19168301916001600160401b038311848410176101365780849260209460405283398101031261013257516001600160a01b038116908190036101325760015f818155600280546001600160a01b031990811690915582543391811682179093556040519290916001600160a01b03909116907f8be0079c531659141344cd1fd0a4f28419497f9722a3daafe3b4186f6b6457e09080a381156101035750805f52600560205260405f20600160ff198254161790557f9a8e30a8658b96ab3f034ce4bac6806278b4aee5880ccdd1ac35e4ed5bb31d23602060405160018152a26040516139ea908161014b8239f35b62461bcd60e51b815260206004820152600a602482015269546f6b656e207a65726f60b01b6044820152606490fd5b5f80fd5b634e487b7160e01b5f52604160045260245ffdfe6080806040526004361015610012575f80fd5b5f3560e01c908163012f52ee146129ce5750806306075a15146127b357806310f169e8146127895780631452483b1461276c578063164e68de146126855780632e1a7d4d14612288578063300c6e901461225957806333bbe7e214611ef95780633a88030614610ffa5780634186928c14611edd578063584e40fa14611ec05780636232ef6014611bdb57806367546317146119615780636dd534b914611937578063715018a6146118d2578063769a68e3146112a057806379ba5097146111d657806385563e261461119557806389cb29dd146111785780638aaa2284146110665780638d66a9a3146102b15780638da5cb5b1461103e5780639ef7c08214610ffa578063ad37137114610fcd578063b277cbd214610fa0578063b6b55f2514610cdb578063c0cfa7e514610c0c578063c761423d1461078e578063da183b021461056b578063e30c397814610543578063e683a2d4146103c1578063e744092e14610384578063f2fde38b14610318578063f978fd61146102e9578063fd26fef1146102b15763fd84cb97146101a8575f80fd5b346102ad5760203660031901126102ad576004356101c4612ed1565b805f5260046020526101e660018060a01b03600160405f200154163314612e20565b805f52600460205260405f20600881019160ff83541660078110156102995760016102119114612e6e565b7f8bcf349ab354486b68c142cea7235e4f7f31f6a425466f569c8ac1d5bc4d0007604060018060a01b0384541694600285019461026060018060a01b038754169760048301988954918861343f565b825460ff19166003179092556001015494549554825190815260208101919091526001600160a01b03958616959490941693a460015f55005b634e487b7160e01b5f52602160045260245ffd5b5f80fd5b346102ad5760203660031901126102ad576001600160a01b036102d2612b26565b165f526008602052602060405f2054604051908152f35b346102ad5760203660031901126102ad576004355f52600a602052602060ff60405f2054166040519015158152f35b346102ad5760203660031901126102ad57610331612b26565b610339613291565b600280546001600160a01b0319166001600160a01b039283169081179091556001549091167f38d16b8cac22d99fc7c124b9cd0de2d3fa1faef420bfe791d8c362d765e227005f80a3005b346102ad5760203660031901126102ad576001600160a01b036103a5612b26565b165f526005602052602060ff60405f2054166040519015158152f35b346102ad5760203660031901126102ad576004356103dd612ed1565b805f52600460205260018060a01b03600160405f2001541633148015610521575b61040790612d97565b805f52600460205260405f2060088101805460ff811660078110156102995760016104329114612e6e565b600183019060018060a01b0382541633145f1461050f5750815461ff0019166101001782555b33847f88a867d5d9b489598a3f5e5c8d5c1da163ed116737b70444bac744920904a5735f80a3815460ff8160081c169081610501575b5061049a575b60015f55005b825490546004909301805490936104be926001600160a01b03918216911686613370565b50600560ff1982541617905554906040519182527feb8b5b87fbea5b732b8f4fd82b65d9afef713c799d98da83090f22c45577998d60203393a380808080610494565b60ff915060101c168561048e565b62ff0000191662010000178255610458565b505f818152600460205260409020600201546001600160a01b031633146103fe565b346102ad575f3660031901126102ad576002546040516001600160a01b039091168152602090f35b346102ad5760203660031901126102ad57600435610587612ed1565b805f5260046020526105a960018060a01b03600160405f200154163314612e20565b805f52600460205260405f2060088101805460ff811660078110156102995760016105d49114612e6e565b60ff8160081c16156107495760101c60ff16610704576005820154156106cc57600682015461546081018091116106b8574211156106735781546001830154600490930180549093610633926001600160a01b03918216911686613370565b50600560ff1982541617905554906040519182527feb8b5b87fbea5b732b8f4fd82b65d9afef713c799d98da83090f22c45577998d60203393a360015f55005b60405162461bcd60e51b815260206004820152601860248201527f477261636520706572696f64206e6f74207265616368656400000000000000006044820152606490fd5b634e487b7160e01b5f52601160045260245ffd5b60405162461bcd60e51b815260206004820152601060248201526f4465706f736974206e6f74206d61646560801b6044820152606490fd5b60405162461bcd60e51b815260206004820152601f60248201527f4d757475616c2063616e63656c20616c72656164792070726f636573736564006044820152606490fd5b60405162461bcd60e51b815260206004820152601f60248201527f4275796572206d75737420726571756573742063616e63656c6c6174696f6e006044820152606490fd5b346102ad5760e03660031901126102ad576107a7612b26565b6107af612b3c565b6084356001600160a01b0381169260443591606435908590036102ad5760a43567ffffffffffffffff81116102ad576107ec903690600401612abc565b95909360c43567ffffffffffffffff81116102ad5761080f903690600401612abc565b9690956001600160a01b038616918215610bc757825f52600560205260ff60405f20541615610b8e576001600160a01b0316958615610b4957338714610b04578315610aca57610e43861015610a96578415610a5157610884610889913387141580610a47575b61087f90612c23565b6135a7565b612eb2565b80600a0290600a8204036106b8578310610a0257600354976108aa89612ec3565b60039081555f8a815260046020819052604090912080546001600160a01b03199081168717825560018201805482168c1790556002820180543390831617905592810180549093168817909255810185905562015180878102919088830414881517156106b85761091d60089242612b52565b600682015501805464ffff0000ff1916905560405191606083019067ffffffffffffffff8211848310176109ee5760209b8b987fd3e0574cb952cf8d88c9c2b97882e6000237da1d62a64753eaddaf4d9ce7351b986109e3966109d3956040525f81528f8c60029183015f815260408401915f83525f5260206009905260405f20935184555160018401555191015560405198899889528f8901526040880152606087015260c0608087015260c0860191612de3565b9083820360a08501523398612de3565b0390a4604051908152f35b634e487b7160e01b5f52604160045260245ffd5b60405162461bcd60e51b815260206004820152601860248201527f416d6f756e74206c657373207468616e206d696e696d756d00000000000000006044820152606490fd5b5086891415610876565b60405162461bcd60e51b815260206004820152601960248201527f41726269746572206d75737420626520737065636966696564000000000000006044820152606490fd5b60405162461bcd60e51b815260206004820152600c60248201526b4d617820313020796561727360a01b6044820152606490fd5b60405162461bcd60e51b81526020600482015260126024820152710416d6f756e74206d757374206265203e20360741b6044820152606490fd5b60405162461bcd60e51b815260206004820152601f60248201527f427579657220616e642073656c6c65722063616e6e6f742062652073616d65006044820152606490fd5b60405162461bcd60e51b815260206004820152601c60248201527f42757965722063616e6e6f74206265207a65726f2061646472657373000000006044820152606490fd5b60405162461bcd60e51b8152602060048201526011602482015270151bdad95b881b9bdd08185b1b1bddd959607a1b6044820152606490fd5b60405162461bcd60e51b815260206004820152601c60248201527f546f6b656e2063616e6e6f74206265207a65726f2061646472657373000000006044820152606490fd5b346102ad5760203660031901126102ad57600435610c28612ed1565b805f52600460205260018060a01b03600160405f2001541633148015610cb9575b610c5290612d97565b805f52600460205260405f206008810160ff8154166007811015610299576001610c7c9114612e6e565b600260ff1982541617905560074291015533907fd658effe7cf013e5a508b3f1a373b92566494d8b6a7c2970fc964932de1c4dab5f80a360015f55005b505f818152600460205260409020600201546001600160a01b03163314610c49565b346102ad5760203660031901126102ad57600435610cf7612ed1565b805f526004602052610d1960018060a01b03600160405f200154163314612e20565b805f52600460205260405f20906008820160ff815416600781101561029957610f645782546001600160a01b03165f8181526005602052604090205490939060ff1615610f1f576040516370a0823160e01b8152306004820152602081602481885afa8015610ee1575f90610eec575b60249150610dcd6004840196875490604051916323b872dd60e01b60208401523386840152306044840152606483015260648252610dc8608483612ca3565b613757565b82546040516370a0823160e01b81523060048201529260209184919082906001600160a01b03165afa8015610ee1575f90610ead575b610e0d9250612e61565b9380548503610e5c57849055600542910155600160ff198254161790556040519182527f71284872bb4c088a81295dff2513729babbccfeda38a8d824bb1a73bcaab494e60203393a360015f55005b60405162461bcd60e51b8152602060048201526024808201527f4665652d6f6e2d7472616e7366657220746f6b656e73206e6f7420737570706f6044820152631c9d195960e21b6064820152608490fd5b506020823d602011610ed9575b81610ec760209383612ca3565b810103126102ad57610e0d9151610e03565b3d9150610eba565b6040513d5f823e3d90fd5b506020813d602011610f17575b81610f0660209383612ca3565b810103126102ad5760249051610d89565b3d9150610ef9565b60405162461bcd60e51b815260206004820152601960248201527f546f6b656e206e6f7420616c6c6f77656420616e796d6f7265000000000000006044820152606490fd5b60405162461bcd60e51b8152602060048201526014602482015273139bdd081055d05255125391d7d410565351539560621b6044820152606490fd5b346102ad5760203660031901126102ad576004355f5260096020526020600160405f200154604051908152f35b346102ad5760203660031901126102ad576004355f5260096020526020600260405f200154604051908152f35b346102ad5760403660031901126102ad57611013612b3c565b6004355f52600760205260405f209060018060a01b03165f52602052602060405f2054604051908152f35b346102ad575f3660031901126102ad576001546040516001600160a01b039091168152602090f35b346102ad5760403660031901126102ad5761107f612b26565b602435908115158092036102ad57611095613291565b6001600160a01b031690811561113d576040516318160ddd60e01b8152602081600481865afa8015610ee15761110c575b5060207f9a8e30a8658b96ab3f034ce4bac6806278b4aee5880ccdd1ac35e4ed5bb31d2391835f526005825260405f2060ff1981541660ff8316179055604051908152a2005b6020813d602011611135575b8161112560209383612ca3565b810103126102ad575060206110c6565b3d9150611118565b60405162461bcd60e51b8152602060048201526013602482015272546f6b656e3a207a65726f206164647265737360681b6044820152606490fd5b346102ad575f3660031901126102ad576020600354604051908152f35b346102ad5760203660031901126102ad576004355f526009602052606060405f20805490600260018201549101549060405192835260208301526040820152f35b346102ad575f3660031901126102ad57600254336001600160a01b039091160361124957600280546001600160a01b0319908116909155600180543392811683179091556001600160a01b03167f8be0079c531659141344cd1fd0a4f28419497f9722a3daafe3b4186f6b6457e05f80a3005b60405162461bcd60e51b815260206004820152602960248201527f4f776e61626c6532537465703a2063616c6c6572206973206e6f7420746865206044820152683732bb9037bbb732b960b91b6064820152608490fd5b346102ad5760603660031901126102ad57600435602435600781109081156102ad5760443567ffffffffffffffff81116102ad576112e2903690600401612abc565b9190926112ed612ed1565b5f858152600460205260409020600301546001600160a01b0316330361189657845f52600460205260405f2090600882019360ff855416600781101561029957600203611879575f906003851496871580611888575b61187957885f526006602052600360405f20541660038114901560078701549062093a808201918281116106b85762278d008101908181116106b85762279b10018091116106b85781159161186f575b501561181f578115611815575b50156117c157885f52600b60205260ff60405f20541661177c575f8981526006602052604090819020805460041790819055905160039333938c937f343e9b07afb91476a7eaea35e0dd214eb5d26b7047cb533a575c43a53d4c8d759392839261140c92919084612e03565b0390a4865f52600b60205260405f20600160ff198254161790556102995784156117685760028201546001600160a01b0316945b5f8781526006602052604081205582546004909301805490966001600160a01b0394851694169182156117325781156116ff5760ff61147e866135a7565b1660028111156116f5576001190160ff81116106b85761149d90612eb2565b901561167d57606482028281046064036106b8576127109004908082106116755750935b600a820480861161166d575b5084821115611667576114e08583612e61565b801561163457611506908a5f52600760205260405f20855f5260205260405f2054612b52565b895f52600760205260405f20845f5260205261152860405f2054821015613324565b895f52600760205260405f20845f5260205260405f2055805f5260086020526115558560405f2054612b52565b91815f52600860205260405f205483106115f957611591866040928c955f5160206139955f395f51905f52955f526008602052845f2055612e61565b8151908152866020820152a315610299577ffc4c84ff0bf9d937dea068e6c13c3a16c307d76a1c5b5173c40f03f68f421e009360809360ff1981541660ff8516179055546115e26040518094612aaf565b33602084015260408301526060820152a260015f55005b60405162461bcd60e51b815260206004820152601360248201527213dd995c999b1bddc81a5b88199959541bdbdb606a1b6044820152606490fd5b60405162461bcd60e51b815260206004820152600b60248201526a111d5cdd081c185e5bdd5d60aa1b6044820152606490fd5b5f6114e0565b9450896114cd565b9050936114c1565b509250865f52600760205260405f20815f526020526116a08360405f2054612b52565b875f52600760205260405f20825f526020526116c260405f2054821015613324565b875f52600760205260405f20825f5260205260405f2055865f5160206139955f395f51905f5260406115915f8097612e61565b5061149d5f612eb2565b60405162461bcd60e51b815260206004820152600b60248201526a416d6f756e74207a65726f60a81b6044820152606490fd5b60405162461bcd60e51b815260206004820152600e60248201526d526563697069656e74207a65726f60901b6044820152606490fd5b60018201546001600160a01b031694611440565b60405162461bcd60e51b815260206004820152601a60248201527f4465636973696f6e20616c7265616479207375626d69747465640000000000006044820152606490fd5b60405162461bcd60e51b815260206004820152602660248201527f526571756972652066756c6c2065766964656e6365206f7220372d64617920746044820152651a5b595bdd5d60d21b6064820152608490fd5b905042118a6113a0565b60405162461bcd60e51b815260206004820152602260248201527f526571756972652065766964656e6365206f722033302d6461792074696d656f6044820152611d5d60f21b6064820152608490fd5b905042118c611393565b63baf3f0f760e01b5f5260045ffd5b505f92506004861415611343565b60405162461bcd60e51b815260206004820152601460248201527313db9b1e48185c989a5d195c88185b1b1bddd95960621b6044820152606490fd5b346102ad575f3660031901126102ad576118ea613291565b600280546001600160a01b03199081169091556001805491821690555f906001600160a01b03167f8be0079c531659141344cd1fd0a4f28419497f9722a3daafe3b4186f6b6457e08280a3005b346102ad5760203660031901126102ad576004355f526009602052602060405f2054604051908152f35b346102ad5761196f36612aea565b9261197c94929194612ed1565b42851180611bc6575b61198e90612b5f565b825f52600460205260405f2091600883019060ff82541660078110156102995760016119ba9114612bab565b60018401906119e88560018060a01b038454166119e26119db83838c612f25565b8b14612be7565b88612fd9565b60038501546001600160a01b031697611a02891515612c23565b611a0d893b15612c61565b8660018060a01b0384541691600288019960018060a01b038b54169160018060a01b038a54169c60048b019d8e549060058d015492604051966020880198468a523060408a0152636754631760e01b60608a015260808901528960a089015260c088015260e08701526101008601526101208501526101408401526101608301526101808201526101808152611aa56101a082612ca3565b5190207f19457468657265756d205369676e6564204d6573736167653a0a3332000000005f52601c52611af1611ae9603c5f20611ae336868a612ce1565b9061361e565b919091613653565b6001600160a01b0316611b05811515612d17565b03611b8b577f8bcf349ab354486b68c142cea7235e4f7f31f6a425466f569c8ac1d5bc4d000794611b3c611b5592604096896130ec565b5487548954916001600160a01b0391821691168861343f565b825460ff19166003179092555494549554825190815260208101919091526001600160a01b03958616959490941693a460015f55005b60405162461bcd60e51b81526020600482015260136024820152722ab730baba3437b934bd32b21039b4b3b732b960691b6044820152606490fd5b5062278d0042018042116106b8578510611985565b346102ad5760603660031901126102ad576004356024359060048210156102ad5760443567ffffffffffffffff81116102ad57611c1c903690600401612abc565b611c27929192612ed1565b815f52600460205260018060a01b03600160405f2001541633148015611ea0575b8015611e80575b15611e3b57815f52600460205260405f2060ff600882015416600781101561029957600203611e07575f9060018603611d8e57600101546001600160a01b03163303611d505760015b835f5260066020528060405f205416611d0b57835f52600660205260405f20908154179055610299577f343e9b07afb91476a7eaea35e0dd214eb5d26b7047cb533a575c43a53d4c8d7590825f52600660205260405f205490611d02604051928392339784612e03565b0390a460015f55005b60405162461bcd60e51b815260206004820152601960248201527f416c7265616479207375626d6974746564206d657373616765000000000000006044820152606490fd5b60405162461bcd60e51b81526020600482015260166024820152754f6e6c792062757965722063616e206d65737361676560501b6044820152606490fd5b5f915060028603611df857600201546001600160a01b03163303611db3576002611c98565b60405162461bcd60e51b815260206004820152601760248201527f4f6e6c792073656c6c65722063616e206d6573736167650000000000000000006044820152606490fd5b63421b511560e11b5f5260045ffd5b60405162461bcd60e51b815260206004820152600c60248201526b139bdd08111254d41555115160a21b6044820152606490fd5b60405162461bcd60e51b815260206004820152601b60248201527f4e6f742061207061727469636970616e7420696e20657363726f7700000000006044820152606490fd5b50815f52600460205260018060a01b03600360405f200154163314611c4f565b50815f52600460205260018060a01b03600260405f200154163314611c48565b346102ad575f3660031901126102ad57602060405162093a808152f35b346102ad575f3660031901126102ad576020604051610e108152f35b346102ad57611f0736612aea565b91909392611f13612ed1565b42851180612244575b611f2590612b5f565b835f52600460205260405f2092600884019060ff8254166007811015610299576001611f519114612bab565b600185019360018060a01b038554163314801561222e575b156121f7576005936120bd6120c393611f8d611f868a338d612f25565b8214612be7565b611f9889338c612fd9565b60038901548a906001600160a01b0316611fb3811515612c23565b611fbe813b15612c61565b60018060a01b038a54169260018060a01b0360028d0154169d8e928d60018060a01b03815416600482019d8e5492015492604051966020880198468a523060408a01526319ddf3f160e11b60608a015260808901528960a089015260c088015260e087015261010086015261012085015261014084015261016083015261018082015261018081526120526101a082612ca3565b5190207f19457468657265756d205369676e6564204d6573736167653a0a3332000000005f52601c52612090611ae9603c5f20611ae3368888612ce1565b6001600160a01b03169a6120a58c1515612d17565b818c1491826121ed575b5081156121d1575b50612d56565b876130ec565b805460ff8160081c1690816121c2575b84546001600160a01b031688036121b05750815461ff0019166101001782555b86867f88a867d5d9b489598a3f5e5c8d5c1da163ed116737b70444bac744920904a5735f80a315806121a2575b80612194575b6121305760015f55005b9254915481547feb8b5b87fbea5b732b8f4fd82b65d9afef713c799d98da83090f22c45577998d94602094909261217592916001600160a01b03918216911688613370565b50805460ff1916600517905554604051908152a3808080808080610494565b5060ff815460101c16612126565b5060ff815460081c16612120565b62ff00001916620100001782556120f3565b905060ff8160101c16906120d3565b8b81149150816121e3575b508b6120b7565b905033148b6121dc565b331491508c6120af565b60405162461bcd60e51b815260206004820152600f60248201526e139bdd081c185c9d1a58da5c185b9d608a1b6044820152606490fd5b5060028601546001600160a01b03163314611f69565b5062278d0042018042116106b8578510611f1c565b346102ad5760203660031901126102ad576004355f52600b602052602060ff60405f2054166040519015158152f35b346102ad5760203660031901126102ad576004356122a4612ed1565b805f52600460205260018060a01b03600160405f2001541633148015612663575b6122ce90612d97565b805f52600460205260405f20600881019160ff8354166007811015610299576006811461262a57600581145f81801561261e575b81811561260e575b50156125be576102995760038203612537575060028301546001600160a01b031633036124e0575b5f8281526007602090815260408083203384529091529020549384156124ae575f83815260076020908152604080832033808552925282209190915560018501805490916001600160a01b039091160361249657815463ff000000191663010000001782555b5f84815260076020908152604080832093546001600160a01b0316835292905220541580612469575b61241d575b505081546123e19150839033906001600160a01b03166132e9565b60018060a01b039054166040519182527fd1c19fbcd4551a5edfb66d43d2e337c04837afda3482b42bdf569a8fccdae5fb60203393a360015f55005b805460ff19166006179055604080517f9fd18dd57bf85e04b8e9f0d0525149241b7cc780d9c23051d307c3afc5e04ca892612459908290612aaf565b60066020820152a28280806123c6565b505f83815260076020908152604080832060028801546001600160a01b03168452909152902054156123c1565b815464ff000000001916640100000000178255612398565b60405162461bcd60e51b815260206004820152600a60248201526916995c9bd05b5bdd5b9d60b21b6044820152606490fd5b60405162461bcd60e51b815260206004820152602960248201527f4f6e6c792073656c6c65722063616e207769746864726177206166746572206360448201526837b6b83632ba34b7b760b91b6064820152608490fd5b600482149081156125b6575b50156123325760018301546001600160a01b031633146123325760405162461bcd60e51b815260206004820152602b60248201527f4f6e6c792062757965722063616e20776974686472617720616674657220726560448201526a199d5b990bd8d85b98d95b60aa1b6064820152608490fd5b905085612543565b60405162461bcd60e51b815260206004820152602260248201527f5769746864726177616c73206f6e6c7920616674657220657363726f7720656e604482015261647360f01b6064820152608490fd5b905061029957600483148161230a565b50505f60038314612302565b60405162461bcd60e51b815260206004820152601160248201527020b63932b0b23c903bb4ba34323930bbb760791b6044820152606490fd5b505f818152600460205260409020600201546001600160a01b031633146122c5565b346102ad5760203660031901126102ad5761269e612b26565b6126a6612ed1565b6126ae613291565b6001600160a01b03165f81815260086020526040902054908115612731575f818152600860205260408120556001546126f29083906001600160a01b0316836132e9565b6001546040519283526001600160a01b0316917f5e110f8bc8a20b65dcc87f224bdf1cc039346e267118bae2739847f07321ffa890602090a360015f55005b60405162461bcd60e51b8152602060048201526013602482015272139bc81999595cc81858d8dd5b5d5b185d1959606a1b6044820152606490fd5b346102ad575f3660031901126102ad57602060405162278d008152f35b346102ad5760203660031901126102ad576004355f526006602052602060405f2054604051908152f35b346102ad576127c136612aea565b6127cd94939194612ed1565b428511806129b9575b6127df90612b5f565b835f52600460205260405f2092600884019260ff8454166007811015610299576129589361281260016129529314612bab565b612820611f8688338b612f25565b61282b87338a612fd9565b600387015488906001600160a01b0316612846811515612c23565b612851813b15612c61565b60018060a01b0360018a0154169260018060a01b0360028b0154169b8c928b60018060a01b038154166005600483015492015492604051966020880198468a523060408a01526306075a1560e01b60608a015260808901528960a089015260c088015260e087015261010086015261012085015261014084015261016083015261018082015261018081526128e86101a082612ca3565b5190207f19457468657265756d205369676e6564204d6573736167653a0a3332000000005f52601c52612926611ae9603c5f20611ae3368888612ce1565b6001600160a01b03169861293b8a1515612d17565b818a1491826129af575b5081156129935750612d56565b856130ec565b600260ff198254161790556007429101557fd658effe7cf013e5a508b3f1a373b92566494d8b6a7c2970fc964932de1c4dab5f80a360015f55005b8981149150816129a5575b50896120b7565b905033148961299e565b331491508a612945565b5062278d0042018042116106b85785106127d6565b346102ad5760203660031901126102ad576101a0906004355f52600460205260ff60405f2060018060a01b038154169060018060a01b0360018201541660018060a01b0360028301541660018060a01b0360038401541660048401549060058501549260068601549460086007880154970154978a5260208a015260408901526060880152608087015260a086015260c085015260e0840152612a776101008401838316612aaf565b818160081c161515610120840152818160101c161515610140840152818160181c16151561016084015260201c161515610180820152f35b9060078210156102995752565b9181601f840112156102ad5782359167ffffffffffffffff83116102ad57602083818601950101116102ad57565b9060806003198301126102ad57600435916024359067ffffffffffffffff82116102ad57612b1a91600401612abc565b90916044359060643590565b600435906001600160a01b03821682036102ad57565b602435906001600160a01b03821682036102ad57565b919082018092116106b857565b15612b6657565b60405162461bcd60e51b815260206004820152601c60248201527f496e76616c6964206f722065787069726564207369676e6174757265000000006044820152606490fd5b15612bb257565b60405162461bcd60e51b815260206004820152600d60248201526c496e76616c696420737461746560981b6044820152606490fd5b15612bee57565b60405162461bcd60e51b815260206004820152600d60248201526c496e76616c6964206e6f6e636560981b6044820152606490fd5b15612c2a57565b60405162461bcd60e51b815260206004820152600f60248201526e24b73b30b634b21030b93134ba32b960891b6044820152606490fd5b15612c6857565b60405162461bcd60e51b815260206004820152601360248201527241726269746572206d75737420626520454f4160681b6044820152606490fd5b90601f8019910116810190811067ffffffffffffffff8211176109ee57604052565b67ffffffffffffffff81116109ee57601f01601f191660200190565b929192612ced82612cc5565b91612cfb6040519384612ca3565b8294818452818301116102ad578281602093845f960137010152565b15612d1e57565b60405162461bcd60e51b815260206004820152601060248201526f496e76616c6964207265636f7665727960801b6044820152606490fd5b15612d5d57565b60405162461bcd60e51b81526020600482015260126024820152710a6d2cedcc2e8eae4ca40dad2e6dac2e8c6d60731b6044820152606490fd5b15612d9e57565b60405162461bcd60e51b815260206004820152601f60248201527f4e6f742061206275796572206f722073656c6c657220696e20657363726f77006044820152606490fd5b908060209392818452848401375f828201840152601f01601f1916010190565b939291602091612e1b91604087526040870191612de3565b930152565b15612e2757565b60405162461bcd60e51b815260206004820152601260248201527113db9b1e48189d5e595c88185b1b1bddd95960721b6044820152606490fd5b919082039182116106b857565b15612e7557565b60405162461bcd60e51b81526020600482015260156024820152744e6f74204157414954494e475f44454c495645525960581b6044820152606490fd5b60ff16604d81116106b857600a0a90565b5f1981146106b85760010190565b60025f5414612ee05760025f55565b60405162461bcd60e51b815260206004820152601f60248201527f5265656e7472616e637947756172643a207265656e7472616e742063616c6c006044820152606490fd5b600183015490926001600160a01b03928316929091168214612fc85760028101546001600160a01b03168214612fb457600301546001600160a01b031614612fa25760405162461bcd60e51b8152602060048201526013602482015272556e6b6e6f776e207369676e657220726f6c6560681b6044820152606490fd5b5f526009602052600260405f20015490565b50505f526009602052600160405f20015490565b50505f52600960205260405f205490565b6001600160a01b0390911690811561309d575f90815260096020526040902060018301549092906001600160a01b0316820361302057505061301b8154612ec3565b90555b565b60028101546001600160a01b0316820361304357505060010161301b8154612ec3565b600301546001600160a01b0316036130625760020161301b8154612ec3565b60405162461bcd60e51b8152602060048201526013602482015272556e6b6e6f776e207369676e657220726f6c6560681b6044820152606490fd5b60405162461bcd60e51b815260206004820152602160248201527f5369676e65722063616e6e6f7420626520746865207a65726f206164647265736044820152607360f81b6064820152608490fd5b9190604182036132575760408101355f1a6fa2a8918ca85bafe22016d0b997e4df60600160ff1b0360208301351161321c57601b8114908115613211575b50156131e057604061315d91838251948592602084019788528484013781015f838201520301601f198101835282612ca3565b519020805f52600a60205260ff60405f20541661318c575f52600a60205260405f20600160ff19825416179055565b60405162461bcd60e51b815260206004820152602660248201527f5369676e617475726520616c7265616479207573656420666f72207468697320604482015265657363726f7760d01b6064820152608490fd5b60405162461bcd60e51b815260206004820152600960248201526824b73b30b634b2103b60b91b6044820152606490fd5b601c9150145f61312a565b60405162461bcd60e51b8152602060048201526013602482015272496e76616c6964207369676e6174757265207360681b6044820152606490fd5b60405162461bcd60e51b8152602060048201526012602482015271092dcecc2d8d2c840e6d2ce40d8cadccee8d60731b6044820152606490fd5b6001546001600160a01b031633036132a557565b606460405162461bcd60e51b815260206004820152602060248201527f4f776e61626c653a2063616c6c6572206973206e6f7420746865206f776e65726044820152fd5b60405163a9059cbb60e01b60208201526001600160a01b03909216602483015260448083019390935291815261301e91610dc8606483612ca3565b1561332b57565b60405162461bcd60e51b815260206004820152601860248201527f4f766572666c6f7720696e20776974686472617761626c6500000000000000006044820152606490fd5b9293926001600160a01b03909216919082156117325784156116ff5761339760ff916135a7565b166002811115613435576001190160ff81116106b8576133b690612eb2565b50805f52600760205260405f20825f526020526133d78460405f2054612b52565b815f52600760205260405f20835f526020526133f960405f2054821015613324565b5f8281526007602090815260408083208684529091528120919091559360405f5160206139955f395f51905f529181519081525f6020820152a3565b506133b65f612eb2565b9093926001600160a01b039092169182156117325780156116ff5760ff613465866135a7565b16600281111561359d576001190160ff81116106b85761348490612eb2565b606482028281046064036106b8576127109004908082106135955750945b600a820480871161358d575b5085821115613587576134c18683612e61565b8015611634576134e790845f52600760205260405f20865f5260205260405f2054612b52565b835f52600760205260405f20855f5260205261350960405f2054821015613324565b835f52600760205260405f20855f5260205260405f205560018060a01b031690815f52600860205261353f8660405f2054612b52565b825f52600860205260405f205481106115f95786604092613579925f5160206139955f395f51905f52955f526008602052845f2055612e61565b8151908152866020820152a3565b5f6134c1565b95505f6134ae565b9050946134a2565b506134845f612eb2565b60405163313ce56760e01b815290602090829060049082906001600160a01b03165afa5f91816135e0575b506135dd5750601290565b90565b9091506020813d602011613616575b816135fc60209383612ca3565b810103126102ad575160ff811681036102ad57905f6135d2565b3d91506135ef565b9060418151145f1461364a5761364691602082015190606060408401519301515f1a9061386f565b9091565b50505f90600290565b600581101561029957806136645750565b600181036136b15760405162461bcd60e51b815260206004820152601860248201527f45434453413a20696e76616c6964207369676e617475726500000000000000006044820152606490fd5b600281036136fe5760405162461bcd60e51b815260206004820152601f60248201527f45434453413a20696e76616c6964207369676e6174757265206c656e677468006044820152606490fd5b60031461370757565b60405162461bcd60e51b815260206004820152602260248201527f45434453413a20696e76616c6964207369676e6174757265202773272076616c604482015261756560f01b6064820152608490fd5b906137d69160018060a01b03165f8060405193613775604086612ca3565b602085527f5361666545524332303a206c6f772d6c6576656c2063616c6c206661696c6564602086015260208151910182855af13d15613867573d916137ba83612cc5565b926137c86040519485612ca3565b83523d5f602085013e6138e0565b8051908115918215613844575b5050156137ec57565b60405162461bcd60e51b815260206004820152602a60248201527f5361666545524332303a204552433230206f7065726174696f6e20646964206e6044820152691bdd081cdd58d8d9595960b21b6064820152608490fd5b81925090602091810103126102ad576020015180151581036102ad575f806137e3565b6060916138e0565b6fa2a8918ca85bafe22016d0b997e4df60600160ff1b0384116138d5576020935f9360ff60809460405194855216868401526040830152606082015282805260015afa15610ee1575f516001600160a01b038116156138cd57905f90565b505f90600190565b505050505f90600390565b9192901561394257508151156138f4575090565b3b156138fd5790565b60405162461bcd60e51b815260206004820152601d60248201527f416464726573733a2063616c6c20746f206e6f6e2d636f6e74726163740000006044820152606490fd5b8251909150156139555750805190602001fd5b604460209160405192839162461bcd60e51b83528160048401528051918291826024860152018484015e5f828201840152601f01601f19168101030190fdfeb4aeb9fb59644d1c26001b986295cde5bbfae34be7c5240fbccf4c37308e20fea26469706673582212203148a8bdac716367fa5b7c079298f73f32b119609b68b51f0a11c1942d6ea08364736f6c634300081d0033",
  "linkReferences": {},
  "deployedLinkReferences": {},
  "immutableReferences": {},
  "inputSourceName": "project/contracts/PalindromeCryptoEscrow.sol",
  "buildInfoId": "solc-0_8_29-bf47dbd91b146929caac581fac4ee9c2391f3e87"
}