{
  "_format": "hh3-artifact-1",
  "contractName": "PalindromePay",
  "sourceName": "contracts/PalindromePay.sol",
  "abi": [
    {
      "inputs": [
        {
          "internalType": "address",
          "name": "_feeReceiver",
          "type": "address"
        },
        {
          "internalType": "address",
          "name": "_walletFactory",
          "type": "address"
        }
      ],
      "stateMutability": "nonpayable",
      "type": "constructor"
    },
    {
      "inputs": [],
      "name": "InvalidNonce",
      "type": "error"
    },
    {
      "inputs": [],
      "name": "InvalidWalletSignature",
      "type": "error"
    },
    {
      "inputs": [],
      "name": "OnlyArbiter",
      "type": "error"
    },
    {
      "inputs": [],
      "name": "OnlyBuyer",
      "type": "error"
    },
    {
      "inputs": [],
      "name": "OnlyBuyerOrSeller",
      "type": "error"
    },
    {
      "inputs": [],
      "name": "OnlySeller",
      "type": "error"
    },
    {
      "inputs": [],
      "name": "SignatureAlreadyUsed",
      "type": "error"
    },
    {
      "inputs": [],
      "name": "SignatureLengthInvalid",
      "type": "error"
    },
    {
      "inputs": [],
      "name": "SignatureSInvalid",
      "type": "error"
    },
    {
      "inputs": [],
      "name": "SignatureVInvalid",
      "type": "error"
    },
    {
      "anonymous": false,
      "inputs": [
        {
          "indexed": true,
          "internalType": "uint256",
          "name": "escrowId",
          "type": "uint256"
        },
        {
          "indexed": true,
          "internalType": "address",
          "name": "arbiter",
          "type": "address"
        }
      ],
      "name": "ArbiterSet",
      "type": "event"
    },
    {
      "anonymous": false,
      "inputs": [
        {
          "indexed": true,
          "internalType": "uint256",
          "name": "escrowId",
          "type": "uint256"
        },
        {
          "indexed": false,
          "internalType": "bytes",
          "name": "arbiterSig",
          "type": "bytes"
        },
        {
          "indexed": false,
          "internalType": "enum PalindromePay.State",
          "name": "outcome",
          "type": "uint8"
        }
      ],
      "name": "ArbiterWalletSigAttached",
      "type": "event"
    },
    {
      "anonymous": false,
      "inputs": [
        {
          "indexed": true,
          "internalType": "uint256",
          "name": "escrowId",
          "type": "uint256"
        },
        {
          "indexed": true,
          "internalType": "address",
          "name": "seller",
          "type": "address"
        },
        {
          "indexed": false,
          "internalType": "uint256",
          "name": "amount",
          "type": "uint256"
        },
        {
          "indexed": false,
          "internalType": "uint256",
          "name": "fee",
          "type": "uint256"
        }
      ],
      "name": "AutoReleased",
      "type": "event"
    },
    {
      "anonymous": false,
      "inputs": [
        {
          "indexed": true,
          "internalType": "uint256",
          "name": "escrowId",
          "type": "uint256"
        },
        {
          "indexed": false,
          "internalType": "bytes",
          "name": "buyerSig",
          "type": "bytes"
        },
        {
          "indexed": false,
          "internalType": "enum PalindromePay.State",
          "name": "outcome",
          "type": "uint8"
        }
      ],
      "name": "BuyerWalletSigAttached",
      "type": "event"
    },
    {
      "anonymous": false,
      "inputs": [
        {
          "indexed": true,
          "internalType": "uint256",
          "name": "escrowId",
          "type": "uint256"
        },
        {
          "indexed": true,
          "internalType": "address",
          "name": "initiator",
          "type": "address"
        },
        {
          "indexed": false,
          "internalType": "uint256",
          "name": "amount",
          "type": "uint256"
        }
      ],
      "name": "Canceled",
      "type": "event"
    },
    {
      "anonymous": false,
      "inputs": [
        {
          "indexed": true,
          "internalType": "uint256",
          "name": "escrowId",
          "type": "uint256"
        },
        {
          "indexed": true,
          "internalType": "address",
          "name": "buyer",
          "type": "address"
        },
        {
          "indexed": true,
          "internalType": "address",
          "name": "seller",
          "type": "address"
        },
        {
          "indexed": false,
          "internalType": "uint256",
          "name": "amount",
          "type": "uint256"
        },
        {
          "indexed": false,
          "internalType": "uint256",
          "name": "fee",
          "type": "uint256"
        }
      ],
      "name": "DeliveryConfirmed",
      "type": "event"
    },
    {
      "anonymous": false,
      "inputs": [
        {
          "indexed": true,
          "internalType": "uint256",
          "name": "escrowId",
          "type": "uint256"
        },
        {
          "indexed": false,
          "internalType": "uint256",
          "name": "longDeadline",
          "type": "uint256"
        }
      ],
      "name": "DisputeDeadlinesSet",
      "type": "event"
    },
    {
      "anonymous": false,
      "inputs": [
        {
          "indexed": true,
          "internalType": "uint256",
          "name": "escrowId",
          "type": "uint256"
        },
        {
          "indexed": true,
          "internalType": "address",
          "name": "sender",
          "type": "address"
        },
        {
          "indexed": false,
          "internalType": "enum PalindromePay.Role",
          "name": "role",
          "type": "uint8"
        },
        {
          "indexed": false,
          "internalType": "string",
          "name": "ipfsHash",
          "type": "string"
        }
      ],
      "name": "DisputeMessagePosted",
      "type": "event"
    },
    {
      "anonymous": false,
      "inputs": [
        {
          "indexed": true,
          "internalType": "uint256",
          "name": "escrowId",
          "type": "uint256"
        },
        {
          "indexed": false,
          "internalType": "enum PalindromePay.State",
          "name": "resolution",
          "type": "uint8"
        },
        {
          "indexed": false,
          "internalType": "address",
          "name": "arbiter",
          "type": "address"
        },
        {
          "indexed": false,
          "internalType": "uint256",
          "name": "amount",
          "type": "uint256"
        },
        {
          "indexed": false,
          "internalType": "uint256",
          "name": "fee",
          "type": "uint256"
        }
      ],
      "name": "DisputeResolved",
      "type": "event"
    },
    {
      "anonymous": false,
      "inputs": [
        {
          "indexed": true,
          "internalType": "uint256",
          "name": "escrowId",
          "type": "uint256"
        },
        {
          "indexed": true,
          "internalType": "address",
          "name": "initiator",
          "type": "address"
        }
      ],
      "name": "DisputeStarted",
      "type": "event"
    },
    {
      "anonymous": false,
      "inputs": [
        {
          "indexed": true,
          "internalType": "uint256",
          "name": "escrowId",
          "type": "uint256"
        },
        {
          "indexed": true,
          "internalType": "address",
          "name": "buyer",
          "type": "address"
        },
        {
          "indexed": true,
          "internalType": "address",
          "name": "seller",
          "type": "address"
        },
        {
          "indexed": false,
          "internalType": "address",
          "name": "token",
          "type": "address"
        },
        {
          "indexed": false,
          "internalType": "uint256",
          "name": "amount",
          "type": "uint256"
        },
        {
          "indexed": false,
          "internalType": "address",
          "name": "arbiter",
          "type": "address"
        },
        {
          "indexed": false,
          "internalType": "uint256",
          "name": "maturityTime",
          "type": "uint256"
        },
        {
          "indexed": false,
          "internalType": "string",
          "name": "title",
          "type": "string"
        },
        {
          "indexed": false,
          "internalType": "string",
          "name": "ipfsHash",
          "type": "string"
        }
      ],
      "name": "EscrowCreated",
      "type": "event"
    },
    {
      "anonymous": false,
      "inputs": [
        {
          "indexed": true,
          "internalType": "uint256",
          "name": "escrowId",
          "type": "uint256"
        },
        {
          "indexed": true,
          "internalType": "address",
          "name": "buyer",
          "type": "address"
        },
        {
          "indexed": false,
          "internalType": "uint256",
          "name": "amount",
          "type": "uint256"
        }
      ],
      "name": "EscrowCreatedAndDeposited",
      "type": "event"
    },
    {
      "anonymous": false,
      "inputs": [
        {
          "indexed": true,
          "internalType": "uint256",
          "name": "escrowId",
          "type": "uint256"
        },
        {
          "indexed": true,
          "internalType": "address",
          "name": "signer",
          "type": "address"
        },
        {
          "indexed": false,
          "internalType": "uint256",
          "name": "nonce",
          "type": "uint256"
        }
      ],
      "name": "NonceUsed",
      "type": "event"
    },
    {
      "anonymous": false,
      "inputs": [
        {
          "indexed": true,
          "internalType": "uint256",
          "name": "escrowId",
          "type": "uint256"
        },
        {
          "indexed": true,
          "internalType": "address",
          "name": "buyer",
          "type": "address"
        },
        {
          "indexed": false,
          "internalType": "uint256",
          "name": "amount",
          "type": "uint256"
        }
      ],
      "name": "PaymentDeposited",
      "type": "event"
    },
    {
      "anonymous": false,
      "inputs": [
        {
          "indexed": true,
          "internalType": "uint256",
          "name": "escrowId",
          "type": "uint256"
        },
        {
          "indexed": false,
          "internalType": "address",
          "name": "recipient",
          "type": "address"
        },
        {
          "indexed": false,
          "internalType": "uint256",
          "name": "netAmount",
          "type": "uint256"
        },
        {
          "indexed": false,
          "internalType": "address",
          "name": "feeRecipient",
          "type": "address"
        },
        {
          "indexed": false,
          "internalType": "uint256",
          "name": "feeAmount",
          "type": "uint256"
        }
      ],
      "name": "PayoutProposed",
      "type": "event"
    },
    {
      "anonymous": false,
      "inputs": [
        {
          "indexed": true,
          "internalType": "uint256",
          "name": "escrowId",
          "type": "uint256"
        },
        {
          "indexed": true,
          "internalType": "address",
          "name": "requester",
          "type": "address"
        }
      ],
      "name": "RequestCancel",
      "type": "event"
    },
    {
      "anonymous": false,
      "inputs": [
        {
          "indexed": true,
          "internalType": "uint256",
          "name": "escrowId",
          "type": "uint256"
        },
        {
          "indexed": true,
          "internalType": "address",
          "name": "seller",
          "type": "address"
        }
      ],
      "name": "SellerAccepted",
      "type": "event"
    },
    {
      "anonymous": false,
      "inputs": [
        {
          "indexed": true,
          "internalType": "uint256",
          "name": "escrowId",
          "type": "uint256"
        },
        {
          "indexed": false,
          "internalType": "bytes",
          "name": "sellerSig",
          "type": "bytes"
        },
        {
          "indexed": false,
          "internalType": "enum PalindromePay.State",
          "name": "outcome",
          "type": "uint8"
        }
      ],
      "name": "SellerWalletSigAttached",
      "type": "event"
    },
    {
      "anonymous": false,
      "inputs": [
        {
          "indexed": true,
          "internalType": "uint256",
          "name": "escrowId",
          "type": "uint256"
        },
        {
          "indexed": false,
          "internalType": "bytes",
          "name": "sellerSig",
          "type": "bytes"
        }
      ],
      "name": "SellerWalletSigUpdated",
      "type": "event"
    },
    {
      "anonymous": false,
      "inputs": [
        {
          "indexed": true,
          "internalType": "bytes32",
          "name": "sigHash",
          "type": "bytes32"
        },
        {
          "indexed": true,
          "internalType": "uint256",
          "name": "escrowId",
          "type": "uint256"
        }
      ],
      "name": "SignatureUsed",
      "type": "event"
    },
    {
      "anonymous": false,
      "inputs": [
        {
          "indexed": true,
          "internalType": "uint256",
          "name": "escrowId",
          "type": "uint256"
        },
        {
          "indexed": false,
          "internalType": "enum PalindromePay.State",
          "name": "oldState",
          "type": "uint8"
        },
        {
          "indexed": true,
          "internalType": "enum PalindromePay.State",
          "name": "newState",
          "type": "uint8"
        }
      ],
      "name": "StateChanged",
      "type": "event"
    },
    {
      "anonymous": false,
      "inputs": [
        {
          "indexed": true,
          "internalType": "uint256",
          "name": "escrowId",
          "type": "uint256"
        },
        {
          "indexed": true,
          "internalType": "address",
          "name": "wallet",
          "type": "address"
        }
      ],
      "name": "WalletCreated",
      "type": "event"
    },
    {
      "inputs": [],
      "name": "DISPUTE_LONG_TIMEOUT",
      "outputs": [
        {
          "internalType": "uint256",
          "name": "",
          "type": "uint256"
        }
      ],
      "stateMutability": "view",
      "type": "function"
    },
    {
      "inputs": [],
      "name": "DOMAIN_SEPARATOR",
      "outputs": [
        {
          "internalType": "bytes32",
          "name": "",
          "type": "bytes32"
        }
      ],
      "stateMutability": "view",
      "type": "function"
    },
    {
      "inputs": [],
      "name": "FEE_RECEIVER",
      "outputs": [
        {
          "internalType": "address",
          "name": "",
          "type": "address"
        }
      ],
      "stateMutability": "view",
      "type": "function"
    },
    {
      "inputs": [],
      "name": "MAX_ARBITER_FEE_BPS",
      "outputs": [
        {
          "internalType": "uint256",
          "name": "",
          "type": "uint256"
        }
      ],
      "stateMutability": "view",
      "type": "function"
    },
    {
      "inputs": [],
      "name": "TIMEOUT_BUFFER",
      "outputs": [
        {
          "internalType": "uint256",
          "name": "",
          "type": "uint256"
        }
      ],
      "stateMutability": "view",
      "type": "function"
    },
    {
      "inputs": [],
      "name": "WALLET_FACTORY",
      "outputs": [
        {
          "internalType": "contract IWalletFactory",
          "name": "",
          "type": "address"
        }
      ],
      "stateMutability": "view",
      "type": "function"
    },
    {
      "inputs": [
        {
          "internalType": "uint256",
          "name": "escrowId",
          "type": "uint256"
        },
        {
          "internalType": "bytes",
          "name": "sellerWalletSig",
          "type": "bytes"
        }
      ],
      "name": "acceptEscrow",
      "outputs": [],
      "stateMutability": "nonpayable",
      "type": "function"
    },
    {
      "inputs": [
        {
          "internalType": "uint256",
          "name": "escrowId",
          "type": "uint256"
        }
      ],
      "name": "autoRelease",
      "outputs": [],
      "stateMutability": "nonpayable",
      "type": "function"
    },
    {
      "inputs": [
        {
          "internalType": "uint256",
          "name": "escrowId",
          "type": "uint256"
        }
      ],
      "name": "cancelByTimeout",
      "outputs": [],
      "stateMutability": "nonpayable",
      "type": "function"
    },
    {
      "inputs": [
        {
          "internalType": "uint256",
          "name": "escrowId",
          "type": "uint256"
        }
      ],
      "name": "computeWalletAddress",
      "outputs": [
        {
          "internalType": "address",
          "name": "predicted",
          "type": "address"
        }
      ],
      "stateMutability": "view",
      "type": "function"
    },
    {
      "inputs": [
        {
          "internalType": "uint256",
          "name": "escrowId",
          "type": "uint256"
        },
        {
          "internalType": "bytes",
          "name": "buyerWalletSig",
          "type": "bytes"
        }
      ],
      "name": "confirmDelivery",
      "outputs": [],
      "stateMutability": "nonpayable",
      "type": "function"
    },
    {
      "inputs": [
        {
          "internalType": "uint256",
          "name": "escrowId",
          "type": "uint256"
        },
        {
          "internalType": "bytes",
          "name": "coordSignature",
          "type": "bytes"
        },
        {
          "internalType": "uint256",
          "name": "deadline",
          "type": "uint256"
        },
        {
          "internalType": "uint256",
          "name": "nonce",
          "type": "uint256"
        },
        {
          "internalType": "bytes",
          "name": "buyerWalletSig",
          "type": "bytes"
        }
      ],
      "name": "confirmDeliverySigned",
      "outputs": [],
      "stateMutability": "nonpayable",
      "type": "function"
    },
    {
      "inputs": [
        {
          "internalType": "address",
          "name": "token",
          "type": "address"
        },
        {
          "internalType": "address",
          "name": "buyer",
          "type": "address"
        },
        {
          "internalType": "uint256",
          "name": "amount",
          "type": "uint256"
        },
        {
          "internalType": "uint256",
          "name": "maturityTimeDays",
          "type": "uint256"
        },
        {
          "internalType": "address",
          "name": "arbiter",
          "type": "address"
        },
        {
          "internalType": "uint16",
          "name": "arbiterFeeBps",
          "type": "uint16"
        },
        {
          "internalType": "string",
          "name": "title",
          "type": "string"
        },
        {
          "internalType": "string",
          "name": "ipfsHash",
          "type": "string"
        },
        {
          "internalType": "bytes",
          "name": "sellerWalletSig",
          "type": "bytes"
        }
      ],
      "name": "createEscrow",
      "outputs": [
        {
          "internalType": "uint256",
          "name": "",
          "type": "uint256"
        }
      ],
      "stateMutability": "nonpayable",
      "type": "function"
    },
    {
      "inputs": [
        {
          "internalType": "address",
          "name": "token",
          "type": "address"
        },
        {
          "internalType": "address",
          "name": "seller",
          "type": "address"
        },
        {
          "internalType": "uint256",
          "name": "amount",
          "type": "uint256"
        },
        {
          "internalType": "uint256",
          "name": "maturityTimeDays",
          "type": "uint256"
        },
        {
          "internalType": "address",
          "name": "arbiter",
          "type": "address"
        },
        {
          "internalType": "uint16",
          "name": "arbiterFeeBps",
          "type": "uint16"
        },
        {
          "internalType": "string",
          "name": "title",
          "type": "string"
        },
        {
          "internalType": "string",
          "name": "ipfsHash",
          "type": "string"
        },
        {
          "internalType": "bytes",
          "name": "buyerWalletSig",
          "type": "bytes"
        }
      ],
      "name": "createEscrowAndDeposit",
      "outputs": [
        {
          "internalType": "uint256",
          "name": "escrowId",
          "type": "uint256"
        }
      ],
      "stateMutability": "nonpayable",
      "type": "function"
    },
    {
      "inputs": [
        {
          "internalType": "uint256",
          "name": "escrowId",
          "type": "uint256"
        },
        {
          "internalType": "bytes",
          "name": "buyerWalletSig",
          "type": "bytes"
        }
      ],
      "name": "deposit",
      "outputs": [],
      "stateMutability": "nonpayable",
      "type": "function"
    },
    {
      "inputs": [
        {
          "internalType": "uint256",
          "name": "",
          "type": "uint256"
        }
      ],
      "name": "disputeStatus",
      "outputs": [
        {
          "internalType": "uint256",
          "name": "",
          "type": "uint256"
        }
      ],
      "stateMutability": "view",
      "type": "function"
    },
    {
      "inputs": [
        {
          "internalType": "uint256",
          "name": "escrowId",
          "type": "uint256"
        }
      ],
      "name": "getEscrow",
      "outputs": [
        {
          "components": [
            {
              "internalType": "address",
              "name": "token",
              "type": "address"
            },
            {
              "internalType": "address",
              "name": "buyer",
              "type": "address"
            },
            {
              "internalType": "address",
              "name": "seller",
              "type": "address"
            },
            {
              "internalType": "address",
              "name": "arbiter",
              "type": "address"
            },
            {
              "internalType": "address",
              "name": "wallet",
              "type": "address"
            },
            {
              "internalType": "uint256",
              "name": "amount",
              "type": "uint256"
            },
            {
              "internalType": "uint256",
              "name": "depositTime",
              "type": "uint256"
            },
            {
              "internalType": "uint256",
              "name": "maturityTime",
              "type": "uint256"
            },
            {
              "internalType": "uint256",
              "name": "maturityDuration",
              "type": "uint256"
            },
            {
              "internalType": "uint256",
              "name": "disputeStartTime",
              "type": "uint256"
            },
            {
              "internalType": "enum PalindromePay.State",
              "name": "state",
              "type": "uint8"
            },
            {
              "internalType": "bool",
              "name": "buyerCancelRequested",
              "type": "bool"
            },
            {
              "internalType": "bool",
              "name": "sellerCancelRequested",
              "type": "bool"
            },
            {
              "internalType": "uint8",
              "name": "tokenDecimals",
              "type": "uint8"
            },
            {
              "internalType": "uint16",
              "name": "arbiterFeeBps",
              "type": "uint16"
            },
            {
              "internalType": "bytes",
              "name": "sellerWalletSig",
              "type": "bytes"
            },
            {
              "internalType": "bytes",
              "name": "buyerWalletSig",
              "type": "bytes"
            },
            {
              "internalType": "bytes",
              "name": "arbiterWalletSig",
              "type": "bytes"
            }
          ],
          "internalType": "struct PalindromePay.EscrowDeal",
          "name": "",
          "type": "tuple"
        }
      ],
      "stateMutability": "view",
      "type": "function"
    },
    {
      "inputs": [
        {
          "internalType": "uint256",
          "name": "escrowId",
          "type": "uint256"
        },
        {
          "internalType": "address",
          "name": "signer",
          "type": "address"
        },
        {
          "internalType": "uint256",
          "name": "wordIndex",
          "type": "uint256"
        }
      ],
      "name": "getNonceBitmap",
      "outputs": [
        {
          "internalType": "uint256",
          "name": "",
          "type": "uint256"
        }
      ],
      "stateMutability": "view",
      "type": "function"
    },
    {
      "inputs": [
        {
          "internalType": "uint256",
          "name": "escrowId",
          "type": "uint256"
        },
        {
          "internalType": "address",
          "name": "participant",
          "type": "address"
        },
        {
          "internalType": "enum PalindromePay.State",
          "name": "outcome",
          "type": "uint8"
        }
      ],
      "name": "getWalletAuthorizationDigest",
      "outputs": [
        {
          "internalType": "bytes32",
          "name": "digest",
          "type": "bytes32"
        }
      ],
      "stateMutability": "view",
      "type": "function"
    },
    {
      "inputs": [],
      "name": "nextEscrowId",
      "outputs": [
        {
          "internalType": "uint256",
          "name": "",
          "type": "uint256"
        }
      ],
      "stateMutability": "view",
      "type": "function"
    },
    {
      "inputs": [
        {
          "internalType": "uint256",
          "name": "escrowId",
          "type": "uint256"
        },
        {
          "internalType": "bytes",
          "name": "buyerWalletSig",
          "type": "bytes"
        }
      ],
      "name": "refundAfterDisputeTimeout",
      "outputs": [],
      "stateMutability": "nonpayable",
      "type": "function"
    },
    {
      "inputs": [
        {
          "internalType": "uint256",
          "name": "escrowId",
          "type": "uint256"
        },
        {
          "internalType": "bytes",
          "name": "walletSig",
          "type": "bytes"
        }
      ],
      "name": "requestCancel",
      "outputs": [],
      "stateMutability": "nonpayable",
      "type": "function"
    },
    {
      "inputs": [
        {
          "internalType": "uint256",
          "name": "escrowId",
          "type": "uint256"
        },
        {
          "internalType": "address",
          "name": "newArbiter",
          "type": "address"
        },
        {
          "internalType": "uint16",
          "name": "arbiterFeeBps",
          "type": "uint16"
        },
        {
          "internalType": "bytes",
          "name": "buyerSig",
          "type": "bytes"
        },
        {
          "internalType": "bytes",
          "name": "sellerSig",
          "type": "bytes"
        },
        {
          "internalType": "uint256",
          "name": "deadline",
          "type": "uint256"
        },
        {
          "internalType": "uint256",
          "name": "nonce",
          "type": "uint256"
        }
      ],
      "name": "setArbiterSigned",
      "outputs": [],
      "stateMutability": "nonpayable",
      "type": "function"
    },
    {
      "inputs": [
        {
          "internalType": "uint256",
          "name": "escrowId",
          "type": "uint256"
        }
      ],
      "name": "startDispute",
      "outputs": [],
      "stateMutability": "nonpayable",
      "type": "function"
    },
    {
      "inputs": [
        {
          "internalType": "uint256",
          "name": "escrowId",
          "type": "uint256"
        },
        {
          "internalType": "bytes",
          "name": "signature",
          "type": "bytes"
        },
        {
          "internalType": "uint256",
          "name": "deadline",
          "type": "uint256"
        },
        {
          "internalType": "uint256",
          "name": "nonce",
          "type": "uint256"
        }
      ],
      "name": "startDisputeSigned",
      "outputs": [],
      "stateMutability": "nonpayable",
      "type": "function"
    },
    {
      "inputs": [
        {
          "internalType": "uint256",
          "name": "escrowId",
          "type": "uint256"
        },
        {
          "internalType": "enum PalindromePay.State",
          "name": "resolution",
          "type": "uint8"
        },
        {
          "internalType": "string",
          "name": "ipfsHash",
          "type": "string"
        },
        {
          "internalType": "bytes",
          "name": "arbiterWalletSig",
          "type": "bytes"
        }
      ],
      "name": "submitArbiterDecision",
      "outputs": [],
      "stateMutability": "nonpayable",
      "type": "function"
    },
    {
      "inputs": [
        {
          "internalType": "uint256",
          "name": "escrowId",
          "type": "uint256"
        },
        {
          "internalType": "enum PalindromePay.Role",
          "name": "role",
          "type": "uint8"
        },
        {
          "internalType": "string",
          "name": "ipfsHash",
          "type": "string"
        }
      ],
      "name": "submitDisputeMessage",
      "outputs": [],
      "stateMutability": "nonpayable",
      "type": "function"
    }
  ],
  "bytecode": "0x610100806040523461020057604081615a0980380380916100208285610204565b8339810103126102005761003f60206100388361023b565b920161023b565b60015f556001600160a01b038216156101ce576001600160a01b031690811561019a5760805260a0524660e05260405161007a604082610204565b600d81526c50616c696e64726f6d6550617960981b602090910152604080517fafad4e164a3495a77e9cd6cc3b76ca3aa2b79f9ddc70f34392e4b3d17237f7d7916100c59082610204565b600181526020810190603160f81b82525190206040519060208201927f8b73c3c69bb8fe3d512ecc4cf759cc79239f7b179b0ffacaa9a75d522b39400f8452604083015260608201524660808201523060a082015260a0815261012960c082610204565b51902060c0526040516157b99081610250823960805181818161022f01528181610a7301528181610bec015281816115be015281816133a801528181614da90152614e2d015260a051818181613847015281816153cc015261544e015260c05181614706015260e051816146e00152f35b60405162461bcd60e51b815260206004820152600c60248201526b466163746f7279207a65726f60a01b6044820152606490fd5b60405162461bcd60e51b815260206004820152600a602482015269466565546f207a65726f60b01b6044820152606490fd5b5f80fd5b601f909101601f19168101906001600160401b0382119082101761022757604052565b634e487b7160e01b5f52604160045260245ffd5b51906001600160a01b03821682036102005756fe6102206040526004361015610012575f80fd5b5f3560e01c806306075a15146138765780630e2009f41461383257806310f169e81461380857806313c34211146136995780631452483b1461367c5780632d471a501461302f5780632f9bfda214612b805780633644e51514612b5e5780634186928c14612b42578063459b860e146129c35780635d303519146126045780636232ef6014612440578063708f65ca1461220b5780637d19e59614611f235780638350415614611a3457806389cb29dd14611a175780639dede53c146119c7578063acc1d8e1146114e7578063b67036fd146111fe578063c0cfa7e514611119578063c37775a314610ec2578063cdf21dc914610aa2578063d3e78e4d14610a5e578063d447dc7d14610a42578063da183b0214610849578063e471d9a3146108195763f80a9c9314610143575f80fd5b3461063a5761015136613b6b565b979098999295610162959495614577565b61016c86866150af565b610176838861505f565b61018a6001600160a01b038d1615156142c1565b6001600160a01b038416156107e6576101ae6001600160a01b0385163314156142fa565b6101b98b151561433a565b6101c6610e438310614374565b6101cf8c61510b565b6080526101e86101e0608051614ff5565b8c10156143b4565b6001600160a01b038816331415806107d0575b610204906143f3565b6001600160a01b0388161580156107bc575b61021f90614431565b6102586001600160a01b038981167f00000000000000000000000000000000000000000000000000000000000000009091161415614473565b61026281896152e2565b60015461016052610275610160516144bf565b60015561029f338b8b61029a61028d610160516153a9565b9261016051923691613d49565b6149dc565b156107ad576102b061016051615430565b6101a052610160515f52600260205260405f206101805260018060a01b038c166001600160601b0360a01b6101805154161761018051556001610180510160018060a01b0333166001600160601b0360a01b8254161790556002610180510160018060a01b0385166001600160601b0360a01b8254161790556003610180510160018060a01b0389166001600160601b0360a01b825416179055610374600a610180510191829065ffff0000000082549160201b169065ffff000000001916179055565b6004610180510160018060a01b036101a051166001600160601b0360a01b8254161790558a60056101805101556103ae60018310156144cd565b62015180820291808304620151801490151715610799576103db8261040293600861018051015542613c2e565b6101805160070155805460805163ff0000ff1990911660189190911b63ff00000016179055565b6001600160401b0387116107855788948a94610424600c610180510154613ef8565b601f8111610725575b50885f601f8211600114610692579161049893915f5160206156e45f395f51905f52979695935f91610687575b508b60011b905f198d60031b1c191617600c6101805101555b60076101805101549560405196879660018060a01b03169b339b610160519b89614526565b0390a45f5160206156c45f395f51905f526104f460018060a01b036101a05116936040519385610160517f470292d5e9c87e6d5a100a14c56a434c9f25e9e2be1d5efa70c3b5f9aeda505f5f80a3604085526040850191613f30565b91600360208201528061016051930390a242600661018051015561051a6101605161497a565b6040516370a0823160e01b815260048101829052906020826024816001600160a01b0388165afa918215610646575f92610651575b506101a051919260209261056e9190336001600160a01b038816614e8c565b6040516370a0823160e01b8152600481019190915292839060249082906001600160a01b03165afa8015610646575f9061060e575b6105ad9250614179565b6105c36105bb608051614ff5565b821015614186565b80600561018051015560405190815233907f2c39794ba48d965361d6eb56f0d6366313044d1b5b1758c68643d3e3a39a2c4e60206101605192a360015f556020604051610160518152f35b506020823d60201161063e575b8161062860209383613d0d565b8101031261063a576105ad91516105a3565b5f80fd5b3d915061061b565b6040513d5f823e3d90fd5b91506020823d60201161067f575b8161066c60209383613d0d565b8101031261063a5790519061056e61054f565b3d915061065f565b90508c01355f61045a565b9050600c61018051015f528a60205f20915f5b601f198d1681106107055750915f5160206156e45f395f51905f52979695939161049895938d601f198116106106ec575b50505060018b811b01600c610180510155610473565b01355f1960038e901b60f8161c191690555f8c816106d6565b9181013583558d99508e98506001909201918c91602091820191016106a5565b9193955091939550600c61018051015f5260205f20601f890160051c810160208a1061077e575b918b979593918d9795935b601f830160051c8201811061076d57505061042d565b5f81558d99508e9850600101610757565b508061074c565b634e487b7160e01b5f52604160045260245ffd5b634e487b7160e01b5f52601160045260245ffd5b630f42e6ed60e41b5f5260045ffd5b5061021f6107c989615221565b9050610216565b506001600160a01b0388811690851614156101fb565b60405162461bcd60e51b815260206004820152600b60248201526a53656c6c6572207a65726f60a81b6044820152606490fd5b3461063a57602036600319011261063a5760206108376004356153a9565b6040516001600160a01b039091168152f35b3461063a57602036600319011261063a57600435610865614577565b61086e816145cb565b61087781614e5b565b805f52600260205260405f20600a81015460ff81166006811015610a2e5760016108a1911461407c565b6108af6009830154156140c0565b60ff8160081c16156109f45760101c60ff166109ba576108d4600682015415156140fd565b60038101546001600160a01b03161561096957806108f9600760059301544211614136565b610911604161090b600c840154613ef8565b14613f50565b61091a836149ab565b6001810154610932906001600160a01b031684614dec565b50500154906040519182527feb8b5b87fbea5b732b8f4fd82b65d9afef713c799d98da83090f22c45577998d60203393a360015f55005b60405162461bcd60e51b815260206004820152602360248201527f4172626974657220726571756972656420666f722074696d656f75742063616e60448201526218d95b60ea1b6064820152608490fd5b60405162461bcd60e51b81526020600482015260126024820152714d757475616c2063616e63656c20646f6e6560701b6044820152606490fd5b60405162461bcd60e51b8152602060048201526012602482015271135d5cdd081c995c5d595cdd08199a5c9cdd60721b6044820152606490fd5b634e487b7160e01b5f52602160045260245ffd5b3461063a575f36600319011261063a5760206040516107d08152f35b3461063a575f36600319011261063a576040517f00000000000000000000000000000000000000000000000000000000000000006001600160a01b03168152602090f35b3461063a5760e036600319011261063a57600435610abe613af1565b9060443561ffff8116810361063a576064356001600160401b03811161063a57610aec903690600401613ac4565b60c05260a0526084356001600160401b03811161063a57610b11903690600401613ac4565b9060e0529060c43591610b22614577565b610b2b846145cb565b5f848152600260205260409020610140819052600301610120819052546001600160a01b0316610e875760ff600a610140510154166006811015610a2e5780610b7d9115908115610e7c575b50614287565b4260a4351180610e65575b610b9190613c3b565b6001600160a01b03851694610c21908390610bad881515613c7a565b61014051600101546001600160a01b031661010081905288141580610e4b575b610bd6906143f3565b610be7610be282615221565b614431565b610c1c7f00000000000000000000000000000000000000000000000000000000000000006001600160a01b0316891415614473565b6152e2565b610c2f60c05160a05161466a565b610c3b8160e05161466a565b60405160208101907fb2fd8bb112d6c331ed2bea1f18103807d9ead94275c9f2f26cadce42f3303879825285604082015286606082015261ffff8416608082015260a43560a08201528460c082015260c08152610c9960e082613d0d565b519020610cd2610ce0610caa6146dd565b92604051928391602083019586909160429261190160f01b8352600283015260228201520190565b03601f198101835282613d0d565b51902090610d07610cff610cf93660c05160a051613d49565b84615489565b9190916154ba565b610100516001600160a01b0390911603610e1657610d3691610d30610cff92369060e051613d49565b90615489565b61014051600201805490916001600160a01b03918216911603610de05782610d7991610d69610db695610100518861485f565b546001600160a01b03168561485f565b836001600160601b0360a01b610120515416176101205155600a61014051019065ffff0000000082549160201b169065ffff000000001916179055565b7fc8d8ceeeb85b71e935c56c5b01b3172ac921f56f0174509be0c62f01e84c39055f80a360015f55005b60405162461bcd60e51b815260206004820152600e60248201526d4261642073656c6c65722073696760901b6044820152606490fd5b60405162461bcd60e51b815260206004820152600d60248201526c4261642062757965722073696760981b6044820152606490fd5b5061014051600201546001600160a01b0316881415610bcd565b506201518042018042116107995760a43510610b88565b600191501487610b77565b60405162461bcd60e51b8152602060048201526013602482015272105c989a5d195c88185b1c9958591e481cd95d606a1b6044820152606490fd5b3461063a57610ed036613b07565b610ed8614577565b610ee1836145cb565b610eea83614e5b565b825f52600260205260405f209160ff600a840154166006811015610a2e576001610f14911461407c565b6004830154600284018054909391610f5c916001600160a01b0391821691610f4e91610f499116838a61029a600b8c01613f90565b614030565b33908761029a368688613d49565b156107ad57600c8401916001600160401b038211610785578591610f808454613ef8565b601f81116110c7575b505f93601f821160011461105557815f5160206156c45f395f51905f5294955f9161104a575b508260011b905f198460031b1c19161790555b610fd9604051928392604084526040840191613f30565b600360208301520390a2610fec83614949565b546001600160a01b0316917f8bcf349ab354486b68c142cea7235e4f7f31f6a425466f569c8ac1d5bc4d000760406110248584614d0d565b9050600560018060a01b036001870154169501549082519182526020820152a460015f55005b905083013589610faf565b601f198216815f5260205f20905f5b8181106110ac575095835f5160206156c45f395f51905f52969710611093575b5050600182811b019055610fc2565b8401355f19600385901b60f8161c191690558880611084565b8786013583556020978801978b975060019093019201611064565b90919250835f5260205f20601f830160051c8101916020841061110f575b90601f89959493920160051c01905b8181106111015750610f89565b5f81558894506001016110f4565b90915081906110e5565b3461063a57602036600319011261063a57600435611135614577565b61113e816145cb565b6111478161500f565b5f818152600260205260409020600381015461116d906001600160a01b03161515613c7a565b60ff600a820154166006811015610a2e57600161118a911461407c565b61119382614909565b60094291015562278d004201804211610799577f1a9502b6f661da8b0573a0617c121cabe2e93ea05d5239cfab6e9d1734b928c960208392604051908152a233907fd658effe7cf013e5a508b3f1a373b92566494d8b6a7c2970fc964932de1c4dab5f80a360015f55005b3461063a5761120c36613b07565b90611215614577565b61121e836145cb565b61122783614e5b565b825f52600260205260405f209060ff600a830154166006811015610a2e57600261125191146141d2565b600982015462278d008101908181116107995762279b1001809111610799574211156114ac57835f52600460205260ff60405f2054166114675760048201546112b09033906001600160a01b0316866112ab368887613d49565b614ba1565b156107ad57600c8201906001600160401b03841161078557816112d4869354613ef8565b601f8111611415575b505f601f861160011461139c57945f5160206156c45f395f51905f529291816005975f91611391575b508260011b905f198460031b1c19161790555b611330604051928392604084526040840191613f30565b600460208301520390a2825f5260026020526004835f5160206157645f395f51905f526020600a60405f200161136b8560ff8354169261450e565b6113786040518092613b3a565ba36001810154610932906001600160a01b031684614dec565b905083013589611306565b9490601f198216815f5260205f20905f5b8181106113fa575090600597845f5160206156c45f395f51905f5296959493106113e1575b5050600182811b019055611319565b8401355f19600385901b60f8161c1916905588806113d2565b8886013583556020988901988a9750600190930192016113ad565b90809293505f5260205f20601f860160051c8101916020871061145d575b90601f88959493920160051c01905b81811061144f57506112dd565b5f8155879450600101611442565b9091508190611433565b60405162461bcd60e51b815260206004820152601a60248201527f4465636973696f6e20616c7265616479207375626d69747465640000000000006044820152606490fd5b60405162461bcd60e51b8152602060048201526013602482015272151a5b595bdd5d081b9bdd081c995858da1959606a1b6044820152606490fd5b3461063a576114f536613b6b565b6101e052610200529398959294939290919061151182876150af565b61151b848461505f565b61152f6001600160a01b03881615156142c1565b6001600160a01b03891615611995576115536001600160a01b038a163314156142fa565b61155e88151561433a565b61156b610e438210614374565b6115748761510b565b9061158961158183614ff5565b8a10156143b4565b6001600160a01b038616913383141580611982575b6115a7906143f3565b8215801561196e575b6115b990614431565b6115ee7f00000000000000000000000000000000000000000000000000000000000000006001600160a01b0316841415614473565b6115f88c886152e2565b6001546101c05261160b6101c0516144bf565b6001556116333361161e6101c0516153a9565b6101c05161029a366101e05161020051613d49565b156107ad576116446101c051615430565b9b6101c0515f52600260205260405f209360018060a01b038b166001600160601b0360a01b865416178555600185018d60018060a01b03166001600160601b0360a01b8254161790556002850160018060a01b0333166001600160601b0360a01b82541617905560038501906001600160601b0360a01b8254161790556116e8600a850191829065ffff0000000082549160201b169065ffff000000001916179055565b6004840180546001600160a01b0319166001600160a01b038f16179055600584018b905561171960018410156144cd565b62015180830292808404620151801490151715610799576117438361176594600887015542613c2e565b6007850155805463ff0000ff191660189290921b63ff00000016919091179055565b6001600160401b036101e0511161078557611783600b820154613ef8565b601f8111611920575b505f601f6101e05111600114611888579160076117fc94925f5160206156e45f395f51905f52989796945f906101e05161187a575b506101e05160011b905f196101e05160031b1c191617600b8201555b015495604051968796339c60018060a01b03169b6101c0519b89614526565b0390a46040516101c05190916001600160a01b0316907f470292d5e9c87e6d5a100a14c56a434c9f25e9e2be1d5efa70c3b5f9aeda505f5f80a3604081525f5160206157045f395f51905f5261185c604083016101e05161020051613f30565b9160036020820152806101c051930390a260206040516101c0518152f35b90506102005101358e6117c1565b600b82015f5260205f20905f5b6101e051601f1916811061190557506117fc94925f5160206156e45f395f51905f5298979694926007926101e051601f196101e05116106118e6575b505060016101e051811b01600b8201556117dd565b5f1960f86101e05160031b161c19906102005101351690558d806118d1565b90916020600181928561020051013581550193019101611895565b600b82015f5260205f20601f6101e0510160051c81019160206101e05110611964575b601f0160051c01905b818110611959575061178c565b5f815560010161194c565b9091508190611943565b506115b961197b88615221565b90506115b0565b506001600160a01b038b1683141561159e565b60405162461bcd60e51b815260206004820152600a6024820152694275796572207a65726f60b01b6044820152606490fd5b3461063a57606036600319011261063a576119e0613af1565b6004355f52600560205260405f209060018060a01b03165f5260205260405f206044355f52602052602060405f2054604051908152f35b3461063a575f36600319011261063a576020600154604051908152f35b3461063a57611a4236613b07565b90611a4b614577565b611a54836145cb565b611a5d8361500f565b825f52600260205260405f2090600a82019081549360ff85166006811015610a2e576001611a8b9114614287565b611a9a600685015415156140fd565b611aa86009850154156140c0565b6004840154611acd9033906001600160a01b031688611ac8368688613d49565b614afb565b156107ad57600184019460018060a01b0386541633145f14611d6f575060ff835460081c16611d2a57600c8401916001600160401b038211610785578691611b158454613ef8565b601f8111611cd8575b505f93601f8211600114611c6657815f5160206156c45f395f51905f5294955f91611c5b575b508260011b905f198460031b1c19161790555b611b6e604051928392604084526040840191613f30565b600560208301520390a2805461ff0019166101001781555b5460ff8160081c169081611c4d575b5015611c2057611bad604161090b600c840154613ef8565b6041611bbc600b830154613ef8565b03611be657610932600592611bd0856149ab565b546001600160a01b031684614dec565b60015f55005b60405162461bcd60e51b81526020600482015260126024820152714d697373696e672073656c6c65722073696760701b6044820152606490fd5b505033907f88a867d5d9b489598a3f5e5c8d5c1da163ed116737b70444bac744920904a5735f80a3611be0565b60ff915060101c1684611b95565b90508301358a611b44565b601f198216815f5260205f20905f5b818110611cbd575095835f5160206156c45f395f51905f52969710611ca4575b5050600182811b019055611b57565b8401355f19600385901b60f8161c191690558980611c95565b8786013583556020978801978c975060019093019201611c75565b90919250835f5260205f20601f830160051c81019160208410611d20575b90601f8a959493920160051c01905b818110611d125750611b1e565b5f8155899450600101611d05565b9091508190611cf6565b60405162461bcd60e51b815260206004820152601760248201527f427579657220616c7265616479207265717565737465640000000000000000006044820152606490fd5b60101c60ff16611ede57600b8401916001600160401b038211610785578691611d988454613ef8565b601f8111611e8c575b505f93601f8211600114611e1a57815f5160206157045f395f51905f5294955f91611e0f575b508260011b905f198460031b1c19161790555b611df1604051928392604084526040840191613f30565b600560208301520390a2805462ff0000191662010000178155611b86565b90508301358a611dc7565b601f198216815f5260205f20905f5b818110611e71575095835f5160206157045f395f51905f52969710611e58575b5050600182811b019055611dda565b8401355f19600385901b60f8161c191690558980611e49565b8786013583556020978801978c975060019093019201611e29565b90919250835f5260205f20601f830160051c81019160208410611ed4575b90601f8a959493920160051c01905b818110611ec65750611da1565b5f8155899450600101611eb9565b9091508190611eaa565b60405162461bcd60e51b815260206004820152601860248201527f53656c6c657220616c72656164792072657175657374656400000000000000006044820152606490fd5b3461063a57602036600319011261063a576004356060610220604051611f4881613cf1565b5f81525f60208201525f60408201525f838201525f60808201525f60a08201525f60c08201525f60e08201525f6101008201525f6101208201525f6101408201525f6101608201525f6101808201525f6101a08201525f6101c0820152826101e0820152826102008201520152611fbe816145cb565b5f52600260205260405f20604051611fd581613cf1565b81546001600160a01b0390811682526001830154811660208301526002830154811660408301526003830154811660608301526004830154166080820152600582015460a082015260068083015460c0830152600783015460e083015260088301546101008301526009830154610120830152600a83015460ff811691821015610a2e576122079361ffff600d926120cc9461014087015260ff8160081c16151561016087015260ff8160101c16151561018087015260ff8160181c166101a087015260201c166101c08501526120ae600b8201613f90565b6101e08501526120c0600c8201613f90565b61020085015201613f90565b6102208201526040519182916020835260018060a01b03815116602084015260018060a01b03602082015116604084015260018060a01b03604082015116606084015260018060a01b03606082015116608084015260018060a01b0360808201511660a084015260a081015160c084015260c081015160e084015260e081015161010084015261010081015161012084015261012081015161014084015261217e610140820151610160850190613b3a565b610160810151151561018084015261018081015115156101a084015260ff6101a0820151166101c084015261ffff6101c0820151166101e08401526102206121f26121dc6101e0840151610240610200880152610260870190613b47565b610200840151868203601f190184880152613b47565b910151838203601f1901610240850152613b47565b0390f35b3461063a5761221936613b07565b90612222614577565b61222b836145cb565b825f52600260205260405f2061224e60018060a01b03600283015416331461420d565b60ff600a820154166006811015610a2e57600161226b9114614287565b600481015461228b9033906001600160a01b03168661029a368888613d49565b156107ad57600b0180549061229f82613ef8565b1515916001600160401b038511610785576122b990613ef8565b601f81116123fb575b50835f601f8211600114612397575f9161238c575b508460011b905f198660031b1c19161790555b15612331577f9f91c43a9c810c8b0a79dc8dec5c0ed9f7be6ef2090ebde9e83c83fb2bd2ed1b91612328604051928392602084526020840191613f30565b0390a260015f55005b5f5160206157045f395f51905f529161237d60405192839233877f5b09e2f1aabe74a8fc19114f298046a9fa1214365ec1d728e534a291aff17a4f5f80a3604084526040840191613f30565b600360208301520390a2611be0565b9050830135866122d7565b5f8381526020812092508690601f198216905b8181106123e05750106123c7575b5050600184811b0190556122ea565b8401355f19600387901b60f8161c1916905585806123b8565b878401358555600190940193602093840193899350016123aa565b815f5260205f20601f860160051c81019160208710612436575b601f0160051c01905b81811061242b57506122c2565b5f815560010161241e565b9091508190612415565b3461063a57606036600319011261063a57600435602435906004821091821561063a576044356001600160401b03811161063a57612482903690600401613ac4565b919061248c614577565b612495846145cb565b61249e8461500f565b835f52600260205260405f2060ff600a820154166006811015610a2e5760026124c791146141d2565b6124d1848361505f565b845f52600660205260405f205490600184145f1461259b57600101546001600160a01b03163303612569578061250b600180931615614247565b175b845f52600660205260405f20556040519415610a2e577f4e71d2a3ce09c95d708a8bc888cb8838c8419bea1f25f6d07f2c601b173f720e9261255c928652604060208701526040860191613f30565b928033940390a360015f55005b60405162461bcd60e51b815260206004820152600a60248201526927b7363c90313abcb2b960b11b6044820152606490fd5b90600284036125d0576002918201546125be906001600160a01b0316331461420d565b6125ca82821615614247565b1761250d565b60405162461bcd60e51b815260206004820152600c60248201526b496e76616c696420726f6c6560a01b6044820152606490fd5b3461063a5761261236613b07565b919061261c614577565b612625826145cb565b61262e82614e5b565b815f52600260205260405f20600a81019160ff8354166006811015610a2e57612987576007820180544210156129515761266c600884015442613c2e565b90556004820180549095906126929033906001600160a01b03168761029a368688613d49565b156107ad57600c8301916001600160401b0382116107855785916126b68454613ef8565b601f81116128ff575b505f93601f821160011461288d57815f5160206156c45f395f51905f5294955f91612882575b508260011b905f198460031b1c19161790555b61270f604051928392604084526040840191613f30565b600360208301520390a24260068201556127288361497a565b805484546040516370a0823160e01b81526001600160a01b0391821660048201819052909690939092909116602087602481845afa968715610646575f9761284a575b509061278260209260058301958654913390614e8c565b5491546040516370a0823160e01b81526001600160a01b0391821660048201529283916024918391165afa908115610646575f91612816575b506127db6127ce60ff966127e393614179565b9586945460181c16614ff5565b831015614186565b556040519182527f71284872bb4c088a81295dff2513729babbccfeda38a8d824bb1a73bcaab494e60203393a360015f55005b90506020813d602011612842575b8161283160209383613d0d565b8101031261063a57516127db6127bb565b3d9150612824565b919096506020823d60201161287a575b8161286760209383613d0d565b8101031261063a5790519561278261276b565b3d915061285a565b90508301358a6126e5565b601f198216815f5260205f20905f5b8181106128e4575095835f5160206156c45f395f51905f529697106128cb575b5050600182811b0190556126f8565b8401355f19600385901b60f8161c1916905589806128bc565b8786013583556020978801978b97506001909301920161289c565b90919250835f5260205f20601f830160051c81019160208410612947575b90601f89959493920160051c01905b81811061293957506126bf565b5f815588945060010161292c565b909150819061291d565b60405162461bcd60e51b815260206004820152600e60248201526d115cd8dc9bddc8195e1c1a5c995960921b6044820152606490fd5b60405162461bcd60e51b8152602060048201526014602482015273139bdd08185dd85a5d1a5b99c81c185e5b595b9d60621b6044820152606490fd5b3461063a57602036600319011261063a576004356129df614577565b6129e8816145cb565b5f81815260026020819052604090912001546001600160a01b03163303612b3357805f52600260205260405f2090600a82015460ff8116906006821015610a2e57612a37600160ff931461407c565b612a456009850154156140c0565b60081c16612af557612a5c600683015415156140fd565b612a6b60078301544211614136565b60048201546002830180547f489d0b4f43659843daba0a17983382a3e77f5399083ac5405143fcf6806f8ca09260409291612abe91610f49916001600160a01b0390811691168761029a600b8b01613f90565b612ac784614949565b546001600160a01b0316936005612ade8686614d0d565b92905001549082519182526020820152a360015f55005b60405162461bcd60e51b8152602060048201526016602482015275109d5e595c881c995c5d595cdd19590818d85b98d95b60521b6044820152606490fd5b6342e8fb9360e11b5f5260045ffd5b3461063a575f36600319011261063a576020604051610e108152f35b3461063a575f36600319011261063a576020612b786146dd565b604051908152f35b3461063a5760a036600319011261063a576004356024356001600160401b03811161063a57612bb3903690600401613ac4565b9091604435916064356084356001600160401b03811161063a57612bdb903690600401613ac4565b91612be4614577565b612bed856145cb565b4286118061301a575b612bff90613c3b565b845f52600260205260405f209060ff600a830154166006811015610a2e576001612c299114613cb5565b60418503612fe1578590612c3d868a61466a565b612c4960418614613f50565b612c53858561466a565b6004830180546002850180546001600160a01b039081169c9199939493919286918e9116612c83600b8a01613f90565b92612c8d936149dc565b612c9690614030565b600186019b600160a01b600190038d541690600160a01b60019003600389015416600160a01b600190038954169d60058a019e8f5460068c0154916040519460208601967f2175432d6c7eab3a2ef5708fc419540c0f4d274cabd17912c92683ed8466b5e988528d6040880152886060880152608087015260a086015260c085015260e0840152610100830152610120820152856101408201526101408152612d4161016082613d0d565b519020612d4c6146dd565b60405161190160f01b60208201908152602282019290925260428082019390935291825290612d7c606282613d0d565b519020612d8a368486613d49565b612d9391615489565b612d9c906154ba565b6001600160a01b0316612db0811515613d7f565b14612dba90613dbe565b612dc49185614782565b8954612dda91906001600160a01b03168461485f565b5488546001600160a01b039081169116612df5368787613d49565b92612dff936149dc565b156107ad57600c01916001600160401b0381116107855782612e22869454613ef8565b601f8111612f8d575b505f601f8311600114612ef25792825f5160206156c45f395f51905f5292604096947f8bcf349ab354486b68c142cea7235e4f7f31f6a425466f569c8ac1d5bc4d000798965f91612ee7575b508260011b905f198460031b1c19161790555b612e9e865192839288845288840191613f30565b600360208301520390a2612eb184614949565b546001600160a01b031694612ec68685614d0d565b91905060018060a01b0390541694549082519182526020820152a460015f55005b90508301358c612e77565b601f19831690825f5260205f20915f5b818110612f725750927f8bcf349ab354486b68c142cea7235e4f7f31f6a425466f569c8ac1d5bc4d00079795928592604098965f5160206156c45f395f51905f529610612f59575b5050600182811b019055612e8a565b8401355f19600385901b60f8161c191690558b80612f4a565b82870135845589975060019093019260209283019201612f02565b9080929394505f5260205f20601f840160051c81019160208510612fd7575b90601f8896959493920160051c01905b818110612fc95750612e2b565b5f8155879550600101612fbc565b9091508190612fac565b60405162461bcd60e51b81526020600482015260116024820152704d697373696e6720636f6f72642073696760781b6044820152606490fd5b50620151804201804211610799578610612bf6565b3461063a57608036600319011261063a576004356024356006811090811561063a576044356001600160401b03811161063a57613070903690600401613ac4565b9190926064356001600160401b03811161063a57613092903690600401613ac4565b93909161309d614577565b6130a6876145cb565b5f878152600260205260409020600301546001600160a01b0316330361366d57865f52600260205260405f209560ff600a880154166006811015610a2e5760026130f09114613cb5565b5f936003861496878015613660575b1561362657895f52600660205260405f20546001811615159081613619575b5060098a015462278d008101908181116107995762279b100180911161079957811561360f575b50156135ca57895f52600460205260ff60405f20541661359357895f52600460205260405f20600160ff19825416179055613199873360018060a01b0360048d0154168d613194368789613d49565b614c47565b156107ad57600d8901916001600160401b038211610785578a916131bd8454613ef8565b601f8111613541575b505f93601f82116001146134b157817f57412d44e703b55c5b25344650a0be1705d9c1d43b83c69c9ff84db2f4d1b0e394955f916134a6575b508260011b905f198460031b1c19161790555b613229604051928392604084526040840191613f30565b613236602083018b613b3a565b0390a2875f526002602052600a60405f2001916132588660ff8554169461450e565b15610a2e576132bd7f4e71d2a3ce09c95d708a8bc888cb8838c8419bea1f25f6d07f2c601b173f720e91868a5f5160206157645f395f51905f52602082976132a36040518092613b3a565ba36040519460038652604060208701526040860191613f30565b928033940390a3610a2e5781156134935760028301546001600160a01b03165b845f5260026020528460405f20935f14613451575060ff600a600585015494015460181c16600281115f14613447576001190160ff81116107995761332190614fe4565b60648402848104606414851517156107995761271090049080821061343f5750905b838210156133fa577ffc4c84ff0bf9d937dea068e6c13c3a16c307d76a1c5b5173c40f03f68f421e0094865f5160206157245f395f51905f52608060059461338c87839a614179565b6040519160018060a01b03168252602082015260018060a01b037f0000000000000000000000000000000000000000000000000000000000000000166040820152866060820152a201546133e36040518094613b3a565b33602084015260408301526060820152a260015f55005b60405162461bcd60e51b815260206004820152601860248201527f416d6f756e7420746f6f20736d616c6c20666f722066656500000000000000006044820152606490fd5b905090613343565b506133215f614fe4565b7ffc4c84ff0bf9d937dea068e6c13c3a16c307d76a1c5b5173c40f03f68f421e00946005915f5160206157245f395f51905f5260808481980154955f9661338c565b60018301546001600160a01b03166132dd565b90508301358e6131ff565b601f198216815f5260205f20905f5b81811061351b575095837f57412d44e703b55c5b25344650a0be1705d9c1d43b83c69c9ff84db2f4d1b0e3969710613502575b5050600182811b019055613212565b8401355f19600385901b60f8161c191690558d806134f3565b92949693955090602060018192868a013581550194019201908e959391969492966134c0565b90919250835f5260205f20601f830160051c81019160208410613589575b90601f8e959493920160051c01905b81811061357b57506131c6565b5f81558d945060010161356e565b909150819061355f565b60405162461bcd60e51b815260206004820152600f60248201526e105b1c9958591e48191958da591959608a1b6044820152606490fd5b60405162461bcd60e51b815260206004820152601860248201527f4e6565642065766964656e6365206f722074696d656f757400000000000000006044820152606490fd5b905042118b613145565b600291501615158b61311e565b60405162461bcd60e51b815260206004820152601260248201527124b73b30b634b2103932b9b7b63aba34b7b760711b6044820152606490fd5b505f9550600487146130ff565b6372cc71e760e11b5f5260045ffd5b3461063a575f36600319011261063a57602060405162278d008152f35b3461063a57606036600319011261063a576004356136b5613af1565b60443590600682101561063a576136cb836145cb565b5f83815260026020526040902060018101546001600160a01b03838116911681149081156137f1575b81156137da575b50156137a157613757610cd29261376d602096610cd26137969561371d613e00565b8a815191012061372b613e31565b8b815191012091600460018060a01b0391015416968791610cd26040519384928f840196469188613e50565b519020976040519485938b850197309189613e9c565b5190206040519283918683019586909160429261190160f01b8352600283015260228201520190565b519020604051908152f35b60405162461bcd60e51b8152602060048201526011602482015270139bdd0818481c185c9d1a58da5c185b9d607a1b6044820152606490fd5b60038301546001600160a01b0316149050856136fb565b60028301546001600160a01b0316811491506136f4565b3461063a57602036600319011261063a576004355f526006602052602060405f2054604051908152f35b3461063a575f36600319011261063a576040517f00000000000000000000000000000000000000000000000000000000000000006001600160a01b03168152602090f35b3461063a57608036600319011261063a576004356024356001600160401b03811161063a576138a9903690600401613ac4565b60443592916064356138b9614577565b6138c2846145cb565b42851180613aaf575b6138d490613c3b565b5f84815260026020526040902060038101549093906001600160a01b03166138fd811515613c7a565b60ff600a86015416916006831015610a2e57613a3394613a27613a2d936139296001613a019714613cb5565b613933848461466a565b6139f98a60018060a01b0360018c015416809d8c600260018060a01b0391015416948d60018060a01b0381541660066005830154920154926040519560208701977f3ec4667e1948e2e97f54b4602b6bbfa8f3f98ff1036916ce75d84c59f9558f0289526040880152606087015288608087015260a086015260c085015260e08401526101008301526101208201528961014082015261014081526139da61016082613d0d565b519020610cd26139eb610caa6146dd565b519020610d30368787613d49565b9690966154ba565b6001600160a01b0386169a613a178c1515613d7f565b8b14908115613aa5575b50613dbe565b87614782565b8461485f565b613a3c82614909565b60094291015562278d004201804211610799577f1a9502b6f661da8b0573a0617c121cabe2e93ea05d5239cfab6e9d1734b928c960208392604051908152a27fd658effe7cf013e5a508b3f1a373b92566494d8b6a7c2970fc964932de1c4dab5f80a360015f55005b90508a148b613a21565b506201518042018042116107995785106138cb565b9181601f8401121561063a578235916001600160401b03831161063a576020838186019501011161063a57565b602435906001600160a01b038216820361063a57565b90604060031983011261063a5760043591602435906001600160401b03821161063a57613b3691600401613ac4565b9091565b906006821015610a2e5752565b805180835260209291819084018484015e5f828201840152601f01601f1916010190565b61012060031982011261063a576004356001600160a01b038116810361063a57916024356001600160a01b038116810361063a579160443591606435916084356001600160a01b038116810361063a579160a43561ffff8116810361063a579160c4356001600160401b03811161063a5781613be991600401613ac4565b9290929160e4356001600160401b03811161063a5781613c0b91600401613ac4565b9290929161010435906001600160401b03821161063a57613b3691600401613ac4565b9190820180921161079957565b15613c4257565b60405162461bcd60e51b815260206004820152601060248201526f496e76616c696420646561646c696e6560801b6044820152606490fd5b15613c8157565b60405162461bcd60e51b815260206004820152600c60248201526b2d32b9379030b93134ba32b960a11b6044820152606490fd5b15613cbc57565b60405162461bcd60e51b815260206004820152600d60248201526c496e76616c696420737461746560981b6044820152606490fd5b61024081019081106001600160401b0382111761078557604052565b90601f801991011681019081106001600160401b0382111761078557604052565b6001600160401b03811161078557601f01601f191660200190565b929192613d5582613d2e565b91613d636040519384613d0d565b82948184528183011161063a578281602093845f960137010152565b15613d8657565b60405162461bcd60e51b815260206004820152601060248201526f496e76616c6964207265636f7665727960801b6044820152606490fd5b15613dc557565b60405162461bcd60e51b81526020600482015260136024820152722ab730baba3437b934bd32b21039b4b3b732b960691b6044820152606490fd5b60405190613e0f604083613d0d565b601382527214185b1a5b991c9bdb5954185e55d85b1b195d606a1b6020830152565b60405190613e40604083613d0d565b60018252603160f81b6020830152565b926080929594919560a08501967f8b73c3c69bb8fe3d512ecc4cf759cc79239f7b179b0ffacaa9a75d522b39400f865260208601526040850152606084015260018060a01b0316910152565b7f03ead94b7a0d2ab026418d8f153693558d351b0ee03896a32629040faf1baff4815260208101919091526001600160a01b0391821660408201529181166060830152909116608082015260ff9190911660a082015260c00190565b90600182811c92168015613f26575b6020831014613f1257565b634e487b7160e01b5f52602260045260245ffd5b91607f1691613f07565b908060209392818452848401375f828201840152601f01601f1916010190565b15613f5757565b60405162461bcd60e51b81526020600482015260116024820152704d697373696e672062757965722073696760781b6044820152606490fd5b9060405191825f825492613fa384613ef8565b808452936001811690811561400e5750600114613fca575b50613fc892500383613d0d565b565b90505f9291925260205f20905f915b818310613ff2575050906020613fc8928201015f613fbb565b6020919350806001915483858901015201910190918492613fd9565b905060209250613fc894915060ff191682840152151560051b8201015f613fbb565b1561403757565b60405162461bcd60e51b815260206004820152601a60248201527f53656c6c657220736967206e6f7420666f722072656c656173650000000000006044820152606490fd5b1561408357565b60405162461bcd60e51b81526020600482015260156024820152744e6f74206177616974696e672064656c697665727960581b6044820152606490fd5b156140c757565b60405162461bcd60e51b815260206004820152600e60248201526d446973707574652061637469766560901b6044820152606490fd5b1561410457565b60405162461bcd60e51b815260206004820152600a602482015269139bc819195c1bdcda5d60b21b6044820152606490fd5b1561413d57565b60405162461bcd60e51b815260206004820152601460248201527313585d1d5c9a5d1e481b9bdd081c995858da195960621b6044820152606490fd5b9190820391821161079957565b1561418d57565b60405162461bcd60e51b815260206004820152601f60248201527f416d6f756e7420746f6f20736d616c6c206166746572207472616e73666572006044820152606490fd5b156141d957565b60405162461bcd60e51b815260206004820152600c60248201526b139bdd08191a5cdc1d5d195960a21b6044820152606490fd5b1561421457565b60405162461bcd60e51b815260206004820152600b60248201526a27b7363c9039b2b63632b960a91b6044820152606490fd5b1561424e57565b60405162461bcd60e51b8152602060048201526011602482015270105b1c9958591e481cdd589b5a5d1d1959607a1b6044820152606490fd5b1561428e57565b60405162461bcd60e51b815260206004820152600b60248201526a57726f6e6720737461746560a81b6044820152606490fd5b156142c857565b60405162461bcd60e51b815260206004820152600a602482015269546f6b656e207a65726f60b01b6044820152606490fd5b1561430157565b60405162461bcd60e51b815260206004820152601160248201527042757965722073656c6c65722073616d6560781b6044820152606490fd5b1561434157565b60405162461bcd60e51b815260206004820152600b60248201526a416d6f756e74207a65726f60a81b6044820152606490fd5b1561437b57565b60405162461bcd60e51b81526020600482015260116024820152704d6174757269747920746f6f206c6f6e6760781b6044820152606490fd5b156143bb57565b60405162461bcd60e51b815260206004820152601060248201526f105b5bdd5b9d081d1bdbc81cdb585b1b60821b6044820152606490fd5b156143fa57565b60405162461bcd60e51b815260206004820152600f60248201526e24b73b30b634b21030b93134ba32b960891b6044820152606490fd5b1561443857565b60405162461bcd60e51b815260206004820152601360248201527241726269746572206d75737420626520454f4160681b6044820152606490fd5b1561447a57565b60405162461bcd60e51b815260206004820152601e60248201527f417262697465722063616e6e6f742062652066656520726563656976657200006044820152606490fd5b5f1981146107995760010190565b156144d457565b60405162461bcd60e51b81526020600482015260126024820152714d696e203120646179206d6174757269747960701b6044820152606490fd5b906006811015610a2e5760ff80198354169116179055565b969492614574989692614566959260018060a01b03168952602089015260018060a01b03166040880152606087015260c0608087015260c0860191613f30565b9260a0818503910152613f30565b90565b60025f54146145865760025f55565b60405162461bcd60e51b815260206004820152601f60248201527f5265656e7472616e637947756172643a207265656e7472616e742063616c6c006044820152606490fd5b60015481101561462d575f908152600260205260409020600101546001600160a01b0316156145f657565b60405162461bcd60e51b815260206004820152600f60248201526e139bdd081a5b9a5d1a585b1a5e9959608a1b6044820152606490fd5b60405162461bcd60e51b8152602060048201526015602482015274115cd8dc9bddc8191bd95cc81b9bdd08195e1a5cdd605a1b6044820152606490fd5b906041036146ce575f5160206157445f395f51905f52602060408301355f1a920135116146bf57601b81141590816146b3575b506146a457565b6307839aef60e21b5f5260045ffd5b601c915014155f61469d565b6354b34b0360e01b5f5260045ffd5b6354f3472360e01b5f5260045ffd5b467f000000000000000000000000000000000000000000000000000000000000000003614728577f000000000000000000000000000000000000000000000000000000000000000090565b600d602060405161473a604082613d0d565b828152016c50616c696e64726f6d6550617960981b815220610cd261477c614760613e31565b6020815191012060405192839160208301953091469188613e50565b51902090565b916041036146ce57602081013560408201355f1a5f5160206157445f395f51905f5282116146bf57601b8114159081614853575b506146a4576040519060208201923060601b84528460348401523560548301526074820152466094820152609481526147f060b482613d0d565b519020805f52600360205260ff60405f20541661484457805f52600360205260405f20600160ff198254161790557f5cf314d14d264e3917100f2209e080567dfef92e06bde70b72b0b21b38bc17d15f80a3565b63900bb2c960e01b5f5260045ffd5b601c915014155f6147b6565b908260081c825f52600560205260405f2060018060a01b0383165f5260205260405f20815f5260205260405f205491600160ff86161b8084166148fa577fbae8ea991a760004b9ed95b1be79b85f9327ac74867c0e7643319b89e1bc719193602093865f526005855260405f2060018060a01b0385165f52855260405f20905f5284521760405f205560405194855260018060a01b031693a3565b633ab3447f60e11b5f5260045ffd5b600290805f52816020525f5160206157645f395f51905f526020600a60405f20016149398560ff8354169261450e565b6149466040518092613b3a565ba3565b600390805f5260026020525f5160206157645f395f51905f526020600a60405f20016149398560ff8354169261450e565b600190805f5260026020525f5160206157645f395f51905f526020600a60405f20016149398560ff8354169261450e565b600590805f5260026020525f5160206157645f395f51905f526020600a60405f20016149398560ff8354169261450e565b9290926041815103614af3576001600160a01b038216938415614aea57602082015190606060408401519301515f1a905f5160206157445f395f51905f528411614ad457601b82141580614adf575b614ad457610cd2614abf614ac797610cff97614a95614a48613e00565b6020815191012083614a79614a5b613e31565b6020815191012092610cd26040519384926020840196469188613e50565b51902095610cd260036040519485936020850197309189613e9c565b519020604051928391602083019586909160429261190160f01b8352600283015260228201520190565b5190206155be565b6001600160a01b03161490565b505050505050505f90565b50601c821415614a2b565b50505050505f90565b505050505f90565b9290926041815103614af3576001600160a01b038216938415614aea57602082015190606060408401519301515f1a905f5160206157445f395f51905f528411614ad457601b82141580614b96575b614ad457610cd2614abf614ac797610cff97614a95614b67613e00565b6020815191012083614b7a614a5b613e31565b51902095610cd260056040519485936020850197309189613e9c565b50601c821415614b4a565b9290926041815103614af3576001600160a01b038216938415614aea57602082015190606060408401519301515f1a905f5160206157445f395f51905f528411614ad457601b82141580614c3c575b614ad457610cd2614abf614ac797610cff97614a95614c0d613e00565b6020815191012083614c20614a5b613e31565b51902095610cd260046040519485936020850197309189613e9c565b50601c821415614bf0565b909291926041825103614aea576001600160a01b038316948515614d0357602083015191606060408501519401515f1a915f5160206157445f395f51905f528511614cec57601b83141580614cf8575b614cec57614ca3613e00565b6020815191012087614cb6614a5b613e31565b519020916006821015610a2e57614ac797610cff97614a95614abf93610cd2610cd2966040519485936020850197309189613e9c565b50505050505050505f90565b50601c831415614c97565b5050505050505f90565b9091815f52600260205260405f209160ff600a600585015494015460181c16600281115f14614de2576001190160ff811161079957614d4b90614fe4565b606484028481046064148515171561079957612710900490808210614dda5750925b808410156133fa576080614d8f855f5160206157245f395f51905f5293614179565b604080516001600160a01b039889168152602081018390527f0000000000000000000000000000000000000000000000000000000000000000909816908801526060870186905295a2565b905092614d6d565b50614d4b5f614fe4565b91825f526002602052600560405f200154925f5160206157245f395f51905f5260805f946040519060018060a01b0316815286602082015260018060a01b037f00000000000000000000000000000000000000000000000000000000000000001660408201525f6060820152a2565b5f908152600260205260409020600101546001600160a01b03163303614e7d57565b6386efbb5560e01b5f5260045ffd5b6040516323b872dd60e01b602082019081526001600160a01b039384166024830152929093166044840152606480840194909452928252614f4b925f908190614ed6608486613d0d565b60018060a01b03169260405194614eee604087613d0d565b602086527f5361666545524332303a206c6f772d6c6576656c2063616c6c206661696c65646020870152519082855af13d15614fdc573d91614f2f83613d2e565b92614f3d6040519485613d0d565b83523d5f602085013e615626565b8051908115918215614fb9575b505015614f6157565b60405162461bcd60e51b815260206004820152602a60248201527f5361666545524332303a204552433230206f7065726174696f6e20646964206e6044820152691bdd081cdd58d8d9595960b21b6064820152608490fd5b819250906020918101031261063a5760200151801515810361063a575f80614f58565b606091615626565b60ff16604d811161079957600a0a90565b614ffe90614fe4565b80600a0290600a8204036107995790565b5f52600260205260405f2060018060a01b036001820154163314159081615047575b5061503857565b631cfe2f0560e11b5f5260045ffd5b600201546001600160a01b031633141590505f615031565b506101f41061506a57565b60405162461bcd60e51b815260206004820152601860248201527f496e76616c696420495046532068617368206c656e67746800000000000000006044820152606490fd5b5080151590816150fe575b50156150c257565b60405162461bcd60e51b8152602060048201526014602482015273092dcecc2d8d2c840e8d2e8d8ca40d8cadccee8d60631b6044820152606490fd5b6101f4915011155f6150ba565b60405163313ce56760e01b815290602090829060049082906001600160a01b0316617530fa5f91816151e3575b506151825760405162461bcd60e51b815260206004820152601f60248201527f546f6b656e206d75737420696d706c656d656e7420646563696d616c732829006044820152606490fd5b60ff8116600681101590816151d7575b501561519b5790565b60405162461bcd60e51b8152602060048201526014602482015273556e737570706f7274656420646563696d616c7360601b6044820152606490fd5b6012915011155f615192565b9091506020813d602011615219575b816151ff60209383613d0d565b8101031261063a575160ff8116810361063a57905f615138565b3d91506151f2565b803b80156152db576017036152d657803b9061523c82613d2e565b9161524a6040519384613d0d565b8083525f6020840180933c81511561529b57516001600160f81b03191660ef60f81b1490816152af575b8161527d575090565b809150516002101561529b57602201516001600160f81b0319161590565b634e487b7160e01b5f52603260045260245ffd5b809150516001101561529b5760218101516001600160f81b031916600160f81b1490615274565b505f90565b5050600190565b9061ffff16906107d0821161534e576001600160a01b03161580159190615345575b501561530c57565b60405162461bcd60e51b81526020600482015260116024820152702332b2903732b2b2399030b93134ba32b960791b6044820152606490fd5b9050155f615304565b60405162461bcd60e51b8152602060048201526014602482015273082e4c4d2e8cae440cccaca40e8dede40d0d2ced60631b6044820152606490fd5b9081602091031261063a57516001600160a01b038116810361063a5790565b604051633aa159bd60e21b815230600482015260248101919091526020816044817f00000000000000000000000000000000000000000000000000000000000000006001600160a01b03165afa908115610646575f91615407575090565b614574915060203d602011615429575b6154218183613d0d565b81019061538a565b503d615417565b60405163a5e3875160e01b815260048101919091526020816024815f7f00000000000000000000000000000000000000000000000000000000000000006001600160a01b03165af1908115610646575f91615407575090565b9060418151145f146154b157613b3691602082015190606060408401519301515f1a906155be565b50505f90600290565b6005811015610a2e57806154cb5750565b600181036155185760405162461bcd60e51b815260206004820152601860248201527f45434453413a20696e76616c6964207369676e617475726500000000000000006044820152606490fd5b600281036155655760405162461bcd60e51b815260206004820152601f60248201527f45434453413a20696e76616c6964207369676e6174757265206c656e677468006044820152606490fd5b60031461556e57565b60405162461bcd60e51b815260206004820152602260248201527f45434453413a20696e76616c6964207369676e6174757265202773272076616c604482015261756560f01b6064820152608490fd5b5f5160206157445f395f51905f52841161561b576020935f9360ff60809460405194855216868401526040830152606082015282805260015afa15610646575f516001600160a01b0381161561561357905f90565b505f90600190565b505050505f90600390565b91929015615688575081511561563a575090565b3b156156435790565b60405162461bcd60e51b815260206004820152601d60248201527f416464726573733a2063616c6c20746f206e6f6e2d636f6e74726163740000006044820152606490fd5b82519091501561569b5750805190602001fd5b60405162461bcd60e51b8152602060048201529081906156bf906024830190613b47565b0390fdfe174e8bcc6cd491d4b67e8de6434204bcd60d47ac398eb1b84c75377f8143e055d3e0574cb952cf8d88c9c2b97882e6000237da1d62a64753eaddaf4d9ce7351b9eedc423c5404cfbb1c4a1a8143c199705d49105373899268143a1a9e3f06bb54efd0eb8137437cc21ded7c1b056cd5a6e457ad8830e42d74bb9ba46144dbe837fffffffffffffffffffffffffffffff5d576e7357a4501ddfe92f46681b20a018e785d11512625ba8e5486b7d963f337dfc0a628752fe18e284b0375eefe46ca2646970667358221220a52d78941b92c47a31af59c61d87eac3ca541af17bd6ff4a80cc21f29730635a64736f6c634300081d0033",
  "linkReferences": {},
  "deployedLinkReferences": {},
  "immutableReferences": {
    "2594": [
      {
        "length": 32,
        "start": 559
      },
      {
        "length": 32,
        "start": 2675
      },
      {
        "length": 32,
        "start": 3052
      },
      {
        "length": 32,
        "start": 5566
      },
      {
        "length": 32,
        "start": 13224
      },
      {
        "length": 32,
        "start": 19881
      },
      {
        "length": 32,
        "start": 20013
      }
    ],
    "2598": [
      {
        "length": 32,
        "start": 14407
      },
      {
        "length": 32,
        "start": 21452
      },
      {
        "length": 32,
        "start": 21582
      }
    ],
    "2601": [
      {
        "length": 32,
        "start": 18182
      }
    ],
    "2604": [
      {
        "length": 32,
        "start": 18144
      }
    ]
  },
  "inputSourceName": "project/contracts/PalindromePay.sol",
  "buildInfoId": "solc-0_8_29-1fdb181979b3d60296ad1fd3cd48e14aae1a9383"
}