{
  "_format": "hh3-artifact-1",
  "contractName": "PalindromeCryptoEscrow",
  "sourceName": "contracts/PalindromeCryptoEscrow.sol",
  "abi": [
    {
      "inputs": [
        {
          "internalType": "address",
          "name": "initialAllowedToken",
          "type": "address"
        }
      ],
      "stateMutability": "nonpayable",
      "type": "constructor"
    },
    {
      "anonymous": false,
      "inputs": [
        {
          "indexed": true,
          "internalType": "uint256",
          "name": "escrowId",
          "type": "uint256"
        },
        {
          "indexed": true,
          "internalType": "address",
          "name": "seller",
          "type": "address"
        },
        {
          "indexed": false,
          "internalType": "uint256",
          "name": "amount",
          "type": "uint256"
        },
        {
          "indexed": false,
          "internalType": "uint256",
          "name": "fee",
          "type": "uint256"
        }
      ],
      "name": "AutoReleased",
      "type": "event"
    },
    {
      "anonymous": false,
      "inputs": [
        {
          "indexed": true,
          "internalType": "uint256",
          "name": "escrowId",
          "type": "uint256"
        },
        {
          "indexed": true,
          "internalType": "address",
          "name": "initiator",
          "type": "address"
        },
        {
          "indexed": false,
          "internalType": "uint256",
          "name": "amount",
          "type": "uint256"
        },
        {
          "indexed": false,
          "internalType": "uint256",
          "name": "fee",
          "type": "uint256"
        }
      ],
      "name": "Canceled",
      "type": "event"
    },
    {
      "anonymous": false,
      "inputs": [
        {
          "indexed": true,
          "internalType": "uint256",
          "name": "escrowId",
          "type": "uint256"
        },
        {
          "indexed": true,
          "internalType": "address",
          "name": "buyer",
          "type": "address"
        },
        {
          "indexed": true,
          "internalType": "address",
          "name": "seller",
          "type": "address"
        },
        {
          "indexed": false,
          "internalType": "uint256",
          "name": "amount",
          "type": "uint256"
        },
        {
          "indexed": false,
          "internalType": "uint256",
          "name": "fee",
          "type": "uint256"
        }
      ],
      "name": "DeliveryConfirmed",
      "type": "event"
    },
    {
      "anonymous": false,
      "inputs": [
        {
          "indexed": true,
          "internalType": "uint256",
          "name": "escrowId",
          "type": "uint256"
        },
        {
          "indexed": true,
          "internalType": "address",
          "name": "sender",
          "type": "address"
        },
        {
          "indexed": true,
          "internalType": "uint256",
          "name": "role",
          "type": "uint256"
        },
        {
          "indexed": false,
          "internalType": "string",
          "name": "ipfsHash",
          "type": "string"
        },
        {
          "indexed": false,
          "internalType": "uint256",
          "name": "disputeStatus",
          "type": "uint256"
        }
      ],
      "name": "DisputeMessagePosted",
      "type": "event"
    },
    {
      "anonymous": false,
      "inputs": [
        {
          "indexed": true,
          "internalType": "uint256",
          "name": "escrowId",
          "type": "uint256"
        },
        {
          "indexed": false,
          "internalType": "enum PalindromeCryptoEscrow.State",
          "name": "resolution",
          "type": "uint8"
        },
        {
          "indexed": false,
          "internalType": "address",
          "name": "arbiter",
          "type": "address"
        },
        {
          "indexed": false,
          "internalType": "uint256",
          "name": "amount",
          "type": "uint256"
        },
        {
          "indexed": false,
          "internalType": "uint256",
          "name": "fee",
          "type": "uint256"
        }
      ],
      "name": "DisputeResolved",
      "type": "event"
    },
    {
      "anonymous": false,
      "inputs": [
        {
          "indexed": true,
          "internalType": "uint256",
          "name": "escrowId",
          "type": "uint256"
        },
        {
          "indexed": true,
          "internalType": "address",
          "name": "initiator",
          "type": "address"
        }
      ],
      "name": "DisputeStarted",
      "type": "event"
    },
    {
      "anonymous": false,
      "inputs": [
        {
          "indexed": true,
          "internalType": "uint256",
          "name": "escrowId",
          "type": "uint256"
        },
        {
          "indexed": true,
          "internalType": "address",
          "name": "buyer",
          "type": "address"
        },
        {
          "indexed": true,
          "internalType": "address",
          "name": "seller",
          "type": "address"
        },
        {
          "indexed": false,
          "internalType": "address",
          "name": "token",
          "type": "address"
        },
        {
          "indexed": false,
          "internalType": "uint256",
          "name": "amount",
          "type": "uint256"
        },
        {
          "indexed": false,
          "internalType": "address",
          "name": "arbiter",
          "type": "address"
        },
        {
          "indexed": false,
          "internalType": "uint256",
          "name": "maturityTime",
          "type": "uint256"
        },
        {
          "indexed": false,
          "internalType": "string",
          "name": "title",
          "type": "string"
        },
        {
          "indexed": false,
          "internalType": "string",
          "name": "ipfsHash",
          "type": "string"
        }
      ],
      "name": "EscrowCreated",
      "type": "event"
    },
    {
      "anonymous": false,
      "inputs": [
        {
          "indexed": true,
          "internalType": "address",
          "name": "previousOwner",
          "type": "address"
        },
        {
          "indexed": true,
          "internalType": "address",
          "name": "newOwner",
          "type": "address"
        }
      ],
      "name": "OwnershipTransferred",
      "type": "event"
    },
    {
      "anonymous": false,
      "inputs": [
        {
          "indexed": true,
          "internalType": "uint256",
          "name": "escrowId",
          "type": "uint256"
        },
        {
          "indexed": true,
          "internalType": "address",
          "name": "buyer",
          "type": "address"
        },
        {
          "indexed": false,
          "internalType": "uint256",
          "name": "amount",
          "type": "uint256"
        }
      ],
      "name": "PaymentDeposited",
      "type": "event"
    },
    {
      "anonymous": false,
      "inputs": [
        {
          "indexed": true,
          "internalType": "uint256",
          "name": "escrowId",
          "type": "uint256"
        },
        {
          "indexed": true,
          "internalType": "address",
          "name": "initiator",
          "type": "address"
        },
        {
          "indexed": false,
          "internalType": "uint256",
          "name": "amount",
          "type": "uint256"
        },
        {
          "indexed": false,
          "internalType": "uint256",
          "name": "fee",
          "type": "uint256"
        }
      ],
      "name": "Refunded",
      "type": "event"
    },
    {
      "anonymous": false,
      "inputs": [
        {
          "indexed": true,
          "internalType": "uint256",
          "name": "escrowId",
          "type": "uint256"
        },
        {
          "indexed": true,
          "internalType": "address",
          "name": "requester",
          "type": "address"
        }
      ],
      "name": "RequestCancel",
      "type": "event"
    },
    {
      "anonymous": false,
      "inputs": [
        {
          "indexed": true,
          "internalType": "address",
          "name": "token",
          "type": "address"
        },
        {
          "indexed": false,
          "internalType": "bool",
          "name": "allowed",
          "type": "bool"
        }
      ],
      "name": "TokenAllowed",
      "type": "event"
    },
    {
      "inputs": [],
      "name": "FEE_BPS",
      "outputs": [
        {
          "internalType": "uint256",
          "name": "",
          "type": "uint256"
        }
      ],
      "stateMutability": "view",
      "type": "function"
    },
    {
      "inputs": [
        {
          "internalType": "address",
          "name": "",
          "type": "address"
        }
      ],
      "name": "allowedTokens",
      "outputs": [
        {
          "internalType": "bool",
          "name": "",
          "type": "bool"
        }
      ],
      "stateMutability": "view",
      "type": "function"
    },
    {
      "inputs": [
        {
          "internalType": "uint256",
          "name": "escrowId",
          "type": "uint256"
        }
      ],
      "name": "autoRelease",
      "outputs": [],
      "stateMutability": "nonpayable",
      "type": "function"
    },
    {
      "inputs": [
        {
          "internalType": "uint256",
          "name": "escrowId",
          "type": "uint256"
        }
      ],
      "name": "cancelByTimeout",
      "outputs": [],
      "stateMutability": "nonpayable",
      "type": "function"
    },
    {
      "inputs": [
        {
          "internalType": "uint256",
          "name": "escrowId",
          "type": "uint256"
        }
      ],
      "name": "confirmDelivery",
      "outputs": [],
      "stateMutability": "nonpayable",
      "type": "function"
    },
    {
      "inputs": [
        {
          "internalType": "uint256",
          "name": "escrowId",
          "type": "uint256"
        },
        {
          "internalType": "bytes",
          "name": "signature",
          "type": "bytes"
        },
        {
          "internalType": "uint256",
          "name": "deadline",
          "type": "uint256"
        },
        {
          "internalType": "uint256",
          "name": "nonce",
          "type": "uint256"
        }
      ],
      "name": "confirmDeliverySigned",
      "outputs": [],
      "stateMutability": "nonpayable",
      "type": "function"
    },
    {
      "inputs": [
        {
          "internalType": "address",
          "name": "token",
          "type": "address"
        },
        {
          "internalType": "address",
          "name": "buyer",
          "type": "address"
        },
        {
          "internalType": "uint256",
          "name": "amount",
          "type": "uint256"
        },
        {
          "internalType": "uint256",
          "name": "maturityTimeDays",
          "type": "uint256"
        },
        {
          "internalType": "string",
          "name": "title",
          "type": "string"
        },
        {
          "internalType": "string",
          "name": "ipfsHash",
          "type": "string"
        }
      ],
      "name": "createEscrow",
      "outputs": [
        {
          "internalType": "uint256",
          "name": "",
          "type": "uint256"
        }
      ],
      "stateMutability": "nonpayable",
      "type": "function"
    },
    {
      "inputs": [
        {
          "internalType": "uint256",
          "name": "escrowId",
          "type": "uint256"
        }
      ],
      "name": "deposit",
      "outputs": [],
      "stateMutability": "nonpayable",
      "type": "function"
    },
    {
      "inputs": [
        {
          "internalType": "uint256",
          "name": "",
          "type": "uint256"
        }
      ],
      "name": "disputeStatus",
      "outputs": [
        {
          "internalType": "uint256",
          "name": "",
          "type": "uint256"
        }
      ],
      "stateMutability": "view",
      "type": "function"
    },
    {
      "inputs": [
        {
          "internalType": "uint256",
          "name": "",
          "type": "uint256"
        }
      ],
      "name": "escrows",
      "outputs": [
        {
          "internalType": "address",
          "name": "token",
          "type": "address"
        },
        {
          "internalType": "address",
          "name": "buyer",
          "type": "address"
        },
        {
          "internalType": "address",
          "name": "seller",
          "type": "address"
        },
        {
          "internalType": "address",
          "name": "arbiter",
          "type": "address"
        },
        {
          "internalType": "uint256",
          "name": "amount",
          "type": "uint256"
        },
        {
          "internalType": "uint256",
          "name": "depositTime",
          "type": "uint256"
        },
        {
          "internalType": "uint256",
          "name": "maturityTime",
          "type": "uint256"
        },
        {
          "internalType": "enum PalindromeCryptoEscrow.State",
          "name": "state",
          "type": "uint8"
        },
        {
          "internalType": "bool",
          "name": "buyerCancelRequested",
          "type": "bool"
        },
        {
          "internalType": "bool",
          "name": "sellerCancelRequested",
          "type": "bool"
        },
        {
          "internalType": "uint256",
          "name": "nonce",
          "type": "uint256"
        }
      ],
      "stateMutability": "view",
      "type": "function"
    },
    {
      "inputs": [],
      "name": "nextEscrowId",
      "outputs": [
        {
          "internalType": "uint256",
          "name": "",
          "type": "uint256"
        }
      ],
      "stateMutability": "view",
      "type": "function"
    },
    {
      "inputs": [],
      "name": "owner",
      "outputs": [
        {
          "internalType": "address",
          "name": "",
          "type": "address"
        }
      ],
      "stateMutability": "view",
      "type": "function"
    },
    {
      "inputs": [
        {
          "internalType": "uint256",
          "name": "escrowId",
          "type": "uint256"
        }
      ],
      "name": "refund",
      "outputs": [],
      "stateMutability": "payable",
      "type": "function"
    },
    {
      "inputs": [
        {
          "internalType": "uint256",
          "name": "escrowId",
          "type": "uint256"
        },
        {
          "internalType": "uint256",
          "name": "deadline",
          "type": "uint256"
        },
        {
          "internalType": "bytes",
          "name": "signature",
          "type": "bytes"
        },
        {
          "internalType": "uint256",
          "name": "nonce",
          "type": "uint256"
        }
      ],
      "name": "refundSigned",
      "outputs": [],
      "stateMutability": "nonpayable",
      "type": "function"
    },
    {
      "inputs": [],
      "name": "renounceOwnership",
      "outputs": [],
      "stateMutability": "nonpayable",
      "type": "function"
    },
    {
      "inputs": [
        {
          "internalType": "uint256",
          "name": "escrowId",
          "type": "uint256"
        }
      ],
      "name": "requestCancel",
      "outputs": [],
      "stateMutability": "nonpayable",
      "type": "function"
    },
    {
      "inputs": [
        {
          "internalType": "uint256",
          "name": "escrowId",
          "type": "uint256"
        },
        {
          "internalType": "address",
          "name": "participant",
          "type": "address"
        },
        {
          "internalType": "uint256",
          "name": "deadline",
          "type": "uint256"
        },
        {
          "internalType": "bytes",
          "name": "signature",
          "type": "bytes"
        },
        {
          "internalType": "uint256",
          "name": "nonce",
          "type": "uint256"
        }
      ],
      "name": "requestCancelSigned",
      "outputs": [],
      "stateMutability": "nonpayable",
      "type": "function"
    },
    {
      "inputs": [
        {
          "internalType": "uint256",
          "name": "escrowId",
          "type": "uint256"
        },
        {
          "internalType": "enum PalindromeCryptoEscrow.State",
          "name": "resolution",
          "type": "uint8"
        }
      ],
      "name": "resolveDispute",
      "outputs": [],
      "stateMutability": "payable",
      "type": "function"
    },
    {
      "inputs": [
        {
          "internalType": "uint256",
          "name": "escrowId",
          "type": "uint256"
        },
        {
          "internalType": "enum PalindromeCryptoEscrow.State",
          "name": "resolution",
          "type": "uint8"
        },
        {
          "internalType": "uint256",
          "name": "deadline",
          "type": "uint256"
        },
        {
          "internalType": "bytes",
          "name": "signature",
          "type": "bytes"
        },
        {
          "internalType": "uint256",
          "name": "nonce",
          "type": "uint256"
        }
      ],
      "name": "resolveDisputeSigned",
      "outputs": [],
      "stateMutability": "nonpayable",
      "type": "function"
    },
    {
      "inputs": [
        {
          "internalType": "address",
          "name": "token",
          "type": "address"
        },
        {
          "internalType": "bool",
          "name": "allowed",
          "type": "bool"
        }
      ],
      "name": "setAllowedToken",
      "outputs": [],
      "stateMutability": "payable",
      "type": "function"
    },
    {
      "inputs": [
        {
          "internalType": "uint256",
          "name": "escrowId",
          "type": "uint256"
        }
      ],
      "name": "startDispute",
      "outputs": [],
      "stateMutability": "nonpayable",
      "type": "function"
    },
    {
      "inputs": [
        {
          "internalType": "uint256",
          "name": "escrowId",
          "type": "uint256"
        },
        {
          "internalType": "address",
          "name": "participant",
          "type": "address"
        },
        {
          "internalType": "uint256",
          "name": "deadline",
          "type": "uint256"
        },
        {
          "internalType": "bytes",
          "name": "signature",
          "type": "bytes"
        },
        {
          "internalType": "uint256",
          "name": "nonce",
          "type": "uint256"
        }
      ],
      "name": "startDisputeSigned",
      "outputs": [],
      "stateMutability": "nonpayable",
      "type": "function"
    },
    {
      "inputs": [
        {
          "internalType": "uint256",
          "name": "escrowId",
          "type": "uint256"
        },
        {
          "internalType": "enum PalindromeCryptoEscrow.Role",
          "name": "role",
          "type": "uint8"
        },
        {
          "internalType": "string",
          "name": "ipfsHash",
          "type": "string"
        }
      ],
      "name": "submitDisputeMessage",
      "outputs": [],
      "stateMutability": "nonpayable",
      "type": "function"
    },
    {
      "inputs": [
        {
          "internalType": "address",
          "name": "newOwner",
          "type": "address"
        }
      ],
      "name": "transferOwnership",
      "outputs": [],
      "stateMutability": "nonpayable",
      "type": "function"
    }
  ],
  "bytecode": "0x60a060405230608052348015610013575f5ffd5b50604051613db6380380613db683398101604081905261003291610155565b60015f5561003f33610104565b6001600160a01b0381166100a55760405162461bcd60e51b8152602060048201526024808201527f496e697469616c20746f6b656e20616464726573732063616e6e6f74206265206044820152637a65726f60e01b606482015260840160405180910390fd5b6001600160a01b0381165f81815260046020908152604091829020805460ff1916600190811790915591519182527f9a8e30a8658b96ab3f034ce4bac6806278b4aee5880ccdd1ac35e4ed5bb31d23910160405180910390a250610182565b600180546001600160a01b038381166001600160a01b0319831681179093556040519116919082907f8be0079c531659141344cd1fd0a4f28419497f9722a3daafe3b4186f6b6457e0905f90a35050565b5f60208284031215610165575f5ffd5b81516001600160a01b038116811461017b575f5ffd5b9392505050565b608051613bf96101bd5f395f8181611a1101528181611aeb01528181611b7b01528181611bb901528181612d890152612e450152613bf95ff3fe608060405260043610610147575f3560e01c80639e5eee48116100b3578063e55e42111161006d578063e55e4211146103f4578063e683a2d414610407578063e744092e14610426578063ef7ee7b914610464578063f2fde38b14610483578063fd84cb97146104a2575f5ffd5b80639e5eee4814610345578063b6b55f2514610364578063bf333f2c14610383578063c0cfa7e514610397578063da183b02146103b6578063e043ee37146103d5575f5ffd5b8063644a922811610104578063644a9228146102a457806367546317146102c3578063715018a6146102e257806389cb29dd146102f65780638aaa22841461030b5780638da5cb5b1461031e575f5ffd5b8063012f52ee1461014b57806310f169e8146101f9578063278ecde114610232578063459b860e14610247578063553e7850146102665780636232ef6014610285575b5f5ffd5b348015610156575f5ffd5b506101d9610165366004613530565b600360208190525f91825260409091208054600182015460028301549383015460048401546005850154600686015460078701546008909701546001600160a01b039687169895871697958716969094169492939192909160ff80831692610100810482169262010000909104909116908b565b6040516101f09b9a9998979695949392919061357b565b60405180910390f35b348015610204575f5ffd5b50610224610213366004613530565b60056020525f908152604090205481565b6040519081526020016101f0565b610245610240366004613530565b6104c1565b005b348015610252575f5ffd5b50610245610261366004613530565b610640565b348015610271575f5ffd5b50610245610280366004613644565b61082f565b348015610290575f5ffd5b5061024561029f3660046136af565b610b4f565b3480156102af575f5ffd5b506102456102be366004613718565b610e8e565b3480156102ce575f5ffd5b506102456102dd36600461373d565b6111c7565b3480156102ed575f5ffd5b5061024561149c565b348015610301575f5ffd5b5061022460025481565b6102456103193660046137a3565b6114af565b348015610329575f5ffd5b506001546040516001600160a01b0390911681526020016101f0565b348015610350575f5ffd5b5061024561035f366004613644565b61156b565b34801561036f575f5ffd5b5061024561037e366004613530565b61190a565b34801561038e575f5ffd5b50610224606481565b3480156103a2575f5ffd5b506102456103b1366004613530565b611ce9565b3480156103c1575f5ffd5b506102456103d0366004613530565b611e46565b3480156103e0575f5ffd5b506102456103ef3660046137d8565b6120d4565b61024561040236600461382e565b61235a565b348015610412575f5ffd5b50610245610421366004613530565b612598565b348015610431575f5ffd5b50610454610440366004613858565b60046020525f908152604090205460ff1681565b60405190151581526020016101f0565b34801561046f575f5ffd5b5061022461047e366004613878565b6127bc565b34801561048e575f5ffd5b5061024561049d366004613858565b612aff565b3480156104ad575f5ffd5b506102456104bc366004613530565b612b75565b6104c9612cf5565b5f818152600360208190526040909120015481906001600160a01b031633146105355760405162461bcd60e51b815260206004820152601960248201527821b0b63632b91034b9903737ba103a34329030b93134ba32b960391b60448201526064015b60405180910390fd5b5f8281526003602052604090206001600782015460ff16600581111561055d5761055d613547565b146105b65760405162461bcd60e51b815260206004820152602360248201527f4f6e6c7920726566756e6461626c652066726f6d2064656c697665727920737460448201526261746560e81b606482015260840161052c565b8054600182015460048301545f926105dc926001600160a01b0391821692911690612d4c565b60078301805460ff191660049081179091558301546040805191825260208201839052919250339186917f279ac10417b4a21068fc6d3150dd2e5fc45320cb722f60a07d37a113a3bf3acd910160405180910390a350505061063d60015f55565b50565b610648612cf5565b5f8181526003602052604090206001600782015460ff16600581111561067057610670613547565b1461068d5760405162461bcd60e51b815260040161052c9061391a565b80600501545f036106d75760405162461bcd60e51b815260206004820152601460248201527311195c1bdcda5d081d1a5b59481b9bdd081cd95d60621b604482015260640161052c565b80600601545f0361072a5760405162461bcd60e51b815260206004820152601760248201527f4d61747572697479206e6f7420636f6e66696775726564000000000000000000604482015260640161052c565b600681015461073c9062015180613971565b816005015461074b9190613988565b42101561079a5760405162461bcd60e51b815260206004820152601d60248201527f4d617475726974792074696d65206e6f74207965742072656163686564000000604482015260640161052c565b8054600282015460048301545f926107c0926001600160a01b0391821692911690612d4c565b60078301805460ff191660031790556002830154600484015460408051918252602082018490529293506001600160a01b039091169185917f489d0b4f43659843daba0a17983382a3e77f5399083ac5405143fcf6806f8ca091015b60405180910390a3505061063d60015f55565b610837612cf5565b834211156108575760405162461bcd60e51b815260040161052c9061399b565b5f8681526003602052604090206001600782015460ff16600581111561087f5761087f613547565b146108db5760405162461bcd60e51b815260206004820152602660248201527f457363726f77206d75737420626520696e2064656c697665727920666f72206460448201526569737075746560d01b606482015260840161052c565b8060080154821461092e5760405162461bcd60e51b815260206004820152601a60248201527f4e6f6e6365206d69736d6174636820666f722064697370757465000000000000604482015260640161052c565b60018101546001600160a01b038781169116148061095b575060028101546001600160a01b038781169116145b6109a75760405162461bcd60e51b815260206004820152601f60248201527f496e76616c6964207061727469636970616e7420666f72206469737075746500604482015260640161052c565b60058101546040516001600160601b031930606090811b82166020840152603483018b905289901b16605482015260688101919091526088810186905260a881018390526b73746172744469737075746560a01b60c88201525f9060d4016040516020818303038152906040528051906020012090505f610a65610a2a83612f29565b87878080601f0160208091040260200160405190810160405280939291908181526020018383808284375f92019190915250612f5b92505050565b9050876001600160a01b0316816001600160a01b031614610ae15760405162461bcd60e51b815260206004820152603060248201527f5369676e617475726520646f6573206e6f74206d61746368207061727469636960448201526f70616e7420666f72206469737075746560801b606482015260840161052c565b600883018054905f610af2836139c6565b909155505060078301805460ff191660021790556040516001600160a01b038916908a907fd658effe7cf013e5a508b3f1a373b92566494d8b6a7c2970fc964932de1c4dab905f90a3505050610b4760015f55565b505050505050565b610b57612cf5565b5f8481526003602052604090206002600782015460ff166005811115610b7f57610b7f613547565b14610bcc5760405162461bcd60e51b815260206004820152601c60248201527f457363726f77206e6f7420696e20646973707574656420737461746500000000604482015260640161052c565b5f6001856003811115610be157610be1613547565b03610c555760018201546001600160a01b03163314610c4d5760405162461bcd60e51b815260206004820152602260248201527f4f6e6c79206275796572206d6179207375626d69742074686973206d65737361604482015261676560f01b606482015260840161052c565b506001610da3565b6002856003811115610c6957610c69613547565b03610cde5760028201546001600160a01b03163314610cd65760405162461bcd60e51b815260206004820152602360248201527f4f6e6c792073656c6c6572206d6179207375626d69742074686973206d65737360448201526261676560e81b606482015260840161052c565b506002610da3565b6003856003811115610cf257610cf2613547565b03610d5b5760038201546001600160a01b03163314610d535760405162461bcd60e51b815260206004820152601f60248201527f4f6e6c792061726269746572206d6179207375626d6974206d65737361676500604482015260640161052c565b506004610da3565b60405162461bcd60e51b815260206004820181905260248201527f496e76616c6964206d65737361676520726f6c6520666f722064697370757465604482015260640161052c565b5f86815260056020526040902054811615610e0b5760405162461bcd60e51b815260206004820152602260248201527f416c7265616479207375626d6974746564206d65737361676520666f7220726f6044820152616c6560f01b606482015260840161052c565b5f868152600560205260409020805482179055846003811115610e3057610e30613547565b5f8781526005602052604090819020549051339189917f343e9b07afb91476a7eaea35e0dd214eb5d26b7047cb533a575c43a53d4c8d7591610e75918a918a91613a06565b60405180910390a45050610e8860015f55565b50505050565b610e96612cf5565b83421115610eb65760405162461bcd60e51b815260040161052c9061399b565b5f8681526003602052604090206002600782015460ff166005811115610ede57610ede613547565b14610f225760405162461bcd60e51b81526020600482015260146024820152734e6f7420696e206469737075746520737461746560601b604482015260640161052c565b80600801548214610f805760405162461bcd60e51b815260206004820152602260248201527f4e6f6e6365206d69736d6174636820666f722064697370757465207265736f6c604482015261766560f01b606482015260840161052c565b6003866005811115610f9457610f94613547565b1480610fb157506004866005811115610faf57610faf613547565b145b610ffd5760405162461bcd60e51b815260206004820152601760248201527f5265736f6c7574696f6e207479706520696e76616c6964000000000000000000604482015260640161052c565b600381015460058201546040515f9261102d9230928c926001600160a01b031691908b9089908e90602001613a29565b6040516020818303038152906040528051906020012090505f611052610a2a83612f29565b60038401549091506001600160a01b038083169116146110b45760405162461bcd60e51b815260206004820181905260248201527f5369676e617475726520646f6573206e6f74206d617463682061726269746572604482015260640161052c565b600883018054905f6110c5836139c6565b909155505f905060038960058111156110e0576110e0613547565b146110f85760018401546001600160a01b0316611107565b60028401546001600160a01b03165b845460048601549192505f91611128916001600160a01b0316908490612d4c565b905060055f8c81526020019081526020015f205f905589856007015f6101000a81548160ff0219169083600581111561116357611163613547565b0217905550600385015460048601546040518d927ffc4c84ff0bf9d937dea068e6c13c3a16c307d76a1c5b5173c40f03f68f421e00926111b1928f926001600160a01b031691908790613abb565b60405180910390a25050505050610b4760015f55565b6111cf612cf5565b814211156111ef5760405162461bcd60e51b815260040161052c9061399b565b5f8581526003602052604090206001600782015460ff16600581111561121757611217613547565b146112645760405162461bcd60e51b815260206004820152601c60248201527f457363726f77206e6f74206177616974696e672064656c697665727900000000604482015260640161052c565b806008015482146112b75760405162461bcd60e51b815260206004820152601b60248201527f496e76616c6964206e6f6e636520666f72207369676e61747572650000000000604482015260640161052c565b600181015460058201546040516001600160601b031930606090811b82166020840152603483018b90529390931b909216605483015260688201526088810184905260a881018390526e636f6e6669726d44656c697665727960881b60c88201525f9060d7016040516020818303038152906040528051906020012090505f61137d61134283612f29565b88888080601f0160208091040260200160405190810160405280939291908181526020018383808284375f92019190915250612f5b92505050565b60018401549091506001600160a01b038083169116146113df5760405162461bcd60e51b815260206004820152601760248201527f496e76616c6964206275796572207369676e6174757265000000000000000000604482015260640161052c565b600883018054905f6113f0836139c6565b90915550508254600284015460048501545f9261141b926001600160a01b0391821692911690612d4c565b60078501805460ff1916600317905560028501546001860154600487015460408051918252602082018590529394506001600160a01b039283169392909116918c917f8bcf349ab354486b68c142cea7235e4f7f31f6a425466f569c8ac1d5bc4d0007910160405180910390a45050505061149560015f55565b5050505050565b6114a4612f7f565b6114ad5f612fd9565b565b6114b7612f7f565b6001600160a01b03821661150d5760405162461bcd60e51b815260206004820152601c60248201527f546f6b656e2063616e6e6f74206265207a65726f206164647265737300000000604482015260640161052c565b6001600160a01b0382165f81815260046020908152604091829020805460ff191685151590811790915591519182527f9a8e30a8658b96ab3f034ce4bac6806278b4aee5880ccdd1ac35e4ed5bb31d23910160405180910390a25050565b611573612cf5565b834211156115935760405162461bcd60e51b815260040161052c9061399b565b5f8681526003602052604090206001600782015460ff1660058111156115bb576115bb613547565b146116085760405162461bcd60e51b815260206004820152601c60248201527f457363726f77206e6f7420696e2064656c697665727920737461746500000000604482015260640161052c565b8060080154821461164c5760405162461bcd60e51b815260206004820152600e60248201526d09cdedcc6ca40dad2e6dac2e8c6d60931b604482015260640161052c565b60018101546001600160a01b0387811691161480611679575060028101546001600160a01b038781169116145b6116d15760405162461bcd60e51b815260206004820152602360248201527f5061727469636970616e74206d757374206265206275796572206f722073656c6044820152623632b960e91b606482015260840161052c565b60058101546040516001600160601b031930606090811b82166020840152603483018b905289901b16605482015260688101919091526088810186905260a881018390526c18d85b98d95b14995c5d595cdd609a1b60c88201525f9060d5016040516020818303038152906040528051906020012090505f611755610a2a83612f29565b9050876001600160a01b0316816001600160a01b0316146117c45760405162461bcd60e51b8152602060048201526024808201527f5369676e617475726520646f6573206e6f74206d6174636820706172746963696044820152631c185b9d60e21b606482015260840161052c565b600883018054905f6117d5836139c6565b909155505060018301546001600160a01b03908116908916036118085760078301805461ff00191661010017905561181c565b60078301805462ff00001916620100001790555b6040516001600160a01b038916908a907f88a867d5d9b489598a3f5e5c8d5c1da163ed116737b70444bac744920904a573905f90a36007830154610100900460ff1680156118745750600783015462010000900460ff165b156118fe578254600184015460048501545f9261189f926001600160a01b0391821692911690612d4c565b60078501805460ff19166005179055600485015460408051918252602082018390529192506001600160a01b038b16918c917f69e48b43ef43ff7b23e06ff586a2977fa805fbddabe2555618d946619f19c2c3910160405180910390a3505b505050610b4760015f55565b611912612cf5565b5f8181526003602052604090206001015481906001600160a01b031633146119765760405162461bcd60e51b815260206004820152601760248201527621b0b63632b91034b9903737ba103a343290313abcb2b960491b604482015260640161052c565b5f82815260036020526040812090600782015460ff16600581111561199d5761199d613547565b146119ea5760405162461bcd60e51b815260206004820152601f60248201527f457363726f77206d757374206265206177616974696e67207061796d656e7400604482015260640161052c565b6004818101548254604051636eb1769f60e11b815233938101939093526001600160a01b037f000000000000000000000000000000000000000000000000000000000000000081166024850152919291169063dd62ed3e90604401602060405180830381865afa158015611a60573d5f5f3e3d5ffd5b505050506040513d601f19601f82011682018060405250810190611a849190613aed565b1015611ad25760405162461bcd60e51b815260206004820152601960248201527f457363726f773a20616c6c6f77616e636520746f6f206c6f7700000000000000604482015260640161052c565b80546040516370a0823160e01b81526001600160a01b037f0000000000000000000000000000000000000000000000000000000000000000811660048301525f9216906370a0823190602401602060405180830381865afa158015611b39573d5f5f3e3d5ffd5b505050506040513d601f19601f82011682018060405250810190611b5d9190613aed565b82546004840154919250611ba0916001600160a01b039091169033907f00000000000000000000000000000000000000000000000000000000000000009061302a565b81546040516370a0823160e01b81526001600160a01b037f0000000000000000000000000000000000000000000000000000000000000000811660048301525f9216906370a0823190602401602060405180830381865afa158015611c07573d5f5f3e3d5ffd5b505050506040513d601f19601f82011682018060405250810190611c2b9190613aed565b6004840154909150611c3d8383613b04565b14611c8a5760405162461bcd60e51b815260206004820152601f60248201527f4465706f736974206d69736d61746368206166746572207472616e7366657200604482015260640161052c565b42600584015560078301805460ff191660011790556004830154604051908152339086907f71284872bb4c088a81295dff2513729babbccfeda38a8d824bb1a73bcaab494e906020015b60405180910390a35050505061063d60015f55565b611cf1612cf5565b5f81815260036020526040902060018101548291906001600160a01b0316331480611d28575060028101546001600160a01b031633145b611d745760405162461bcd60e51b815260206004820152601b60248201527f4e6f742061207061727469636970616e7420696e20657363726f770000000000604482015260640161052c565b5f8381526003602052604090206001600782015460ff166005811115611d9c57611d9c613547565b14611dff5760405162461bcd60e51b815260206004820152602d60248201527f446973707574652063616e206f6e6c79206265207374617274656420696e206460448201526c656c697665727920706861736560981b606482015260840161052c565b60078101805460ff19166002179055604051339085907fd658effe7cf013e5a508b3f1a373b92566494d8b6a7c2970fc964932de1c4dab905f90a350505061063d60015f55565b611e4e612cf5565b5f8181526003602052604090206001600782015460ff166005811115611e7657611e76613547565b14611e935760405162461bcd60e51b815260040161052c9061391a565b6007810154610100900460ff16611eec5760405162461bcd60e51b815260206004820152601f60248201527f4275796572206d75737420726571756573742063616e63656c6c6174696f6e00604482015260640161052c565b600781015462010000900460ff1615611f475760405162461bcd60e51b815260206004820152601f60248201527f4d757475616c2063616e63656c20616c72656164792070726f63657373656400604482015260640161052c565b80600501545f03611f8d5760405162461bcd60e51b815260206004820152601060248201526f4465706f736974206e6f74206d61646560801b604482015260640161052c565b80600601545f03611fee5760405162461bcd60e51b815260206004820152602560248201527f4e6f206d617475726974792073657420666f722074696d652d62617365642063604482015264185b98d95b60da1b606482015260840161052c565b60068101546120009062015180613971565b816005015461200f9190613988565b421161205d5760405162461bcd60e51b815260206004820152601b60248201527f4d6174757269747920706572696f64206e6f7420726561636865640000000000604482015260640161052c565b8054600182015460048301545f92612083926001600160a01b0391821692911690612d4c565b60078301805460ff1916600517905560048301546040805191825260208201839052919250339185917f69e48b43ef43ff7b23e06ff586a2977fa805fbddabe2555618d946619f19c2c3910161081c565b6120dc612cf5565b834211156120fc5760405162461bcd60e51b815260040161052c9061399b565b5f8581526003602052604090206001600782015460ff16600581111561212457612124613547565b1461217d5760405162461bcd60e51b8152602060048201526024808201527f457363726f77206d75737420626520696e2064656c697665727920746f207265604482015263199d5b9960e21b606482015260840161052c565b806008015482146121c85760405162461bcd60e51b81526020600482015260156024820152740a4cacceadcc840dcdedcc6ca40dad2e6dac2e8c6d605b1b604482015260640161052c565b600381015460058201546040516001600160601b031930606090811b82166020840152603483018b90529390931b909216605483015260688201526088810186905260a88101839052651c99599d5b9960d21b60c88201525f9060ce016040516020818303038152906040528051906020012090505f61224a610a2a83612f29565b60038401549091506001600160a01b038083169116146122ac5760405162461bcd60e51b815260206004820181905260248201527f5369676e617475726520646f6573206e6f74206d617463682061726269746572604482015260640161052c565b600883018054905f6122bd836139c6565b90915550508254600184015460048501545f926122e8926001600160a01b0391821692911690612d4c565b60078501805460ff1916600490811790915560038601549086015460408051918252602082018490529293506001600160a01b03909116918b917f279ac10417b4a21068fc6d3150dd2e5fc45320cb722f60a07d37a113a3bf3acd910160405180910390a35050505061149560015f55565b612362612cf5565b5f828152600360208190526040909120015482906001600160a01b031633146123c95760405162461bcd60e51b815260206004820152601960248201527821b0b63632b91034b9903737ba103a34329030b93134ba32b960391b604482015260640161052c565b5f8381526003602052604090206002600782015460ff1660058111156123f1576123f1613547565b146124365760405162461bcd60e51b8152602060048201526015602482015274457363726f77206e6f7420696e206469737075746560581b604482015260640161052c565b600383600581111561244a5761244a613547565b14806124675750600483600581111561246557612465613547565b145b6124a85760405162461bcd60e51b815260206004820152601260248201527124b73b30b634b2103932b9b7b63aba34b7b760711b604482015260640161052c565b5f60038460058111156124bd576124bd613547565b146124d55760018201546001600160a01b03166124e4565b60028201546001600160a01b03165b825460048401549192505f91612505916001600160a01b0316908490612d4c565b905060055f8781526020019081526020015f205f905584836007015f6101000a81548160ff0219169083600581111561254057612540613547565b0217905550857ffc4c84ff0bf9d937dea068e6c13c3a16c307d76a1c5b5173c40f03f68f421e00863386600401548560405161257f9493929190613abb565b60405180910390a25050505061259460015f55565b5050565b6125a0612cf5565b5f81815260036020526040902060018101548291906001600160a01b03163314806125d7575060028101546001600160a01b031633145b6126235760405162461bcd60e51b815260206004820152601b60248201527f4e6f742061207061727469636970616e7420696e20657363726f770000000000604482015260640161052c565b5f8381526003602052604090206001600782015460ff16600581111561264b5761264b613547565b146126a75760405162461bcd60e51b815260206004820152602660248201527f43616e63656c6174696f6e206f6e6c7920616c6c6f7765642061667465722064604482015265195c1bdcda5d60d21b606482015260840161052c565b60018101546001600160a01b031633036126d15760078101805461ff0019166101001790556126e5565b60078101805462ff00001916620100001790555b604051339085907f88a867d5d9b489598a3f5e5c8d5c1da163ed116737b70444bac744920904a573905f90a36007810154610100900460ff1680156127345750600781015462010000900460ff165b156127b0578054600182015460048301545f9261275f926001600160a01b0391821692911690612d4c565b60078301805460ff1916600517905560048301546040805191825260208201839052919250339187917f69e48b43ef43ff7b23e06ff586a2977fa805fbddabe2555618d946619f19c2c39101611cd4565b50505061063d60015f55565b5f6001600160a01b0389166128135760405162461bcd60e51b815260206004820152601c60248201527f546f6b656e2063616e6e6f74206265207a65726f206164647265737300000000604482015260640161052c565b6001600160a01b0389165f9081526004602052604090205460ff1661287a5760405162461bcd60e51b815260206004820181905260248201527f546f6b656e206973206e6f742077686974656c69737465642f616c6c6f776564604482015260640161052c565b6001600160a01b0388166128d05760405162461bcd60e51b815260206004820152601c60248201527f42757965722063616e6e6f74206265207a65726f206164647265737300000000604482015260640161052c565b336001600160a01b038916036129345760405162461bcd60e51b815260206004820152602360248201527f427579657220616e642073656c6c65722063616e6e6f74206265207468652073604482015262616d6560e81b606482015260840161052c565b610e4386106129855760405162461bcd60e51b815260206004820152601a60248201527f4d61747572697479206578636565647320333635302064617973000000000000604482015260640161052c565b5f87116129d45760405162461bcd60e51b815260206004820181905260248201527f416d6f756e74206d7573742062652067726561746572207468616e207a65726f604482015260640161052c565b600280545f90815260036020526040902080546001600160a01b03808d166001600160a01b0319928316178355600183018054918d1691831691909117905591810180549092163317909155612a326001546001600160a01b031690565b6003820180546001600160a01b0319166001600160a01b03928316179055600482018990555f600583018190556006830189905560078301805462ffffff19169055600883015560025460015433928c811692917fd3e0574cb952cf8d88c9c2b97882e6000237da1d62a64753eaddaf4d9ce7351b918f918e91168d8d8d8d8d604051612ac6989796959493929190613b17565b60405180910390a460028054905f612add836139c6565b91905055506001600254612af19190613b04565b9a9950505050505050505050565b612b07612f7f565b6001600160a01b038116612b6c5760405162461bcd60e51b815260206004820152602660248201527f4f776e61626c653a206e6577206f776e657220697320746865207a65726f206160448201526564647265737360d01b606482015260840161052c565b61063d81612fd9565b612b7d612cf5565b5f8181526003602052604090206001015481906001600160a01b03163314612be15760405162461bcd60e51b815260206004820152601760248201527621b0b63632b91034b9903737ba103a343290313abcb2b960491b604482015260640161052c565b5f8281526003602052604090206001600782015460ff166005811115612c0957612c09613547565b14612c565760405162461bcd60e51b815260206004820152601c60248201527f457363726f77206e6f74206177616974696e672064656c697665727900000000604482015260640161052c565b8054600282015460048301545f92612c7c926001600160a01b0391821692911690612d4c565b60078301805460ff1916600317905560028301546001840154600485015460408051918252602082018590529394506001600160a01b0392831693929091169187917f8bcf349ab354486b68c142cea7235e4f7f31f6a425466f569c8ac1d5bc4d0007910160405180910390a450505061063d60015f55565b60025f5403612d465760405162461bcd60e51b815260206004820152601f60248201527f5265656e7472616e637947756172643a207265656e7472616e742063616c6c00604482015260640161052c565b60025f55565b5f612710612d5b606484613971565b612d659190613b73565b90505f612d728284613b04565b6040516370a0823160e01b81526001600160a01b037f0000000000000000000000000000000000000000000000000000000000000000811660048301529192505f918716906370a0823190602401602060405180830381865afa158015612ddb573d5f5f3e3d5ffd5b505050506040513d601f19601f82011682018060405250810190612dff9190613aed565b90508215612e2357612e2386612e1d6001546001600160a01b031690565b85613193565b612e2e868684613193565b6040516370a0823160e01b81526001600160a01b037f0000000000000000000000000000000000000000000000000000000000000000811660048301525f91908816906370a0823190602401602060405180830381865afa158015612e95573d5f5f3e3d5ffd5b505050506040513d601f19601f82011682018060405250810190612eb99190613aed565b905084612ec68284613b04565b14612f1f5760405162461bcd60e51b815260206004820152602360248201527f5061796f7574206e6f7420636f6e73697374656e742077697468207472616e736044820152623332b960e91b606482015260840161052c565b5050509392505050565b7f19457468657265756d205369676e6564204d6573736167653a0a3332000000005f908152601c91909152603c902090565b5f5f5f612f6885856132e8565b91509150612f758161332a565b5090505b92915050565b6001546001600160a01b031633146114ad5760405162461bcd60e51b815260206004820181905260248201527f4f776e61626c653a2063616c6c6572206973206e6f7420746865206f776e6572604482015260640161052c565b600180546001600160a01b038381166001600160a01b0319831681179093556040519116919082907f8be0079c531659141344cd1fd0a4f28419497f9722a3daafe3b4186f6b6457e0905f90a35050565b604080516001600160a01b0385811660248301528481166044830152606480830185905283518084039091018152608490920183526020820180516001600160e01b03166323b872dd60e01b17905291515f9283929088169161308d9190613b92565b5f604051808303815f865af19150503d805f81146130c6576040519150601f19603f3d011682016040523d82523d5f602084013e6130cb565b606091505b50915091508161311d5760405162461bcd60e51b815260206004820152601960248201527f4552433230207472616e7366657246726f6d206661696c656400000000000000604482015260640161052c565b805115610b4757808060200190518101906131389190613ba8565b610b475760405162461bcd60e51b815260206004820152602660248201527f4552433230207472616e7366657246726f6d20646964206e6f742072657475726044820152656e207472756560d01b606482015260840161052c565b604080516001600160a01b038481166024830152604480830185905283518084039091018152606490920183526020820180516001600160e01b031663a9059cbb60e01b17905291515f928392908716916131ee9190613b92565b5f604051808303815f865af19150503d805f8114613227576040519150601f19603f3d011682016040523d82523d5f602084013e61322c565b606091505b5091509150816132765760405162461bcd60e51b8152602060048201526015602482015274115490cc8c081d1c985b9cd9995c8819985a5b1959605a1b604482015260640161052c565b80511561149557808060200190518101906132919190613ba8565b6114955760405162461bcd60e51b815260206004820152602260248201527f4552433230207472616e7366657220646964206e6f742072657475726e207472604482015261756560f01b606482015260840161052c565b5f5f825160410361331c576020830151604084015160608501515f1a61331087828585613473565b94509450505050613323565b505f905060025b9250929050565b5f81600481111561333d5761333d613547565b036133455750565b600181600481111561335957613359613547565b036133a65760405162461bcd60e51b815260206004820152601860248201527f45434453413a20696e76616c6964207369676e61747572650000000000000000604482015260640161052c565b60028160048111156133ba576133ba613547565b036134075760405162461bcd60e51b815260206004820152601f60248201527f45434453413a20696e76616c6964207369676e6174757265206c656e67746800604482015260640161052c565b600381600481111561341b5761341b613547565b0361063d5760405162461bcd60e51b815260206004820152602260248201527f45434453413a20696e76616c6964207369676e6174757265202773272076616c604482015261756560f01b606482015260840161052c565b5f807f7fffffffffffffffffffffffffffffff5d576e7357a4501ddfe92f46681b20a08311156134a857505f90506003613527565b604080515f8082526020820180845289905260ff881692820192909252606081018690526080810185905260019060a0016020604051602081039080840390855afa1580156134f9573d5f5f3e3d5ffd5b5050604051601f1901519150506001600160a01b038116613521575f60019250925050613527565b91505f90505b94509492505050565b5f60208284031215613540575f5ffd5b5035919050565b634e487b7160e01b5f52602160045260245ffd5b6006811061357757634e487b7160e01b5f52602160045260245ffd5b9052565b6001600160a01b038c811682528b811660208301528a81166040830152891660608201526080810188905260a0810187905260c0810186905261016081016135c660e083018761355b565b9315156101008201529115156101208301526101409091015298975050505050505050565b80356001600160a01b0381168114613601575f5ffd5b919050565b5f5f83601f840112613616575f5ffd5b50813567ffffffffffffffff81111561362d575f5ffd5b602083019150836020828501011115613323575f5ffd5b5f5f5f5f5f5f60a08789031215613659575f5ffd5b86359550613669602088016135eb565b945060408701359350606087013567ffffffffffffffff81111561368b575f5ffd5b61369789828a01613606565b979a9699509497949695608090950135949350505050565b5f5f5f5f606085870312156136c2575f5ffd5b843593506020850135600481106136d7575f5ffd5b9250604085013567ffffffffffffffff8111156136f2575f5ffd5b6136fe87828801613606565b95989497509550505050565b803560068110613601575f5ffd5b5f5f5f5f5f5f60a0878903121561372d575f5ffd5b863595506136696020880161370a565b5f5f5f5f5f60808688031215613751575f5ffd5b85359450602086013567ffffffffffffffff81111561376e575f5ffd5b61377a88828901613606565b9699909850959660408101359660609091013595509350505050565b801515811461063d575f5ffd5b5f5f604083850312156137b4575f5ffd5b6137bd836135eb565b915060208301356137cd81613796565b809150509250929050565b5f5f5f5f5f608086880312156137ec575f5ffd5b8535945060208601359350604086013567ffffffffffffffff811115613810575f5ffd5b61381c88828901613606565b96999598509660600135949350505050565b5f5f6040838503121561383f575f5ffd5b8235915061384f6020840161370a565b90509250929050565b5f60208284031215613868575f5ffd5b613871826135eb565b9392505050565b5f5f5f5f5f5f5f5f60c0898b03121561388f575f5ffd5b613898896135eb565b97506138a660208a016135eb565b96506040890135955060608901359450608089013567ffffffffffffffff8111156138cf575f5ffd5b6138db8b828c01613606565b90955093505060a089013567ffffffffffffffff8111156138fa575f5ffd5b6139068b828c01613606565b999c989b5096995094979396929594505050565b60208082526023908201527f457363726f77206e6f7420696e206163746976652064656c697665727920737460408201526261746560e81b606082015260800190565b634e487b7160e01b5f52601160045260245ffd5b8082028115828204841417612f7957612f7961395d565b80820180821115612f7957612f7961395d565b60208082526011908201527014da59db985d1d5c9948195e1c1a5c9959607a1b604082015260600190565b5f600182016139d7576139d761395d565b5060010190565b81835281816020850137505f828201602090810191909152601f909101601f19169091010190565b604081525f613a196040830185876139de565b9050826020830152949350505050565b6bffffffffffffffffffffffff198860601b1681528660148201526bffffffffffffffffffffffff198660601b1660348201528460488201528360688201528260888201526d7265736f6c76654469737075746560901b60a88201525f60068310613aa257634e487b7160e01b5f52602160045260245ffd5b5060f89190911b60b682015260b7019695505050505050565b60808101613ac9828761355b565b6001600160a01b039490941660208201526040810192909252606090910152919050565b5f60208284031215613afd575f5ffd5b5051919050565b81810381811115612f7957612f7961395d565b6001600160a01b03898116825260208201899052871660408201526060810186905260c0608082018190525f90613b5190830186886139de565b82810360a0840152613b648185876139de565b9b9a5050505050505050505050565b5f82613b8d57634e487b7160e01b5f52601260045260245ffd5b500490565b5f82518060208501845e5f920191825250919050565b5f60208284031215613bb8575f5ffd5b81516138718161379656fea2646970667358221220b377fbe0a1e39c7ac2ba3e9ab81465629bd45a32f23d313cd9dba4b28189996264736f6c634300081c0033",
  "linkReferences": {},
  "deployedLinkReferences": {},
  "immutableReferences": {
    "1924": [
      {
        "length": 32,
        "start": 6673
      },
      {
        "length": 32,
        "start": 6891
      },
      {
        "length": 32,
        "start": 7035
      },
      {
        "length": 32,
        "start": 7097
      },
      {
        "length": 32,
        "start": 11657
      },
      {
        "length": 32,
        "start": 11845
      }
    ]
  },
  "inputSourceName": "project/contracts/PalindromeCryptoEscrow.sol",
  "buildInfoId": "solc-0_8_28-090fc38648c3d123255b6ed7588ccad172b9b75c"
}