{
  "_format": "hh3-artifact-1",
  "contractName": "PalindromeCryptoEscrow",
  "sourceName": "contracts/PalindromeCryptoEscrow.sol",
  "abi": [
    {
      "inputs": [
        {
          "internalType": "address",
          "name": "_feeReceiver",
          "type": "address"
        }
      ],
      "stateMutability": "nonpayable",
      "type": "constructor"
    },
    {
      "inputs": [],
      "name": "InvalidNonce",
      "type": "error"
    },
    {
      "inputs": [],
      "name": "NotParticipant",
      "type": "error"
    },
    {
      "inputs": [],
      "name": "OnlyArbiter",
      "type": "error"
    },
    {
      "inputs": [],
      "name": "OnlyBuyer",
      "type": "error"
    },
    {
      "inputs": [],
      "name": "OnlyBuyerOrSeller",
      "type": "error"
    },
    {
      "inputs": [],
      "name": "SignatureAlreadyUsed",
      "type": "error"
    },
    {
      "inputs": [],
      "name": "SignatureLengthInvalid",
      "type": "error"
    },
    {
      "inputs": [],
      "name": "SignatureSInvalid",
      "type": "error"
    },
    {
      "inputs": [],
      "name": "SignatureVInvalid",
      "type": "error"
    },
    {
      "anonymous": false,
      "inputs": [
        {
          "indexed": true,
          "internalType": "uint256",
          "name": "escrowId",
          "type": "uint256"
        },
        {
          "indexed": true,
          "internalType": "address",
          "name": "initiator",
          "type": "address"
        },
        {
          "indexed": false,
          "internalType": "uint256",
          "name": "amount",
          "type": "uint256"
        }
      ],
      "name": "Canceled",
      "type": "event"
    },
    {
      "anonymous": false,
      "inputs": [
        {
          "indexed": true,
          "internalType": "uint256",
          "name": "escrowId",
          "type": "uint256"
        },
        {
          "indexed": true,
          "internalType": "address",
          "name": "buyer",
          "type": "address"
        },
        {
          "indexed": true,
          "internalType": "address",
          "name": "seller",
          "type": "address"
        },
        {
          "indexed": false,
          "internalType": "uint256",
          "name": "amount",
          "type": "uint256"
        },
        {
          "indexed": false,
          "internalType": "uint256",
          "name": "fee",
          "type": "uint256"
        }
      ],
      "name": "DeliveryConfirmed",
      "type": "event"
    },
    {
      "anonymous": false,
      "inputs": [
        {
          "indexed": true,
          "internalType": "uint256",
          "name": "escrowId",
          "type": "uint256"
        },
        {
          "indexed": false,
          "internalType": "uint256",
          "name": "longDeadline",
          "type": "uint256"
        }
      ],
      "name": "DisputeDeadlinesSet",
      "type": "event"
    },
    {
      "anonymous": false,
      "inputs": [
        {
          "indexed": true,
          "internalType": "uint256",
          "name": "escrowId",
          "type": "uint256"
        },
        {
          "indexed": true,
          "internalType": "address",
          "name": "sender",
          "type": "address"
        },
        {
          "indexed": false,
          "internalType": "enum PalindromeCryptoEscrow.Role",
          "name": "role",
          "type": "uint8"
        },
        {
          "indexed": false,
          "internalType": "string",
          "name": "ipfsHash",
          "type": "string"
        }
      ],
      "name": "DisputeMessagePosted",
      "type": "event"
    },
    {
      "anonymous": false,
      "inputs": [
        {
          "indexed": true,
          "internalType": "uint256",
          "name": "escrowId",
          "type": "uint256"
        },
        {
          "indexed": false,
          "internalType": "enum PalindromeCryptoEscrow.State",
          "name": "resolution",
          "type": "uint8"
        },
        {
          "indexed": false,
          "internalType": "address",
          "name": "arbiter",
          "type": "address"
        },
        {
          "indexed": false,
          "internalType": "uint256",
          "name": "amount",
          "type": "uint256"
        },
        {
          "indexed": false,
          "internalType": "uint256",
          "name": "fee",
          "type": "uint256"
        }
      ],
      "name": "DisputeResolved",
      "type": "event"
    },
    {
      "anonymous": false,
      "inputs": [
        {
          "indexed": true,
          "internalType": "uint256",
          "name": "escrowId",
          "type": "uint256"
        },
        {
          "indexed": true,
          "internalType": "address",
          "name": "initiator",
          "type": "address"
        }
      ],
      "name": "DisputeStarted",
      "type": "event"
    },
    {
      "anonymous": false,
      "inputs": [
        {
          "indexed": true,
          "internalType": "uint256",
          "name": "escrowId",
          "type": "uint256"
        },
        {
          "indexed": true,
          "internalType": "address",
          "name": "buyer",
          "type": "address"
        },
        {
          "indexed": true,
          "internalType": "address",
          "name": "seller",
          "type": "address"
        },
        {
          "indexed": false,
          "internalType": "address",
          "name": "token",
          "type": "address"
        },
        {
          "indexed": false,
          "internalType": "uint256",
          "name": "amount",
          "type": "uint256"
        },
        {
          "indexed": false,
          "internalType": "address",
          "name": "arbiter",
          "type": "address"
        },
        {
          "indexed": false,
          "internalType": "uint256",
          "name": "maturityTime",
          "type": "uint256"
        },
        {
          "indexed": false,
          "internalType": "string",
          "name": "title",
          "type": "string"
        },
        {
          "indexed": false,
          "internalType": "string",
          "name": "ipfsHash",
          "type": "string"
        }
      ],
      "name": "EscrowCreated",
      "type": "event"
    },
    {
      "anonymous": false,
      "inputs": [
        {
          "indexed": true,
          "internalType": "uint256",
          "name": "escrowId",
          "type": "uint256"
        },
        {
          "indexed": true,
          "internalType": "address",
          "name": "buyer",
          "type": "address"
        },
        {
          "indexed": false,
          "internalType": "uint256",
          "name": "amount",
          "type": "uint256"
        }
      ],
      "name": "EscrowCreatedAndDeposited",
      "type": "event"
    },
    {
      "anonymous": false,
      "inputs": [
        {
          "indexed": true,
          "internalType": "uint256",
          "name": "escrowId",
          "type": "uint256"
        },
        {
          "indexed": true,
          "internalType": "address",
          "name": "buyer",
          "type": "address"
        },
        {
          "indexed": false,
          "internalType": "uint256",
          "name": "amount",
          "type": "uint256"
        }
      ],
      "name": "PaymentDeposited",
      "type": "event"
    },
    {
      "anonymous": false,
      "inputs": [
        {
          "indexed": true,
          "internalType": "uint256",
          "name": "escrowId",
          "type": "uint256"
        },
        {
          "indexed": false,
          "internalType": "address",
          "name": "recipient",
          "type": "address"
        },
        {
          "indexed": false,
          "internalType": "uint256",
          "name": "netAmount",
          "type": "uint256"
        },
        {
          "indexed": false,
          "internalType": "address",
          "name": "feeRecipient",
          "type": "address"
        },
        {
          "indexed": false,
          "internalType": "uint256",
          "name": "feeAmount",
          "type": "uint256"
        }
      ],
      "name": "PayoutProposed",
      "type": "event"
    },
    {
      "anonymous": false,
      "inputs": [
        {
          "indexed": true,
          "internalType": "uint256",
          "name": "escrowId",
          "type": "uint256"
        },
        {
          "indexed": true,
          "internalType": "address",
          "name": "requester",
          "type": "address"
        }
      ],
      "name": "RequestCancel",
      "type": "event"
    },
    {
      "anonymous": false,
      "inputs": [
        {
          "indexed": true,
          "internalType": "uint256",
          "name": "escrowId",
          "type": "uint256"
        },
        {
          "indexed": true,
          "internalType": "address",
          "name": "seller",
          "type": "address"
        }
      ],
      "name": "SellerAccepted",
      "type": "event"
    },
    {
      "anonymous": false,
      "inputs": [
        {
          "indexed": true,
          "internalType": "uint256",
          "name": "escrowId",
          "type": "uint256"
        },
        {
          "indexed": false,
          "internalType": "bytes",
          "name": "sellerSig",
          "type": "bytes"
        }
      ],
      "name": "SellerWalletSigAttached",
      "type": "event"
    },
    {
      "anonymous": false,
      "inputs": [
        {
          "indexed": true,
          "internalType": "uint256",
          "name": "escrowId",
          "type": "uint256"
        },
        {
          "indexed": false,
          "internalType": "enum PalindromeCryptoEscrow.State",
          "name": "oldState",
          "type": "uint8"
        },
        {
          "indexed": true,
          "internalType": "enum PalindromeCryptoEscrow.State",
          "name": "newState",
          "type": "uint8"
        }
      ],
      "name": "StateChanged",
      "type": "event"
    },
    {
      "anonymous": false,
      "inputs": [
        {
          "indexed": true,
          "internalType": "uint256",
          "name": "escrowId",
          "type": "uint256"
        },
        {
          "indexed": true,
          "internalType": "address",
          "name": "wallet",
          "type": "address"
        }
      ],
      "name": "WalletCreated",
      "type": "event"
    },
    {
      "inputs": [],
      "name": "DISPUTE_LONG_TIMEOUT",
      "outputs": [
        {
          "internalType": "uint256",
          "name": "",
          "type": "uint256"
        }
      ],
      "stateMutability": "view",
      "type": "function"
    },
    {
      "inputs": [],
      "name": "DOMAIN_SEPARATOR",
      "outputs": [
        {
          "internalType": "bytes32",
          "name": "",
          "type": "bytes32"
        }
      ],
      "stateMutability": "view",
      "type": "function"
    },
    {
      "inputs": [],
      "name": "GRACE_PERIOD",
      "outputs": [
        {
          "internalType": "uint256",
          "name": "",
          "type": "uint256"
        }
      ],
      "stateMutability": "view",
      "type": "function"
    },
    {
      "inputs": [],
      "name": "TIMEOUT_BUFFER",
      "outputs": [
        {
          "internalType": "uint256",
          "name": "",
          "type": "uint256"
        }
      ],
      "stateMutability": "view",
      "type": "function"
    },
    {
      "inputs": [],
      "name": "WALLET_BYTECODE_HASH",
      "outputs": [
        {
          "internalType": "bytes32",
          "name": "",
          "type": "bytes32"
        }
      ],
      "stateMutability": "view",
      "type": "function"
    },
    {
      "inputs": [
        {
          "internalType": "uint256",
          "name": "escrowId",
          "type": "uint256"
        },
        {
          "internalType": "bytes",
          "name": "sellerWalletSig",
          "type": "bytes"
        }
      ],
      "name": "acceptEscrow",
      "outputs": [],
      "stateMutability": "nonpayable",
      "type": "function"
    },
    {
      "inputs": [
        {
          "internalType": "uint256",
          "name": "escrowId",
          "type": "uint256"
        }
      ],
      "name": "cancelByTimeout",
      "outputs": [],
      "stateMutability": "nonpayable",
      "type": "function"
    },
    {
      "inputs": [
        {
          "internalType": "uint256",
          "name": "escrowId",
          "type": "uint256"
        },
        {
          "internalType": "bytes",
          "name": "buyerWalletSig",
          "type": "bytes"
        }
      ],
      "name": "confirmDelivery",
      "outputs": [],
      "stateMutability": "nonpayable",
      "type": "function"
    },
    {
      "inputs": [
        {
          "internalType": "uint256",
          "name": "escrowId",
          "type": "uint256"
        },
        {
          "internalType": "bytes",
          "name": "coordSignature",
          "type": "bytes"
        },
        {
          "internalType": "uint256",
          "name": "deadline",
          "type": "uint256"
        },
        {
          "internalType": "uint256",
          "name": "nonce",
          "type": "uint256"
        },
        {
          "internalType": "bytes",
          "name": "buyerWalletSig",
          "type": "bytes"
        }
      ],
      "name": "confirmDeliverySigned",
      "outputs": [],
      "stateMutability": "nonpayable",
      "type": "function"
    },
    {
      "inputs": [
        {
          "internalType": "address",
          "name": "token",
          "type": "address"
        },
        {
          "internalType": "address",
          "name": "buyer",
          "type": "address"
        },
        {
          "internalType": "uint256",
          "name": "amount",
          "type": "uint256"
        },
        {
          "internalType": "uint256",
          "name": "maturityTimeDays",
          "type": "uint256"
        },
        {
          "internalType": "address",
          "name": "arbiter",
          "type": "address"
        },
        {
          "internalType": "string",
          "name": "title",
          "type": "string"
        },
        {
          "internalType": "string",
          "name": "ipfsHash",
          "type": "string"
        },
        {
          "internalType": "bytes",
          "name": "sellerWalletSig",
          "type": "bytes"
        }
      ],
      "name": "createEscrow",
      "outputs": [
        {
          "internalType": "uint256",
          "name": "",
          "type": "uint256"
        }
      ],
      "stateMutability": "nonpayable",
      "type": "function"
    },
    {
      "inputs": [
        {
          "internalType": "address",
          "name": "token",
          "type": "address"
        },
        {
          "internalType": "address",
          "name": "seller",
          "type": "address"
        },
        {
          "internalType": "uint256",
          "name": "amount",
          "type": "uint256"
        },
        {
          "internalType": "uint256",
          "name": "maturityTimeDays",
          "type": "uint256"
        },
        {
          "internalType": "address",
          "name": "arbiter",
          "type": "address"
        },
        {
          "internalType": "string",
          "name": "title",
          "type": "string"
        },
        {
          "internalType": "string",
          "name": "ipfsHash",
          "type": "string"
        },
        {
          "internalType": "bytes",
          "name": "buyerWalletSig",
          "type": "bytes"
        }
      ],
      "name": "createEscrowAndDeposit",
      "outputs": [
        {
          "internalType": "uint256",
          "name": "escrowId",
          "type": "uint256"
        }
      ],
      "stateMutability": "nonpayable",
      "type": "function"
    },
    {
      "inputs": [
        {
          "internalType": "uint256",
          "name": "escrowId",
          "type": "uint256"
        },
        {
          "internalType": "bytes",
          "name": "buyerWalletSig",
          "type": "bytes"
        }
      ],
      "name": "deposit",
      "outputs": [],
      "stateMutability": "nonpayable",
      "type": "function"
    },
    {
      "inputs": [
        {
          "internalType": "uint256",
          "name": "",
          "type": "uint256"
        }
      ],
      "name": "disputeStatus",
      "outputs": [
        {
          "internalType": "uint256",
          "name": "",
          "type": "uint256"
        }
      ],
      "stateMutability": "view",
      "type": "function"
    },
    {
      "inputs": [],
      "name": "feeReceiver",
      "outputs": [
        {
          "internalType": "address",
          "name": "",
          "type": "address"
        }
      ],
      "stateMutability": "view",
      "type": "function"
    },
    {
      "inputs": [
        {
          "internalType": "uint256",
          "name": "escrowId",
          "type": "uint256"
        }
      ],
      "name": "getEscrow",
      "outputs": [
        {
          "components": [
            {
              "internalType": "address",
              "name": "token",
              "type": "address"
            },
            {
              "internalType": "address",
              "name": "buyer",
              "type": "address"
            },
            {
              "internalType": "address",
              "name": "seller",
              "type": "address"
            },
            {
              "internalType": "address",
              "name": "arbiter",
              "type": "address"
            },
            {
              "internalType": "address",
              "name": "wallet",
              "type": "address"
            },
            {
              "internalType": "uint256",
              "name": "amount",
              "type": "uint256"
            },
            {
              "internalType": "uint256",
              "name": "depositTime",
              "type": "uint256"
            },
            {
              "internalType": "uint256",
              "name": "maturityTime",
              "type": "uint256"
            },
            {
              "internalType": "uint256",
              "name": "disputeStartTime",
              "type": "uint256"
            },
            {
              "internalType": "enum PalindromeCryptoEscrow.State",
              "name": "state",
              "type": "uint8"
            },
            {
              "internalType": "bool",
              "name": "buyerCancelRequested",
              "type": "bool"
            },
            {
              "internalType": "bool",
              "name": "sellerCancelRequested",
              "type": "bool"
            },
            {
              "internalType": "uint8",
              "name": "tokenDecimals",
              "type": "uint8"
            },
            {
              "internalType": "bytes",
              "name": "sellerWalletSig",
              "type": "bytes"
            },
            {
              "internalType": "bytes",
              "name": "buyerWalletSig",
              "type": "bytes"
            },
            {
              "internalType": "bytes",
              "name": "arbiterWalletSig",
              "type": "bytes"
            }
          ],
          "internalType": "struct PalindromeCryptoEscrow.EscrowDeal",
          "name": "",
          "type": "tuple"
        }
      ],
      "stateMutability": "view",
      "type": "function"
    },
    {
      "inputs": [
        {
          "internalType": "uint256",
          "name": "escrowId",
          "type": "uint256"
        },
        {
          "internalType": "address",
          "name": "signer",
          "type": "address"
        },
        {
          "internalType": "uint256",
          "name": "wordIndex",
          "type": "uint256"
        }
      ],
      "name": "getNonceBitmap",
      "outputs": [
        {
          "internalType": "uint256",
          "name": "",
          "type": "uint256"
        }
      ],
      "stateMutability": "view",
      "type": "function"
    },
    {
      "inputs": [
        {
          "internalType": "uint256",
          "name": "escrowId",
          "type": "uint256"
        },
        {
          "internalType": "address",
          "name": "participant",
          "type": "address"
        }
      ],
      "name": "getWalletAuthorizationDigest",
      "outputs": [
        {
          "internalType": "bytes32",
          "name": "digest",
          "type": "bytes32"
        }
      ],
      "stateMutability": "view",
      "type": "function"
    },
    {
      "inputs": [],
      "name": "nextEscrowId",
      "outputs": [
        {
          "internalType": "uint256",
          "name": "",
          "type": "uint256"
        }
      ],
      "stateMutability": "view",
      "type": "function"
    },
    {
      "inputs": [
        {
          "internalType": "uint256",
          "name": "escrowId",
          "type": "uint256"
        },
        {
          "internalType": "bytes",
          "name": "walletSig",
          "type": "bytes"
        }
      ],
      "name": "requestCancel",
      "outputs": [],
      "stateMutability": "nonpayable",
      "type": "function"
    },
    {
      "inputs": [
        {
          "internalType": "uint256",
          "name": "escrowId",
          "type": "uint256"
        }
      ],
      "name": "startDispute",
      "outputs": [],
      "stateMutability": "nonpayable",
      "type": "function"
    },
    {
      "inputs": [
        {
          "internalType": "uint256",
          "name": "escrowId",
          "type": "uint256"
        },
        {
          "internalType": "bytes",
          "name": "signature",
          "type": "bytes"
        },
        {
          "internalType": "uint256",
          "name": "deadline",
          "type": "uint256"
        },
        {
          "internalType": "uint256",
          "name": "nonce",
          "type": "uint256"
        }
      ],
      "name": "startDisputeSigned",
      "outputs": [],
      "stateMutability": "nonpayable",
      "type": "function"
    },
    {
      "inputs": [
        {
          "internalType": "uint256",
          "name": "escrowId",
          "type": "uint256"
        },
        {
          "internalType": "enum PalindromeCryptoEscrow.State",
          "name": "resolution",
          "type": "uint8"
        },
        {
          "internalType": "string",
          "name": "ipfsHash",
          "type": "string"
        },
        {
          "internalType": "bytes",
          "name": "arbiterWalletSig",
          "type": "bytes"
        }
      ],
      "name": "submitArbiterDecision",
      "outputs": [],
      "stateMutability": "nonpayable",
      "type": "function"
    },
    {
      "inputs": [
        {
          "internalType": "uint256",
          "name": "escrowId",
          "type": "uint256"
        },
        {
          "internalType": "enum PalindromeCryptoEscrow.Role",
          "name": "role",
          "type": "uint8"
        },
        {
          "internalType": "string",
          "name": "ipfsHash",
          "type": "string"
        }
      ],
      "name": "submitDisputeMessage",
      "outputs": [],
      "stateMutability": "nonpayable",
      "type": "function"
    }
  ],
  "bytecode": "0x61010080604052346101bf5760208161710f803803809161002082856101c3565b8339810103126101bf57516001600160a01b0381168082036101bf5760015f551561018d576080524660e05260405161005a6040826101c3565b601681527f50616c696e64726f6d6543727970746f457363726f7700000000000000000000602090910152604080517f214be339dbd101005f8c34eca4dc81d275788130af1987d8fb35ea9c0a925bfa916100b590826101c3565b600181526020810190603160f81b82525190206040519060208201927f8b73c3c69bb8fe3d512ecc4cf759cc79239f7b179b0ffacaa9a75d522b39400f8452604083015260608201524660808201523060a082015260a0815261011960c0826101c3565b51902060c05261163660405161013260208301826101c3565b8181526020810191615ad9833951902060a0526040516158de90816101fb82396080518181816109390152818161244801528181613ee10152613f76015260a0518161188b015260c051816137e1015260e051816137bb0152f35b60405162461bcd60e51b815260206004820152600a602482015269466565546f207a65726f60b01b6044820152606490fd5b5f80fd5b601f909101601f19168101906001600160401b038211908210176101e657604052565b634e487b7160e01b5f52604160045260245ffdfe60a06040526004361015610011575f80fd5b5f3560e01c806306075a1514612ba557806310f169e814612b7b5780631452483b14612b5e5780632d34515b1461272e5780632d471a50146121025780632f9bfda214611cb9578063311a2e55146118ec5780633644e515146118ca5780634186928c146118ae578063589ac8e3146118745780635d303519146116245780636232ef60146113a4578063708f65ca1461115a5780637d19e59614610e8e57806383504156146109d557806389cb29dd146109b85780639dede53c14610968578063b3f0067414610924578063c0cfa7e5146107a2578063c1a287e214610785578063c37775a31461053d578063d4ffbee4146103575763da183b0214610116575f80fd5b34610353576020366003190112610353576004356101326136e8565b61013f6001548210612f96565b5f81815260026020526040902060010154610164906001600160a01b03161515612fda565b5f818152600260205260409020600101546001600160a01b0316330361034457805f52600260205260405f20600981015460ff811660068110156103305760016101ae9114613639565b6101bc6008830154156135fc565b60ff8160081c16156102f65760101c60ff166102bc576101e1600682015415156135c3565b60078101546201518081018091116102a85742111561026d5780610215604161020f600b6005950154613385565b146132a2565b61021e83613a41565b6001810154610236906001600160a01b031684613f35565b50500154906040519182527feb8b5b87fbea5b732b8f4fd82b65d9afef713c799d98da83090f22c45577998d60203393a360015f55005b60405162461bcd60e51b8152602060048201526013602482015272477261636520706572696f642061637469766560681b6044820152606490fd5b634e487b7160e01b5f52601160045260245ffd5b60405162461bcd60e51b81526020600482015260126024820152714d757475616c2063616e63656c20646f6e6560701b6044820152606490fd5b60405162461bcd60e51b8152602060048201526012602482015271135d5cdd081c995c5d595cdd08199a5c9cdd60721b6044820152606490fd5b634e487b7160e01b5f52602160045260245ffd5b6386efbb5560e01b5f5260045ffd5b5f80fd5b3461035357604036600319011261035357600435610373612e68565b6103806001548310612f96565b5f828152600260205260409020600101546103a5906001600160a01b03161515612fda565b5f828152600260205260409020600181015490916001600160a01b03908116911681148015610527575b8015610511575b156104d85761044d6104ce60209461045b60409560168888516103f98a826130bc565b828152017514185b1a5b991c9bdb59515cd8dc9bddd5d85b1b195d60521b81522061042261367d565b89815191012091600460018060a01b039101541692839161044d8a519384928d84019646918861369c565b03601f1981018352826130bc565b51902094865191888301937f783cf3fdc83d5b0c9e236f4e0bfa8f022a2090d21a4c53f5f99df0d607781fa185528884015260608301526080820152608081526104a660a0826130bc565b51902084519283918783019586909160429261190160f01b8352600283015260228201520190565b5190209051908152f35b60405162461bcd60e51b8152602060048201526011602482015270139bdd0818481c185c9d1a58da5c185b9d607a1b6044820152606490fd5b5060038201546001600160a01b031681146103d6565b5060028201546001600160a01b031681146103cf565b346103535761054b36612f36565b6105569291926136e8565b6105636001548310612f96565b5f82815260026020526040902060010154610588906001600160a01b03161515612fda565b5f828152600260205260409020600101546001600160a01b0316330361034457815f52600260205260405f209060ff60098301541660068110156103305760016105d29114613639565b6105ea60416105e4600a850154613385565b1461342e565b6105f6604182146132a2565b610600818561373c565b600b8201906001600160401b0381116107715761061d8254613385565b601f811161072c575b505f601f82116001146106c95781929394955f926106be575b50508160011b915f199060031b1c19161790555b61065c82613a10565b60028101546001600160a01b0316917f8bcf349ab354486b68c142cea7235e4f7f31f6a425466f569c8ac1d5bc4d000760406106988584613e56565b9050600560018060a01b036001870154169501549082519182526020820152a460015f55005b01359050858061063f565b601f19821695835f5260205f20915f5b888110610714575083600195969798106106fb575b505050811b019055610653565b01355f19600384901b60f8161c191690558580806106ee565b909260206001819286860135815501940191016106d9565b825f5260205f20601f830160051c81019160208410610767575b601f0160051c01905b81811061075c5750610626565b5f815560010161074f565b9091508190610746565b634e487b7160e01b5f52604160045260245ffd5b34610353575f366003190112610353576020604051620151808152f35b34610353576020366003190112610353576004356107be6136e8565b6107cb6001548210612f96565b5f818152600260205260409020600101546107f0906001600160a01b03161515612fda565b805f52600260205260405f2060018060a01b03600182015416331415908161090c575b506108fd575f81815260026020526040902060038101546001600160a01b0316156108c95760ff60098201541660068110156103305760016108559114613639565b61085e8261399f565b60084291015562278d0042018042116102a8577f1a9502b6f661da8b0573a0617c121cabe2e93ea05d5239cfab6e9d1734b928c960208392604051908152a233907fd658effe7cf013e5a508b3f1a373b92566494d8b6a7c2970fc964932de1c4dab5f80a360015f55005b60405162461bcd60e51b815260206004820152600c60248201526b2d32b9379030b93134ba32b960a11b6044820152606490fd5b631cfe2f0560e11b5f5260045ffd5b600201546001600160a01b0316331415905082610813565b34610353575f366003190112610353576040517f00000000000000000000000000000000000000000000000000000000000000006001600160a01b03168152602090f35b3461035357606036600319011261035357610981612e68565b6004355f52600560205260405f209060018060a01b03165f5260205260405f206044355f52602052602060405f2054604051908152f35b34610353575f366003190112610353576020600154604051908152f35b34610353576109e336612f36565b906109ec6136e8565b6109f96001548410612f96565b5f83815260026020526040902060010154610a1e906001600160a01b03161515612fda565b825f52600260205260405f2060018060a01b036001820154163314159081610e76575b506108fd57825f52600260205260405f2090600982019081549360ff85166006811015610330576001610a7491146134e9565b610a83600685015415156135c3565b610a916008850154156135fc565b60418103610e3c57610aa3818361373c565b600184019460018060a01b0386541633145f14610cc6575060ff835460081c16610c8157600b8401916001600160401b038211610771578190610ae68454613385565b601f8111610c31575b505f90601f8311600114610bca575f92610bbf575b50508160011b915f199060031b1c19161790555b805461ff0019166101001781555b5460ff8160081c169081610bb1575b5015610b8457610236600592610b53604161020f600b860154613385565b610b6560416105e4600a860154613385565b610b6e85613a41565b546001600160a01b031684613f35565b60015f55005b505033907f88a867d5d9b489598a3f5e5c8d5c1da163ed116737b70444bac744920904a5735f80a3610b7e565b60ff915060101c1684610b35565b013590508780610b04565b909150601f19831691845f5260205f20925f5b818110610c195750908460019594939210610c00575b505050811b019055610b18565b01355f19600384901b60f8161c19169055878080610bf3565b91936020600181928787013581550195019201610bdd565b909150835f5260205f20601f840160051c81019160208510610c77575b90601f859493920160051c01905b818110610c695750610aef565b5f8155849350600101610c5c565b9091508190610c4e565b60405162461bcd60e51b815260206004820152601760248201527f427579657220616c7265616479207265717565737465640000000000000000006044820152606490fd5b60101c60ff16610df757600a8401916001600160401b038211610771578190610cef8454613385565b601f8111610da7575b505f90601f8311600114610d40575f92610d35575b50508160011b915f199060031b1c19161790555b805462ff0000191662010000178155610b26565b013590508780610d0d565b909150601f19831691845f5260205f20925f5b818110610d8f5750908460019594939210610d76575b505050811b019055610d21565b01355f19600384901b60f8161c19169055878080610d69565b91936020600181928787013581550195019201610d53565b909150835f5260205f20601f840160051c81019160208510610ded575b90601f859493920160051c01905b818110610ddf5750610cf8565b5f8155849350600101610dd2565b9091508190610dc4565b60405162461bcd60e51b815260206004820152601860248201527f53656c6c657220616c72656164792072657175657374656400000000000000006044820152606490fd5b60405162461bcd60e51b81526020600482015260126024820152714d697373696e672077616c6c65742073696760701b6044820152606490fd5b600201546001600160a01b0316331415905084610a41565b346103535760203660031901126103535760043560606101e0604051610eb3816130a0565b5f81525f60208201525f60408201525f838201525f60808201525f60a08201525f60c08201525f60e08201525f6101008201525f6101208201525f6101408201525f6101608201525f610180820152826101a0820152826101c08201520152610f1f6001548210612f96565b5f81815260026020526040902060010154610f44906001600160a01b03161515612fda565b5f52600260205260405f20604051610f5b816130a0565b81546001600160a01b0390811682526001830154811660208301526002830154811660408301526003830154811660608301526004830154166080820152600582015460a082015260068083015460c0830152600783015460e08301526008830154610100830152600983015460ff811691821015610330576111569360ff600c9261103794610120870152818160081c161515610140870152818160101c16151561016087015260181c16610180850152611019600a8201613523565b6101a085015261102b600b8201613523565b6101c085015201613523565b6101e08201526040519182916020835260018060a01b03815116602084015260018060a01b03602082015116604084015260018060a01b03604082015116606084015260018060a01b03606082015116608084015260018060a01b0360808201511660a084015260a081015160c084015260c081015160e084015260e08101516101008401526101008101516101208401526110dd610120820151610140850190612f65565b6101408101511515610160840152610160810151151561018084015260ff610180820151166101a08401526101e061114161112b6101a08401516102006101c0880152610220870190612f72565b6101c0840151868203601f190184880152612f72565b910151838203601f1901610200850152612f72565b0390f35b346103535761116836612f36565b91906111726136e8565b61117f6001548310612f96565b5f828152600260205260409020600101546111a4906001600160a01b03161515612fda565b815f52600260205260405f206111c760018060a01b03600283015416331461346f565b60ff600982015416906006821015610330576111e76001600a93146134e9565b019283546111f481613385565b61136c576112046041831461342e565b61120e828461373c565b6001600160401b0382116107715761122590613385565b601f8111611327575b505f93601f82116001146112b857815f5160206158295f395f51905f5294955f916112ad575b508260011b905f198460031b1c19161790555b6112a460405192839233877f5b09e2f1aabe74a8fc19114f298046a9fa1214365ec1d728e534a291aff17a4f5f80a36020845260208401916133bd565b0390a260015f55005b905083013586611254565b601f19821694815f5260205f20905f5b87811061130f5750835f5160206158295f395f51905f529697106112f6575b5050600182811b019055611267565b8401355f19600385901b60f8161c1916905585806112e7565b909160206001819285890135815501930191016112c8565b845f5260205f20601f830160051c81019160208410611362575b601f0160051c01905b818110611357575061122e565b5f815560010161134a565b9091508190611341565b60405162461bcd60e51b815260206004820152601060248201526f105b1c9958591e481858d8d95c1d195960821b6044820152606490fd5b34610353576060366003190112610353576004356024359060048210918215610353576044356001600160401b038111610353576113e6903690600401612e3b565b91906113f06136e8565b6113fd6001548510612f96565b5f84815260026020526040902060010154611422906001600160a01b03161515612fda565b835f52600260205260405f2060018060a01b03600182015416331415908161160c575b816115f4575b506115e557835f52600260205260405f2060ff6009820154166006811015610330576002036115b15761147e8483613acd565b845f52600660205260405f205490600184145f1461154857600101546001600160a01b0316330361151657806114b86001809316156134a9565b175b845f52600660205260405f20556040519415610330577f4e71d2a3ce09c95d708a8bc888cb8838c8419bea1f25f6d07f2c601b173f720e926115099286526040602087015260408601916133bd565b928033940390a360015f55005b60405162461bcd60e51b815260206004820152600a60248201526927b7363c90313abcb2b960b11b6044820152606490fd5b906002840361157d5760029182015461156b906001600160a01b0316331461346f565b611577828216156134a9565b176114ba565b60405162461bcd60e51b815260206004820152600c60248201526b496e76616c696420726f6c6560a01b6044820152606490fd5b60405162461bcd60e51b815260206004820152600c60248201526b139bdd08191a5cdc1d5d195960a21b6044820152606490fd5b63721c7c6760e11b5f5260045ffd5b600301546001600160a01b031633141590508661144b565b60028101546001600160a01b03163314159150611445565b346103535761163236612f36565b61163d9291926136e8565b61164a6001548310612f96565b5f8281526002602052604090206001015461166f906001600160a01b03161515612fda565b5f828152600260205260409020600101546001600160a01b0316330361034457815f52600260205260405f209060ff600983015416600681101561033057611838576116bd604182146132a2565b6116c7818561373c565b600b8201906001600160401b038111610771576116e48254613385565b601f81116117f3575b505f601f82116001146117905781929394955f92611785575b50508160011b915f199060031b1c19161790555b80546004820154600583018054909392611742926001600160a01b0390811691339116613cfe565b600642910155611751826139df565b54906040519182527f71284872bb4c088a81295dff2513729babbccfeda38a8d824bb1a73bcaab494e60203393a360015f55005b013590508580611706565b601f19821695835f5260205f20915f5b8881106117db575083600195969798106117c2575b505050811b01905561171a565b01355f19600384901b60f8161c191690558580806117b5565b909260206001819286860135815501940191016117a0565b825f5260205f20601f830160051c8101916020841061182e575b601f0160051c01905b81811061182357506116ed565b5f8155600101611816565b909150819061180d565b60405162461bcd60e51b8152602060048201526014602482015273139bdd08185dd85a5d1a5b99c81c185e5b595b9d60621b6044820152606490fd5b34610353575f3660031901126103535760206040517f00000000000000000000000000000000000000000000000000000000000000008152f35b34610353575f366003190112610353576020604051610e108152f35b34610353575f3660031901126103535760206118e46137b8565b604051908152f35b34610353576118fa36612e7e565b98611911858794979c939a9c999899969596613a72565b61191b8686613acd565b61192f6001600160a01b03831615156131af565b6001600160a01b0316988915611c875760019861194e338c14156131e8565b6119598c1515613228565b611966610e438910613262565b6119726041831461342e565b61197c828261373c565b61198583613b1c565b9761199a8d6119938b613c43565b11156132e2565b8a8060a01b038a1698338a141580611c7d575b6119b690613321565b8b546080526119c660805161335f565b8c556119d3608051613c5d565b996080515f5260026020528d60405f209d8e818060a01b0389166001600160601b0360a01b82541617815501906001600160601b0360a01b82541617905560028d0160018060a01b0333166001600160601b0360a01b82541617905560038d01906001600160601b0360a01b82541617905560048c0160018060a01b038b166001600160601b0360a01b8254161790558d60058d0155620151808202918083046201518014901517156102a857611a8d611ab39242613018565b60078d015560098c01805463ff0000ff191660189290921b63ff00000016919091179055565b600a8a016001600160401b03831161077157611acf8154613385565b601f8111611c38575b505f601f8411600114611ba857611b455f5160206158495f395f51905f529b9a999795938593611b8e9a98965f5160206158295f395f51905f52945f91611b9d575b508560011b905f198760031b1c19161790555b604051918291602083526080519560208401916133bd565b0390a260405197889760018060a01b03166080517f470292d5e9c87e6d5a100a14c56a434c9f25e9e2be1d5efa70c3b5f9aeda505f5f80a3339c60076080519c015492896133dd565b0390a460206040516080518152f35b90508201355f611b1a565b815f5260205f20905f5b601f1986168110611c2057505f5160206158495f395f51905f529b9a9997959385935f5160206158295f395f51905f5293611b4593611b8e9c9a98601f19811610611c07575b5050600185811b019055611b2d565b8301355f19600388901b60f8161c191690555f80611bf8565b90916020600181928588013581550193019101611bb2565b815f5260205f20601f850160051c81019160208610611c73575b601f0160051c01905b818110611c685750611ad8565b5f8155600101611c5b565b9091508190611c52565b50898d14156119ad565b60405162461bcd60e51b815260206004820152600a6024820152694275796572207a65726f60b01b6044820152606490fd5b346103535760a0366003190112610353576004356024356001600160401b03811161035357611cec903690600401612e3b565b9091604435916064356084356001600160401b03811161035357611d14903690600401612e3b565b9091611d1e6136e8565b611d2b6001548610612f96565b5f85815260026020526040902060010154611d50906001600160a01b03161515612fda565b428611806120ed575b611d6290613025565b845f52600260205260405f209060ff6009830154166006811015610330576001611d8c9114613064565b604185036120b457611d9e858961373c565b611daa604184146132a2565b611db4838561373c565b600a820154611dc290613385565b604114611dce9061342e565b6001820197600160a01b6001900389541695600284019688600160a01b60019003895416600160a01b600190036003880154169b600160a01b600190038854169c600589019d8e549060068b0154926040519560208701977f2175432d6c7eab3a2ef5708fc419540c0f4d274cabd17912c92683ed8466b5e989526040880152886060880152608087015260a086015260c085015260e0840152610100830152610120820152856101408201526101408152611e8c610160826130bc565b519020611e976137b8565b60405161190160f01b60208201908152602282019290925260428082019390935291825290611ec76062826130bc565b519020611ed53684866130f8565b611ede91613fa4565b611ee790613fd5565b6001600160a01b0316611efb81151561312e565b14611f059061316d565b611f0f9188613866565b8754611f2591906001600160a01b031687613926565b600b01916001600160401b03821161077157611f418354613385565b601f811161206f575b505f90601f8311600114611fe6579180604094927f8bcf349ab354486b68c142cea7235e4f7f31f6a425466f569c8ac1d5bc4d000796945f92611fdb575b50508160011b915f199060031b1c19161790555b611fa584613a10565b546001600160a01b031694611fba8685613e56565b91905060018060a01b0390541694549082519182526020820152a460015f55005b013590508980611f88565b601f19831691845f5260205f20925f5b81811061205757509260019285927f8bcf349ab354486b68c142cea7235e4f7f31f6a425466f569c8ac1d5bc4d00079896604098961061203e575b505050811b019055611f9c565b01355f19600384901b60f8161c19169055898080612031565b91936020600181928787013581550195019201611ff6565b835f5260205f20601f840160051c810191602085106120aa575b601f0160051c01905b81811061209f5750611f4a565b5f8155600101612092565b9091508190612089565b60405162461bcd60e51b81526020600482015260116024820152704d697373696e6720636f6f72642073696760781b6044820152606490fd5b506201518042018042116102a8578610611d59565b346103535760803660031901126103535760043560243560068110908115610353576044356001600160401b03811161035357612143903690600401612e3b565b9190926064356001600160401b03811161035357612165903690600401612e3b565b9390916121706136e8565b61217d6001548810612f96565b5f878152600260205260409020600101546121a2906001600160a01b03161515612fda565b5f878152600260205260409020600301546001600160a01b0316330361271f57865f52600260205260405f209560ff60098801541660068110156103305760026121ec9114613064565b5f936003861496878015612712575b156126d857895f52600660205260405f205460018116151590816126cb575b5060088a015462278d008101908181116102a85762279b10018091116102a85781156126c1575b501561267c57895f52600460205260ff60405f20541661264557895f52600460205260405f20600160ff198254161790556041810361260a57612284818361373c565b600c8901916001600160401b0382116107715781906122a38454613385565b601f81116125ba575b505f90601f8311600114612553575f92612548575b50508160011b915f199060031b1c19161790555b875f526002602052600960405f2001916122f48660ff8554169461336d565b15610330576123597f4e71d2a3ce09c95d708a8bc888cb8838c8419bea1f25f6d07f2c601b173f720e91868a5f5160206158895f395f51905f526020829761233f6040518092612f65565ba360405194600386526040602087015260408601916133bd565b928033940390a36103305781156125345760028301546001600160a01b0316915b845f5260026020528460405f20915f146124f1575060ff6009600583015492015460181c16600281115f146124e7576001190160ff81116102a8576123be90613c32565b60648202828104606414831517156102a8576127109004908082106124df5750925b8184101561249a578382039182116102a8577ffc4c84ff0bf9d937dea068e6c13c3a16c307d76a1c5b5173c40f03f68f421e0094865f5160206158695f395f51905f5260806005948198965b6040519160018060a01b03168252602082015260018060a01b037f0000000000000000000000000000000000000000000000000000000000000000166040820152866060820152a201546124836040518094612f65565b33602084015260408301526060820152a260015f55005b60405162461bcd60e51b815260206004820152601860248201527f416d6f756e7420746f6f20736d616c6c20666f722066656500000000000000006044820152606490fd5b9050926123e0565b506123be5f613c32565b7ffc4c84ff0bf9d937dea068e6c13c3a16c307d76a1c5b5173c40f03f68f421e00946005915f5160206158695f395f51905f526080848198960154955f9661242c565b60018301546001600160a01b03169161237a565b013590508b806122c1565b909150601f19831691845f5260205f20925f5b8181106125a25750908460019594939210612589575b505050811b0190556122d5565b01355f19600384901b60f8161c191690558b808061257c565b91936020600181928787013581550195019201612566565b909150835f5260205f20601f840160051c81019160208510612600575b90601f859493920160051c01905b8181106125f257506122ac565b5f81558493506001016125e5565b90915081906125d7565b60405162461bcd60e51b81526020600482015260136024820152724d697373696e6720617262697465722073696760681b6044820152606490fd5b60405162461bcd60e51b815260206004820152600f60248201526e105b1c9958591e48191958da591959608a1b6044820152606490fd5b60405162461bcd60e51b815260206004820152601860248201527f4e6565642065766964656e6365206f722074696d656f757400000000000000006044820152606490fd5b905042118b612241565b600291501615158b61221a565b60405162461bcd60e51b815260206004820152601260248201527124b73b30b634b2103932b9b7b63aba34b7b760711b6044820152606490fd5b505f9550600487146121fb565b6372cc71e760e11b5f5260045ffd5b346103535761273c36612e7e565b98949096999561274d9492946136e8565b6127578383613a72565b6127618585613acd565b6127756001600160a01b03881615156131af565b6001600160a01b03861615612b2b576127996001600160a01b0387163314156131e8565b6127a4891515613228565b6127b1610e438c10613262565b6127bd60418b146132a2565b6127c78a8961373c565b6127d087613b1c565b996127e56127dd8c613c43565b8b10156132e2565b6001600160a01b03821698338a141580612b18575b61280390613321565b6001549c8d9c8d6128138161335f565b60015561281f90613c5d565b9e8f905f52600260205260405f209c8d8d600160a01b60019003166001600160601b0360a01b825416178155600101600160a01b6001900333166001600160601b0360a01b8254161790558d600281018d600160a01b60019003166001600160601b0360a01b825416179055600301906001600160601b0360a01b82541617905560048d0190600160a01b60019003166001600160601b0360a01b8254161790558c60058d0155620151808202918083046201518014901517156102a857611a8d6128ea9242613018565b6001600160401b03821161077157612905600b8b0154613385565b601f8111612ad0575b50938a979360209d97938b9a97938e975f90601f8311600114612a1c57948b948b6129ca9f9a97958f9c9a95805f5160206158495f395f51905f529b966129b7995f92612a11575b50508160011b915f199060031b1c191617600b8d01555b6040519889986001600160a01b03168c7f470292d5e9c87e6d5a100a14c56a434c9f25e9e2be1d5efa70c3b5f9aeda505f5f80a360018060a01b03169c6007339d015492896133dd565b0390a433906001600160a01b0316613cfe565b6006429101556129d9826139df565b604051908152817f2c39794ba48d965361d6eb56f0d6366313044d1b5b1758c68643d3e3a39a2c4e843393a360015f55604051908152f35b013590505f80612956565b600b8e9a9998979695949e015f5260205f20915f5b601f1985168110612a995750938b6129ca9f8f9c9b9a98948f9894966001915f5160206158495f395f51905f529c986129b79a83601f19811610612a80575b505050811b01600b8d015561296d565b01355f19600384901b60f8161c191690555f8080612a70565b93969a5094985092969a9c95999b506020600181928686013581550194019101928f9793928f9c9a969d9b9793928f9a9693612a31565b600b8b015f5260205f20601f840160051c81019160208510612b0e575b601f0160051c01905b818110612b03575061290e565b5f8155600101612af6565b9091508190612aed565b506001600160a01b0388168a14156127fa565b60405162461bcd60e51b815260206004820152600b60248201526a53656c6c6572207a65726f60a81b6044820152606490fd5b34610353575f36600319011261035357602060405162278d008152f35b34610353576020366003190112610353576004355f526006602052602060405f2054604051908152f35b34610353576080366003190112610353576004356024356001600160401b03811161035357612bd8903690600401612e3b565b919060443592606435612be96136e8565b612bf66001548510612f96565b5f84815260026020526040902060010154612c1b906001600160a01b03161515612fda565b42851180612e26575b612c2d90613025565b835f52600260205260405f209260ff600985015416600681101561033057612daa93612d7892612c626001612da49414613064565b612c6c828261373c565b612d9e60018060a01b0360018901541699612d708a8c60018060a01b0360028d015416938c600360018060a01b03910154168d60018060a01b0381541660066005830154920154926040519560208701977f3ec4667e1948e2e97f54b4602b6bbfa8f3f98ff1036916ce75d84c59f9558f0289526040880152606087015288608087015260a086015260c085015260e0840152610100830152610120820152896101408201526101408152612d23610160826130bc565b51902061044d612d5c612d346137b8565b92604051928391602083019586909160429261190160f01b8352600283015260228201520190565b519020612d6a3687876130f8565b90613fa4565b969096613fd5565b6001600160a01b0386169a612d8e8c151561312e565b8b14908115612e1c575b5061316d565b87613866565b84613926565b612db38261399f565b60084291015562278d0042018042116102a8577f1a9502b6f661da8b0573a0617c121cabe2e93ea05d5239cfab6e9d1734b928c960208392604051908152a27fd658effe7cf013e5a508b3f1a373b92566494d8b6a7c2970fc964932de1c4dab5f80a360015f55005b90508a148b612d98565b506201518042018042116102a8578510612c24565b9181601f84011215610353578235916001600160401b038311610353576020838186019501011161035357565b602435906001600160a01b038216820361035357565b90610100600319830112610353576004356001600160a01b038116810361035357916024356001600160a01b0381168103610353579160443591606435916084356001600160a01b0381168103610353579160a4356001600160401b0381116103535781612eee91600401612e3b565b9290929160c4356001600160401b0381116103535781612f1091600401612e3b565b9290929160e435906001600160401b03821161035357612f3291600401612e3b565b9091565b9060406003198301126103535760043591602435906001600160401b03821161035357612f3291600401612e3b565b9060068210156103305752565b805180835260209291819084018484015e5f828201840152601f01601f1916010190565b15612f9d57565b60405162461bcd60e51b8152602060048201526015602482015274115cd8dc9bddc8191bd95cc81b9bdd08195e1a5cdd605a1b6044820152606490fd5b15612fe157565b60405162461bcd60e51b815260206004820152600f60248201526e139bdd081a5b9a5d1a585b1a5e9959608a1b6044820152606490fd5b919082018092116102a857565b1561302c57565b60405162461bcd60e51b815260206004820152601060248201526f496e76616c696420646561646c696e6560801b6044820152606490fd5b1561306b57565b60405162461bcd60e51b815260206004820152600d60248201526c496e76616c696420737461746560981b6044820152606490fd5b61020081019081106001600160401b0382111761077157604052565b90601f801991011681019081106001600160401b0382111761077157604052565b6001600160401b03811161077157601f01601f191660200190565b929192613104826130dd565b9161311260405193846130bc565b829481845281830111610353578281602093845f960137010152565b1561313557565b60405162461bcd60e51b815260206004820152601060248201526f496e76616c6964207265636f7665727960801b6044820152606490fd5b1561317457565b60405162461bcd60e51b81526020600482015260136024820152722ab730baba3437b934bd32b21039b4b3b732b960691b6044820152606490fd5b156131b657565b60405162461bcd60e51b815260206004820152600a602482015269546f6b656e207a65726f60b01b6044820152606490fd5b156131ef57565b60405162461bcd60e51b815260206004820152601160248201527042757965722073656c6c65722073616d6560781b6044820152606490fd5b1561322f57565b60405162461bcd60e51b815260206004820152600b60248201526a416d6f756e74207a65726f60a81b6044820152606490fd5b1561326957565b60405162461bcd60e51b81526020600482015260116024820152704d6174757269747920746f6f206c6f6e6760781b6044820152606490fd5b156132a957565b60405162461bcd60e51b81526020600482015260116024820152704d697373696e672062757965722073696760781b6044820152606490fd5b156132e957565b60405162461bcd60e51b815260206004820152601060248201526f105b5bdd5b9d081d1bdbc81cdb585b1b60821b6044820152606490fd5b1561332857565b60405162461bcd60e51b815260206004820152600f60248201526e24b73b30b634b21030b93134ba32b960891b6044820152606490fd5b5f1981146102a85760010190565b9060068110156103305760ff80198354169116179055565b90600182811c921680156133b3575b602083101461339f57565b634e487b7160e01b5f52602260045260245ffd5b91607f1691613394565b908060209392818452848401375f828201840152601f01601f1916010190565b96949261342b98969261341d959260018060a01b03168952602089015260018060a01b03166040880152606087015260c0608087015260c08601916133bd565b9260a08185039101526133bd565b90565b1561343557565b60405162461bcd60e51b81526020600482015260126024820152714d697373696e672073656c6c65722073696760701b6044820152606490fd5b1561347657565b60405162461bcd60e51b815260206004820152600b60248201526a27b7363c9039b2b63632b960a91b6044820152606490fd5b156134b057565b60405162461bcd60e51b8152602060048201526011602482015270105b1c9958591e481cdd589b5a5d1d1959607a1b6044820152606490fd5b156134f057565b60405162461bcd60e51b815260206004820152600b60248201526a57726f6e6720737461746560a81b6044820152606490fd5b9060405191825f82549261353684613385565b80845293600181169081156135a1575060011461355d575b5061355b925003836130bc565b565b90505f9291925260205f20905f915b81831061358557505090602061355b928201015f61354e565b602091935080600191548385890101520191019091849261356c565b90506020925061355b94915060ff191682840152151560051b8201015f61354e565b156135ca57565b60405162461bcd60e51b815260206004820152600a602482015269139bc819195c1bdcda5d60b21b6044820152606490fd5b1561360357565b60405162461bcd60e51b815260206004820152600e60248201526d446973707574652061637469766560901b6044820152606490fd5b1561364057565b60405162461bcd60e51b81526020600482015260156024820152744e6f74206177616974696e672064656c697665727960581b6044820152606490fd5b6040519061368c6040836130bc565b60018252603160f81b6020830152565b926080929594919560a08501967f8b73c3c69bb8fe3d512ecc4cf759cc79239f7b179b0ffacaa9a75d522b39400f865260208601526040850152606084015260018060a01b0316910152565b60025f54146136f75760025f55565b60405162461bcd60e51b815260206004820152601f60248201527f5265656e7472616e637947756172643a207265656e7472616e742063616c6c006044820152606490fd5b906041036137a9576fa2a8918ca85bafe22016d0b997e4df60600160ff1b03602060408301355f1a9201351161379a57601b811415908161378e575b5061377f57565b6307839aef60e21b5f5260045ffd5b601c915014155f613778565b6354b34b0360e01b5f5260045ffd5b6354f3472360e01b5f5260045ffd5b467f000000000000000000000000000000000000000000000000000000000000000003613803577f000000000000000000000000000000000000000000000000000000000000000090565b601660206040516138156040826130bc565b828152017550616c696e64726f6d6543727970746f457363726f7760501b81522061044d61386061384461367d565b602081519101206040519283916020830195309146918861369c565b51902090565b916041036137a957602081013560408201355f1a6fa2a8918ca85bafe22016d0b997e4df60600160ff1b03821161379a57601b811415908161391a575b5061377f576040519160208301933060601b855260348401523560548301526074820152466094820152609481526138dc60b4826130bc565b519020805f52600360205260ff60405f20541661390b575f52600360205260405f20600160ff19825416179055565b63900bb2c960e01b5f5260045ffd5b601c915014155f6138a3565b91908160081c90835f52600560205260405f2060018060a01b0382165f5260205260405f20825f52602052600160ff60405f205494161b93848416613990575f52600560205260405f209060018060a01b03165f5260205260405f20905f526020521760405f2055565b633ab3447f60e11b5f5260045ffd5b600290805f52816020525f5160206158895f395f51905f526020600960405f20016139cf8560ff8354169261336d565b6139dc6040518092612f65565ba3565b600190805f5260026020525f5160206158895f395f51905f526020600960405f20016139cf8560ff8354169261336d565b600390805f5260026020525f5160206158895f395f51905f526020600960405f20016139cf8560ff8354169261336d565b600590805f5260026020525f5160206158895f395f51905f526020600960405f20016139cf8560ff8354169261336d565b508015159081613ac1575b5015613a8557565b60405162461bcd60e51b8152602060048201526014602482015273092dcecc2d8d2c840e8d2e8d8ca40d8cadccee8d60631b6044820152606490fd5b6064915011155f613a7d565b50606410613ad757565b60405162461bcd60e51b815260206004820152601860248201527f496e76616c696420495046532068617368206c656e67746800000000000000006044820152606490fd5b60405163313ce56760e01b815290602090829060049082906001600160a01b0316617530fa5f9181613bf4575b50613b935760405162461bcd60e51b815260206004820152601f60248201527f546f6b656e206d75737420696d706c656d656e7420646563696d616c732829006044820152606490fd5b60ff811660068110159081613be8575b5015613bac5790565b60405162461bcd60e51b8152602060048201526014602482015273556e737570706f7274656420646563696d616c7360601b6044820152606490fd5b6012915011155f613ba3565b9091506020813d602011613c2a575b81613c10602093836130bc565b81010312610353575160ff8116810361035357905f613b49565b3d9150613c03565b60ff16604d81116102a857600a0a90565b613c4c90613c32565b80600a0290600a8204036102a85790565b604051602081019082825260208152613c776040826130bc565b5190206040519091613cf1611636613c9260208201856130bc565b80845260208401906141f3823960206040519381850190308252604086015260408552613cc06060866130bc565b60405194859383850197518091895e840190838201905f8252519283915e01015f815203601f1981018352826130bc565b51905ff590811561035357565b6040516323b872dd60e01b602082019081526001600160a01b039384166024830152929093166044840152606480840194909452928252613dbd925f908190613d486084866130bc565b60018060a01b03169260405194613d606040876130bc565b602086527f5361666545524332303a206c6f772d6c6576656c2063616c6c206661696c65646020870152519082855af13d15613e4e573d91613da1836130dd565b92613daf60405194856130bc565b83523d5f602085013e614155565b8051908115918215613e2b575b505015613dd357565b60405162461bcd60e51b815260206004820152602a60248201527f5361666545524332303a204552433230206f7065726174696f6e20646964206e6044820152691bdd081cdd58d8d9595960b21b6064820152608490fd5b819250906020918101031261035357602001518015158103610353575f80613dca565b606091614155565b91825f52600260205260405f209260ff6009600586015495015460181c16600281115f14613f2b576001190160ff81116102a857613e9390613c32565b60648502858104606414861517156102a857612710900490808210613f235750925b8484101561249a578385039485116102a857604080516001600160a01b039283168152602081018790527f000000000000000000000000000000000000000000000000000000000000000090921690820152606081018490525f5160206158695f395f51905f5290608090a2565b905092613eb5565b50613e935f613c32565b91825f526002602052600560405f200154925f5160206158695f395f51905f5260805f946040519060018060a01b0316815286602082015260018060a01b037f00000000000000000000000000000000000000000000000000000000000000001660408201525f6060820152a2565b9060418151145f14613fcc57612f3291602082015190606060408401519301515f1a906140d9565b50505f90600290565b60058110156103305780613fe65750565b600181036140335760405162461bcd60e51b815260206004820152601860248201527f45434453413a20696e76616c6964207369676e617475726500000000000000006044820152606490fd5b600281036140805760405162461bcd60e51b815260206004820152601f60248201527f45434453413a20696e76616c6964207369676e6174757265206c656e677468006044820152606490fd5b60031461408957565b60405162461bcd60e51b815260206004820152602260248201527f45434453413a20696e76616c6964207369676e6174757265202773272076616c604482015261756560f01b6064820152608490fd5b6fa2a8918ca85bafe22016d0b997e4df60600160ff1b03841161414a576020935f9360ff60809460405194855216868401526040830152606082015282805260015afa1561413f575f516001600160a01b0381161561413757905f90565b505f90600190565b6040513d5f823e3d90fd5b505050505f90600390565b919290156141b75750815115614169575090565b3b156141725790565b60405162461bcd60e51b815260206004820152601d60248201527f416464726573733a2063616c6c20746f206e6f6e2d636f6e74726163740000006044820152606490fd5b8251909150156141ca5750805190602001fd5b60405162461bcd60e51b8152602060048201529081906141ee906024830190612f72565b0390fdfe61010080604052346101ce57604081611636803803809161002082856101d2565b8339810103126101ce5780516001600160a01b038116918282036101ce57602001519160015f551561019b5760805260a0524660e0526040516100646040826101d2565b601681527f50616c696e64726f6d65457363726f7757616c6c657400000000000000000000602090910152604080517fd5841ac2316671d82a0b6316f3b37c25b9263de2e5c9e54cefc98911e9c1f8df916100bf90826101d2565b600181526020810190603160f81b82525190206040519060208201927f8b73c3c69bb8fe3d512ecc4cf759cc79239f7b179b0ffacaa9a75d522b39400f8452604083015260608201524660808201523060a082015260a0815261012360c0826101d2565b51902060c05260405161142c908161020a82396080518181816101b3015281816106990152818161073601528181610a0f0152610b20015260a0518181816101830152818161062c0152818161066e015281816109dc01528181610aec0152610d1b015260c05181610e7c015260e05181610d9f0152f35b60405162461bcd60e51b815260206004820152600b60248201526a457363726f77207a65726f60a81b6044820152606490fd5b5f80fd5b601f909101601f19168101906001600160401b038211908210176101f557604052565b634e487b7160e01b5f52604160045260245ffdfe60806040526004361015610011575f80fd5b5f3560e01c806312065fe0146100a4578063145d07051461009f5780632a5851a21461009a5780633644e515146100955780633ccfd60b146100905780635753d9891461008b57806393e74d7f14610086578063c80ec522146100815763e42a96e71461007c575f80fd5b610721565b6106ff565b61064f565b610615565b61014d565b610133565b61010c565b6100db565b346100c6575f3660031901126100c65760206100be6109cd565b604051908152f35b5f80fd5b6001600160a01b038116036100c657565b346100c65760203660031901126100c65760206101026004356100fd816100ca565b610add565b6040519015158152f35b346100c65760203660031901126100c65760206100be60043561012e816100ca565b610cee565b346100c6575f3660031901126100c65760206100be610d9d565b346100c6575f3660031901126100c65760025f54146105d05760025f5560015460ff166105c157604051633e8cf2cb60e11b81527f0000000000000000000000000000000000000000000000000000000000000000600482018190526001600160a01b037f0000000000000000000000000000000000000000000000000000000000000000165f83602481845afa928315610412575f9361059d575b50610120830151916101fa83610c37565b61020383610c37565b6003831493841580610589575b80610575575b6105665780516001600160a01b0316156105575760208101805190919061024d906001600160a01b03165b6001600160a01b031690565b33141580610537575b80610517575b61050857600261026b82610ec5565b106104f957610281600160ff1981541617600155565b8051610295906001600160a01b0316610241565b6040516370a0823160e01b81523060048201526001600160a01b0382169790969193916020886024818c5afa978815610412575f986104d4575b506102d990610c37565b156104685750604081015160049291906020906001600160a01b03169560405194858092632cfc019d60e21b82525afa928315610412575f93610437575b506001600160a01b038316958615610428577f2b50bbeab304785e1247f1e22da0321897c428768d93e80ab1811e9baa9559019361036861037b926103626101808a96015160ff1690565b9061109f565b94819891928680610417575b5050610f5c565b6040805195865260208601929092526001600160a01b031693a45b6040516370a0823160e01b815230600482015290602090829060249082905afa908115610412575f916103e3575b506103d4576103d260015f55565b005b631fea47ef60e01b5f5260045ffd5b610405915060203d60201161040b575b6103fd8183610779565b8101906109be565b5f6103c4565b503d6103f3565b6109b3565b6104219183610f5c565b5f86610374565b630665334760e11b5f5260045ffd5b61045a91935060203d602011610461575b6104528183610779565b810190610c46565b915f610317565b503d610448565b515f9594507f2b50bbeab304785e1247f1e22da0321897c428768d93e80ab1811e9baa955901926104cc9250906104ab9086906001600160a01b03168093610f5c565b604080519586525f60208701526001600160a01b0390911694918291820190565b0390a4610396565b6102d99198506104f29060203d60201161040b576103fd8183610779565b97906102cf565b633724e34360e11b5f5260045ffd5b630eebd6cd60e21b5f5260045ffd5b50606081015161052f906001600160a01b0316610241565b33141561025c565b50604081015161054f906001600160a01b0316610241565b331415610256565b6381c609f760e01b5f5260045ffd5b635448814d60e11b5f5260045ffd5b5061057f84610c37565b6005841415610216565b5061059384610c37565b6004841415610210565b6105ba9193503d805f833e6105b28183610779565b810190610847565b915f6101e9565b636507689f60e01b5f5260045ffd5b60405162461bcd60e51b815260206004820152601f60248201527f5265656e7472616e637947756172643a207265656e7472616e742063616c6c006044820152606490fd5b346100c6575f3660031901126100c65760206040517f00000000000000000000000000000000000000000000000000000000000000008152f35b346100c6575f3660031901126100c657604051633e8cf2cb60e11b81527f000000000000000000000000000000000000000000000000000000000000000060048201525f816024817f00000000000000000000000000000000000000000000000000000000000000006001600160a01b03165afa8015610412576106da915f916106e5575b50610ec5565b604051908152602090f35b6106f991503d805f833e6105b28183610779565b5f6106d4565b346100c6575f3660031901126100c657602060ff600154166040519015158152f35b346100c6575f3660031901126100c6576040517f00000000000000000000000000000000000000000000000000000000000000006001600160a01b03168152602090f35b634e487b7160e01b5f52604160045260245ffd5b90601f8019910116810190811067ffffffffffffffff82111761079b57604052565b610765565b604051906107b061020083610779565b565b51906107b0826100ca565b519060068210156100c657565b519081151582036100c657565b519060ff821682036100c657565b67ffffffffffffffff811161079b57601f01601f191660200190565b81601f820112156100c657805190610818826107e5565b926108266040519485610779565b828452602083830101116100c657815f9260208093018386015e8301015290565b6020818303126100c65780519067ffffffffffffffff82116100c65701610200818303126100c6576108776107a0565b91610881826107b2565b835261088f602083016107b2565b60208401526108a0604083016107b2565b60408401526108b1606083016107b2565b60608401526108c2608083016107b2565b608084015260a082015160a084015260c082015160c084015260e082015160e08401526101008201516101008401526108fe61012083016107bd565b61012084015261091161014083016107ca565b61014084015261092461016083016107ca565b61016084015261093761018083016107d7565b6101808401526101a082015167ffffffffffffffff81116100c6578161095e918401610801565b6101a08401526101c082015167ffffffffffffffff81116100c65781610985918401610801565b6101c08401526101e082015167ffffffffffffffff81116100c6576109aa9201610801565b6101e082015290565b6040513d5f823e3d90fd5b908160209103126100c6575190565b604051633e8cf2cb60e11b81527f000000000000000000000000000000000000000000000000000000000000000060048201525f816024816001600160a01b037f0000000000000000000000000000000000000000000000000000000000000000165afa801561041257610a50915f91610ac3575b50516001600160a01b031690565b6001600160a01b03811615610abe57610a71906001600160a01b0316610241565b6040516370a0823160e01b815230600482015290602090829060249082905afa908115610412575f91610aa2575090565b610abb915060203d60201161040b576103fd8183610779565b90565b505f90565b610ad791503d805f833e6105b28183610779565b5f610a42565b604051633e8cf2cb60e11b81527f00000000000000000000000000000000000000000000000000000000000000006004820152905f826024816001600160a01b037f0000000000000000000000000000000000000000000000000000000000000000165afa918215610412575f92610c07575b50602082018051909190610b6c906001600160a01b0316610241565b6001600160a01b03909116908103610b9e57506101c091909101519051610abb91906001600160a01b03165b90610c5b565b604083018051909250610bb9906001600160a01b0316610241565b8103610bdd57506101a091909101519051610abb91906001600160a01b0316610b98565b60608301516001600160a01b031691508114610bf95750505f90565b6101e0610abb920151610c5b565b610c1c9192503d805f833e6105b28183610779565b905f610b50565b634e487b7160e01b5f52602160045260245ffd5b60061115610c4157565b610c23565b908160209103126100c65751610abb816100ca565b6041815103610ce8576001600160a01b038216918215610ce157602082015191606060408201519101515f1a926fa2a8918ca85bafe22016d0b997e4df60600160ff1b038211610ccd57601b84141580610cd6575b610ccd57610cc993610cc461024194610cee565b611113565b1490565b50505050505f90565b50601c841415610cb0565b5050505f90565b50505f90565b60405160208101917f783cf3fdc83d5b0c9e236f4e0bfa8f022a2090d21a4c53f5f99df0d607781fa183527f0000000000000000000000000000000000000000000000000000000000000000604083015230606083015260018060a01b0316608082015260808152610d6160a082610779565b519020610d6c610d9d565b9060405190602082019261190160f01b84526022830152604282015260428152610d97606282610779565b51902090565b7f00000000000000000000000000000000000000000000000000000000000000004614610e7a576040610e6c610d97601660208451610ddc8682610779565b828152017514185b1a5b991c9bdb59515cd8dc9bddd5d85b1b195d60521b81522092600160208251610e0e8482610779565b828152603160f81b91019081522090517f8b73c3c69bb8fe3d512ecc4cf759cc79239f7b179b0ffacaa9a75d522b39400f60208201908152604082019590955260608101919091524660808201523060a082015291829060c0820190565b03601f198101835282610779565b7f000000000000000000000000000000000000000000000000000000000000000090565b634e487b7160e01b5f52601160045260245ffd5b5f198114610ec05760010190565b610e9e565b6101c081015160208201515f939291610ee7916001600160a01b031690610c5b565b610f53575b610f086101a082015160018060a01b0360408401511690610c5b565b610f3e575b6101e0810151606090910151610f2e916001600160a01b0390911690610c5b565b610f3457565b90610abb90610eb2565b91610f4b610f2e91610eb2565b929050610f0d565b60019250610eec565b91611010915f806107b09560405194602086019463a9059cbb60e01b865260018060a01b03166024870152604486015260448552610f9b606486610779565b60018060a01b03169260405194610fb3604087610779565b602086527f5361666545524332303a206c6f772d6c6576656c2063616c6c206661696c65646020870152519082855af13d1561103e573d91610ff4836107e5565b926110026040519485610779565b83523d5f602085013e611384565b8051908115918215611024575b505061113e565b611037925060208091830101910161112a565b5f8061101d565b606091611384565b1561104d57565b60405162461bcd60e51b815260206004820152601860248201527f416d6f756e7420746f6f20736d616c6c20666f722066656500000000000000006044820152606490fd5b91908203918211610ec057565b9060ff16600281111561110a576001190160ff8111610ec05760ff905b16604d8111610ec057600a0a606482029082820460641483151715610ec0576111009161271090049080821061110357505b80926110fb818310611046565b611092565b91565b90506110ee565b5060ff5f6110bc565b91610abb93916111229361119d565b919091611218565b908160209103126100c657610abb906107ca565b1561114557565b60405162461bcd60e51b815260206004820152602a60248201527f5361666545524332303a204552433230206f7065726174696f6e20646964206e6044820152691bdd081cdd58d8d9595960b21b6064820152608490fd5b6fa2a8918ca85bafe22016d0b997e4df60600160ff1b038411611203576020935f9360ff60809460405194855216868401526040830152606082015282805260015afa15610412575f516001600160a01b038116156111fb57905f90565b505f90600190565b505050505f90600390565b60051115610c4157565b6112218161120e565b806112295750565b6112328161120e565b6001810361127f5760405162461bcd60e51b815260206004820152601860248201527f45434453413a20696e76616c6964207369676e617475726500000000000000006044820152606490fd5b6112888161120e565b600281036112d55760405162461bcd60e51b815260206004820152601f60248201527f45434453413a20696e76616c6964207369676e6174757265206c656e677468006044820152606490fd5b806112e160039261120e565b146112e857565b60405162461bcd60e51b815260206004820152602260248201527f45434453413a20696e76616c6964207369676e6174757265202773272076616c604482015261756560f01b6064820152608490fd5b1561133f57565b60405162461bcd60e51b815260206004820152601d60248201527f416464726573733a2063616c6c20746f206e6f6e2d636f6e74726163740000006044820152606490fd5b919290156113a45750815115611398575090565b610abb903b1515611338565b8251909150156113b75750805190602001fd5b604460209160405192839162461bcd60e51b83528160048401528051918291826024860152018484015e5f828201840152601f01601f19168101030190fdfea2646970667358221220da9b2116bc925264e63679ea4bcb487962ddf59eb5f72da3971d6ae6afe22ec164736f6c634300081d00339a98d2f378553651c1f49353593985b1cda0f6d7e9ab1062bb365dc9172a5cd5d3e0574cb952cf8d88c9c2b97882e6000237da1d62a64753eaddaf4d9ce7351b4efd0eb8137437cc21ded7c1b056cd5a6e457ad8830e42d74bb9ba46144dbe8318e785d11512625ba8e5486b7d963f337dfc0a628752fe18e284b0375eefe46ca2646970667358221220b27baebcaf9ed046cb27aba6c31c38af34037d3aefa28252344a1d989751b82264736f6c634300081d003361010080604052346101ce57604081611636803803809161002082856101d2565b8339810103126101ce5780516001600160a01b038116918282036101ce57602001519160015f551561019b5760805260a0524660e0526040516100646040826101d2565b601681527f50616c696e64726f6d65457363726f7757616c6c657400000000000000000000602090910152604080517fd5841ac2316671d82a0b6316f3b37c25b9263de2e5c9e54cefc98911e9c1f8df916100bf90826101d2565b600181526020810190603160f81b82525190206040519060208201927f8b73c3c69bb8fe3d512ecc4cf759cc79239f7b179b0ffacaa9a75d522b39400f8452604083015260608201524660808201523060a082015260a0815261012360c0826101d2565b51902060c05260405161142c908161020a82396080518181816101b3015281816106990152818161073601528181610a0f0152610b20015260a0518181816101830152818161062c0152818161066e015281816109dc01528181610aec0152610d1b015260c05181610e7c015260e05181610d9f0152f35b60405162461bcd60e51b815260206004820152600b60248201526a457363726f77207a65726f60a81b6044820152606490fd5b5f80fd5b601f909101601f19168101906001600160401b038211908210176101f557604052565b634e487b7160e01b5f52604160045260245ffdfe60806040526004361015610011575f80fd5b5f3560e01c806312065fe0146100a4578063145d07051461009f5780632a5851a21461009a5780633644e515146100955780633ccfd60b146100905780635753d9891461008b57806393e74d7f14610086578063c80ec522146100815763e42a96e71461007c575f80fd5b610721565b6106ff565b61064f565b610615565b61014d565b610133565b61010c565b6100db565b346100c6575f3660031901126100c65760206100be6109cd565b604051908152f35b5f80fd5b6001600160a01b038116036100c657565b346100c65760203660031901126100c65760206101026004356100fd816100ca565b610add565b6040519015158152f35b346100c65760203660031901126100c65760206100be60043561012e816100ca565b610cee565b346100c6575f3660031901126100c65760206100be610d9d565b346100c6575f3660031901126100c65760025f54146105d05760025f5560015460ff166105c157604051633e8cf2cb60e11b81527f0000000000000000000000000000000000000000000000000000000000000000600482018190526001600160a01b037f0000000000000000000000000000000000000000000000000000000000000000165f83602481845afa928315610412575f9361059d575b50610120830151916101fa83610c37565b61020383610c37565b6003831493841580610589575b80610575575b6105665780516001600160a01b0316156105575760208101805190919061024d906001600160a01b03165b6001600160a01b031690565b33141580610537575b80610517575b61050857600261026b82610ec5565b106104f957610281600160ff1981541617600155565b8051610295906001600160a01b0316610241565b6040516370a0823160e01b81523060048201526001600160a01b0382169790969193916020886024818c5afa978815610412575f986104d4575b506102d990610c37565b156104685750604081015160049291906020906001600160a01b03169560405194858092632cfc019d60e21b82525afa928315610412575f93610437575b506001600160a01b038316958615610428577f2b50bbeab304785e1247f1e22da0321897c428768d93e80ab1811e9baa9559019361036861037b926103626101808a96015160ff1690565b9061109f565b94819891928680610417575b5050610f5c565b6040805195865260208601929092526001600160a01b031693a45b6040516370a0823160e01b815230600482015290602090829060249082905afa908115610412575f916103e3575b506103d4576103d260015f55565b005b631fea47ef60e01b5f5260045ffd5b610405915060203d60201161040b575b6103fd8183610779565b8101906109be565b5f6103c4565b503d6103f3565b6109b3565b6104219183610f5c565b5f86610374565b630665334760e11b5f5260045ffd5b61045a91935060203d602011610461575b6104528183610779565b810190610c46565b915f610317565b503d610448565b515f9594507f2b50bbeab304785e1247f1e22da0321897c428768d93e80ab1811e9baa955901926104cc9250906104ab9086906001600160a01b03168093610f5c565b604080519586525f60208701526001600160a01b0390911694918291820190565b0390a4610396565b6102d99198506104f29060203d60201161040b576103fd8183610779565b97906102cf565b633724e34360e11b5f5260045ffd5b630eebd6cd60e21b5f5260045ffd5b50606081015161052f906001600160a01b0316610241565b33141561025c565b50604081015161054f906001600160a01b0316610241565b331415610256565b6381c609f760e01b5f5260045ffd5b635448814d60e11b5f5260045ffd5b5061057f84610c37565b6005841415610216565b5061059384610c37565b6004841415610210565b6105ba9193503d805f833e6105b28183610779565b810190610847565b915f6101e9565b636507689f60e01b5f5260045ffd5b60405162461bcd60e51b815260206004820152601f60248201527f5265656e7472616e637947756172643a207265656e7472616e742063616c6c006044820152606490fd5b346100c6575f3660031901126100c65760206040517f00000000000000000000000000000000000000000000000000000000000000008152f35b346100c6575f3660031901126100c657604051633e8cf2cb60e11b81527f000000000000000000000000000000000000000000000000000000000000000060048201525f816024817f00000000000000000000000000000000000000000000000000000000000000006001600160a01b03165afa8015610412576106da915f916106e5575b50610ec5565b604051908152602090f35b6106f991503d805f833e6105b28183610779565b5f6106d4565b346100c6575f3660031901126100c657602060ff600154166040519015158152f35b346100c6575f3660031901126100c6576040517f00000000000000000000000000000000000000000000000000000000000000006001600160a01b03168152602090f35b634e487b7160e01b5f52604160045260245ffd5b90601f8019910116810190811067ffffffffffffffff82111761079b57604052565b610765565b604051906107b061020083610779565b565b51906107b0826100ca565b519060068210156100c657565b519081151582036100c657565b519060ff821682036100c657565b67ffffffffffffffff811161079b57601f01601f191660200190565b81601f820112156100c657805190610818826107e5565b926108266040519485610779565b828452602083830101116100c657815f9260208093018386015e8301015290565b6020818303126100c65780519067ffffffffffffffff82116100c65701610200818303126100c6576108776107a0565b91610881826107b2565b835261088f602083016107b2565b60208401526108a0604083016107b2565b60408401526108b1606083016107b2565b60608401526108c2608083016107b2565b608084015260a082015160a084015260c082015160c084015260e082015160e08401526101008201516101008401526108fe61012083016107bd565b61012084015261091161014083016107ca565b61014084015261092461016083016107ca565b61016084015261093761018083016107d7565b6101808401526101a082015167ffffffffffffffff81116100c6578161095e918401610801565b6101a08401526101c082015167ffffffffffffffff81116100c65781610985918401610801565b6101c08401526101e082015167ffffffffffffffff81116100c6576109aa9201610801565b6101e082015290565b6040513d5f823e3d90fd5b908160209103126100c6575190565b604051633e8cf2cb60e11b81527f000000000000000000000000000000000000000000000000000000000000000060048201525f816024816001600160a01b037f0000000000000000000000000000000000000000000000000000000000000000165afa801561041257610a50915f91610ac3575b50516001600160a01b031690565b6001600160a01b03811615610abe57610a71906001600160a01b0316610241565b6040516370a0823160e01b815230600482015290602090829060249082905afa908115610412575f91610aa2575090565b610abb915060203d60201161040b576103fd8183610779565b90565b505f90565b610ad791503d805f833e6105b28183610779565b5f610a42565b604051633e8cf2cb60e11b81527f00000000000000000000000000000000000000000000000000000000000000006004820152905f826024816001600160a01b037f0000000000000000000000000000000000000000000000000000000000000000165afa918215610412575f92610c07575b50602082018051909190610b6c906001600160a01b0316610241565b6001600160a01b03909116908103610b9e57506101c091909101519051610abb91906001600160a01b03165b90610c5b565b604083018051909250610bb9906001600160a01b0316610241565b8103610bdd57506101a091909101519051610abb91906001600160a01b0316610b98565b60608301516001600160a01b031691508114610bf95750505f90565b6101e0610abb920151610c5b565b610c1c9192503d805f833e6105b28183610779565b905f610b50565b634e487b7160e01b5f52602160045260245ffd5b60061115610c4157565b610c23565b908160209103126100c65751610abb816100ca565b6041815103610ce8576001600160a01b038216918215610ce157602082015191606060408201519101515f1a926fa2a8918ca85bafe22016d0b997e4df60600160ff1b038211610ccd57601b84141580610cd6575b610ccd57610cc993610cc461024194610cee565b611113565b1490565b50505050505f90565b50601c841415610cb0565b5050505f90565b50505f90565b60405160208101917f783cf3fdc83d5b0c9e236f4e0bfa8f022a2090d21a4c53f5f99df0d607781fa183527f0000000000000000000000000000000000000000000000000000000000000000604083015230606083015260018060a01b0316608082015260808152610d6160a082610779565b519020610d6c610d9d565b9060405190602082019261190160f01b84526022830152604282015260428152610d97606282610779565b51902090565b7f00000000000000000000000000000000000000000000000000000000000000004614610e7a576040610e6c610d97601660208451610ddc8682610779565b828152017514185b1a5b991c9bdb59515cd8dc9bddd5d85b1b195d60521b81522092600160208251610e0e8482610779565b828152603160f81b91019081522090517f8b73c3c69bb8fe3d512ecc4cf759cc79239f7b179b0ffacaa9a75d522b39400f60208201908152604082019590955260608101919091524660808201523060a082015291829060c0820190565b03601f198101835282610779565b7f000000000000000000000000000000000000000000000000000000000000000090565b634e487b7160e01b5f52601160045260245ffd5b5f198114610ec05760010190565b610e9e565b6101c081015160208201515f939291610ee7916001600160a01b031690610c5b565b610f53575b610f086101a082015160018060a01b0360408401511690610c5b565b610f3e575b6101e0810151606090910151610f2e916001600160a01b0390911690610c5b565b610f3457565b90610abb90610eb2565b91610f4b610f2e91610eb2565b929050610f0d565b60019250610eec565b91611010915f806107b09560405194602086019463a9059cbb60e01b865260018060a01b03166024870152604486015260448552610f9b606486610779565b60018060a01b03169260405194610fb3604087610779565b602086527f5361666545524332303a206c6f772d6c6576656c2063616c6c206661696c65646020870152519082855af13d1561103e573d91610ff4836107e5565b926110026040519485610779565b83523d5f602085013e611384565b8051908115918215611024575b505061113e565b611037925060208091830101910161112a565b5f8061101d565b606091611384565b1561104d57565b60405162461bcd60e51b815260206004820152601860248201527f416d6f756e7420746f6f20736d616c6c20666f722066656500000000000000006044820152606490fd5b91908203918211610ec057565b9060ff16600281111561110a576001190160ff8111610ec05760ff905b16604d8111610ec057600a0a606482029082820460641483151715610ec0576111009161271090049080821061110357505b80926110fb818310611046565b611092565b91565b90506110ee565b5060ff5f6110bc565b91610abb93916111229361119d565b919091611218565b908160209103126100c657610abb906107ca565b1561114557565b60405162461bcd60e51b815260206004820152602a60248201527f5361666545524332303a204552433230206f7065726174696f6e20646964206e6044820152691bdd081cdd58d8d9595960b21b6064820152608490fd5b6fa2a8918ca85bafe22016d0b997e4df60600160ff1b038411611203576020935f9360ff60809460405194855216868401526040830152606082015282805260015afa15610412575f516001600160a01b038116156111fb57905f90565b505f90600190565b505050505f90600390565b60051115610c4157565b6112218161120e565b806112295750565b6112328161120e565b6001810361127f5760405162461bcd60e51b815260206004820152601860248201527f45434453413a20696e76616c6964207369676e617475726500000000000000006044820152606490fd5b6112888161120e565b600281036112d55760405162461bcd60e51b815260206004820152601f60248201527f45434453413a20696e76616c6964207369676e6174757265206c656e677468006044820152606490fd5b806112e160039261120e565b146112e857565b60405162461bcd60e51b815260206004820152602260248201527f45434453413a20696e76616c6964207369676e6174757265202773272076616c604482015261756560f01b6064820152608490fd5b1561133f57565b60405162461bcd60e51b815260206004820152601d60248201527f416464726573733a2063616c6c20746f206e6f6e2d636f6e74726163740000006044820152606490fd5b919290156113a45750815115611398575090565b610abb903b1515611338565b8251909150156113b75750805190602001fd5b604460209160405192839162461bcd60e51b83528160048401528051918291826024860152018484015e5f828201840152601f01601f19168101030190fdfea2646970667358221220da9b2116bc925264e63679ea4bcb487962ddf59eb5f72da3971d6ae6afe22ec164736f6c634300081d0033",
  "linkReferences": {},
  "deployedLinkReferences": {},
  "immutableReferences": {
    "3176": [
      {
        "length": 32,
        "start": 2361
      },
      {
        "length": 32,
        "start": 9288
      },
      {
        "length": 32,
        "start": 16097
      },
      {
        "length": 32,
        "start": 16246
      }
    ],
    "3178": [
      {
        "length": 32,
        "start": 6283
      }
    ],
    "3180": [
      {
        "length": 32,
        "start": 14305
      }
    ],
    "3182": [
      {
        "length": 32,
        "start": 14267
      }
    ]
  },
  "inputSourceName": "project/contracts/PalindromeCryptoEscrow.sol",
  "buildInfoId": "solc-0_8_29-3a3768e8e6625866d5f06460e7957ed6c625c33b"
}