{
  "_format": "hh3-artifact-1",
  "contractName": "PalindromeCryptoEscrow",
  "sourceName": "contracts/PalindromeCryptoEscrow.sol",
  "abi": [
    {
      "inputs": [
        {
          "internalType": "address",
          "name": "initialAllowedToken",
          "type": "address"
        }
      ],
      "stateMutability": "nonpayable",
      "type": "constructor"
    },
    {
      "inputs": [],
      "name": "InvalidMessageRoleForDispute",
      "type": "error"
    },
    {
      "anonymous": false,
      "inputs": [
        {
          "indexed": true,
          "internalType": "uint256",
          "name": "escrowId",
          "type": "uint256"
        },
        {
          "indexed": true,
          "internalType": "address",
          "name": "seller",
          "type": "address"
        },
        {
          "indexed": false,
          "internalType": "uint256",
          "name": "amount",
          "type": "uint256"
        },
        {
          "indexed": false,
          "internalType": "uint256",
          "name": "fee",
          "type": "uint256"
        }
      ],
      "name": "AutoReleased",
      "type": "event"
    },
    {
      "anonymous": false,
      "inputs": [
        {
          "indexed": true,
          "internalType": "uint256",
          "name": "escrowId",
          "type": "uint256"
        },
        {
          "indexed": true,
          "internalType": "address",
          "name": "initiator",
          "type": "address"
        },
        {
          "indexed": false,
          "internalType": "uint256",
          "name": "amount",
          "type": "uint256"
        },
        {
          "indexed": false,
          "internalType": "uint256",
          "name": "fee",
          "type": "uint256"
        }
      ],
      "name": "Canceled",
      "type": "event"
    },
    {
      "anonymous": false,
      "inputs": [
        {
          "indexed": true,
          "internalType": "uint256",
          "name": "escrowId",
          "type": "uint256"
        },
        {
          "indexed": true,
          "internalType": "address",
          "name": "buyer",
          "type": "address"
        },
        {
          "indexed": true,
          "internalType": "address",
          "name": "seller",
          "type": "address"
        },
        {
          "indexed": false,
          "internalType": "uint256",
          "name": "amount",
          "type": "uint256"
        },
        {
          "indexed": false,
          "internalType": "uint256",
          "name": "fee",
          "type": "uint256"
        }
      ],
      "name": "DeliveryConfirmed",
      "type": "event"
    },
    {
      "anonymous": false,
      "inputs": [
        {
          "indexed": true,
          "internalType": "uint256",
          "name": "escrowId",
          "type": "uint256"
        },
        {
          "indexed": true,
          "internalType": "address",
          "name": "sender",
          "type": "address"
        },
        {
          "indexed": true,
          "internalType": "uint256",
          "name": "role",
          "type": "uint256"
        },
        {
          "indexed": false,
          "internalType": "string",
          "name": "ipfsHash",
          "type": "string"
        },
        {
          "indexed": false,
          "internalType": "uint256",
          "name": "disputeStatus",
          "type": "uint256"
        }
      ],
      "name": "DisputeMessagePosted",
      "type": "event"
    },
    {
      "anonymous": false,
      "inputs": [
        {
          "indexed": true,
          "internalType": "uint256",
          "name": "escrowId",
          "type": "uint256"
        },
        {
          "indexed": false,
          "internalType": "enum PalindromeCryptoEscrow.State",
          "name": "resolution",
          "type": "uint8"
        },
        {
          "indexed": false,
          "internalType": "address",
          "name": "arbiter",
          "type": "address"
        },
        {
          "indexed": false,
          "internalType": "uint256",
          "name": "amount",
          "type": "uint256"
        },
        {
          "indexed": false,
          "internalType": "uint256",
          "name": "fee",
          "type": "uint256"
        }
      ],
      "name": "DisputeResolved",
      "type": "event"
    },
    {
      "anonymous": false,
      "inputs": [
        {
          "indexed": true,
          "internalType": "uint256",
          "name": "escrowId",
          "type": "uint256"
        },
        {
          "indexed": true,
          "internalType": "address",
          "name": "initiator",
          "type": "address"
        }
      ],
      "name": "DisputeStarted",
      "type": "event"
    },
    {
      "anonymous": false,
      "inputs": [
        {
          "indexed": true,
          "internalType": "uint256",
          "name": "escrowId",
          "type": "uint256"
        },
        {
          "indexed": true,
          "internalType": "address",
          "name": "buyer",
          "type": "address"
        },
        {
          "indexed": true,
          "internalType": "address",
          "name": "seller",
          "type": "address"
        },
        {
          "indexed": false,
          "internalType": "address",
          "name": "token",
          "type": "address"
        },
        {
          "indexed": false,
          "internalType": "uint256",
          "name": "amount",
          "type": "uint256"
        },
        {
          "indexed": false,
          "internalType": "address",
          "name": "arbiter",
          "type": "address"
        },
        {
          "indexed": false,
          "internalType": "uint256",
          "name": "maturityTime",
          "type": "uint256"
        },
        {
          "indexed": false,
          "internalType": "string",
          "name": "title",
          "type": "string"
        },
        {
          "indexed": false,
          "internalType": "string",
          "name": "ipfsHash",
          "type": "string"
        }
      ],
      "name": "EscrowCreated",
      "type": "event"
    },
    {
      "anonymous": false,
      "inputs": [
        {
          "indexed": true,
          "internalType": "address",
          "name": "token",
          "type": "address"
        },
        {
          "indexed": true,
          "internalType": "address",
          "name": "to",
          "type": "address"
        },
        {
          "indexed": false,
          "internalType": "uint256",
          "name": "amount",
          "type": "uint256"
        }
      ],
      "name": "FeeWithdrawn",
      "type": "event"
    },
    {
      "anonymous": false,
      "inputs": [
        {
          "indexed": true,
          "internalType": "address",
          "name": "previousOwner",
          "type": "address"
        },
        {
          "indexed": true,
          "internalType": "address",
          "name": "newOwner",
          "type": "address"
        }
      ],
      "name": "OwnershipTransferStarted",
      "type": "event"
    },
    {
      "anonymous": false,
      "inputs": [
        {
          "indexed": true,
          "internalType": "address",
          "name": "previousOwner",
          "type": "address"
        },
        {
          "indexed": true,
          "internalType": "address",
          "name": "newOwner",
          "type": "address"
        }
      ],
      "name": "OwnershipTransferred",
      "type": "event"
    },
    {
      "anonymous": false,
      "inputs": [
        {
          "indexed": true,
          "internalType": "uint256",
          "name": "escrowId",
          "type": "uint256"
        },
        {
          "indexed": true,
          "internalType": "address",
          "name": "buyer",
          "type": "address"
        },
        {
          "indexed": false,
          "internalType": "uint256",
          "name": "amount",
          "type": "uint256"
        }
      ],
      "name": "PaymentDeposited",
      "type": "event"
    },
    {
      "anonymous": false,
      "inputs": [
        {
          "indexed": true,
          "internalType": "address",
          "name": "token",
          "type": "address"
        },
        {
          "indexed": true,
          "internalType": "address",
          "name": "recipient",
          "type": "address"
        },
        {
          "indexed": false,
          "internalType": "uint256",
          "name": "amount",
          "type": "uint256"
        },
        {
          "indexed": false,
          "internalType": "uint256",
          "name": "fee",
          "type": "uint256"
        }
      ],
      "name": "PayoutWithFee",
      "type": "event"
    },
    {
      "anonymous": false,
      "inputs": [
        {
          "indexed": true,
          "internalType": "uint256",
          "name": "escrowId",
          "type": "uint256"
        },
        {
          "indexed": true,
          "internalType": "address",
          "name": "initiator",
          "type": "address"
        },
        {
          "indexed": false,
          "internalType": "uint256",
          "name": "amount",
          "type": "uint256"
        },
        {
          "indexed": false,
          "internalType": "uint256",
          "name": "fee",
          "type": "uint256"
        }
      ],
      "name": "Refunded",
      "type": "event"
    },
    {
      "anonymous": false,
      "inputs": [
        {
          "indexed": true,
          "internalType": "uint256",
          "name": "escrowId",
          "type": "uint256"
        },
        {
          "indexed": true,
          "internalType": "address",
          "name": "requester",
          "type": "address"
        }
      ],
      "name": "RequestCancel",
      "type": "event"
    },
    {
      "anonymous": false,
      "inputs": [
        {
          "indexed": true,
          "internalType": "address",
          "name": "token",
          "type": "address"
        },
        {
          "indexed": false,
          "internalType": "bool",
          "name": "allowed",
          "type": "bool"
        }
      ],
      "name": "TokenAllowed",
      "type": "event"
    },
    {
      "anonymous": false,
      "inputs": [
        {
          "indexed": true,
          "internalType": "address",
          "name": "token",
          "type": "address"
        },
        {
          "indexed": true,
          "internalType": "address",
          "name": "user",
          "type": "address"
        },
        {
          "indexed": false,
          "internalType": "uint256",
          "name": "amount",
          "type": "uint256"
        }
      ],
      "name": "Withdrawn",
      "type": "event"
    },
    {
      "inputs": [],
      "name": "acceptOwnership",
      "outputs": [],
      "stateMutability": "nonpayable",
      "type": "function"
    },
    {
      "inputs": [
        {
          "internalType": "address",
          "name": "tokenAddress",
          "type": "address"
        }
      ],
      "name": "allowedTokens",
      "outputs": [
        {
          "internalType": "bool",
          "name": "isAllowed",
          "type": "bool"
        }
      ],
      "stateMutability": "view",
      "type": "function"
    },
    {
      "inputs": [
        {
          "internalType": "uint256",
          "name": "escrowId",
          "type": "uint256"
        }
      ],
      "name": "autoRelease",
      "outputs": [],
      "stateMutability": "nonpayable",
      "type": "function"
    },
    {
      "inputs": [
        {
          "internalType": "uint256",
          "name": "escrowId",
          "type": "uint256"
        }
      ],
      "name": "cancelByTimeout",
      "outputs": [],
      "stateMutability": "nonpayable",
      "type": "function"
    },
    {
      "inputs": [
        {
          "internalType": "uint256",
          "name": "escrowId",
          "type": "uint256"
        }
      ],
      "name": "confirmDelivery",
      "outputs": [],
      "stateMutability": "nonpayable",
      "type": "function"
    },
    {
      "inputs": [
        {
          "internalType": "uint256",
          "name": "escrowId",
          "type": "uint256"
        },
        {
          "internalType": "bytes",
          "name": "signature",
          "type": "bytes"
        },
        {
          "internalType": "uint256",
          "name": "deadline",
          "type": "uint256"
        },
        {
          "internalType": "uint256",
          "name": "nonce",
          "type": "uint256"
        }
      ],
      "name": "confirmDeliverySigned",
      "outputs": [],
      "stateMutability": "nonpayable",
      "type": "function"
    },
    {
      "inputs": [
        {
          "internalType": "address",
          "name": "token",
          "type": "address"
        },
        {
          "internalType": "address",
          "name": "buyer",
          "type": "address"
        },
        {
          "internalType": "uint256",
          "name": "amount",
          "type": "uint256"
        },
        {
          "internalType": "uint256",
          "name": "maturityTimeDays",
          "type": "uint256"
        },
        {
          "internalType": "string",
          "name": "title",
          "type": "string"
        },
        {
          "internalType": "string",
          "name": "ipfsHash",
          "type": "string"
        }
      ],
      "name": "createEscrow",
      "outputs": [
        {
          "internalType": "uint256",
          "name": "",
          "type": "uint256"
        }
      ],
      "stateMutability": "nonpayable",
      "type": "function"
    },
    {
      "inputs": [
        {
          "internalType": "uint256",
          "name": "escrowId",
          "type": "uint256"
        }
      ],
      "name": "deposit",
      "outputs": [],
      "stateMutability": "nonpayable",
      "type": "function"
    },
    {
      "inputs": [
        {
          "internalType": "uint256",
          "name": "_disputeId",
          "type": "uint256"
        }
      ],
      "name": "disputeStatus",
      "outputs": [
        {
          "internalType": "uint256",
          "name": "_status",
          "type": "uint256"
        }
      ],
      "stateMutability": "view",
      "type": "function"
    },
    {
      "inputs": [
        {
          "internalType": "uint256",
          "name": "escrowId",
          "type": "uint256"
        }
      ],
      "name": "escrows",
      "outputs": [
        {
          "internalType": "address",
          "name": "token",
          "type": "address"
        },
        {
          "internalType": "address",
          "name": "buyer",
          "type": "address"
        },
        {
          "internalType": "address",
          "name": "seller",
          "type": "address"
        },
        {
          "internalType": "address",
          "name": "arbiter",
          "type": "address"
        },
        {
          "internalType": "uint256",
          "name": "amount",
          "type": "uint256"
        },
        {
          "internalType": "uint256",
          "name": "depositTime",
          "type": "uint256"
        },
        {
          "internalType": "uint256",
          "name": "maturityTime",
          "type": "uint256"
        },
        {
          "internalType": "uint256",
          "name": "nonce",
          "type": "uint256"
        },
        {
          "internalType": "enum PalindromeCryptoEscrow.State",
          "name": "state",
          "type": "uint8"
        },
        {
          "internalType": "bool",
          "name": "buyerCancelRequested",
          "type": "bool"
        },
        {
          "internalType": "bool",
          "name": "sellerCancelRequested",
          "type": "bool"
        }
      ],
      "stateMutability": "view",
      "type": "function"
    },
    {
      "inputs": [
        {
          "internalType": "address",
          "name": "token",
          "type": "address"
        }
      ],
      "name": "feeWithdrawable",
      "outputs": [
        {
          "internalType": "uint256",
          "name": "amount",
          "type": "uint256"
        }
      ],
      "stateMutability": "view",
      "type": "function"
    },
    {
      "inputs": [],
      "name": "nextEscrowId",
      "outputs": [
        {
          "internalType": "uint256",
          "name": "",
          "type": "uint256"
        }
      ],
      "stateMutability": "view",
      "type": "function"
    },
    {
      "inputs": [],
      "name": "owner",
      "outputs": [
        {
          "internalType": "address",
          "name": "",
          "type": "address"
        }
      ],
      "stateMutability": "view",
      "type": "function"
    },
    {
      "inputs": [],
      "name": "pendingOwner",
      "outputs": [
        {
          "internalType": "address",
          "name": "",
          "type": "address"
        }
      ],
      "stateMutability": "view",
      "type": "function"
    },
    {
      "inputs": [
        {
          "internalType": "uint256",
          "name": "escrowId",
          "type": "uint256"
        }
      ],
      "name": "refund",
      "outputs": [],
      "stateMutability": "nonpayable",
      "type": "function"
    },
    {
      "inputs": [
        {
          "internalType": "uint256",
          "name": "escrowId",
          "type": "uint256"
        },
        {
          "internalType": "uint256",
          "name": "deadline",
          "type": "uint256"
        },
        {
          "internalType": "bytes",
          "name": "signature",
          "type": "bytes"
        },
        {
          "internalType": "uint256",
          "name": "nonce",
          "type": "uint256"
        }
      ],
      "name": "refundSigned",
      "outputs": [],
      "stateMutability": "nonpayable",
      "type": "function"
    },
    {
      "inputs": [],
      "name": "renounceOwnership",
      "outputs": [],
      "stateMutability": "nonpayable",
      "type": "function"
    },
    {
      "inputs": [
        {
          "internalType": "uint256",
          "name": "escrowId",
          "type": "uint256"
        }
      ],
      "name": "requestCancel",
      "outputs": [],
      "stateMutability": "nonpayable",
      "type": "function"
    },
    {
      "inputs": [
        {
          "internalType": "uint256",
          "name": "escrowId",
          "type": "uint256"
        },
        {
          "internalType": "uint256",
          "name": "deadline",
          "type": "uint256"
        },
        {
          "internalType": "bytes",
          "name": "signature",
          "type": "bytes"
        },
        {
          "internalType": "uint256",
          "name": "nonce",
          "type": "uint256"
        }
      ],
      "name": "requestCancelSigned",
      "outputs": [],
      "stateMutability": "nonpayable",
      "type": "function"
    },
    {
      "inputs": [
        {
          "internalType": "uint256",
          "name": "escrowId",
          "type": "uint256"
        },
        {
          "internalType": "enum PalindromeCryptoEscrow.State",
          "name": "resolution",
          "type": "uint8"
        }
      ],
      "name": "resolveDispute",
      "outputs": [],
      "stateMutability": "nonpayable",
      "type": "function"
    },
    {
      "inputs": [
        {
          "internalType": "uint256",
          "name": "escrowId",
          "type": "uint256"
        },
        {
          "internalType": "enum PalindromeCryptoEscrow.State",
          "name": "resolution",
          "type": "uint8"
        },
        {
          "internalType": "uint256",
          "name": "deadline",
          "type": "uint256"
        },
        {
          "internalType": "bytes",
          "name": "signature",
          "type": "bytes"
        },
        {
          "internalType": "uint256",
          "name": "nonce",
          "type": "uint256"
        }
      ],
      "name": "resolveDisputeSigned",
      "outputs": [],
      "stateMutability": "nonpayable",
      "type": "function"
    },
    {
      "inputs": [
        {
          "internalType": "uint256",
          "name": "escrowId",
          "type": "uint256"
        }
      ],
      "name": "startDispute",
      "outputs": [],
      "stateMutability": "nonpayable",
      "type": "function"
    },
    {
      "inputs": [
        {
          "internalType": "uint256",
          "name": "escrowId",
          "type": "uint256"
        },
        {
          "internalType": "uint256",
          "name": "deadline",
          "type": "uint256"
        },
        {
          "internalType": "bytes",
          "name": "signature",
          "type": "bytes"
        },
        {
          "internalType": "uint256",
          "name": "nonce",
          "type": "uint256"
        }
      ],
      "name": "startDisputeSigned",
      "outputs": [],
      "stateMutability": "nonpayable",
      "type": "function"
    },
    {
      "inputs": [
        {
          "internalType": "uint256",
          "name": "escrowId",
          "type": "uint256"
        },
        {
          "internalType": "enum PalindromeCryptoEscrow.Role",
          "name": "role",
          "type": "uint8"
        },
        {
          "internalType": "string",
          "name": "ipfsHash",
          "type": "string"
        }
      ],
      "name": "submitDisputeMessage",
      "outputs": [],
      "stateMutability": "nonpayable",
      "type": "function"
    },
    {
      "inputs": [
        {
          "internalType": "address",
          "name": "newOwner",
          "type": "address"
        }
      ],
      "name": "transferOwnership",
      "outputs": [],
      "stateMutability": "nonpayable",
      "type": "function"
    },
    {
      "inputs": [
        {
          "internalType": "uint256",
          "name": "escrowId",
          "type": "uint256"
        }
      ],
      "name": "withdraw",
      "outputs": [],
      "stateMutability": "nonpayable",
      "type": "function"
    },
    {
      "inputs": [
        {
          "internalType": "address",
          "name": "token",
          "type": "address"
        },
        {
          "internalType": "address",
          "name": "to",
          "type": "address"
        }
      ],
      "name": "withdrawFee",
      "outputs": [],
      "stateMutability": "nonpayable",
      "type": "function"
    },
    {
      "inputs": [
        {
          "internalType": "address",
          "name": "token",
          "type": "address"
        },
        {
          "internalType": "address",
          "name": "user",
          "type": "address"
        }
      ],
      "name": "withdrawable",
      "outputs": [
        {
          "internalType": "uint256",
          "name": "amount",
          "type": "uint256"
        }
      ],
      "stateMutability": "view",
      "type": "function"
    }
  ],
  "bytecode": "0x608060405234801561000f575f5ffd5b5060405161406738038061406783398101604081905261002e91610161565b60015f5561003b336100f4565b6001600160a01b0381166100955760405162461bcd60e51b815260206004820152601660248201527f416464726573732063616e6e6f74206265207a65726f00000000000000000000604482015260640160405180910390fd5b6001600160a01b0381165f81815260056020908152604091829020805460ff1916600190811790915591519182527f9a8e30a8658b96ab3f034ce4bac6806278b4aee5880ccdd1ac35e4ed5bb31d23910160405180910390a25061018e565b600280546001600160a01b031916905561010d81610110565b50565b600180546001600160a01b038381166001600160a01b0319831681179093556040519116919082907f8be0079c531659141344cd1fd0a4f28419497f9722a3daafe3b4186f6b6457e0905f90a35050565b5f60208284031215610171575f5ffd5b81516001600160a01b0381168114610187575f5ffd5b9392505050565b613ecc8061019b5f395ff3fe608060405234801561000f575f5ffd5b50600436106101bb575f3560e01c8063a435d400116100f3578063e30c397811610093578063e744092e1161006e578063e744092e14610443578063ef7ee7b914610475578063f2fde38b14610488578063fd84cb971461049b575f5ffd5b8063e30c39781461040c578063e55e42111461041d578063e683a2d414610430575f5ffd5b8063c0cfa7e5116100ce578063c0cfa7e5146103c0578063c879c6d8146103d3578063da183b02146103e6578063e043ee37146103f9575f5ffd5b8063a435d40014610364578063b6b55f2514610383578063c0314d2714610396575f5ffd5b80636232ef601161015e578063715018a611610139578063715018a61461032657806379ba50971461032e57806389cb29dd146103365780638da5cb5b1461033f575f5ffd5b80636232ef60146102ed578063644a9228146103005780636754631714610313575f5ffd5b8063278ecde111610199578063278ecde1146102a15780632e1a7d4d146102b4578063459b860e146102c757806348d041bc146102da575f5ffd5b8063012f52ee146101bf5780630f4c0ab01461025f57806310f169e814610274575b5f5ffd5b61023f6101cd366004613702565b600460208190525f91825260409091208054600182015460028301546003840154948401546005850154600686015460078701546008909701546001600160a01b03968716989587169794871696909516949293919290919060ff80821691610100810482169162010000909104168b565b6040516102569b9a9998979695949392919061374d565b60405180910390f35b61027261026d3660046137fe565b6104ae565b005b610293610282366004613702565b60066020525f908152604090205481565b604051908152602001610256565b6102726102af366004613702565b6108c2565b6102726102c2366004613702565b6109d4565b6102726102d5366004613702565b610be5565b6102726102e83660046137fe565b610e24565b6102726102fb366004613854565b6110ab565b61027261030e3660046138c2565b611432565b61027261032136600461392d565b6117d2565b610272611b09565b610272611b1c565b61029360035481565b6001546001600160a01b03165b6040516001600160a01b039091168152602001610256565b61029361037236600461399c565b60086020525f908152604090205481565b610272610391366004613702565b611b93565b6102936103a43660046139bc565b600760209081525f928352604080842090915290825290205481565b6102726103ce366004613702565b611efe565b6102726103e13660046139bc565b611fcb565b6102726103f4366004613702565b612101565b6102726104073660046137fe565b6123c9565b6002546001600160a01b031661034c565b61027261042b3660046139ed565b612680565b61027261043e366004613702565b61287a565b61046561045136600461399c565b60056020525f908152604090205460ff1681565b6040519015158152602001610256565b610293610483366004613a0e565b6129e9565b61027261049636600461399c565b612d26565b6102726104a9366004613702565b612d97565b6104b6612ebd565b5f8581526004602052604090206001015485906001600160a01b03163314806104f757505f818152600460205260409020600201546001600160a01b031633145b61051c5760405162461bcd60e51b815260040161051390613ab0565b60405180910390fd5b620151808561053d5760405162461bcd60e51b815260040161051390613ae7565b42861161055c5760405162461bcd60e51b815260040161051390613b11565b6105668142613b5c565b86106105845760405162461bcd60e51b815260040161051390613b6f565b5f8781526004602052604090206001600882015460ff1660058111156105ac576105ac613719565b146105c95760405162461bcd60e51b815260040161051390613ba6565b8060070154841461060d5760405162461bcd60e51b815260206004820152600e60248201526d09cdedcc6ca40dad2e6dac2e8c6d60931b6044820152606401610513565b6005810154604080514660208201523091810191909152606081018a905233608082015260a081019190915260c0810188905260e0810185905261010080820152600d6101208201526c18d85b98d95b14995c5d595cdd609a1b6101408201525f90610160016040516020818303038152906040528051906020012090505f6106d361069883612f14565b89898080601f0160208091040260200160405190810160405280939291908181526020018383808284375f92019190915250612f4692505050565b60018401549091506001600160a01b038083169116148015610701575060018301546001600160a01b031633145b80610732575060028301546001600160a01b038281169116148015610732575060028301546001600160a01b031633145b61077e5760405162461bcd60e51b815260206004820152601e60248201527f5369676e6174757265207061727469636970616e74206d69736d6174636800006044820152606401610513565b600783018054905f61078f83613bd5565b909155505060018301546001600160a01b03908116908216036107c25760088301805461ff0019166101001790556107d6565b60088301805462ff00001916620100001790555b6040516001600160a01b038216908b907f88a867d5d9b489598a3f5e5c8d5c1da163ed116737b70444bac744920904a573905f90a36008830154610100900460ff16156108ad57600883015462010000900460ff16156108ad578254600184015460048501545f92610856926001600160a01b0391821692911690612f6a565b60088501805460ff191660051790556004850154604080519182526020820183905291925033918d917f69e48b43ef43ff7b23e06ff586a2977fa805fbddabe2555618d946619f19c2c391015b60405180910390a3505b50505050506108bb60015f55565b5050505050565b6108ca612ebd565b5f8181526004602052604090206003015481906001600160a01b031633146109045760405162461bcd60e51b815260040161051390613bed565b5f8281526004602052604090206001600882015460ff16600581111561092c5761092c613719565b146109495760405162461bcd60e51b815260040161051390613ba6565b8054600182015460048301545f9261096f926001600160a01b0391821692911690612f6a565b60088301805460ff191660049081179091558301546040805191825260208201839052919250339186917f279ac10417b4a21068fc6d3150dd2e5fc45320cb722f60a07d37a113a3bf3acd91015b60405180910390a35050506109d160015f55565b50565b6109dc612ebd565b5f8181526004602052604090206001015481906001600160a01b0316331480610a1d57505f818152600460205260409020600201546001600160a01b031633145b610a395760405162461bcd60e51b815260040161051390613ab0565b5f8281526004602052604090206005600882015460ff166005811115610a6157610a61613719565b1480610a8557506003600882015460ff166005811115610a8357610a83613719565b145b80610aa857506004600882015460ff166005811115610aa657610aa6613719565b145b610b075760405162461bcd60e51b815260206004820152602a60248201527f5769746864726177616c73206f6e6c7920616c6c6f77656420616674657220656044820152697363726f7720656e647360b01b6064820152608401610513565b80546001600160a01b03165f90815260076020908152604080832033845290915281205490819003610b715760405162461bcd60e51b81526020600482015260136024820152724e6f7468696e6720746f20776974686472617760681b6044820152606401610513565b8154610b87906001600160a01b031633836130f9565b81546001600160a01b039081165f908152600760209081526040808320338085529083528184209390935585549051858152929316917fd1c19fbcd4551a5edfb66d43d2e337c04837afda3482b42bdf569a8fccdae5fb91016109bd565b610bed612ebd565b5f8181526004602052604090206002015481906001600160a01b03163314610c4d5760405162461bcd60e51b815260206004820152601360248201527213db9b1e481cd95b1b195c88185b1b1bddd959606a1b6044820152606401610513565b5f8281526004602052604090206001600882015460ff166005811115610c7557610c75613719565b14610c925760405162461bcd60e51b815260040161051390613ba6565b80600501545f03610cdc5760405162461bcd60e51b815260206004820152601460248201527311195c1bdcda5d081d1a5b59481b9bdd081cd95d60621b6044820152606401610513565b80600601545f03610d2f5760405162461bcd60e51b815260206004820152601760248201527f4d61747572697479206e6f7420636f6e666967757265640000000000000000006044820152606401610513565b6006810154610d419062015180613c1b565b8160050154610d509190613b5c565b4211610d9e5760405162461bcd60e51b815260206004820152601d60248201527f4d617475726974792074696d65206e6f742079657420726561636865640000006044820152606401610513565b8054600282015460048301545f92610dc4926001600160a01b0391821692911690612f6a565b60088301805460ff191660031790556002830154600484015460408051918252602082018490529293506001600160a01b039091169186917f489d0b4f43659843daba0a17983382a3e77f5399083ac5405143fcf6806f8ca091016109bd565b610e2c612ebd565b5f8581526004602052604090206001015485906001600160a01b03163314610e665760405162461bcd60e51b815260040161051390613c32565b6201518085610e875760405162461bcd60e51b815260040161051390613ae7565b428611610ea65760405162461bcd60e51b815260040161051390613b11565b610eb08142613b5c565b8610610ece5760405162461bcd60e51b815260040161051390613b6f565b5f8781526004602052604090206001600882015460ff166005811115610ef657610ef6613719565b14610f135760405162461bcd60e51b815260040161051390613c5e565b80600701548414610f575760405162461bcd60e51b815260206004820152600e60248201526d09cdedcc6ca40dad2e6dac2e8c6d60931b6044820152606401610513565b6005810154604080514660208201523091810191909152606081018a905233608082015260a081019190915260c0810188905260e0810185905261010080820152600c6101208201526b73746172744469737075746560a01b6101408201525f90610160016040516020818303038152906040528051906020012090505f610fe161069883612f14565b60018401549091506001600160a01b038083169116146110435760405162461bcd60e51b815260206004820152601760248201527f5369676e6174757265206d7573742062652062757965720000000000000000006044820152606401610513565b600783018054905f61105483613bd5565b909155505060088301805460ff191660021790556040516001600160a01b038216908b907fd658effe7cf013e5a508b3f1a373b92566494d8b6a7c2970fc964932de1c4dab905f90a350505050506108bb60015f55565b6110b3612ebd565b5f8481526004602052604090206001015484906001600160a01b03163314806110f457505f818152600460205260409020600201546001600160a01b031633145b8061111757505f818152600460205260409020600301546001600160a01b031633145b6111635760405162461bcd60e51b815260206004820152601b60248201527f4e6f742061207061727469636970616e7420696e20657363726f7700000000006044820152606401610513565b5f8581526004602052604090206002600882015460ff16600581111561118b5761118b613719565b146111c75760405162461bcd60e51b815260206004820152600c60248201526b139bdd08111254d41555115160a21b6044820152606401610513565b5f60018660038111156111dc576111dc613719565b0361123e5760018201546001600160a01b031633146112365760405162461bcd60e51b81526020600482015260166024820152754f6e6c792062757965722063616e206d65737361676560501b6044820152606401610513565b506001611351565b600286600381111561125257611252613719565b036112bb5760028201546001600160a01b031633146112b35760405162461bcd60e51b815260206004820152601760248201527f4f6e6c792073656c6c65722063616e206d6573736167650000000000000000006044820152606401610513565b506002611351565b60038660038111156112cf576112cf613719565b036113385760038201546001600160a01b031633146113305760405162461bcd60e51b815260206004820152601860248201527f4f6e6c7920617262697465722063616e206d65737361676500000000000000006044820152606401610513565b506004611351565b60405163421b511560e11b815260040160405180910390fd5b5f878152600660205260409020548116156113ae5760405162461bcd60e51b815260206004820152601960248201527f416c7265616479207375626d6974746564206d657373616765000000000000006044820152606401610513565b5f8781526006602052604090208054821790558560038111156113d3576113d3613719565b5f888152600660205260409081902054905133918a917f343e9b07afb91476a7eaea35e0dd214eb5d26b7047cb533a575c43a53d4c8d7591611418918b918b91613cb4565b60405180910390a450505061142c60015f55565b50505050565b61143a612ebd565b5f8681526004602052604090206003015486906001600160a01b031633146114745760405162461bcd60e51b815260040161051390613bed565b62015180856114955760405162461bcd60e51b815260040161051390613ae7565b4286116114b45760405162461bcd60e51b815260040161051390613b11565b6114be8142613b5c565b86106114dc5760405162461bcd60e51b815260040161051390613b6f565b5f8881526004602052604090206002600882015460ff16600581111561150457611504613719565b146115485760405162461bcd60e51b81526020600482015260146024820152734e6f7420696e206469737075746520737461746560601b6044820152606401610513565b806007015484146115a65760405162461bcd60e51b815260206004820152602260248201527f4e6f6e6365206d69736d6174636820666f722064697370757465207265736f6c604482015261766560f01b6064820152608401610513565b60038860058111156115ba576115ba613719565b14806115d7575060048860058111156115d5576115d5613719565b145b6116235760405162461bcd60e51b815260206004820152601760248201527f5265736f6c7574696f6e207479706520696e76616c69640000000000000000006044820152606401610513565b5f46308b3385600501548c8a8f604051602001611647989796959493929190613cd7565b6040516020818303038152906040528051906020012090505f61166c61069883612f14565b60038401549091506001600160a01b038083169116146116ce5760405162461bcd60e51b815260206004820181905260248201527f5369676e617475726520646f6573206e6f74206d6174636820617262697465726044820152606401610513565b600783018054905f6116df83613bd5565b909155505f905060038b60058111156116fa576116fa613719565b146117125760018401546001600160a01b0316611721565b60028401546001600160a01b03165b845460048601549192505f91611742916001600160a01b0316908490612f6a565b5f8e8152600660205260408120556008860180549192508d9160ff1916600183600581111561177357611773613719565b02179055508c7ffc4c84ff0bf9d937dea068e6c13c3a16c307d76a1c5b5173c40f03f68f421e008d858860040154856040516117b29493929190613d55565b60405180910390a2505050505050506117ca60015f55565b505050505050565b6117da612ebd565b5f8581526004602052604090206001015485906001600160a01b031633146118145760405162461bcd60e51b815260040161051390613c32565b62015180836118355760405162461bcd60e51b815260040161051390613ae7565b4284116118545760405162461bcd60e51b815260040161051390613b11565b61185e8142613b5c565b841061187c5760405162461bcd60e51b815260040161051390613b6f565b5f8781526004602052604090206001600882015460ff1660058111156118a4576118a4613719565b146118c15760405162461bcd60e51b815260040161051390613ba6565b806007015484146119145760405162461bcd60e51b815260206004820152601b60248201527f496e76616c6964206e6f6e636520666f72207369676e617475726500000000006044820152606401610513565b60018101546005820154604080514660208201523091810191909152606081018b90523360808201526001600160a01b0390921660a083015260c082015260e08101869052610100810185905261012080820152600f6101408201526e636f6e6669726d44656c697665727960881b6101608201525f90610180016040516020818303038152906040528051906020012090505f6119ef6119b483612f14565b8a8a8080601f0160208091040260200160405190810160405280939291908181526020018383808284375f92019190915250612f4692505050565b60018401549091506001600160a01b03808316911614611a515760405162461bcd60e51b815260206004820152601760248201527f496e76616c6964206275796572207369676e61747572650000000000000000006044820152606401610513565b600783018054905f611a6283613bd5565b90915550508254600284015460048501545f92611a8d926001600160a01b0391821692911690612f6a565b60088501805460ff1916600317905560028501546001860154600487015460408051918252602082018590529394506001600160a01b039283169392909116918e917f8bcf349ab354486b68c142cea7235e4f7f31f6a425466f569c8ac1d5bc4d0007910160405180910390a45050505050506108bb60015f55565b611b11613161565b611b1a5f6131bb565b565b60025433906001600160a01b03168114611b8a5760405162461bcd60e51b815260206004820152602960248201527f4f776e61626c6532537465703a2063616c6c6572206973206e6f7420746865206044820152683732bb9037bbb732b960b91b6064820152608401610513565b6109d1816131bb565b611b9b612ebd565b5f8181526004602052604090206001015481906001600160a01b03163314611bd55760405162461bcd60e51b815260040161051390613c32565b5f82815260046020526040812090600882015460ff166005811115611bfc57611bfc613719565b14611c195760405162461bcd60e51b815260040161051390613c5e565b80546001600160a01b03165f9081526005602052604090205460ff16611c815760405162461bcd60e51b815260206004820152601960248201527f546f6b656e206e6f7420616c6c6f77656420616e796d6f7265000000000000006044820152606401610513565b60018160040154611c929190613d87565b8154604051636eb1769f60e11b81523360048201523060248201526001600160a01b039091169063dd62ed3e90604401602060405180830381865afa158015611cdd573d5f5f3e3d5ffd5b505050506040513d601f19601f82011682018060405250810190611d019190613d9a565b11611d4e5760405162461bcd60e51b815260206004820152601960248201527f457363726f773a20616c6c6f77616e636520746f6f206c6f77000000000000006044820152606401610513565b80546040516370a0823160e01b81523060048201525f916001600160a01b0316906370a0823190602401602060405180830381865afa158015611d93573d5f5f3e3d5ffd5b505050506040513d601f19601f82011682018060405250810190611db79190613d9a565b60048301548354919250611dd8916001600160a01b031690339030906131d4565b81546040516370a0823160e01b81523060048201525f916001600160a01b0316906370a0823190602401602060405180830381865afa158015611e1d573d5f5f3e3d5ffd5b505050506040513d601f19601f82011682018060405250810190611e419190613d9a565b6004840154909150611e538383613d87565b14611ea05760405162461bcd60e51b815260206004820152601f60248201527f4465706f736974206d69736d61746368206166746572207472616e73666572006044820152606401610513565b42600584015560088301805460ff191660011790556004830154604051908152339086907f71284872bb4c088a81295dff2513729babbccfeda38a8d824bb1a73bcaab494e9060200160405180910390a3505050506109d160015f55565b611f06612ebd565b5f8181526004602052604090206001015481906001600160a01b03163314611f405760405162461bcd60e51b815260040161051390613c32565b5f8281526004602052604090206001600882015460ff166005811115611f6857611f68613719565b14611f855760405162461bcd60e51b815260040161051390613ba6565b60088101805460ff19166002179055604051339084907fd658effe7cf013e5a508b3f1a373b92566494d8b6a7c2970fc964932de1c4dab905f90a350506109d160015f55565b611fd3612ebd565b611fdb613161565b6001600160a01b0381166120295760405162461bcd60e51b8152602060048201526015602482015274125b9d985b1a5908199959481c9958da5c1a595b9d605a1b6044820152606401610513565b6001600160a01b0382165f90815260086020526040812054908190036120875760405162461bcd60e51b81526020600482015260136024820152724e6f206665657320746f20776974686472617760681b6044820152606401610513565b61209b6001600160a01b03841683836130f9565b6001600160a01b038084165f818152600860205260408082209190915551918416917eed5939179dc194223f0edd1517ecee2210b22da7f82c8e4b1795e93b9f06aa906120eb9085815260200190565b60405180910390a3506120fd60015f55565b5050565b612109612ebd565b5f8181526004602052604090206001015481906001600160a01b031633146121435760405162461bcd60e51b815260040161051390613c32565b5f8281526004602052604090206001600882015460ff16600581111561216b5761216b613719565b146121885760405162461bcd60e51b815260040161051390613ba6565b6008810154610100900460ff166121e15760405162461bcd60e51b815260206004820152601f60248201527f4275796572206d75737420726571756573742063616e63656c6c6174696f6e006044820152606401610513565b600881015462010000900460ff161561223c5760405162461bcd60e51b815260206004820152601f60248201527f4d757475616c2063616e63656c20616c72656164792070726f636573736564006044820152606401610513565b80600501545f036122825760405162461bcd60e51b815260206004820152601060248201526f4465706f736974206e6f74206d61646560801b6044820152606401610513565b80600601545f036122e35760405162461bcd60e51b815260206004820152602560248201527f4e6f206d617475726974792073657420666f722074696d652d62617365642063604482015264185b98d95b60da1b6064820152608401610513565b60068101546122f59062015180613c1b565b81600501546123049190613b5c565b42116123525760405162461bcd60e51b815260206004820152601b60248201527f4d6174757269747920706572696f64206e6f74207265616368656400000000006044820152606401610513565b8054600182015460048301545f92612378926001600160a01b0391821692911690612f6a565b60088301805460ff1916600517905560048301546040805191825260208201839052919250339186917f69e48b43ef43ff7b23e06ff586a2977fa805fbddabe2555618d946619f19c2c391016109bd565b6123d1612ebd565b5f8581526004602052604090206001015485906001600160a01b0316331461240b5760405162461bcd60e51b815260040161051390613c32565b620151808561242c5760405162461bcd60e51b815260040161051390613ae7565b42861161244b5760405162461bcd60e51b815260040161051390613b11565b6124558142613b5c565b86106124735760405162461bcd60e51b815260040161051390613b6f565b5f8781526004602052604090206001600882015460ff16600581111561249b5761249b613719565b146124b85760405162461bcd60e51b815260040161051390613c5e565b806007015484146125035760405162461bcd60e51b81526020600482015260156024820152740a4cacceadcc840dcdedcc6ca40dad2e6dac2e8c6d605b1b6044820152606401610513565b6005810154604080514660208201523091810191909152606081018a905233608082015260a081019190915260c0810188905260e08101859052610100808201526006610120820152651c99599d5b9960d21b6101408201525f90610160016040516020818303038152906040528051906020012090505f61258761069883612f14565b60038401549091506001600160a01b038083169116146125e95760405162461bcd60e51b815260206004820181905260248201527f5369676e617475726520646f6573206e6f74206d6174636820617262697465726044820152606401610513565b600783018054905f6125fa83613bd5565b90915550508254600184015460048501545f92612625926001600160a01b0391821692911690612f6a565b60088501805460ff1916600490811790915585015460408051918252602082018390529192506001600160a01b038416918d917f279ac10417b4a21068fc6d3150dd2e5fc45320cb722f60a07d37a113a3bf3acd91016108a3565b612688612ebd565b5f8281526004602052604090206003015482906001600160a01b031633146126c25760405162461bcd60e51b815260040161051390613bed565b5f8381526004602052604090206002600882015460ff1660058111156126ea576126ea613719565b146127265760405162461bcd60e51b815260206004820152600c60248201526b139bdd08111254d41555115160a21b6044820152606401610513565b600383600581111561273a5761273a613719565b14806127575750600483600581111561275557612755613719565b145b6127985760405162461bcd60e51b815260206004820152601260248201527124b73b30b634b2103932b9b7b63aba34b7b760711b6044820152606401610513565b5f60038460058111156127ad576127ad613719565b146127c55760018201546001600160a01b03166127d4565b60028201546001600160a01b03165b825460048401549192505f916127f5916001600160a01b0316908490612f6a565b5f87815260066020526040812055600884018054919250869160ff1916600183600581111561282657612826613719565b0217905550857ffc4c84ff0bf9d937dea068e6c13c3a16c307d76a1c5b5173c40f03f68f421e0086338660040154856040516128659493929190613d55565b60405180910390a2505050506120fd60015f55565b612882612ebd565b5f8181526004602052604090206001015481906001600160a01b03163314806128c357505f818152600460205260409020600201546001600160a01b031633145b6128df5760405162461bcd60e51b815260040161051390613ab0565b5f8281526004602052604090206001600882015460ff16600581111561290757612907613719565b146129245760405162461bcd60e51b815260040161051390613ba6565b60018101546001600160a01b031633146129525760088101805462ff00001916620100001790556001612966565b60088101805461ff00191661010017905560015b50604051339084907f88a867d5d9b489598a3f5e5c8d5c1da163ed116737b70444bac744920904a573905f90a36008810154610100900460ff16156129de57600881015462010000900460ff16156129de578054600182015460048301545f92612378926001600160a01b0391821692911690612f6a565b50506109d160015f55565b5f6001600160a01b038916612a405760405162461bcd60e51b815260206004820152601c60248201527f546f6b656e2063616e6e6f74206265207a65726f2061646472657373000000006044820152606401610513565b6001600160a01b0389165f9081526005602052604090205460ff16612aa75760405162461bcd60e51b815260206004820181905260248201527f546f6b656e206973206e6f742077686974656c69737465642f616c6c6f7765646044820152606401610513565b6001600160a01b038816612afd5760405162461bcd60e51b815260206004820152601c60248201527f42757965722063616e6e6f74206265207a65726f2061646472657373000000006044820152606401610513565b336001600160a01b03891603612b4d5760405162461bcd60e51b8152602060048201526015602482015274427579657220616e642073656c6c65722073616d6560581b6044820152606401610513565b610e438610612b9e5760405162461bcd60e51b815260206004820152601a60248201527f4d617475726974792065786365656473203336353020646179730000000000006044820152606401610513565b865f03612bed5760405162461bcd60e51b815260206004820152601760248201527f416d6f756e74206e6f742067726561746572207a65726f0000000000000000006044820152606401610513565b6003545f81815260046020526040902080546001600160a01b03808d166001600160a01b0319928316178355600183018054918d1691831691909117905560028201805490911633179055612c4a6001546001600160a01b031690565b6003820180546001600160a01b0319166001600160a01b0392909216919091179055600481018990555f600582018190556006820189905560088201805460ff1916600183021790555060088101805462ffff00191690555f6007820155336001600160a01b038b16837fd3e0574cb952cf8d88c9c2b97882e6000237da1d62a64753eaddaf4d9ce7351b8e8d612ce96001546001600160a01b031690565b8e8e8e8e8e604051612d02989796959493929190613db1565b60405180910390a4612d15826001613b5c565b600355509998505050505050505050565b612d2e613161565b600280546001600160a01b0383166001600160a01b03199091168117909155612d5f6001546001600160a01b031690565b6001600160a01b03167f38d16b8cac22d99fc7c124b9cd0de2d3fa1faef420bfe791d8c362d765e2270060405160405180910390a350565b612d9f612ebd565b5f8181526004602052604090206001015481906001600160a01b03163314612dd95760405162461bcd60e51b815260040161051390613c32565b5f8281526004602052604090206001600882015460ff166005811115612e0157612e01613719565b14612e1e5760405162461bcd60e51b815260040161051390613ba6565b8054600282015460048301545f92612e44926001600160a01b0391821692911690612f6a565b60088301805460ff1916600317905560028301546001840154600485015460408051918252602082018590529394506001600160a01b0392831693929091169187917f8bcf349ab354486b68c142cea7235e4f7f31f6a425466f569c8ac1d5bc4d0007910160405180910390a45050506109d160015f55565b60025f5403612f0e5760405162461bcd60e51b815260206004820152601f60248201527f5265656e7472616e637947756172643a207265656e7472616e742063616c6c006044820152606401610513565b60025f55565b7f19457468657265756d205369676e6564204d6573736167653a0a3332000000005f908152601c91909152603c902090565b5f5f5f612f53858561320c565b91509150612f608161324e565b5090505b92915050565b5f6001600160a01b038316612fc15760405162461bcd60e51b815260206004820181905260248201527f526563697069656e7420616464726573732063616e6e6f74206265207a65726f6044820152606401610513565b612710612fcf606484613c1b565b612fd99190613e0d565b90505f612fe68284613d87565b9050825f036130375760405162461bcd60e51b815260206004820181905260248201527f416d6f756e74206d7573742062652067726561746572207468616e207a65726f6044820152606401610513565b6001600160a01b038086165f9081526007602090815260408083209388168352929052908120805483929061306d908490613b5c565b90915550506001600160a01b0385165f90815260086020526040902054613095908390613b5c565b6001600160a01b038681165f818152600860209081526040918290209490945580518781529384018690529187169290917fc0c7d3f2ba6af25cbb54d2fd333d2077b3444b989f99811bd0f0030a5ec40556910160405180910390a3509392505050565b6040516001600160a01b03831660248201526044810182905261315c90849063a9059cbb60e01b906064015b60408051601f198184030181529190526020810180516001600160e01b03166001600160e01b031990931692909217909152613397565b505050565b6001546001600160a01b03163314611b1a5760405162461bcd60e51b815260206004820181905260248201527f4f776e61626c653a2063616c6c6572206973206e6f7420746865206f776e65726044820152606401610513565b600280546001600160a01b03191690556109d18161346a565b6040516001600160a01b038085166024830152831660448201526064810182905261142c9085906323b872dd60e01b90608401613125565b5f5f8251604103613240576020830151604084015160608501515f1a613234878285856134bb565b94509450505050613247565b505f905060025b9250929050565b5f81600481111561326157613261613719565b036132695750565b600181600481111561327d5761327d613719565b036132ca5760405162461bcd60e51b815260206004820152601860248201527f45434453413a20696e76616c6964207369676e617475726500000000000000006044820152606401610513565b60028160048111156132de576132de613719565b0361332b5760405162461bcd60e51b815260206004820152601f60248201527f45434453413a20696e76616c6964207369676e6174757265206c656e677468006044820152606401610513565b600381600481111561333f5761333f613719565b036109d15760405162461bcd60e51b815260206004820152602260248201527f45434453413a20696e76616c6964207369676e6174757265202773272076616c604482015261756560f01b6064820152608401610513565b5f6133eb826040518060400160405280602081526020017f5361666545524332303a206c6f772d6c6576656c2063616c6c206661696c6564815250856001600160a01b03166135789092919063ffffffff16565b905080515f148061340b57508080602001905181019061340b9190613e2c565b61315c5760405162461bcd60e51b815260206004820152602a60248201527f5361666545524332303a204552433230206f7065726174696f6e20646964206e6044820152691bdd081cdd58d8d9595960b21b6064820152608401610513565b600180546001600160a01b038381166001600160a01b0319831681179093556040519116919082907f8be0079c531659141344cd1fd0a4f28419497f9722a3daafe3b4186f6b6457e0905f90a35050565b5f807f7fffffffffffffffffffffffffffffff5d576e7357a4501ddfe92f46681b20a08311156134f057505f9050600361356f565b604080515f8082526020820180845289905260ff881692820192909252606081018690526080810185905260019060a0016020604051602081039080840390855afa158015613541573d5f5f3e3d5ffd5b5050604051601f1901519150506001600160a01b038116613569575f6001925092505061356f565b91505f90505b94509492505050565b606061358684845f8561358e565b949350505050565b6060824710156135ef5760405162461bcd60e51b815260206004820152602660248201527f416464726573733a20696e73756666696369656e742062616c616e636520666f6044820152651c8818d85b1b60d21b6064820152608401610513565b5f5f866001600160a01b0316858760405161360a9190613e4b565b5f6040518083038185875af1925050503d805f8114613644576040519150601f19603f3d011682016040523d82523d5f602084013e613649565b606091505b509150915061365a87838387613665565b979650505050505050565b606083156136d35782515f036136cc576001600160a01b0385163b6136cc5760405162461bcd60e51b815260206004820152601d60248201527f416464726573733a2063616c6c20746f206e6f6e2d636f6e74726163740000006044820152606401610513565b5081613586565b61358683838151156136e85781518083602001fd5b8060405162461bcd60e51b81526004016105139190613e61565b5f60208284031215613712575f5ffd5b5035919050565b634e487b7160e01b5f52602160045260245ffd5b6006811061374957634e487b7160e01b5f52602160045260245ffd5b9052565b6001600160a01b038c811682528b811660208301528a81166040830152891660608201526080810188905260a0810187905260c0810186905260e0810185905261016081016137a061010083018661372d565b921515610120820152901515610140909101529998505050505050505050565b5f5f83601f8401126137d0575f5ffd5b50813567ffffffffffffffff8111156137e7575f5ffd5b602083019150836020828501011115613247575f5ffd5b5f5f5f5f5f60808688031215613812575f5ffd5b8535945060208601359350604086013567ffffffffffffffff811115613836575f5ffd5b613842888289016137c0565b96999598509660600135949350505050565b5f5f5f5f60608587031215613867575f5ffd5b8435935060208501356004811061387c575f5ffd5b9250604085013567ffffffffffffffff811115613897575f5ffd5b6138a3878288016137c0565b95989497509550505050565b8035600681106138bd575f5ffd5b919050565b5f5f5f5f5f5f60a087890312156138d7575f5ffd5b863595506138e7602088016138af565b945060408701359350606087013567ffffffffffffffff811115613909575f5ffd5b61391589828a016137c0565b979a9699509497949695608090950135949350505050565b5f5f5f5f5f60808688031215613941575f5ffd5b85359450602086013567ffffffffffffffff81111561395e575f5ffd5b61396a888289016137c0565b9699909850959660408101359660609091013595509350505050565b80356001600160a01b03811681146138bd575f5ffd5b5f602082840312156139ac575f5ffd5b6139b582613986565b9392505050565b5f5f604083850312156139cd575f5ffd5b6139d683613986565b91506139e460208401613986565b90509250929050565b5f5f604083850312156139fe575f5ffd5b823591506139e4602084016138af565b5f5f5f5f5f5f5f5f60c0898b031215613a25575f5ffd5b613a2e89613986565b9750613a3c60208a01613986565b96506040890135955060608901359450608089013567ffffffffffffffff811115613a65575f5ffd5b613a718b828c016137c0565b90955093505060a089013567ffffffffffffffff811115613a90575f5ffd5b613a9c8b828c016137c0565b999c989b5096995094979396929594505050565b6020808252601f908201527f4e6f742061206275796572206f722073656c6c657220696e20657363726f7700604082015260600190565b60208082526010908201526f496e76616c696420646561646c696e6560801b604082015260600190565b6020808252601e908201527f446561646c696e65206d75737420626520696e20746865206675747572650000604082015260600190565b634e487b7160e01b5f52601160045260245ffd5b80820180821115612f6457612f64613b48565b6020808252601f908201527f446561646c696e652065786365656473206d6178696d756d2077696e646f7700604082015260600190565b6020808252601590820152744e6f74204157414954494e475f44454c495645525960581b604082015260600190565b5f60018201613be657613be6613b48565b5060010190565b60208082526014908201527313db9b1e48185c989a5d195c88185b1b1bddd95960621b604082015260600190565b8082028115828204841417612f6457612f64613b48565b60208082526012908201527113db9b1e48189d5e595c88185b1b1bddd95960721b604082015260600190565b602080825260149082015273139bdd081055d05255125391d7d410565351539560621b604082015260600190565b81835281816020850137505f828201602090810191909152601f909101601f19169091010190565b604081525f613cc7604083018587613c8c565b9050826020830152949350505050565b8881526001600160a01b03888116602083015260408201889052861660608201526080810185905260a0810184905260c0810183905261012060e08201819052600e908201526d7265736f6c76654469737075746560901b6101408201526101608101613d4861010083018461372d565b9998505050505050505050565b60808101613d63828761372d565b6001600160a01b039490941660208201526040810192909252606090910152919050565b81810381811115612f6457612f64613b48565b5f60208284031215613daa575f5ffd5b5051919050565b6001600160a01b03898116825260208201899052871660408201526060810186905260c0608082018190525f90613deb9083018688613c8c565b82810360a0840152613dfe818587613c8c565b9b9a5050505050505050505050565b5f82613e2757634e487b7160e01b5f52601260045260245ffd5b500490565b5f60208284031215613e3c575f5ffd5b815180151581146139b5575f5ffd5b5f82518060208501845e5f920191825250919050565b602081525f82518060208401528060208501604085015e5f604082850101526040601f19601f8301168401019150509291505056fea26469706673582212206e069265d811894a98ffafb7643012f3b804205d30e86b5066108e8cb9cb680764736f6c634300081d0033",
  "linkReferences": {},
  "deployedLinkReferences": {},
  "immutableReferences": {},
  "inputSourceName": "project/contracts/PalindromeCryptoEscrow.sol",
  "buildInfoId": "solc-0_8_29-9f018caa9ad8b40498719286c430919799b679da"
}