{
  "_format": "hh3-artifact-1",
  "contractName": "PalindromePay",
  "sourceName": "contracts/PalindromePay.sol",
  "abi": [
    {
      "inputs": [
        {
          "internalType": "address",
          "name": "_feeReceiver",
          "type": "address"
        }
      ],
      "stateMutability": "nonpayable",
      "type": "constructor"
    },
    {
      "inputs": [],
      "name": "InvalidNonce",
      "type": "error"
    },
    {
      "inputs": [],
      "name": "InvalidWalletSignature",
      "type": "error"
    },
    {
      "inputs": [],
      "name": "NotParticipant",
      "type": "error"
    },
    {
      "inputs": [],
      "name": "OnlyArbiter",
      "type": "error"
    },
    {
      "inputs": [],
      "name": "OnlyBuyer",
      "type": "error"
    },
    {
      "inputs": [],
      "name": "OnlyBuyerOrSeller",
      "type": "error"
    },
    {
      "inputs": [],
      "name": "OnlySeller",
      "type": "error"
    },
    {
      "inputs": [],
      "name": "SignatureAlreadyUsed",
      "type": "error"
    },
    {
      "inputs": [],
      "name": "SignatureLengthInvalid",
      "type": "error"
    },
    {
      "inputs": [],
      "name": "SignatureSInvalid",
      "type": "error"
    },
    {
      "inputs": [],
      "name": "SignatureVInvalid",
      "type": "error"
    },
    {
      "anonymous": false,
      "inputs": [
        {
          "indexed": true,
          "internalType": "uint256",
          "name": "escrowId",
          "type": "uint256"
        },
        {
          "indexed": false,
          "internalType": "bytes",
          "name": "arbiterSig",
          "type": "bytes"
        }
      ],
      "name": "ArbiterWalletSigAttached",
      "type": "event"
    },
    {
      "anonymous": false,
      "inputs": [
        {
          "indexed": true,
          "internalType": "uint256",
          "name": "escrowId",
          "type": "uint256"
        },
        {
          "indexed": true,
          "internalType": "address",
          "name": "seller",
          "type": "address"
        },
        {
          "indexed": false,
          "internalType": "uint256",
          "name": "amount",
          "type": "uint256"
        },
        {
          "indexed": false,
          "internalType": "uint256",
          "name": "fee",
          "type": "uint256"
        }
      ],
      "name": "AutoReleased",
      "type": "event"
    },
    {
      "anonymous": false,
      "inputs": [
        {
          "indexed": true,
          "internalType": "uint256",
          "name": "escrowId",
          "type": "uint256"
        },
        {
          "indexed": false,
          "internalType": "bytes",
          "name": "buyerSig",
          "type": "bytes"
        }
      ],
      "name": "BuyerWalletSigAttached",
      "type": "event"
    },
    {
      "anonymous": false,
      "inputs": [
        {
          "indexed": true,
          "internalType": "uint256",
          "name": "escrowId",
          "type": "uint256"
        },
        {
          "indexed": true,
          "internalType": "address",
          "name": "initiator",
          "type": "address"
        },
        {
          "indexed": false,
          "internalType": "uint256",
          "name": "amount",
          "type": "uint256"
        }
      ],
      "name": "Canceled",
      "type": "event"
    },
    {
      "anonymous": false,
      "inputs": [
        {
          "indexed": true,
          "internalType": "uint256",
          "name": "escrowId",
          "type": "uint256"
        },
        {
          "indexed": true,
          "internalType": "address",
          "name": "buyer",
          "type": "address"
        },
        {
          "indexed": true,
          "internalType": "address",
          "name": "seller",
          "type": "address"
        },
        {
          "indexed": false,
          "internalType": "uint256",
          "name": "amount",
          "type": "uint256"
        },
        {
          "indexed": false,
          "internalType": "uint256",
          "name": "fee",
          "type": "uint256"
        }
      ],
      "name": "DeliveryConfirmed",
      "type": "event"
    },
    {
      "anonymous": false,
      "inputs": [
        {
          "indexed": true,
          "internalType": "uint256",
          "name": "escrowId",
          "type": "uint256"
        },
        {
          "indexed": false,
          "internalType": "uint256",
          "name": "longDeadline",
          "type": "uint256"
        }
      ],
      "name": "DisputeDeadlinesSet",
      "type": "event"
    },
    {
      "anonymous": false,
      "inputs": [
        {
          "indexed": true,
          "internalType": "uint256",
          "name": "escrowId",
          "type": "uint256"
        },
        {
          "indexed": true,
          "internalType": "address",
          "name": "sender",
          "type": "address"
        },
        {
          "indexed": false,
          "internalType": "enum PalindromePay.Role",
          "name": "role",
          "type": "uint8"
        },
        {
          "indexed": false,
          "internalType": "string",
          "name": "ipfsHash",
          "type": "string"
        }
      ],
      "name": "DisputeMessagePosted",
      "type": "event"
    },
    {
      "anonymous": false,
      "inputs": [
        {
          "indexed": true,
          "internalType": "uint256",
          "name": "escrowId",
          "type": "uint256"
        },
        {
          "indexed": false,
          "internalType": "enum PalindromePay.State",
          "name": "resolution",
          "type": "uint8"
        },
        {
          "indexed": false,
          "internalType": "address",
          "name": "arbiter",
          "type": "address"
        },
        {
          "indexed": false,
          "internalType": "uint256",
          "name": "amount",
          "type": "uint256"
        },
        {
          "indexed": false,
          "internalType": "uint256",
          "name": "fee",
          "type": "uint256"
        }
      ],
      "name": "DisputeResolved",
      "type": "event"
    },
    {
      "anonymous": false,
      "inputs": [
        {
          "indexed": true,
          "internalType": "uint256",
          "name": "escrowId",
          "type": "uint256"
        },
        {
          "indexed": true,
          "internalType": "address",
          "name": "initiator",
          "type": "address"
        }
      ],
      "name": "DisputeStarted",
      "type": "event"
    },
    {
      "anonymous": false,
      "inputs": [
        {
          "indexed": true,
          "internalType": "uint256",
          "name": "escrowId",
          "type": "uint256"
        },
        {
          "indexed": true,
          "internalType": "address",
          "name": "buyer",
          "type": "address"
        },
        {
          "indexed": true,
          "internalType": "address",
          "name": "seller",
          "type": "address"
        },
        {
          "indexed": false,
          "internalType": "address",
          "name": "token",
          "type": "address"
        },
        {
          "indexed": false,
          "internalType": "uint256",
          "name": "amount",
          "type": "uint256"
        },
        {
          "indexed": false,
          "internalType": "address",
          "name": "arbiter",
          "type": "address"
        },
        {
          "indexed": false,
          "internalType": "uint256",
          "name": "maturityTime",
          "type": "uint256"
        },
        {
          "indexed": false,
          "internalType": "string",
          "name": "title",
          "type": "string"
        },
        {
          "indexed": false,
          "internalType": "string",
          "name": "ipfsHash",
          "type": "string"
        }
      ],
      "name": "EscrowCreated",
      "type": "event"
    },
    {
      "anonymous": false,
      "inputs": [
        {
          "indexed": true,
          "internalType": "uint256",
          "name": "escrowId",
          "type": "uint256"
        },
        {
          "indexed": true,
          "internalType": "address",
          "name": "buyer",
          "type": "address"
        },
        {
          "indexed": false,
          "internalType": "uint256",
          "name": "amount",
          "type": "uint256"
        }
      ],
      "name": "EscrowCreatedAndDeposited",
      "type": "event"
    },
    {
      "anonymous": false,
      "inputs": [
        {
          "indexed": true,
          "internalType": "uint256",
          "name": "escrowId",
          "type": "uint256"
        },
        {
          "indexed": true,
          "internalType": "address",
          "name": "buyer",
          "type": "address"
        },
        {
          "indexed": false,
          "internalType": "uint256",
          "name": "amount",
          "type": "uint256"
        }
      ],
      "name": "PaymentDeposited",
      "type": "event"
    },
    {
      "anonymous": false,
      "inputs": [
        {
          "indexed": true,
          "internalType": "uint256",
          "name": "escrowId",
          "type": "uint256"
        },
        {
          "indexed": false,
          "internalType": "address",
          "name": "recipient",
          "type": "address"
        },
        {
          "indexed": false,
          "internalType": "uint256",
          "name": "netAmount",
          "type": "uint256"
        },
        {
          "indexed": false,
          "internalType": "address",
          "name": "feeRecipient",
          "type": "address"
        },
        {
          "indexed": false,
          "internalType": "uint256",
          "name": "feeAmount",
          "type": "uint256"
        }
      ],
      "name": "PayoutProposed",
      "type": "event"
    },
    {
      "anonymous": false,
      "inputs": [
        {
          "indexed": true,
          "internalType": "uint256",
          "name": "escrowId",
          "type": "uint256"
        },
        {
          "indexed": true,
          "internalType": "address",
          "name": "requester",
          "type": "address"
        }
      ],
      "name": "RequestCancel",
      "type": "event"
    },
    {
      "anonymous": false,
      "inputs": [
        {
          "indexed": true,
          "internalType": "uint256",
          "name": "escrowId",
          "type": "uint256"
        },
        {
          "indexed": true,
          "internalType": "address",
          "name": "seller",
          "type": "address"
        }
      ],
      "name": "SellerAccepted",
      "type": "event"
    },
    {
      "anonymous": false,
      "inputs": [
        {
          "indexed": true,
          "internalType": "uint256",
          "name": "escrowId",
          "type": "uint256"
        },
        {
          "indexed": false,
          "internalType": "bytes",
          "name": "sellerSig",
          "type": "bytes"
        }
      ],
      "name": "SellerWalletSigAttached",
      "type": "event"
    },
    {
      "anonymous": false,
      "inputs": [
        {
          "indexed": true,
          "internalType": "uint256",
          "name": "escrowId",
          "type": "uint256"
        },
        {
          "indexed": false,
          "internalType": "bytes",
          "name": "sellerSig",
          "type": "bytes"
        }
      ],
      "name": "SellerWalletSigUpdated",
      "type": "event"
    },
    {
      "anonymous": false,
      "inputs": [
        {
          "indexed": true,
          "internalType": "uint256",
          "name": "escrowId",
          "type": "uint256"
        },
        {
          "indexed": false,
          "internalType": "enum PalindromePay.State",
          "name": "oldState",
          "type": "uint8"
        },
        {
          "indexed": true,
          "internalType": "enum PalindromePay.State",
          "name": "newState",
          "type": "uint8"
        }
      ],
      "name": "StateChanged",
      "type": "event"
    },
    {
      "anonymous": false,
      "inputs": [
        {
          "indexed": true,
          "internalType": "uint256",
          "name": "escrowId",
          "type": "uint256"
        },
        {
          "indexed": true,
          "internalType": "address",
          "name": "wallet",
          "type": "address"
        }
      ],
      "name": "WalletCreated",
      "type": "event"
    },
    {
      "inputs": [],
      "name": "DISPUTE_LONG_TIMEOUT",
      "outputs": [
        {
          "internalType": "uint256",
          "name": "",
          "type": "uint256"
        }
      ],
      "stateMutability": "view",
      "type": "function"
    },
    {
      "inputs": [],
      "name": "DOMAIN_SEPARATOR",
      "outputs": [
        {
          "internalType": "bytes32",
          "name": "",
          "type": "bytes32"
        }
      ],
      "stateMutability": "view",
      "type": "function"
    },
    {
      "inputs": [],
      "name": "FEE_RECEIVER",
      "outputs": [
        {
          "internalType": "address",
          "name": "",
          "type": "address"
        }
      ],
      "stateMutability": "view",
      "type": "function"
    },
    {
      "inputs": [],
      "name": "TIMEOUT_BUFFER",
      "outputs": [
        {
          "internalType": "uint256",
          "name": "",
          "type": "uint256"
        }
      ],
      "stateMutability": "view",
      "type": "function"
    },
    {
      "inputs": [
        {
          "internalType": "uint256",
          "name": "escrowId",
          "type": "uint256"
        },
        {
          "internalType": "bytes",
          "name": "sellerWalletSig",
          "type": "bytes"
        }
      ],
      "name": "acceptEscrow",
      "outputs": [],
      "stateMutability": "nonpayable",
      "type": "function"
    },
    {
      "inputs": [
        {
          "internalType": "uint256",
          "name": "escrowId",
          "type": "uint256"
        }
      ],
      "name": "autoRelease",
      "outputs": [],
      "stateMutability": "nonpayable",
      "type": "function"
    },
    {
      "inputs": [
        {
          "internalType": "uint256",
          "name": "escrowId",
          "type": "uint256"
        }
      ],
      "name": "cancelByTimeout",
      "outputs": [],
      "stateMutability": "nonpayable",
      "type": "function"
    },
    {
      "inputs": [
        {
          "internalType": "uint256",
          "name": "escrowId",
          "type": "uint256"
        }
      ],
      "name": "computeWalletAddress",
      "outputs": [
        {
          "internalType": "address",
          "name": "predicted",
          "type": "address"
        }
      ],
      "stateMutability": "view",
      "type": "function"
    },
    {
      "inputs": [
        {
          "internalType": "uint256",
          "name": "escrowId",
          "type": "uint256"
        },
        {
          "internalType": "bytes",
          "name": "buyerWalletSig",
          "type": "bytes"
        }
      ],
      "name": "confirmDelivery",
      "outputs": [],
      "stateMutability": "nonpayable",
      "type": "function"
    },
    {
      "inputs": [
        {
          "internalType": "uint256",
          "name": "escrowId",
          "type": "uint256"
        },
        {
          "internalType": "bytes",
          "name": "coordSignature",
          "type": "bytes"
        },
        {
          "internalType": "uint256",
          "name": "deadline",
          "type": "uint256"
        },
        {
          "internalType": "uint256",
          "name": "nonce",
          "type": "uint256"
        },
        {
          "internalType": "bytes",
          "name": "buyerWalletSig",
          "type": "bytes"
        }
      ],
      "name": "confirmDeliverySigned",
      "outputs": [],
      "stateMutability": "nonpayable",
      "type": "function"
    },
    {
      "inputs": [
        {
          "internalType": "address",
          "name": "token",
          "type": "address"
        },
        {
          "internalType": "address",
          "name": "buyer",
          "type": "address"
        },
        {
          "internalType": "uint256",
          "name": "amount",
          "type": "uint256"
        },
        {
          "internalType": "uint256",
          "name": "maturityTimeDays",
          "type": "uint256"
        },
        {
          "internalType": "address",
          "name": "arbiter",
          "type": "address"
        },
        {
          "internalType": "string",
          "name": "title",
          "type": "string"
        },
        {
          "internalType": "string",
          "name": "ipfsHash",
          "type": "string"
        },
        {
          "internalType": "bytes",
          "name": "sellerWalletSig",
          "type": "bytes"
        }
      ],
      "name": "createEscrow",
      "outputs": [
        {
          "internalType": "uint256",
          "name": "",
          "type": "uint256"
        }
      ],
      "stateMutability": "nonpayable",
      "type": "function"
    },
    {
      "inputs": [
        {
          "internalType": "address",
          "name": "token",
          "type": "address"
        },
        {
          "internalType": "address",
          "name": "seller",
          "type": "address"
        },
        {
          "internalType": "uint256",
          "name": "amount",
          "type": "uint256"
        },
        {
          "internalType": "uint256",
          "name": "maturityTimeDays",
          "type": "uint256"
        },
        {
          "internalType": "address",
          "name": "arbiter",
          "type": "address"
        },
        {
          "internalType": "string",
          "name": "title",
          "type": "string"
        },
        {
          "internalType": "string",
          "name": "ipfsHash",
          "type": "string"
        },
        {
          "internalType": "bytes",
          "name": "buyerWalletSig",
          "type": "bytes"
        }
      ],
      "name": "createEscrowAndDeposit",
      "outputs": [
        {
          "internalType": "uint256",
          "name": "escrowId",
          "type": "uint256"
        }
      ],
      "stateMutability": "nonpayable",
      "type": "function"
    },
    {
      "inputs": [
        {
          "internalType": "uint256",
          "name": "escrowId",
          "type": "uint256"
        },
        {
          "internalType": "bytes",
          "name": "buyerWalletSig",
          "type": "bytes"
        }
      ],
      "name": "deposit",
      "outputs": [],
      "stateMutability": "nonpayable",
      "type": "function"
    },
    {
      "inputs": [
        {
          "internalType": "uint256",
          "name": "",
          "type": "uint256"
        }
      ],
      "name": "disputeStatus",
      "outputs": [
        {
          "internalType": "uint256",
          "name": "",
          "type": "uint256"
        }
      ],
      "stateMutability": "view",
      "type": "function"
    },
    {
      "inputs": [
        {
          "internalType": "uint256",
          "name": "escrowId",
          "type": "uint256"
        }
      ],
      "name": "getEscrow",
      "outputs": [
        {
          "components": [
            {
              "internalType": "address",
              "name": "token",
              "type": "address"
            },
            {
              "internalType": "address",
              "name": "buyer",
              "type": "address"
            },
            {
              "internalType": "address",
              "name": "seller",
              "type": "address"
            },
            {
              "internalType": "address",
              "name": "arbiter",
              "type": "address"
            },
            {
              "internalType": "address",
              "name": "wallet",
              "type": "address"
            },
            {
              "internalType": "uint256",
              "name": "amount",
              "type": "uint256"
            },
            {
              "internalType": "uint256",
              "name": "depositTime",
              "type": "uint256"
            },
            {
              "internalType": "uint256",
              "name": "maturityTime",
              "type": "uint256"
            },
            {
              "internalType": "uint256",
              "name": "disputeStartTime",
              "type": "uint256"
            },
            {
              "internalType": "enum PalindromePay.State",
              "name": "state",
              "type": "uint8"
            },
            {
              "internalType": "bool",
              "name": "buyerCancelRequested",
              "type": "bool"
            },
            {
              "internalType": "bool",
              "name": "sellerCancelRequested",
              "type": "bool"
            },
            {
              "internalType": "uint8",
              "name": "tokenDecimals",
              "type": "uint8"
            },
            {
              "internalType": "bytes",
              "name": "sellerWalletSig",
              "type": "bytes"
            },
            {
              "internalType": "bytes",
              "name": "buyerWalletSig",
              "type": "bytes"
            },
            {
              "internalType": "bytes",
              "name": "arbiterWalletSig",
              "type": "bytes"
            }
          ],
          "internalType": "struct PalindromePay.EscrowDeal",
          "name": "",
          "type": "tuple"
        }
      ],
      "stateMutability": "view",
      "type": "function"
    },
    {
      "inputs": [
        {
          "internalType": "uint256",
          "name": "escrowId",
          "type": "uint256"
        },
        {
          "internalType": "address",
          "name": "signer",
          "type": "address"
        },
        {
          "internalType": "uint256",
          "name": "wordIndex",
          "type": "uint256"
        }
      ],
      "name": "getNonceBitmap",
      "outputs": [
        {
          "internalType": "uint256",
          "name": "",
          "type": "uint256"
        }
      ],
      "stateMutability": "view",
      "type": "function"
    },
    {
      "inputs": [
        {
          "internalType": "uint256",
          "name": "escrowId",
          "type": "uint256"
        },
        {
          "internalType": "address",
          "name": "participant",
          "type": "address"
        }
      ],
      "name": "getWalletAuthorizationDigest",
      "outputs": [
        {
          "internalType": "bytes32",
          "name": "digest",
          "type": "bytes32"
        }
      ],
      "stateMutability": "view",
      "type": "function"
    },
    {
      "inputs": [],
      "name": "nextEscrowId",
      "outputs": [
        {
          "internalType": "uint256",
          "name": "",
          "type": "uint256"
        }
      ],
      "stateMutability": "view",
      "type": "function"
    },
    {
      "inputs": [
        {
          "internalType": "uint256",
          "name": "escrowId",
          "type": "uint256"
        },
        {
          "internalType": "bytes",
          "name": "walletSig",
          "type": "bytes"
        }
      ],
      "name": "requestCancel",
      "outputs": [],
      "stateMutability": "nonpayable",
      "type": "function"
    },
    {
      "inputs": [
        {
          "internalType": "uint256",
          "name": "escrowId",
          "type": "uint256"
        }
      ],
      "name": "startDispute",
      "outputs": [],
      "stateMutability": "nonpayable",
      "type": "function"
    },
    {
      "inputs": [
        {
          "internalType": "uint256",
          "name": "escrowId",
          "type": "uint256"
        },
        {
          "internalType": "bytes",
          "name": "signature",
          "type": "bytes"
        },
        {
          "internalType": "uint256",
          "name": "deadline",
          "type": "uint256"
        },
        {
          "internalType": "uint256",
          "name": "nonce",
          "type": "uint256"
        }
      ],
      "name": "startDisputeSigned",
      "outputs": [],
      "stateMutability": "nonpayable",
      "type": "function"
    },
    {
      "inputs": [
        {
          "internalType": "uint256",
          "name": "escrowId",
          "type": "uint256"
        },
        {
          "internalType": "enum PalindromePay.State",
          "name": "resolution",
          "type": "uint8"
        },
        {
          "internalType": "string",
          "name": "ipfsHash",
          "type": "string"
        },
        {
          "internalType": "bytes",
          "name": "arbiterWalletSig",
          "type": "bytes"
        }
      ],
      "name": "submitArbiterDecision",
      "outputs": [],
      "stateMutability": "nonpayable",
      "type": "function"
    },
    {
      "inputs": [
        {
          "internalType": "uint256",
          "name": "escrowId",
          "type": "uint256"
        },
        {
          "internalType": "enum PalindromePay.Role",
          "name": "role",
          "type": "uint8"
        },
        {
          "internalType": "string",
          "name": "ipfsHash",
          "type": "string"
        }
      ],
      "name": "submitDisputeMessage",
      "outputs": [],
      "stateMutability": "nonpayable",
      "type": "function"
    }
  ],
  "bytecode": "0x60e0806040523461017f57602081615e27803803809161001f8285610183565b83398101031261017f57516001600160a01b03811680820361017f5760015f551561014d576080524660c052604051610059604082610183565b600d81526c50616c696e64726f6d6550617960981b602090910152604080517fafad4e164a3495a77e9cd6cc3b76ca3aa2b79f9ddc70f34392e4b3d17237f7d7916100a49082610183565b600181526020810190603160f81b82525190206040519060208201927f8b73c3c69bb8fe3d512ecc4cf759cc79239f7b179b0ffacaa9a75d522b39400f8452604083015260608201524660808201523060a082015260a0815261010860c082610183565b51902060a052604051615c6c90816101bb82396080518181816104cb01528181612493015281816141d10152614266015260a05181613921015260c051816138fb0152f35b60405162461bcd60e51b815260206004820152600a602482015269466565546f207a65726f60b01b6044820152606490fd5b5f80fd5b601f909101601f19168101906001600160401b038211908210176101a657604052565b634e487b7160e01b5f52604160045260245ffdfe6101006040526004361015610012575f80fd5b5f3560e01c806306075a1514612bf457806310f169e814612bca5780631452483b14612bad5780632d34515b146127695780632d471a501461212d5780632f9bfda214611cc5578063311a2e55146118a15780633644e5151461187f5780634186928c14611863578063459b860e146116fc5780635d303519146114b25780636232ef601461125b578063708f65ca146110315780637d19e59614610d8e57806383504156146108f257806389cb29dd146108d55780639dede53c14610885578063c0cfa7e51461075e578063c37775a3146104fa578063d3e78e4d146104b6578063d4ffbee414610344578063da183b021461014b5763e471d9a314610117575f80fd5b34610147576020366003190112610147576020610135600435613d96565b6040516001600160a01b039091168152f35b5f80fd5b3461014757602036600319011261014757600435610167613789565b610170816137dd565b61017981614294565b805f52600260205260405f20600981015460ff811660068110156103305760016101a39114613454565b6101b1600883015415613498565b60ff8160081c16156102f65760101c60ff166102bc576101d6600682015415156134d5565b60038101546001600160a01b03161561026b57806101fb60076005930154421161350e565b610213604161020d600b84015461332a565b146133d3565b61021c83613b78565b6001810154610234906001600160a01b031684614225565b50500154906040519182527feb8b5b87fbea5b732b8f4fd82b65d9afef713c799d98da83090f22c45577998d60203393a360015f55005b60405162461bcd60e51b815260206004820152602360248201527f4172626974657220726571756972656420666f722074696d656f75742063616e60448201526218d95b60ea1b6064820152608490fd5b60405162461bcd60e51b81526020600482015260126024820152714d757475616c2063616e63656c20646f6e6560701b6044820152606490fd5b60405162461bcd60e51b8152602060048201526012602482015271135d5cdd081c995c5d595cdd08199a5c9cdd60721b6044820152606490fd5b634e487b7160e01b5f52602160045260245ffd5b3461014757604036600319011261014757600435610360612e8e565b9061036a816137dd565b5f81815260026020526040902060018101549092906001600160a01b038083169116811490811561049f575b8115610488575b501561044f57610444610404926103f69261041b6020966103bc6136a5565b8881519101206103ca6136d6565b89815191012091600460018060a01b03910154169788916103f66040519384928d8401964691886136f5565b03601f198101835282613060565b519020956103f66040519384928a84019687613741565b5190206040519283918683019586909160429261190160f01b8352600283015260228201520190565b519020604051908152f35b60405162461bcd60e51b8152602060048201526011602482015270139bdd0818481c185c9d1a58da5c185b9d607a1b6044820152606490fd5b60038501546001600160a01b03161490508461039d565b60028501546001600160a01b031681149150610396565b34610147575f366003190112610147576040517f00000000000000000000000000000000000000000000000000000000000000006001600160a01b03168152602090f35b346101475761050836612f5c565b90610511613789565b61051a836137dd565b61052383614294565b825f52600260205260405f209160ff600984015416600681101561033057600161054d9114613454565b610565604161055f600a86015461332a565b14613413565b60048301546105819033906001600160a01b0316868486613e73565b1561074f57600b8301916001600160401b03821161073b5784916105a5845461332a565b601f81116106e9575b505f93601f821160011461067757815f516020615bb75f395f51905f5294955f9161066c575b508260011b905f198460031b1c19161790555b6105fe604051928392602084526020840191613362565b0390a261060a82613b47565b60028101546001600160a01b0316917f8bcf349ab354486b68c142cea7235e4f7f31f6a425466f569c8ac1d5bc4d000760406106468584614146565b9050600560018060a01b036001870154169501549082519182526020820152a460015f55005b9050830135886105d4565b601f198216815f5260205f20905f5b8181106106ce575095835f516020615bb75f395f51905f529697106106b5575b5050600182811b0190556105e7565b8401355f19600385901b60f8161c1916905587806106a6565b8786013583556020978801978a975060019093019201610686565b90919250835f5260205f20601f830160051c81019160208410610731575b90601f88959493920160051c01905b81811061072357506105ae565b5f8155879450600101610716565b9091508190610707565b634e487b7160e01b5f52604160045260245ffd5b630f42e6ed60e41b5f5260045ffd5b346101475760203660031901126101475760043561077a613789565b610783816137dd565b61078c816142c5565b5f81815260026020526040902060038101546001600160a01b0316156108515760ff60098201541660068110156103305760016107c99114613454565b6107d282613ad6565b60084291015562278d00420180421161083d577f1a9502b6f661da8b0573a0617c121cabe2e93ea05d5239cfab6e9d1734b928c960208392604051908152a233907fd658effe7cf013e5a508b3f1a373b92566494d8b6a7c2970fc964932de1c4dab5f80a360015f55005b634e487b7160e01b5f52601160045260245ffd5b60405162461bcd60e51b815260206004820152600c60248201526b2d32b9379030b93134ba32b960a11b6044820152606490fd5b346101475760603660031901126101475761089e612e8e565b6004355f52600560205260405f209060018060a01b03165f5260205260405f206044355f52602052602060405f2054604051908152f35b34610147575f366003190112610147576020600154604051908152f35b346101475761090036612f5c565b90610909613789565b610912836137dd565b61091b836142c5565b825f52600260205260405f2090600982019081549360ff8516600681101561033057600161094991146135cb565b610958600685015415156134d5565b610966600885015415613498565b60048401546109829033906001600160a01b0316888486613e73565b1561074f57600184019460018060a01b0386541633145f14610be1575060ff835460081c16610b9c57600b8401916001600160401b03821161073b5786916109ca845461332a565b601f8111610b4a575b505f93601f8211600114610ad857815f516020615bb75f395f51905f5294955f91610acd575b508260011b905f198460031b1c19161790555b610a23604051928392602084526020840191613362565b0390a2805461ff0019166101001781555b5460ff8160081c169081610abf575b5015610a9257610234600592610a61604161020d600b86015461332a565b610a73604161055f600a86015461332a565b610a7c85613b78565b546001600160a01b031684614225565b60015f55005b505033907f88a867d5d9b489598a3f5e5c8d5c1da163ed116737b70444bac744920904a5735f80a3610a8c565b60ff915060101c1684610a43565b90508301358a6109f9565b601f198216815f5260205f20905f5b818110610b2f575095835f516020615bb75f395f51905f52969710610b16575b5050600182811b019055610a0c565b8401355f19600385901b60f8161c191690558980610b07565b8786013583556020978801978c975060019093019201610ae7565b90919250835f5260205f20601f830160051c81019160208410610b92575b90601f8a959493920160051c01905b818110610b8457506109d3565b5f8155899450600101610b77565b9091508190610b68565b60405162461bcd60e51b815260206004820152601760248201527f427579657220616c7265616479207265717565737465640000000000000000006044820152606490fd5b60101c60ff16610d4957600a8401916001600160401b03821161073b578691610c0a845461332a565b601f8111610cf7575b505f93601f8211600114610c8557815f516020615b975f395f51905f5294955f91610c7a575b508260011b905f198460031b1c19161790555b610c63604051928392602084526020840191613362565b0390a2805462ff0000191662010000178155610a34565b90508301358a610c39565b601f198216815f5260205f20905f5b818110610cdc575095835f516020615b975f395f51905f52969710610cc3575b5050600182811b019055610c4c565b8401355f19600385901b60f8161c191690558980610cb4565b8786013583556020978801978c975060019093019201610c94565b90919250835f5260205f20601f830160051c81019160208410610d3f575b90601f8a959493920160051c01905b818110610d315750610c13565b5f8155899450600101610d24565b9091508190610d15565b60405162461bcd60e51b815260206004820152601860248201527f53656c6c657220616c72656164792072657175657374656400000000000000006044820152606490fd5b346101475760203660031901126101475760043560606101e0604051610db381613044565b5f81525f60208201525f60408201525f838201525f60808201525f60a08201525f60c08201525f60e08201525f6101008201525f6101208201525f6101408201525f6101608201525f610180820152826101a0820152826101c08201520152610e1b816137dd565b5f52600260205260405f20604051610e3281613044565b81546001600160a01b0390811682526001830154811660208301526002830154811660408301526003830154811660608301526004830154166080820152600582015460a082015260068083015460c0830152600783015460e08301526008830154610100830152600983015460ff8116918210156103305761102d9360ff600c92610f0e94610120870152818160081c161515610140870152818160101c16151561016087015260181c16610180850152610ef0600a8201613605565b6101a0850152610f02600b8201613605565b6101c085015201613605565b6101e08201526040519182916020835260018060a01b03815116602084015260018060a01b03602082015116604084015260018060a01b03604082015116606084015260018060a01b03606082015116608084015260018060a01b0360808201511660a084015260a081015160c084015260c081015160e084015260e0810151610100840152610100810151610120840152610fb4610120820151610140850190612f8b565b6101408101511515610160840152610160810151151561018084015260ff610180820151166101a08401526101e06110186110026101a08401516102006101c0880152610220870190612f98565b6101c0840151868203601f190184880152612f98565b910151838203601f1901610200850152612f98565b0390f35b346101475761103f36612f5c565b90611048613789565b611051836137dd565b825f52600260205260405f2061107460018060a01b036002830154163314613551565b60ff600982015416600681101561033057600161109191146135cb565b60048101546110ad9033906001600160a01b0316868686613e73565b1561074f57600a018054906110c18261332a565b1515916001600160401b03851161073b576110db9061332a565b601f8111611216575b50835f601f82116001146111b2575f916111a7575b508460011b905f198660031b1c19161790555b15611153577f9f91c43a9c810c8b0a79dc8dec5c0ed9f7be6ef2090ebde9e83c83fb2bd2ed1b9161114a604051928392602084526020840191613362565b0390a260015f55005b5f516020615b975f395f51905f529161119f60405192839233877f5b09e2f1aabe74a8fc19114f298046a9fa1214365ec1d728e534a291aff17a4f5f80a3602084526020840191613362565b0390a2610a8c565b9050830135866110f9565b5f8381526020812092508690601f198216905b8181106111fb5750106111e2575b5050600184811b01905561110c565b8401355f19600387901b60f8161c1916905585806111d3565b878401358555600190940193602093840193899350016111c5565b815f5260205f20601f860160051c81019160208710611251575b601f0160051c01905b81811061124657506110e4565b5f8155600101611239565b9091508190611230565b34610147576060366003190112610147576004356024359060048210918215610147576044356001600160401b0381116101475761129d903690600401612e61565b91906112a7613789565b6112b0846137dd565b835f52600260205260405f2060018060a01b03600182015416331415908161149a575b81611482575b5061147357835f52600260205260405f2060ff60098201541660068110156103305760020361143f5761130c8483613c05565b845f52600660205260405f205490600184145f146113d657600101546001600160a01b031633036113a4578061134660018093161561358b565b175b845f52600660205260405f20556040519415610330577f4e71d2a3ce09c95d708a8bc888cb8838c8419bea1f25f6d07f2c601b173f720e92611397928652604060208701526040860191613362565b928033940390a360015f55005b60405162461bcd60e51b815260206004820152600a60248201526927b7363c90313abcb2b960b11b6044820152606490fd5b906002840361140b576002918201546113f9906001600160a01b03163314613551565b6114058282161561358b565b17611348565b60405162461bcd60e51b815260206004820152600c60248201526b496e76616c696420726f6c6560a01b6044820152606490fd5b60405162461bcd60e51b815260206004820152600c60248201526b139bdd08191a5cdc1d5d195960a21b6044820152606490fd5b63721c7c6760e11b5f5260045ffd5b600301546001600160a01b03163314159050866112d9565b60028101546001600160a01b031633141591506112d3565b34610147576114c036612f5c565b91906114ca613789565b6114d3826137dd565b6114dc82614294565b815f52600260205260405f2060ff6009820154166006811015610330576116c05760048101805490929061151d9033906001600160a01b0316868885613e73565b1561074f57600b8201946001600160401b03811161073b5761153f865461332a565b601f811161167b575b505f95601f821160011461160557918186935f516020615bb75f395f51905f5293610a8c995f916115fa575b508260011b905f198460031b1c19161790555b61159e604051928392602084526020840191613362565b0390a24260068201556115b083613b16565b600581015492604051908482527f71284872bb4c088a81295dff2513729babbccfeda38a8d824bb1a73bcaab494e60203393a35490546001600160a01b0390811691339116613fee565b90508301358a611574565b601f198216815f5260205f20905f5b8181106116635750918391610a8c995f516020615bb75f395f51905f52958a97951061164a575b5050600182811b019055611587565b8401355f19600385901b60f8161c19169055898061163b565b858a013583556020998a019960019093019201611614565b865f5260205f20601f830160051c810191602084106116b6575b601f0160051c01905b8181106116ab5750611548565b5f815560010161169e565b9091508190611695565b60405162461bcd60e51b8152602060048201526014602482015273139bdd08185dd85a5d1a5b99c81c185e5b595b9d60621b6044820152606490fd5b3461014757602036600319011261014757600435611718613789565b611721816137dd565b5f81815260026020819052604090912001546001600160a01b0316330361185457805f52600260205260405f2090600982015460ff811690600682101561033057611770600160ff9314613454565b61177e600885015415613498565b60081c1661181657611795600683015415156134d5565b6117a46007830154421161350e565b6117b6604161055f600a85015461332a565b6117bf81613b47565b60028201546001600160a01b0316917f489d0b4f43659843daba0a17983382a3e77f5399083ac5405143fcf6806f8ca09060409060056117ff8686614146565b92905001549082519182526020820152a360015f55005b60405162461bcd60e51b8152602060048201526016602482015275109d5e595c881c995c5d595cdd19590818d85b98d95b60521b6044820152606490fd5b6342e8fb9360e11b5f5260045ffd5b34610147575f366003190112610147576020604051610e108152f35b34610147575f3660031901126101475760206118996138f8565b604051908152f35b34610147576118af36612ea4565b60a05260c052949794929392916118c68186613ba9565b6118d08383613c05565b6118e46001600160a01b0387161515613153565b6001600160a01b03881615611c93576119086001600160a01b03891633141561318c565b6119138715156131cc565b611920610e438a10613206565b61192986613c55565b9861193e6119368b613d7c565b891015613246565b6001600160a01b038516903382141580611c80575b61195c90613285565b60015460805261196d6080516132c3565b60015561198d3361197f608051613d96565b60805160a05160c051613e73565b1561074f5761199d608051613fac565b9a6080515f52600260205260405f209260018060a01b038a166001600160601b0360a01b8554161784556001840160018060a01b038d166001600160601b0360a01b8254161790556002840160018060a01b0333166001600160601b0360a01b82541617905560038401906001600160601b0360a01b8254161790556004830160018060a01b038d166001600160601b0360a01b825416179055896005840155611a4a60018310156132d1565b6201518082029180830462015180149015171561083d57611a6e611a949242612fbc565b600784015560098301805463ff0000ff191660189290921b63ff00000016919091179055565b6001600160401b0360a0511161073b57611ab1600a82015461332a565b601f8111611c34575b505f601f60a05111600114611ba357916007611b2594925f516020615bd75f395f51905f52989796945f9060a051611b96575b5060a05160011b905f1960a05160031b1c191617600a8201555b015495604051968796339c60018060a01b03169b6080519b89613382565b0390a460405160805190916001600160a01b0316907f470292d5e9c87e6d5a100a14c56a434c9f25e9e2be1d5efa70c3b5f9aeda505f5f80a3602081525f516020615b975f395f51905f526080519180611b876020820160a05160c051613362565b0390a260206040516080518152f35b905060c05101358e611aed565b600a82015f5260205f20905f5b60a051601f19168110611c1a5750611b2594925f516020615bd75f395f51905f52989796949260079260a051601f1960a0511610611bfd575b5050600160a051811b01600a820155611b07565b5f1960f860a05160031b161c199060c05101351690558d80611be9565b90916020600181928560c051013581550193019101611bb0565b600a82015f5260205f20601f60a0510160051c810191602060a05110611c76575b601f0160051c01905b818110611c6b5750611aba565b5f8155600101611c5e565b9091508190611c55565b506001600160a01b038a16821415611953565b60405162461bcd60e51b815260206004820152600a6024820152694275796572207a65726f60b01b6044820152606490fd5b346101475760a0366003190112610147576004356024356001600160401b03811161014757611cf8903690600401612e61565b9091604435916064356084356001600160401b03811161014757611d20903690600401612e61565b91611d29613789565b611d32856137dd565b42861180612118575b611d4490612fc9565b845f52600260205260405f209060ff6009830154166006811015610330576001611d6e9114613008565b604185036120df57611d80858961387c565b611d8c604185146133d3565b611d96848461387c565b600a820154611da49061332a565b604114611db090613413565b6001820197600160a01b6001900389541695600284019688600160a01b60019003895416600160a01b600190036003880154169b600160a01b600190038854169c600589019d8e549060068b0154926040519560208701977f2175432d6c7eab3a2ef5708fc419540c0f4d274cabd17912c92683ed8466b5e989526040880152886060880152608087015260a086015260c085015260e0840152610100830152610120820152856101408201526101408152611e6e61016082613060565b519020611e796138f8565b60405161190160f01b60208201908152602282019290925260428082019390935291825290611ea9606282613060565b519020611eb736848661309c565b611ec091614315565b611ec990614346565b6001600160a01b0316611edd8115156130d2565b14611ee790613111565b611ef1918861399d565b8754611f0791906001600160a01b031687613a5d565b600b01916001600160401b03811161073b5782611f2586945461332a565b601f811161208b575b505f601f8311600114611ff05792825f516020615bb75f395f51905f5292604096947f8bcf349ab354486b68c142cea7235e4f7f31f6a425466f569c8ac1d5bc4d000798965f91611fe5575b508260011b905f198460031b1c19161790555b611fa38651928392602084526020840191613362565b0390a2611faf84613b47565b546001600160a01b031694611fc48685614146565b91905060018060a01b0390541694549082519182526020820152a460015f55005b90508301358c611f7a565b601f19831690825f5260205f20915f5b8181106120705750927f8bcf349ab354486b68c142cea7235e4f7f31f6a425466f569c8ac1d5bc4d00079795928592604098965f516020615bb75f395f51905f529610612057575b5050600182811b019055611f8d565b8401355f19600385901b60f8161c191690558b80612048565b82870135845589975060019093019260209283019201612000565b9080929394505f5260205f20601f840160051c810191602085106120d5575b90601f8896959493920160051c01905b8181106120c75750611f2e565b5f81558795506001016120ba565b90915081906120aa565b60405162461bcd60e51b81526020600482015260116024820152704d697373696e6720636f6f72642073696760781b6044820152606490fd5b5062015180420180421161083d578610611d3b565b346101475760803660031901126101475760043560243560068110908115610147576044356001600160401b0381116101475761216e903690600401612e61565b9190926064356001600160401b03811161014757612190903690600401612e61565b93909161219b613789565b6121a4876137dd565b5f878152600260205260409020600301546001600160a01b0316330361275a57865f52600260205260405f209560ff60098801541660068110156103305760026121ee9114613008565b5f93600386149687801561274d575b1561271357895f52600660205260405f20546001811615159081612706575b5060088a015462278d0081019081811161083d5762279b100180911161083d5781156126fc575b50156126b757895f52600460205260ff60405f20541661268057895f52600460205260405f20600160ff1982541617905561228d3360018060a01b0360048c0154168c8486613e73565b1561074f57600c8901916001600160401b03821161073b578a916122b1845461332a565b601f811161262e575b505f93601f821160011461259e57817f514a487b739611aef8577751109f3612aef90abf478bc73849af4cdd1fa2135a94955f91612593575b508260011b905f198460031b1c19161790555b61231d604051928392602084526020840191613362565b0390a2875f526002602052600960405f20019161233f8660ff85541694613312565b15610330576123a47f4e71d2a3ce09c95d708a8bc888cb8838c8419bea1f25f6d07f2c601b173f720e91868a5f516020615c175f395f51905f526020829761238a6040518092612f8b565ba36040519460038652604060208701526040860191613362565b928033940390a361033057811561257f5760028301546001600160a01b0316915b845f5260026020528460405f20915f1461253c575060ff6009600583015492015460181c16600281115f14612532576001190160ff811161083d5761240990613d6b565b606482028281046064148315171561083d5761271090049080821061252a5750925b818410156124e55783820391821161083d577ffc4c84ff0bf9d937dea068e6c13c3a16c307d76a1c5b5173c40f03f68f421e0094865f516020615bf75f395f51905f5260806005948198965b6040519160018060a01b03168252602082015260018060a01b037f0000000000000000000000000000000000000000000000000000000000000000166040820152866060820152a201546124ce6040518094612f8b565b33602084015260408301526060820152a260015f55005b60405162461bcd60e51b815260206004820152601860248201527f416d6f756e7420746f6f20736d616c6c20666f722066656500000000000000006044820152606490fd5b90509261242b565b506124095f613d6b565b7ffc4c84ff0bf9d937dea068e6c13c3a16c307d76a1c5b5173c40f03f68f421e00946005915f516020615bf75f395f51905f526080848198960154955f96612477565b60018301546001600160a01b0316916123c5565b90508301358e6122f3565b601f198216815f5260205f20905f5b818110612608575095837f514a487b739611aef8577751109f3612aef90abf478bc73849af4cdd1fa2135a9697106125ef575b5050600182811b019055612306565b8401355f19600385901b60f8161c191690558d806125e0565b92949693955090602060018192868a013581550194019201908e959391969492966125ad565b90919250835f5260205f20601f830160051c81019160208410612676575b90601f8e959493920160051c01905b81811061266857506122ba565b5f81558d945060010161265b565b909150819061264c565b60405162461bcd60e51b815260206004820152600f60248201526e105b1c9958591e48191958da591959608a1b6044820152606490fd5b60405162461bcd60e51b815260206004820152601860248201527f4e6565642065766964656e6365206f722074696d656f757400000000000000006044820152606490fd5b905042118b612243565b600291501615158b61221c565b60405162461bcd60e51b815260206004820152601260248201527124b73b30b634b2103932b9b7b63aba34b7b760711b6044820152606490fd5b505f9550600487146121fd565b6372cc71e760e11b5f5260045ffd5b346101475761277736612ea4565b60e09190915292989397959695909491929190612792613789565b61279c8a8a613ba9565b6127a68685613c05565b6127ba6001600160a01b0386161515613153565b6001600160a01b03811615612b7a576127de6001600160a01b03821633141561318c565b6127e98715156131cc565b6127f6610e438910613206565b6127ff85613c55565b9561280c61193688613d7c565b6001600160a01b038316943386141580612b67575b61282a90613285565b600154996128378b6132c3565b600155612851336128478d613d96565b8d8960e051613e73565b1561074f5761285f8b613fac565b5f8c815260026020819052604090912080546001600160a01b03199081166001600160a01b038d811691909117835560018084018054841633179055938301805483168a83161790556003830180548316909c17909b556004820180549091169a84169a909a17909955600589018c90559099906128df908310156132d1565b6201518082029180830462015180149015171561083d576129036129299242612fbc565b600789015560098801805463ff0000ff191660189290921b63ff00000016919091179055565b6001600160401b03851161073b57612944600b87015461332a565b9b601f8d11612b1f575b60209c505f9b601f8711600114612a7e579a5f516020615bd75f395f51905f525f516020615bb75f395f51905f5296612a1796839f612a659f978f978e978d9a8f899f90816007926129d0985f91612a71575b508160011b915f199060031b1c191617600b8201555b015460405197889760018060a01b03169c339c89613382565b0390a46040519182916001600160a01b038916867f470292d5e9c87e6d5a100a14c56a434c9f25e9e2be1d5efa70c3b5f9aeda505f5f80a38c83528c83019060e051613362565b0390a2600642910155612a2985613b16565b604051838152857f2c39794ba48d965361d6eb56f0d6366313044d1b5b1758c68643d3e3a39a2c4e883393a333906001600160a01b0316613fee565b60015f55604051908152f35b905060e05101355f6129a1565b600b88015f528d5f205f5b601f1989168110612b0657505f516020615bb75f395f51905f5296612a17968e9f612a659f9a978f978e978d978f60079060018e5f516020615bd75f395f51905f529b6129d09982601f19811610612aeb575b5050811b01600b8201556129b7565b60e05101355f19600384901b60f8161c191690555f80612adc565b60e0518f013582559d8f019d6001909101908f01612a89565b600b87015f5260205f20601f870160051c81019d60208810612b5d575b601f0160051c019c5b8d8110612b52575061294e565b5f8155600101612b45565b909d508d90612b3c565b506001600160a01b038316861415612821565b60405162461bcd60e51b815260206004820152600b60248201526a53656c6c6572207a65726f60a81b6044820152606490fd5b34610147575f36600319011261014757602060405162278d008152f35b34610147576020366003190112610147576004355f526006602052602060405f2054604051908152f35b34610147576080366003190112610147576004356024356001600160401b03811161014757612c27903690600401612e61565b919060443592606435612c38613789565b612c41846137dd565b42851180612e4c575b612c5390612fc9565b835f52600260205260405f209260ff600985015416600681101561033057612dd093612d9e92612c886001612dca9414613008565b612c92828261387c565b612dc460018060a01b0360018901541699612d968a8c60018060a01b0360028d015416938c600360018060a01b03910154168d60018060a01b0381541660066005830154920154926040519560208701977f3ec4667e1948e2e97f54b4602b6bbfa8f3f98ff1036916ce75d84c59f9558f0289526040880152606087015288608087015260a086015260c085015260e0840152610100830152610120820152896101408201526101408152612d4961016082613060565b5190206103f6612d82612d5a6138f8565b92604051928391602083019586909160429261190160f01b8352600283015260228201520190565b519020612d9036878761309c565b90614315565b969096614346565b6001600160a01b0386169a612db48c15156130d2565b8b14908115612e42575b50613111565b8761399d565b84613a5d565b612dd982613ad6565b60084291015562278d00420180421161083d577f1a9502b6f661da8b0573a0617c121cabe2e93ea05d5239cfab6e9d1734b928c960208392604051908152a27fd658effe7cf013e5a508b3f1a373b92566494d8b6a7c2970fc964932de1c4dab5f80a360015f55005b90508a148b612dbe565b5062015180420180421161083d578510612c4a565b9181601f84011215610147578235916001600160401b038311610147576020838186019501011161014757565b602435906001600160a01b038216820361014757565b90610100600319830112610147576004356001600160a01b038116810361014757916024356001600160a01b0381168103610147579160443591606435916084356001600160a01b0381168103610147579160a4356001600160401b0381116101475781612f1491600401612e61565b9290929160c4356001600160401b0381116101475781612f3691600401612e61565b9290929160e435906001600160401b03821161014757612f5891600401612e61565b9091565b9060406003198301126101475760043591602435906001600160401b03821161014757612f5891600401612e61565b9060068210156103305752565b805180835260209291819084018484015e5f828201840152601f01601f1916010190565b9190820180921161083d57565b15612fd057565b60405162461bcd60e51b815260206004820152601060248201526f496e76616c696420646561646c696e6560801b6044820152606490fd5b1561300f57565b60405162461bcd60e51b815260206004820152600d60248201526c496e76616c696420737461746560981b6044820152606490fd5b61020081019081106001600160401b0382111761073b57604052565b90601f801991011681019081106001600160401b0382111761073b57604052565b6001600160401b03811161073b57601f01601f191660200190565b9291926130a882613081565b916130b66040519384613060565b829481845281830111610147578281602093845f960137010152565b156130d957565b60405162461bcd60e51b815260206004820152601060248201526f496e76616c6964207265636f7665727960801b6044820152606490fd5b1561311857565b60405162461bcd60e51b81526020600482015260136024820152722ab730baba3437b934bd32b21039b4b3b732b960691b6044820152606490fd5b1561315a57565b60405162461bcd60e51b815260206004820152600a602482015269546f6b656e207a65726f60b01b6044820152606490fd5b1561319357565b60405162461bcd60e51b815260206004820152601160248201527042757965722073656c6c65722073616d6560781b6044820152606490fd5b156131d357565b60405162461bcd60e51b815260206004820152600b60248201526a416d6f756e74207a65726f60a81b6044820152606490fd5b1561320d57565b60405162461bcd60e51b81526020600482015260116024820152704d6174757269747920746f6f206c6f6e6760781b6044820152606490fd5b1561324d57565b60405162461bcd60e51b815260206004820152601060248201526f105b5bdd5b9d081d1bdbc81cdb585b1b60821b6044820152606490fd5b1561328c57565b60405162461bcd60e51b815260206004820152600f60248201526e24b73b30b634b21030b93134ba32b960891b6044820152606490fd5b5f19811461083d5760010190565b156132d857565b60405162461bcd60e51b81526020600482015260126024820152714d696e203120646179206d6174757269747960701b6044820152606490fd5b9060068110156103305760ff80198354169116179055565b90600182811c92168015613358575b602083101461334457565b634e487b7160e01b5f52602260045260245ffd5b91607f1691613339565b908060209392818452848401375f828201840152601f01601f1916010190565b9694926133d09896926133c2959260018060a01b03168952602089015260018060a01b03166040880152606087015260c0608087015260c0860191613362565b9260a0818503910152613362565b90565b156133da57565b60405162461bcd60e51b81526020600482015260116024820152704d697373696e672062757965722073696760781b6044820152606490fd5b1561341a57565b60405162461bcd60e51b81526020600482015260126024820152714d697373696e672073656c6c65722073696760701b6044820152606490fd5b1561345b57565b60405162461bcd60e51b81526020600482015260156024820152744e6f74206177616974696e672064656c697665727960581b6044820152606490fd5b1561349f57565b60405162461bcd60e51b815260206004820152600e60248201526d446973707574652061637469766560901b6044820152606490fd5b156134dc57565b60405162461bcd60e51b815260206004820152600a602482015269139bc819195c1bdcda5d60b21b6044820152606490fd5b1561351557565b60405162461bcd60e51b815260206004820152601460248201527313585d1d5c9a5d1e481b9bdd081c995858da195960621b6044820152606490fd5b1561355857565b60405162461bcd60e51b815260206004820152600b60248201526a27b7363c9039b2b63632b960a91b6044820152606490fd5b1561359257565b60405162461bcd60e51b8152602060048201526011602482015270105b1c9958591e481cdd589b5a5d1d1959607a1b6044820152606490fd5b156135d257565b60405162461bcd60e51b815260206004820152600b60248201526a57726f6e6720737461746560a81b6044820152606490fd5b9060405191825f8254926136188461332a565b8084529360018116908115613683575060011461363f575b5061363d92500383613060565b565b90505f9291925260205f20905f915b81831061366757505090602061363d928201015f613630565b602091935080600191548385890101520191019091849261364e565b90506020925061363d94915060ff191682840152151560051b8201015f613630565b604051906136b4604083613060565b601382527214185b1a5b991c9bdb5954185e55d85b1b195d606a1b6020830152565b604051906136e5604083613060565b60018252603160f81b6020830152565b926080929594919560a08501967f8b73c3c69bb8fe3d512ecc4cf759cc79239f7b179b0ffacaa9a75d522b39400f865260208601526040850152606084015260018060a01b0316910152565b7f783cf3fdc83d5b0c9e236f4e0bfa8f022a2090d21a4c53f5f99df0d607781fa1815260208101919091526001600160a01b0391821660408201529116606082015260800190565b60025f54146137985760025f55565b60405162461bcd60e51b815260206004820152601f60248201527f5265656e7472616e637947756172643a207265656e7472616e742063616c6c006044820152606490fd5b60015481101561383f575f908152600260205260409020600101546001600160a01b03161561380857565b60405162461bcd60e51b815260206004820152600f60248201526e139bdd081a5b9a5d1a585b1a5e9959608a1b6044820152606490fd5b60405162461bcd60e51b8152602060048201526015602482015274115cd8dc9bddc8191bd95cc81b9bdd08195e1a5cdd605a1b6044820152606490fd5b906041036138e9576fa2a8918ca85bafe22016d0b997e4df60600160ff1b03602060408301355f1a920135116138da57601b81141590816138ce575b506138bf57565b6307839aef60e21b5f5260045ffd5b601c915014155f6138b8565b6354b34b0360e01b5f5260045ffd5b6354f3472360e01b5f5260045ffd5b467f000000000000000000000000000000000000000000000000000000000000000003613943577f000000000000000000000000000000000000000000000000000000000000000090565b600d6020604051613955604082613060565b828152016c50616c696e64726f6d6550617960981b8152206103f661399761397b6136d6565b60208151910120604051928391602083019530914691886136f5565b51902090565b916041036138e957602081013560408201355f1a6fa2a8918ca85bafe22016d0b997e4df60600160ff1b0382116138da57601b8114159081613a51575b506138bf576040519160208301933060601b85526034840152356054830152607482015246609482015260948152613a1360b482613060565b519020805f52600360205260ff60405f205416613a42575f52600360205260405f20600160ff19825416179055565b63900bb2c960e01b5f5260045ffd5b601c915014155f6139da565b91908160081c90835f52600560205260405f2060018060a01b0382165f5260205260405f20825f52602052600160ff60405f205494161b93848416613ac7575f52600560205260405f209060018060a01b03165f5260205260405f20905f526020521760405f2055565b633ab3447f60e11b5f5260045ffd5b600290805f52816020525f516020615c175f395f51905f526020600960405f2001613b068560ff83541692613312565b613b136040518092612f8b565ba3565b600190805f5260026020525f516020615c175f395f51905f526020600960405f2001613b068560ff83541692613312565b600390805f5260026020525f516020615c175f395f51905f526020600960405f2001613b068560ff83541692613312565b600590805f5260026020525f516020615c175f395f51905f526020600960405f2001613b068560ff83541692613312565b508015159081613bf8575b5015613bbc57565b60405162461bcd60e51b8152602060048201526014602482015273092dcecc2d8d2c840e8d2e8d8ca40d8cadccee8d60631b6044820152606490fd5b6101f4915011155f613bb4565b506101f410613c1057565b60405162461bcd60e51b815260206004820152601860248201527f496e76616c696420495046532068617368206c656e67746800000000000000006044820152606490fd5b60405163313ce56760e01b815290602090829060049082906001600160a01b0316617530fa5f9181613d2d575b50613ccc5760405162461bcd60e51b815260206004820152601f60248201527f546f6b656e206d75737420696d706c656d656e7420646563696d616c732829006044820152606490fd5b60ff811660068110159081613d21575b5015613ce55790565b60405162461bcd60e51b8152602060048201526014602482015273556e737570706f7274656420646563696d616c7360601b6044820152606490fd5b6012915011155f613cdc565b9091506020813d602011613d63575b81613d4960209383613060565b81010312610147575160ff8116810361014757905f613c82565b3d9150613d3c565b60ff16604d811161083d57600a0a90565b613d8590613d6b565b80600a0290600a82040361083d5790565b604051602081019082825260208152613db0604082613060565b5190206040519091613e2d611633613dcb6020820185613060565b8084526020840190614564823960408051306020808301918252828401969096529181529390613dfc606086613060565b60405194859383850197518091895e840190838201905f8252519283915e01015f815203601f198101835282613060565b5190209060405191602083019160ff60f81b83523060601b60218501526035840152605583015260558252613e63607583613060565b905190206001600160a01b031690565b919391929060401901613fa4576001600160a01b038216938415613f9b5760208401359160408501355f1a906fa2a8918ca85bafe22016d0b997e4df60600160ff1b038411613f8557601b82141580613f90575b613f8557613f7895613f66613f5894613f7097613f2e613ee56136a5565b6020815191012086613f16613ef86136d6565b60208151910120926103f660405193849260208401964691886136f5565b519020956103f6604051938492602084019687613741565b519020604051958691602083019586909160429261190160f01b8352600283015260228201520190565b03601f198101865285613060565b359251902061444a565b919091614346565b6001600160a01b03161490565b505050505050505f90565b50601c821415613ec7565b50505050505f90565b505050505f90565b604051602081019082825260208152613fc6604082613060565b5190206040519091613fe1611633613dcb6020820185613060565b51905ff590811561014757565b6040516323b872dd60e01b602082019081526001600160a01b0393841660248301529290931660448401526064808401949094529282526140ad925f908190614038608486613060565b60018060a01b03169260405194614050604087613060565b602086527f5361666545524332303a206c6f772d6c6576656c2063616c6c206661696c65646020870152519082855af13d1561413e573d9161409183613081565b9261409f6040519485613060565b83523d5f602085013e6144c6565b805190811591821561411b575b5050156140c357565b60405162461bcd60e51b815260206004820152602a60248201527f5361666545524332303a204552433230206f7065726174696f6e20646964206e6044820152691bdd081cdd58d8d9595960b21b6064820152608490fd5b819250906020918101031261014757602001518015158103610147575f806140ba565b6060916144c6565b91825f52600260205260405f209260ff6009600586015495015460181c16600281115f1461421b576001190160ff811161083d5761418390613d6b565b606485028581046064148615171561083d576127109004908082106142135750925b848410156124e55783850394851161083d57604080516001600160a01b039283168152602081018790527f000000000000000000000000000000000000000000000000000000000000000090921690820152606081018490525f516020615bf75f395f51905f5290608090a2565b9050926141a5565b506141835f613d6b565b91825f526002602052600560405f200154925f516020615bf75f395f51905f5260805f946040519060018060a01b0316815286602082015260018060a01b037f00000000000000000000000000000000000000000000000000000000000000001660408201525f6060820152a2565b5f908152600260205260409020600101546001600160a01b031633036142b657565b6386efbb5560e01b5f5260045ffd5b5f52600260205260405f2060018060a01b0360018201541633141590816142fd575b506142ee57565b631cfe2f0560e11b5f5260045ffd5b600201546001600160a01b031633141590505f6142e7565b9060418151145f1461433d57612f5891602082015190606060408401519301515f1a9061444a565b50505f90600290565b600581101561033057806143575750565b600181036143a45760405162461bcd60e51b815260206004820152601860248201527f45434453413a20696e76616c6964207369676e617475726500000000000000006044820152606490fd5b600281036143f15760405162461bcd60e51b815260206004820152601f60248201527f45434453413a20696e76616c6964207369676e6174757265206c656e677468006044820152606490fd5b6003146143fa57565b60405162461bcd60e51b815260206004820152602260248201527f45434453413a20696e76616c6964207369676e6174757265202773272076616c604482015261756560f01b6064820152608490fd5b6fa2a8918ca85bafe22016d0b997e4df60600160ff1b0384116144bb576020935f9360ff60809460405194855216868401526040830152606082015282805260015afa156144b0575f516001600160a01b038116156144a857905f90565b505f90600190565b6040513d5f823e3d90fd5b505050505f90600390565b9192901561452857508151156144da575090565b3b156144e35790565b60405162461bcd60e51b815260206004820152601d60248201527f416464726573733a2063616c6c20746f206e6f6e2d636f6e74726163740000006044820152606490fd5b82519091501561453b5750805190602001fd5b60405162461bcd60e51b81526020600482015290819061455f906024830190612f98565b0390fdfe61010080604052346101ce57604081611633803803809161002082856101d2565b8339810103126101ce5780516001600160a01b038116918282036101ce57602001519160015f551561019b5760805260a0524660e0526040516100646040826101d2565b601381527f50616c696e64726f6d6550617957616c6c657400000000000000000000000000602090910152604080517f87935900cf85ca6189e663d7248e1662ff19d0d4c4fd1ac66e148650615f0137916100bf90826101d2565b600181526020810190603160f81b82525190206040519060208201927f8b73c3c69bb8fe3d512ecc4cf759cc79239f7b179b0ffacaa9a75d522b39400f8452604083015260608201524660808201523060a082015260a0815261012360c0826101d2565b51902060c052604051611429908161020a82396080518181816101b30152818161062a015281816106dd01528181610a0f0152610b20015260a05181818161018301528181610670015281816106b2015281816109dc01528181610aec0152610d1b015260c05181610e79015260e05181610d9f0152f35b60405162461bcd60e51b815260206004820152600b60248201526a457363726f77207a65726f60a81b6044820152606490fd5b5f80fd5b601f909101601f19168101906001600160401b038211908210176101f557604052565b634e487b7160e01b5f52604160045260245ffdfe60806040526004361015610011575f80fd5b5f3560e01c806312065fe0146100a4578063145d07051461009f5780632a5851a21461009a5780633644e515146100955780633ccfd60b146100905780636e7949721461008b57806379a7a85c1461008657806393e74d7f146100815763c80ec5221461007c575f80fd5b610743565b610693565b610659565b610615565b61014d565b610133565b61010c565b6100db565b346100c6575f3660031901126100c65760206100be6109cd565b604051908152f35b5f80fd5b6001600160a01b038116036100c657565b346100c65760203660031901126100c65760206101026004356100fd816100ca565b610add565b6040519015158152f35b346100c65760203660031901126100c65760206100be60043561012e816100ca565b610cee565b346100c6575f3660031901126100c65760206100be610d9d565b346100c6575f3660031901126100c65760025f54146105d05760025f5560015460ff166105c157604051633e8cf2cb60e11b81527f0000000000000000000000000000000000000000000000000000000000000000600482018190526001600160a01b037f0000000000000000000000000000000000000000000000000000000000000000165f83602481845afa928315610412575f9361059d575b50610120830151916101fa83610c37565b61020383610c37565b6003831493841580610589575b80610575575b6105665780516001600160a01b0316156105575760208101805190919061024d906001600160a01b03165b6001600160a01b031690565b33141580610537575b80610517575b61050857600261026b82610ec2565b106104f957610281600160ff1981541617600155565b8051610295906001600160a01b0316610241565b6040516370a0823160e01b81523060048201526001600160a01b0382169790969193916020886024818c5afa978815610412575f986104d4575b506102d990610c37565b156104685750604081015160049291906020906001600160a01b0316956040519485809263d3e78e4d60e01b82525afa928315610412575f93610437575b506001600160a01b038316958615610428577f2b50bbeab304785e1247f1e22da0321897c428768d93e80ab1811e9baa9559019361036861037b926103626101808a96015160ff1690565b9061109c565b94819891928680610417575b5050610f59565b6040805195865260208601929092526001600160a01b031693a45b6040516370a0823160e01b815230600482015290602090829060249082905afa908115610412575f916103e3575b506103d4576103d260015f55565b005b631fea47ef60e01b5f5260045ffd5b610405915060203d60201161040b575b6103fd8183610779565b8101906109be565b5f6103c4565b503d6103f3565b6109b3565b6104219183610f59565b5f86610374565b630665334760e11b5f5260045ffd5b61045a91935060203d602011610461575b6104528183610779565b810190610c46565b915f610317565b503d610448565b515f9594507f2b50bbeab304785e1247f1e22da0321897c428768d93e80ab1811e9baa955901926104cc9250906104ab9086906001600160a01b03168093610f59565b604080519586525f60208701526001600160a01b0390911694918291820190565b0390a4610396565b6102d99198506104f29060203d60201161040b576103fd8183610779565b97906102cf565b633724e34360e11b5f5260045ffd5b630eebd6cd60e21b5f5260045ffd5b50606081015161052f906001600160a01b0316610241565b33141561025c565b50604081015161054f906001600160a01b0316610241565b331415610256565b6381c609f760e01b5f5260045ffd5b635448814d60e11b5f5260045ffd5b5061057f84610c37565b6005841415610216565b5061059384610c37565b6004841415610210565b6105ba9193503d805f833e6105b28183610779565b810190610847565b915f6101e9565b636507689f60e01b5f5260045ffd5b60405162461bcd60e51b815260206004820152601f60248201527f5265656e7472616e637947756172643a207265656e7472616e742063616c6c006044820152606490fd5b346100c6575f3660031901126100c6576040517f00000000000000000000000000000000000000000000000000000000000000006001600160a01b03168152602090f35b346100c6575f3660031901126100c65760206040517f00000000000000000000000000000000000000000000000000000000000000008152f35b346100c6575f3660031901126100c657604051633e8cf2cb60e11b81527f000000000000000000000000000000000000000000000000000000000000000060048201525f816024817f00000000000000000000000000000000000000000000000000000000000000006001600160a01b03165afa80156104125761071e915f91610729575b50610ec2565b604051908152602090f35b61073d91503d805f833e6105b28183610779565b5f610718565b346100c6575f3660031901126100c657602060ff600154166040519015158152f35b634e487b7160e01b5f52604160045260245ffd5b90601f8019910116810190811067ffffffffffffffff82111761079b57604052565b610765565b604051906107b061020083610779565b565b51906107b0826100ca565b519060068210156100c657565b519081151582036100c657565b519060ff821682036100c657565b67ffffffffffffffff811161079b57601f01601f191660200190565b81601f820112156100c657805190610818826107e5565b926108266040519485610779565b828452602083830101116100c657815f9260208093018386015e8301015290565b6020818303126100c65780519067ffffffffffffffff82116100c65701610200818303126100c6576108776107a0565b91610881826107b2565b835261088f602083016107b2565b60208401526108a0604083016107b2565b60408401526108b1606083016107b2565b60608401526108c2608083016107b2565b608084015260a082015160a084015260c082015160c084015260e082015160e08401526101008201516101008401526108fe61012083016107bd565b61012084015261091161014083016107ca565b61014084015261092461016083016107ca565b61016084015261093761018083016107d7565b6101808401526101a082015167ffffffffffffffff81116100c6578161095e918401610801565b6101a08401526101c082015167ffffffffffffffff81116100c65781610985918401610801565b6101c08401526101e082015167ffffffffffffffff81116100c6576109aa9201610801565b6101e082015290565b6040513d5f823e3d90fd5b908160209103126100c6575190565b604051633e8cf2cb60e11b81527f000000000000000000000000000000000000000000000000000000000000000060048201525f816024816001600160a01b037f0000000000000000000000000000000000000000000000000000000000000000165afa801561041257610a50915f91610ac3575b50516001600160a01b031690565b6001600160a01b03811615610abe57610a71906001600160a01b0316610241565b6040516370a0823160e01b815230600482015290602090829060249082905afa908115610412575f91610aa2575090565b610abb915060203d60201161040b576103fd8183610779565b90565b505f90565b610ad791503d805f833e6105b28183610779565b5f610a42565b604051633e8cf2cb60e11b81527f00000000000000000000000000000000000000000000000000000000000000006004820152905f826024816001600160a01b037f0000000000000000000000000000000000000000000000000000000000000000165afa918215610412575f92610c07575b50602082018051909190610b6c906001600160a01b0316610241565b6001600160a01b03909116908103610b9e57506101c091909101519051610abb91906001600160a01b03165b90610c5b565b604083018051909250610bb9906001600160a01b0316610241565b8103610bdd57506101a091909101519051610abb91906001600160a01b0316610b98565b60608301516001600160a01b031691508114610bf95750505f90565b6101e0610abb920151610c5b565b610c1c9192503d805f833e6105b28183610779565b905f610b50565b634e487b7160e01b5f52602160045260245ffd5b60061115610c4157565b610c23565b908160209103126100c65751610abb816100ca565b6041815103610ce8576001600160a01b038216918215610ce157602082015191606060408201519101515f1a926fa2a8918ca85bafe22016d0b997e4df60600160ff1b038211610ccd57601b84141580610cd6575b610ccd57610cc993610cc461024194610cee565b611110565b1490565b50505050505f90565b50601c841415610cb0565b5050505f90565b50505f90565b60405160208101917f783cf3fdc83d5b0c9e236f4e0bfa8f022a2090d21a4c53f5f99df0d607781fa183527f0000000000000000000000000000000000000000000000000000000000000000604083015230606083015260018060a01b0316608082015260808152610d6160a082610779565b519020610d6c610d9d565b9060405190602082019261190160f01b84526022830152604282015260428152610d97606282610779565b51902090565b7f00000000000000000000000000000000000000000000000000000000000000004614610e77576040610e69610d97601360208451610ddc8682610779565b828152017214185b1a5b991c9bdb5954185e55d85b1b195d606a1b81522092600160208251610e0b8482610779565b828152603160f81b91019081522090517f8b73c3c69bb8fe3d512ecc4cf759cc79239f7b179b0ffacaa9a75d522b39400f60208201908152604082019590955260608101919091524660808201523060a082015291829060c0820190565b03601f198101835282610779565b7f000000000000000000000000000000000000000000000000000000000000000090565b634e487b7160e01b5f52601160045260245ffd5b5f198114610ebd5760010190565b610e9b565b6101c081015160208201515f939291610ee4916001600160a01b031690610c5b565b610f50575b610f056101a082015160018060a01b0360408401511690610c5b565b610f3b575b6101e0810151606090910151610f2b916001600160a01b0390911690610c5b565b610f3157565b90610abb90610eaf565b91610f48610f2b91610eaf565b929050610f0a565b60019250610ee9565b9161100d915f806107b09560405194602086019463a9059cbb60e01b865260018060a01b03166024870152604486015260448552610f98606486610779565b60018060a01b03169260405194610fb0604087610779565b602086527f5361666545524332303a206c6f772d6c6576656c2063616c6c206661696c65646020870152519082855af13d1561103b573d91610ff1836107e5565b92610fff6040519485610779565b83523d5f602085013e611381565b8051908115918215611021575b505061113b565b6110349250602080918301019101611127565b5f8061101a565b606091611381565b1561104a57565b60405162461bcd60e51b815260206004820152601860248201527f416d6f756e7420746f6f20736d616c6c20666f722066656500000000000000006044820152606490fd5b91908203918211610ebd57565b9060ff166002811115611107576001190160ff8111610ebd5760ff905b16604d8111610ebd57600a0a606482029082820460641483151715610ebd576110fd9161271090049080821061110057505b80926110f8818310611043565b61108f565b91565b90506110eb565b5060ff5f6110b9565b91610abb939161111f9361119a565b919091611215565b908160209103126100c657610abb906107ca565b1561114257565b60405162461bcd60e51b815260206004820152602a60248201527f5361666545524332303a204552433230206f7065726174696f6e20646964206e6044820152691bdd081cdd58d8d9595960b21b6064820152608490fd5b6fa2a8918ca85bafe22016d0b997e4df60600160ff1b038411611200576020935f9360ff60809460405194855216868401526040830152606082015282805260015afa15610412575f516001600160a01b038116156111f857905f90565b505f90600190565b505050505f90600390565b60051115610c4157565b61121e8161120b565b806112265750565b61122f8161120b565b6001810361127c5760405162461bcd60e51b815260206004820152601860248201527f45434453413a20696e76616c6964207369676e617475726500000000000000006044820152606490fd5b6112858161120b565b600281036112d25760405162461bcd60e51b815260206004820152601f60248201527f45434453413a20696e76616c6964207369676e6174757265206c656e677468006044820152606490fd5b806112de60039261120b565b146112e557565b60405162461bcd60e51b815260206004820152602260248201527f45434453413a20696e76616c6964207369676e6174757265202773272076616c604482015261756560f01b6064820152608490fd5b1561133c57565b60405162461bcd60e51b815260206004820152601d60248201527f416464726573733a2063616c6c20746f206e6f6e2d636f6e74726163740000006044820152606490fd5b919290156113a15750815115611395575090565b610abb903b1515611335565b8251909150156113b45750805190602001fd5b604460209160405192839162461bcd60e51b83528160048401528051918291826024860152018484015e5f828201840152601f01601f19168101030190fdfea2646970667358221220492ddc7b6fa981d0e060de8088b3b7c788d545a5f24c6d56ff25bdb74187b11664736f6c634300081d00339a98d2f378553651c1f49353593985b1cda0f6d7e9ab1062bb365dc9172a5cd5db73a95b5021282afa069105f6341730da3d69b308a9167526d1d9d4855ce6e6d3e0574cb952cf8d88c9c2b97882e6000237da1d62a64753eaddaf4d9ce7351b4efd0eb8137437cc21ded7c1b056cd5a6e457ad8830e42d74bb9ba46144dbe8318e785d11512625ba8e5486b7d963f337dfc0a628752fe18e284b0375eefe46ca264697066735822122094be6b0846ce42f94ea8d0c8b536904d25b45e457cef17aae69a604fdb3a669064736f6c634300081d0033",
  "linkReferences": {},
  "deployedLinkReferences": {},
  "immutableReferences": {
    "3188": [
      {
        "length": 32,
        "start": 1227
      },
      {
        "length": 32,
        "start": 9363
      },
      {
        "length": 32,
        "start": 16849
      },
      {
        "length": 32,
        "start": 16998
      }
    ],
    "3191": [
      {
        "length": 32,
        "start": 14625
      }
    ],
    "3194": [
      {
        "length": 32,
        "start": 14587
      }
    ]
  },
  "inputSourceName": "project/contracts/PalindromePay.sol",
  "buildInfoId": "solc-0_8_29-d8be9a41d8ecec07f6dbd5b4979660e019119436"
}