{
  "_format": "hh3-artifact-1",
  "contractName": "PalindromeCryptoEscrow",
  "sourceName": "contracts/PalindromeCryptoEscrow.sol",
  "abi": [
    {
      "inputs": [
        {
          "internalType": "address",
          "name": "_feeReceiver",
          "type": "address"
        }
      ],
      "stateMutability": "nonpayable",
      "type": "constructor"
    },
    {
      "inputs": [],
      "name": "InvalidMessageRoleForDispute",
      "type": "error"
    },
    {
      "inputs": [],
      "name": "InvalidNonce",
      "type": "error"
    },
    {
      "inputs": [],
      "name": "NotParticipant",
      "type": "error"
    },
    {
      "inputs": [],
      "name": "OnlyArbiter",
      "type": "error"
    },
    {
      "inputs": [],
      "name": "OnlyBuyer",
      "type": "error"
    },
    {
      "inputs": [],
      "name": "OnlyBuyerOrSeller",
      "type": "error"
    },
    {
      "inputs": [],
      "name": "SignatureAlreadyUsed",
      "type": "error"
    },
    {
      "inputs": [],
      "name": "SignatureLengthInvalid",
      "type": "error"
    },
    {
      "inputs": [],
      "name": "SignatureSInvalid",
      "type": "error"
    },
    {
      "inputs": [],
      "name": "SignatureVInvalid",
      "type": "error"
    },
    {
      "anonymous": false,
      "inputs": [
        {
          "indexed": true,
          "internalType": "uint256",
          "name": "escrowId",
          "type": "uint256"
        },
        {
          "indexed": true,
          "internalType": "address",
          "name": "oldArbiter",
          "type": "address"
        },
        {
          "indexed": true,
          "internalType": "address",
          "name": "newArbiter",
          "type": "address"
        }
      ],
      "name": "ArbiterReplaced",
      "type": "event"
    },
    {
      "anonymous": false,
      "inputs": [
        {
          "indexed": true,
          "internalType": "uint256",
          "name": "escrowId",
          "type": "uint256"
        },
        {
          "indexed": true,
          "internalType": "address",
          "name": "initiator",
          "type": "address"
        },
        {
          "indexed": false,
          "internalType": "uint256",
          "name": "amount",
          "type": "uint256"
        }
      ],
      "name": "Canceled",
      "type": "event"
    },
    {
      "anonymous": false,
      "inputs": [
        {
          "indexed": true,
          "internalType": "uint256",
          "name": "escrowId",
          "type": "uint256"
        },
        {
          "indexed": true,
          "internalType": "address",
          "name": "buyer",
          "type": "address"
        },
        {
          "indexed": true,
          "internalType": "address",
          "name": "seller",
          "type": "address"
        },
        {
          "indexed": false,
          "internalType": "uint256",
          "name": "amount",
          "type": "uint256"
        },
        {
          "indexed": false,
          "internalType": "uint256",
          "name": "fee",
          "type": "uint256"
        },
        {
          "indexed": false,
          "internalType": "string",
          "name": "ipfsHaesh",
          "type": "string"
        }
      ],
      "name": "DeliveryConfirmed",
      "type": "event"
    },
    {
      "anonymous": false,
      "inputs": [
        {
          "indexed": true,
          "internalType": "uint256",
          "name": "escrowId",
          "type": "uint256"
        },
        {
          "indexed": true,
          "internalType": "address",
          "name": "sender",
          "type": "address"
        },
        {
          "indexed": false,
          "internalType": "enum PalindromeCryptoEscrow.Role",
          "name": "role",
          "type": "uint8"
        },
        {
          "indexed": false,
          "internalType": "string",
          "name": "ipfsHash",
          "type": "string"
        }
      ],
      "name": "DisputeMessagePosted",
      "type": "event"
    },
    {
      "anonymous": false,
      "inputs": [
        {
          "indexed": true,
          "internalType": "uint256",
          "name": "escrowId",
          "type": "uint256"
        },
        {
          "indexed": false,
          "internalType": "enum PalindromeCryptoEscrow.State",
          "name": "resolution",
          "type": "uint8"
        },
        {
          "indexed": false,
          "internalType": "address",
          "name": "arbiter",
          "type": "address"
        },
        {
          "indexed": false,
          "internalType": "uint256",
          "name": "amount",
          "type": "uint256"
        },
        {
          "indexed": false,
          "internalType": "uint256",
          "name": "fee",
          "type": "uint256"
        }
      ],
      "name": "DisputeResolved",
      "type": "event"
    },
    {
      "anonymous": false,
      "inputs": [
        {
          "indexed": true,
          "internalType": "uint256",
          "name": "escrowId",
          "type": "uint256"
        },
        {
          "indexed": true,
          "internalType": "address",
          "name": "initiator",
          "type": "address"
        }
      ],
      "name": "DisputeStarted",
      "type": "event"
    },
    {
      "anonymous": false,
      "inputs": [
        {
          "indexed": true,
          "internalType": "uint256",
          "name": "escrowId",
          "type": "uint256"
        },
        {
          "indexed": true,
          "internalType": "address",
          "name": "recipient",
          "type": "address"
        },
        {
          "indexed": false,
          "internalType": "uint256",
          "name": "amount",
          "type": "uint256"
        }
      ],
      "name": "EmergencyRecoveryExecuted",
      "type": "event"
    },
    {
      "anonymous": false,
      "inputs": [
        {
          "indexed": true,
          "internalType": "uint256",
          "name": "escrowId",
          "type": "uint256"
        },
        {
          "indexed": false,
          "internalType": "uint256",
          "name": "timestamp",
          "type": "uint256"
        }
      ],
      "name": "EmergencyRecoveryInitiated",
      "type": "event"
    },
    {
      "anonymous": false,
      "inputs": [
        {
          "indexed": true,
          "internalType": "uint256",
          "name": "escrowId",
          "type": "uint256"
        },
        {
          "indexed": true,
          "internalType": "address",
          "name": "buyer",
          "type": "address"
        },
        {
          "indexed": true,
          "internalType": "address",
          "name": "seller",
          "type": "address"
        },
        {
          "indexed": false,
          "internalType": "address",
          "name": "token",
          "type": "address"
        },
        {
          "indexed": false,
          "internalType": "uint256",
          "name": "amount",
          "type": "uint256"
        },
        {
          "indexed": false,
          "internalType": "address",
          "name": "arbiter",
          "type": "address"
        },
        {
          "indexed": false,
          "internalType": "uint256",
          "name": "maturityTime",
          "type": "uint256"
        },
        {
          "indexed": false,
          "internalType": "string",
          "name": "title",
          "type": "string"
        },
        {
          "indexed": false,
          "internalType": "string",
          "name": "ipfsHash",
          "type": "string"
        }
      ],
      "name": "EscrowCreated",
      "type": "event"
    },
    {
      "anonymous": false,
      "inputs": [
        {
          "indexed": true,
          "internalType": "uint256",
          "name": "escrowId",
          "type": "uint256"
        },
        {
          "indexed": false,
          "internalType": "enum PalindromeCryptoEscrow.State",
          "name": "oldState",
          "type": "uint8"
        },
        {
          "indexed": false,
          "internalType": "enum PalindromeCryptoEscrow.State",
          "name": "newState",
          "type": "uint8"
        }
      ],
      "name": "EscrowStateChanged",
      "type": "event"
    },
    {
      "anonymous": false,
      "inputs": [
        {
          "indexed": true,
          "internalType": "uint256",
          "name": "escrowId",
          "type": "uint256"
        },
        {
          "indexed": true,
          "internalType": "address",
          "name": "buyer",
          "type": "address"
        },
        {
          "indexed": false,
          "internalType": "uint256",
          "name": "amount",
          "type": "uint256"
        }
      ],
      "name": "PaymentDeposited",
      "type": "event"
    },
    {
      "anonymous": false,
      "inputs": [
        {
          "indexed": true,
          "internalType": "uint256",
          "name": "escrowId",
          "type": "uint256"
        },
        {
          "indexed": false,
          "internalType": "address",
          "name": "recipient",
          "type": "address"
        },
        {
          "indexed": false,
          "internalType": "uint256",
          "name": "netAmount",
          "type": "uint256"
        },
        {
          "indexed": false,
          "internalType": "address",
          "name": "feeRecipient",
          "type": "address"
        },
        {
          "indexed": false,
          "internalType": "uint256",
          "name": "feeAmount",
          "type": "uint256"
        }
      ],
      "name": "PayoutProposed",
      "type": "event"
    },
    {
      "anonymous": false,
      "inputs": [
        {
          "indexed": true,
          "internalType": "uint256",
          "name": "escrowId",
          "type": "uint256"
        },
        {
          "indexed": true,
          "internalType": "address",
          "name": "requester",
          "type": "address"
        }
      ],
      "name": "RequestCancel",
      "type": "event"
    },
    {
      "anonymous": false,
      "inputs": [
        {
          "indexed": true,
          "internalType": "uint256",
          "name": "escrowId",
          "type": "uint256"
        },
        {
          "indexed": true,
          "internalType": "address",
          "name": "wallet",
          "type": "address"
        }
      ],
      "name": "WalletCreated",
      "type": "event"
    },
    {
      "inputs": [],
      "name": "DISPUTE_LONG_TIMEOUT",
      "outputs": [
        {
          "internalType": "uint256",
          "name": "",
          "type": "uint256"
        }
      ],
      "stateMutability": "view",
      "type": "function"
    },
    {
      "inputs": [],
      "name": "DISPUTE_SHORT_TIMEOUT",
      "outputs": [
        {
          "internalType": "uint256",
          "name": "",
          "type": "uint256"
        }
      ],
      "stateMutability": "view",
      "type": "function"
    },
    {
      "inputs": [],
      "name": "EMERGENCY_RECOVERY_DELAY",
      "outputs": [
        {
          "internalType": "uint256",
          "name": "",
          "type": "uint256"
        }
      ],
      "stateMutability": "view",
      "type": "function"
    },
    {
      "inputs": [],
      "name": "GRACE_PERIOD",
      "outputs": [
        {
          "internalType": "uint256",
          "name": "",
          "type": "uint256"
        }
      ],
      "stateMutability": "view",
      "type": "function"
    },
    {
      "inputs": [],
      "name": "TIMEOUT_BUFFER",
      "outputs": [
        {
          "internalType": "uint256",
          "name": "",
          "type": "uint256"
        }
      ],
      "stateMutability": "view",
      "type": "function"
    },
    {
      "inputs": [
        {
          "internalType": "uint256",
          "name": "escrowId",
          "type": "uint256"
        }
      ],
      "name": "cancelByTimeout",
      "outputs": [],
      "stateMutability": "nonpayable",
      "type": "function"
    },
    {
      "inputs": [
        {
          "internalType": "uint256",
          "name": "escrowId",
          "type": "uint256"
        },
        {
          "internalType": "string",
          "name": "ipfsHash",
          "type": "string"
        }
      ],
      "name": "confirmDelivery",
      "outputs": [],
      "stateMutability": "nonpayable",
      "type": "function"
    },
    {
      "inputs": [
        {
          "internalType": "uint256",
          "name": "escrowId",
          "type": "uint256"
        },
        {
          "internalType": "bytes",
          "name": "signature",
          "type": "bytes"
        },
        {
          "internalType": "uint256",
          "name": "deadline",
          "type": "uint256"
        },
        {
          "internalType": "uint256",
          "name": "nonce",
          "type": "uint256"
        },
        {
          "internalType": "string",
          "name": "ipfsHaesh",
          "type": "string"
        }
      ],
      "name": "confirmDeliverySigned",
      "outputs": [],
      "stateMutability": "nonpayable",
      "type": "function"
    },
    {
      "inputs": [],
      "name": "contractNonce",
      "outputs": [
        {
          "internalType": "uint256",
          "name": "",
          "type": "uint256"
        }
      ],
      "stateMutability": "view",
      "type": "function"
    },
    {
      "inputs": [
        {
          "internalType": "address",
          "name": "token",
          "type": "address"
        },
        {
          "internalType": "address",
          "name": "buyer",
          "type": "address"
        },
        {
          "internalType": "uint256",
          "name": "amount",
          "type": "uint256"
        },
        {
          "internalType": "uint256",
          "name": "maturityTimeDays",
          "type": "uint256"
        },
        {
          "internalType": "address",
          "name": "arbiter",
          "type": "address"
        },
        {
          "internalType": "string",
          "name": "title",
          "type": "string"
        },
        {
          "internalType": "string",
          "name": "ipfsHash",
          "type": "string"
        }
      ],
      "name": "createEscrow",
      "outputs": [
        {
          "internalType": "uint256",
          "name": "",
          "type": "uint256"
        }
      ],
      "stateMutability": "nonpayable",
      "type": "function"
    },
    {
      "inputs": [
        {
          "internalType": "address",
          "name": "token",
          "type": "address"
        },
        {
          "internalType": "address",
          "name": "seller",
          "type": "address"
        },
        {
          "internalType": "uint256",
          "name": "amount",
          "type": "uint256"
        },
        {
          "internalType": "uint256",
          "name": "maturityTimeDays",
          "type": "uint256"
        },
        {
          "internalType": "address",
          "name": "arbiter",
          "type": "address"
        },
        {
          "internalType": "string",
          "name": "title",
          "type": "string"
        },
        {
          "internalType": "string",
          "name": "ipfsHash",
          "type": "string"
        }
      ],
      "name": "createEscrowAndDeposit",
      "outputs": [
        {
          "internalType": "uint256",
          "name": "escrowId",
          "type": "uint256"
        }
      ],
      "stateMutability": "nonpayable",
      "type": "function"
    },
    {
      "inputs": [
        {
          "internalType": "uint256",
          "name": "escrowId",
          "type": "uint256"
        }
      ],
      "name": "deposit",
      "outputs": [],
      "stateMutability": "nonpayable",
      "type": "function"
    },
    {
      "inputs": [
        {
          "internalType": "uint256",
          "name": "",
          "type": "uint256"
        }
      ],
      "name": "disputeStatus",
      "outputs": [
        {
          "internalType": "uint256",
          "name": "",
          "type": "uint256"
        }
      ],
      "stateMutability": "view",
      "type": "function"
    },
    {
      "inputs": [
        {
          "internalType": "uint256",
          "name": "",
          "type": "uint256"
        }
      ],
      "name": "emergencyRecoveryInitiatedAt",
      "outputs": [
        {
          "internalType": "uint256",
          "name": "",
          "type": "uint256"
        }
      ],
      "stateMutability": "view",
      "type": "function"
    },
    {
      "inputs": [
        {
          "internalType": "uint256",
          "name": "escrowId",
          "type": "uint256"
        }
      ],
      "name": "executeEmergencyRecovery",
      "outputs": [],
      "stateMutability": "nonpayable",
      "type": "function"
    },
    {
      "inputs": [],
      "name": "feeReceiver",
      "outputs": [
        {
          "internalType": "address",
          "name": "",
          "type": "address"
        }
      ],
      "stateMutability": "view",
      "type": "function"
    },
    {
      "inputs": [
        {
          "internalType": "uint256",
          "name": "escrowId",
          "type": "uint256"
        }
      ],
      "name": "getEscrow",
      "outputs": [
        {
          "components": [
            {
              "internalType": "address",
              "name": "token",
              "type": "address"
            },
            {
              "internalType": "address",
              "name": "buyer",
              "type": "address"
            },
            {
              "internalType": "address",
              "name": "seller",
              "type": "address"
            },
            {
              "internalType": "address",
              "name": "arbiter",
              "type": "address"
            },
            {
              "internalType": "address",
              "name": "wallet",
              "type": "address"
            },
            {
              "internalType": "uint256",
              "name": "amount",
              "type": "uint256"
            },
            {
              "internalType": "uint256",
              "name": "depositTime",
              "type": "uint256"
            },
            {
              "internalType": "uint256",
              "name": "maturityTime",
              "type": "uint256"
            },
            {
              "internalType": "uint256",
              "name": "disputeStartTime",
              "type": "uint256"
            },
            {
              "internalType": "enum PalindromeCryptoEscrow.State",
              "name": "state",
              "type": "uint8"
            },
            {
              "internalType": "bool",
              "name": "buyerCancelRequested",
              "type": "bool"
            },
            {
              "internalType": "bool",
              "name": "sellerCancelRequested",
              "type": "bool"
            },
            {
              "internalType": "uint8",
              "name": "tokenDecimals",
              "type": "uint8"
            }
          ],
          "internalType": "struct PalindromeCryptoEscrow.EscrowDeal",
          "name": "",
          "type": "tuple"
        }
      ],
      "stateMutability": "view",
      "type": "function"
    },
    {
      "inputs": [
        {
          "internalType": "uint256",
          "name": "escrowId",
          "type": "uint256"
        },
        {
          "internalType": "address",
          "name": "signer",
          "type": "address"
        },
        {
          "internalType": "uint256",
          "name": "bucket",
          "type": "uint256"
        }
      ],
      "name": "getNonceBitmap",
      "outputs": [
        {
          "internalType": "uint256",
          "name": "",
          "type": "uint256"
        }
      ],
      "stateMutability": "view",
      "type": "function"
    },
    {
      "inputs": [
        {
          "internalType": "uint256",
          "name": "escrowId",
          "type": "uint256"
        }
      ],
      "name": "initiateEmergencyRecovery",
      "outputs": [],
      "stateMutability": "nonpayable",
      "type": "function"
    },
    {
      "inputs": [
        {
          "internalType": "uint256",
          "name": "escrowId",
          "type": "uint256"
        },
        {
          "internalType": "address",
          "name": "signer",
          "type": "address"
        },
        {
          "internalType": "uint256",
          "name": "nonce",
          "type": "uint256"
        }
      ],
      "name": "isNonceUsed",
      "outputs": [
        {
          "internalType": "bool",
          "name": "",
          "type": "bool"
        }
      ],
      "stateMutability": "view",
      "type": "function"
    },
    {
      "inputs": [],
      "name": "nextEscrowId",
      "outputs": [
        {
          "internalType": "uint256",
          "name": "",
          "type": "uint256"
        }
      ],
      "stateMutability": "view",
      "type": "function"
    },
    {
      "inputs": [
        {
          "internalType": "uint256",
          "name": "escrowId",
          "type": "uint256"
        }
      ],
      "name": "requestCancel",
      "outputs": [],
      "stateMutability": "nonpayable",
      "type": "function"
    },
    {
      "inputs": [
        {
          "internalType": "uint256",
          "name": "escrowId",
          "type": "uint256"
        },
        {
          "internalType": "bytes",
          "name": "signature",
          "type": "bytes"
        },
        {
          "internalType": "uint256",
          "name": "deadline",
          "type": "uint256"
        },
        {
          "internalType": "uint256",
          "name": "nonce",
          "type": "uint256"
        }
      ],
      "name": "requestCancelSigned",
      "outputs": [],
      "stateMutability": "nonpayable",
      "type": "function"
    },
    {
      "inputs": [
        {
          "internalType": "uint256",
          "name": "escrowId",
          "type": "uint256"
        }
      ],
      "name": "startDispute",
      "outputs": [],
      "stateMutability": "nonpayable",
      "type": "function"
    },
    {
      "inputs": [
        {
          "internalType": "uint256",
          "name": "escrowId",
          "type": "uint256"
        },
        {
          "internalType": "bytes",
          "name": "signature",
          "type": "bytes"
        },
        {
          "internalType": "uint256",
          "name": "deadline",
          "type": "uint256"
        },
        {
          "internalType": "uint256",
          "name": "nonce",
          "type": "uint256"
        }
      ],
      "name": "startDisputeSigned",
      "outputs": [],
      "stateMutability": "nonpayable",
      "type": "function"
    },
    {
      "inputs": [
        {
          "internalType": "uint256",
          "name": "escrowId",
          "type": "uint256"
        },
        {
          "internalType": "enum PalindromeCryptoEscrow.State",
          "name": "resolution",
          "type": "uint8"
        },
        {
          "internalType": "string",
          "name": "ipfsHash",
          "type": "string"
        }
      ],
      "name": "submitArbiterDecision",
      "outputs": [],
      "stateMutability": "nonpayable",
      "type": "function"
    },
    {
      "inputs": [
        {
          "internalType": "uint256",
          "name": "escrowId",
          "type": "uint256"
        },
        {
          "internalType": "enum PalindromeCryptoEscrow.Role",
          "name": "role",
          "type": "uint8"
        },
        {
          "internalType": "string",
          "name": "ipfsHash",
          "type": "string"
        }
      ],
      "name": "submitDisputeMessage",
      "outputs": [],
      "stateMutability": "nonpayable",
      "type": "function"
    }
  ],
  "bytecode": "0x60e080604052346101a157602081615107803803809161001f82856101a5565b8339810103126101a157516001600160a01b0381168082036101a15760015f551561016f5760c0524660a0526040516100596040826101a5565b601681527f50616c696e64726f6d6543727970746f457363726f7700000000000000000000602090910152604080517f214be339dbd101005f8c34eca4dc81d275788130af1987d8fb35ea9c0a925bfa916100b490826101a5565b600181526020810190603160f81b82525190206040519060208201927f8b73c3c69bb8fe3d512ecc4cf759cc79239f7b179b0ffacaa9a75d522b39400f8452604083015260608201524660808201523060a082015260a0815261011860c0826101a5565b5190206080525f600255604051614f2a90816101dd823960805181612e7f015260a05181612e59015260c05181818161065a01528181610c7901528181610ed801528181611b21015281816131a301526132700152f35b60405162461bcd60e51b815260206004820152600a602482015269466565546f207a65726f60b01b6044820152606490fd5b5f80fd5b601f909101601f19168101906001600160401b038211908210176101c857604052565b634e487b7160e01b5f52604160045260245ffdfe60806040526004361015610011575f80fd5b5f3560e01c806306075a151461244f57806310f169e8146124255780631452483b1461240857806333bbe7e2146120a257806335ef2c6b146120585780633c33bcba1461202e5780634186928c14612012578063471873c214611ff557806349d71f0514611fd8578063584e40fa14611fbb5780636232ef6014611d23578063769a68e31461185a5780637d19e5961461167657806389cb29dd14611659578063925f7f99146113a25780639bbfca9e146111e35780639dede53c146111a25780639f0f7a2214610dcc578063b211838814610ca8578063b3f0067414610c64578063b6b55f2514610b5d578063be5c085114610a04578063c0cfa7e514610941578063c1a287e214610925578063c761423d14610560578063da183b02146102fa5763e683a2d414610142575f80fd5b346102f65760203660031901126102f65760043561015e612e02565b805f52600360205260405f2060018060a01b0360018201541633141590816102de575b506102cf57805f52600360205260405f206009810190815460ff811660068110156102bb5760016101b29114612dbe565b600182019060018060a01b0382541633145f146102a95750825461ff0019166101001783555b33847f88a867d5d9b489598a3f5e5c8d5c1da163ed116737b70444bac744920904a5735f80a382549060ff8260081c168061029c575b610219575b60015f55005b845f516020614ed55f395f51905f52604060ff61024a610261966005998a841982541617905583519283911661275a565b876020820152a2546001600160a01b03168461313e565b50500154906040519182527feb8b5b87fbea5b732b8f4fd82b65d9afef713c799d98da83090f22c45577998d60203393a35f80808080610213565b5060ff8260101c1661020e565b62ff00001916620100001783556101d8565b634e487b7160e01b5f52602160045260245ffd5b631cfe2f0560e11b5f5260045ffd5b600201546001600160a01b031633141590505f610181565b5f80fd5b346102f65760203660031901126102f657600435610316612e02565b5f818152600360205260409020600101546001600160a01b0316330361055157805f52600360205260405f20600981019081549160ff83169260068410156102bb5761036460018514612dbe565b600883015461051b5760ff8160081c16156104e15760101c60ff166104a757600682015415610475576007820154615460810180911161046157421115610426575f516020614ed55f395f51905f52604060059486938660ff198254161790556103d08251809261275a565b856020820152a260018101546103ef906001600160a01b03168461313e565b50500154906040519182527feb8b5b87fbea5b732b8f4fd82b65d9afef713c799d98da83090f22c45577998d60203393a360015f55005b60405162461bcd60e51b8152602060048201526013602482015272477261636520706572696f642061637469766560681b6044820152606490fd5b634e487b7160e01b5f52601160045260245ffd5b60405162461bcd60e51b815260206004820152600a602482015269139bc819195c1bdcda5d60b21b6044820152606490fd5b60405162461bcd60e51b81526020600482015260126024820152714d757475616c2063616e63656c20646f6e6560701b6044820152606490fd5b60405162461bcd60e51b8152602060048201526012602482015271135d5cdd081c995c5d595cdd08199a5c9cdd60721b6044820152606490fd5b60405162461bcd60e51b815260206004820152600e60248201526d446973707574652061637469766560901b6044820152606490fd5b6386efbb5560e01b5f5260045ffd5b346102f65761056e36612767565b9061057d83859a94989a613319565b61058782826132b5565b61059b6001600160a01b0384161515612a12565b6001600160a01b038816966105b1881515612a4b565b6105bd33891415612a84565b6105c88a1515612ac4565b6105d5610e438810612afe565b6105de84613374565b946105f36105eb8761348a565b8c1015612b3e565b6001549a6106008c612b7d565b6001556001600160a01b0388169a338c14158061091b575b61062190612b8b565b61062b88836134c2565b91604051926115e992838501928584106001600160401b03851117610907578d610681948d9288976138cc89397f0000000000000000000000000000000000000000000000000000000000000000933392612bc9565b03905ff080156108be57610697813f1515612c14565b6001600160a01b0316966106ac881515612c56565b6040516317aa5fb760e11b8152600481018c90526020816024818c5afa80156108be576106e0915f916108e8575b50612cb3565b6040516317aa5fb760e11b81523360048201526020816024818c5afa80156108be57610713915f916108c9575b50612cf1565b6040516317aa5fb760e11b8152600481018d90526020816024818c5afa80156108be57610747915f9161088f575b50612d30565b8c5f52600360205260405f209b60018060a01b0388168d6001600160601b0360a01b905416178d5560018d018c6001600160601b0360a01b82541617905560028d0160018060a01b0333166001600160601b0360a01b82541617905560038d01906001600160601b0360a01b82541617905560048c0160018060a01b0389166001600160601b0360a01b8254161790558160058d0155620151808a0299808b04620151801490151715610461578c9961080090426127fc565b60078d019081556009909c01805463ff0000ff191660189290921b63ff000000169190911790556040519788978a7f470292d5e9c87e6d5a100a14c56a434c9f25e9e2be1d5efa70c3b5f9aeda505f5f80a3339b54916108609789612d70565b037fd3e0574cb952cf8d88c9c2b97882e6000237da1d62a64753eaddaf4d9ce7351b91a4604051908152602090f35b6108b1915060203d6020116108b7575b6108a981836128a0565b810190612c9b565b8f610741565b503d61089f565b6040513d5f823e3d90fd5b6108e2915060203d6020116108b7576108a981836128a0565b8f61070d565b610901915060203d6020116108b7576108a981836128a0565b8f6106da565b634e487b7160e01b5f52604160045260245ffd5b508b8b1415610618565b346102f6575f3660031901126102f65760206040516154608152f35b346102f65760203660031901126102f65760043561095d612e02565b805f52600360205260405f2060018060a01b0360018201541633141590816109ec575b506102cf57805f52600360205260405f206009810160ff81541660068110156102bb5760016109af9114612dbe565b600260ff1982541617905560084291015533907fd658effe7cf013e5a508b3f1a373b92566494d8b6a7c2970fc964932de1c4dab5f80a360015f55005b600201546001600160a01b0316331415905082610980565b346102f65760203660031901126102f657600435610a20612e02565b805f52600360205260405f2090805f52600760205260405f20548015610b285762278d008101809111610461574210610ae3576009820160ff81541660068110156102bb57806001610a7b9214908115610ad8575b50612848565b805460ff1916600417905560018201546001600160a01b0316917f9e62953cca5b6ea7f1cb59d2cf8896053f5cd2e512f31178ad22188ed380d37990602090600590610ac7868661313e565b50500154604051908152a360015f55005b600291501485610a75565b60405162461bcd60e51b815260206004820152601960248201527f5265636f766572792064656c6179206e6f7420706173736564000000000000006044820152606490fd5b60405162461bcd60e51b815260206004820152600d60248201526c139bdd081a5b9a5d1a585d1959609a1b6044820152606490fd5b346102f65760203660031901126102f657600435610b79612e02565b5f818152600360205260409020600101546001600160a01b0316330361055157805f52600360205260405f206009810160ff81541660068110156102bb57610c285781546004830154600584018054909492610be3926001600160a01b0390811691339116613522565b600642910155600160ff1982541617905554906040519182527f71284872bb4c088a81295dff2513729babbccfeda38a8d824bb1a73bcaab494e60203393a360015f55005b60405162461bcd60e51b8152602060048201526014602482015273139bdd08185dd85a5d1a5b99c81c185e5b595b9d60621b6044820152606490fd5b346102f6575f3660031901126102f6576040517f00000000000000000000000000000000000000000000000000000000000000006001600160a01b03168152602090f35b346102f65760403660031901126102f6576004356024356001600160401b0381116102f657610cdb9036906004016126c8565b9091610ce5612e02565b5f818152600360205260409020600101546001600160a01b0316330361055157805f52600360205260405f2091600983019060ff8254169160068310156102bb575f516020614ed55f395f51905f526040848693610d6660017f0298917f100869a28a40e5be38ea1576557876b34d29d20af11bd34fe53b2ef99814612dbe565b600360ff19825416179055610d7d8251809261275a565b60036020820152a260028401546001600160a01b031694610dc3610da187866131db565b939050600560018060a01b0360018901541697015492604051948594856129f3565b0390a460015f55005b346102f657610dda36612767565b91928697989695949193610dec612e02565b610df68183613319565b610e0084866132b5565b6001600160a01b03881695610e16871515612a12565b6001600160a01b038b1693610e2c851515612a4b565b610e3833861415612a84565b610e43891515612ac4565b610e50610e438310612afe565b610e598a613374565b99610e638b61348a565b8a1015610e6f90612b3e565b6001549c610e7c8e612b7d565b600155868c600160a01b6001900385169c8d33811415610eac94610ea79282611195575b5050612b8b565b6134c2565b91604051926115e9928385018581106001600160401b038211176109075787610f009487966138cc88397f000000000000000000000000000000000000000000000000000000000000000092893391612bc9565b03905ff080156108be57610f16813f1515612c14565b6001600160a01b031696610f2b881515612c56565b6040516317aa5fb760e11b81523360048201526020816024818c5afa80156108be57610f5d915f916111765750612cb3565b6040516317aa5fb760e11b8152600481018890526020816024818c5afa80156108be57610f90915f916111575750612cf1565b6040516317aa5fb760e11b8152600481018c90526020816024818c5afa80156108be57610fc3915f916111385750612d30565b5f8e815260036020819052604090912080546001600160a01b03199081168d17825560018201805482163317905560028201805482168b17905591810180548316909d17909c5560048c0180549091166001600160a01b038a1617905560058b018d9055620151808481029480159086049091141715610461578c988e958a9561104d90426127fc565b978d60078101998a556009019e8f9060ff198254168255611082919063ff00000082549160181b169063ff0000001916179055565b6040519687968c8a7f470292d5e9c87e6d5a100a14c56a434c9f25e9e2be1d5efa70c3b5f9aeda505f5f80a3339a54916110bc9789612d70565b037fd3e0574cb952cf8d88c9c2b97882e6000237da1d62a64753eaddaf4d9ce7351b91a4336110ea93613522565b42906006015560ff19815416600117905560405190815281339160207f71284872bb4c088a81295dff2513729babbccfeda38a8d824bb1a73bcaab494e91a360015f55604051908152602090f35b611151915060203d6020116108b7576108a981836128a0565b5f610741565b611170915060203d6020116108b7576108a981836128a0565b5f61070d565b61118f915060203d6020116108b7576108a981836128a0565b5f6106da565b90915014158f8c90610ea0565b346102f6576111b036612730565b915f52600860205260405f209060018060a01b03165f5260205260405f20905f52602052602060405f2054604051908152f35b346102f65760203660031901126102f6576004356111ff612e02565b805f52600360205260405f2060018060a01b03600182015416331415908161138a575b506102cf57805f52600360205260405f2060ff60098201541660068110156102bb576001811490811561137f575b501561133a57600701546276a7008101809111610461574211156112f657805f52600760205260405f20546112bd57805f5260076020524260405f20557f8d5c7e29b9eef125ac402bcf39a5617ef2adff0089796846a05a81eb8bacf4cc6020604051428152a260015f55005b60405162461bcd60e51b8152602060048201526011602482015270105b1c9958591e481a5b9a5d1a585d1959607a1b6044820152606490fd5b606460405162461bcd60e51b815260206004820152602060248201527f546f6f206561726c7920666f7220656d657267656e6379207265636f766572796044820152fd5b60405162461bcd60e51b815260206004820152601a60248201527f496e76616c696420737461746520666f72207265636f766572790000000000006044820152606490fd5b600291501483611250565b600201546001600160a01b0316331415905082611222565b346102f65760a03660031901126102f6576004356024356001600160401b0381116102f6576113d59036906004016126c8565b916044356084356001600160401b0381116102f6576113f89036906004016126c8565b949091611403612e02565b42811180611644575b61141590612809565b835f52600360205260405f20946009860160ff8154169160068310156102bb57600187931461144390612848565b6001880194600160a01b6001900386541660028a0195600160a01b60019003875416908b600160a01b6001900360038201541691600160a01b60019003825416916005019d8e54906006015490600254936040519560208701977fcd3d4500102f181df7b850795f5eb99deb2ac79e384b172fc8267023944b579089528d6040890152896060890152608088015260a087015260c086015260e0850152610100840152610120830152606435610140830152610160820152610160815261150c610180826128a0565b519020611517612e56565b60405161190160f01b602082019081526022820192909252604280820193909352918252906115476062826128a0565b5190206115553684866128dc565b61155e91613671565b611567906136a2565b6001600160a01b031661157b811515612912565b1461158590612951565b61158f9184612f44565b83546115a890606435906001600160a01b031684613048565b8054600360ff19821617909155604051906115c790829060ff1661275a565b602081016003905260405f516020614ed55f395f51905f5291a2546001600160a01b0316946115f686856131db565b925495546040516001600160a01b039097169694859461161a9493509091856129f3565b037f0298917f100869a28a40e5be38ea1576557876b34d29d20af11bd34fe53b2ef991a460015f55005b5062015180420180421161046157811061140c565b346102f6575f3660031901126102f6576020600154604051908152f35b346102f65760203660031901126102f6575f61018060405161169781612884565b8281528260208201528260408201528260608201528260808201528260a08201528260c08201528260e08201528261010082015282610120820152826101408201528261016082015201526004355f52600360205260405f20604051906116fd82612884565b80546001600160a01b039081168352600182015481166020840190815260028301548216604085019081526003840154831660608601908152600485015490931660808601908152600585015460a0870190815260068087015460c08901908152600788015460e08a0190815260088901546101008b0190815260099099015498969795966101208b019690959194929360ff8b16908110156102bb57875260ff60088b901c811615156101408d0190815260108c901c821615156101608e0190815260189c909c1c9091166101808d01908152604080519d516001600160a01b039081168f529b518c1660208f015299518b16998d01999099529051891660608c0152905190971660808a01525160a08901525160c08801525160e08701525161010086015251909291906118389061012086019061275a565b5115156101408401525115156101608301525160ff166101808201526101a090f35b346102f65760603660031901126102f657600435602435600681109081156102f6576044356001600160401b0381116102f65761189b9036906004016126c8565b91906118a5612e02565b5f85815260036020819052604090912001546001600160a01b03163303611d1457845f52600360205260405f20926009840160ff81541660068110156102bb5760026118f19114612848565b5f926003851496878015611d07575b15611ccd57885f52600460205260405f20805460ff81168080611cbe575b8015611cb1575b60088b01549062093a808201918281116104615762278d008101908181116104615762279b1001809111610461578115611ca7575b5015611c62578115611c58575b5015611c13578a5f52600660205260ff60405f205416611bdc5762ff00001916620100001790555f898152600660205260409020805460ff19166001179055825460ff1690156102bb578893847f4e71d2a3ce09c95d708a8bc888cb8838c8419bea1f25f6d07f2c601b173f720e611a1a6040955f516020614ed55f395f51905f529760ff1981541660ff8d16179055835f5260046020525f8781205586519460038652876020870152878601916129d3565b928033940390a3611a2d8251809261275a565b611a3a602082018761275a565ba26102bb578215611bc85760028201546001600160a01b0316925b845f52600360205260405f208560ff600983015460181c16600281115f14611bbe57611a83611a88916130c1565b6130d4565b9215611b7a5750600501549060648202938285046064148315171561046157865f516020614eb55f395f51905f5260807ffc4c84ff0bf9d937dea068e6c13c3a16c307d76a1c5b5173c40f03f68f421e0098611b05600596612710849b0490808210155f14611b7357505b8098611b008183106130e5565b613131565b6040519160018060a01b03168252602082015260018060a01b037f0000000000000000000000000000000000000000000000000000000000000000166040820152866060820152a20154611b5c604051809461275a565b33602084015260408301526060820152a260015f55005b9050611af3565b6005919250936080945f516020614eb55f395f51905f52867ffc4c84ff0bf9d937dea068e6c13c3a16c307d76a1c5b5173c40f03f68f421e0098855f970154611b05565b50611a885f6130d4565b60018201546001600160a01b031692611a55565b60405162461bcd60e51b815260206004820152600f60248201526e105b1c9958591e48191958da591959608a1b6044820152606490fd5b60405162461bcd60e51b815260206004820152601d60248201527f4e6565642066756c6c2065766964656e6365206f722074696d656f75740000006044820152606490fd5b905042118c611967565b60405162461bcd60e51b815260206004820152601860248201527f4e6565642065766964656e6365206f722074696d656f757400000000000000006044820152606490fd5b905042118e61195a565b5060ff8260081c16611925565b905060ff8260081c169061191e565b60405162461bcd60e51b815260206004820152601260248201527124b73b30b634b2103932b9b7b63aba34b7b760711b6044820152606490fd5b505f945060048614611900565b6372cc71e760e11b5f5260045ffd5b346102f65760603660031901126102f65760043560243590600482109182156102f6576044356001600160401b0381116102f657611d659036906004016126c8565b9190611d6f612e02565b835f52600360205260405f2060018060a01b036001820154163314159081611fa3575b81611f8b575b50611f7c57835f52600360205260405f2060ff60098201541660068110156102bb57600203611f4857611dcb84836132b5565b845f52600460205260405f2090855f52600960205260405f205490600185145f14611eb957600101546001600160a01b03163303611e8757816001809354611e1660ff821615612993565b60ff1916179055611e2981831615612993565b175b845f52600960205260405f205560405194156102bb577f4e71d2a3ce09c95d708a8bc888cb8838c8419bea1f25f6d07f2c601b173f720e92611e7a9286526040602087015260408601916129d3565b928033940390a360015f55005b60405162461bcd60e51b815260206004820152600a60248201526927b7363c90313abcb2b960b11b6044820152606490fd5b60028503611f3957600201546001600160a01b03163303611f06578161010060029354611eec60ff8260081c1615612993565b61ff001916179055611f0081831615612993565b17611e2b565b60405162461bcd60e51b815260206004820152600b60248201526a27b7363c9039b2b63632b960a91b6044820152606490fd5b63421b511560e11b5f5260045ffd5b60405162461bcd60e51b815260206004820152600c60248201526b139bdd08191a5cdc1d5d195960a21b6044820152606490fd5b63721c7c6760e11b5f5260045ffd5b600301546001600160a01b0316331415905086611d98565b60028101546001600160a01b03163314159150611d92565b346102f6575f3660031901126102f657602060405162093a808152f35b346102f6575f3660031901126102f6576020600254604051908152f35b346102f6575f3660031901126102f65760206040516276a7008152f35b346102f6575f3660031901126102f6576020604051610e108152f35b346102f65760203660031901126102f6576004355f526007602052602060405f2054604051908152f35b346102f657602061206836612730565b915f526008835260405f209060018060a01b03165f52825260405f208160081c5f52825260405f2054600160ff60405193161b1615158152f35b346102f6576120b0366126f5565b91906120bd949394612e02565b835f52600360205260405f2060018060a01b0360018201541633141590816123f0575b506102cf57428111806123db575b6120f790612809565b835f52600360205260405f2090600982019360ff85541660068110156102bb5760011461212390612848565b6001830193600160a01b600190038554169087600160a01b6001900360028701541694600160a01b6001900360038801541690600160a01b600190038854169060058901988954906006015490600254936040519560208701977fc85c923ea5d212cb7b5ff010886d6e17824bdb3b3bf33c1209c35abf78535a3a895260408801528960608801528b608088015260a087015260c086015260e08501526101008401526101208301528561014083015261016082015261016081526121ea610180826128a0565b5190206121f5612e56565b60405161190160f01b602082019081526022820192909252604280820193909352918252906122256062826128a0565b51902061223336838c6128dc565b61223c91613671565b612245906136a2565b6001600160a01b03169861225a8a1515612912565b828a148061228a966122839561227d936123d1575b5081156123b5575b50612951565b88612f44565b3386613048565b825460ff8160081c1690816123a6575b83546001600160a01b031687036123945750835461ff0019166101001784555b85857f88a867d5d9b489598a3f5e5c8d5c1da163ed116737b70444bac744920904a5735f80a31580612386575b80612378575b6122f75760015f55005b612364602092855f516020614ed55f395f51905f5260408760ff7feb8b5b87fbea5b732b8f4fd82b65d9afef713c799d98da83090f22c45577998d99541690600560ff1982541617905561234d8251809261275a565b600588820152a2546001600160a01b03168561313e565b505054604051908152a38080808080610213565b5060ff835460101c166122ed565b5060ff835460081c166122e7565b62ff00001916620100001784556122ba565b905060ff8160101c169061229a565b8c81149150816123c7575b508c612277565b905033148c6123c0565b331491508d61226f565b506201518042018042116104615781106120ee565b600201546001600160a01b03163314159050866120e0565b346102f6575f3660031901126102f657602060405162278d008152f35b346102f65760203660031901126102f6576004355f526009602052602060405f2054604051908152f35b346102f65761245d366126f5565b939291612468612e02565b835f52600360205260405f2060018060a01b0360018201541633141590816126b0575b506102cf574282118061269b575b6124a290612809565b835f52600360205260405f2094600986019260ff8454169260068410156102bb57879561262d612633936124db600161263a9814612848565b6126016125f98b60018060a01b0360018d015416938c600260018060a01b03910154169e8f9160018060a01b036003830154169160018060a01b03815416906006600582015491015491600254946040519660208801987f2343da878873647f02b323ece2672886ff82db9da888b7783437579429b592bd8a5260408901528b6060890152608088015260a087015260c086015260e08501526101008401526101208301528a610140830152610160820152610160815261259e610180826128a0565b5190206125d76125e56125af612e56565b92604051928391602083019586909160429261190160f01b8352600283015260228201520190565b03601f1981018352826128a0565b5190206125f33688886128dc565b90613671565b9190916136a2565b6001600160a01b03169a6126168c1515612912565b818c149182612691575b5081156126755750612951565b87612f44565b3385613048565b600260ff198254161790556008429101557fd658effe7cf013e5a508b3f1a373b92566494d8b6a7c2970fc964932de1c4dab5f80a360015f55005b8b8114915081612687575b508b612277565b905033148b612680565b331491508c612620565b50620151804201804211610461578210612499565b600201546001600160a01b031633141590508661248b565b9181601f840112156102f6578235916001600160401b0383116102f657602083818601950101116102f657565b9060806003198301126102f65760043591602435906001600160401b0382116102f657612724916004016126c8565b90916044359060643590565b60609060031901126102f657600435906024356001600160a01b03811681036102f6579060443590565b9060068210156102bb5752565b9060e06003198301126102f6576004356001600160a01b03811681036102f657916024356001600160a01b03811681036102f6579160443591606435916084356001600160a01b03811681036102f6579160a4356001600160401b0381116102f657816127d6916004016126c8565b9290929160c435906001600160401b0382116102f6576127f8916004016126c8565b9091565b9190820180921161046157565b1561281057565b60405162461bcd60e51b815260206004820152601060248201526f496e76616c696420646561646c696e6560801b6044820152606490fd5b1561284f57565b60405162461bcd60e51b815260206004820152600d60248201526c496e76616c696420737461746560981b6044820152606490fd5b6101a081019081106001600160401b0382111761090757604052565b90601f801991011681019081106001600160401b0382111761090757604052565b6001600160401b03811161090757601f01601f191660200190565b9291926128e8826128c1565b916128f660405193846128a0565b8294818452818301116102f6578281602093845f960137010152565b1561291957565b60405162461bcd60e51b815260206004820152601060248201526f496e76616c6964207265636f7665727960801b6044820152606490fd5b1561295857565b60405162461bcd60e51b81526020600482015260136024820152722ab730baba3437b934bd32b21039b4b3b732b960691b6044820152606490fd5b1561299a57565b60405162461bcd60e51b8152602060048201526011602482015270105b1c9958591e481cdd589b5a5d1d1959607a1b6044820152606490fd5b908060209392818452848401375f828201840152601f01601f1916010190565b612a0f94926060928252602082015281604082015201916129d3565b90565b15612a1957565b60405162461bcd60e51b815260206004820152600a602482015269546f6b656e207a65726f60b01b6044820152606490fd5b15612a5257565b60405162461bcd60e51b815260206004820152600a6024820152694275796572207a65726f60b01b6044820152606490fd5b15612a8b57565b60405162461bcd60e51b815260206004820152601160248201527042757965722073656c6c65722073616d6560781b6044820152606490fd5b15612acb57565b60405162461bcd60e51b815260206004820152600b60248201526a416d6f756e74207a65726f60a81b6044820152606490fd5b15612b0557565b60405162461bcd60e51b81526020600482015260116024820152704d6174757269747920746f6f206c6f6e6760781b6044820152606490fd5b15612b4557565b60405162461bcd60e51b815260206004820152601060248201526f105b5bdd5b9d081d1bdbc81cdb585b1b60821b6044820152606490fd5b5f1981146104615760010190565b15612b9257565b60405162461bcd60e51b815260206004820152600f60248201526e24b73b30b634b21030b93134ba32b960891b6044820152606490fd5b6001600160a01b039182168152918116602083015291821660408201529181166060830152909116608082015260a081019190915260c0810191909152600260e08201526101000190565b15612c1b57565b60405162461bcd60e51b815260206004820152601360248201527257616c6c657420636f6465206d697373696e6760681b6044820152606490fd5b15612c5d57565b60405162461bcd60e51b815260206004820152601660248201527515d85b1b195d0818dc99585d1a5bdb8819985a5b195960521b6044820152606490fd5b908160209103126102f6575180151581036102f65790565b15612cba57565b60405162461bcd60e51b815260206004820152600f60248201526e213abcb2b9103737ba1037bbb732b960891b6044820152606490fd5b15612cf857565b60405162461bcd60e51b815260206004820152601060248201526f29b2b63632b9103737ba1037bbb732b960811b6044820152606490fd5b15612d3757565b60405162461bcd60e51b815260206004820152601160248201527020b93134ba32b9103737ba1037bbb732b960791b6044820152606490fd5b969492612a0f989692612db0959260018060a01b03168952602089015260018060a01b03166040880152606087015260c0608087015260c08601916129d3565b9260a08185039101526129d3565b15612dc557565b60405162461bcd60e51b81526020600482015260156024820152744e6f74206177616974696e672064656c697665727960581b6044820152606490fd5b60025f5414612e115760025f55565b60405162461bcd60e51b815260206004820152601f60248201527f5265656e7472616e637947756172643a207265656e7472616e742063616c6c006044820152606490fd5b467f000000000000000000000000000000000000000000000000000000000000000003612ea1577f000000000000000000000000000000000000000000000000000000000000000090565b6040601660208251612eb384826128a0565b828152017550616c696e64726f6d6543727970746f457363726f7760501b815220600160208351612ee485826128a0565b82815201603160f81b81522082519160208301937f8b73c3c69bb8fe3d512ecc4cf759cc79239f7b179b0ffacaa9a75d522b39400f855283015260608201524660808201523060a082015260a08152612f3e60c0826128a0565b51902090565b909160410361303957602082013560408301355f1a6fa2a8918ca85bafe22016d0b997e4df60600160ff1b03821161302a57601b811415908161301e575b5061300f57612f8f612e56565b926002549260405193602085019586526040850152606084015235608083015260a082015260a08152612fc360c0826128a0565b519020805f52600560205260ff60405f205416613000575f52600560205260405f20600160ff19825416179055612ffb600254612b7d565b600255565b63900bb2c960e01b5f5260045ffd5b6307839aef60e21b5f5260045ffd5b601c915014155f612f82565b6354b34b0360e01b5f5260045ffd5b6354f3472360e01b5f5260045ffd5b91908160081c90835f52600860205260405f2060018060a01b0382165f5260205260405f20825f52602052600160ff60405f205494161b938484166130b2575f52600860205260405f209060018060a01b03165f5260205260405f20905f526020521760405f2055565b633ab3447f60e11b5f5260045ffd5b60ff6001199116019060ff821161046157565b60ff16604d811161046157600a0a90565b156130ec57565b60405162461bcd60e51b815260206004820152601860248201527f416d6f756e7420746f6f20736d616c6c20666f722066656500000000000000006044820152606490fd5b9190820391821161046157565b9091815f52600360205260405f209160ff600984015460181c16600281115f146131d157611a8361316e916130c1565b505f516020614eb55f395f51905f52608060055f950154956040519060018060a01b0316815286602082015260018060a01b037f00000000000000000000000000000000000000000000000000000000000000001660408201525f6060820152a2565b5061316e5f6130d4565b9091815f52600360205260405f209160ff600984015460181c16600281115f146132a95761320d611a836005926130c1565b930154926064840284810460641485151715610461575f516020614eb55f395f51905f52916080916127109004908082106132a15750955b613256878097611b008183106130e5565b604080516001600160a01b039384168152602081018390527f0000000000000000000000000000000000000000000000000000000000000000909316908301526060820197909752a2565b905095613245565b50600561320d5f6130d4565b50801515908161330d575b50156132c857565b60405162461bcd60e51b815260206004820152601860248201527f496e76616c696420495046532068617368206c656e67746800000000000000006044820152606490fd5b6064915011155f6132c0565b508015159081613368575b501561332c57565b60405162461bcd60e51b8152602060048201526014602482015273092dcecc2d8d2c840e8d2e8d8ca40d8cadccee8d60631b6044820152606490fd5b6064915011155f613324565b60405163313ce56760e01b815290602090829060049082906001600160a01b0316617530fa5f918161344c575b506133eb5760405162461bcd60e51b815260206004820152601f60248201527f546f6b656e206d75737420696d706c656d656e7420646563696d616c732829006044820152606490fd5b60ff811660068110159081613440575b50156134045790565b60405162461bcd60e51b8152602060048201526014602482015273556e737570706f7274656420646563696d616c7360601b6044820152606490fd5b6012915011155f6133fb565b9091506020813d602011613482575b81613468602093836128a0565b810103126102f6575160ff811681036102f657905f6133a1565b3d915061345b565b600260ff821611156134b857611a836134a2916130c1565b6064810290808204606414901517156104615790565b506134a25f6130d4565b90600260ff8216111561351857611a836134db916130c1565b6064820290828204606414831517156104615761350e9161271090049080821061351157505b8092611b008183106130e5565b91565b9050613501565b506134db5f6130d4565b6040516323b872dd60e01b602082019081526001600160a01b0393841660248301529290931660448401526064808401949094529282526135e1925f90819061356c6084866128a0565b60018060a01b031692604051946135846040876128a0565b602086527f5361666545524332303a206c6f772d6c6576656c2063616c6c206661696c65646020870152519082855af13d15613669573d916135c5836128c1565b926135d360405194856128a0565b83523d5f602085013e613817565b805190811591821561364f575b5050156135f757565b60405162461bcd60e51b815260206004820152602a60248201527f5361666545524332303a204552433230206f7065726174696f6e20646964206e6044820152691bdd081cdd58d8d9595960b21b6064820152608490fd5b6136629250602080918301019101612c9b565b5f806135ee565b606091613817565b9060418151145f14613699576127f891602082015190606060408401519301515f1a906137a6565b50505f90600290565b60058110156102bb57806136b35750565b600181036137005760405162461bcd60e51b815260206004820152601860248201527f45434453413a20696e76616c6964207369676e617475726500000000000000006044820152606490fd5b6002810361374d5760405162461bcd60e51b815260206004820152601f60248201527f45434453413a20696e76616c6964207369676e6174757265206c656e677468006044820152606490fd5b60031461375657565b60405162461bcd60e51b815260206004820152602260248201527f45434453413a20696e76616c6964207369676e6174757265202773272076616c604482015261756560f01b6064820152608490fd5b6fa2a8918ca85bafe22016d0b997e4df60600160ff1b03841161380c576020935f9360ff60809460405194855216868401526040830152606082015282805260015afa156108be575f516001600160a01b0381161561380457905f90565b505f90600190565b505050505f90600390565b91929015613879575081511561382b575090565b3b156138345790565b60405162461bcd60e51b815260206004820152601d60248201527f416464726573733a2063616c6c20746f206e6f6e2d636f6e74726163740000006044820152606490fd5b82519091501561388c5750805190602001fd5b604460209160405192839162461bcd60e51b83528160048401528051918291826024860152018484015e5f828201840152601f01601f19168101030190fdfe6101a0806040523461036f57610100816115e980380380916100218285610373565b83398101031261036f57610034816103aa565b90610041602082016103aa565b61004d604083016103aa565b610059606084016103aa565b610065608085016103aa565b9160a08501519360e060c08701519601519660ff881680890361036f576001600160a01b03831615158061035d575b8061034b575b15610317576002036102d2576101405260805260a05260c05260e0526101005261012052610160526040516100d0604082610373565b601681527f50616c696e64726f6d65457363726f7757616c6c657400000000000000000000602090910152604080517fd5841ac2316671d82a0b6316f3b37c25b9263de2e5c9e54cefc98911e9c1f8df9161012b9082610373565b600181526020810190603160f81b82525190206040519060208201927f8b73c3c69bb8fe3d512ecc4cf759cc79239f7b179b0ffacaa9a75d522b39400f8452604083015260608201524660808201523060a082015260a0815261018f60c082610373565b5190206101805260405161122a90816103bf823960805181818161017c0152818161056c01528181610c110152610ce5015260a0518181816101b20152818161059101528181610d560152610d9c015260c05181818160b5015281816101eb015281816105b90152610d23015260e0518181816102f8015281816104b00152818161088f015281816109500152610ddd01526101005181818161028e01528181610327015281816103780152818161039b015281816103c10152818161086901526109a801526101205181818161035701528181610825015281816108b90152818161092f01528181610b0a01528181610b6e0152610c5701526101405181818160fd015281816104080152818161047e015281816108df0152818161097101526109ca0152610160518181816107ea0152610c93015261018051816105040152f35b60405162461bcd60e51b815260206004820152601360248201527f5468726573686f6c64206d7573742062652032000000000000000000000000006044820152606490fd5b60405162461bcd60e51b815260206004820152600c60248201526b5a65726f206164647265737360a01b6044820152606490fd5b506001600160a01b038516151561009a565b506001600160a01b0384161515610094565b5f80fd5b601f909101601f19168101906001600160401b0382119082101761039657604052565b634e487b7160e01b5f52604160045260245ffd5b51906001600160a01b038216820361036f5756fe6080806040526004361015610012575f80fd5b5f3560e01c908163017e7e5814610dcb5750806308551a5314610d875780632f54bf6e14610cb757806342cde4e814610c7a57806369e1540414610c405780637150d8ae14610bfc5780637652a7c1146102b15780637c16073c14610277578063a0e67e2b14610148578063affed0e01461012c578063fc0c546a146100e85763fe25e00a146100a0575f80fd5b346100e4575f3660031901126100e4576040517f00000000000000000000000000000000000000000000000000000000000000006001600160a01b03168152602090f35b5f80fd5b346100e4575f3660031901126100e4576040517f00000000000000000000000000000000000000000000000000000000000000006001600160a01b03168152602090f35b346100e4575f3660031901126100e45760205f54604051908152f35b346100e4575f3660031901126100e457604051610166608082610e22565b60038152602081016060368237815115610263577f00000000000000000000000000000000000000000000000000000000000000006001600160a01b03168152815160011015610263577f00000000000000000000000000000000000000000000000000000000000000006001600160a01b03166040830152815160021015610263577f00000000000000000000000000000000000000000000000000000000000000006001600160a01b03166060830152604080516020808252935193810184905292839291830191905f5b818110610241575050500390f35b82516001600160a01b0316845285945060209384019390920191600101610233565b634e487b7160e01b5f52603260045260245ffd5b346100e4575f3660031901126100e45760206040517f00000000000000000000000000000000000000000000000000000000000000008152f35b346100e45760403660031901126100e4576102ca610e0c565b67ffffffffffffffff602435116100e45736606460243501116100e4576001600160a01b03811615610bc6577f00000000000000000000000000000000000000000000000000000000000000006001600160a01b031615610b94577f00000000000000000000000000000000000000000000000000000000000000001580158091610b6b575b15610b30577f00000000000000000000000000000000000000000000000000000000000000007f000000000000000000000000000000000000000000000000000000000000000001807f00000000000000000000000000000000000000000000000000000000000000001161072d577f0000000000000000000000000000000000000000000000000000000000000000811180610b07575b15610ad7576040516370a0823160e01b81523060048201526020816024817f00000000000000000000000000000000000000000000000000000000000000006001600160a01b03165afa908115610acc575f91610a9a575b5010610a55575f54604080517f85096d454b88c412c1a14bfea7d9c16c900bc8a4e82ffc96e3ae097f48551181602082019081526001600160a01b037f000000000000000000000000000000000000000000000000000000000000000081169383019390935285831660608301527f0000000000000000000000000000000000000000000000000000000000000000909216608082015260a080820184905281529192916104ef60c082610e22565b519020604051602081019161190160f01b83527f0000000000000000000000000000000000000000000000000000000000000000602283015260428201526042815261053c606282610e22565b519020905f91604051946060860186811067ffffffffffffffff821117610a415760409081526001600160a01b037f0000000000000000000000000000000000000000000000000000000000000000811688527f0000000000000000000000000000000000000000000000000000000000000000811660208901527f00000000000000000000000000000000000000000000000000000000000000001687820152519194919290916105ef606085610e22565b60603685375f955b600360ff881610156107e3576004611fe08860051b166024350101356022196024353603018112156100e4576024350193600485013567ffffffffffffffff81116100e457602486019080360382136100e4576041036107565760648601355f1a95604401356fa2a8918ca85bafe22016d0b997e4df60600160ff1b0381116107b257601b871480156107a8575b15610777576106a29661069a92359085610fb7565b959095611028565b6001600160a01b03851615610767575f5b600360ff82161015610756576001600160a01b036106d460ff83168c610e44565b51166001600160a01b0387161480610741575b6106f65760010160ff166106b3565b60ff92955061070f836001929a999396959a1688610e44565b521660ff811461072d5760018060ff9201965b0116959091926105f7565b634e487b7160e01b5f52601160045260245ffd5b5061074f60ff821688610e44565b51156106e7565b5092919660ff919450600190610722565b92919660ff919450600190610722565b60405162461bcd60e51b815260206004820152600960248201526824b73b30b634b2103b60b91b6044820152606490fd5b50601c8714610685565b60405162461bcd60e51b8152602060048201526009602482015268496e76616c6964207360b81b6044820152606490fd5b508460ff807f0000000000000000000000000000000000000000000000000000000000000000169116106109fc575f19811461072d576001015f556109a3575b7f000000000000000000000000000000000000000000000000000000000000000061092a575b5f545f19810190811161072d57604080516001600160a01b0393841681527f000000000000000000000000000000000000000000000000000000000000000060208201527f00000000000000000000000000000000000000000000000000000000000000008416918101919091527f000000000000000000000000000000000000000000000000000000000000000060608201527f0000000000000000000000000000000000000000000000000000000000000000909216917f457938e2512bd940a38c710d197d7fdd21dac266a89e0e19e9e7c24e3822ee5d90608090a3005b61099e7f00000000000000000000000000000000000000000000000000000000000000007f00000000000000000000000000000000000000000000000000000000000000007f00000000000000000000000000000000000000000000000000000000000000006001600160a01b0316610e55565b610849565b6109f77f0000000000000000000000000000000000000000000000000000000000000000827f00000000000000000000000000000000000000000000000000000000000000006001600160a01b0316610e55565b610823565b60405162461bcd60e51b815260206004820152601760248201527f496e73756666696369656e74207369676e6174757265730000000000000000006044820152606490fd5b634e487b7160e01b5f52604160045260245ffd5b60405162461bcd60e51b815260206004820152601b60248201527f496e73756666696369656e742077616c6c65742062616c616e636500000000006044820152606490fd5b90506020813d602011610ac4575b81610ab560209383610e22565b810103126100e4575184610440565b3d9150610aa8565b6040513d5f823e3d90fd5b60405162461bcd60e51b81526020600482015260086024820152674f766572666c6f7760c01b6044820152606490fd5b507f000000000000000000000000000000000000000000000000000000000000000081116103e8565b60405162461bcd60e51b81526020600482015260136024820152722737ba3434b733903a37903a3930b739b332b960691b6044820152606490fd5b507f00000000000000000000000000000000000000000000000000000000000000001515610350565b60405162461bcd60e51b815260206004820152600a602482015269466565546f207a65726f60b01b6044820152606490fd5b60405162461bcd60e51b815260206004820152600e60248201526d526563697069656e74207a65726f60901b6044820152606490fd5b346100e4575f3660031901126100e4576040517f00000000000000000000000000000000000000000000000000000000000000006001600160a01b03168152602090f35b346100e4575f3660031901126100e45760206040517f00000000000000000000000000000000000000000000000000000000000000008152f35b346100e4575f3660031901126100e457602060405160ff7f0000000000000000000000000000000000000000000000000000000000000000168152f35b346100e45760203660031901126100e45760206001600160a01b03610cda610e0c565b166001600160a01b037f0000000000000000000000000000000000000000000000000000000000000000168114908115610d54575b8115610d21575b506040519015158152f35b7f00000000000000000000000000000000000000000000000000000000000000006001600160a01b031614905082610d16565b7f00000000000000000000000000000000000000000000000000000000000000006001600160a01b031681149150610d0f565b346100e4575f3660031901126100e4576040517f00000000000000000000000000000000000000000000000000000000000000006001600160a01b03168152602090f35b346100e4575f3660031901126100e4577f00000000000000000000000000000000000000000000000000000000000000006001600160a01b03168152602090f35b600435906001600160a01b03821682036100e457565b90601f8019910116810190811067ffffffffffffffff821117610a4157604052565b9060038110156102635760051b0190565b5f809193929360405193602085019563a9059cbb60e01b875260018060a01b03166024860152604485015260448452610e8f606485610e22565b60018060a01b03169360405193610ea7604086610e22565b602085527f5361666545524332303a206c6f772d6c6576656c2063616c6c206661696c65646020860152519082865af13d15610faa573d9067ffffffffffffffff8211610a4157604051610f19949092610f0b601f8201601f191660200185610e22565b83523d5f602085013e611140565b8051908115918215610f87575b505015610f2f57565b60405162461bcd60e51b815260206004820152602a60248201527f5361666545524332303a204552433230206f7065726174696f6e20646964206e6044820152691bdd081cdd58d8d9595960b21b6064820152608490fd5b81925090602091810103126100e4576020015180151581036100e4575f80610f26565b91610f1992606091611140565b6fa2a8918ca85bafe22016d0b997e4df60600160ff1b03841161101d576020935f9360ff60809460405194855216868401526040830152606082015282805260015afa15610acc575f516001600160a01b0381161561101557905f90565b505f90600190565b505050505f90600390565b600581101561112c57806110395750565b600181036110865760405162461bcd60e51b815260206004820152601860248201527f45434453413a20696e76616c6964207369676e617475726500000000000000006044820152606490fd5b600281036110d35760405162461bcd60e51b815260206004820152601f60248201527f45434453413a20696e76616c6964207369676e6174757265206c656e677468006044820152606490fd5b6003146110dc57565b60405162461bcd60e51b815260206004820152602260248201527f45434453413a20696e76616c6964207369676e6174757265202773272076616c604482015261756560f01b6064820152608490fd5b634e487b7160e01b5f52602160045260245ffd5b919290156111a25750815115611154575090565b3b1561115d5790565b60405162461bcd60e51b815260206004820152601d60248201527f416464726573733a2063616c6c20746f206e6f6e2d636f6e74726163740000006044820152606490fd5b8251909150156111b55750805190602001fd5b604460209160405192839162461bcd60e51b83528160048401528051918291826024860152018484015e5f828201840152601f01601f19168101030190fdfea264697066735822122017dd6a1eb0eb9adabd3b100e42cb2c1e35ba54ed4cf9986695737a3d6c02870664736f6c634300081d00334efd0eb8137437cc21ded7c1b056cd5a6e457ad8830e42d74bb9ba46144dbe839fd18dd57bf85e04b8e9f0d0525149241b7cc780d9c23051d307c3afc5e04ca8a2646970667358221220ccf60982002eba33421f42acc5e0f436ac84d8e36d185fd99d468656a9fe211364736f6c634300081d0033",
  "linkReferences": {},
  "deployedLinkReferences": {},
  "immutableReferences": {
    "11273": [
      {
        "length": 32,
        "start": 11903
      }
    ],
    "11275": [
      {
        "length": 32,
        "start": 11865
      }
    ],
    "11311": [
      {
        "length": 32,
        "start": 1626
      },
      {
        "length": 32,
        "start": 3193
      },
      {
        "length": 32,
        "start": 3800
      },
      {
        "length": 32,
        "start": 6945
      },
      {
        "length": 32,
        "start": 12707
      },
      {
        "length": 32,
        "start": 12912
      }
    ]
  },
  "inputSourceName": "project/contracts/PalindromeCryptoEscrow.sol",
  "buildInfoId": "solc-0_8_29-269d2787a3bcc1d1f5637f06c208a8f5f8e2dd86"
}