{
  "_format": "hh3-artifact-1",
  "contractName": "PalindromeEscrowWallet",
  "sourceName": "contracts/PalindromeEscrowWallet.sol",
  "abi": [
    {
      "inputs": [
        {
          "internalType": "address",
          "name": "_buyer",
          "type": "address"
        },
        {
          "internalType": "address",
          "name": "_seller",
          "type": "address"
        },
        {
          "internalType": "address",
          "name": "_arbiter",
          "type": "address"
        },
        {
          "internalType": "uint8",
          "name": "_threshold",
          "type": "uint8"
        }
      ],
      "stateMutability": "nonpayable",
      "type": "constructor"
    },
    {
      "anonymous": false,
      "inputs": [
        {
          "indexed": true,
          "internalType": "uint256",
          "name": "nonce",
          "type": "uint256"
        },
        {
          "indexed": true,
          "internalType": "address",
          "name": "token",
          "type": "address"
        },
        {
          "indexed": false,
          "internalType": "address",
          "name": "to",
          "type": "address"
        },
        {
          "indexed": false,
          "internalType": "uint256",
          "name": "amount",
          "type": "uint256"
        }
      ],
      "name": "Executed",
      "type": "event"
    },
    {
      "anonymous": false,
      "inputs": [
        {
          "indexed": true,
          "internalType": "uint256",
          "name": "nonce",
          "type": "uint256"
        },
        {
          "indexed": true,
          "internalType": "address",
          "name": "token",
          "type": "address"
        },
        {
          "indexed": false,
          "internalType": "address",
          "name": "to",
          "type": "address"
        },
        {
          "indexed": false,
          "internalType": "uint256",
          "name": "netAmount",
          "type": "uint256"
        },
        {
          "indexed": false,
          "internalType": "address",
          "name": "feeTo",
          "type": "address"
        },
        {
          "indexed": false,
          "internalType": "uint256",
          "name": "feeAmount",
          "type": "uint256"
        }
      ],
      "name": "SplitExecuted",
      "type": "event"
    },
    {
      "inputs": [],
      "name": "arbiter",
      "outputs": [
        {
          "internalType": "address",
          "name": "",
          "type": "address"
        }
      ],
      "stateMutability": "view",
      "type": "function"
    },
    {
      "inputs": [],
      "name": "buyer",
      "outputs": [
        {
          "internalType": "address",
          "name": "",
          "type": "address"
        }
      ],
      "stateMutability": "view",
      "type": "function"
    },
    {
      "inputs": [
        {
          "internalType": "address",
          "name": "token",
          "type": "address"
        },
        {
          "internalType": "address",
          "name": "to",
          "type": "address"
        },
        {
          "internalType": "uint256",
          "name": "amount",
          "type": "uint256"
        },
        {
          "internalType": "bytes[3]",
          "name": "signatures",
          "type": "bytes[3]"
        }
      ],
      "name": "executeERC20",
      "outputs": [],
      "stateMutability": "nonpayable",
      "type": "function"
    },
    {
      "inputs": [
        {
          "internalType": "address",
          "name": "token",
          "type": "address"
        },
        {
          "internalType": "address",
          "name": "to",
          "type": "address"
        },
        {
          "internalType": "uint256",
          "name": "netAmount",
          "type": "uint256"
        },
        {
          "internalType": "address",
          "name": "feeTo",
          "type": "address"
        },
        {
          "internalType": "uint256",
          "name": "feeAmount",
          "type": "uint256"
        },
        {
          "internalType": "bytes[3]",
          "name": "signatures",
          "type": "bytes[3]"
        }
      ],
      "name": "executeERC20Split",
      "outputs": [],
      "stateMutability": "nonpayable",
      "type": "function"
    },
    {
      "inputs": [],
      "name": "getOwners",
      "outputs": [
        {
          "internalType": "address[]",
          "name": "",
          "type": "address[]"
        }
      ],
      "stateMutability": "view",
      "type": "function"
    },
    {
      "inputs": [
        {
          "internalType": "address",
          "name": "account",
          "type": "address"
        }
      ],
      "name": "isOwner",
      "outputs": [
        {
          "internalType": "bool",
          "name": "",
          "type": "bool"
        }
      ],
      "stateMutability": "view",
      "type": "function"
    },
    {
      "inputs": [],
      "name": "nonce",
      "outputs": [
        {
          "internalType": "uint256",
          "name": "",
          "type": "uint256"
        }
      ],
      "stateMutability": "view",
      "type": "function"
    },
    {
      "inputs": [],
      "name": "seller",
      "outputs": [
        {
          "internalType": "address",
          "name": "",
          "type": "address"
        }
      ],
      "stateMutability": "view",
      "type": "function"
    },
    {
      "inputs": [],
      "name": "threshold",
      "outputs": [
        {
          "internalType": "uint8",
          "name": "",
          "type": "uint8"
        }
      ],
      "stateMutability": "view",
      "type": "function"
    }
  ],
  "bytecode": "0x610100346101be57601f6111dc38819003918201601f19168301916001600160401b038311848410176101c2578084926080946040528339810103126101be57610048816101d6565b90610055602082016101d6565b6060610063604084016101d6565b9201519260ff84168085036101be576001600160a01b0382161515806101ac575b8061019a575b15610166576002036101215760805260a05260c05260e052604051610ff190816101eb82396080518181816103cb015281816104db015281816107080152610921015260a05181818161040101528181610779015281816107bc0152610946015260c05181818160940152818161043a01528181610746015261096e015260e0518181816101fe015281816105de01526106b60152f35b60405162461bcd60e51b815260206004820152601360248201527f5468726573686f6c64206d7573742062652032000000000000000000000000006044820152606490fd5b60405162461bcd60e51b815260206004820152600c60248201526b5a65726f206164647265737360a01b6044820152606490fd5b506001600160a01b038416151561008a565b506001600160a01b0383161515610084565b5f80fd5b634e487b7160e01b5f52604160045260245ffd5b51906001600160a01b03821682036101be5756fe6080806040526004361015610012575f80fd5b5f3560e01c90816308551a53146107aa575080632f54bf6e146106da57806342cde4e81461069d5780637121989a1461050a5780637150d8ae146104c6578063a0e67e2b14610397578063affed0e01461037b578063dcfda144146100c75763fe25e00a1461007f575f80fd5b346100c3575f3660031901126100c3576040517f00000000000000000000000000000000000000000000000000000000000000006001600160a01b03168152602090f35b5f80fd5b346100c35760c03660031901126100c3576100e06107eb565b6100e8610801565b606435906001600160a01b03821690604435908284036100c3576084359360a4359167ffffffffffffffff83116100c3573660648401116100c3576001600160a01b03811692610139841515610817565b851561034957841580158091610340575b1561030557878601808711610295578887821191826102fb575b5050156102cb5785915f54906040519060208201903060601b8252600160a01b600190038d169c6001600160601b03199060601b1660348401526001600160601b03198760601b16604884015285605c8401526001600160601b03198860601b16607c8401528b60908401528360b08401524660d084015260d083526101eb60f084610854565b60040191519020906101fc916108f5565b7f000000000000000000000000000000000000000000000000000000000000000060ff169060ff16101561022f9061088a565b610238906108d6565b5f556102ba575b505084806102a9575b50505f545f19810194908511610295577f457938e2512bd940a38c710d197d7fdd21dac266a89e0e19e9e7c24e3822ee5d93608093604051938452602084015260408301526060820152a3005b634e487b7160e01b5f52601160045260245ffd5b6102b39187610c0a565b8584610248565b6102c49188610c0a565b868361023f565b60405162461bcd60e51b81526020600482015260086024820152674f766572666c6f7760c01b6044820152606490fd5b119050888b610164565b60405162461bcd60e51b81526020600482015260136024820152722737ba3434b733903a37903a3930b739b332b960691b6044820152606490fd5b5087151561014a565b60405162461bcd60e51b815260206004820152600a602482015269466565546f207a65726f60b01b6044820152606490fd5b346100c3575f3660031901126100c35760205f54604051908152f35b346100c3575f3660031901126100c3576040516103b5608082610854565b600381526020810160603682378151156104b2577f00000000000000000000000000000000000000000000000000000000000000006001600160a01b031681528151600110156104b2577f00000000000000000000000000000000000000000000000000000000000000006001600160a01b031660408301528151600210156104b2577f00000000000000000000000000000000000000000000000000000000000000006001600160a01b03166060830152604080516020808252935193810184905292839291830191905f5b818110610490575050500390f35b82516001600160a01b0316845285945060209384019390920191600101610482565b634e487b7160e01b5f52603260045260245ffd5b346100c3575f3660031901126100c3576040517f00000000000000000000000000000000000000000000000000000000000000006001600160a01b03168152602090f35b346100c35760803660031901126100c3576105236107eb565b61052b610801565b6044359060643567ffffffffffffffff81116100c3573660648201116100c35761055f6001600160a01b0383161515610817565b821561066a576105d9610607915f546040519160208301913060601b835260018060a01b038916986001600160601b03199060601b1660348501526001600160601b03198760601b16604885015287605c850152607c84015246609c840152609c83526105cd60bc84610854565b600401915190206108f5565b60ff807f0000000000000000000000000000000000000000000000000000000000000000169116101561088a565b610612828285610c0a565b61061c5f546108d6565b91825f555f19830192831161029557604080516001600160a01b0393909316835260208301919091527f95474fc50506241409126520ce4036ede1ce133514e0e746730e5ab426cf8f7191a3005b60405162461bcd60e51b815260206004820152600b60248201526a416d6f756e74207a65726f60a81b6044820152606490fd5b346100c3575f3660031901126100c357602060405160ff7f0000000000000000000000000000000000000000000000000000000000000000168152f35b346100c35760203660031901126100c35760206001600160a01b036106fd6107eb565b166001600160a01b037f0000000000000000000000000000000000000000000000000000000000000000168114908115610777575b8115610744575b506040519015158152f35b7f00000000000000000000000000000000000000000000000000000000000000006001600160a01b031614905082610739565b7f00000000000000000000000000000000000000000000000000000000000000006001600160a01b031681149150610732565b346100c3575f3660031901126100c3577f00000000000000000000000000000000000000000000000000000000000000006001600160a01b03168152602090f35b600435906001600160a01b03821682036100c357565b602435906001600160a01b03821682036100c357565b1561081e57565b60405162461bcd60e51b815260206004820152600e60248201526d526563697069656e74207a65726f60901b6044820152606490fd5b90601f8019910116810190811067ffffffffffffffff82111761087657604052565b634e487b7160e01b5f52604160045260245ffd5b1561089157565b60405162461bcd60e51b815260206004820152601760248201527f496e73756666696369656e74207369676e6174757265730000000000000000006044820152606490fd5b5f1981146102955760010190565b9060038110156104b25760051b0190565b5f92604051926060840184811067ffffffffffffffff8211176108765760409081526001600160a01b037f0000000000000000000000000000000000000000000000000000000000000000811686527f0000000000000000000000000000000000000000000000000000000000000000811660208701527f000000000000000000000000000000000000000000000000000000000000000016858201525194919360609392906109a58588610854565b84368837604051946109b78187610854565b803687375f935b60ff8516956003871015610bff57611fe08660051b16820135601e19833603018112156100c357820192833567ffffffffffffffff81116100c357602085019080360382136100c357604103610bed5760408501356fa2a8918ca85bafe22016d0b997e4df60600160ff1b038111610ba857610a789b9583610a70937f19457468657265756d205369676e6564204d6573736167653a0a3332000000005f5286601c52359101355f1a603c5f20610d73565b9a909a610def565b6001600160a01b03909916985f5b60ff811689811015610af0576001600160a01b0390610aa5908c6108e4565b51168b14610ab85760010160ff16610a86565b60405162461bcd60e51b815260206004820152601060248201526f223ab83634b1b0ba329039b4b3b732b960811b6044820152606490fd5b5050939698610b08819b979a999493929699856108e4565b525f5b60ff81166003811015610b91576001600160a01b03610b2a828b6108e4565b51168c1480610b7f575b610b44575060010160ff16610b0b565b60ff9398959b5060019150610b5f90889b97959a93986108e4565b521660ff81146102955760018060ff9201945b01169397909496976109be565b50610b8a81896108e4565b5115610b34565b5050949760ff919693995060019097949297610b72565b60405162461bcd60e51b815260206004820152601960248201527f496e76616c6964207369676e617475726520732076616c7565000000000000006044820152606490fd5b5099989650915093600160ff91610b72565b505050509450505050565b60405163a9059cbb60e01b602082019081526001600160a01b039390931660248201526044808201949094529283529091905f908190610c4b606485610854565b60018060a01b03169360405193610c63604086610854565b602085527f5361666545524332303a206c6f772d6c6576656c2063616c6c206661696c65646020860152519082865af13d15610d66573d9067ffffffffffffffff821161087657604051610cd5949092610cc7601f8201601f191660200185610854565b83523d5f602085013e610f07565b8051908115918215610d43575b505015610ceb57565b60405162461bcd60e51b815260206004820152602a60248201527f5361666545524332303a204552433230206f7065726174696f6e20646964206e6044820152691bdd081cdd58d8d9595960b21b6064820152608490fd5b81925090602091810103126100c3576020015180151581036100c3575f80610ce2565b91610cd592606091610f07565b6fa2a8918ca85bafe22016d0b997e4df60600160ff1b038411610de4576020935f9360ff60809460405194855216868401526040830152606082015282805260015afa15610dd9575f516001600160a01b03811615610dd157905f90565b505f90600190565b6040513d5f823e3d90fd5b505050505f90600390565b6005811015610ef35780610e005750565b60018103610e4d5760405162461bcd60e51b815260206004820152601860248201527f45434453413a20696e76616c6964207369676e617475726500000000000000006044820152606490fd5b60028103610e9a5760405162461bcd60e51b815260206004820152601f60248201527f45434453413a20696e76616c6964207369676e6174757265206c656e677468006044820152606490fd5b600314610ea357565b60405162461bcd60e51b815260206004820152602260248201527f45434453413a20696e76616c6964207369676e6174757265202773272076616c604482015261756560f01b6064820152608490fd5b634e487b7160e01b5f52602160045260245ffd5b91929015610f695750815115610f1b575090565b3b15610f245790565b60405162461bcd60e51b815260206004820152601d60248201527f416464726573733a2063616c6c20746f206e6f6e2d636f6e74726163740000006044820152606490fd5b825190915015610f7c5750805190602001fd5b604460209160405192839162461bcd60e51b83528160048401528051918291826024860152018484015e5f828201840152601f01601f19168101030190fdfea2646970667358221220759c6c95f327c8f11389e2d6f2cd84cf769791df8933ec2a00859091f50fce2264736f6c634300081d0033",
  "linkReferences": {},
  "deployedLinkReferences": {},
  "immutableReferences": {
    "14090": [
      {
        "length": 32,
        "start": 971
      },
      {
        "length": 32,
        "start": 1243
      },
      {
        "length": 32,
        "start": 1800
      },
      {
        "length": 32,
        "start": 2337
      }
    ],
    "14092": [
      {
        "length": 32,
        "start": 1025
      },
      {
        "length": 32,
        "start": 1913
      },
      {
        "length": 32,
        "start": 1980
      },
      {
        "length": 32,
        "start": 2374
      }
    ],
    "14094": [
      {
        "length": 32,
        "start": 148
      },
      {
        "length": 32,
        "start": 1082
      },
      {
        "length": 32,
        "start": 1862
      },
      {
        "length": 32,
        "start": 2414
      }
    ],
    "14096": [
      {
        "length": 32,
        "start": 510
      },
      {
        "length": 32,
        "start": 1502
      },
      {
        "length": 32,
        "start": 1718
      }
    ]
  },
  "inputSourceName": "project/contracts/PalindromeEscrowWallet.sol",
  "buildInfoId": "solc-0_8_29-7136301f997a287138f7fb563c4d493fc0d72c13"
}