{
  "_format": "hh3-artifact-1",
  "contractName": "PalindromePay",
  "sourceName": "contracts/PalindromePay.sol",
  "abi": [
    {
      "inputs": [
        {
          "internalType": "address",
          "name": "_feeReceiver",
          "type": "address"
        },
        {
          "internalType": "address",
          "name": "_walletFactory",
          "type": "address"
        }
      ],
      "stateMutability": "nonpayable",
      "type": "constructor"
    },
    {
      "inputs": [],
      "name": "InvalidNonce",
      "type": "error"
    },
    {
      "inputs": [],
      "name": "InvalidWalletSignature",
      "type": "error"
    },
    {
      "inputs": [],
      "name": "OnlyArbiter",
      "type": "error"
    },
    {
      "inputs": [],
      "name": "OnlyBuyer",
      "type": "error"
    },
    {
      "inputs": [],
      "name": "OnlyBuyerOrSeller",
      "type": "error"
    },
    {
      "inputs": [],
      "name": "OnlySeller",
      "type": "error"
    },
    {
      "inputs": [],
      "name": "SignatureAlreadyUsed",
      "type": "error"
    },
    {
      "inputs": [],
      "name": "SignatureLengthInvalid",
      "type": "error"
    },
    {
      "inputs": [],
      "name": "SignatureSInvalid",
      "type": "error"
    },
    {
      "inputs": [],
      "name": "SignatureVInvalid",
      "type": "error"
    },
    {
      "anonymous": false,
      "inputs": [
        {
          "indexed": true,
          "internalType": "uint256",
          "name": "escrowId",
          "type": "uint256"
        },
        {
          "indexed": true,
          "internalType": "address",
          "name": "arbiter",
          "type": "address"
        }
      ],
      "name": "ArbiterSet",
      "type": "event"
    },
    {
      "anonymous": false,
      "inputs": [
        {
          "indexed": true,
          "internalType": "uint256",
          "name": "escrowId",
          "type": "uint256"
        },
        {
          "indexed": false,
          "internalType": "bytes",
          "name": "arbiterSig",
          "type": "bytes"
        },
        {
          "indexed": false,
          "internalType": "enum PalindromePay.State",
          "name": "outcome",
          "type": "uint8"
        }
      ],
      "name": "ArbiterWalletSigAttached",
      "type": "event"
    },
    {
      "anonymous": false,
      "inputs": [
        {
          "indexed": true,
          "internalType": "uint256",
          "name": "escrowId",
          "type": "uint256"
        },
        {
          "indexed": true,
          "internalType": "address",
          "name": "seller",
          "type": "address"
        },
        {
          "indexed": false,
          "internalType": "uint256",
          "name": "amount",
          "type": "uint256"
        },
        {
          "indexed": false,
          "internalType": "uint256",
          "name": "fee",
          "type": "uint256"
        }
      ],
      "name": "AutoReleased",
      "type": "event"
    },
    {
      "anonymous": false,
      "inputs": [
        {
          "indexed": true,
          "internalType": "uint256",
          "name": "escrowId",
          "type": "uint256"
        },
        {
          "indexed": false,
          "internalType": "bytes",
          "name": "buyerSig",
          "type": "bytes"
        },
        {
          "indexed": false,
          "internalType": "enum PalindromePay.State",
          "name": "outcome",
          "type": "uint8"
        }
      ],
      "name": "BuyerWalletSigAttached",
      "type": "event"
    },
    {
      "anonymous": false,
      "inputs": [
        {
          "indexed": true,
          "internalType": "uint256",
          "name": "escrowId",
          "type": "uint256"
        },
        {
          "indexed": true,
          "internalType": "address",
          "name": "initiator",
          "type": "address"
        },
        {
          "indexed": false,
          "internalType": "uint256",
          "name": "amount",
          "type": "uint256"
        }
      ],
      "name": "Canceled",
      "type": "event"
    },
    {
      "anonymous": false,
      "inputs": [
        {
          "indexed": true,
          "internalType": "uint256",
          "name": "escrowId",
          "type": "uint256"
        },
        {
          "indexed": true,
          "internalType": "address",
          "name": "buyer",
          "type": "address"
        },
        {
          "indexed": true,
          "internalType": "address",
          "name": "seller",
          "type": "address"
        },
        {
          "indexed": false,
          "internalType": "uint256",
          "name": "amount",
          "type": "uint256"
        },
        {
          "indexed": false,
          "internalType": "uint256",
          "name": "fee",
          "type": "uint256"
        }
      ],
      "name": "DeliveryConfirmed",
      "type": "event"
    },
    {
      "anonymous": false,
      "inputs": [
        {
          "indexed": true,
          "internalType": "uint256",
          "name": "escrowId",
          "type": "uint256"
        },
        {
          "indexed": false,
          "internalType": "uint256",
          "name": "longDeadline",
          "type": "uint256"
        }
      ],
      "name": "DisputeDeadlinesSet",
      "type": "event"
    },
    {
      "anonymous": false,
      "inputs": [
        {
          "indexed": true,
          "internalType": "uint256",
          "name": "escrowId",
          "type": "uint256"
        },
        {
          "indexed": true,
          "internalType": "address",
          "name": "sender",
          "type": "address"
        },
        {
          "indexed": false,
          "internalType": "enum PalindromePay.Role",
          "name": "role",
          "type": "uint8"
        },
        {
          "indexed": false,
          "internalType": "string",
          "name": "ipfsHash",
          "type": "string"
        }
      ],
      "name": "DisputeMessagePosted",
      "type": "event"
    },
    {
      "anonymous": false,
      "inputs": [
        {
          "indexed": true,
          "internalType": "uint256",
          "name": "escrowId",
          "type": "uint256"
        },
        {
          "indexed": false,
          "internalType": "enum PalindromePay.State",
          "name": "resolution",
          "type": "uint8"
        },
        {
          "indexed": false,
          "internalType": "address",
          "name": "arbiter",
          "type": "address"
        },
        {
          "indexed": false,
          "internalType": "uint256",
          "name": "amount",
          "type": "uint256"
        },
        {
          "indexed": false,
          "internalType": "uint256",
          "name": "fee",
          "type": "uint256"
        }
      ],
      "name": "DisputeResolved",
      "type": "event"
    },
    {
      "anonymous": false,
      "inputs": [
        {
          "indexed": true,
          "internalType": "uint256",
          "name": "escrowId",
          "type": "uint256"
        },
        {
          "indexed": true,
          "internalType": "address",
          "name": "initiator",
          "type": "address"
        }
      ],
      "name": "DisputeStarted",
      "type": "event"
    },
    {
      "anonymous": false,
      "inputs": [
        {
          "indexed": true,
          "internalType": "uint256",
          "name": "escrowId",
          "type": "uint256"
        },
        {
          "indexed": true,
          "internalType": "address",
          "name": "buyer",
          "type": "address"
        },
        {
          "indexed": true,
          "internalType": "address",
          "name": "seller",
          "type": "address"
        },
        {
          "indexed": false,
          "internalType": "address",
          "name": "token",
          "type": "address"
        },
        {
          "indexed": false,
          "internalType": "uint256",
          "name": "amount",
          "type": "uint256"
        },
        {
          "indexed": false,
          "internalType": "address",
          "name": "arbiter",
          "type": "address"
        },
        {
          "indexed": false,
          "internalType": "uint256",
          "name": "maturityTime",
          "type": "uint256"
        },
        {
          "indexed": false,
          "internalType": "string",
          "name": "title",
          "type": "string"
        },
        {
          "indexed": false,
          "internalType": "string",
          "name": "ipfsHash",
          "type": "string"
        }
      ],
      "name": "EscrowCreated",
      "type": "event"
    },
    {
      "anonymous": false,
      "inputs": [
        {
          "indexed": true,
          "internalType": "uint256",
          "name": "escrowId",
          "type": "uint256"
        },
        {
          "indexed": true,
          "internalType": "address",
          "name": "buyer",
          "type": "address"
        },
        {
          "indexed": false,
          "internalType": "uint256",
          "name": "amount",
          "type": "uint256"
        }
      ],
      "name": "EscrowCreatedAndDeposited",
      "type": "event"
    },
    {
      "anonymous": false,
      "inputs": [
        {
          "indexed": true,
          "internalType": "uint256",
          "name": "escrowId",
          "type": "uint256"
        },
        {
          "indexed": true,
          "internalType": "address",
          "name": "signer",
          "type": "address"
        },
        {
          "indexed": false,
          "internalType": "uint256",
          "name": "nonce",
          "type": "uint256"
        }
      ],
      "name": "NonceUsed",
      "type": "event"
    },
    {
      "anonymous": false,
      "inputs": [
        {
          "indexed": true,
          "internalType": "uint256",
          "name": "escrowId",
          "type": "uint256"
        },
        {
          "indexed": true,
          "internalType": "address",
          "name": "buyer",
          "type": "address"
        },
        {
          "indexed": false,
          "internalType": "uint256",
          "name": "amount",
          "type": "uint256"
        }
      ],
      "name": "PaymentDeposited",
      "type": "event"
    },
    {
      "anonymous": false,
      "inputs": [
        {
          "indexed": true,
          "internalType": "uint256",
          "name": "escrowId",
          "type": "uint256"
        },
        {
          "indexed": false,
          "internalType": "address",
          "name": "recipient",
          "type": "address"
        },
        {
          "indexed": false,
          "internalType": "uint256",
          "name": "netAmount",
          "type": "uint256"
        },
        {
          "indexed": false,
          "internalType": "address",
          "name": "feeRecipient",
          "type": "address"
        },
        {
          "indexed": false,
          "internalType": "uint256",
          "name": "feeAmount",
          "type": "uint256"
        }
      ],
      "name": "PayoutProposed",
      "type": "event"
    },
    {
      "anonymous": false,
      "inputs": [
        {
          "indexed": true,
          "internalType": "uint256",
          "name": "escrowId",
          "type": "uint256"
        },
        {
          "indexed": true,
          "internalType": "address",
          "name": "requester",
          "type": "address"
        }
      ],
      "name": "RequestCancel",
      "type": "event"
    },
    {
      "anonymous": false,
      "inputs": [
        {
          "indexed": true,
          "internalType": "uint256",
          "name": "escrowId",
          "type": "uint256"
        },
        {
          "indexed": true,
          "internalType": "address",
          "name": "seller",
          "type": "address"
        }
      ],
      "name": "SellerAccepted",
      "type": "event"
    },
    {
      "anonymous": false,
      "inputs": [
        {
          "indexed": true,
          "internalType": "uint256",
          "name": "escrowId",
          "type": "uint256"
        },
        {
          "indexed": false,
          "internalType": "bytes",
          "name": "sellerSig",
          "type": "bytes"
        },
        {
          "indexed": false,
          "internalType": "enum PalindromePay.State",
          "name": "outcome",
          "type": "uint8"
        }
      ],
      "name": "SellerWalletSigAttached",
      "type": "event"
    },
    {
      "anonymous": false,
      "inputs": [
        {
          "indexed": true,
          "internalType": "uint256",
          "name": "escrowId",
          "type": "uint256"
        },
        {
          "indexed": false,
          "internalType": "bytes",
          "name": "sellerSig",
          "type": "bytes"
        }
      ],
      "name": "SellerWalletSigUpdated",
      "type": "event"
    },
    {
      "anonymous": false,
      "inputs": [
        {
          "indexed": true,
          "internalType": "bytes32",
          "name": "sigHash",
          "type": "bytes32"
        },
        {
          "indexed": true,
          "internalType": "uint256",
          "name": "escrowId",
          "type": "uint256"
        }
      ],
      "name": "SignatureUsed",
      "type": "event"
    },
    {
      "anonymous": false,
      "inputs": [
        {
          "indexed": true,
          "internalType": "uint256",
          "name": "escrowId",
          "type": "uint256"
        },
        {
          "indexed": false,
          "internalType": "enum PalindromePay.State",
          "name": "oldState",
          "type": "uint8"
        },
        {
          "indexed": true,
          "internalType": "enum PalindromePay.State",
          "name": "newState",
          "type": "uint8"
        }
      ],
      "name": "StateChanged",
      "type": "event"
    },
    {
      "anonymous": false,
      "inputs": [
        {
          "indexed": true,
          "internalType": "uint256",
          "name": "escrowId",
          "type": "uint256"
        },
        {
          "indexed": true,
          "internalType": "address",
          "name": "wallet",
          "type": "address"
        }
      ],
      "name": "WalletCreated",
      "type": "event"
    },
    {
      "inputs": [],
      "name": "DISPUTE_LONG_TIMEOUT",
      "outputs": [
        {
          "internalType": "uint256",
          "name": "",
          "type": "uint256"
        }
      ],
      "stateMutability": "view",
      "type": "function"
    },
    {
      "inputs": [],
      "name": "DOMAIN_SEPARATOR",
      "outputs": [
        {
          "internalType": "bytes32",
          "name": "",
          "type": "bytes32"
        }
      ],
      "stateMutability": "view",
      "type": "function"
    },
    {
      "inputs": [],
      "name": "FEE_RECEIVER",
      "outputs": [
        {
          "internalType": "address",
          "name": "",
          "type": "address"
        }
      ],
      "stateMutability": "view",
      "type": "function"
    },
    {
      "inputs": [],
      "name": "MAX_ARBITER_FEE_BPS",
      "outputs": [
        {
          "internalType": "uint256",
          "name": "",
          "type": "uint256"
        }
      ],
      "stateMutability": "view",
      "type": "function"
    },
    {
      "inputs": [],
      "name": "TIMEOUT_BUFFER",
      "outputs": [
        {
          "internalType": "uint256",
          "name": "",
          "type": "uint256"
        }
      ],
      "stateMutability": "view",
      "type": "function"
    },
    {
      "inputs": [],
      "name": "WALLET_FACTORY",
      "outputs": [
        {
          "internalType": "contract IWalletFactory",
          "name": "",
          "type": "address"
        }
      ],
      "stateMutability": "view",
      "type": "function"
    },
    {
      "inputs": [
        {
          "internalType": "uint256",
          "name": "escrowId",
          "type": "uint256"
        },
        {
          "internalType": "bytes",
          "name": "sellerWalletSig",
          "type": "bytes"
        }
      ],
      "name": "acceptEscrow",
      "outputs": [],
      "stateMutability": "nonpayable",
      "type": "function"
    },
    {
      "inputs": [
        {
          "internalType": "uint256",
          "name": "escrowId",
          "type": "uint256"
        }
      ],
      "name": "autoRelease",
      "outputs": [],
      "stateMutability": "nonpayable",
      "type": "function"
    },
    {
      "inputs": [
        {
          "internalType": "uint256",
          "name": "escrowId",
          "type": "uint256"
        }
      ],
      "name": "cancelByTimeout",
      "outputs": [],
      "stateMutability": "nonpayable",
      "type": "function"
    },
    {
      "inputs": [
        {
          "internalType": "uint256",
          "name": "escrowId",
          "type": "uint256"
        }
      ],
      "name": "computeWalletAddress",
      "outputs": [
        {
          "internalType": "address",
          "name": "predicted",
          "type": "address"
        }
      ],
      "stateMutability": "view",
      "type": "function"
    },
    {
      "inputs": [
        {
          "internalType": "uint256",
          "name": "escrowId",
          "type": "uint256"
        },
        {
          "internalType": "bytes",
          "name": "buyerWalletSig",
          "type": "bytes"
        }
      ],
      "name": "confirmDelivery",
      "outputs": [],
      "stateMutability": "nonpayable",
      "type": "function"
    },
    {
      "inputs": [
        {
          "internalType": "uint256",
          "name": "escrowId",
          "type": "uint256"
        },
        {
          "internalType": "bytes",
          "name": "coordSignature",
          "type": "bytes"
        },
        {
          "internalType": "uint256",
          "name": "deadline",
          "type": "uint256"
        },
        {
          "internalType": "uint256",
          "name": "nonce",
          "type": "uint256"
        },
        {
          "internalType": "bytes",
          "name": "buyerWalletSig",
          "type": "bytes"
        }
      ],
      "name": "confirmDeliverySigned",
      "outputs": [],
      "stateMutability": "nonpayable",
      "type": "function"
    },
    {
      "inputs": [
        {
          "internalType": "address",
          "name": "token",
          "type": "address"
        },
        {
          "internalType": "address",
          "name": "buyer",
          "type": "address"
        },
        {
          "internalType": "uint256",
          "name": "amount",
          "type": "uint256"
        },
        {
          "internalType": "uint256",
          "name": "maturityTimeDays",
          "type": "uint256"
        },
        {
          "internalType": "address",
          "name": "arbiter",
          "type": "address"
        },
        {
          "internalType": "uint16",
          "name": "arbiterFeeBps",
          "type": "uint16"
        },
        {
          "internalType": "string",
          "name": "title",
          "type": "string"
        },
        {
          "internalType": "string",
          "name": "ipfsHash",
          "type": "string"
        },
        {
          "internalType": "bytes",
          "name": "sellerWalletSig",
          "type": "bytes"
        }
      ],
      "name": "createEscrow",
      "outputs": [
        {
          "internalType": "uint256",
          "name": "",
          "type": "uint256"
        }
      ],
      "stateMutability": "nonpayable",
      "type": "function"
    },
    {
      "inputs": [
        {
          "internalType": "address",
          "name": "token",
          "type": "address"
        },
        {
          "internalType": "address",
          "name": "seller",
          "type": "address"
        },
        {
          "internalType": "uint256",
          "name": "amount",
          "type": "uint256"
        },
        {
          "internalType": "uint256",
          "name": "maturityTimeDays",
          "type": "uint256"
        },
        {
          "internalType": "address",
          "name": "arbiter",
          "type": "address"
        },
        {
          "internalType": "uint16",
          "name": "arbiterFeeBps",
          "type": "uint16"
        },
        {
          "internalType": "string",
          "name": "title",
          "type": "string"
        },
        {
          "internalType": "string",
          "name": "ipfsHash",
          "type": "string"
        },
        {
          "internalType": "bytes",
          "name": "buyerWalletSig",
          "type": "bytes"
        }
      ],
      "name": "createEscrowAndDeposit",
      "outputs": [
        {
          "internalType": "uint256",
          "name": "escrowId",
          "type": "uint256"
        }
      ],
      "stateMutability": "nonpayable",
      "type": "function"
    },
    {
      "inputs": [
        {
          "internalType": "uint256",
          "name": "escrowId",
          "type": "uint256"
        },
        {
          "internalType": "bytes",
          "name": "buyerWalletSig",
          "type": "bytes"
        }
      ],
      "name": "deposit",
      "outputs": [],
      "stateMutability": "nonpayable",
      "type": "function"
    },
    {
      "inputs": [
        {
          "internalType": "uint256",
          "name": "",
          "type": "uint256"
        }
      ],
      "name": "disputeStatus",
      "outputs": [
        {
          "internalType": "uint256",
          "name": "",
          "type": "uint256"
        }
      ],
      "stateMutability": "view",
      "type": "function"
    },
    {
      "inputs": [
        {
          "internalType": "uint256",
          "name": "escrowId",
          "type": "uint256"
        }
      ],
      "name": "getEscrow",
      "outputs": [
        {
          "components": [
            {
              "internalType": "address",
              "name": "token",
              "type": "address"
            },
            {
              "internalType": "address",
              "name": "buyer",
              "type": "address"
            },
            {
              "internalType": "address",
              "name": "seller",
              "type": "address"
            },
            {
              "internalType": "address",
              "name": "arbiter",
              "type": "address"
            },
            {
              "internalType": "address",
              "name": "wallet",
              "type": "address"
            },
            {
              "internalType": "uint256",
              "name": "amount",
              "type": "uint256"
            },
            {
              "internalType": "uint256",
              "name": "depositTime",
              "type": "uint256"
            },
            {
              "internalType": "uint256",
              "name": "maturityTime",
              "type": "uint256"
            },
            {
              "internalType": "uint256",
              "name": "maturityDuration",
              "type": "uint256"
            },
            {
              "internalType": "uint256",
              "name": "disputeStartTime",
              "type": "uint256"
            },
            {
              "internalType": "enum PalindromePay.State",
              "name": "state",
              "type": "uint8"
            },
            {
              "internalType": "bool",
              "name": "buyerCancelRequested",
              "type": "bool"
            },
            {
              "internalType": "bool",
              "name": "sellerCancelRequested",
              "type": "bool"
            },
            {
              "internalType": "uint8",
              "name": "tokenDecimals",
              "type": "uint8"
            },
            {
              "internalType": "uint16",
              "name": "arbiterFeeBps",
              "type": "uint16"
            },
            {
              "internalType": "bytes",
              "name": "sellerWalletSig",
              "type": "bytes"
            },
            {
              "internalType": "bytes",
              "name": "buyerWalletSig",
              "type": "bytes"
            },
            {
              "internalType": "bytes",
              "name": "arbiterWalletSig",
              "type": "bytes"
            }
          ],
          "internalType": "struct PalindromePay.EscrowDeal",
          "name": "",
          "type": "tuple"
        }
      ],
      "stateMutability": "view",
      "type": "function"
    },
    {
      "inputs": [
        {
          "internalType": "uint256",
          "name": "escrowId",
          "type": "uint256"
        },
        {
          "internalType": "address",
          "name": "signer",
          "type": "address"
        },
        {
          "internalType": "uint256",
          "name": "wordIndex",
          "type": "uint256"
        }
      ],
      "name": "getNonceBitmap",
      "outputs": [
        {
          "internalType": "uint256",
          "name": "",
          "type": "uint256"
        }
      ],
      "stateMutability": "view",
      "type": "function"
    },
    {
      "inputs": [
        {
          "internalType": "uint256",
          "name": "escrowId",
          "type": "uint256"
        },
        {
          "internalType": "address",
          "name": "participant",
          "type": "address"
        },
        {
          "internalType": "enum PalindromePay.State",
          "name": "outcome",
          "type": "uint8"
        }
      ],
      "name": "getWalletAuthorizationDigest",
      "outputs": [
        {
          "internalType": "bytes32",
          "name": "digest",
          "type": "bytes32"
        }
      ],
      "stateMutability": "view",
      "type": "function"
    },
    {
      "inputs": [],
      "name": "nextEscrowId",
      "outputs": [
        {
          "internalType": "uint256",
          "name": "",
          "type": "uint256"
        }
      ],
      "stateMutability": "view",
      "type": "function"
    },
    {
      "inputs": [
        {
          "internalType": "uint256",
          "name": "escrowId",
          "type": "uint256"
        },
        {
          "internalType": "bytes",
          "name": "buyerWalletSig",
          "type": "bytes"
        }
      ],
      "name": "refundAfterDisputeTimeout",
      "outputs": [],
      "stateMutability": "nonpayable",
      "type": "function"
    },
    {
      "inputs": [
        {
          "internalType": "uint256",
          "name": "escrowId",
          "type": "uint256"
        },
        {
          "internalType": "bytes",
          "name": "walletSig",
          "type": "bytes"
        }
      ],
      "name": "requestCancel",
      "outputs": [],
      "stateMutability": "nonpayable",
      "type": "function"
    },
    {
      "inputs": [
        {
          "internalType": "uint256",
          "name": "escrowId",
          "type": "uint256"
        },
        {
          "internalType": "address",
          "name": "newArbiter",
          "type": "address"
        },
        {
          "internalType": "uint16",
          "name": "arbiterFeeBps",
          "type": "uint16"
        },
        {
          "internalType": "bytes",
          "name": "buyerSig",
          "type": "bytes"
        },
        {
          "internalType": "bytes",
          "name": "sellerSig",
          "type": "bytes"
        },
        {
          "internalType": "uint256",
          "name": "deadline",
          "type": "uint256"
        },
        {
          "internalType": "uint256",
          "name": "nonce",
          "type": "uint256"
        }
      ],
      "name": "setArbiterSigned",
      "outputs": [],
      "stateMutability": "nonpayable",
      "type": "function"
    },
    {
      "inputs": [
        {
          "internalType": "uint256",
          "name": "escrowId",
          "type": "uint256"
        }
      ],
      "name": "startDispute",
      "outputs": [],
      "stateMutability": "nonpayable",
      "type": "function"
    },
    {
      "inputs": [
        {
          "internalType": "uint256",
          "name": "escrowId",
          "type": "uint256"
        },
        {
          "internalType": "bytes",
          "name": "signature",
          "type": "bytes"
        },
        {
          "internalType": "uint256",
          "name": "deadline",
          "type": "uint256"
        },
        {
          "internalType": "uint256",
          "name": "nonce",
          "type": "uint256"
        }
      ],
      "name": "startDisputeSigned",
      "outputs": [],
      "stateMutability": "nonpayable",
      "type": "function"
    },
    {
      "inputs": [
        {
          "internalType": "uint256",
          "name": "escrowId",
          "type": "uint256"
        },
        {
          "internalType": "enum PalindromePay.State",
          "name": "resolution",
          "type": "uint8"
        },
        {
          "internalType": "string",
          "name": "ipfsHash",
          "type": "string"
        },
        {
          "internalType": "bytes",
          "name": "arbiterWalletSig",
          "type": "bytes"
        }
      ],
      "name": "submitArbiterDecision",
      "outputs": [],
      "stateMutability": "nonpayable",
      "type": "function"
    },
    {
      "inputs": [
        {
          "internalType": "uint256",
          "name": "escrowId",
          "type": "uint256"
        },
        {
          "internalType": "enum PalindromePay.Role",
          "name": "role",
          "type": "uint8"
        },
        {
          "internalType": "string",
          "name": "ipfsHash",
          "type": "string"
        }
      ],
      "name": "submitDisputeMessage",
      "outputs": [],
      "stateMutability": "nonpayable",
      "type": "function"
    }
  ],
  "bytecode": "0x61010080604052346102005760408161586d80380380916100208285610204565b8339810103126102005761003f60206100388361023b565b920161023b565b60015f556001600160a01b038216156101ce576001600160a01b031690811561019a5760805260a0524660e05260405161007a604082610204565b600d81526c50616c696e64726f6d6550617960981b602090910152604080517fafad4e164a3495a77e9cd6cc3b76ca3aa2b79f9ddc70f34392e4b3d17237f7d7916100c59082610204565b600181526020810190603160f81b82525190206040519060208201927f8b73c3c69bb8fe3d512ecc4cf759cc79239f7b179b0ffacaa9a75d522b39400f8452604083015260608201524660808201523060a082015260a0815261012960c082610204565b51902060c05260405161561d9081610250823960805181818161022f01528181610a5c01528181610bcf01528181611589015281816132d901528181614cce0152614d52015260a0518181816137780152818161523001526152b2015260c0518161462c015260e051816146060152f35b60405162461bcd60e51b815260206004820152600c60248201526b466163746f7279207a65726f60a01b6044820152606490fd5b60405162461bcd60e51b815260206004820152600a602482015269466565546f207a65726f60b01b6044820152606490fd5b5f80fd5b601f909101601f19168101906001600160401b0382119082101761022757604052565b634e487b7160e01b5f52604160045260245ffd5b51906001600160a01b03821682036102005756fe6102206040526004361015610012575f80fd5b5f3560e01c806306075a15146137a75780630e2009f41461376357806310f169e81461373957806313c34211146135ca5780631452483b146135ad5780632d471a5014612f695780632f9bfda214612ad75780633644e51514612ab55780634186928c14612a99578063459b860e146129325780635d303519146125775780636232ef60146123b3578063708f65ca146121825780637d19e59614611e9a57806383504156146119f057806389cb29dd146119d35780639dede53c14611983578063acc1d8e1146114b2578063b67036fd146111d2578063c0cfa7e5146110ed578063c37775a314610ea5578063cdf21dc914610a8b578063d3e78e4d14610a47578063d447dc7d14610a2b578063da183b0214610832578063e471d9a3146108025763f80a9c9314610143575f80fd5b3461062e5761015136613a9c565b97909899929561016295949561449d565b61016c8686614fd4565b6101768388614f84565b61018a6001600160a01b038d1615156141e7565b6001600160a01b038416156107cf576101ae6001600160a01b038516331415614220565b6101b98b1515614260565b6101c6610e43831061429a565b6101cf8c615030565b6080526101e86101e0608051614f1a565b8c10156142da565b6001600160a01b038816331415806107b9575b61020490614319565b6001600160a01b0388161580156107b0575b61021f90614357565b6102586001600160a01b038981167f00000000000000000000000000000000000000000000000000000000000000009091161415614399565b6102628189615146565b60015461016052610275610160516143e5565b600155610293336102886101605161520d565b610160518c8e614902565b156107a1576102a461016051615294565b6101a052610160515f52600260205260405f206101805260018060a01b038c166001600160601b0360a01b6101805154161761018051556001610180510160018060a01b0333166001600160601b0360a01b8254161790556002610180510160018060a01b0385166001600160601b0360a01b8254161790556003610180510160018060a01b0389166001600160601b0360a01b825416179055610368600a610180510191829065ffff0000000082549160201b169065ffff000000001916179055565b6004610180510160018060a01b036101a051166001600160601b0360a01b8254161790558a60056101805101556103a260018310156143f3565b6201518082029180830462015180149015171561078d576103cf826103f693600861018051015542613b5f565b6101805160070155805460805163ff0000ff1990911660189190911b63ff00000016179055565b6001600160401b0387116107795788948a94610418600c610180510154613e29565b601f8111610719575b50885f601f8211600114610686579161048c93915f5160206155485f395f51905f52979695935f9161067b575b508b60011b905f198d60031b1c191617600c6101805101555b60076101805101549560405196879660018060a01b03169b339b610160519b8961444c565b0390a45f5160206155285f395f51905f526104e860018060a01b036101a05116936040519385610160517f470292d5e9c87e6d5a100a14c56a434c9f25e9e2be1d5efa70c3b5f9aeda505f5f80a3604085526040850191613e61565b91600360208201528061016051930390a242600661018051015561050e610160516148a0565b6040516370a0823160e01b815260048101829052906020826024816001600160a01b0388165afa91821561063a575f92610645575b506101a05191926020926105629190336001600160a01b038816614db1565b6040516370a0823160e01b8152600481019190915292839060249082906001600160a01b03165afa801561063a575f90610602575b6105a19250613fff565b6105b76105af608051614f1a565b82101561400c565b80600561018051015560405190815233907f2c39794ba48d965361d6eb56f0d6366313044d1b5b1758c68643d3e3a39a2c4e60206101605192a360015f556020604051610160518152f35b506020823d602011610632575b8161061c60209383613c3e565b8101031261062e576105a19151610597565b5f80fd5b3d915061060f565b6040513d5f823e3d90fd5b91506020823d602011610673575b8161066060209383613c3e565b8101031261062e57905190610562610543565b3d9150610653565b90508c01355f61044e565b9050600c61018051015f528a60205f20915f5b601f198d1681106106f95750915f5160206155485f395f51905f52979695939161048c95938d601f198116106106e0575b50505060018b811b01600c610180510155610467565b01355f1960038e901b60f8161c191690555f8c816106ca565b9181013583558d99508e98506001909201918c9160209182019101610699565b9193955091939550600c61018051015f5260205f20601f890160051c810160208a10610772575b918b979593918d9795935b601f830160051c82018110610761575050610421565b5f81558d99508e985060010161074b565b5080610740565b634e487b7160e01b5f52604160045260245ffd5b634e487b7160e01b5f52601160045260245ffd5b630f42e6ed60e41b5f5260045ffd5b50873b15610216565b506001600160a01b0388811690851614156101fb565b60405162461bcd60e51b815260206004820152600b60248201526a53656c6c6572207a65726f60a81b6044820152606490fd5b3461062e57602036600319011261062e57602061082060043561520d565b6040516001600160a01b039091168152f35b3461062e57602036600319011261062e5760043561084e61449d565b610857816144f1565b61086081614d80565b805f52600260205260405f20600a81015460ff81166006811015610a1757600161088a9114613f02565b610898600983015415613f46565b60ff8160081c16156109dd5760101c60ff166109a3576108bd60068201541515613f83565b60038101546001600160a01b03161561095257806108e2600760059301544211613fbc565b6108fa60416108f4600c840154613e29565b14613e81565b610903836148d1565b600181015461091b906001600160a01b031684614d11565b50500154906040519182527feb8b5b87fbea5b732b8f4fd82b65d9afef713c799d98da83090f22c45577998d60203393a360015f55005b60405162461bcd60e51b815260206004820152602360248201527f4172626974657220726571756972656420666f722074696d656f75742063616e60448201526218d95b60ea1b6064820152608490fd5b60405162461bcd60e51b81526020600482015260126024820152714d757475616c2063616e63656c20646f6e6560701b6044820152606490fd5b60405162461bcd60e51b8152602060048201526012602482015271135d5cdd081c995c5d595cdd08199a5c9cdd60721b6044820152606490fd5b634e487b7160e01b5f52602160045260245ffd5b3461062e575f36600319011261062e5760206040516107d08152f35b3461062e575f36600319011261062e576040517f00000000000000000000000000000000000000000000000000000000000000006001600160a01b03168152602090f35b3461062e5760e036600319011261062e57600435610aa7613a22565b9060443561ffff8116810361062e576064356001600160401b03811161062e57610ad59036906004016139f5565b60c05260a0526084356001600160401b03811161062e57610afa9036906004016139f5565b9060e0529060c43591610b0b61449d565b610b14846144f1565b5f848152600260205260409020610140819052600301610120819052546001600160a01b0316610e6a5760ff600a610140510154166006811015610a175780610b669115908115610e5f575b5061410d565b4260a4351180610e48575b610b7a90613b6c565b6001600160a01b03851694610c04908390610b96881515613bab565b61014051600101546001600160a01b031661010081905288141580610e2e575b610bbf90614319565b610bca813b15614357565b610bff7f00000000000000000000000000000000000000000000000000000000000000006001600160a01b0316891415614399565b615146565b610c1260c05160a051614590565b610c1e8160e051614590565b60405160208101907fb2fd8bb112d6c331ed2bea1f18103807d9ead94275c9f2f26cadce42f3303879825285604082015286606082015261ffff8416608082015260a43560a08201528460c082015260c08152610c7c60e082613c3e565b519020610cb5610cc3610c8d614603565b92604051928391602083019586909160429261190160f01b8352600283015260228201520190565b03601f198101835282613c3e565b51902090610cea610ce2610cdc3660c05160a051613c7a565b846152ed565b91909161531e565b610100516001600160a01b0390911603610df957610d1991610d13610ce292369060e051613c7a565b906152ed565b61014051600201805490916001600160a01b03918216911603610dc35782610d5c91610d4c610d99956101005188614785565b546001600160a01b031685614785565b836001600160601b0360a01b610120515416176101205155600a61014051019065ffff0000000082549160201b169065ffff000000001916179055565b7fc8d8ceeeb85b71e935c56c5b01b3172ac921f56f0174509be0c62f01e84c39055f80a360015f55005b60405162461bcd60e51b815260206004820152600e60248201526d4261642073656c6c65722073696760901b6044820152606490fd5b60405162461bcd60e51b815260206004820152600d60248201526c4261642062757965722073696760981b6044820152606490fd5b5061014051600201546001600160a01b0316881415610bb6565b5062015180420180421161078d5760a43510610b71565b600191501487610b60565b60405162461bcd60e51b8152602060048201526013602482015272105c989a5d195c88185b1c9958591e481cd95d606a1b6044820152606490fd5b3461062e57610eb336613a38565b90610ebc61449d565b610ec5836144f1565b610ece83614d80565b825f52600260205260405f209160ff600a840154166006811015610a17576001610ef89114613f02565b610f106041610f0a600b860154613e29565b14613ec1565b6004830154610f2c9033906001600160a01b0316868486614902565b156107a157600c8301916001600160401b038211610779578491610f508454613e29565b601f811161109b575b505f93601f821160011461102957815f5160206155285f395f51905f5294955f9161101e575b508260011b905f198460031b1c19161790555b610fa9604051928392604084526040840191613e61565b600360208301520390a2610fbc8261486f565b60028101546001600160a01b0316917f8bcf349ab354486b68c142cea7235e4f7f31f6a425466f569c8ac1d5bc4d00076040610ff88584614c32565b9050600560018060a01b036001870154169501549082519182526020820152a460015f55005b905083013588610f7f565b601f198216815f5260205f20905f5b818110611080575095835f5160206155285f395f51905f52969710611067575b5050600182811b019055610f92565b8401355f19600385901b60f8161c191690558780611058565b8786013583556020978801978a975060019093019201611038565b90919250835f5260205f20601f830160051c810191602084106110e3575b90601f88959493920160051c01905b8181106110d55750610f59565b5f81558794506001016110c8565b90915081906110b9565b3461062e57602036600319011261062e5760043561110961449d565b611112816144f1565b61111b81614f34565b5f8181526002602052604090206003810154611141906001600160a01b03161515613bab565b60ff600a820154166006811015610a1757600161115e9114613f02565b6111678261482f565b60094291015562278d00420180421161078d577f1a9502b6f661da8b0573a0617c121cabe2e93ea05d5239cfab6e9d1734b928c960208392604051908152a233907fd658effe7cf013e5a508b3f1a373b92566494d8b6a7c2970fc964932de1c4dab5f80a360015f55005b3461062e576111e036613a38565b906111e961449d565b6111f2836144f1565b6111fb83614d80565b825f52600260205260405f209060ff600a830154166006811015610a175760026112259114614058565b600982015462278d0081019081811161078d5762279b100180911161078d5742111561147757835f52600460205260ff60405f20541661143257600482015461127b9033906001600160a01b0316868685614acf565b156107a157600c8201906001600160401b038411610779578161129f869354613e29565b601f81116113e0575b505f601f861160011461136757945f5160206155285f395f51905f529291816005975f9161135c575b508260011b905f198460031b1c19161790555b6112fb604051928392604084526040840191613e61565b600460208301520390a2825f5260026020526004835f5160206155c85f395f51905f526020600a60405f20016113368560ff83541692614434565b6113436040518092613a6b565ba3600181015461091b906001600160a01b031684614d11565b9050830135896112d1565b9490601f198216815f5260205f20905f5b8181106113c5575090600597845f5160206155285f395f51905f5296959493106113ac575b5050600182811b0190556112e4565b8401355f19600385901b60f8161c19169055888061139d565b8886013583556020988901988a975060019093019201611378565b90809293505f5260205f20601f860160051c81019160208710611428575b90601f88959493920160051c01905b81811061141a57506112a8565b5f815587945060010161140d565b90915081906113fe565b60405162461bcd60e51b815260206004820152601a60248201527f4465636973696f6e20616c7265616479207375626d69747465640000000000006044820152606490fd5b60405162461bcd60e51b8152602060048201526013602482015272151a5b595bdd5d081b9bdd081c995858da1959606a1b6044820152606490fd5b3461062e576114c036613a9c565b6101e05261020052939895929493929091906114dc8287614fd4565b6114e68484614f84565b6114fa6001600160a01b03881615156141e7565b6001600160a01b038916156119515761151e6001600160a01b038a16331415614220565b611529881515614260565b611536610e43821061429a565b61153f87615030565b9061155461154c83614f1a565b8a10156142da565b6001600160a01b03861691338314158061193e575b61157290614319565b82158015611935575b61158490614357565b6115b97f00000000000000000000000000000000000000000000000000000000000000006001600160a01b0316841415614399565b6115c38c88615146565b6001546101c0526115d66101c0516143e5565b6001556115fa336115e96101c05161520d565b6101c0516101e05161020051614902565b156107a15761160b6101c051615294565b9b6101c0515f52600260205260405f209360018060a01b038b166001600160601b0360a01b865416178555600185018d60018060a01b03166001600160601b0360a01b8254161790556002850160018060a01b0333166001600160601b0360a01b82541617905560038501906001600160601b0360a01b8254161790556116af600a850191829065ffff0000000082549160201b169065ffff000000001916179055565b6004840180546001600160a01b0319166001600160a01b038f16179055600584018b90556116e060018410156143f3565b6201518083029280840462015180149015171561078d5761170a8361172c94600887015542613b5f565b6007850155805463ff0000ff191660189290921b63ff00000016919091179055565b6001600160401b036101e051116107795761174a600b820154613e29565b601f81116118e7575b505f601f6101e0511160011461184f579160076117c394925f5160206155485f395f51905f52989796945f906101e051611841575b506101e05160011b905f196101e05160031b1c191617600b8201555b015495604051968796339c60018060a01b03169b6101c0519b8961444c565b0390a46040516101c05190916001600160a01b0316907f470292d5e9c87e6d5a100a14c56a434c9f25e9e2be1d5efa70c3b5f9aeda505f5f80a3604081525f5160206155685f395f51905f52611823604083016101e05161020051613e61565b9160036020820152806101c051930390a260206040516101c0518152f35b90506102005101358e611788565b600b82015f5260205f20905f5b6101e051601f191681106118cc57506117c394925f5160206155485f395f51905f5298979694926007926101e051601f196101e05116106118ad575b505060016101e051811b01600b8201556117a4565b5f1960f86101e05160031b161c19906102005101351690558d80611898565b9091602060018192856102005101358155019301910161185c565b600b82015f5260205f20601f6101e0510160051c81019160206101e0511061192b575b601f0160051c01905b8181106119205750611753565b5f8155600101611913565b909150819061190a565b50863b1561157b565b506001600160a01b038b16831415611569565b60405162461bcd60e51b815260206004820152600a6024820152694275796572207a65726f60b01b6044820152606490fd5b3461062e57606036600319011261062e5761199c613a22565b6004355f52600560205260405f209060018060a01b03165f5260205260405f206044355f52602052602060405f2054604051908152f35b3461062e575f36600319011261062e576020600154604051908152f35b3461062e576119fe36613a38565b90611a0761449d565b611a10836144f1565b611a1983614f34565b825f52600260205260405f2090600a82019081549360ff85166006811015610a17576001611a47911461410d565b611a5660068501541515613f83565b611a64600985015415613f46565b6004840154611a809033906001600160a01b0316888486614a2d565b156107a157600184019460018060a01b0386541633145f14611ce6575060ff835460081c16611ca157600c8401916001600160401b038211610779578691611ac88454613e29565b601f8111611c4f575b505f93601f8211600114611bdd57815f5160206155285f395f51905f5294955f91611bd2575b508260011b905f198460031b1c19161790555b611b21604051928392604084526040840191613e61565b600560208301520390a2805461ff0019166101001781555b5460ff8160081c169081611bc4575b5015611b975761091b600592611b6660416108f4600c860154613e29565b611b786041610f0a600b860154613e29565b611b81856148d1565b546001600160a01b031684614d11565b60015f55005b505033907f88a867d5d9b489598a3f5e5c8d5c1da163ed116737b70444bac744920904a5735f80a3611b91565b60ff915060101c1684611b48565b90508301358a611af7565b601f198216815f5260205f20905f5b818110611c34575095835f5160206155285f395f51905f52969710611c1b575b5050600182811b019055611b0a565b8401355f19600385901b60f8161c191690558980611c0c565b8786013583556020978801978c975060019093019201611bec565b90919250835f5260205f20601f830160051c81019160208410611c97575b90601f8a959493920160051c01905b818110611c895750611ad1565b5f8155899450600101611c7c565b9091508190611c6d565b60405162461bcd60e51b815260206004820152601760248201527f427579657220616c7265616479207265717565737465640000000000000000006044820152606490fd5b60101c60ff16611e5557600b8401916001600160401b038211610779578691611d0f8454613e29565b601f8111611e03575b505f93601f8211600114611d9157815f5160206155685f395f51905f5294955f91611d86575b508260011b905f198460031b1c19161790555b611d68604051928392604084526040840191613e61565b600560208301520390a2805462ff0000191662010000178155611b39565b90508301358a611d3e565b601f198216815f5260205f20905f5b818110611de8575095835f5160206155685f395f51905f52969710611dcf575b5050600182811b019055611d51565b8401355f19600385901b60f8161c191690558980611dc0565b8786013583556020978801978c975060019093019201611da0565b90919250835f5260205f20601f830160051c81019160208410611e4b575b90601f8a959493920160051c01905b818110611e3d5750611d18565b5f8155899450600101611e30565b9091508190611e21565b60405162461bcd60e51b815260206004820152601860248201527f53656c6c657220616c72656164792072657175657374656400000000000000006044820152606490fd5b3461062e57602036600319011261062e576004356060610220604051611ebf81613c22565b5f81525f60208201525f60408201525f838201525f60808201525f60a08201525f60c08201525f60e08201525f6101008201525f6101208201525f6101408201525f6101608201525f6101808201525f6101a08201525f6101c0820152826101e0820152826102008201520152611f35816144f1565b5f52600260205260405f20604051611f4c81613c22565b81546001600160a01b0390811682526001830154811660208301526002830154811660408301526003830154811660608301526004830154166080820152600582015460a082015260068083015460c0830152600783015460e083015260088301546101008301526009830154610120830152600a83015460ff811691821015610a175761217e9361ffff600d926120439461014087015260ff8160081c16151561016087015260ff8160101c16151561018087015260ff8160181c166101a087015260201c166101c0850152612025600b8201614147565b6101e0850152612037600c8201614147565b61020085015201614147565b6102208201526040519182916020835260018060a01b03815116602084015260018060a01b03602082015116604084015260018060a01b03604082015116606084015260018060a01b03606082015116608084015260018060a01b0360808201511660a084015260a081015160c084015260c081015160e084015260e08101516101008401526101008101516101208401526101208101516101408401526120f5610140820151610160850190613a6b565b610160810151151561018084015261018081015115156101a084015260ff6101a0820151166101c084015261ffff6101c0820151166101e08401526102206121696121536101e0840151610240610200880152610260870190613a78565b610200840151868203601f190184880152613a78565b910151838203601f1901610240850152613a78565b0390f35b3461062e5761219036613a38565b9061219961449d565b6121a2836144f1565b825f52600260205260405f206121c560018060a01b036002830154163314614093565b60ff600a820154166006811015610a175760016121e2911461410d565b60048101546121fe9033906001600160a01b0316868686614902565b156107a157600b0180549061221282613e29565b1515916001600160401b0385116107795761222c90613e29565b601f811161236e575b50835f601f821160011461230a575f916122ff575b508460011b905f198660031b1c19161790555b156122a4577f9f91c43a9c810c8b0a79dc8dec5c0ed9f7be6ef2090ebde9e83c83fb2bd2ed1b9161229b604051928392602084526020840191613e61565b0390a260015f55005b5f5160206155685f395f51905f52916122f060405192839233877f5b09e2f1aabe74a8fc19114f298046a9fa1214365ec1d728e534a291aff17a4f5f80a3604084526040840191613e61565b600360208301520390a2611b91565b90508301358661224a565b5f8381526020812092508690601f198216905b81811061235357501061233a575b5050600184811b01905561225d565b8401355f19600387901b60f8161c19169055858061232b565b8784013585556001909401936020938401938993500161231d565b815f5260205f20601f860160051c810191602087106123a9575b601f0160051c01905b81811061239e5750612235565b5f8155600101612391565b9091508190612388565b3461062e57606036600319011261062e57600435602435906004821091821561062e576044356001600160401b03811161062e576123f59036906004016139f5565b91906123ff61449d565b612408846144f1565b61241184614f34565b835f52600260205260405f2060ff600a820154166006811015610a1757600261243a9114614058565b6124448483614f84565b845f52600660205260405f205490600184145f1461250e57600101546001600160a01b031633036124dc578061247e6001809316156140cd565b175b845f52600660205260405f20556040519415610a17577f4e71d2a3ce09c95d708a8bc888cb8838c8419bea1f25f6d07f2c601b173f720e926124cf928652604060208701526040860191613e61565b928033940390a360015f55005b60405162461bcd60e51b815260206004820152600a60248201526927b7363c90313abcb2b960b11b6044820152606490fd5b906002840361254357600291820154612531906001600160a01b03163314614093565b61253d828216156140cd565b17612480565b60405162461bcd60e51b815260206004820152600c60248201526b496e76616c696420726f6c6560a01b6044820152606490fd5b3461062e5761258536613a38565b919061258f61449d565b612598826144f1565b6125a182614d80565b815f52600260205260405f20600a81019160ff8354166006811015610a17576128f6576007820180544210156128c0576125df600884015442613b5f565b90556004820180549095906126019033906001600160a01b0316878486614902565b156107a157600c8301916001600160401b0382116107795785916126258454613e29565b601f811161286e575b505f93601f82116001146127fc57815f5160206155285f395f51905f5294955f916127f1575b508260011b905f198460031b1c19161790555b61267e604051928392604084526040840191613e61565b600360208301520390a2426006820155612697836148a0565b805484546040516370a0823160e01b81526001600160a01b0391821660048201819052909690939092909116602087602481845afa96871561063a575f976127b9575b50906126f160209260058301958654913390614db1565b5491546040516370a0823160e01b81526001600160a01b0391821660048201529283916024918391165afa90811561063a575f91612785575b5061274a61273d60ff9661275293613fff565b9586945460181c16614f1a565b83101561400c565b556040519182527f71284872bb4c088a81295dff2513729babbccfeda38a8d824bb1a73bcaab494e60203393a360015f55005b90506020813d6020116127b1575b816127a060209383613c3e565b8101031261062e575161274a61272a565b3d9150612793565b919096506020823d6020116127e9575b816127d660209383613c3e565b8101031261062e579051956126f16126da565b3d91506127c9565b90508301358a612654565b601f198216815f5260205f20905f5b818110612853575095835f5160206155285f395f51905f5296971061283a575b5050600182811b019055612667565b8401355f19600385901b60f8161c19169055898061282b565b8786013583556020978801978b97506001909301920161280b565b90919250835f5260205f20601f830160051c810191602084106128b6575b90601f89959493920160051c01905b8181106128a8575061262e565b5f815588945060010161289b565b909150819061288c565b60405162461bcd60e51b815260206004820152600e60248201526d115cd8dc9bddc8195e1c1a5c995960921b6044820152606490fd5b60405162461bcd60e51b8152602060048201526014602482015273139bdd08185dd85a5d1a5b99c81c185e5b595b9d60621b6044820152606490fd5b3461062e57602036600319011261062e5760043561294e61449d565b612957816144f1565b5f81815260026020819052604090912001546001600160a01b03163303612a8a57805f52600260205260405f2090600a82015460ff8116906006821015610a17576129a6600160ff9314613f02565b6129b4600985015415613f46565b60081c16612a4c576129cb60068301541515613f83565b6129da60078301544211613fbc565b6129ec6041610f0a600b850154613e29565b6129f58161486f565b60028201546001600160a01b0316917f489d0b4f43659843daba0a17983382a3e77f5399083ac5405143fcf6806f8ca0906040906005612a358686614c32565b92905001549082519182526020820152a360015f55005b60405162461bcd60e51b8152602060048201526016602482015275109d5e595c881c995c5d595cdd19590818d85b98d95b60521b6044820152606490fd5b6342e8fb9360e11b5f5260045ffd5b3461062e575f36600319011261062e576020604051610e108152f35b3461062e575f36600319011261062e576020612acf614603565b604051908152f35b3461062e5760a036600319011261062e576004356024356001600160401b03811161062e57612b0a9036906004016139f5565b9091604435916064356084356001600160401b03811161062e57612b329036906004016139f5565b91612b3b61449d565b612b44856144f1565b42861180612f54575b612b5690613b6c565b845f52600260205260405f209060ff600a830154166006811015610a17576001612b809114613be6565b60418503612f1b57612b928589614590565b612b9e60418514613e81565b612ba88484614590565b600b820154612bb690613e29565b604114612bc290613ec1565b6001820197600160a01b6001900389541695600284019688600160a01b60019003895416600160a01b600190036003880154169b600160a01b600190038854169c600589019d8e549060068b0154926040519560208701977f2175432d6c7eab3a2ef5708fc419540c0f4d274cabd17912c92683ed8466b5e989526040880152886060880152608087015260a086015260c085015260e0840152610100830152610120820152856101408201526101408152612c8061016082613c3e565b519020612c8b614603565b60405161190160f01b60208201908152602282019290925260428082019390935291825290612cbb606282613c3e565b519020612cc9368486613c7a565b612cd2916152ed565b612cdb9061531e565b6001600160a01b0316612cef811515613cb0565b14612cf990613cef565b612d0391886146a8565b8754612d1991906001600160a01b031687614785565b60048101548754612d39916001600160a01b039182169116878686614902565b156107a157600c01916001600160401b0381116107795782612d5c869454613e29565b601f8111612ec7575b505f601f8311600114612e2c5792825f5160206155285f395f51905f5292604096947f8bcf349ab354486b68c142cea7235e4f7f31f6a425466f569c8ac1d5bc4d000798965f91612e21575b508260011b905f198460031b1c19161790555b612dd8865192839288845288840191613e61565b600360208301520390a2612deb8461486f565b546001600160a01b031694612e008685614c32565b91905060018060a01b0390541694549082519182526020820152a460015f55005b90508301358c612db1565b601f19831690825f5260205f20915f5b818110612eac5750927f8bcf349ab354486b68c142cea7235e4f7f31f6a425466f569c8ac1d5bc4d00079795928592604098965f5160206155285f395f51905f529610612e93575b5050600182811b019055612dc4565b8401355f19600385901b60f8161c191690558b80612e84565b82870135845589975060019093019260209283019201612e3c565b9080929394505f5260205f20601f840160051c81019160208510612f11575b90601f8896959493920160051c01905b818110612f035750612d65565b5f8155879550600101612ef6565b9091508190612ee6565b60405162461bcd60e51b81526020600482015260116024820152704d697373696e6720636f6f72642073696760781b6044820152606490fd5b5062015180420180421161078d578610612b4d565b3461062e57608036600319011261062e576004356024356006811090811561062e576044356001600160401b03811161062e57612faa9036906004016139f5565b9190926064356001600160401b03811161062e57612fcc9036906004016139f5565b939091612fd761449d565b612fe0876144f1565b5f878152600260205260409020600301546001600160a01b0316330361359e57865f52600260205260405f209560ff600a880154166006811015610a1757600261302a9114613be6565b5f936003861496878015613591575b1561355757895f52600660205260405f2054600181161515908161354a575b5060098a015462278d0081019081811161078d5762279b100180911161078d578115613540575b50156134fb57895f52600460205260ff60405f2054166134c457895f52600460205260405f20600160ff198254161790556130ca873360018060a01b0360048d0154168d8587614b71565b156107a157600d8901916001600160401b038211610779578a916130ee8454613e29565b601f8111613472575b505f93601f82116001146133e257817f57412d44e703b55c5b25344650a0be1705d9c1d43b83c69c9ff84db2f4d1b0e394955f916133d7575b508260011b905f198460031b1c19161790555b61315a604051928392604084526040840191613e61565b613167602083018b613a6b565b0390a2875f526002602052600a60405f2001916131898660ff85541694614434565b15610a17576131ee7f4e71d2a3ce09c95d708a8bc888cb8838c8419bea1f25f6d07f2c601b173f720e91868a5f5160206155c85f395f51905f52602082976131d46040518092613a6b565ba36040519460038652604060208701526040860191613e61565b928033940390a3610a175781156133c45760028301546001600160a01b03165b845f5260026020528460405f20935f14613382575060ff600a600585015494015460181c16600281115f14613378576001190160ff811161078d5761325290614f09565b606484028481046064148515171561078d576127109004908082106133705750905b8382101561332b577ffc4c84ff0bf9d937dea068e6c13c3a16c307d76a1c5b5173c40f03f68f421e0094865f5160206155885f395f51905f5260806005946132bd87839a613fff565b6040519160018060a01b03168252602082015260018060a01b037f0000000000000000000000000000000000000000000000000000000000000000166040820152866060820152a201546133146040518094613a6b565b33602084015260408301526060820152a260015f55005b60405162461bcd60e51b815260206004820152601860248201527f416d6f756e7420746f6f20736d616c6c20666f722066656500000000000000006044820152606490fd5b905090613274565b506132525f614f09565b7ffc4c84ff0bf9d937dea068e6c13c3a16c307d76a1c5b5173c40f03f68f421e00946005915f5160206155885f395f51905f5260808481980154955f966132bd565b60018301546001600160a01b031661320e565b90508301358e613130565b601f198216815f5260205f20905f5b81811061344c575095837f57412d44e703b55c5b25344650a0be1705d9c1d43b83c69c9ff84db2f4d1b0e3969710613433575b5050600182811b019055613143565b8401355f19600385901b60f8161c191690558d80613424565b92949693955090602060018192868a013581550194019201908e959391969492966133f1565b90919250835f5260205f20601f830160051c810191602084106134ba575b90601f8e959493920160051c01905b8181106134ac57506130f7565b5f81558d945060010161349f565b9091508190613490565b60405162461bcd60e51b815260206004820152600f60248201526e105b1c9958591e48191958da591959608a1b6044820152606490fd5b60405162461bcd60e51b815260206004820152601860248201527f4e6565642065766964656e6365206f722074696d656f757400000000000000006044820152606490fd5b905042118b61307f565b600291501615158b613058565b60405162461bcd60e51b815260206004820152601260248201527124b73b30b634b2103932b9b7b63aba34b7b760711b6044820152606490fd5b505f955060048714613039565b6372cc71e760e11b5f5260045ffd5b3461062e575f36600319011261062e57602060405162278d008152f35b3461062e57606036600319011261062e576004356135e6613a22565b60443590600682101561062e576135fc836144f1565b5f83815260026020526040902060018101546001600160a01b0383811691168114908115613722575b811561370b575b50156136d257613688610cb59261369e602096610cb56136c79561364e613d31565b8a815191012061365c613d62565b8b815191012091600460018060a01b0391015416968791610cb56040519384928f840196469188613d81565b519020976040519485938b850197309189613dcd565b5190206040519283918683019586909160429261190160f01b8352600283015260228201520190565b519020604051908152f35b60405162461bcd60e51b8152602060048201526011602482015270139bdd0818481c185c9d1a58da5c185b9d607a1b6044820152606490fd5b60038301546001600160a01b03161490508561362c565b60028301546001600160a01b031681149150613625565b3461062e57602036600319011261062e576004355f526006602052602060405f2054604051908152f35b3461062e575f36600319011261062e576040517f00000000000000000000000000000000000000000000000000000000000000006001600160a01b03168152602090f35b3461062e57608036600319011261062e576004356024356001600160401b03811161062e576137da9036906004016139f5565b60443592916064356137ea61449d565b6137f3846144f1565b428511806139e0575b61380590613b6c565b5f84815260026020526040902060038101549093906001600160a01b031661382e811515613bab565b60ff600a86015416916006831015610a17576139649461395861395e9361385a60016139329714613be6565b6138648484614590565b61392a8a60018060a01b0360018c015416809d8c600260018060a01b0391015416948d60018060a01b0381541660066005830154920154926040519560208701977f3ec4667e1948e2e97f54b4602b6bbfa8f3f98ff1036916ce75d84c59f9558f0289526040880152606087015288608087015260a086015260c085015260e084015261010083015261012082015289610140820152610140815261390b61016082613c3e565b519020610cb561391c610c8d614603565b519020610d13368787613c7a565b96909661531e565b6001600160a01b0386169a6139488c1515613cb0565b8b149081156139d6575b50613cef565b876146a8565b84614785565b61396d8261482f565b60094291015562278d00420180421161078d577f1a9502b6f661da8b0573a0617c121cabe2e93ea05d5239cfab6e9d1734b928c960208392604051908152a27fd658effe7cf013e5a508b3f1a373b92566494d8b6a7c2970fc964932de1c4dab5f80a360015f55005b90508a148b613952565b5062015180420180421161078d5785106137fc565b9181601f8401121561062e578235916001600160401b03831161062e576020838186019501011161062e57565b602435906001600160a01b038216820361062e57565b90604060031983011261062e5760043591602435906001600160401b03821161062e57613a67916004016139f5565b9091565b906006821015610a175752565b805180835260209291819084018484015e5f828201840152601f01601f1916010190565b61012060031982011261062e576004356001600160a01b038116810361062e57916024356001600160a01b038116810361062e579160443591606435916084356001600160a01b038116810361062e579160a43561ffff8116810361062e579160c4356001600160401b03811161062e5781613b1a916004016139f5565b9290929160e4356001600160401b03811161062e5781613b3c916004016139f5565b9290929161010435906001600160401b03821161062e57613a67916004016139f5565b9190820180921161078d57565b15613b7357565b60405162461bcd60e51b815260206004820152601060248201526f496e76616c696420646561646c696e6560801b6044820152606490fd5b15613bb257565b60405162461bcd60e51b815260206004820152600c60248201526b2d32b9379030b93134ba32b960a11b6044820152606490fd5b15613bed57565b60405162461bcd60e51b815260206004820152600d60248201526c496e76616c696420737461746560981b6044820152606490fd5b61024081019081106001600160401b0382111761077957604052565b90601f801991011681019081106001600160401b0382111761077957604052565b6001600160401b03811161077957601f01601f191660200190565b929192613c8682613c5f565b91613c946040519384613c3e565b82948184528183011161062e578281602093845f960137010152565b15613cb757565b60405162461bcd60e51b815260206004820152601060248201526f496e76616c6964207265636f7665727960801b6044820152606490fd5b15613cf657565b60405162461bcd60e51b81526020600482015260136024820152722ab730baba3437b934bd32b21039b4b3b732b960691b6044820152606490fd5b60405190613d40604083613c3e565b601382527214185b1a5b991c9bdb5954185e55d85b1b195d606a1b6020830152565b60405190613d71604083613c3e565b60018252603160f81b6020830152565b926080929594919560a08501967f8b73c3c69bb8fe3d512ecc4cf759cc79239f7b179b0ffacaa9a75d522b39400f865260208601526040850152606084015260018060a01b0316910152565b7f03ead94b7a0d2ab026418d8f153693558d351b0ee03896a32629040faf1baff4815260208101919091526001600160a01b0391821660408201529181166060830152909116608082015260ff9190911660a082015260c00190565b90600182811c92168015613e57575b6020831014613e4357565b634e487b7160e01b5f52602260045260245ffd5b91607f1691613e38565b908060209392818452848401375f828201840152601f01601f1916010190565b15613e8857565b60405162461bcd60e51b81526020600482015260116024820152704d697373696e672062757965722073696760781b6044820152606490fd5b15613ec857565b60405162461bcd60e51b81526020600482015260126024820152714d697373696e672073656c6c65722073696760701b6044820152606490fd5b15613f0957565b60405162461bcd60e51b81526020600482015260156024820152744e6f74206177616974696e672064656c697665727960581b6044820152606490fd5b15613f4d57565b60405162461bcd60e51b815260206004820152600e60248201526d446973707574652061637469766560901b6044820152606490fd5b15613f8a57565b60405162461bcd60e51b815260206004820152600a602482015269139bc819195c1bdcda5d60b21b6044820152606490fd5b15613fc357565b60405162461bcd60e51b815260206004820152601460248201527313585d1d5c9a5d1e481b9bdd081c995858da195960621b6044820152606490fd5b9190820391821161078d57565b1561401357565b60405162461bcd60e51b815260206004820152601f60248201527f416d6f756e7420746f6f20736d616c6c206166746572207472616e73666572006044820152606490fd5b1561405f57565b60405162461bcd60e51b815260206004820152600c60248201526b139bdd08191a5cdc1d5d195960a21b6044820152606490fd5b1561409a57565b60405162461bcd60e51b815260206004820152600b60248201526a27b7363c9039b2b63632b960a91b6044820152606490fd5b156140d457565b60405162461bcd60e51b8152602060048201526011602482015270105b1c9958591e481cdd589b5a5d1d1959607a1b6044820152606490fd5b1561411457565b60405162461bcd60e51b815260206004820152600b60248201526a57726f6e6720737461746560a81b6044820152606490fd5b9060405191825f82549261415a84613e29565b80845293600181169081156141c55750600114614181575b5061417f92500383613c3e565b565b90505f9291925260205f20905f915b8183106141a957505090602061417f928201015f614172565b6020919350806001915483858901015201910190918492614190565b90506020925061417f94915060ff191682840152151560051b8201015f614172565b156141ee57565b60405162461bcd60e51b815260206004820152600a602482015269546f6b656e207a65726f60b01b6044820152606490fd5b1561422757565b60405162461bcd60e51b815260206004820152601160248201527042757965722073656c6c65722073616d6560781b6044820152606490fd5b1561426757565b60405162461bcd60e51b815260206004820152600b60248201526a416d6f756e74207a65726f60a81b6044820152606490fd5b156142a157565b60405162461bcd60e51b81526020600482015260116024820152704d6174757269747920746f6f206c6f6e6760781b6044820152606490fd5b156142e157565b60405162461bcd60e51b815260206004820152601060248201526f105b5bdd5b9d081d1bdbc81cdb585b1b60821b6044820152606490fd5b1561432057565b60405162461bcd60e51b815260206004820152600f60248201526e24b73b30b634b21030b93134ba32b960891b6044820152606490fd5b1561435e57565b60405162461bcd60e51b815260206004820152601360248201527241726269746572206d75737420626520454f4160681b6044820152606490fd5b156143a057565b60405162461bcd60e51b815260206004820152601e60248201527f417262697465722063616e6e6f742062652066656520726563656976657200006044820152606490fd5b5f19811461078d5760010190565b156143fa57565b60405162461bcd60e51b81526020600482015260126024820152714d696e203120646179206d6174757269747960701b6044820152606490fd5b906006811015610a175760ff80198354169116179055565b96949261449a98969261448c959260018060a01b03168952602089015260018060a01b03166040880152606087015260c0608087015260c0860191613e61565b9260a0818503910152613e61565b90565b60025f54146144ac5760025f55565b60405162461bcd60e51b815260206004820152601f60248201527f5265656e7472616e637947756172643a207265656e7472616e742063616c6c006044820152606490fd5b600154811015614553575f908152600260205260409020600101546001600160a01b03161561451c57565b60405162461bcd60e51b815260206004820152600f60248201526e139bdd081a5b9a5d1a585b1a5e9959608a1b6044820152606490fd5b60405162461bcd60e51b8152602060048201526015602482015274115cd8dc9bddc8191bd95cc81b9bdd08195e1a5cdd605a1b6044820152606490fd5b906041036145f4575f5160206155a85f395f51905f52602060408301355f1a920135116145e557601b81141590816145d9575b506145ca57565b6307839aef60e21b5f5260045ffd5b601c915014155f6145c3565b6354b34b0360e01b5f5260045ffd5b6354f3472360e01b5f5260045ffd5b467f00000000000000000000000000000000000000000000000000000000000000000361464e577f000000000000000000000000000000000000000000000000000000000000000090565b600d6020604051614660604082613c3e565b828152016c50616c696e64726f6d6550617960981b815220610cb56146a2614686613d62565b6020815191012060405192839160208301953091469188613d81565b51902090565b916041036145f457602081013560408201355f1a5f5160206155a85f395f51905f5282116145e557601b8114159081614779575b506145ca576040519060208201923060601b845284603484015235605483015260748201524660948201526094815261471660b482613c3e565b519020805f52600360205260ff60405f20541661476a57805f52600360205260405f20600160ff198254161790557f5cf314d14d264e3917100f2209e080567dfef92e06bde70b72b0b21b38bc17d15f80a3565b63900bb2c960e01b5f5260045ffd5b601c915014155f6146dc565b908260081c825f52600560205260405f2060018060a01b0383165f5260205260405f20815f5260205260405f205491600160ff86161b808416614820577fbae8ea991a760004b9ed95b1be79b85f9327ac74867c0e7643319b89e1bc719193602093865f526005855260405f2060018060a01b0385165f52855260405f20905f5284521760405f205560405194855260018060a01b031693a3565b633ab3447f60e11b5f5260045ffd5b600290805f52816020525f5160206155c85f395f51905f526020600a60405f200161485f8560ff83541692614434565b61486c6040518092613a6b565ba3565b600390805f5260026020525f5160206155c85f395f51905f526020600a60405f200161485f8560ff83541692614434565b600190805f5260026020525f5160206155c85f395f51905f526020600a60405f200161485f8560ff83541692614434565b600590805f5260026020525f5160206155c85f395f51905f526020600a60405f200161485f8560ff83541692614434565b9293919060401901614a25576001600160a01b038216938415614a1c5760208401359160408501355f1a905f5160206155a85f395f51905f528411614a0657601b82141580614a11575b614a06576149f9956149ef6149e194610ce2976149b761496a613d31565b602081519101208361499b61497d613d62565b6020815191012092610cb56040519384926020840196469188613d81565b51902095610cb560036040519485936020850197309189613dcd565b519020604051958691602083019586909160429261190160f01b8352600283015260228201520190565b03601f198101865285613c3e565b3592519020615422565b6001600160a01b03161490565b505050505050505f90565b50601c82141561494c565b50505050505f90565b505050505f90565b9293919060401901614a25576001600160a01b038216938415614a1c5760208401359160408501355f1a905f5160206155a85f395f51905f528411614a0657601b82141580614ac4575b614a06576149f9956149ef6149e194610ce2976149b7614a95613d31565b6020815191012083614aa861497d613d62565b51902095610cb560056040519485936020850197309189613dcd565b50601c821415614a77565b9293919060401901614a25576001600160a01b038216938415614a1c5760208401359160408501355f1a905f5160206155a85f395f51905f528411614a0657601b82141580614b66575b614a06576149f9956149ef6149e194610ce2976149b7614b37613d31565b6020815191012083614b4a61497d613d62565b51902095610cb560046040519485936020850197309189613dcd565b50601c821415614b19565b949293929060401901614a1c576001600160a01b038316948515614c285760208101359260408201355f1a915f5160206155a85f395f51905f528511614c1157601b83141580614c1d575b614c1157614bc8613d31565b6020815191012087614bdb61497d613d62565b519020916006851015610a17576149f997610ce2976149b76149ef93610cb56149e1996040519485936020850197309189613dcd565b50505050505050505f90565b50601c831415614bbc565b5050505050505f90565b9091815f52600260205260405f209160ff600a600585015494015460181c16600281115f14614d07576001190160ff811161078d57614c7090614f09565b606484028481046064148515171561078d57612710900490808210614cff5750925b8084101561332b576080614cb4855f5160206155885f395f51905f5293613fff565b604080516001600160a01b039889168152602081018390527f0000000000000000000000000000000000000000000000000000000000000000909816908801526060870186905295a2565b905092614c92565b50614c705f614f09565b91825f526002602052600560405f200154925f5160206155885f395f51905f5260805f946040519060018060a01b0316815286602082015260018060a01b037f00000000000000000000000000000000000000000000000000000000000000001660408201525f6060820152a2565b5f908152600260205260409020600101546001600160a01b03163303614da257565b6386efbb5560e01b5f5260045ffd5b6040516323b872dd60e01b602082019081526001600160a01b039384166024830152929093166044840152606480840194909452928252614e70925f908190614dfb608486613c3e565b60018060a01b03169260405194614e13604087613c3e565b602086527f5361666545524332303a206c6f772d6c6576656c2063616c6c206661696c65646020870152519082855af13d15614f01573d91614e5483613c5f565b92614e626040519485613c3e565b83523d5f602085013e61548a565b8051908115918215614ede575b505015614e8657565b60405162461bcd60e51b815260206004820152602a60248201527f5361666545524332303a204552433230206f7065726174696f6e20646964206e6044820152691bdd081cdd58d8d9595960b21b6064820152608490fd5b819250906020918101031261062e5760200151801515810361062e575f80614e7d565b60609161548a565b60ff16604d811161078d57600a0a90565b614f2390614f09565b80600a0290600a82040361078d5790565b5f52600260205260405f2060018060a01b036001820154163314159081614f6c575b50614f5d57565b631cfe2f0560e11b5f5260045ffd5b600201546001600160a01b031633141590505f614f56565b506101f410614f8f57565b60405162461bcd60e51b815260206004820152601860248201527f496e76616c696420495046532068617368206c656e67746800000000000000006044820152606490fd5b508015159081615023575b5015614fe757565b60405162461bcd60e51b8152602060048201526014602482015273092dcecc2d8d2c840e8d2e8d8ca40d8cadccee8d60631b6044820152606490fd5b6101f4915011155f614fdf565b60405163313ce56760e01b815290602090829060049082906001600160a01b0316617530fa5f9181615108575b506150a75760405162461bcd60e51b815260206004820152601f60248201527f546f6b656e206d75737420696d706c656d656e7420646563696d616c732829006044820152606490fd5b60ff8116600681101590816150fc575b50156150c05790565b60405162461bcd60e51b8152602060048201526014602482015273556e737570706f7274656420646563696d616c7360601b6044820152606490fd5b6012915011155f6150b7565b9091506020813d60201161513e575b8161512460209383613c3e565b8101031261062e575160ff8116810361062e57905f61505d565b3d9150615117565b9061ffff16906107d082116151b2576001600160a01b031615801591906151a9575b501561517057565b60405162461bcd60e51b81526020600482015260116024820152702332b2903732b2b2399030b93134ba32b960791b6044820152606490fd5b9050155f615168565b60405162461bcd60e51b8152602060048201526014602482015273082e4c4d2e8cae440cccaca40e8dede40d0d2ced60631b6044820152606490fd5b9081602091031261062e57516001600160a01b038116810361062e5790565b604051633aa159bd60e21b815230600482015260248101919091526020816044817f00000000000000000000000000000000000000000000000000000000000000006001600160a01b03165afa90811561063a575f9161526b575090565b61449a915060203d60201161528d575b6152858183613c3e565b8101906151ee565b503d61527b565b60405163a5e3875160e01b815260048101919091526020816024815f7f00000000000000000000000000000000000000000000000000000000000000006001600160a01b03165af190811561063a575f9161526b575090565b9060418151145f1461531557613a6791602082015190606060408401519301515f1a90615422565b50505f90600290565b6005811015610a17578061532f5750565b6001810361537c5760405162461bcd60e51b815260206004820152601860248201527f45434453413a20696e76616c6964207369676e617475726500000000000000006044820152606490fd5b600281036153c95760405162461bcd60e51b815260206004820152601f60248201527f45434453413a20696e76616c6964207369676e6174757265206c656e677468006044820152606490fd5b6003146153d257565b60405162461bcd60e51b815260206004820152602260248201527f45434453413a20696e76616c6964207369676e6174757265202773272076616c604482015261756560f01b6064820152608490fd5b5f5160206155a85f395f51905f52841161547f576020935f9360ff60809460405194855216868401526040830152606082015282805260015afa1561063a575f516001600160a01b0381161561547757905f90565b505f90600190565b505050505f90600390565b919290156154ec575081511561549e575090565b3b156154a75790565b60405162461bcd60e51b815260206004820152601d60248201527f416464726573733a2063616c6c20746f206e6f6e2d636f6e74726163740000006044820152606490fd5b8251909150156154ff5750805190602001fd5b60405162461bcd60e51b815260206004820152908190615523906024830190613a78565b0390fdfe174e8bcc6cd491d4b67e8de6434204bcd60d47ac398eb1b84c75377f8143e055d3e0574cb952cf8d88c9c2b97882e6000237da1d62a64753eaddaf4d9ce7351b9eedc423c5404cfbb1c4a1a8143c199705d49105373899268143a1a9e3f06bb54efd0eb8137437cc21ded7c1b056cd5a6e457ad8830e42d74bb9ba46144dbe837fffffffffffffffffffffffffffffff5d576e7357a4501ddfe92f46681b20a018e785d11512625ba8e5486b7d963f337dfc0a628752fe18e284b0375eefe46ca264697066735822122007502b15ef0834736e3e3104068ef211f9e610430becb7942ee7f25c8da79af064736f6c634300081d0033",
  "linkReferences": {},
  "deployedLinkReferences": {},
  "immutableReferences": {
    "3211": [
      {
        "length": 32,
        "start": 559
      },
      {
        "length": 32,
        "start": 2652
      },
      {
        "length": 32,
        "start": 3023
      },
      {
        "length": 32,
        "start": 5513
      },
      {
        "length": 32,
        "start": 13017
      },
      {
        "length": 32,
        "start": 19662
      },
      {
        "length": 32,
        "start": 19794
      }
    ],
    "3215": [
      {
        "length": 32,
        "start": 14200
      },
      {
        "length": 32,
        "start": 21040
      },
      {
        "length": 32,
        "start": 21170
      }
    ],
    "3218": [
      {
        "length": 32,
        "start": 17964
      }
    ],
    "3221": [
      {
        "length": 32,
        "start": 17926
      }
    ]
  },
  "inputSourceName": "project/contracts/PalindromePay.sol",
  "buildInfoId": "solc-0_8_29-bb0c19b7c2d5e8412b6b213cd13ab498d01c4036"
}