{
  "_format": "hh3-artifact-1",
  "contractName": "PalindromePay",
  "sourceName": "contracts/PalindromePay.sol",
  "abi": [
    {
      "inputs": [
        {
          "internalType": "address",
          "name": "_feeReceiver",
          "type": "address"
        },
        {
          "internalType": "address",
          "name": "_walletFactory",
          "type": "address"
        }
      ],
      "stateMutability": "nonpayable",
      "type": "constructor"
    },
    {
      "inputs": [],
      "name": "InvalidNonce",
      "type": "error"
    },
    {
      "inputs": [],
      "name": "InvalidWalletSignature",
      "type": "error"
    },
    {
      "inputs": [],
      "name": "NotParticipant",
      "type": "error"
    },
    {
      "inputs": [],
      "name": "OnlyArbiter",
      "type": "error"
    },
    {
      "inputs": [],
      "name": "OnlyBuyer",
      "type": "error"
    },
    {
      "inputs": [],
      "name": "OnlyBuyerOrSeller",
      "type": "error"
    },
    {
      "inputs": [],
      "name": "OnlySeller",
      "type": "error"
    },
    {
      "inputs": [],
      "name": "SignatureAlreadyUsed",
      "type": "error"
    },
    {
      "inputs": [],
      "name": "SignatureLengthInvalid",
      "type": "error"
    },
    {
      "inputs": [],
      "name": "SignatureSInvalid",
      "type": "error"
    },
    {
      "inputs": [],
      "name": "SignatureVInvalid",
      "type": "error"
    },
    {
      "anonymous": false,
      "inputs": [
        {
          "indexed": true,
          "internalType": "uint256",
          "name": "escrowId",
          "type": "uint256"
        },
        {
          "indexed": false,
          "internalType": "bytes",
          "name": "arbiterSig",
          "type": "bytes"
        }
      ],
      "name": "ArbiterWalletSigAttached",
      "type": "event"
    },
    {
      "anonymous": false,
      "inputs": [
        {
          "indexed": true,
          "internalType": "uint256",
          "name": "escrowId",
          "type": "uint256"
        },
        {
          "indexed": true,
          "internalType": "address",
          "name": "seller",
          "type": "address"
        },
        {
          "indexed": false,
          "internalType": "uint256",
          "name": "amount",
          "type": "uint256"
        },
        {
          "indexed": false,
          "internalType": "uint256",
          "name": "fee",
          "type": "uint256"
        }
      ],
      "name": "AutoReleased",
      "type": "event"
    },
    {
      "anonymous": false,
      "inputs": [
        {
          "indexed": true,
          "internalType": "uint256",
          "name": "escrowId",
          "type": "uint256"
        },
        {
          "indexed": false,
          "internalType": "bytes",
          "name": "buyerSig",
          "type": "bytes"
        }
      ],
      "name": "BuyerWalletSigAttached",
      "type": "event"
    },
    {
      "anonymous": false,
      "inputs": [
        {
          "indexed": true,
          "internalType": "uint256",
          "name": "escrowId",
          "type": "uint256"
        },
        {
          "indexed": true,
          "internalType": "address",
          "name": "initiator",
          "type": "address"
        },
        {
          "indexed": false,
          "internalType": "uint256",
          "name": "amount",
          "type": "uint256"
        }
      ],
      "name": "Canceled",
      "type": "event"
    },
    {
      "anonymous": false,
      "inputs": [
        {
          "indexed": true,
          "internalType": "uint256",
          "name": "escrowId",
          "type": "uint256"
        },
        {
          "indexed": true,
          "internalType": "address",
          "name": "buyer",
          "type": "address"
        },
        {
          "indexed": true,
          "internalType": "address",
          "name": "seller",
          "type": "address"
        },
        {
          "indexed": false,
          "internalType": "uint256",
          "name": "amount",
          "type": "uint256"
        },
        {
          "indexed": false,
          "internalType": "uint256",
          "name": "fee",
          "type": "uint256"
        }
      ],
      "name": "DeliveryConfirmed",
      "type": "event"
    },
    {
      "anonymous": false,
      "inputs": [
        {
          "indexed": true,
          "internalType": "uint256",
          "name": "escrowId",
          "type": "uint256"
        },
        {
          "indexed": false,
          "internalType": "uint256",
          "name": "longDeadline",
          "type": "uint256"
        }
      ],
      "name": "DisputeDeadlinesSet",
      "type": "event"
    },
    {
      "anonymous": false,
      "inputs": [
        {
          "indexed": true,
          "internalType": "uint256",
          "name": "escrowId",
          "type": "uint256"
        },
        {
          "indexed": true,
          "internalType": "address",
          "name": "sender",
          "type": "address"
        },
        {
          "indexed": false,
          "internalType": "enum PalindromePay.Role",
          "name": "role",
          "type": "uint8"
        },
        {
          "indexed": false,
          "internalType": "string",
          "name": "ipfsHash",
          "type": "string"
        }
      ],
      "name": "DisputeMessagePosted",
      "type": "event"
    },
    {
      "anonymous": false,
      "inputs": [
        {
          "indexed": true,
          "internalType": "uint256",
          "name": "escrowId",
          "type": "uint256"
        },
        {
          "indexed": false,
          "internalType": "enum PalindromePay.State",
          "name": "resolution",
          "type": "uint8"
        },
        {
          "indexed": false,
          "internalType": "address",
          "name": "arbiter",
          "type": "address"
        },
        {
          "indexed": false,
          "internalType": "uint256",
          "name": "amount",
          "type": "uint256"
        },
        {
          "indexed": false,
          "internalType": "uint256",
          "name": "fee",
          "type": "uint256"
        }
      ],
      "name": "DisputeResolved",
      "type": "event"
    },
    {
      "anonymous": false,
      "inputs": [
        {
          "indexed": true,
          "internalType": "uint256",
          "name": "escrowId",
          "type": "uint256"
        },
        {
          "indexed": true,
          "internalType": "address",
          "name": "initiator",
          "type": "address"
        }
      ],
      "name": "DisputeStarted",
      "type": "event"
    },
    {
      "anonymous": false,
      "inputs": [
        {
          "indexed": true,
          "internalType": "uint256",
          "name": "escrowId",
          "type": "uint256"
        },
        {
          "indexed": true,
          "internalType": "address",
          "name": "buyer",
          "type": "address"
        },
        {
          "indexed": true,
          "internalType": "address",
          "name": "seller",
          "type": "address"
        },
        {
          "indexed": false,
          "internalType": "address",
          "name": "token",
          "type": "address"
        },
        {
          "indexed": false,
          "internalType": "uint256",
          "name": "amount",
          "type": "uint256"
        },
        {
          "indexed": false,
          "internalType": "address",
          "name": "arbiter",
          "type": "address"
        },
        {
          "indexed": false,
          "internalType": "uint256",
          "name": "maturityTime",
          "type": "uint256"
        },
        {
          "indexed": false,
          "internalType": "string",
          "name": "title",
          "type": "string"
        },
        {
          "indexed": false,
          "internalType": "string",
          "name": "ipfsHash",
          "type": "string"
        }
      ],
      "name": "EscrowCreated",
      "type": "event"
    },
    {
      "anonymous": false,
      "inputs": [
        {
          "indexed": true,
          "internalType": "uint256",
          "name": "escrowId",
          "type": "uint256"
        },
        {
          "indexed": true,
          "internalType": "address",
          "name": "buyer",
          "type": "address"
        },
        {
          "indexed": false,
          "internalType": "uint256",
          "name": "amount",
          "type": "uint256"
        }
      ],
      "name": "EscrowCreatedAndDeposited",
      "type": "event"
    },
    {
      "anonymous": false,
      "inputs": [
        {
          "indexed": true,
          "internalType": "uint256",
          "name": "escrowId",
          "type": "uint256"
        },
        {
          "indexed": true,
          "internalType": "address",
          "name": "signer",
          "type": "address"
        },
        {
          "indexed": false,
          "internalType": "uint256",
          "name": "nonce",
          "type": "uint256"
        }
      ],
      "name": "NonceUsed",
      "type": "event"
    },
    {
      "anonymous": false,
      "inputs": [
        {
          "indexed": true,
          "internalType": "uint256",
          "name": "escrowId",
          "type": "uint256"
        },
        {
          "indexed": true,
          "internalType": "address",
          "name": "buyer",
          "type": "address"
        },
        {
          "indexed": false,
          "internalType": "uint256",
          "name": "amount",
          "type": "uint256"
        }
      ],
      "name": "PaymentDeposited",
      "type": "event"
    },
    {
      "anonymous": false,
      "inputs": [
        {
          "indexed": true,
          "internalType": "uint256",
          "name": "escrowId",
          "type": "uint256"
        },
        {
          "indexed": false,
          "internalType": "address",
          "name": "recipient",
          "type": "address"
        },
        {
          "indexed": false,
          "internalType": "uint256",
          "name": "netAmount",
          "type": "uint256"
        },
        {
          "indexed": false,
          "internalType": "address",
          "name": "feeRecipient",
          "type": "address"
        },
        {
          "indexed": false,
          "internalType": "uint256",
          "name": "feeAmount",
          "type": "uint256"
        }
      ],
      "name": "PayoutProposed",
      "type": "event"
    },
    {
      "anonymous": false,
      "inputs": [
        {
          "indexed": true,
          "internalType": "uint256",
          "name": "escrowId",
          "type": "uint256"
        },
        {
          "indexed": true,
          "internalType": "address",
          "name": "requester",
          "type": "address"
        }
      ],
      "name": "RequestCancel",
      "type": "event"
    },
    {
      "anonymous": false,
      "inputs": [
        {
          "indexed": true,
          "internalType": "uint256",
          "name": "escrowId",
          "type": "uint256"
        },
        {
          "indexed": true,
          "internalType": "address",
          "name": "seller",
          "type": "address"
        }
      ],
      "name": "SellerAccepted",
      "type": "event"
    },
    {
      "anonymous": false,
      "inputs": [
        {
          "indexed": true,
          "internalType": "uint256",
          "name": "escrowId",
          "type": "uint256"
        },
        {
          "indexed": false,
          "internalType": "bytes",
          "name": "sellerSig",
          "type": "bytes"
        }
      ],
      "name": "SellerWalletSigAttached",
      "type": "event"
    },
    {
      "anonymous": false,
      "inputs": [
        {
          "indexed": true,
          "internalType": "uint256",
          "name": "escrowId",
          "type": "uint256"
        },
        {
          "indexed": false,
          "internalType": "bytes",
          "name": "sellerSig",
          "type": "bytes"
        }
      ],
      "name": "SellerWalletSigUpdated",
      "type": "event"
    },
    {
      "anonymous": false,
      "inputs": [
        {
          "indexed": true,
          "internalType": "bytes32",
          "name": "sigHash",
          "type": "bytes32"
        },
        {
          "indexed": true,
          "internalType": "uint256",
          "name": "escrowId",
          "type": "uint256"
        }
      ],
      "name": "SignatureUsed",
      "type": "event"
    },
    {
      "anonymous": false,
      "inputs": [
        {
          "indexed": true,
          "internalType": "uint256",
          "name": "escrowId",
          "type": "uint256"
        },
        {
          "indexed": false,
          "internalType": "enum PalindromePay.State",
          "name": "oldState",
          "type": "uint8"
        },
        {
          "indexed": true,
          "internalType": "enum PalindromePay.State",
          "name": "newState",
          "type": "uint8"
        }
      ],
      "name": "StateChanged",
      "type": "event"
    },
    {
      "anonymous": false,
      "inputs": [
        {
          "indexed": true,
          "internalType": "uint256",
          "name": "escrowId",
          "type": "uint256"
        },
        {
          "indexed": true,
          "internalType": "address",
          "name": "wallet",
          "type": "address"
        }
      ],
      "name": "WalletCreated",
      "type": "event"
    },
    {
      "inputs": [],
      "name": "DISPUTE_LONG_TIMEOUT",
      "outputs": [
        {
          "internalType": "uint256",
          "name": "",
          "type": "uint256"
        }
      ],
      "stateMutability": "view",
      "type": "function"
    },
    {
      "inputs": [],
      "name": "DOMAIN_SEPARATOR",
      "outputs": [
        {
          "internalType": "bytes32",
          "name": "",
          "type": "bytes32"
        }
      ],
      "stateMutability": "view",
      "type": "function"
    },
    {
      "inputs": [],
      "name": "FEE_RECEIVER",
      "outputs": [
        {
          "internalType": "address",
          "name": "",
          "type": "address"
        }
      ],
      "stateMutability": "view",
      "type": "function"
    },
    {
      "inputs": [],
      "name": "TIMEOUT_BUFFER",
      "outputs": [
        {
          "internalType": "uint256",
          "name": "",
          "type": "uint256"
        }
      ],
      "stateMutability": "view",
      "type": "function"
    },
    {
      "inputs": [],
      "name": "WALLET_FACTORY",
      "outputs": [
        {
          "internalType": "contract IWalletFactory",
          "name": "",
          "type": "address"
        }
      ],
      "stateMutability": "view",
      "type": "function"
    },
    {
      "inputs": [
        {
          "internalType": "uint256",
          "name": "escrowId",
          "type": "uint256"
        },
        {
          "internalType": "bytes",
          "name": "sellerWalletSig",
          "type": "bytes"
        }
      ],
      "name": "acceptEscrow",
      "outputs": [],
      "stateMutability": "nonpayable",
      "type": "function"
    },
    {
      "inputs": [
        {
          "internalType": "uint256",
          "name": "escrowId",
          "type": "uint256"
        }
      ],
      "name": "autoRelease",
      "outputs": [],
      "stateMutability": "nonpayable",
      "type": "function"
    },
    {
      "inputs": [
        {
          "internalType": "uint256",
          "name": "escrowId",
          "type": "uint256"
        }
      ],
      "name": "cancelByTimeout",
      "outputs": [],
      "stateMutability": "nonpayable",
      "type": "function"
    },
    {
      "inputs": [
        {
          "internalType": "uint256",
          "name": "escrowId",
          "type": "uint256"
        }
      ],
      "name": "computeWalletAddress",
      "outputs": [
        {
          "internalType": "address",
          "name": "predicted",
          "type": "address"
        }
      ],
      "stateMutability": "view",
      "type": "function"
    },
    {
      "inputs": [
        {
          "internalType": "uint256",
          "name": "escrowId",
          "type": "uint256"
        },
        {
          "internalType": "bytes",
          "name": "buyerWalletSig",
          "type": "bytes"
        }
      ],
      "name": "confirmDelivery",
      "outputs": [],
      "stateMutability": "nonpayable",
      "type": "function"
    },
    {
      "inputs": [
        {
          "internalType": "uint256",
          "name": "escrowId",
          "type": "uint256"
        },
        {
          "internalType": "bytes",
          "name": "coordSignature",
          "type": "bytes"
        },
        {
          "internalType": "uint256",
          "name": "deadline",
          "type": "uint256"
        },
        {
          "internalType": "uint256",
          "name": "nonce",
          "type": "uint256"
        },
        {
          "internalType": "bytes",
          "name": "buyerWalletSig",
          "type": "bytes"
        }
      ],
      "name": "confirmDeliverySigned",
      "outputs": [],
      "stateMutability": "nonpayable",
      "type": "function"
    },
    {
      "inputs": [
        {
          "internalType": "address",
          "name": "token",
          "type": "address"
        },
        {
          "internalType": "address",
          "name": "buyer",
          "type": "address"
        },
        {
          "internalType": "uint256",
          "name": "amount",
          "type": "uint256"
        },
        {
          "internalType": "uint256",
          "name": "maturityTimeDays",
          "type": "uint256"
        },
        {
          "internalType": "address",
          "name": "arbiter",
          "type": "address"
        },
        {
          "internalType": "string",
          "name": "title",
          "type": "string"
        },
        {
          "internalType": "string",
          "name": "ipfsHash",
          "type": "string"
        },
        {
          "internalType": "bytes",
          "name": "sellerWalletSig",
          "type": "bytes"
        }
      ],
      "name": "createEscrow",
      "outputs": [
        {
          "internalType": "uint256",
          "name": "",
          "type": "uint256"
        }
      ],
      "stateMutability": "nonpayable",
      "type": "function"
    },
    {
      "inputs": [
        {
          "internalType": "address",
          "name": "token",
          "type": "address"
        },
        {
          "internalType": "address",
          "name": "seller",
          "type": "address"
        },
        {
          "internalType": "uint256",
          "name": "amount",
          "type": "uint256"
        },
        {
          "internalType": "uint256",
          "name": "maturityTimeDays",
          "type": "uint256"
        },
        {
          "internalType": "address",
          "name": "arbiter",
          "type": "address"
        },
        {
          "internalType": "string",
          "name": "title",
          "type": "string"
        },
        {
          "internalType": "string",
          "name": "ipfsHash",
          "type": "string"
        },
        {
          "internalType": "bytes",
          "name": "buyerWalletSig",
          "type": "bytes"
        }
      ],
      "name": "createEscrowAndDeposit",
      "outputs": [
        {
          "internalType": "uint256",
          "name": "escrowId",
          "type": "uint256"
        }
      ],
      "stateMutability": "nonpayable",
      "type": "function"
    },
    {
      "inputs": [
        {
          "internalType": "uint256",
          "name": "escrowId",
          "type": "uint256"
        },
        {
          "internalType": "bytes",
          "name": "buyerWalletSig",
          "type": "bytes"
        }
      ],
      "name": "deposit",
      "outputs": [],
      "stateMutability": "nonpayable",
      "type": "function"
    },
    {
      "inputs": [
        {
          "internalType": "uint256",
          "name": "",
          "type": "uint256"
        }
      ],
      "name": "disputeStatus",
      "outputs": [
        {
          "internalType": "uint256",
          "name": "",
          "type": "uint256"
        }
      ],
      "stateMutability": "view",
      "type": "function"
    },
    {
      "inputs": [
        {
          "internalType": "uint256",
          "name": "escrowId",
          "type": "uint256"
        }
      ],
      "name": "getEscrow",
      "outputs": [
        {
          "components": [
            {
              "internalType": "address",
              "name": "token",
              "type": "address"
            },
            {
              "internalType": "address",
              "name": "buyer",
              "type": "address"
            },
            {
              "internalType": "address",
              "name": "seller",
              "type": "address"
            },
            {
              "internalType": "address",
              "name": "arbiter",
              "type": "address"
            },
            {
              "internalType": "address",
              "name": "wallet",
              "type": "address"
            },
            {
              "internalType": "uint256",
              "name": "amount",
              "type": "uint256"
            },
            {
              "internalType": "uint256",
              "name": "depositTime",
              "type": "uint256"
            },
            {
              "internalType": "uint256",
              "name": "maturityTime",
              "type": "uint256"
            },
            {
              "internalType": "uint256",
              "name": "disputeStartTime",
              "type": "uint256"
            },
            {
              "internalType": "enum PalindromePay.State",
              "name": "state",
              "type": "uint8"
            },
            {
              "internalType": "bool",
              "name": "buyerCancelRequested",
              "type": "bool"
            },
            {
              "internalType": "bool",
              "name": "sellerCancelRequested",
              "type": "bool"
            },
            {
              "internalType": "uint8",
              "name": "tokenDecimals",
              "type": "uint8"
            },
            {
              "internalType": "bytes",
              "name": "sellerWalletSig",
              "type": "bytes"
            },
            {
              "internalType": "bytes",
              "name": "buyerWalletSig",
              "type": "bytes"
            },
            {
              "internalType": "bytes",
              "name": "arbiterWalletSig",
              "type": "bytes"
            }
          ],
          "internalType": "struct PalindromePay.EscrowDeal",
          "name": "",
          "type": "tuple"
        }
      ],
      "stateMutability": "view",
      "type": "function"
    },
    {
      "inputs": [
        {
          "internalType": "uint256",
          "name": "escrowId",
          "type": "uint256"
        },
        {
          "internalType": "address",
          "name": "signer",
          "type": "address"
        },
        {
          "internalType": "uint256",
          "name": "wordIndex",
          "type": "uint256"
        }
      ],
      "name": "getNonceBitmap",
      "outputs": [
        {
          "internalType": "uint256",
          "name": "",
          "type": "uint256"
        }
      ],
      "stateMutability": "view",
      "type": "function"
    },
    {
      "inputs": [
        {
          "internalType": "uint256",
          "name": "escrowId",
          "type": "uint256"
        },
        {
          "internalType": "address",
          "name": "participant",
          "type": "address"
        }
      ],
      "name": "getWalletAuthorizationDigest",
      "outputs": [
        {
          "internalType": "bytes32",
          "name": "digest",
          "type": "bytes32"
        }
      ],
      "stateMutability": "view",
      "type": "function"
    },
    {
      "inputs": [],
      "name": "nextEscrowId",
      "outputs": [
        {
          "internalType": "uint256",
          "name": "",
          "type": "uint256"
        }
      ],
      "stateMutability": "view",
      "type": "function"
    },
    {
      "inputs": [
        {
          "internalType": "address",
          "name": "token",
          "type": "address"
        },
        {
          "internalType": "address",
          "name": "to",
          "type": "address"
        },
        {
          "internalType": "uint256",
          "name": "amount",
          "type": "uint256"
        }
      ],
      "name": "recoverToken",
      "outputs": [],
      "stateMutability": "nonpayable",
      "type": "function"
    },
    {
      "inputs": [
        {
          "internalType": "uint256",
          "name": "escrowId",
          "type": "uint256"
        },
        {
          "internalType": "bytes",
          "name": "buyerWalletSig",
          "type": "bytes"
        }
      ],
      "name": "refundAfterDisputeTimeout",
      "outputs": [],
      "stateMutability": "nonpayable",
      "type": "function"
    },
    {
      "inputs": [
        {
          "internalType": "uint256",
          "name": "escrowId",
          "type": "uint256"
        },
        {
          "internalType": "bytes",
          "name": "walletSig",
          "type": "bytes"
        }
      ],
      "name": "requestCancel",
      "outputs": [],
      "stateMutability": "nonpayable",
      "type": "function"
    },
    {
      "inputs": [
        {
          "internalType": "uint256",
          "name": "escrowId",
          "type": "uint256"
        }
      ],
      "name": "startDispute",
      "outputs": [],
      "stateMutability": "nonpayable",
      "type": "function"
    },
    {
      "inputs": [
        {
          "internalType": "uint256",
          "name": "escrowId",
          "type": "uint256"
        },
        {
          "internalType": "bytes",
          "name": "signature",
          "type": "bytes"
        },
        {
          "internalType": "uint256",
          "name": "deadline",
          "type": "uint256"
        },
        {
          "internalType": "uint256",
          "name": "nonce",
          "type": "uint256"
        }
      ],
      "name": "startDisputeSigned",
      "outputs": [],
      "stateMutability": "nonpayable",
      "type": "function"
    },
    {
      "inputs": [
        {
          "internalType": "uint256",
          "name": "escrowId",
          "type": "uint256"
        },
        {
          "internalType": "enum PalindromePay.State",
          "name": "resolution",
          "type": "uint8"
        },
        {
          "internalType": "string",
          "name": "ipfsHash",
          "type": "string"
        },
        {
          "internalType": "bytes",
          "name": "arbiterWalletSig",
          "type": "bytes"
        }
      ],
      "name": "submitArbiterDecision",
      "outputs": [],
      "stateMutability": "nonpayable",
      "type": "function"
    },
    {
      "inputs": [
        {
          "internalType": "uint256",
          "name": "escrowId",
          "type": "uint256"
        },
        {
          "internalType": "enum PalindromePay.Role",
          "name": "role",
          "type": "uint8"
        },
        {
          "internalType": "string",
          "name": "ipfsHash",
          "type": "string"
        }
      ],
      "name": "submitDisputeMessage",
      "outputs": [],
      "stateMutability": "nonpayable",
      "type": "function"
    }
  ],
  "bytecode": "0x61010080604052346102005760408161514080380380916100208285610204565b8339810103126102005761003f60206100388361023b565b920161023b565b60015f556001600160a01b038216156101ce576001600160a01b031690811561019a5760805260a0524660e05260405161007a604082610204565b600d81526c50616c696e64726f6d6550617960981b602090910152604080517fafad4e164a3495a77e9cd6cc3b76ca3aa2b79f9ddc70f34392e4b3d17237f7d7916100c59082610204565b600181526020810190603160f81b82525190206040519060208201927f8b73c3c69bb8fe3d512ecc4cf759cc79239f7b179b0ffacaa9a75d522b39400f8452604083015260608201524660808201523060a082015260a0815261012960c082610204565b51902060c052604051614ef0908161025082396080518181816104ea01528181610b7f01528181611de70152818161297801528181612d390152818161498c0152614a10015260a0518181816132d6015281816146bd0152614871015260c051816141a7015260e051816141810152f35b60405162461bcd60e51b815260206004820152600c60248201526b466163746f7279207a65726f60a01b6044820152606490fd5b60405162461bcd60e51b815260206004820152600a602482015269466565546f207a65726f60b01b6044820152606490fd5b5f80fd5b601f909101601f19168101906001600160401b0382119082101761022757604052565b634e487b7160e01b5f52604160045260245ffd5b51906001600160a01b03821682036102005756fe6101406040526004361015610012575f80fd5b5f3560e01c806306075a15146133055780630e2009f4146132c157806310f169e8146132975780631452483b1461327a5780632d34515b14612c4c5780632d471a50146126165780632f9bfda214612189578063311a2e5514611d155780633644e51514611cf35780634186928c14611cd7578063459b860e14611b705780635d303519146118045780636232ef6014611640578063708f65ca146114165780637d19e596146111735780638350415614610cd757806389cb29dd14610cba5780639dede53c14610c6a578063a7229fd914610b4f578063b67036fd14610876578063c0cfa7e51461077d578063c37775a314610519578063d3e78e4d146104d5578063d4ffbee414610365578063da183b021461016c5763e471d9a314610138575f80fd5b34610168576020366003190112610168576020610156600435614692565b6040516001600160a01b039091168152f35b5f80fd5b346101685760203660031901126101685760043561018861400f565b61019181614063565b61019a81614a3e565b805f52600260205260405f20600981015460ff811660068110156103515760016101c49114613c96565b6101d2600883015415613cda565b60ff8160081c16156103175760101c60ff166102dd576101f760068201541515613d17565b60038101546001600160a01b03161561028c578061021c600760059301544211613d50565b610234604161022e600b840154613b13565b14613c15565b61023d83614455565b6001810154610255906001600160a01b0316846149cf565b50500154906040519182527feb8b5b87fbea5b732b8f4fd82b65d9afef713c799d98da83090f22c45577998d60203393a360015f55005b60405162461bcd60e51b815260206004820152602360248201527f4172626974657220726571756972656420666f722074696d656f75742063616e60448201526218d95b60ea1b6064820152608490fd5b60405162461bcd60e51b81526020600482015260126024820152714d757475616c2063616e63656c20646f6e6560701b6044820152606490fd5b60405162461bcd60e51b8152602060048201526012602482015271135d5cdd081c995c5d595cdd08199a5c9cdd60721b6044820152606490fd5b634e487b7160e01b5f52602160045260245ffd5b34610168576040366003190112610168576004356103816135ae565b9061038b81614063565b5f81815260026020526040902060018101546001600160a01b03848116911681149081156104be575b81156104a7575b501561046e5761046361042160209461043a610413946103d9613f22565b8881519101206103e7613f53565b89815191012091600460018060a01b03910154169485916104136040519384928d840196469188613f72565b03601f1981018352826137bb565b519020956104136040519384928a840196309188613fbe565b5190206040519283918683019586909160429261190160f01b8352600283015260228201520190565b519020604051908152f35b60405162461bcd60e51b8152602060048201526011602482015270139bdd0818481c185c9d1a58da5c185b9d607a1b6044820152606490fd5b60038301546001600160a01b0316149050846103bb565b60028301546001600160a01b0316811491506103b4565b34610168575f366003190112610168576040517f00000000000000000000000000000000000000000000000000000000000000006001600160a01b03168152602090f35b34610168576105273661367c565b9061053061400f565b61053983614063565b61054283614a3e565b825f52600260205260405f209160ff600984015416600681101561035157600161056c9114613c96565b610584604161057e600a860154613b13565b14613c55565b60048301546105a09033906001600160a01b0316868486614719565b1561076e57600b8301916001600160401b03821161075a5784916105c48454613b13565b601f8111610708575b505f93601f821160011461069657815f516020614e3b5f395f51905f5294955f9161068b575b508260011b905f198460031b1c19161790555b61061d604051928392602084526020840191613b4b565b0390a261062982614424565b60028101546001600160a01b0316917f8bcf349ab354486b68c142cea7235e4f7f31f6a425466f569c8ac1d5bc4d0007604061066585846148f0565b9050600560018060a01b036001870154169501549082519182526020820152a460015f55005b9050830135886105f3565b601f198216815f5260205f20905f5b8181106106ed575095835f516020614e3b5f395f51905f529697106106d4575b5050600182811b019055610606565b8401355f19600385901b60f8161c1916905587806106c5565b8786013583556020978801978a9750600190930192016106a5565b90919250835f5260205f20601f830160051c81019160208410610750575b90601f88959493920160051c01905b81811061074257506105cd565b5f8155879450600101610735565b9091508190610726565b634e487b7160e01b5f52604160045260245ffd5b630f42e6ed60e41b5f5260045ffd5b346101685760203660031901126101685760043561079961400f565b6107a281614063565b6107ab81614a6f565b5f81815260026020526040902060038101546107d1906001600160a01b03161515613728565b60ff60098201541660068110156103515760016107ee9114613c96565b6107f7826143b3565b60084291015562278d004201804211610862577f1a9502b6f661da8b0573a0617c121cabe2e93ea05d5239cfab6e9d1734b928c960208392604051908152a233907fd658effe7cf013e5a508b3f1a373b92566494d8b6a7c2970fc964932de1c4dab5f80a360015f55005b634e487b7160e01b5f52601160045260245ffd5b34610168576108843661367c565b9061088d61400f565b61089683614063565b61089f83614a3e565b825f52600260205260405f209060ff60098301541660068110156103515760026108c99114613d93565b600882015462278d008101908181116108625762279b100180911161086257421115610b1457835f52600460205260ff60405f205416610acf57600482015461091f9033906001600160a01b0316868685614719565b1561076e57600b8201906001600160401b03841161075a5781610943869354613b13565b601f8111610a7d575b505f601f8611600114610a0457945f516020614e3b5f395f51905f529291816005975f916109f9575b508260011b905f198460031b1c19161790555b61099f604051928392602084526020840191613b4b565b0390a2825f5260026020526004835f516020614e9b5f395f51905f526020600960405f20016109d38560ff83541692613afb565b6109e060405180926136ab565ba36001810154610255906001600160a01b0316846149cf565b905083013589610975565b9490601f198216815f5260205f20905f5b818110610a62575090600597845f516020614e3b5f395f51905f529695949310610a49575b5050600182811b019055610988565b8401355f19600385901b60f8161c191690558880610a3a565b8886013583556020988901988a975060019093019201610a15565b90809293505f5260205f20601f860160051c81019160208710610ac5575b90601f88959493920160051c01905b818110610ab7575061094c565b5f8155879450600101610aaa565b9091508190610a9b565b60405162461bcd60e51b815260206004820152601a60248201527f4465636973696f6e20616c7265616479207375626d69747465640000000000006044820152606490fd5b60405162461bcd60e51b8152602060048201526013602482015272151a5b595bdd5d081b9bdd081c995858da1959606a1b6044820152606490fd5b34610168576060366003190112610168576004356001600160a01b0381169081900361016857610b7d6135ae565b7f00000000000000000000000000000000000000000000000000000000000000006001600160a01b03163303610c31576001600160a01b03811615610bfd5760405163a9059cbb60e01b60208201526001600160a01b0391909116602482015260448035818301528152610bfb91610bf66064836137bb565b614bf4565b005b60405162461bcd60e51b815260206004820152600c60248201526b5a65726f206164647265737360a01b6044820152606490fd5b60405162461bcd60e51b815260206004820152601160248201527027b7363c903332b2903932b1b2b4bb32b960791b6044820152606490fd5b3461016857606036600319011261016857610c836135ae565b6004355f52600560205260405f209060018060a01b03165f5260205260405f206044355f52602052602060405f2054604051908152f35b34610168575f366003190112610168576020600154604051908152f35b3461016857610ce53661367c565b90610cee61400f565b610cf783614063565b610d0083614a6f565b825f52600260205260405f2090600982019081549360ff85166006811015610351576001610d2e9114613e48565b610d3d60068501541515613d17565b610d4b600885015415613cda565b6004840154610d679033906001600160a01b0316888486614719565b1561076e57600184019460018060a01b0386541633145f14610fc6575060ff835460081c16610f8157600b8401916001600160401b03821161075a578691610daf8454613b13565b601f8111610f2f575b505f93601f8211600114610ebd57815f516020614e3b5f395f51905f5294955f91610eb2575b508260011b905f198460031b1c19161790555b610e08604051928392602084526020840191613b4b565b0390a2805461ff0019166101001781555b5460ff8160081c169081610ea4575b5015610e7757610255600592610e46604161022e600b860154613b13565b610e58604161057e600a860154613b13565b610e6185614455565b546001600160a01b0316846149cf565b60015f55005b505033907f88a867d5d9b489598a3f5e5c8d5c1da163ed116737b70444bac744920904a5735f80a3610e71565b60ff915060101c1684610e28565b90508301358a610dde565b601f198216815f5260205f20905f5b818110610f14575095835f516020614e3b5f395f51905f52969710610efb575b5050600182811b019055610df1565b8401355f19600385901b60f8161c191690558980610eec565b8786013583556020978801978c975060019093019201610ecc565b90919250835f5260205f20601f830160051c81019160208410610f77575b90601f8a959493920160051c01905b818110610f695750610db8565b5f8155899450600101610f5c565b9091508190610f4d565b60405162461bcd60e51b815260206004820152601760248201527f427579657220616c7265616479207265717565737465640000000000000000006044820152606490fd5b60101c60ff1661112e57600a8401916001600160401b03821161075a578691610fef8454613b13565b601f81116110dc575b505f93601f821160011461106a57815f516020614e1b5f395f51905f5294955f9161105f575b508260011b905f198460031b1c19161790555b611048604051928392602084526020840191613b4b565b0390a2805462ff0000191662010000178155610e19565b90508301358a61101e565b601f198216815f5260205f20905f5b8181106110c1575095835f516020614e1b5f395f51905f529697106110a8575b5050600182811b019055611031565b8401355f19600385901b60f8161c191690558980611099565b8786013583556020978801978c975060019093019201611079565b90919250835f5260205f20601f830160051c81019160208410611124575b90601f8a959493920160051c01905b8181106111165750610ff8565b5f8155899450600101611109565b90915081906110fa565b60405162461bcd60e51b815260206004820152601860248201527f53656c6c657220616c72656164792072657175657374656400000000000000006044820152606490fd5b346101685760203660031901126101685760043560606101e06040516111988161379f565b5f81525f60208201525f60408201525f838201525f60808201525f60a08201525f60c08201525f60e08201525f6101008201525f6101208201525f6101408201525f6101608201525f610180820152826101a0820152826101c0820152015261120081614063565b5f52600260205260405f206040516112178161379f565b81546001600160a01b0390811682526001830154811660208301526002830154811660408301526003830154811660608301526004830154166080820152600582015460a082015260068083015460c0830152600783015460e08301526008830154610100830152600983015460ff811691821015610351576114129360ff600c926112f394610120870152818160081c161515610140870152818160101c16151561016087015260181c166101808501526112d5600a8201613e82565b6101a08501526112e7600b8201613e82565b6101c085015201613e82565b6101e08201526040519182916020835260018060a01b03815116602084015260018060a01b03602082015116604084015260018060a01b03604082015116606084015260018060a01b03606082015116608084015260018060a01b0360808201511660a084015260a081015160c084015260c081015160e084015260e08101516101008401526101008101516101208401526113996101208201516101408501906136ab565b6101408101511515610160840152610160810151151561018084015260ff610180820151166101a08401526101e06113fd6113e76101a08401516102006101c08801526102208701906136b8565b6101c0840151868203601f1901848801526136b8565b910151838203601f19016102008501526136b8565b0390f35b34610168576114243661367c565b9061142d61400f565b61143683614063565b825f52600260205260405f2061145960018060a01b036002830154163314613dce565b60ff60098201541660068110156103515760016114769114613e48565b60048101546114929033906001600160a01b0316868686614719565b1561076e57600a018054906114a682613b13565b1515916001600160401b03851161075a576114c090613b13565b601f81116115fb575b50835f601f8211600114611597575f9161158c575b508460011b905f198660031b1c19161790555b15611538577f9f91c43a9c810c8b0a79dc8dec5c0ed9f7be6ef2090ebde9e83c83fb2bd2ed1b9161152f604051928392602084526020840191613b4b565b0390a260015f55005b5f516020614e1b5f395f51905f529161158460405192839233877f5b09e2f1aabe74a8fc19114f298046a9fa1214365ec1d728e534a291aff17a4f5f80a3602084526020840191613b4b565b0390a2610e71565b9050830135866114de565b5f8381526020812092508690601f198216905b8181106115e05750106115c7575b5050600184811b0190556114f1565b8401355f19600387901b60f8161c1916905585806115b8565b878401358555600190940193602093840193899350016115aa565b815f5260205f20601f860160051c81019160208710611636575b601f0160051c01905b81811061162b57506114c9565b5f815560010161161e565b9091508190611615565b34610168576060366003190112610168576004356024359060048210918215610168576044356001600160401b03811161016857611682903690600401613581565b919061168c61400f565b61169584614063565b61169e84614a6f565b835f52600260205260405f2060ff60098201541660068110156103515760026116c79114613d93565b6116d184836144e2565b845f52600660205260405f205490600184145f1461179b57600101546001600160a01b03163303611769578061170b600180931615613e08565b175b845f52600660205260405f20556040519415610351577f4e71d2a3ce09c95d708a8bc888cb8838c8419bea1f25f6d07f2c601b173f720e9261175c928652604060208701526040860191613b4b565b928033940390a360015f55005b60405162461bcd60e51b815260206004820152600a60248201526927b7363c90313abcb2b960b11b6044820152606490fd5b90600284036117d0576002918201546117be906001600160a01b03163314613dce565b6117ca82821615613e08565b1761170d565b60405162461bcd60e51b815260206004820152600c60248201526b496e76616c696420726f6c6560a01b6044820152606490fd5b34610168576118123661367c565b919061181c61400f565b61182582614063565b61182e82614a3e565b815f52600260205260405f20600981019160ff835416600681101561035157611b34576004820180549095906118719033906001600160a01b0316878486614719565b1561076e57600b8301916001600160401b03821161075a5785916118958454613b13565b601f8111611ae2575b505f93601f8211600114611a7057815f516020614e3b5f395f51905f5294955f91611a65575b508260011b905f198460031b1c19161790555b6118ee604051928392602084526020840191613b4b565b0390a2426006820155611900836143f3565b805484546040516370a0823160e01b81526001600160a01b0391821660048201819052909690939092909116602087602481845afa968715611a22575f97611a2d575b509061195a602092600583019586549133906148ac565b5491546040516370a0823160e01b81526001600160a01b0391821660048201529283916024918391165afa908115611a22575f916119ee575b506119b36119a660ff966119bb93613bbc565b9586945460181c16614659565b831015613bc9565b556040519182527f71284872bb4c088a81295dff2513729babbccfeda38a8d824bb1a73bcaab494e60203393a360015f55005b90506020813d602011611a1a575b81611a09602093836137bb565b8101031261016857516119b3611993565b3d91506119fc565b6040513d5f823e3d90fd5b919096506020823d602011611a5d575b81611a4a602093836137bb565b810103126101685790519561195a611943565b3d9150611a3d565b90508301358a6118c4565b601f198216815f5260205f20905f5b818110611ac7575095835f516020614e3b5f395f51905f52969710611aae575b5050600182811b0190556118d7565b8401355f19600385901b60f8161c191690558980611a9f565b8786013583556020978801978b975060019093019201611a7f565b90919250835f5260205f20601f830160051c81019160208410611b2a575b90601f89959493920160051c01905b818110611b1c575061189e565b5f8155889450600101611b0f565b9091508190611b00565b60405162461bcd60e51b8152602060048201526014602482015273139bdd08185dd85a5d1a5b99c81c185e5b595b9d60621b6044820152606490fd5b3461016857602036600319011261016857600435611b8c61400f565b611b9581614063565b5f81815260026020819052604090912001546001600160a01b03163303611cc857805f52600260205260405f2090600982015460ff811690600682101561035157611be4600160ff9314613c96565b611bf2600885015415613cda565b60081c16611c8a57611c0960068301541515613d17565b611c1860078301544211613d50565b611c2a604161057e600a850154613b13565b611c3381614424565b60028201546001600160a01b0316917f489d0b4f43659843daba0a17983382a3e77f5399083ac5405143fcf6806f8ca0906040906005611c7386866148f0565b92905001549082519182526020820152a360015f55005b60405162461bcd60e51b8152602060048201526016602482015275109d5e595c881c995c5d595cdd19590818d85b98d95b60521b6044820152606490fd5b6342e8fb9360e11b5f5260045ffd5b34610168575f366003190112610168576020604051610e108152f35b34610168575f366003190112610168576020611d0d61417e565b604051908152f35b3461016857611d23366135c4565b60a05260c05294979492939291611d3a8186614486565b611d4483836144e2565b611d586001600160a01b03871615156138ae565b6001600160a01b0388161561215757611d7c6001600160a01b0389163314156138e7565b611d87871515613927565b611d94610e438a10613961565b611d9d86614532565b98611db2611daa8b614659565b8910156139a1565b6001600160a01b038516903382141580612144575b611dd0906139e0565b8115801561213b575b611de290613a1e565b611e177f00000000000000000000000000000000000000000000000000000000000000006001600160a01b0316831415613a60565b600154608052611e28608051613aac565b600155611e4833611e3a608051614692565b60805160a05160c051614719565b1561076e57611e58608051614853565b9a6080515f52600260205260405f209260018060a01b038a166001600160601b0360a01b8554161784556001840160018060a01b038d166001600160601b0360a01b8254161790556002840160018060a01b0333166001600160601b0360a01b82541617905560038401906001600160601b0360a01b8254161790556004830160018060a01b038d166001600160601b0360a01b825416179055896005840155611f056001831015613aba565b6201518082029180830462015180149015171561086257611f29611f4f92426136dc565b600784015560098301805463ff0000ff191660189290921b63ff00000016919091179055565b6001600160401b0360a0511161075a57611f6c600a820154613b13565b601f81116120ef575b505f601f60a0511160011461205e57916007611fe094925f516020614e5b5f395f51905f52989796945f9060a051612051575b5060a05160011b905f1960a05160031b1c191617600a8201555b015495604051968796339c60018060a01b03169b6080519b89613b6b565b0390a460405160805190916001600160a01b0316907f470292d5e9c87e6d5a100a14c56a434c9f25e9e2be1d5efa70c3b5f9aeda505f5f80a3602081525f516020614e1b5f395f51905f5260805191806120426020820160a05160c051613b4b565b0390a260206040516080518152f35b905060c05101358e611fa8565b600a82015f5260205f20905f5b60a051601f191681106120d55750611fe094925f516020614e5b5f395f51905f52989796949260079260a051601f1960a05116106120b8575b5050600160a051811b01600a820155611fc2565b5f1960f860a05160031b161c199060c05101351690558d806120a4565b90916020600181928560c05101358155019301910161206b565b600a82015f5260205f20601f60a0510160051c810191602060a05110612131575b601f0160051c01905b8181106121265750611f75565b5f8155600101612119565b9091508190612110565b50853b15611dd9565b506001600160a01b038a16821415611dc7565b60405162461bcd60e51b815260206004820152600a6024820152694275796572207a65726f60b01b6044820152606490fd5b346101685760a0366003190112610168576004356024356001600160401b038111610168576121bc903690600401613581565b9091604435916064356084356001600160401b038111610168576121e4903690600401613581565b916121ed61400f565b6121f685614063565b42861180612601575b612208906136e9565b845f52600260205260405f209060ff60098301541660068110156103515760016122329114613763565b604185036125c8576122448589614102565b61225060418514613c15565b61225a8484614102565b600a82015461226890613b13565b60411461227490613c55565b6001820197600160a01b6001900389541695600284019688600160a01b60019003895416600160a01b600190036003880154169b600160a01b600190038854169c600589019d8e549060068b0154926040519560208701977f2175432d6c7eab3a2ef5708fc419540c0f4d274cabd17912c92683ed8466b5e989526040880152886060880152608087015260a086015260c085015260e0840152610100830152610120820152856101408201526101408152612332610160826137bb565b51902061233d61417e565b60405161190160f01b6020820190815260228201929092526042808201939093529182529061236d6062826137bb565b51902061237b3684866137f7565b61238491614abf565b61238d90614af0565b6001600160a01b03166123a181151561382d565b146123ab9061386c565b6123b59188614223565b87546123cb91906001600160a01b031687614309565b600481015487546123eb916001600160a01b039182169116878686614719565b1561076e57600b01916001600160401b03811161075a578261240e869454613b13565b601f8111612574575b505f601f83116001146124d95792825f516020614e3b5f395f51905f5292604096947f8bcf349ab354486b68c142cea7235e4f7f31f6a425466f569c8ac1d5bc4d000798965f916124ce575b508260011b905f198460031b1c19161790555b61248c8651928392602084526020840191613b4b565b0390a261249884614424565b546001600160a01b0316946124ad86856148f0565b91905060018060a01b0390541694549082519182526020820152a460015f55005b90508301358c612463565b601f19831690825f5260205f20915f5b8181106125595750927f8bcf349ab354486b68c142cea7235e4f7f31f6a425466f569c8ac1d5bc4d00079795928592604098965f516020614e3b5f395f51905f529610612540575b5050600182811b019055612476565b8401355f19600385901b60f8161c191690558b80612531565b828701358455899750600190930192602092830192016124e9565b9080929394505f5260205f20601f840160051c810191602085106125be575b90601f8896959493920160051c01905b8181106125b05750612417565b5f81558795506001016125a3565b9091508190612593565b60405162461bcd60e51b81526020600482015260116024820152704d697373696e6720636f6f72642073696760781b6044820152606490fd5b506201518042018042116108625786106121ff565b346101685760803660031901126101685760043560243560068110908115610168576044356001600160401b03811161016857612657903690600401613581565b9190926064356001600160401b03811161016857612679903690600401613581565b93909161268461400f565b61268d87614063565b5f878152600260205260409020600301546001600160a01b03163303612c3d57865f52600260205260405f209560ff60098801541660068110156103515760026126d79114613763565b5f936003861496878015612c30575b15612bf657895f52600660205260405f20546001811615159081612be9575b5060088a015462278d008101908181116108625762279b1001809111610862578115612bdf575b5015612b9a57895f52600460205260ff60405f205416612b6357895f52600460205260405f20600160ff198254161790556127763360018060a01b0360048c0154168c8486614719565b1561076e57600c8901916001600160401b03821161075a578a9161279a8454613b13565b601f8111612b11575b505f93601f8211600114612a8157817f514a487b739611aef8577751109f3612aef90abf478bc73849af4cdd1fa2135a94955f91612a76575b508260011b905f198460031b1c19161790555b612806604051928392602084526020840191613b4b565b0390a2875f526002602052600960405f2001916128288660ff85541694613afb565b156103515761288d7f4e71d2a3ce09c95d708a8bc888cb8838c8419bea1f25f6d07f2c601b173f720e91868a5f516020614e9b5f395f51905f526020829761287360405180926136ab565ba36040519460038652604060208701526040860191613b4b565b928033940390a3610351578115612a635760028301546001600160a01b03165b845f5260026020528460405f20935f14612a21575060ff6009600585015494015460181c16600281115f14612a17576001190160ff8111610862576128f190614648565b606484028481046064148515171561086257612710900490808210612a0f5750905b838210156129ca577ffc4c84ff0bf9d937dea068e6c13c3a16c307d76a1c5b5173c40f03f68f421e0094865f516020614e7b5f395f51905f52608060059461295c87839a613bbc565b6040519160018060a01b03168252602082015260018060a01b037f0000000000000000000000000000000000000000000000000000000000000000166040820152866060820152a201546129b360405180946136ab565b33602084015260408301526060820152a260015f55005b60405162461bcd60e51b815260206004820152601860248201527f416d6f756e7420746f6f20736d616c6c20666f722066656500000000000000006044820152606490fd5b905090612913565b506128f15f614648565b7ffc4c84ff0bf9d937dea068e6c13c3a16c307d76a1c5b5173c40f03f68f421e00946005915f516020614e7b5f395f51905f5260808481980154955f9661295c565b60018301546001600160a01b03166128ad565b90508301358e6127dc565b601f198216815f5260205f20905f5b818110612aeb575095837f514a487b739611aef8577751109f3612aef90abf478bc73849af4cdd1fa2135a969710612ad2575b5050600182811b0190556127ef565b8401355f19600385901b60f8161c191690558d80612ac3565b92949693955090602060018192868a013581550194019201908e95939196949296612a90565b90919250835f5260205f20601f830160051c81019160208410612b59575b90601f8e959493920160051c01905b818110612b4b57506127a3565b5f81558d9450600101612b3e565b9091508190612b2f565b60405162461bcd60e51b815260206004820152600f60248201526e105b1c9958591e48191958da591959608a1b6044820152606490fd5b60405162461bcd60e51b815260206004820152601860248201527f4e6565642065766964656e6365206f722074696d656f757400000000000000006044820152606490fd5b905042118b61272c565b600291501615158b612705565b60405162461bcd60e51b815260206004820152601260248201527124b73b30b634b2103932b9b7b63aba34b7b760711b6044820152606490fd5b505f9550600487146126e6565b6372cc71e760e11b5f5260045ffd5b3461016857612c5a366135c4565b959491612c6c9991979994939461400f565b612c768484614486565b612c8081866144e2565b612c946001600160a01b038c1615156138ae565b6001600160a01b0382161561324757612cb86001600160a01b0383163314156138e7565b612cc3891515613927565b612cd0610e438b10613961565b612cd98b614532565b60e052612cf2612cea60e051614659565b8a10156139a1565b6001600160a01b03861633141580613231575b612d0e906139e0565b6001600160a01b038616158015613228575b612d2990613a1e565b612d626001600160a01b038781167f00000000000000000000000000000000000000000000000000000000000000009091161415613a60565b60015461010052612d7561010051613aac565b600155612d9333612d8861010051614692565b610100518a8c614719565b1561076e57612da461010051614853565b99610100515f52600260205260405f206101205260018060a01b038c166001600160601b0360a01b6101205154161761012051556001610120510160018060a01b0333166001600160601b0360a01b8254161790556002610120510160018060a01b0384166001600160601b0360a01b8254161790556003610120510160018060a01b0388166001600160601b0360a01b8254161790556004610120510160018060a01b038c166001600160601b0360a01b825416179055896005610120510155612e726001821015613aba565b6201518081029080820462015180149015171561086257612e9390426136dc565b610120516007810191909155600901805460e05163ff0000ff1990911660189190911b63ff000000161790556001600160401b03871161075a5788948b94612ee1600b610120510154613b13565b601f81116131c8575b50885f601f82116001146131355791612f5593915f516020614e5b5f395f51905f52979695935f9161312a575b508b60011b905f198d60031b1c191617600b6101205101555b60076101205101549560405196879660018060a01b03169b339b610100519b89613b6b565b0390a4604051610100516001600160a01b038616935f516020614e3b5f395f51905f5292918291612fb99187907f470292d5e9c87e6d5a100a14c56a434c9f25e9e2be1d5efa70c3b5f9aeda505f5f80a36020835261010051956020840191613b4b565b0390a2426006610120510155612fd1610100516143f3565b6040516370a0823160e01b815260048101829052916020836024816001600160a01b0389165afa928315611a22575f936130f4575b50919260209261302091336001600160a01b0388166148ac565b6040516370a0823160e01b8152600481019190915292839060249082906001600160a01b03165afa8015611a22575f906130c0575b61305f9250613bbc565b61307561306d60e051614659565b821015613bc9565b80600561012051015560405190815233907f2c39794ba48d965361d6eb56f0d6366313044d1b5b1758c68643d3e3a39a2c4e60206101005192a360015f556020604051610100518152f35b506020823d6020116130ec575b816130da602093836137bb565b810103126101685761305f9151613055565b3d91506130cd565b9092506020813d602011613122575b81613110602093836137bb565b81010312610168575191613020613006565b3d9150613103565b90508c01355f612f17565b9050600b61012051015f528a60205f20915f5b601f198d1681106131a85750915f516020614e5b5f395f51905f529796959391612f5595938d601f1981161061318f575b50505060018b811b01600b610120510155612f30565b01355f1960038e901b60f8161c191690558f8c81613179565b9181013583558d99508f98506001909201918c9160209182019101613148565b9193955091939550600b61012051015f5260205f20601f890160051c810160208a10613221575b918b979593918e9795935b601f830160051c82018110613210575050612eea565b5f81558d99508f98506001016131fa565b50806131ef565b50853b15612d20565b506001600160a01b038681169083161415612d05565b60405162461bcd60e51b815260206004820152600b60248201526a53656c6c6572207a65726f60a81b6044820152606490fd5b34610168575f36600319011261016857602060405162278d008152f35b34610168576020366003190112610168576004355f526006602052602060405f2054604051908152f35b34610168575f366003190112610168576040517f00000000000000000000000000000000000000000000000000000000000000006001600160a01b03168152602090f35b34610168576080366003190112610168576004356024356001600160401b03811161016857613338903690600401613581565b604435929160643561334861400f565b61335184614063565b4285118061356c575b613363906136e9565b5f84815260026020526040902060038101549093906001600160a01b031661338c811515613728565b60ff600986015416916006831015610351576134f0946134e46134ea936133b860016134be9714613763565b6133c28484614102565b6134b68a60018060a01b0360018c015416809d8c600260018060a01b0391015416948d60018060a01b0381541660066005830154920154926040519560208701977f3ec4667e1948e2e97f54b4602b6bbfa8f3f98ff1036916ce75d84c59f9558f0289526040880152606087015288608087015260a086015260c085015260e0840152610100830152610120820152896101408201526101408152613469610160826137bb565b5190206104136134a261347a61417e565b92604051928391602083019586909160429261190160f01b8352600283015260228201520190565b5190206134b03687876137f7565b90614abf565b969096614af0565b6001600160a01b0386169a6134d48c151561382d565b8b14908115613562575b5061386c565b87614223565b84614309565b6134f9826143b3565b60084291015562278d004201804211610862577f1a9502b6f661da8b0573a0617c121cabe2e93ea05d5239cfab6e9d1734b928c960208392604051908152a27fd658effe7cf013e5a508b3f1a373b92566494d8b6a7c2970fc964932de1c4dab5f80a360015f55005b90508a148b6134de565b5062015180420180421161086257851061335a565b9181601f84011215610168578235916001600160401b038311610168576020838186019501011161016857565b602435906001600160a01b038216820361016857565b90610100600319830112610168576004356001600160a01b038116810361016857916024356001600160a01b0381168103610168579160443591606435916084356001600160a01b0381168103610168579160a4356001600160401b038111610168578161363491600401613581565b9290929160c4356001600160401b038111610168578161365691600401613581565b9290929160e435906001600160401b0382116101685761367891600401613581565b9091565b9060406003198301126101685760043591602435906001600160401b0382116101685761367891600401613581565b9060068210156103515752565b805180835260209291819084018484015e5f828201840152601f01601f1916010190565b9190820180921161086257565b156136f057565b60405162461bcd60e51b815260206004820152601060248201526f496e76616c696420646561646c696e6560801b6044820152606490fd5b1561372f57565b60405162461bcd60e51b815260206004820152600c60248201526b2d32b9379030b93134ba32b960a11b6044820152606490fd5b1561376a57565b60405162461bcd60e51b815260206004820152600d60248201526c496e76616c696420737461746560981b6044820152606490fd5b61020081019081106001600160401b0382111761075a57604052565b90601f801991011681019081106001600160401b0382111761075a57604052565b6001600160401b03811161075a57601f01601f191660200190565b929192613803826137dc565b9161381160405193846137bb565b829481845281830111610168578281602093845f960137010152565b1561383457565b60405162461bcd60e51b815260206004820152601060248201526f496e76616c6964207265636f7665727960801b6044820152606490fd5b1561387357565b60405162461bcd60e51b81526020600482015260136024820152722ab730baba3437b934bd32b21039b4b3b732b960691b6044820152606490fd5b156138b557565b60405162461bcd60e51b815260206004820152600a602482015269546f6b656e207a65726f60b01b6044820152606490fd5b156138ee57565b60405162461bcd60e51b815260206004820152601160248201527042757965722073656c6c65722073616d6560781b6044820152606490fd5b1561392e57565b60405162461bcd60e51b815260206004820152600b60248201526a416d6f756e74207a65726f60a81b6044820152606490fd5b1561396857565b60405162461bcd60e51b81526020600482015260116024820152704d6174757269747920746f6f206c6f6e6760781b6044820152606490fd5b156139a857565b60405162461bcd60e51b815260206004820152601060248201526f105b5bdd5b9d081d1bdbc81cdb585b1b60821b6044820152606490fd5b156139e757565b60405162461bcd60e51b815260206004820152600f60248201526e24b73b30b634b21030b93134ba32b960891b6044820152606490fd5b15613a2557565b60405162461bcd60e51b815260206004820152601360248201527241726269746572206d75737420626520454f4160681b6044820152606490fd5b15613a6757565b60405162461bcd60e51b815260206004820152601e60248201527f417262697465722063616e6e6f742062652066656520726563656976657200006044820152606490fd5b5f1981146108625760010190565b15613ac157565b60405162461bcd60e51b81526020600482015260126024820152714d696e203120646179206d6174757269747960701b6044820152606490fd5b9060068110156103515760ff80198354169116179055565b90600182811c92168015613b41575b6020831014613b2d57565b634e487b7160e01b5f52602260045260245ffd5b91607f1691613b22565b908060209392818452848401375f828201840152601f01601f1916010190565b969492613bb9989692613bab959260018060a01b03168952602089015260018060a01b03166040880152606087015260c0608087015260c0860191613b4b565b9260a0818503910152613b4b565b90565b9190820391821161086257565b15613bd057565b60405162461bcd60e51b815260206004820152601f60248201527f416d6f756e7420746f6f20736d616c6c206166746572207472616e73666572006044820152606490fd5b15613c1c57565b60405162461bcd60e51b81526020600482015260116024820152704d697373696e672062757965722073696760781b6044820152606490fd5b15613c5c57565b60405162461bcd60e51b81526020600482015260126024820152714d697373696e672073656c6c65722073696760701b6044820152606490fd5b15613c9d57565b60405162461bcd60e51b81526020600482015260156024820152744e6f74206177616974696e672064656c697665727960581b6044820152606490fd5b15613ce157565b60405162461bcd60e51b815260206004820152600e60248201526d446973707574652061637469766560901b6044820152606490fd5b15613d1e57565b60405162461bcd60e51b815260206004820152600a602482015269139bc819195c1bdcda5d60b21b6044820152606490fd5b15613d5757565b60405162461bcd60e51b815260206004820152601460248201527313585d1d5c9a5d1e481b9bdd081c995858da195960621b6044820152606490fd5b15613d9a57565b60405162461bcd60e51b815260206004820152600c60248201526b139bdd08191a5cdc1d5d195960a21b6044820152606490fd5b15613dd557565b60405162461bcd60e51b815260206004820152600b60248201526a27b7363c9039b2b63632b960a91b6044820152606490fd5b15613e0f57565b60405162461bcd60e51b8152602060048201526011602482015270105b1c9958591e481cdd589b5a5d1d1959607a1b6044820152606490fd5b15613e4f57565b60405162461bcd60e51b815260206004820152600b60248201526a57726f6e6720737461746560a81b6044820152606490fd5b9060405191825f825492613e9584613b13565b8084529360018116908115613f005750600114613ebc575b50613eba925003836137bb565b565b90505f9291925260205f20905f915b818310613ee4575050906020613eba928201015f613ead565b6020919350806001915483858901015201910190918492613ecb565b905060209250613eba94915060ff191682840152151560051b8201015f613ead565b60405190613f316040836137bb565b601382527214185b1a5b991c9bdb5954185e55d85b1b195d606a1b6020830152565b60405190613f626040836137bb565b60018252603160f81b6020830152565b926080929594919560a08501967f8b73c3c69bb8fe3d512ecc4cf759cc79239f7b179b0ffacaa9a75d522b39400f865260208601526040850152606084015260018060a01b0316910152565b7fed473c518e54a8b0629fb3b28066f73c014d4ea2c521bd458da8b399f3757882815260208101919091526001600160a01b0391821660408201529181166060830152909116608082015260a00190565b60025f541461401e5760025f55565b60405162461bcd60e51b815260206004820152601f60248201527f5265656e7472616e637947756172643a207265656e7472616e742063616c6c006044820152606490fd5b6001548110156140c5575f908152600260205260409020600101546001600160a01b03161561408e57565b60405162461bcd60e51b815260206004820152600f60248201526e139bdd081a5b9a5d1a585b1a5e9959608a1b6044820152606490fd5b60405162461bcd60e51b8152602060048201526015602482015274115cd8dc9bddc8191bd95cc81b9bdd08195e1a5cdd605a1b6044820152606490fd5b9060410361416f576fa2a8918ca85bafe22016d0b997e4df60600160ff1b03602060408301355f1a9201351161416057601b8114159081614154575b5061414557565b6307839aef60e21b5f5260045ffd5b601c915014155f61413e565b6354b34b0360e01b5f5260045ffd5b6354f3472360e01b5f5260045ffd5b467f0000000000000000000000000000000000000000000000000000000000000000036141c9577f000000000000000000000000000000000000000000000000000000000000000090565b600d60206040516141db6040826137bb565b828152016c50616c696e64726f6d6550617960981b81522061041361421d614201613f53565b6020815191012060405192839160208301953091469188613f72565b51902090565b9160410361416f57602081013560408201355f1a6fa2a8918ca85bafe22016d0b997e4df60600160ff1b03821161416057601b81141590816142fd575b50614145576040519060208201923060601b845284603484015235605483015260748201524660948201526094815261429a60b4826137bb565b519020805f52600360205260ff60405f2054166142ee57805f52600360205260405f20600160ff198254161790557f5cf314d14d264e3917100f2209e080567dfef92e06bde70b72b0b21b38bc17d15f80a3565b63900bb2c960e01b5f5260045ffd5b601c915014155f614260565b908260081c825f52600560205260405f2060018060a01b0383165f5260205260405f20815f5260205260405f205491600160ff86161b8084166143a4577fbae8ea991a760004b9ed95b1be79b85f9327ac74867c0e7643319b89e1bc719193602093865f526005855260405f2060018060a01b0385165f52855260405f20905f5284521760405f205560405194855260018060a01b031693a3565b633ab3447f60e11b5f5260045ffd5b600290805f52816020525f516020614e9b5f395f51905f526020600960405f20016143e38560ff83541692613afb565b6143f060405180926136ab565ba3565b600190805f5260026020525f516020614e9b5f395f51905f526020600960405f20016143e38560ff83541692613afb565b600390805f5260026020525f516020614e9b5f395f51905f526020600960405f20016143e38560ff83541692613afb565b600590805f5260026020525f516020614e9b5f395f51905f526020600960405f20016143e38560ff83541692613afb565b5080151590816144d5575b501561449957565b60405162461bcd60e51b8152602060048201526014602482015273092dcecc2d8d2c840e8d2e8d8ca40d8cadccee8d60631b6044820152606490fd5b6101f4915011155f614491565b506101f4106144ed57565b60405162461bcd60e51b815260206004820152601860248201527f496e76616c696420495046532068617368206c656e67746800000000000000006044820152606490fd5b60405163313ce56760e01b815290602090829060049082906001600160a01b0316617530fa5f918161460a575b506145a95760405162461bcd60e51b815260206004820152601f60248201527f546f6b656e206d75737420696d706c656d656e7420646563696d616c732829006044820152606490fd5b60ff8116600681101590816145fe575b50156145c25790565b60405162461bcd60e51b8152602060048201526014602482015273556e737570706f7274656420646563696d616c7360601b6044820152606490fd5b6012915011155f6145b9565b9091506020813d602011614640575b81614626602093836137bb565b81010312610168575160ff8116810361016857905f61455f565b3d9150614619565b60ff16604d811161086257600a0a90565b61466290614648565b80600a0290600a8204036108625790565b9081602091031261016857516001600160a01b03811681036101685790565b604051633aa159bd60e21b815230600482015260248101919091526020816044816001600160a01b037f0000000000000000000000000000000000000000000000000000000000000000165afa908115611a22575f916146f0575090565b613bb9915060203d602011614712575b61470a81836137bb565b810190614673565b503d614700565b929391906040190161484b576001600160a01b0382169384156148425760208401359160408501355f1a906fa2a8918ca85bafe22016d0b997e4df60600160ff1b03841161482c57601b82141580614837575b61482c5761481f9561480d6147ff94614817976147d561478a613f22565b60208151910120836147bb61479d613f53565b60208151910120926104136040519384926020840196469188613f72565b519020956104136040519384926020840196309188613fbe565b519020604051958691602083019586909160429261190160f01b8352600283015260228201520190565b03601f1981018652856137bb565b3592519020614d0c565b919091614af0565b6001600160a01b03161490565b505050505050505f90565b50601c82141561476c565b50505050505f90565b505050505f90565b60405163a5e3875160e01b815260048101919091526020816024815f7f00000000000000000000000000000000000000000000000000000000000000006001600160a01b03165af1908115611a22575f916146f0575090565b6040516323b872dd60e01b60208201526001600160a01b039283166024820152929091166044830152606480830193909352918152613eba91610bf66084836137bb565b9091815f52600260205260405f209160ff6009600585015494015460181c16600281115f146149c5576001190160ff81116108625761492e90614648565b6064840284810460641485151715610862576127109004908082106149bd5750925b808410156129ca576080614972855f516020614e7b5f395f51905f5293613bbc565b604080516001600160a01b039889168152602081018390527f0000000000000000000000000000000000000000000000000000000000000000909816908801526060870186905295a2565b905092614950565b5061492e5f614648565b91825f526002602052600560405f200154925f516020614e7b5f395f51905f5260805f946040519060018060a01b0316815286602082015260018060a01b037f00000000000000000000000000000000000000000000000000000000000000001660408201525f6060820152a2565b5f908152600260205260409020600101546001600160a01b03163303614a6057565b6386efbb5560e01b5f5260045ffd5b5f52600260205260405f2060018060a01b036001820154163314159081614aa7575b50614a9857565b631cfe2f0560e11b5f5260045ffd5b600201546001600160a01b031633141590505f614a91565b9060418151145f14614ae75761367891602082015190606060408401519301515f1a90614d0c565b50505f90600290565b60058110156103515780614b015750565b60018103614b4e5760405162461bcd60e51b815260206004820152601860248201527f45434453413a20696e76616c6964207369676e617475726500000000000000006044820152606490fd5b60028103614b9b5760405162461bcd60e51b815260206004820152601f60248201527f45434453413a20696e76616c6964207369676e6174757265206c656e677468006044820152606490fd5b600314614ba457565b60405162461bcd60e51b815260206004820152602260248201527f45434453413a20696e76616c6964207369676e6174757265202773272076616c604482015261756560f01b6064820152608490fd5b90614c739160018060a01b03165f8060405193614c126040866137bb565b602085527f5361666545524332303a206c6f772d6c6576656c2063616c6c206661696c6564602086015260208151910182855af13d15614d04573d91614c57836137dc565b92614c6560405194856137bb565b83523d5f602085013e614d7d565b8051908115918215614ce1575b505015614c8957565b60405162461bcd60e51b815260206004820152602a60248201527f5361666545524332303a204552433230206f7065726174696f6e20646964206e6044820152691bdd081cdd58d8d9595960b21b6064820152608490fd5b819250906020918101031261016857602001518015158103610168575f80614c80565b606091614d7d565b6fa2a8918ca85bafe22016d0b997e4df60600160ff1b038411614d72576020935f9360ff60809460405194855216868401526040830152606082015282805260015afa15611a22575f516001600160a01b03811615614d6a57905f90565b505f90600190565b505050505f90600390565b91929015614ddf5750815115614d91575090565b3b15614d9a5790565b60405162461bcd60e51b815260206004820152601d60248201527f416464726573733a2063616c6c20746f206e6f6e2d636f6e74726163740000006044820152606490fd5b825190915015614df25750805190602001fd5b60405162461bcd60e51b815260206004820152908190614e169060248301906136b8565b0390fdfe9a98d2f378553651c1f49353593985b1cda0f6d7e9ab1062bb365dc9172a5cd5db73a95b5021282afa069105f6341730da3d69b308a9167526d1d9d4855ce6e6d3e0574cb952cf8d88c9c2b97882e6000237da1d62a64753eaddaf4d9ce7351b4efd0eb8137437cc21ded7c1b056cd5a6e457ad8830e42d74bb9ba46144dbe8318e785d11512625ba8e5486b7d963f337dfc0a628752fe18e284b0375eefe46ca264697066735822122086da5a546306a44a470d06a43ab390c662b5ed35d8665c18cf7c843ee5ece44164736f6c634300081d0033",
  "linkReferences": {},
  "deployedLinkReferences": {},
  "immutableReferences": {
    "3203": [
      {
        "length": 32,
        "start": 1258
      },
      {
        "length": 32,
        "start": 2943
      },
      {
        "length": 32,
        "start": 7655
      },
      {
        "length": 32,
        "start": 10616
      },
      {
        "length": 32,
        "start": 11577
      },
      {
        "length": 32,
        "start": 18828
      },
      {
        "length": 32,
        "start": 18960
      }
    ],
    "3207": [
      {
        "length": 32,
        "start": 13014
      },
      {
        "length": 32,
        "start": 18109
      },
      {
        "length": 32,
        "start": 18545
      }
    ],
    "3210": [
      {
        "length": 32,
        "start": 16807
      }
    ],
    "3213": [
      {
        "length": 32,
        "start": 16769
      }
    ]
  },
  "inputSourceName": "project/contracts/PalindromePay.sol",
  "buildInfoId": "solc-0_8_29-7d3d49b858752c29b6d8c98b0ba92bf7aed19fb0"
}