{
  "_format": "hh3-artifact-1",
  "contractName": "PalindromeEscrowWallet",
  "sourceName": "contracts/PalindromeEscrowWallet.sol",
  "abi": [
    {
      "inputs": [
        {
          "internalType": "address",
          "name": "_token",
          "type": "address"
        },
        {
          "internalType": "address",
          "name": "_buyer",
          "type": "address"
        },
        {
          "internalType": "address",
          "name": "_seller",
          "type": "address"
        },
        {
          "internalType": "address",
          "name": "_arbiter",
          "type": "address"
        },
        {
          "internalType": "address",
          "name": "_feeTo",
          "type": "address"
        },
        {
          "internalType": "uint256",
          "name": "_netAmount",
          "type": "uint256"
        },
        {
          "internalType": "uint256",
          "name": "_feeAmount",
          "type": "uint256"
        },
        {
          "internalType": "uint8",
          "name": "_threshold",
          "type": "uint8"
        }
      ],
      "stateMutability": "nonpayable",
      "type": "constructor"
    },
    {
      "anonymous": false,
      "inputs": [
        {
          "indexed": true,
          "internalType": "uint256",
          "name": "nonce",
          "type": "uint256"
        },
        {
          "indexed": true,
          "internalType": "address",
          "name": "token",
          "type": "address"
        },
        {
          "indexed": false,
          "internalType": "address",
          "name": "to",
          "type": "address"
        },
        {
          "indexed": false,
          "internalType": "uint256",
          "name": "netAmount",
          "type": "uint256"
        },
        {
          "indexed": false,
          "internalType": "address",
          "name": "feeTo",
          "type": "address"
        },
        {
          "indexed": false,
          "internalType": "uint256",
          "name": "feeAmount",
          "type": "uint256"
        }
      ],
      "name": "SplitExecuted",
      "type": "event"
    },
    {
      "inputs": [],
      "name": "arbiter",
      "outputs": [
        {
          "internalType": "address",
          "name": "",
          "type": "address"
        }
      ],
      "stateMutability": "view",
      "type": "function"
    },
    {
      "inputs": [],
      "name": "buyer",
      "outputs": [
        {
          "internalType": "address",
          "name": "",
          "type": "address"
        }
      ],
      "stateMutability": "view",
      "type": "function"
    },
    {
      "inputs": [
        {
          "internalType": "address",
          "name": "to",
          "type": "address"
        },
        {
          "internalType": "bytes[3]",
          "name": "signatures",
          "type": "bytes[3]"
        }
      ],
      "name": "executeERC20Split",
      "outputs": [],
      "stateMutability": "nonpayable",
      "type": "function"
    },
    {
      "inputs": [],
      "name": "feeAmount",
      "outputs": [
        {
          "internalType": "uint256",
          "name": "",
          "type": "uint256"
        }
      ],
      "stateMutability": "view",
      "type": "function"
    },
    {
      "inputs": [],
      "name": "feeTo",
      "outputs": [
        {
          "internalType": "address",
          "name": "",
          "type": "address"
        }
      ],
      "stateMutability": "view",
      "type": "function"
    },
    {
      "inputs": [],
      "name": "getOwners",
      "outputs": [
        {
          "internalType": "address[]",
          "name": "",
          "type": "address[]"
        }
      ],
      "stateMutability": "view",
      "type": "function"
    },
    {
      "inputs": [
        {
          "internalType": "address",
          "name": "account",
          "type": "address"
        }
      ],
      "name": "isOwner",
      "outputs": [
        {
          "internalType": "bool",
          "name": "",
          "type": "bool"
        }
      ],
      "stateMutability": "view",
      "type": "function"
    },
    {
      "inputs": [],
      "name": "netAmount",
      "outputs": [
        {
          "internalType": "uint256",
          "name": "",
          "type": "uint256"
        }
      ],
      "stateMutability": "view",
      "type": "function"
    },
    {
      "inputs": [],
      "name": "nonce",
      "outputs": [
        {
          "internalType": "uint256",
          "name": "",
          "type": "uint256"
        }
      ],
      "stateMutability": "view",
      "type": "function"
    },
    {
      "inputs": [],
      "name": "seller",
      "outputs": [
        {
          "internalType": "address",
          "name": "",
          "type": "address"
        }
      ],
      "stateMutability": "view",
      "type": "function"
    },
    {
      "inputs": [],
      "name": "threshold",
      "outputs": [
        {
          "internalType": "uint8",
          "name": "",
          "type": "uint8"
        }
      ],
      "stateMutability": "view",
      "type": "function"
    },
    {
      "inputs": [],
      "name": "token",
      "outputs": [
        {
          "internalType": "address",
          "name": "",
          "type": "address"
        }
      ],
      "stateMutability": "view",
      "type": "function"
    }
  ],
  "bytecode": "0x6101a0806040523461036f57610100816115e980380380916100218285610373565b83398101031261036f57610034816103aa565b90610041602082016103aa565b61004d604083016103aa565b610059606084016103aa565b610065608085016103aa565b9160a08501519360e060c08701519601519660ff881680890361036f576001600160a01b03831615158061035d575b8061034b575b15610317576002036102d2576101405260805260a05260c05260e0526101005261012052610160526040516100d0604082610373565b601681527f50616c696e64726f6d65457363726f7757616c6c657400000000000000000000602090910152604080517fd5841ac2316671d82a0b6316f3b37c25b9263de2e5c9e54cefc98911e9c1f8df9161012b9082610373565b600181526020810190603160f81b82525190206040519060208201927f8b73c3c69bb8fe3d512ecc4cf759cc79239f7b179b0ffacaa9a75d522b39400f8452604083015260608201524660808201523060a082015260a0815261018f60c082610373565b5190206101805260405161122a90816103bf823960805181818161017c0152818161056c01528181610c110152610ce5015260a0518181816101b20152818161059101528181610d560152610d9c015260c05181818160b5015281816101eb015281816105b90152610d23015260e0518181816102f8015281816104b00152818161088f015281816109500152610ddd01526101005181818161028e01528181610327015281816103780152818161039b015281816103c10152818161086901526109a801526101205181818161035701528181610825015281816108b90152818161092f01528181610b0a01528181610b6e0152610c5701526101405181818160fd015281816104080152818161047e015281816108df0152818161097101526109ca0152610160518181816107ea0152610c93015261018051816105040152f35b60405162461bcd60e51b815260206004820152601360248201527f5468726573686f6c64206d7573742062652032000000000000000000000000006044820152606490fd5b60405162461bcd60e51b815260206004820152600c60248201526b5a65726f206164647265737360a01b6044820152606490fd5b506001600160a01b038516151561009a565b506001600160a01b0384161515610094565b5f80fd5b601f909101601f19168101906001600160401b0382119082101761039657604052565b634e487b7160e01b5f52604160045260245ffd5b51906001600160a01b038216820361036f5756fe6080806040526004361015610012575f80fd5b5f3560e01c908163017e7e5814610dcb5750806308551a5314610d875780632f54bf6e14610cb757806342cde4e814610c7a57806369e1540414610c405780637150d8ae14610bfc5780637652a7c1146102b15780637c16073c14610277578063a0e67e2b14610148578063affed0e01461012c578063fc0c546a146100e85763fe25e00a146100a0575f80fd5b346100e4575f3660031901126100e4576040517f00000000000000000000000000000000000000000000000000000000000000006001600160a01b03168152602090f35b5f80fd5b346100e4575f3660031901126100e4576040517f00000000000000000000000000000000000000000000000000000000000000006001600160a01b03168152602090f35b346100e4575f3660031901126100e45760205f54604051908152f35b346100e4575f3660031901126100e457604051610166608082610e22565b60038152602081016060368237815115610263577f00000000000000000000000000000000000000000000000000000000000000006001600160a01b03168152815160011015610263577f00000000000000000000000000000000000000000000000000000000000000006001600160a01b03166040830152815160021015610263577f00000000000000000000000000000000000000000000000000000000000000006001600160a01b03166060830152604080516020808252935193810184905292839291830191905f5b818110610241575050500390f35b82516001600160a01b0316845285945060209384019390920191600101610233565b634e487b7160e01b5f52603260045260245ffd5b346100e4575f3660031901126100e45760206040517f00000000000000000000000000000000000000000000000000000000000000008152f35b346100e45760403660031901126100e4576102ca610e0c565b67ffffffffffffffff602435116100e45736606460243501116100e4576001600160a01b03811615610bc6577f00000000000000000000000000000000000000000000000000000000000000006001600160a01b031615610b94577f00000000000000000000000000000000000000000000000000000000000000001580158091610b6b575b15610b30577f00000000000000000000000000000000000000000000000000000000000000007f000000000000000000000000000000000000000000000000000000000000000001807f00000000000000000000000000000000000000000000000000000000000000001161072d577f0000000000000000000000000000000000000000000000000000000000000000811180610b07575b15610ad7576040516370a0823160e01b81523060048201526020816024817f00000000000000000000000000000000000000000000000000000000000000006001600160a01b03165afa908115610acc575f91610a9a575b5010610a55575f54604080517f85096d454b88c412c1a14bfea7d9c16c900bc8a4e82ffc96e3ae097f48551181602082019081526001600160a01b037f000000000000000000000000000000000000000000000000000000000000000081169383019390935285831660608301527f0000000000000000000000000000000000000000000000000000000000000000909216608082015260a080820184905281529192916104ef60c082610e22565b519020604051602081019161190160f01b83527f0000000000000000000000000000000000000000000000000000000000000000602283015260428201526042815261053c606282610e22565b519020905f91604051946060860186811067ffffffffffffffff821117610a415760409081526001600160a01b037f0000000000000000000000000000000000000000000000000000000000000000811688527f0000000000000000000000000000000000000000000000000000000000000000811660208901527f00000000000000000000000000000000000000000000000000000000000000001687820152519194919290916105ef606085610e22565b60603685375f955b600360ff881610156107e3576004611fe08860051b166024350101356022196024353603018112156100e4576024350193600485013567ffffffffffffffff81116100e457602486019080360382136100e4576041036107565760648601355f1a95604401356fa2a8918ca85bafe22016d0b997e4df60600160ff1b0381116107b257601b871480156107a8575b15610777576106a29661069a92359085610fb7565b959095611028565b6001600160a01b03851615610767575f5b600360ff82161015610756576001600160a01b036106d460ff83168c610e44565b51166001600160a01b0387161480610741575b6106f65760010160ff166106b3565b60ff92955061070f836001929a999396959a1688610e44565b521660ff811461072d5760018060ff9201965b0116959091926105f7565b634e487b7160e01b5f52601160045260245ffd5b5061074f60ff821688610e44565b51156106e7565b5092919660ff919450600190610722565b92919660ff919450600190610722565b60405162461bcd60e51b815260206004820152600960248201526824b73b30b634b2103b60b91b6044820152606490fd5b50601c8714610685565b60405162461bcd60e51b8152602060048201526009602482015268496e76616c6964207360b81b6044820152606490fd5b508460ff807f0000000000000000000000000000000000000000000000000000000000000000169116106109fc575f19811461072d576001015f556109a3575b7f000000000000000000000000000000000000000000000000000000000000000061092a575b5f545f19810190811161072d57604080516001600160a01b0393841681527f000000000000000000000000000000000000000000000000000000000000000060208201527f00000000000000000000000000000000000000000000000000000000000000008416918101919091527f000000000000000000000000000000000000000000000000000000000000000060608201527f0000000000000000000000000000000000000000000000000000000000000000909216917f457938e2512bd940a38c710d197d7fdd21dac266a89e0e19e9e7c24e3822ee5d90608090a3005b61099e7f00000000000000000000000000000000000000000000000000000000000000007f00000000000000000000000000000000000000000000000000000000000000007f00000000000000000000000000000000000000000000000000000000000000006001600160a01b0316610e55565b610849565b6109f77f0000000000000000000000000000000000000000000000000000000000000000827f00000000000000000000000000000000000000000000000000000000000000006001600160a01b0316610e55565b610823565b60405162461bcd60e51b815260206004820152601760248201527f496e73756666696369656e74207369676e6174757265730000000000000000006044820152606490fd5b634e487b7160e01b5f52604160045260245ffd5b60405162461bcd60e51b815260206004820152601b60248201527f496e73756666696369656e742077616c6c65742062616c616e636500000000006044820152606490fd5b90506020813d602011610ac4575b81610ab560209383610e22565b810103126100e4575184610440565b3d9150610aa8565b6040513d5f823e3d90fd5b60405162461bcd60e51b81526020600482015260086024820152674f766572666c6f7760c01b6044820152606490fd5b507f000000000000000000000000000000000000000000000000000000000000000081116103e8565b60405162461bcd60e51b81526020600482015260136024820152722737ba3434b733903a37903a3930b739b332b960691b6044820152606490fd5b507f00000000000000000000000000000000000000000000000000000000000000001515610350565b60405162461bcd60e51b815260206004820152600a602482015269466565546f207a65726f60b01b6044820152606490fd5b60405162461bcd60e51b815260206004820152600e60248201526d526563697069656e74207a65726f60901b6044820152606490fd5b346100e4575f3660031901126100e4576040517f00000000000000000000000000000000000000000000000000000000000000006001600160a01b03168152602090f35b346100e4575f3660031901126100e45760206040517f00000000000000000000000000000000000000000000000000000000000000008152f35b346100e4575f3660031901126100e457602060405160ff7f0000000000000000000000000000000000000000000000000000000000000000168152f35b346100e45760203660031901126100e45760206001600160a01b03610cda610e0c565b166001600160a01b037f0000000000000000000000000000000000000000000000000000000000000000168114908115610d54575b8115610d21575b506040519015158152f35b7f00000000000000000000000000000000000000000000000000000000000000006001600160a01b031614905082610d16565b7f00000000000000000000000000000000000000000000000000000000000000006001600160a01b031681149150610d0f565b346100e4575f3660031901126100e4576040517f00000000000000000000000000000000000000000000000000000000000000006001600160a01b03168152602090f35b346100e4575f3660031901126100e4577f00000000000000000000000000000000000000000000000000000000000000006001600160a01b03168152602090f35b600435906001600160a01b03821682036100e457565b90601f8019910116810190811067ffffffffffffffff821117610a4157604052565b9060038110156102635760051b0190565b5f809193929360405193602085019563a9059cbb60e01b875260018060a01b03166024860152604485015260448452610e8f606485610e22565b60018060a01b03169360405193610ea7604086610e22565b602085527f5361666545524332303a206c6f772d6c6576656c2063616c6c206661696c65646020860152519082865af13d15610faa573d9067ffffffffffffffff8211610a4157604051610f19949092610f0b601f8201601f191660200185610e22565b83523d5f602085013e611140565b8051908115918215610f87575b505015610f2f57565b60405162461bcd60e51b815260206004820152602a60248201527f5361666545524332303a204552433230206f7065726174696f6e20646964206e6044820152691bdd081cdd58d8d9595960b21b6064820152608490fd5b81925090602091810103126100e4576020015180151581036100e4575f80610f26565b91610f1992606091611140565b6fa2a8918ca85bafe22016d0b997e4df60600160ff1b03841161101d576020935f9360ff60809460405194855216868401526040830152606082015282805260015afa15610acc575f516001600160a01b0381161561101557905f90565b505f90600190565b505050505f90600390565b600581101561112c57806110395750565b600181036110865760405162461bcd60e51b815260206004820152601860248201527f45434453413a20696e76616c6964207369676e617475726500000000000000006044820152606490fd5b600281036110d35760405162461bcd60e51b815260206004820152601f60248201527f45434453413a20696e76616c6964207369676e6174757265206c656e677468006044820152606490fd5b6003146110dc57565b60405162461bcd60e51b815260206004820152602260248201527f45434453413a20696e76616c6964207369676e6174757265202773272076616c604482015261756560f01b6064820152608490fd5b634e487b7160e01b5f52602160045260245ffd5b919290156111a25750815115611154575090565b3b1561115d5790565b60405162461bcd60e51b815260206004820152601d60248201527f416464726573733a2063616c6c20746f206e6f6e2d636f6e74726163740000006044820152606490fd5b8251909150156111b55750805190602001fd5b604460209160405192839162461bcd60e51b83528160048401528051918291826024860152018484015e5f828201840152601f01601f19168101030190fdfea264697066735822122017dd6a1eb0eb9adabd3b100e42cb2c1e35ba54ed4cf9986695737a3d6c02870664736f6c634300081d0033",
  "linkReferences": {},
  "deployedLinkReferences": {},
  "immutableReferences": {
    "14193": [
      {
        "length": 32,
        "start": 380
      },
      {
        "length": 32,
        "start": 1388
      },
      {
        "length": 32,
        "start": 3089
      },
      {
        "length": 32,
        "start": 3301
      }
    ],
    "14195": [
      {
        "length": 32,
        "start": 434
      },
      {
        "length": 32,
        "start": 1425
      },
      {
        "length": 32,
        "start": 3414
      },
      {
        "length": 32,
        "start": 3484
      }
    ],
    "14197": [
      {
        "length": 32,
        "start": 181
      },
      {
        "length": 32,
        "start": 491
      },
      {
        "length": 32,
        "start": 1465
      },
      {
        "length": 32,
        "start": 3363
      }
    ],
    "14199": [
      {
        "length": 32,
        "start": 760
      },
      {
        "length": 32,
        "start": 1200
      },
      {
        "length": 32,
        "start": 2191
      },
      {
        "length": 32,
        "start": 2384
      },
      {
        "length": 32,
        "start": 3549
      }
    ],
    "14201": [
      {
        "length": 32,
        "start": 654
      },
      {
        "length": 32,
        "start": 807
      },
      {
        "length": 32,
        "start": 888
      },
      {
        "length": 32,
        "start": 923
      },
      {
        "length": 32,
        "start": 961
      },
      {
        "length": 32,
        "start": 2153
      },
      {
        "length": 32,
        "start": 2472
      }
    ],
    "14203": [
      {
        "length": 32,
        "start": 855
      },
      {
        "length": 32,
        "start": 2085
      },
      {
        "length": 32,
        "start": 2233
      },
      {
        "length": 32,
        "start": 2351
      },
      {
        "length": 32,
        "start": 2826
      },
      {
        "length": 32,
        "start": 2926
      },
      {
        "length": 32,
        "start": 3159
      }
    ],
    "14205": [
      {
        "length": 32,
        "start": 253
      },
      {
        "length": 32,
        "start": 1032
      },
      {
        "length": 32,
        "start": 1150
      },
      {
        "length": 32,
        "start": 2271
      },
      {
        "length": 32,
        "start": 2417
      },
      {
        "length": 32,
        "start": 2506
      }
    ],
    "14207": [
      {
        "length": 32,
        "start": 2026
      },
      {
        "length": 32,
        "start": 3219
      }
    ],
    "14221": [
      {
        "length": 32,
        "start": 1284
      }
    ]
  },
  "inputSourceName": "project/contracts/PalindromeEscrowWallet.sol",
  "buildInfoId": "solc-0_8_29-269d2787a3bcc1d1f5637f06c208a8f5f8e2dd86"
}