{
  "_format": "hh3-artifact-1",
  "contractName": "PalindromeCryptoEscrow",
  "sourceName": "contracts/PalindromeCryptoEscrow.sol",
  "abi": [
    {
      "inputs": [
        {
          "internalType": "address",
          "name": "_lpToken",
          "type": "address"
        },
        {
          "internalType": "address",
          "name": "initialAllowedToken",
          "type": "address"
        }
      ],
      "stateMutability": "nonpayable",
      "type": "constructor"
    },
    {
      "inputs": [],
      "name": "InvalidMessageRoleForDispute",
      "type": "error"
    },
    {
      "anonymous": false,
      "inputs": [
        {
          "indexed": true,
          "internalType": "uint256",
          "name": "escrowId",
          "type": "uint256"
        },
        {
          "indexed": true,
          "internalType": "address",
          "name": "seller",
          "type": "address"
        },
        {
          "indexed": false,
          "internalType": "uint256",
          "name": "amount",
          "type": "uint256"
        },
        {
          "indexed": false,
          "internalType": "uint256",
          "name": "fee",
          "type": "uint256"
        }
      ],
      "name": "AutoReleased",
      "type": "event"
    },
    {
      "anonymous": false,
      "inputs": [
        {
          "indexed": true,
          "internalType": "uint256",
          "name": "escrowId",
          "type": "uint256"
        },
        {
          "indexed": true,
          "internalType": "address",
          "name": "initiator",
          "type": "address"
        },
        {
          "indexed": false,
          "internalType": "uint256",
          "name": "amount",
          "type": "uint256"
        },
        {
          "indexed": false,
          "internalType": "uint256",
          "name": "fee",
          "type": "uint256"
        }
      ],
      "name": "Canceled",
      "type": "event"
    },
    {
      "anonymous": false,
      "inputs": [
        {
          "indexed": true,
          "internalType": "uint256",
          "name": "escrowId",
          "type": "uint256"
        },
        {
          "indexed": true,
          "internalType": "address",
          "name": "buyer",
          "type": "address"
        },
        {
          "indexed": true,
          "internalType": "address",
          "name": "seller",
          "type": "address"
        },
        {
          "indexed": false,
          "internalType": "uint256",
          "name": "amount",
          "type": "uint256"
        },
        {
          "indexed": false,
          "internalType": "uint256",
          "name": "fee",
          "type": "uint256"
        }
      ],
      "name": "DeliveryConfirmed",
      "type": "event"
    },
    {
      "anonymous": false,
      "inputs": [
        {
          "indexed": true,
          "internalType": "uint256",
          "name": "escrowId",
          "type": "uint256"
        },
        {
          "indexed": true,
          "internalType": "address",
          "name": "sender",
          "type": "address"
        },
        {
          "indexed": true,
          "internalType": "uint256",
          "name": "role",
          "type": "uint256"
        },
        {
          "indexed": false,
          "internalType": "string",
          "name": "ipfsHash",
          "type": "string"
        },
        {
          "indexed": false,
          "internalType": "uint256",
          "name": "disputeStatus",
          "type": "uint256"
        }
      ],
      "name": "DisputeMessagePosted",
      "type": "event"
    },
    {
      "anonymous": false,
      "inputs": [
        {
          "indexed": true,
          "internalType": "uint256",
          "name": "escrowId",
          "type": "uint256"
        },
        {
          "indexed": false,
          "internalType": "enum PalindromeCryptoEscrow.State",
          "name": "resolution",
          "type": "uint8"
        },
        {
          "indexed": false,
          "internalType": "address",
          "name": "arbiter",
          "type": "address"
        },
        {
          "indexed": false,
          "internalType": "uint256",
          "name": "amount",
          "type": "uint256"
        },
        {
          "indexed": false,
          "internalType": "uint256",
          "name": "fee",
          "type": "uint256"
        }
      ],
      "name": "DisputeResolved",
      "type": "event"
    },
    {
      "anonymous": false,
      "inputs": [
        {
          "indexed": true,
          "internalType": "uint256",
          "name": "escrowId",
          "type": "uint256"
        },
        {
          "indexed": true,
          "internalType": "address",
          "name": "initiator",
          "type": "address"
        }
      ],
      "name": "DisputeStarted",
      "type": "event"
    },
    {
      "anonymous": false,
      "inputs": [
        {
          "indexed": true,
          "internalType": "uint256",
          "name": "escrowId",
          "type": "uint256"
        },
        {
          "indexed": false,
          "internalType": "address",
          "name": "oldArbiter",
          "type": "address"
        },
        {
          "indexed": false,
          "internalType": "address",
          "name": "newArbiter",
          "type": "address"
        }
      ],
      "name": "EscrowArbiterChanged",
      "type": "event"
    },
    {
      "anonymous": false,
      "inputs": [
        {
          "indexed": true,
          "internalType": "uint256",
          "name": "escrowId",
          "type": "uint256"
        },
        {
          "indexed": true,
          "internalType": "address",
          "name": "buyer",
          "type": "address"
        },
        {
          "indexed": true,
          "internalType": "address",
          "name": "seller",
          "type": "address"
        },
        {
          "indexed": false,
          "internalType": "address",
          "name": "token",
          "type": "address"
        },
        {
          "indexed": false,
          "internalType": "uint256",
          "name": "amount",
          "type": "uint256"
        },
        {
          "indexed": false,
          "internalType": "address",
          "name": "arbiter",
          "type": "address"
        },
        {
          "indexed": false,
          "internalType": "uint256",
          "name": "maturityTime",
          "type": "uint256"
        },
        {
          "indexed": false,
          "internalType": "string",
          "name": "title",
          "type": "string"
        },
        {
          "indexed": false,
          "internalType": "string",
          "name": "ipfsHash",
          "type": "string"
        }
      ],
      "name": "EscrowCreated",
      "type": "event"
    },
    {
      "anonymous": false,
      "inputs": [
        {
          "indexed": true,
          "internalType": "address",
          "name": "token",
          "type": "address"
        },
        {
          "indexed": true,
          "internalType": "address",
          "name": "to",
          "type": "address"
        },
        {
          "indexed": false,
          "internalType": "uint256",
          "name": "amount",
          "type": "uint256"
        }
      ],
      "name": "FeeWithdrawn",
      "type": "event"
    },
    {
      "anonymous": false,
      "inputs": [
        {
          "indexed": true,
          "internalType": "address",
          "name": "owner",
          "type": "address"
        },
        {
          "indexed": false,
          "internalType": "uint256",
          "name": "lpBurned",
          "type": "uint256"
        }
      ],
      "name": "FeeWithdrawnAll",
      "type": "event"
    },
    {
      "anonymous": false,
      "inputs": [
        {
          "indexed": true,
          "internalType": "address",
          "name": "previousOwner",
          "type": "address"
        },
        {
          "indexed": true,
          "internalType": "address",
          "name": "newOwner",
          "type": "address"
        }
      ],
      "name": "OwnershipTransferStarted",
      "type": "event"
    },
    {
      "anonymous": false,
      "inputs": [
        {
          "indexed": true,
          "internalType": "address",
          "name": "previousOwner",
          "type": "address"
        },
        {
          "indexed": true,
          "internalType": "address",
          "name": "newOwner",
          "type": "address"
        }
      ],
      "name": "OwnershipTransferred",
      "type": "event"
    },
    {
      "anonymous": false,
      "inputs": [
        {
          "indexed": true,
          "internalType": "uint256",
          "name": "escrowId",
          "type": "uint256"
        },
        {
          "indexed": true,
          "internalType": "address",
          "name": "buyer",
          "type": "address"
        },
        {
          "indexed": false,
          "internalType": "uint256",
          "name": "amount",
          "type": "uint256"
        }
      ],
      "name": "PaymentDeposited",
      "type": "event"
    },
    {
      "anonymous": false,
      "inputs": [
        {
          "indexed": true,
          "internalType": "address",
          "name": "token",
          "type": "address"
        },
        {
          "indexed": true,
          "internalType": "address",
          "name": "recipient",
          "type": "address"
        },
        {
          "indexed": false,
          "internalType": "uint256",
          "name": "amount",
          "type": "uint256"
        },
        {
          "indexed": false,
          "internalType": "uint256",
          "name": "fee",
          "type": "uint256"
        }
      ],
      "name": "PayoutWithFee",
      "type": "event"
    },
    {
      "anonymous": false,
      "inputs": [
        {
          "indexed": true,
          "internalType": "uint256",
          "name": "escrowId",
          "type": "uint256"
        },
        {
          "indexed": true,
          "internalType": "address",
          "name": "initiator",
          "type": "address"
        },
        {
          "indexed": false,
          "internalType": "uint256",
          "name": "amount",
          "type": "uint256"
        },
        {
          "indexed": false,
          "internalType": "uint256",
          "name": "fee",
          "type": "uint256"
        }
      ],
      "name": "Refunded",
      "type": "event"
    },
    {
      "anonymous": false,
      "inputs": [
        {
          "indexed": true,
          "internalType": "uint256",
          "name": "escrowId",
          "type": "uint256"
        },
        {
          "indexed": true,
          "internalType": "address",
          "name": "requester",
          "type": "address"
        }
      ],
      "name": "RequestCancel",
      "type": "event"
    },
    {
      "anonymous": false,
      "inputs": [
        {
          "indexed": true,
          "internalType": "address",
          "name": "token",
          "type": "address"
        },
        {
          "indexed": false,
          "internalType": "bool",
          "name": "allowed",
          "type": "bool"
        }
      ],
      "name": "TokenAllowed",
      "type": "event"
    },
    {
      "anonymous": false,
      "inputs": [
        {
          "indexed": true,
          "internalType": "address",
          "name": "token",
          "type": "address"
        },
        {
          "indexed": true,
          "internalType": "address",
          "name": "user",
          "type": "address"
        },
        {
          "indexed": false,
          "internalType": "uint256",
          "name": "amount",
          "type": "uint256"
        }
      ],
      "name": "Withdrawn",
      "type": "event"
    },
    {
      "inputs": [],
      "name": "acceptOwnership",
      "outputs": [],
      "stateMutability": "nonpayable",
      "type": "function"
    },
    {
      "inputs": [
        {
          "internalType": "address",
          "name": "tokenAddress",
          "type": "address"
        }
      ],
      "name": "allowedTokens",
      "outputs": [
        {
          "internalType": "bool",
          "name": "isAllowed",
          "type": "bool"
        }
      ],
      "stateMutability": "view",
      "type": "function"
    },
    {
      "inputs": [
        {
          "internalType": "uint256",
          "name": "escrowId",
          "type": "uint256"
        }
      ],
      "name": "autoRelease",
      "outputs": [],
      "stateMutability": "nonpayable",
      "type": "function"
    },
    {
      "inputs": [
        {
          "internalType": "uint256",
          "name": "escrowId",
          "type": "uint256"
        }
      ],
      "name": "cancelByTimeout",
      "outputs": [],
      "stateMutability": "nonpayable",
      "type": "function"
    },
    {
      "inputs": [
        {
          "internalType": "uint256",
          "name": "escrowId",
          "type": "uint256"
        }
      ],
      "name": "confirmDelivery",
      "outputs": [],
      "stateMutability": "nonpayable",
      "type": "function"
    },
    {
      "inputs": [
        {
          "internalType": "uint256",
          "name": "escrowId",
          "type": "uint256"
        },
        {
          "internalType": "bytes",
          "name": "signature",
          "type": "bytes"
        },
        {
          "internalType": "uint256",
          "name": "deadline",
          "type": "uint256"
        },
        {
          "internalType": "uint256",
          "name": "nonce",
          "type": "uint256"
        }
      ],
      "name": "confirmDeliverySigned",
      "outputs": [],
      "stateMutability": "nonpayable",
      "type": "function"
    },
    {
      "inputs": [
        {
          "internalType": "address",
          "name": "token",
          "type": "address"
        },
        {
          "internalType": "address",
          "name": "buyer",
          "type": "address"
        },
        {
          "internalType": "uint256",
          "name": "amount",
          "type": "uint256"
        },
        {
          "internalType": "uint256",
          "name": "maturityTimeDays",
          "type": "uint256"
        },
        {
          "internalType": "string",
          "name": "title",
          "type": "string"
        },
        {
          "internalType": "string",
          "name": "ipfsHash",
          "type": "string"
        }
      ],
      "name": "createEscrow",
      "outputs": [
        {
          "internalType": "uint256",
          "name": "",
          "type": "uint256"
        }
      ],
      "stateMutability": "nonpayable",
      "type": "function"
    },
    {
      "inputs": [
        {
          "internalType": "uint256",
          "name": "escrowId",
          "type": "uint256"
        }
      ],
      "name": "deposit",
      "outputs": [],
      "stateMutability": "nonpayable",
      "type": "function"
    },
    {
      "inputs": [
        {
          "internalType": "uint256",
          "name": "_disputeId",
          "type": "uint256"
        }
      ],
      "name": "disputeStatus",
      "outputs": [
        {
          "internalType": "uint256",
          "name": "_status",
          "type": "uint256"
        }
      ],
      "stateMutability": "view",
      "type": "function"
    },
    {
      "inputs": [
        {
          "internalType": "uint256",
          "name": "escrowId",
          "type": "uint256"
        }
      ],
      "name": "escrows",
      "outputs": [
        {
          "internalType": "address",
          "name": "token",
          "type": "address"
        },
        {
          "internalType": "address",
          "name": "buyer",
          "type": "address"
        },
        {
          "internalType": "address",
          "name": "seller",
          "type": "address"
        },
        {
          "internalType": "address",
          "name": "arbiter",
          "type": "address"
        },
        {
          "internalType": "uint256",
          "name": "amount",
          "type": "uint256"
        },
        {
          "internalType": "uint256",
          "name": "depositTime",
          "type": "uint256"
        },
        {
          "internalType": "uint256",
          "name": "maturityTime",
          "type": "uint256"
        },
        {
          "internalType": "uint256",
          "name": "nonce",
          "type": "uint256"
        },
        {
          "internalType": "enum PalindromeCryptoEscrow.State",
          "name": "state",
          "type": "uint8"
        },
        {
          "internalType": "bool",
          "name": "buyerCancelRequested",
          "type": "bool"
        },
        {
          "internalType": "bool",
          "name": "sellerCancelRequested",
          "type": "bool"
        }
      ],
      "stateMutability": "view",
      "type": "function"
    },
    {
      "inputs": [
        {
          "internalType": "address",
          "name": "",
          "type": "address"
        }
      ],
      "name": "feePool",
      "outputs": [
        {
          "internalType": "uint256",
          "name": "",
          "type": "uint256"
        }
      ],
      "stateMutability": "view",
      "type": "function"
    },
    {
      "inputs": [],
      "name": "lpToken",
      "outputs": [
        {
          "internalType": "contract PalindromeEscrowLP",
          "name": "",
          "type": "address"
        }
      ],
      "stateMutability": "view",
      "type": "function"
    },
    {
      "inputs": [],
      "name": "nextEscrowId",
      "outputs": [
        {
          "internalType": "uint256",
          "name": "",
          "type": "uint256"
        }
      ],
      "stateMutability": "view",
      "type": "function"
    },
    {
      "inputs": [],
      "name": "owner",
      "outputs": [
        {
          "internalType": "address",
          "name": "",
          "type": "address"
        }
      ],
      "stateMutability": "view",
      "type": "function"
    },
    {
      "inputs": [],
      "name": "pendingOwner",
      "outputs": [
        {
          "internalType": "address",
          "name": "",
          "type": "address"
        }
      ],
      "stateMutability": "view",
      "type": "function"
    },
    {
      "inputs": [
        {
          "internalType": "uint256",
          "name": "",
          "type": "uint256"
        }
      ],
      "name": "protocolTokens",
      "outputs": [
        {
          "internalType": "address",
          "name": "",
          "type": "address"
        }
      ],
      "stateMutability": "view",
      "type": "function"
    },
    {
      "inputs": [],
      "name": "renounceOwnership",
      "outputs": [],
      "stateMutability": "nonpayable",
      "type": "function"
    },
    {
      "inputs": [
        {
          "internalType": "uint256",
          "name": "escrowId",
          "type": "uint256"
        }
      ],
      "name": "requestCancel",
      "outputs": [],
      "stateMutability": "nonpayable",
      "type": "function"
    },
    {
      "inputs": [
        {
          "internalType": "uint256",
          "name": "escrowId",
          "type": "uint256"
        },
        {
          "internalType": "bytes",
          "name": "signature",
          "type": "bytes"
        },
        {
          "internalType": "uint256",
          "name": "deadline",
          "type": "uint256"
        },
        {
          "internalType": "uint256",
          "name": "nonce",
          "type": "uint256"
        }
      ],
      "name": "requestCancelSigned",
      "outputs": [],
      "stateMutability": "nonpayable",
      "type": "function"
    },
    {
      "inputs": [
        {
          "internalType": "uint256",
          "name": "escrowId",
          "type": "uint256"
        },
        {
          "internalType": "enum PalindromeCryptoEscrow.State",
          "name": "resolution",
          "type": "uint8"
        }
      ],
      "name": "resolveDispute",
      "outputs": [],
      "stateMutability": "nonpayable",
      "type": "function"
    },
    {
      "inputs": [
        {
          "internalType": "uint256",
          "name": "escrowId",
          "type": "uint256"
        },
        {
          "internalType": "bytes",
          "name": "signature",
          "type": "bytes"
        },
        {
          "internalType": "enum PalindromeCryptoEscrow.State",
          "name": "resolution",
          "type": "uint8"
        },
        {
          "internalType": "uint256",
          "name": "deadline",
          "type": "uint256"
        },
        {
          "internalType": "uint256",
          "name": "nonce",
          "type": "uint256"
        }
      ],
      "name": "resolveDisputeSigned",
      "outputs": [],
      "stateMutability": "nonpayable",
      "type": "function"
    },
    {
      "inputs": [
        {
          "internalType": "uint256",
          "name": "escrowId",
          "type": "uint256"
        },
        {
          "internalType": "address",
          "name": "newArbiter",
          "type": "address"
        }
      ],
      "name": "setEscrowArbiter",
      "outputs": [],
      "stateMutability": "nonpayable",
      "type": "function"
    },
    {
      "inputs": [
        {
          "internalType": "uint256",
          "name": "escrowId",
          "type": "uint256"
        }
      ],
      "name": "startDispute",
      "outputs": [],
      "stateMutability": "nonpayable",
      "type": "function"
    },
    {
      "inputs": [
        {
          "internalType": "uint256",
          "name": "escrowId",
          "type": "uint256"
        },
        {
          "internalType": "bytes",
          "name": "signature",
          "type": "bytes"
        },
        {
          "internalType": "uint256",
          "name": "deadline",
          "type": "uint256"
        },
        {
          "internalType": "uint256",
          "name": "nonce",
          "type": "uint256"
        }
      ],
      "name": "startDisputeSigned",
      "outputs": [],
      "stateMutability": "nonpayable",
      "type": "function"
    },
    {
      "inputs": [
        {
          "internalType": "uint256",
          "name": "escrowId",
          "type": "uint256"
        },
        {
          "internalType": "enum PalindromeCryptoEscrow.Role",
          "name": "role",
          "type": "uint8"
        },
        {
          "internalType": "string",
          "name": "ipfsHash",
          "type": "string"
        }
      ],
      "name": "submitDisputeMessage",
      "outputs": [],
      "stateMutability": "nonpayable",
      "type": "function"
    },
    {
      "inputs": [
        {
          "internalType": "address",
          "name": "newOwner",
          "type": "address"
        }
      ],
      "name": "transferOwnership",
      "outputs": [],
      "stateMutability": "nonpayable",
      "type": "function"
    },
    {
      "inputs": [
        {
          "internalType": "uint256",
          "name": "escrowId",
          "type": "uint256"
        }
      ],
      "name": "withdraw",
      "outputs": [],
      "stateMutability": "nonpayable",
      "type": "function"
    },
    {
      "inputs": [],
      "name": "withdrawAllFees",
      "outputs": [],
      "stateMutability": "nonpayable",
      "type": "function"
    },
    {
      "inputs": [
        {
          "internalType": "address",
          "name": "token",
          "type": "address"
        },
        {
          "internalType": "address",
          "name": "user",
          "type": "address"
        }
      ],
      "name": "withdrawable",
      "outputs": [
        {
          "internalType": "uint256",
          "name": "amount",
          "type": "uint256"
        }
      ],
      "stateMutability": "view",
      "type": "function"
    }
  ],
  "bytecode": "0x608060405234801561000f575f5ffd5b5060405161412d38038061412d83398101604081905261002e9161021d565b60015f5561003b33610195565b6001600160a01b03821661008a5760405162461bcd60e51b81526020600482015260116024820152701314081d1bdad95b881c995c5d5a5c9959607a1b60448201526064015b60405180910390fd5b600380546001600160a01b0319166001600160a01b038481169190911790915581166100f85760405162461bcd60e51b815260206004820152601460248201527f546f6b656e2063616e6e6f74206265207a65726f0000000000000000000000006044820152606401610081565b6001600160a01b0381165f818152600660209081526040808320805460ff19166001908117909155600a8054808301825594527fc65a7bb8d6351c1cf70c95a316cc6a92839c986682d98bc35f958f4883f9d2a890930180546001600160a01b03191685179055519182527f9a8e30a8658b96ab3f034ce4bac6806278b4aee5880ccdd1ac35e4ed5bb31d23910160405180910390a2505061024e565b600280546001600160a01b03191690556101ae816101b1565b50565b600180546001600160a01b038381166001600160a01b0319831681179093556040519116919082907f8be0079c531659141344cd1fd0a4f28419497f9722a3daafe3b4186f6b6457e0905f90a35050565b80516001600160a01b0381168114610218575f5ffd5b919050565b5f5f6040838503121561022e575f5ffd5b61023783610202565b915061024560208401610202565b90509250929050565b613ed28061025b5f395ff3fe608060405234801561000f575f5ffd5b50600436106101c6575f3560e01c8063af236af4116100fe578063e55e42111161009e578063f2fde38b1161006e578063f2fde38b1461046c578063fcaff4ae1461047f578063fd26fef114610492578063fd84cb97146104b1575f5ffd5b8063e55e421114610401578063e683a2d414610414578063e744092e14610427578063ef7ee7b914610459575f5ffd5b8063c0cfa7e5116100d9578063c0cfa7e5146103b7578063cbfababd146103ca578063da183b02146103dd578063e30c3978146103f0575f5ffd5b8063af236af414610372578063b6b55f251461037a578063c0314d271461038d575f5ffd5b80635fcbd28511610169578063715018a611610144578063715018a61461034857806379ba50971461035057806389cb29dd146103585780638da5cb5b14610361575f5ffd5b80635fcbd2851461030f5780636232ef60146103225780636754631714610335575f5ffd5b80632e1a7d4d116101a45780632e1a7d4d146102ab57806333bbe7e2146102be5780633cc0b521146102d1578063459b860e146102fc575f5ffd5b8063012f52ee146101ca57806306075a151461026957806310f169e81461027e575b5f5ffd5b6102496101d8366004613803565b600560208190525f91825260409091208054600182015460028301546003840154600485015495850154600686015460078701546008909701546001600160a01b039687169895871697948716969093169493919290919060ff80821691610100810482169162010000909104168b565b6040516102609b9a9998979695949392919061384e565b60405180910390f35b61027c6102773660046138ff565b6104c4565b005b61029d61028c366004613803565b60076020525f908152604090205481565b604051908152602001610260565b61027c6102b9366004613803565b6107e0565b61027c6102cc3660046138ff565b610a06565b6102e46102df366004613803565b610dce565b6040516001600160a01b039091168152602001610260565b61027c61030a366004613803565b610df6565b6003546102e4906001600160a01b031681565b61027c610330366004613958565b611035565b61027c6103433660046138ff565b6113bc565b61027c6116a5565b61027c6116b8565b61029d60045481565b6001546001600160a01b03166102e4565b61027c61172f565b61027c610388366004613803565b611a76565b61029d61039b3660046139ce565b600860209081525f928352604080842090915290825290205481565b61027c6103c5366004613803565b611e08565b61027c6103d83660046139ff565b611ef8565b61027c6103eb366004613803565b611fd6565b6002546001600160a01b03166102e4565b61027c61040f366004613a2e565b61229e565b61027c610422366004613803565b6124c3565b610449610435366004613a4f565b60066020525f908152604090205460ff1681565b6040519015158152602001610260565b61029d610467366004613a6f565b612632565b61027c61047a366004613a4f565b61296f565b61027c61048d366004613b11565b6129e0565b61029d6104a0366004613a4f565b60096020525f908152604090205481565b61027c6104bf366004613803565b612e25565b6104cc612f4b565b5f8581526005602052604090206001015485906001600160a01b031633148061050d57505f818152600560205260409020600201546001600160a01b031633145b6105325760405162461bcd60e51b815260040161052990613b7c565b60405180910390fd5b62015180836105535760405162461bcd60e51b815260040161052990613bb3565b4284116105725760405162461bcd60e51b815260040161052990613bdd565b61057c8142613c28565b841061059a5760405162461bcd60e51b815260040161052990613c3b565b5f8781526005602052604090206001600882015460ff1660058111156105c2576105c261381a565b146106065760405162461bcd60e51b8152602060048201526014602482015273139bdd081055d05255125391d7d410565351539560621b6044820152606401610529565b8060070154841461064a5760405162461bcd60e51b815260206004820152600e60248201526d09cdedcc6ca40dad2e6dac2e8c6d60931b6044820152606401610529565b6005810154604080514660208201523091810191909152606081018a905233608082015260a081019190915260c0810186905260e0810185905261010080820152600c6101208201526b73746172744469737075746560a01b6101408201525f90610160016040516020818303038152906040528051906020012090505f61070f6106d483612fa2565b8a8a8080601f0160208091040260200160405190810160405280939291908181526020018383808284375f92019190915250612fd492505050565b60018401549091506001600160a01b038083169116146107715760405162461bcd60e51b815260206004820152601760248201527f5369676e6174757265206d7573742062652062757965720000000000000000006044820152606401610529565b600783018054905f61078283613c72565b909155505060088301805460ff191660021790556040516001600160a01b038216908b907fd658effe7cf013e5a508b3f1a373b92566494d8b6a7c2970fc964932de1c4dab905f90a350505050506107d960015f55565b5050505050565b6107e8612f4b565b5f8181526005602052604090206001015481906001600160a01b031633148061082957505f818152600560205260409020600201546001600160a01b031633145b6108455760405162461bcd60e51b815260040161052990613b7c565b5f82815260056020819052604090912090600882015460ff16600581111561086f5761086f61381a565b148061089357506003600882015460ff1660058111156108915761089161381a565b145b806108b657506004600882015460ff1660058111156108b4576108b461381a565b145b6109155760405162461bcd60e51b815260206004820152602a60248201527f5769746864726177616c73206f6e6c7920616c6c6f77656420616674657220656044820152697363726f7720656e647360b01b6064820152608401610529565b80546001600160a01b03165f9081526008602090815260408083203384529091528120549081900361097f5760405162461bcd60e51b81526020600482015260136024820152724e6f7468696e6720746f20776974686472617760681b6044820152606401610529565b8154610995906001600160a01b03163383612ff8565b81546001600160a01b039081165f908152600860209081526040808320338085529083528184209390935585549051858152929316917fd1c19fbcd4551a5edfb66d43d2e337c04837afda3482b42bdf569a8fccdae5fb91015b60405180910390a3505050610a0360015f55565b50565b610a0e612f4b565b5f8581526005602052604090206001015485906001600160a01b0316331480610a4f57505f818152600560205260409020600201546001600160a01b031633145b610a6b5760405162461bcd60e51b815260040161052990613b7c565b6201518083610a8c5760405162461bcd60e51b815260040161052990613bb3565b428411610aab5760405162461bcd60e51b815260040161052990613bdd565b610ab58142613c28565b8410610ad35760405162461bcd60e51b815260040161052990613c3b565b5f8781526005602052604090206001600882015460ff166005811115610afb57610afb61381a565b14610b185760405162461bcd60e51b815260040161052990613c8a565b80600701548414610b5c5760405162461bcd60e51b815260206004820152600e60248201526d09cdedcc6ca40dad2e6dac2e8c6d60931b6044820152606401610529565b6005810154604080514660208201523091810191909152606081018a905233608082015260a081019190915260c0810186905260e0810185905261010080820152600d6101208201526c18d85b98d95b14995c5d595cdd609a1b6101408201525f90610160016040516020818303038152906040528051906020012090505f610be76106d483612fa2565b60018401549091506001600160a01b038083169116148015610c15575060018301546001600160a01b031633145b80610c46575060028301546001600160a01b038281169116148015610c46575060028301546001600160a01b031633145b610c925760405162461bcd60e51b815260206004820152601e60248201527f5369676e6174757265207061727469636970616e74206d69736d6174636800006044820152606401610529565b600783018054905f610ca383613c72565b909155505060018301546001600160a01b0390811690821603610cd65760088301805461ff001916610100179055610cea565b60088301805462ff00001916620100001790555b6040516001600160a01b038216908b907f88a867d5d9b489598a3f5e5c8d5c1da163ed116737b70444bac744920904a573905f90a36008830154610100900460ff1615610dc057600883015462010000900460ff1615610dc0578254600184015460048501545f92610d6a926001600160a01b0391821692911690613060565b60088501805460ff191660051790556004850154604080519182526020820183905291925033918d917f69e48b43ef43ff7b23e06ff586a2977fa805fbddabe2555618d946619f19c2c3910160405180910390a3505b50505050506107d960015f55565b600a8181548110610ddd575f80fd5b5f918252602090912001546001600160a01b0316905081565b610dfe612f4b565b5f8181526005602052604090206002015481906001600160a01b03163314610e5e5760405162461bcd60e51b815260206004820152601360248201527213db9b1e481cd95b1b195c88185b1b1bddd959606a1b6044820152606401610529565b5f8281526005602052604090206001600882015460ff166005811115610e8657610e8661381a565b14610ea35760405162461bcd60e51b815260040161052990613c8a565b80600501545f03610eed5760405162461bcd60e51b815260206004820152601460248201527311195c1bdcda5d081d1a5b59481b9bdd081cd95d60621b6044820152606401610529565b80600601545f03610f405760405162461bcd60e51b815260206004820152601760248201527f4d61747572697479206e6f7420636f6e666967757265640000000000000000006044820152606401610529565b6006810154610f529062015180613cb9565b8160050154610f619190613c28565b4211610faf5760405162461bcd60e51b815260206004820152601d60248201527f4d617475726974792074696d65206e6f742079657420726561636865640000006044820152606401610529565b8054600282015460048301545f92610fd5926001600160a01b0391821692911690613060565b60088301805460ff191660031790556002830154600484015460408051918252602082018490529293506001600160a01b039091169186917f489d0b4f43659843daba0a17983382a3e77f5399083ac5405143fcf6806f8ca091016109ef565b61103d612f4b565b5f8481526005602052604090206001015484906001600160a01b031633148061107e57505f818152600560205260409020600201546001600160a01b031633145b806110a157505f818152600560205260409020600301546001600160a01b031633145b6110ed5760405162461bcd60e51b815260206004820152601b60248201527f4e6f742061207061727469636970616e7420696e20657363726f7700000000006044820152606401610529565b5f8581526005602052604090206002600882015460ff1660058111156111155761111561381a565b146111515760405162461bcd60e51b815260206004820152600c60248201526b139bdd08111254d41555115160a21b6044820152606401610529565b5f60018660038111156111665761116661381a565b036111c85760018201546001600160a01b031633146111c05760405162461bcd60e51b81526020600482015260166024820152754f6e6c792062757965722063616e206d65737361676560501b6044820152606401610529565b5060016112db565b60028660038111156111dc576111dc61381a565b036112455760028201546001600160a01b0316331461123d5760405162461bcd60e51b815260206004820152601760248201527f4f6e6c792073656c6c65722063616e206d6573736167650000000000000000006044820152606401610529565b5060026112db565b60038660038111156112595761125961381a565b036112c25760038201546001600160a01b031633146112ba5760405162461bcd60e51b815260206004820152601860248201527f4f6e6c7920617262697465722063616e206d65737361676500000000000000006044820152606401610529565b5060046112db565b60405163421b511560e11b815260040160405180910390fd5b5f878152600760205260409020548116156113385760405162461bcd60e51b815260206004820152601960248201527f416c7265616479207375626d6974746564206d657373616765000000000000006044820152606401610529565b5f87815260076020526040902080548217905585600381111561135d5761135d61381a565b5f888152600760205260409081902054905133918a917f343e9b07afb91476a7eaea35e0dd214eb5d26b7047cb533a575c43a53d4c8d75916113a2918b918b91613cf8565b60405180910390a45050506113b660015f55565b50505050565b6113c4612f4b565b5f8581526005602052604090206001015485906001600160a01b031633146113fe5760405162461bcd60e51b815260040161052990613d1b565b620151808361141f5760405162461bcd60e51b815260040161052990613bb3565b42841161143e5760405162461bcd60e51b815260040161052990613bdd565b6114488142613c28565b84106114665760405162461bcd60e51b815260040161052990613c3b565b5f8781526005602052604090206001600882015460ff16600581111561148e5761148e61381a565b146114ab5760405162461bcd60e51b815260040161052990613c8a565b806007015484146114fe5760405162461bcd60e51b815260206004820152601b60248201527f496e76616c6964206e6f6e636520666f72207369676e617475726500000000006044820152606401610529565b6005810154604080514660208201523091810191909152606081018a905233608082015260a081019190915260c0810186905260e0810185905261010080820152600f6101208201526e636f6e6669726d44656c697665727960881b6101408201525f90610160016040516020818303038152906040528051906020012090505f61158b6106d483612fa2565b60018401549091506001600160a01b038083169116146115ed5760405162461bcd60e51b815260206004820152601760248201527f496e76616c6964206275796572207369676e61747572650000000000000000006044820152606401610529565b600783018054905f6115fe83613c72565b90915550508254600284015460048501545f92611629926001600160a01b0391821692911690613060565b60088501805460ff1916600317905560028501546001860154600487015460408051918252602082018590529394506001600160a01b039283169392909116918e917f8bcf349ab354486b68c142cea7235e4f7f31f6a425466f569c8ac1d5bc4d0007910160405180910390a45050505050506107d960015f55565b6116ad613262565b6116b65f6132bc565b565b60025433906001600160a01b031681146117265760405162461bcd60e51b815260206004820152602960248201527f4f776e61626c6532537465703a2063616c6c6572206973206e6f7420746865206044820152683732bb9037bbb732b960b91b6064820152608401610529565b610a03816132bc565b611737612f4b565b61173f613262565b6003545f906001600160a01b03166370a082316117646001546001600160a01b031690565b6040516001600160e01b031960e084901b1681526001600160a01b039091166004820152602401602060405180830381865afa1580156117a6573d5f5f3e3d5ffd5b505050506040513d601f19601f820116820180604052508101906117ca9190613d47565b90505f81116118125760405162461bcd60e51b81526020600482015260146024820152732737902628103a37b5b2b739903a3790313ab93760611b6044820152606401610529565b600354604080516318160ddd60e01b815290515f926001600160a01b0316916318160ddd9160048083019260209291908290030181865afa158015611859573d5f5f3e3d5ffd5b505050506040513d601f19601f8201168201806040525081019061187d9190613d47565b90505f5b600a54811015611998575f600a828154811061189f5761189f613d5e565b5f9182526020808320909101546001600160a01b03168083526009909152604082205490925090846118d18388613cb9565b6118db9190613d72565b9050801561198d576119096118f86001546001600160a01b031690565b6001600160a01b0385169083612ff8565b6001600160a01b0383165f9081526009602052604081208054839290611930908490613d91565b90915550506001546001600160a01b03166001600160a01b0316836001600160a01b03167eed5939179dc194223f0edd1517ecee2210b22da7f82c8e4b1795e93b9f06aa8360405161198491815260200190565b60405180910390a35b505050600101611881565b506003546001600160a01b0316639dc29fac6119bc6001546001600160a01b031690565b6040516001600160e01b031960e084901b1681526001600160a01b039091166004820152602481018590526044015f604051808303815f87803b158015611a01575f5ffd5b505af1158015611a13573d5f5f3e3d5ffd5b50505050611a296001546001600160a01b031690565b6001600160a01b03167f0b19eea3a67f65a169da2828a87a9eef904c4c4956d367cb40b33001e455223483604051611a6391815260200190565b60405180910390a250506116b660015f55565b611a7e612f4b565b5f8181526005602052604090206001015481906001600160a01b03163314611ab85760405162461bcd60e51b815260040161052990613d1b565b5f82815260056020526040812090600882015460ff166005811115611adf57611adf61381a565b14611b235760405162461bcd60e51b8152602060048201526014602482015273139bdd081055d05255125391d7d410565351539560621b6044820152606401610529565b80546001600160a01b03165f9081526006602052604090205460ff16611b8b5760405162461bcd60e51b815260206004820152601960248201527f546f6b656e206e6f7420616c6c6f77656420616e796d6f7265000000000000006044820152606401610529565b60018160040154611b9c9190613d91565b8154604051636eb1769f60e11b81523360048201523060248201526001600160a01b039091169063dd62ed3e90604401602060405180830381865afa158015611be7573d5f5f3e3d5ffd5b505050506040513d601f19601f82011682018060405250810190611c0b9190613d47565b11611c585760405162461bcd60e51b815260206004820152601960248201527f457363726f773a20616c6c6f77616e636520746f6f206c6f77000000000000006044820152606401610529565b80546040516370a0823160e01b81523060048201525f916001600160a01b0316906370a0823190602401602060405180830381865afa158015611c9d573d5f5f3e3d5ffd5b505050506040513d601f19601f82011682018060405250810190611cc19190613d47565b60048301548354919250611ce2916001600160a01b031690339030906132d5565b81546040516370a0823160e01b81523060048201525f916001600160a01b0316906370a0823190602401602060405180830381865afa158015611d27573d5f5f3e3d5ffd5b505050506040513d601f19601f82011682018060405250810190611d4b9190613d47565b6004840154909150611d5d8383613d91565b14611daa5760405162461bcd60e51b815260206004820152601f60248201527f4465706f736974206d69736d61746368206166746572207472616e73666572006044820152606401610529565b42600584015560088301805460ff191660011790556004830154604051908152339086907f71284872bb4c088a81295dff2513729babbccfeda38a8d824bb1a73bcaab494e9060200160405180910390a350505050610a0360015f55565b611e10612f4b565b5f8181526005602052604090206001015481906001600160a01b0316331480611e5157505f818152600560205260409020600201546001600160a01b031633145b611e6d5760405162461bcd60e51b815260040161052990613b7c565b5f8281526005602052604090206001600882015460ff166005811115611e9557611e9561381a565b14611eb25760405162461bcd60e51b815260040161052990613c8a565b60088101805460ff19166002179055604051339084907fd658effe7cf013e5a508b3f1a373b92566494d8b6a7c2970fc964932de1c4dab905f90a35050610a0360015f55565b611f00613262565b6001600160a01b038116611f615760405162461bcd60e51b815260206004820152602260248201527f4e657720617262697465722063616e6e6f74206265207a65726f206164647265604482015261737360f01b6064820152608401610529565b5f828152600560209081526040918290206003810180546001600160a01b031981166001600160a01b0387811691821790935585519290911680835293820152909285917f49f78e86c2ff48d61ed48e99e4735ce003575afe6c67bf61127afe6e74cfd9ee910160405180910390a250505050565b611fde612f4b565b5f8181526005602052604090206001015481906001600160a01b031633146120185760405162461bcd60e51b815260040161052990613d1b565b5f8281526005602052604090206001600882015460ff1660058111156120405761204061381a565b1461205d5760405162461bcd60e51b815260040161052990613c8a565b6008810154610100900460ff166120b65760405162461bcd60e51b815260206004820152601f60248201527f4275796572206d75737420726571756573742063616e63656c6c6174696f6e006044820152606401610529565b600881015462010000900460ff16156121115760405162461bcd60e51b815260206004820152601f60248201527f4d757475616c2063616e63656c20616c72656164792070726f636573736564006044820152606401610529565b80600501545f036121575760405162461bcd60e51b815260206004820152601060248201526f4465706f736974206e6f74206d61646560801b6044820152606401610529565b80600601545f036121b85760405162461bcd60e51b815260206004820152602560248201527f4e6f206d617475726974792073657420666f722074696d652d62617365642063604482015264185b98d95b60da1b6064820152608401610529565b60068101546121ca9062015180613cb9565b81600501546121d99190613c28565b42116122275760405162461bcd60e51b815260206004820152601b60248201527f4d6174757269747920706572696f64206e6f74207265616368656400000000006044820152606401610529565b8054600182015460048301545f9261224d926001600160a01b0391821692911690613060565b60088301805460ff1916600517905560048301546040805191825260208201839052919250339186917f69e48b43ef43ff7b23e06ff586a2977fa805fbddabe2555618d946619f19c2c391016109ef565b6122a6612f4b565b5f8281526005602052604090206003015482906001600160a01b031633146123075760405162461bcd60e51b815260206004820152601460248201527313db9b1e48185c989a5d195c88185b1b1bddd95960621b6044820152606401610529565b5f8381526005602052604090206002600882015460ff16600581111561232f5761232f61381a565b1461236b5760405162461bcd60e51b815260206004820152600c60248201526b139bdd08111254d41555115160a21b6044820152606401610529565b600383600581111561237f5761237f61381a565b148061239c5750600483600581111561239a5761239a61381a565b145b6123dd5760405162461bcd60e51b815260206004820152601260248201527124b73b30b634b2103932b9b7b63aba34b7b760711b6044820152606401610529565b5f60038460058111156123f2576123f261381a565b1461240a5760018201546001600160a01b0316612419565b60028201546001600160a01b03165b825460048401549192505f9161243a916001600160a01b0316908490613060565b5f87815260076020526040812055600884018054919250869160ff1916600183600581111561246b5761246b61381a565b0217905550857ffc4c84ff0bf9d937dea068e6c13c3a16c307d76a1c5b5173c40f03f68f421e0086338660040154856040516124aa9493929190613da4565b60405180910390a2505050506124bf60015f55565b5050565b6124cb612f4b565b5f8181526005602052604090206001015481906001600160a01b031633148061250c57505f818152600560205260409020600201546001600160a01b031633145b6125285760405162461bcd60e51b815260040161052990613b7c565b5f8281526005602052604090206001600882015460ff1660058111156125505761255061381a565b1461256d5760405162461bcd60e51b815260040161052990613c8a565b60018101546001600160a01b0316331461259b5760088101805462ff000019166201000017905560016125af565b60088101805461ff00191661010017905560015b50604051339084907f88a867d5d9b489598a3f5e5c8d5c1da163ed116737b70444bac744920904a573905f90a36008810154610100900460ff161561262757600881015462010000900460ff1615612627578054600182015460048301545f9261224d926001600160a01b0391821692911690613060565b5050610a0360015f55565b5f6001600160a01b0389166126895760405162461bcd60e51b815260206004820152601c60248201527f546f6b656e2063616e6e6f74206265207a65726f2061646472657373000000006044820152606401610529565b6001600160a01b0389165f9081526006602052604090205460ff166126f05760405162461bcd60e51b815260206004820181905260248201527f546f6b656e206973206e6f742077686974656c69737465642f616c6c6f7765646044820152606401610529565b6001600160a01b0388166127465760405162461bcd60e51b815260206004820152601c60248201527f42757965722063616e6e6f74206265207a65726f2061646472657373000000006044820152606401610529565b336001600160a01b038916036127965760405162461bcd60e51b8152602060048201526015602482015274427579657220616e642073656c6c65722073616d6560581b6044820152606401610529565b610e4386106127e75760405162461bcd60e51b815260206004820152601a60248201527f4d617475726974792065786365656473203336353020646179730000000000006044820152606401610529565b865f036128365760405162461bcd60e51b815260206004820152601760248201527f416d6f756e74206e6f742067726561746572207a65726f0000000000000000006044820152606401610529565b6004545f81815260056020526040902080546001600160a01b03808d166001600160a01b0319928316178355600183018054918d16918316919091179055600282018054909116331790556128936001546001600160a01b031690565b6003820180546001600160a01b0319166001600160a01b0392909216919091179055600481018990555f600582018190556006820189905560088201805460ff1916600183021790555060088101805462ffff00191690555f6007820155336001600160a01b038b16837fd3e0574cb952cf8d88c9c2b97882e6000237da1d62a64753eaddaf4d9ce7351b8e8d6129326001546001600160a01b031690565b8e8e8e8e8e60405161294b989796959493929190613dd6565b60405180910390a461295e826001613c28565b600455509998505050505050505050565b612977613262565b600280546001600160a01b0383166001600160a01b031990911681179091556129a86001546001600160a01b031690565b6001600160a01b03167f38d16b8cac22d99fc7c124b9cd0de2d3fa1faef420bfe791d8c362d765e2270060405160405180910390a350565b6129e8612f4b565b5f8681526005602052604090206003015486906001600160a01b03163314612a495760405162461bcd60e51b815260206004820152601460248201527313db9b1e48185c989a5d195c88185b1b1bddd95960621b6044820152606401610529565b6201518083612a6a5760405162461bcd60e51b815260040161052990613bb3565b428411612a895760405162461bcd60e51b815260040161052990613bdd565b612a938142613c28565b8410612ab15760405162461bcd60e51b815260040161052990613c3b565b5f8881526005602052604090206002600882015460ff166005811115612ad957612ad961381a565b14612b1d5760405162461bcd60e51b81526020600482015260146024820152734e6f7420696e206469737075746520737461746560601b6044820152606401610529565b80600701548414612b7b5760405162461bcd60e51b815260206004820152602260248201527f4e6f6e6365206d69736d6174636820666f722064697370757465207265736f6c604482015261766560f01b6064820152608401610529565b6003866005811115612b8f57612b8f61381a565b1480612bac57506004866005811115612baa57612baa61381a565b145b612bf85760405162461bcd60e51b815260206004820152601760248201527f5265736f6c7574696f6e207479706520696e76616c69640000000000000000006044820152606401610529565b6005810154604080514660208201523091810191909152606081018b905233608082015260a081019190915260c0810186905260e0810185905261010080820152600e6101208201526d7265736f6c76654469737075746560901b6101408201525f90610160016040516020818303038152906040528051906020012090505f612cbf612c8483612fa2565b8b8b8080601f0160208091040260200160405190810160405280939291908181526020018383808284375f92019190915250612fd492505050565b60038401549091506001600160a01b03808316911614612d215760405162461bcd60e51b815260206004820181905260248201527f5369676e617475726520646f6573206e6f74206d6174636820617262697465726044820152606401610529565b600783018054905f612d3283613c72565b909155505f90506003896005811115612d4d57612d4d61381a565b14612d655760018401546001600160a01b0316612d74565b60028401546001600160a01b03165b845460048601549192505f91612d95916001600160a01b0316908490613060565b5f8e8152600760205260408120556008860180549192508b9160ff19166001836005811115612dc657612dc661381a565b02179055508c7ffc4c84ff0bf9d937dea068e6c13c3a16c307d76a1c5b5173c40f03f68f421e008b85886004015485604051612e059493929190613da4565b60405180910390a250505050505050612e1d60015f55565b505050505050565b612e2d612f4b565b5f8181526005602052604090206001015481906001600160a01b03163314612e675760405162461bcd60e51b815260040161052990613d1b565b5f8281526005602052604090206001600882015460ff166005811115612e8f57612e8f61381a565b14612eac5760405162461bcd60e51b815260040161052990613c8a565b8054600282015460048301545f92612ed2926001600160a01b0391821692911690613060565b60088301805460ff1916600317905560028301546001840154600485015460408051918252602082018590529394506001600160a01b0392831693929091169187917f8bcf349ab354486b68c142cea7235e4f7f31f6a425466f569c8ac1d5bc4d0007910160405180910390a4505050610a0360015f55565b60025f5403612f9c5760405162461bcd60e51b815260206004820152601f60248201527f5265656e7472616e637947756172643a207265656e7472616e742063616c6c006044820152606401610529565b60025f55565b7f19457468657265756d205369676e6564204d6573736167653a0a3332000000005f908152601c91909152603c902090565b5f5f5f612fe1858561330d565b91509150612fee8161334f565b5090505b92915050565b6040516001600160a01b03831660248201526044810182905261305b90849063a9059cbb60e01b906064015b60408051601f198184030181529190526020810180516001600160e01b03166001600160e01b031990931692909217909152613498565b505050565b5f6001600160a01b0383166130b75760405162461bcd60e51b815260206004820181905260248201527f526563697069656e7420616464726573732063616e6e6f74206265207a65726f6044820152606401610529565b6127106130c5606484613cb9565b6130cf9190613d72565b90505f6130dc8284613d91565b9050825f0361312d5760405162461bcd60e51b815260206004820181905260248201527f416d6f756e74206d7573742062652067726561746572207468616e207a65726f6044820152606401610529565b6001600160a01b038086165f90815260086020908152604080832093881683529290529081208054839290613163908490613c28565b90915550506001600160a01b0385165f908152600960205260408120805484929061318f908490613c28565b90915550506003546001600160a01b03166340c10f196131b76001546001600160a01b031690565b6040516001600160e01b031960e084901b1681526001600160a01b039091166004820152602481018590526044015f604051808303815f87803b1580156131fc575f5ffd5b505af115801561320e573d5f5f3e3d5ffd5b505060408051868152602081018690526001600160a01b038089169450891692507fc0c7d3f2ba6af25cbb54d2fd333d2077b3444b989f99811bd0f0030a5ec40556910160405180910390a3509392505050565b6001546001600160a01b031633146116b65760405162461bcd60e51b815260206004820181905260248201527f4f776e61626c653a2063616c6c6572206973206e6f7420746865206f776e65726044820152606401610529565b600280546001600160a01b0319169055610a038161356b565b6040516001600160a01b03808516602483015283166044820152606481018290526113b69085906323b872dd60e01b90608401613024565b5f5f8251604103613341576020830151604084015160608501515f1a613335878285856135bc565b94509450505050613348565b505f905060025b9250929050565b5f8160048111156133625761336261381a565b0361336a5750565b600181600481111561337e5761337e61381a565b036133cb5760405162461bcd60e51b815260206004820152601860248201527f45434453413a20696e76616c6964207369676e617475726500000000000000006044820152606401610529565b60028160048111156133df576133df61381a565b0361342c5760405162461bcd60e51b815260206004820152601f60248201527f45434453413a20696e76616c6964207369676e6174757265206c656e677468006044820152606401610529565b60038160048111156134405761344061381a565b03610a035760405162461bcd60e51b815260206004820152602260248201527f45434453413a20696e76616c6964207369676e6174757265202773272076616c604482015261756560f01b6064820152608401610529565b5f6134ec826040518060400160405280602081526020017f5361666545524332303a206c6f772d6c6576656c2063616c6c206661696c6564815250856001600160a01b03166136799092919063ffffffff16565b905080515f148061350c57508080602001905181019061350c9190613e32565b61305b5760405162461bcd60e51b815260206004820152602a60248201527f5361666545524332303a204552433230206f7065726174696f6e20646964206e6044820152691bdd081cdd58d8d9595960b21b6064820152608401610529565b600180546001600160a01b038381166001600160a01b0319831681179093556040519116919082907f8be0079c531659141344cd1fd0a4f28419497f9722a3daafe3b4186f6b6457e0905f90a35050565b5f807f7fffffffffffffffffffffffffffffff5d576e7357a4501ddfe92f46681b20a08311156135f157505f90506003613670565b604080515f8082526020820180845289905260ff881692820192909252606081018690526080810185905260019060a0016020604051602081039080840390855afa158015613642573d5f5f3e3d5ffd5b5050604051601f1901519150506001600160a01b03811661366a575f60019250925050613670565b91505f90505b94509492505050565b606061368784845f8561368f565b949350505050565b6060824710156136f05760405162461bcd60e51b815260206004820152602660248201527f416464726573733a20696e73756666696369656e742062616c616e636520666f6044820152651c8818d85b1b60d21b6064820152608401610529565b5f5f866001600160a01b0316858760405161370b9190613e51565b5f6040518083038185875af1925050503d805f8114613745576040519150601f19603f3d011682016040523d82523d5f602084013e61374a565b606091505b509150915061375b87838387613766565b979650505050505050565b606083156137d45782515f036137cd576001600160a01b0385163b6137cd5760405162461bcd60e51b815260206004820152601d60248201527f416464726573733a2063616c6c20746f206e6f6e2d636f6e74726163740000006044820152606401610529565b5081613687565b61368783838151156137e95781518083602001fd5b8060405162461bcd60e51b81526004016105299190613e67565b5f60208284031215613813575f5ffd5b5035919050565b634e487b7160e01b5f52602160045260245ffd5b6006811061384a57634e487b7160e01b5f52602160045260245ffd5b9052565b6001600160a01b038c811682528b811660208301528a81166040830152891660608201526080810188905260a0810187905260c0810186905260e0810185905261016081016138a161010083018661382e565b921515610120820152901515610140909101529998505050505050505050565b5f5f83601f8401126138d1575f5ffd5b50813567ffffffffffffffff8111156138e8575f5ffd5b602083019150836020828501011115613348575f5ffd5b5f5f5f5f5f60808688031215613913575f5ffd5b85359450602086013567ffffffffffffffff811115613930575f5ffd5b61393c888289016138c1565b9699909850959660408101359660609091013595509350505050565b5f5f5f5f6060858703121561396b575f5ffd5b84359350602085013560048110613980575f5ffd5b9250604085013567ffffffffffffffff81111561399b575f5ffd5b6139a7878288016138c1565b95989497509550505050565b80356001600160a01b03811681146139c9575f5ffd5b919050565b5f5f604083850312156139df575f5ffd5b6139e8836139b3565b91506139f6602084016139b3565b90509250929050565b5f5f60408385031215613a10575f5ffd5b823591506139f6602084016139b3565b8035600681106139c9575f5ffd5b5f5f60408385031215613a3f575f5ffd5b823591506139f660208401613a20565b5f60208284031215613a5f575f5ffd5b613a68826139b3565b9392505050565b5f5f5f5f5f5f5f5f60c0898b031215613a86575f5ffd5b613a8f896139b3565b9750613a9d60208a016139b3565b96506040890135955060608901359450608089013567ffffffffffffffff811115613ac6575f5ffd5b613ad28b828c016138c1565b90955093505060a089013567ffffffffffffffff811115613af1575f5ffd5b613afd8b828c016138c1565b999c989b5096995094979396929594505050565b5f5f5f5f5f5f60a08789031215613b26575f5ffd5b86359550602087013567ffffffffffffffff811115613b43575f5ffd5b613b4f89828a016138c1565b9096509450613b62905060408801613a20565b959894975092956060810135946080909101359350915050565b6020808252601f908201527f4e6f742061206275796572206f722073656c6c657220696e20657363726f7700604082015260600190565b60208082526010908201526f496e76616c696420646561646c696e6560801b604082015260600190565b6020808252601e908201527f446561646c696e65206d75737420626520696e20746865206675747572650000604082015260600190565b634e487b7160e01b5f52601160045260245ffd5b80820180821115612ff257612ff2613c14565b6020808252601f908201527f446561646c696e652065786365656473206d6178696d756d2077696e646f7700604082015260600190565b5f60018201613c8357613c83613c14565b5060010190565b6020808252601590820152744e6f74204157414954494e475f44454c495645525960581b604082015260600190565b8082028115828204841417612ff257612ff2613c14565b81835281816020850137505f828201602090810191909152601f909101601f19169091010190565b604081525f613d0b604083018587613cd0565b9050826020830152949350505050565b60208082526012908201527113db9b1e48189d5e595c88185b1b1bddd95960721b604082015260600190565b5f60208284031215613d57575f5ffd5b5051919050565b634e487b7160e01b5f52603260045260245ffd5b5f82613d8c57634e487b7160e01b5f52601260045260245ffd5b500490565b81810381811115612ff257612ff2613c14565b60808101613db2828761382e565b6001600160a01b039490941660208201526040810192909252606090910152919050565b6001600160a01b03898116825260208201899052871660408201526060810186905260c0608082018190525f90613e109083018688613cd0565b82810360a0840152613e23818587613cd0565b9b9a5050505050505050505050565b5f60208284031215613e42575f5ffd5b81518015158114613a68575f5ffd5b5f82518060208501845e5f920191825250919050565b602081525f82518060208401528060208501604085015e5f604082850101526040601f19601f8301168401019150509291505056fea26469706673582212201ac701800b9ee1f46f816413eb40e9d182bf5d462539b2201fa148c7ca2f083364736f6c634300081d0033",
  "linkReferences": {},
  "deployedLinkReferences": {},
  "immutableReferences": {},
  "inputSourceName": "project/contracts/PalindromeCryptoEscrow.sol",
  "buildInfoId": "solc-0_8_29-ec4f825bb93c46b04d4543bc346af56d49e4a11a"
}